:020000040800F2
:10000000F82C0020817B0008B9010008BB01000822
:10001000BF010008C3010008C7010008000000007C
:10002000000000000000000000000000CB010008FC
:10003000CD01000800000000CF010008D101000838
:100040009B7B00089B7B00089B7B00089B7B000838
:100050009B7B00089B7B00089B7B00089B7B000828
:100060009B7B00089B7B00089B7B00089B7B000818
:100070009B7B00089B7B00089B7B00088F4A000845
:100080009B7B00089B7B00089B7B0008834100084A
:10009000994100089B7B00089B7B00089B7B000824
:1000A0009B7B00089B7B00089B7B00089B7B0008D8
:1000B000795100089B510008B95100089B7B00084A
:1000C0009B7B00089B7B00089B7B00089B7B0008B8
:1000D0009B7B0008574400083F460008234800085F
:1000E0009B7B00089B7B00089B7B00089B7B000898
:1000F0009B7B00089B7B00089B7B00089B7B000888
:100100009B7B00089B7B0008DB5100089B7B000861
:10011000214A0008354D0008C1520008E752000886
:100120009B7B00089B7B00089B7B00089B7B000857
:100130009B7B00089B7B00089B7B0008D342000848
:10014000E94200089B7B00089B7B00089B7B000822
:100150009B7B00089B7B00089B7B0008FD4E0008F2
:100160009B7B00089B7B00089B7B00089B7B000817
:100170009B7B00089B7B00089B7B00089B7B000807
:100180009B7B00089B7B0008DFF80CD008F020F96F
:10019000004800479D010008F82C002000F022F9DB
:1001A00000F0B2F904E003480068401C014908600F
:1001B000F9E7000000000020704700BFFEE700BF25
:1001C000FEE700BFFEE700BFFEE7704770477047DD
:1001D000704700000CB50020019000907648006840
:1001E00040F480307449086000BF7348006800F430
:1001F000003000900198401C0190009818B90198B7
:10020000B0F5A06FF1D16C48006800F4003010B177
:100210000120009001E0002000900098012846D1C4
:1002200065484030006840F08050634940310860C4
:100230006248006840F44040604908605E48083009
:1002400000685D49083108600846006840F40040D5
:1002500008600846006840F4A05008605848091F2C
:100260000860081F006840F08070091F086000BF28
:100270005148006800F000700028F9D040F2057085
:10028000504908604C480830006820F003004A4993
:10029000083108600846006840F00200086000BFAE
:1002A00045480830006800F00C000828F8D10CBD63
:1002B00010B54548006840F47000434908603E4866
:1002C000006840F001003C49086000203A490831CC
:1002D0000860394800683D490840374908603C4893
:1002E000091D0860081F006820F48020091F0860AD
:1002F000002031490C310860FFF76CFF4FF00060BF
:1003000031498039086010BD70B5002000220223F9
:1003100000240221284D08352D6805F00C0020B17D
:10032000042806D0082834D107E02A4D2A4E35602B
:1003300033E02A4D284E35602FE01F4D2D1D2D68CE
:10034000C5F380541C4D2D1D2D6805F03F0154B19F
:10035000224DB5FBF1F5184E361D3668C6F38816EA
:1003600005FB06F209E01B4DB5FBF1F5124E361DFB
:100370003668C6F3881605FB06F20F4D2D1D2D6855
:10038000C5F301456D1C6B00B2FBF3F5124E3560F1
:1003900003E0104D104E356000BF00BF064D08351C
:1003A0002D68C5F303150E4E705D0B4D2D68C540CD
:1003B000094E356070BD00000038024000700040FA
:1003C00008544007003C024088ED00E0FFFFF6FEC5
:1003D000103000240024F4000400002000127A00F1
:1003E0000800002010B54FF4A06004F099FF1848F1
:1003F00003F09CFF4FF4165004F089F84FF461208D
:1004000004F06CF94FF4E13004F033FA4FF4165075
:1004100004F071FB04F0EAFC0023032208211046DB
:1004200003F03CFE002303220821104603F0CFFE18
:1004300004F0D6FD04F001FE04F034FE04F067FE83
:1004400004F0DCFE04F00BFF04F0A0FD10BD000082
:10045000A086010008B530480068401C2E4908609D
:100460000868C11700EB5171C910A0EBC10111B9A7
:1004700002F071F81AE0284800680A2190FBF1F2B6
:1004800001FB1200092805D124480188244803F003
:10049000A2FA0BE0204800680A2190FBF1F201FB70
:1004A0001200052802D11E4803F07EFA1A49086896
:1004B00000EBD0714910A0EB410169B91948B0F9BE
:1004C0002E0000901748B0F92C30B0F92A20B0F96E
:1004D0002810154802F0E2FC0F490868C11700EB2C
:1004E0005171C910A0EBC10169B90E48B0F92600DD
:1004F00000900C48B0F92430B0F92220B0F9201057
:10050000094802F027FD08BD10B500200249086027
:1005100000F00CF810BD0000180000205200002070
:1005200000640040780100200068004010B5A82158
:10053000FE4807F07FFB0120FC4908730020487348
:100540000864FB490870B1EE041ADFEDFA0AB2EE56
:10055000000A0A234FF4FA520321F74802F04DFA39
:10056000B2EE041ADFEDF30A9FEDF40A4FF4FA73CA
:1005700043F698220321F24802F03FFAB1EE041A42
:10058000DFEDEC0AB2EE000A0A234FF4FA5203211F
:10059000E9484C3002F031FAB1EE001ADFEDE50A1D
:1005A0009FEDE80A4FF4FA7343F698220321E448DA
:1005B0004C3002F022FAB1EE001ADFEDDE0AB2EEA4
:1005C000000A0A234FF4FA520321DB48983002F064
:1005D00014FAB2EE001AF6EE000A9FEDDB0A4FF4B1
:1005E000FA7343F698220321D548983002F005FAB1
:1005F000B1EE001ADFEDD50AB2EE020A0A234FF47B
:10060000FA520321CC48E43002F0F7F9B2EE0E1AA8
:10061000DFEDC80A9FEDCC0A4FF4FA7343F6982237
:100620000321C748E43002F0E8F9002413E004EBAA
:10063000440101EB0411C64A02EB8100B2EE041A38
:10064000DFEDC40AB3EE080A43F698231A460321E5
:1006500002F0D3F9641C042CE9DB9FEDBF1ADFED37
:10066000BF0A9FEDBF0A00234FF4FA720321BD4871
:1006700002F0C3F910BD10B52DED068BBA48B0F8E5
:100680005110B0F85C00401F01EB4000B7490880F2
:10069000B749C88A07F09AFC41EC180B9FEDB50BDF
:1006A00053EC102B07F028FD36D8B149C88A07F063
:1006B0008DFC41EC1A0B9FEDB10B53EC102B07F0A6
:1006C0007AFB41EC190B9FEDAF0B53EC102B07F0AD
:1006D00075FB41EC180B07F0A5FCA44908800846FF
:1006E0000088002802DC0020088015E09E48B0F851
:1006F0005110B0F85C00401F01EB40009B49098895
:10070000884209DC9848B0F85110B0F85C00401FEE
:1007100001EB4000954908809549C88A07F056FCCE
:1007200041EC180B9FED950B53EC102B07F0E4FCFC
:1007300002D800208D4908808C480088002803DCFE
:1007400000208A49088006E088480088962802DB55
:10075000962086490880BDEC068B10BDF0EE400A5D
:1007600000208149B1F85120B1F85C10491F02EB1B
:100770004100002801DC002004E0B0F5AF7F01DB80
:100780004FF4AF70B7EE000A804981ED000A00EE29
:10079000100AB8EEC00A704700B52DED0A8B89B07B
:1007A000B0EE409A002021E000EB400101EB001187
:1007B000674A02EB810191ED000A00EB400101EB79
:1007C000001102EB8101D1ED020A70EE200A70499E
:1007D00031F9101000EE101AB8EEC00A20EE800AAF
:1007E00005A901EB800181ED000A401C0428DBDB38
:1007F000002046E000EB400101EB0011544A02EBFF
:10080000810191ED090A00EB400101EB001102EBBF
:100810008101D1ED000AB1EE601A4449A03131F9ED
:10082000101000EE901AF8EEE00A01EE200A00EB3C
:10083000400101EB001102EB810191ED021A3B49ED
:10084000A03131F9101000EE901AF8EEE00A01EE36
:10085000600A00EB400101EB001102EB8101D1EDD8
:10086000020A00EB400101EB001102EB810191ED66
:10087000061A00EEC10A01A901EB800181ED000A10
:10088000401C0428B6DB9DED050A20EE000ADDEDD4
:10089000060A9DED061A00EE810ADDED070A9DEDC0
:1008A000071A00EE810ADDED080A9DED081A00EE38
:1008B000810ADFED380A20EE208A9DED050ADDED84
:1008C000010A20EE200ADDED060A9DED021A00EE77
:1008D000810ADDED070A9DED031A00EE810ADDEDC8
:1008E000080A9DED041A00EE810ADFED2B0A20EEC6
:1008F000200ADDED050A9DED061A70EE810A9DEDD8
:10090000071A70EE810A9DED081A70EE810A9FEDBC
:10091000231A01EE200A9DED051A0448B0F9A00043
:1009200000EE900AF8EEE00A3AE0000078010020BC
:1009300034000020CDCCCC3D0C13002000005243ED
:100940006C1500200000344300004843CDCCCC3E61
:100950009C1600209A99993E0000FA43000000007E
:1009600000009643000E00203C2000205200002092
:1009700002210020000000000000374033333333F1
:1009800033B337400000000000C062406400002024
:100990005801002058DF2C3458DFAC346019C0B740
:1009A00061EE200ADDED061AFE48B0F9A20001EE64
:1009B000100AB8EEC11A41EE810ADDED071AF948B6
:1009C000B0F9A40001EE100AB8EEC11A41EE810A96
:1009D000DDED081AF348B0F9A60001EE100AB8EEF2
:1009E000C11A41EE810A9FEDF01AF0EE408A41EE05
:1009F000208A9DED010A20EE000ADDED020A9DED40
:100A0000021A00EE810ADDED030A9DED031A00EEE5
:100A1000810ADDED040A9DED041A00EE810A5FED06
:100A2000230A20EE200ADDED010A9DED021A70EE88
:100A3000810A9DED031A70EE810A9DED041A70EE95
:100A4000810A1FED2A1A00EE810A9DED011AD54890
:100A5000B0F9A00000EE900AF8EEE00A61EE200A7C
:100A6000DDED021ACF48B0F9A20001EE100AB8EE8F
:100A7000C11A41EE810ADDED031ACA48B0F9A4009B
:100A800001EE100AB8EEC11A41EE810ADDED041A3A
:100A9000C448B0F9A60001EE100AB8EEC11A41EE42
:100AA000810A9FEDC11A01EE200ADFEDC00A30EE87
:100AB000200A70EE499A28EEA80AF1EE000A68EEC4
:100AC000200A00EEE90A10EE101A084607F0E8FACC
:100AD00041EC1C0B9FEDB60B53EC102B07F0C7F845
:100AE00041EC1B0BB0EE4B0AF0EE6B0A08F004FA77
:100AF000B0EE40AAF0EE60AA51EC1A0B07F014FB1E
:100B000000EE100AF1EE680A70EE200AB0EE000A5C
:100B100028EE001A80EE810A09B0BDEC0A8B00BDF8
:100B200010B52DED0A8BB0EE408A0024A248007863
:100B3000032831D118EE100A07F0B2FA41EC190B74
:100B40009FED9E0B53EC102B07F0D6FA02D24FF418
:100B5000E17451E018EE100A07F0A2FA41EC1C0B08
:100B60009FED980B53EC102B07F022F941EC1B0B77
:100B70009FED960B53EC102B07F092F941EC1A0BFA
:100B80009FED940B53EC102B07F018F941EC190B67
:100B900007F029FA04462FE018EE100A07F080FA51
:100BA00041EC190B9FED850B53EC102B07F0A4FAC9
:100BB00001D2FA2420E018EE100A07F071FA41EC95
:100BC0001C0B9FED800B53EC102B07F0F1F841EC60
:100BD0001B0B9FED7E0B53EC102B07F061F941ECE2
:100BE0001A0B9FED7E0B53EC102B07F0E7F841EC4E
:100BF000190B07F0F8F90446002C01DC002404E08E
:100C0000B4F5FA7F01DB4FF4FA74B7EE000A7548C9
:100C100080ED000A00EE104AB8EEC00ABDEC0A8B67
:100C200010BD10B52DED108B8CB0002499E05D49FE
:100C3000683131F9141001EE101AB8EEC11AF0EE55
:100C4000410A5849703131F9141001EE101AB8EE0A
:100C5000C11AB0EE410A04EB440101EB0411624AEF
:100C600002EB810001F0D2FC604800EB840080EDD3
:100C7000000A5E4800EB840090ED000ADFED5C0A9C
:100C8000B4EEE00AF1EE10FA07D89FED590A574882
:100C900000EB840080ED000A12E0544800EB840071
:100CA00090ED000ADFED530AB4EEE00AF1EE10FA1F
:100CB00006DB9FED500A4D4800EB840080ED000AF2
:100CC0004A4800EB840090ED000A04EB440000EB7E
:100CD0000410454901EB8000D0ED040A20EE200A03
:100CE0004548D0ED000A20EE200A444800EB84007D
:100CF00080ED000A3D4800EB840090ED000A40487A
:100D0000D0ED000A20EE200A384800EB8400D0ED38
:100D1000000A20EE200A354800EB8400D0ED000ADE
:100D2000384890ED001A01EE200A3748D0ED000A4D
:100D300030EE200A354800EB840080ED000A2F4891
:100D400000EB840090ED000A304800EB8400D0ED09
:100D5000000A30EE200A2E4800EB840080ED000AE5
:100D6000641C042CFFF663AF294890ED000AD0ED17
:100D7000010A30EE200AD0ED020A30EE200AD0ED52
:100D8000030A30EE200A234880ED000A90ED000AA5
:100D9000B5EEC00AF1EE10FA40D89FED1F0A80EDC3
:100DA000000A49E07801002062BEBC37FA7EEA3FC3
:100DB000000000000000F03F4F0000200000000095
:100DC00000803040000000000000294000000000CA
:100DD000000010400000000000207C4000000000E7
:100DE00000406F40600000206C150020D002002001
:100DF00000401CC600401C4688000020E002002085
:100E00008C0000209000002094000020F0020020C0
:100E1000000300207400002000000000FE4890ED58
:100E2000000ADFEDFE0AB4EEE00AF1EE10FA03DB91
:100E30009FEDFA0A80ED000AF74890ED000ABCEE3B
:100E4000C00A10EE100AF6490880084600880028FB
:100E500002DC0020088015E0F148008800EE100A4E
:100E6000B8EE400AEF48D0ED000AB4EEE00AF1EE29
:100E700010FA07DB90ED000ABCEEC00A10EE100A73
:100E8000E7490880E8480088E5490988401AE749A9
:100E90000880E14890ED000AE248D0ED000AB4EE87
:100EA000E00AF1EE10FA7CDD0024CAE0E04800EB35
:100EB000840090ED000ADB48D0ED000A20EE200A05
:100EC000D548D0ED000A80EE201ADA4800EB840005
:100ED00080ED001AD64800EB840090ED000AD64859
:100EE000D0ED000AB4EEE00AF1EE10FA7EDDD04853
:100EF00000EB840090ED000ACE4800EB8400D0EDBA
:100F0000000AB4EEE00AF1EE10FA6FDDCB4890ED86
:100F1000000A08A800EB840080ED000A04EB4400FE
:100F200000EB0410C64901EB8000D0ED040AC5486F
:100F300090ED000AC44890ED001A01EE200A04A8C2
:100F400000EB840080ED000ABA4800EB840090EDCD
:100F5000000AB948D0ED000A30EEC00A684600EB3E
:100F6000840080ED000AB94800EB840090ED000A8F
:100F700010EE101A084607F093F841EC190B08A878
:100F800000EB840090ED000AF0EE000A20EE200A4B
:100F900010EE101A084607F083F841EC1B0B04A86A
:100FA00000E052E000EB840090ED000A20EE000A21
:100FB00008A800EB8400D0ED000AB1EE001A60EE44
:100FC000810A684600EB840090ED001A00EEC10A29
:100FD00010EE101A084607F063F841EC1F0BB0EE54
:100FE0004F0AF0EE6F0A07F087FF00E021E0B0EE55
:100FF00040DAF0EE60DA04A800EB840090ED000A1D
:10100000B1EE400A10EE101A084607F049F853EC0A
:101010001D2B06F02CFE53EC1B2B06F041FF53EC6E
:10102000192B06F03DFF07F07FF8894941F82400AD
:1010300006E0B7EE000A864800EB840080ED000A67
:10104000641C042CFFF632AF0BE0002007E0B7EE83
:10105000000A7F4901EB800181ED000A401C042851
:10106000F5DB002025E07A4901EB800191ED000AD3
:10107000B5EEC00AF1EE10FA07D81FED990A7449CF
:1010800001EB800181ED000A12E0714901EB800162
:1010900091ED000AF7EE000AB4EEE00AF1EE10FA64
:1010A00006DBB7EE000A6A4901EB800181ED000A18
:1010B000401C0428D7DB0CB0BDEC108B10BD10B564
:1010C0002DED048B6348808900EE100AB8EE400ACB
:1010D000614880ED000A90ED000ADFED600A80EEC5
:1010E000201ABCEEC10A10EE100A5A49C8820846FE
:1010F000C08A00EE900AF8EE600AB0EE600AFFF7D0
:101100002DFB484880ED000AFFF78BFD544800781E
:10111000012807D052480078022803D050480078B0
:10112000032819D14B48C08A00EE900AF8EE600AF5
:10113000B0EE600AFFF7F4FC3948008800EE900A30
:10114000F8EE600A30EE600AB0EE408AFFF724FB4A
:10115000444880ED000A18E03E48C08A00EE900A3C
:10116000F8EE600AB0EE600AFFF7F8FA2C48008843
:1011700000EE900AF8EE600A30EE600AB0EE408AA7
:10118000FFF70AFB384880ED000A364890ED000A68
:10119000B5EEC00AF1EE10FA04D81FEDE10A80EDB9
:1011A000000A0DE02F4890ED000AF7EE000AB4EEB9
:1011B000E00AF1EE10FA03DBB7EE000A80ED000A58
:1011C000294890ED000AB5EEC00AF1EE10FA04D8F5
:1011D0001FEDEF0A80ED000A0DE0234890ED000AB4
:1011E000F7EE000AB4EEE00AF1EE10FA03DBB7EE18
:1011F000000A80ED000AFFF73EFA1948007803283C
:1012000003D017480078022832D1B7EE000A1748F9
:1012100080ED000AA4E000007400002000007A4481
:1012200056000020680000205200002054000020DA
:101230000003002010030020940000208C000020F8
:101240006C1500209000002088000020D0020020B3
:101250004003002002210020480000200000C84276
:101260004F00002064000020600000205C0000208F
:10127000FE48007801282BD1FD48006828B99FED71
:10128000FD0AFD4880ED000A13E0F94800680128D6
:101290000FD1F94890ED000AB5EEC00AF1EE10FA50
:1012A00007DD90ED000AF7EE000A30EE600A80EDEF
:1012B000000AF14890ED000A5FED280A30EEC00AFE
:1012C0005FED2A0A80EE201AEC4880ED001A47E014
:1012D000E6480078F0BBE648006898B9E849B1F8FC
:1012E000510006F073FE41EC190B9FEDE60B53EC39
:1012F000102B06F063FD41EC180B06F015FFDE49DC
:10130000086013E0DA48006801280FD1DA4890ED50
:10131000000AB5EEC00AF1EE10FA07DD90ED000A02
:10132000F7EE000A30EE600A80ED000AD448B0F80B
:10133000510000EE100AB8EE400ACF48D0ED000A86
:1013400070EE600ACE48B0F8510000EE100AB8EE18
:10135000400A00E004E080EE801AC84880ED001AE0
:10136000BDEC048B10BDC948407818B1C74840781F
:1013700001281FD10020BD490870C44840780128C9
:1013800003D108700020C2490880B84800780128BD
:1013900005D1BF480088401C00B2BD490880BC4848
:1013A000B0F900000A2825DB0020B0490870B849D0
:1013B00008801FE00220AD490870B4484078032837
:1013C00003D108700020B2490880A848007803289B
:1013D00005D1AF480088401C00B2AD490880AC4838
:1013E000B0F900000A2805DB0220A049087000209F
:1013F000A74908807047DFEDA70AB4EEE00AF1EED6
:1014000010FA06DBDFEDA30A70EE600AB0EE600AA8
:101410000AE0B5EEC00AF1EE10FA05D2DFED9D0A42
:1014200070EE200AB0EE600A704710B52DED0A8B01
:10143000B0EE409AF0EE609AB0EE418A9FED960BC6
:1014400053EC102B51EC190B06F0B8FC41EC1C0BC3
:101450009FED930B53EC102B06F0B0FC41EC1B0BF3
:101460009FED911BB0EE4B0AF0EE6B0A07F05EFCAD
:10147000B0EE40AAF0EE60AA51EC1A0B06F054FE52
:1014800008EE100AB5EEC08AF1EE10FA05D29FED13
:10149000810A38EE000AB0EE408A18EE100A06F013
:1014A000FFFD41EC100BBDEC0A8B10BD9FED800AD7
:1014B000804880ED010A9FED7E0A80ED000A9FEDD5
:1014C0007C0A80ED020A9FED7A0A7B4880ED120AC1
:1014D00070476E48B0F9140000EE100AB8EEC00A6A
:1014E000744880ED010A6948B0F9120000EE100A54
:1014F000B8EEC00A6F4880ED000A9FED6D0A6E4895
:1015000080ED120A704710B56048B0F9140000EE83
:10151000100AB8EEC00A674880ED010A5B48B0F9CE
:10152000120000EE100AB8EEC00A624880ED000A10
:10153000614890ED130ADFED570AB4EEE00AF1EED0
:1015400010FA08DB90ED130ADFED520A30EE600A64
:1015500080ED140A04E0584890ED130A80ED140A57
:101560005548D0ED140AB0EE600ADFED540A544835
:1015700001F04CF8504880ED120A10BD4348407805
:10158000012804D140F226204E49088003E04FF4A0
:10159000C8704C4908803D48B0F9140000EE100AAC
:1015A000B8EEC00A434880ED010A3848B0F912008D
:1015B00000EE100AB8EEC00A3E4880ED000A407BFB
:1015C00007280DD04048007818B901203E4908701E
:1015D00006E03D480078012802D100203A49087011
:1015E0003948007850B937480088404200EE100A68
:1015F000B8EEC00A304880ED120A0CE0324800789C
:10160000012808D12F48008800EE100AB8EE400AE1
:10161000294880ED120A704710B5274890ED130A4B
:10162000DFED260AB4EEE00AF1EE10FA08DB90EDE9
:10163000130ADFED180A30EE600A80ED140A04E0A8
:101640001D4890ED130A80ED140A1048B0F91400FB
:1016500000EE100AB8EEC00A164880ED010A0B48E9
:10166000B0F9120000EE100A30E000004F00002038
:101670002400002000805444580000205C0000201A
:101680003C2000209A9999999999E93F6821002076
:1016900050000020DB0FC940000000000000F0BF38
:1016A000000000A046DF913F00000060FB211940D0
:1016B000000000007801002018010020DB0F4940E5
:1016C000000E00204C0000204E000020B8EEC00AA2
:1016D000FE4880ED000AFE48D0ED140AB0EE600A24
:1016E0005FED0D0AFB4800F091FFF94880ED120A0A
:1016F00010BD10B5F8488078F4490873F648807832
:1017000048730846007B072810D004DC012807D066
:10171000032814D107E008280BD00A280FD10BE0CA
:10172000FFF7C4FE0EE0FFF777FF0BE0FFF726FFA1
:1017300008E0FFF7E8FE05E0FFF7CBFE02E0FFF769
:10174000B5FE00BF00BF10BD10B52DED0E8BE048FB
:1017500090ED130ADFEDE10A30EE200A80ED000A79
:1017600090ED130ADFEDDE0A30EE200A80ED010A6B
:1017700090ED130ADFEDDB0A30EE200A80ED020A5D
:1017800090ED130ADFEDD80A30EE200A80ED030A4F
:1017900000200EE0CE4901EB8001D1ED000AB0EE51
:1017A000600AFFF728FECA4901EB800181ED000ABB
:1017B000401C0428EEDB0024E0E0C54890ED080A58
:1017C0005FED420A30EE200A00EB8400D0ED000A03
:1017D00030EE600ABE48103000EB840080ED000A55
:1017E000BB48103000EB8400D0ED000AB0EE600A78
:1017F000FFF701FEB648103000EB840090ED000AC0
:1018000010EE101A084606F04BFC41EC1E0BB0EE31
:101810004E0AF0EE6E0A07F01BFAB0EE40CAF0EE88
:1018200060CAAB4890ED120AF0EE000A20EE200AE2
:10183000D0ED090A20EE200A10EE101A084606F034
:101840002FFC41EC1D0B53EC1C2B06F0B7FA41ECBE
:101850001A0B9F4890ED120A20EE000AD0ED090AFB
:1018600090ED091A00EE810A10EE101A084606F0F3
:1018700017FC41EC1B0B53EC1A2B06F099FA41ECC8
:10188000190BB0EE490AF0EE690A07F035FBB0EE2D
:10189000408AF0EE608A51EC180B06F0A4FB01B20E
:1018A0008B48383020F81410283800EB840090ED75
:1018B000000A10EE101A084606F0F2FB41EC1E0B6F
:1018C000B0EE4E0AF0EE6E0A07F0C2F9B0EE40CA72
:1018D000F0EE60CA7E4890ED120AF0EE000A20EEAB
:1018E000200AD0ED090A814890ED001A60EE810AC5
:1018F00020EE200A10EE101A084606F0D1FB41EC4B
:101900001D0B53EC1C2B06F059FA41EC1A0B7048D6
:1019100090ED120A20EE000AD0ED090A734890ED0E
:10192000001A60EE810A6A4890ED091A6F48D0EDFE
:10193000001A21EE211A00EE810A10EE101A084654
:1019400006F0AEFB41EC1B0B53EC1A2B06F030FA01
:1019500041EC190BB0EE490AF0EE690A07F0CCFA37
:10196000B0EE408AF0EE608A51EC180B06F03BFBBB
:1019700001B25748403020F81410641C042CFFF6C4
:101980001CAF002495E15248103000EB840090ED2C
:10199000000A10EE101A084606F082FB41EC190B03
:1019A000B0EE490AF0EE690A07F042FAB0EE408A5A
:1019B000F0EE608A51EC180B06F0B6FB4C4941F88A
:1019C0002400434890ED090A084600EB8400D0ED5E
:1019D000000A20EE200A474800EB840080ED000A50
:1019E0003B48383030F8140010B91FEDCF0A0EE034
:1019F000404800EB8400D0ED000A3548383030F91B
:101A0000140000EE100AB8EEC01A80EE810A3A48BF
:101A100000EB840080ED000A374800EB840090ED75
:101A2000000AFFEE000AB4EEE00AF1EE10FA07D861
:101A3000BFEE000A304800EB840080ED000A12E09F
:101A40002D4800EB840090ED000AF7EE000AB4EE9A
:101A5000E00AF1EE10FA06DBB7EE000A264800EBCA
:101A6000840080ED000A244800EB840090ED000A19
:101A700010EE101A084606F013FB41EC190BB0EEFD
:101A8000490AF0EE690A06F0CFFCB0EE408AF0EEAB
:101A9000608A51EC180B06F047FB0D49283141F8DC
:101AA000240001F1100030F8140010FB00F000EEEB
:101AB000100AB8EEC00A0648D0ED120A90ED121ACC
:101AC00000EE810A0D4800EB840019E07801002047
:101AD00018010020000E002068210020E4CB1640F1
:101AE000D2537B40E0EDAF40DB0F493F5C0000206C
:101AF000300200204002002050020020800200201E
:101B000080ED000AA1F1280090ED090A20EE000AFC
:101B1000F94800EB840080ED000AA1F1280090ED67
:101B2000120AB5EEC00AF1EE10FA6ED1383030F874
:101B3000140090B3A1F1180000EB840090ED000AAE
:101B4000B5EEC00AF1EE10FA28DBA1F1180000EBA7
:101B5000840090ED000ADFEDE90AB4EEE00AF1EE50
:101B600010FA1BD8084600EB840090ED000ADFED68
:101B7000E40A30EE200A084600EB840080ED000AFB
:101B8000084600EB840090ED000AB1EE400A0846DA
:101B900000EB840080ED000A8AE036E0D94800EBD3
:101BA000840090ED000ADFEDD80AB4EEE00AF1EE11
:101BB00010FA7DDBD34800EB840090ED000ADFEDE6
:101BC000D30AB4EEE00AF1EE10FA71D8CD4818301D
:101BD00000EB840090ED000ADFEDC90A30EE200A28
:101BE000C848183000EB840080ED000AC548183062
:101BF00000EB840090ED000AB1EE400AC1481830B5
:101C000000EB840080ED000A52E0BE48103890EDF1
:101C1000120AB5EEC00AF1EE10FA1CD2283000EB21
:101C2000840090ED000ADFEDB60A30EE200AB548D8
:101C3000183000EB840080ED000AB248183000EB49
:101C4000840090ED000AB1EE400AAE48183000EB77
:101C5000840080ED000AA84800EB840090ED000AA3
:101C6000AB4800EB8400D0ED000AB4EEE00AF1EEE0
:101C700010FA1DDDA348183000EB840090ED000A37
:101C8000DFED9F0A30EE200A9E48183000EB8400FA
:101C900080ED000A9B48183000EB840090ED000AAC
:101CA000B1EE400A9748183000EB840080ED000A3E
:101CB000641C042CFFF667AEBDEC0E8B10BD10B596
:101CC0002DED048B002415E004EB440000EBC40070
:101CD000904901EBC00090ED121BB0EE410AF0EE0E
:101CE000610A51EC100B06F01FFA01468A4840F8D1
:101CF0002410641C042CE7DB8248103890ED090A9C
:101D0000DFED860AB4EEE00AF1EE10FA11DC90ED98
:101D1000120AF9EE040AB4EEE00AF1EE10FA08D362
:101D200090ED120AF1EE040AB4EEE00AF1EE10FAB8
:101D30005DDD002459E07A4951F824104FF4B47263
:101D400001FB02F006F031F941EC190B04EB440001
:101D500000EBC4006F4901EBC00090ED121BB0EE28
:101D6000410AF0EE610A53EC102B51EC190B06F00E
:101D700022F89FED6C0B53EC102B06F0BDF907D247
:101D8000674850F82400401C654941F824002BE0C6
:101D9000634951F824104FF4B47201FB02F006F0CD
:101DA00004F941EC190B04EB440000EBC400594961
:101DB00001EBC00090ED121BB0EE410AF0EE610A9B
:101DC00053EC102B51EC190B05F0F5FF9FED570B61
:101DD00053EC102B06F078F906D2514850F8240045
:101DE000401E4F4941F82400641C042CA3DB4548E5
:101DF000103890ED090ADFED490AB4EEE00AF1EE81
:101E000010FA33D8002010E0454951F820104FF463
:101E1000B472514300EE101AB8EEC00A3E491039B0
:101E200001EB800181ED000A401C0428ECDB354801
:101E3000103890ED120AB5EEC00AF1EE10FA34D265
:101E4000002010E03449103901EB800191ED000AC7
:101E5000DFED380A30EE600A2F49103901EB8001BE
:101E600081ED000A401C0428ECDB1EE000201AE093
:101E70002B4951F820104FF4B472514300EE101A60
:101E8000B8EEC00A1F49183101EB8001D1ED000AFC
:101E90009FED291A00EE810A1F49103901EB8001DC
:101EA00081ED000A401C0428E2DB00206DE01A49A5
:101EB00001EB800191ED000A1749103901EB800117
:101EC000D1ED000A30EE600ADFED1A0AB4EEE00A46
:101ED000F1EE10FA34DB1049103901EB800191ED7D
:101EE000000ADFED160A30EE200A0B49103901EB2B
:101EF000800181ED000A47E090020020DB0FC93F1E
:101F0000DB0F494028010020E4CB9640DB0FC9409D
:101F10008002002018180020D00100200000484254
:101F20002002002000000000008076400000000039
:101F30000000000000003443E12E65420000B4437D
:101F4000FC4901EB800191ED000AFA49103901EBDF
:101F50008001D1ED000A30EE600ADFEDF70AB4EE41
:101F6000E00AF1EE10FA0FD8F249103901EB8001C6
:101F700091ED000A5FED0F0A30EE600AED4910396D
:101F800001EB800181ED000A401C04288FDBEB4847
:101F9000B0F94000E949A1F840000846B0F8420015
:101FA000404201B2E548A0F84210B0F94400E349CC
:101FB000A1F844000846B0F94600A1F84600002008
:101FC0005DE0DC49103901EB800191ED000AD9494F
:101FD00001EB8001D1ED000A30EE600ADFEDD80A96
:101FE000B4EEE00AF1EE10FA1ADDD249103901EB35
:101FF000800191ED000A5FED310A30EE600ACD49B3
:10200000103901EB800181ED000ACC49403131F8F3
:10201000101049420AB2C949403121F810202DE080
:10202000C449103901EB800191ED000AC14901EB6F
:102030008001D1ED000A30EE600ADFEDC20AB4EE95
:10204000E00AF1EE10FA19D2BA49103901EB800119
:1020500091ED000A5FED490A30EE200AB5491039CA
:1020600001EB800181ED000AB449403131F81010D4
:1020700049420AB2B149403121F81020401C0428DD
:102080009FDB002418E0AB49103901EB840191ED8E
:10209000001AF0EE410AA74901EB840191ED001A04
:1020A000B0EE410A04EB440101EB0411A64A02EB35
:1020B000810000F0ABFA641C042CE4DB9D48583826
:1020C000007B032804D09B485838007B072828D180
:1020D00000200DE000EB400101EBC0019B4A02EB48
:1020E000C101096C0AB29349183121F81020401C33
:1020F0000428EFDB002012E000EB400101EB0011AF
:10210000914A02EB810191ED0B0ABDEEC00A10EE7F
:10211000101A0AB28749103121F81020401C0428F7
:10212000EADBBDEC048B10BD10B52DED048BFFF781
:10213000C6FD002460E004EB440000EBC4018448C9
:1021400000EBC100006C01B27A48483020F814104E
:102150007A48403030F814107648403020F8141097
:102160007C4901EB8401D1ED001AA0F1300131F975
:10217000141001EE101AB8EEC11A21EE811AF0EE19
:10218000410AA0F1280131F9141001EE101AB8EE3D
:10219000C11AB0EE410A04EB440101EB04116E4A8E
:1021A00002EB810000F032FA6C4991ED001A6C49A3
:1021B000D1ED001A61EE211A5E49403131F9141057
:1021C00001EE101AB8EEC11A21EE811AF0EE410AA2
:1021D0005849483131F9141001EE101AB8EEC11AFD
:1021E000B0EE410A04EB440101EB04115D4A02EB3D
:1021F000810000F00BFA641C042C9CDB002026E01C
:102200004C495839097B032904D04A495839097B7C
:10221000072916D100EB400101EB0011514A02EBF6
:10222000810191ED0B0AF7EE000A20EE200ABDEEC7
:10223000C00A10EE101A0AB23E49383921F81020AF
:1022400004E000223B49383921F81020401C0428C2
:10225000D6DB38495839B1F9980005F0A6FE41ECB3
:10226000190BB0EE490AF0EE690A06F055FDB0EE22
:10227000408AF0EE608A9FED3C0B53EC102B51EC42
:10228000180B05F021FF75D22A495839B1F99A0087
:1022900005F08BFE41EC190BB0EE490AF0EE690A2D
:1022A00006F03AFDB0EE408AF0EE608A9FED2E0B0C
:1022B00053EC102B51EC180B05F006FF5AD21D49B8
:1022C0005839B1F99C0005F070FE41EC190BB0EEE5
:1022D000490AF0EE690A06F01FFDB0EE408AF0EE02
:1022E000608A9FED210B53EC102B51EC180B05F07D
:1022F000EBFE3FD20F495839B1F99E0005F055FE6B
:1023000041EC190BB0EE490AF0EE690A06F004FD43
:10231000B0EE408AF0EE608A9FED130B53EC102B69
:1023200051EC180B05F0D0FE24D2002010490860B3
:1023300023E01FE0D0010020000034C3180100207A
:102340000000B4420000B4C20C1300201818002092
:1023500078190020400300206C1500206000002048
:10236000640000209C16002000000000000049408E
:102370002400002001207C490860002030E07B49D7
:10238000097B032903D07949097B072922D17649A2
:102390000968F9B100EB400101EB0011744A02EB4E
:1023A000810191ED0B0ABDEEC00A10EE101A09B2C0
:1023B00000EE101AB8EEC00AF7EE000A20EE200A6E
:1023C000BDEEC00A10EE101A0AB26849283121F891
:1023D000102004E000226549283121F81020401C1B
:1023E0000428CCDBBDEC048B10BD10B5FEF767FEF6
:1023F000FFF79AFE10BD10B52DED088B5D48D0E9B2
:102400000221104605F0BBFD00EE100ADFED5A0A6E
:1024100080EE201A11EE104A204605F041FE574A80
:10242000C2E916011046D0ED131AB0EE611A90ED14
:10243000162BB0EE420AF0EE620AFEF7F6FFB0EE9F
:10244000409AF0EE609A51EC190B05F06DFE4B4985
:10245000C8649FED4B0AB0EE408A4648408A49491D
:1024600008804448808A484908804649098811FB09
:1024700001F1454A1288444B1B8812FB031005F0FA
:1024800094FD41EC1A0BB0EE4A0AF0EE6A0A06F02F
:1024900033FDB0EE409AF0EE609A51EC190B05F066
:1024A00043FE36494862084690ED090ADFED370AD7
:1024B000B4EEE00AF1EE10FA3FDB3248B0F900006A
:1024C00005F073FD41EC1A0B2F48B0F9000005F040
:1024D0006CFD41EC1B0BB0EE4A1AF0EE6A1AB0EE3E
:1024E0004B0AF0EE6B0A06F0BBFAB0EE409AF0EE43
:1024F000609A51EC190B05F017FE08EE100A9FEDDB
:10250000240A38EE000A10EE101A084605F0C8FD3D
:1025100041EC1A0B9FED1F1BB0EE4A0AF0EE6A0A5F
:1025200006F004FCB0EE409AF0EE609A51EC190B04
:1025300005F0FAFD1149086204E09FED110A0F4809
:1025400080ED090ABDEC088B10BD10B5FFF753FFF5
:10255000FFF7FAF810BD10B5FFF7CBF8FFF7F5FF5E
:10256000FFF743FF10BD0000240000207801002089
:102570006C1500206821002000401C461801002036
:10258000000000003000002032000020000048421F
:10259000DB0FC94000000060FB211940D0ED000AAC
:1025A000F4EEC00AF1EE10FA01DD80ED000AD0ED84
:1025B000000AB1EE401AF4EEC10AF1EE10FA03D2AD
:1025C000F1EE400AC0ED000A70470364C263816304
:1025D00080ED000AC0ED010A80ED021A704780ED1F
:1025E000000AC0ED010A80ED021ADFEDFE1AC0ED0F
:1025F000081ADFEDFC1AC0ED091ADFEDFA1AC0ED7A
:102600000A1ADFEDF81AC0ED0B1A704710B52DED60
:10261000088B0446B0EE408AF0EE608A84ED048AAE
:10262000C4ED038A38EEC80A84ED070A94ED0C0A5B
:10263000B5EEC00AF1EE10FA27D094ED0C0A10EEB8
:10264000101A084605F02CFD41EC190B94ED070A11
:1026500010EE101A084605F023FD41EC1B0BB0EEFE
:102660004B0AF0EE6B0A06F057FBB0EE40AAF0EE14
:1026700060AA53EC192B51EC1A0B05F03DFD04D266
:102680009FEDD80ABDEC088B10BDA06B03283ED18E
:1026900094ED000AD4ED070A20EE200A84ED080A22
:1026A00094ED090AD4ED010A94ED071A00EE810AAF
:1026B00084ED090A94ED070AD4ED060A30EE600AAB
:1026C000D4ED020A20EE200A84ED0A0AD4ED100AA5
:1026D000F8EE600AB0EE600A04F12400FFF75EFF36
:1026E00094ED080AD4ED090A30EE200AD4ED0A0A66
:1026F00030EE200A84ED0B0AD4ED0F0AF8EE600AE2
:10270000B0EE600A04F12C00FFF748FF42E0A06B36
:1027100004283FD194ED070AD4ED060A30EE600A92
:10272000D4ED000A20EE200A84ED080A94ED010A97
:10273000D4ED070A20EE200A84ED090A94ED070A79
:10274000D4ED060AB0EE001A01EE600AD4ED050AD7
:1027500030EE200AD4ED020A20EE200A84ED0A0AA7
:1027600094ED080AD4ED090A30EE200AD4ED0A0AE5
:1027700030EE200AD4ED0B0A30EE200A84ED0B0A6D
:10278000D4ED0F0AF8EE600AB0EE600A04F12C00F6
:10279000FFF704FF94ED060A84ED050A94ED070A9D
:1027A00084ED060A94ED0D0AB5EEC00AF1EE10FABA
:1027B00025D094ED0D0A10EE101A084605F070FCB5
:1027C00041EC190B94ED0B0A10EE101A084605F0B7
:1027D00067FC41EC1B0BB0EE4B0AF0EE6B0A06F007
:1027E0009BFAB0EE40AAF0EE60AA53EC192B51EC24
:1027F0001A0B05F069FC02D29FED7A0A42E794EDCC
:102800000B0A3FE710B52DED088B0446B0EE408A69
:10281000F0EE608A84ED048AC4ED038A38EEC80ABB
:1028200084ED070A94ED0C0AB5EEC00AF1EE10FA39
:1028300027D094ED0C0A10EE101A084605F030FC73
:1028400041EC190B94ED070A10EE101A084605F03A
:1028500027FC41EC1B0BB0EE4B0AF0EE6B0A06F0C6
:102860005BFAB0EE40AAF0EE60AA53EC192B51ECE3
:102870001A0B05F041FC04D29FED5A0ABDEC088BFF
:1028800010BDA06B03283ED194ED000AD4ED070AD9
:1028900020EE200A84ED080A94ED090AD4ED010A1D
:1028A00094ED071A00EE810A84ED090A94ED070AF7
:1028B000D4ED060A30EE600AD4ED020A20EE200ABA
:1028C00084ED0A0AD4ED100AF8EE600AB0EE600A50
:1028D00004F12400FFF762FE94ED080AD4ED090A22
:1028E00030EE200AD4ED0A0A30EE200A84ED0B0AFD
:1028F000D4ED0F0AF8EE600AB0EE600A04F12C0085
:10290000FFF74CFE3EE0A06B04283BD194ED070A94
:10291000D4ED060A30EE600AD4ED000A20EE200A5B
:1029200084ED080A94ED010AD4ED070A20EE200A8E
:1029300084ED090A94ED070AD4ED060AB0EE001AF8
:1029400001EE600AD4ED050A30EE200AD4ED020A49
:1029500020EE200A84ED0A0A94ED080AD4ED0A0A52
:1029600030EE200AD4ED0B0A30EE200A84ED0B0A7B
:10297000D4ED0F0AF8EE600AB0EE600A04F12C0004
:10298000FFF70CFE94ED060A84ED050A94ED070AA4
:1029900084ED060A94ED0D0AB5EEC00AF1EE10FAC8
:1029A00028D094ED0D0A10EE101A084605F078FBB9
:1029B00041EC190B94ED0B0A10EE101A084605F0C5
:1029C0006FFB41EC1B0BB0EE4B0AF0EE6B0A06F00E
:1029D000A3F9B0EE40AAF0EE60AA53EC192B51EC2B
:1029E0001A0B01E00000000005F06EFB02D21FEDA3
:1029F000030A43E794ED0B0A40E72DE9F0412DED82
:102A0000048B04460D4616461F46B0EE408AF0EE93
:102A1000608AB0EE419A2A486064B0EE491AF0EE3E
:102A2000680AB0EE480A3B46324629462046D4F8AA
:102A300044C0E047BDEC048BBDE8F0811FED170AF0
:102A400080ED080A1FED190A80ED090A1FED1B0A27
:102A500080ED0A0A1FED1D0A80ED0B0A1FED1F0A0B
:102A600080ED050A1FED210A80ED060A1FED230AFD
:102A700080ED070A704770B52DED048B06460D46B4
:102A80001446B0EE408AF0EE608AB0EE419AF0EE65
:102A9000619AF0EE480AB0EE680A3046FFF7B6FDDC
:102AA00030EE290A84ED000A94ED000AF0EE400AA7
:102AB000B0EE490A2846FFF7A9FDBDEC048B70BDB6
:102AC000CB25000810B50446204601F086FAFEF733
:102AD0004AFC2146234800F0D5FE10BD10B504463F
:102AE0002068A0F20120082839D2DFE800F00409AC
:102AF0000F151A21293021461B4800F096F92FE0C6
:102B000021461948583000F090F929E0214616482E
:102B1000B03000F08AF923E02146144800F085F92E
:102B20001EE04FF4AD722146114800F091F917E014
:102B300040F6121221460E48583000F089F90FE095
:102B4000CF2221460848B03800F082F908E041F26F
:102B50007C3221460448583800F07AF900E000BF82
:102B600000BF10BD0221002078190020801A00202B
:102B70001818002070B505460C464C22A91D39488E
:102B800005F031F8374890ED0C0AB1EE400A84EDBB
:102B9000000A354890ED000A344880ED000A3148BB
:102BA00090ED0E0A304880ED000A90ED000A2F48A3
:102BB000D0ED000A30EE600ADFED2D0AB4EEE00A37
:102BC000F1EE10FA05DB2B480068401E2949086029
:102BD00013E0254890ED000A2448D0ED000A30EEBD
:102BE000600ADFED250AB4EEE00AF1EE10FA04D82F
:102BF00020480068401C1F4908601E4800684FF4C8
:102C0000B471484300EE100AB8EEC00A1648D0ED81
:102C1000000A30EE200AB1EE400A84ED010A1148A4
:102C200090ED0D0A84ED020A90ED070AB1EE400A1C
:102C300084ED030A90ED080AB1EE400A84ED040A1F
:102C400090ED060A84ED050A90ED030A84ED060A6C
:102C500090ED050A84ED070A90ED040A84ED080A58
:102C600070BD0000A81F00209C00002098000020DC
:102C70000000A243A00000200000A2C30A7BCB7A80
:102C800042EA03228261826982608269426002694B
:102C9000521C026170472DE9F04104460D460026A2
:102CA000002720686060287BE97A40EA01202060E4
:102CB00020686168401AE060E06810F5805F07DA1C
:102CC000A06B401CA063E06800F50050E0610DE0DF
:102CD000E068B0F5805F07DDA06B401EA063E06890
:102CE000A0F50050E06101E0E068E0612168A06BC0
:102CF00001EB4030A0602068A269801A00EE100A43
:102D0000F8EEC00AA06B4FF4B472504300EE100A04
:102D1000B8EEC00A9FEDBD1A00EE810A10EE101A3F
:102D2000084605F0BDF941EC100B84ED120BE26989
:102D3000207D411C217504F1200141F82020207DD7
:102D4000062801D100202075002605E004F12000AE
:102D500050F826000744761C062EF7DB062097FB6A
:102D6000F0F02064A97B687B41EA002000B2A4F85F
:102D70005400BDE8F08170B504460D4620686060DF
:102D8000287BE97A40EA0120206020686168401AC7
:102D9000E060E06810F5805F07DAA06B401CA0637C
:102DA000E06800F50050E0610DE0E068B0F5805F9C
:102DB00007DDA06B401EA063E068A0F50050E06155
:102DC00001E0E068E0612168A06B01EB4030A060A9
:102DD0002068A269801A00EE100AF8EEC00AA06B03
:102DE0004FF4B472504300EE100AB8EEC00A9FEDE3
:102DF000881A00EE810A10EE101A084605F050F904
:102E000041EC100B84ED120BA97B687B41EA00209A
:102E10002064206CB0F57A7F04DB206CA0F57F4045
:102E2000FF382064687C206570BD70B504460D468F
:102E3000E06B401CE063E06B052804DC294620467B
:102E4000FFF71CFF03E029462046FFF724FF70BD73
:102E500070B504460E461546E06B401CE063E06B1F
:102E6000022800DCA56131462046FFF784FFE06BB5
:102E70000A2812DCA069A168401A10F57A6F03DAFB
:102E800005F50050A06108E0A069A168401AB0F5FE
:102E90007A6F02DDA5F50050A06170BD2DE9F0410B
:102EA00086B080460C4615461E460C9F40F2FF1029
:102EB000019000208DF80C008DF80D0008208DF891
:102EC0000E00200A8DF80F008DF81040290A8DF8A9
:102ED00011108DF81250310A8DF813108DF814600E
:102EE000390A8DF815108DF8167001A9404602F0C8
:102EF00019FC06B0BDE8F0812DE9F04186B08046AE
:102F00000C4615461E460C9F40F2FF200190002003
:102F10008DF80C008DF80D0008208DF80E00200AA9
:102F20008DF80F008DF81040290A8DF811108DF8DA
:102F30001250310A8DF813108DF81460390A8DF88B
:102F400015108DF8167001A9404602F0EBFB06B093
:102F5000BDE8F0812DE9F04186B080460C4615466B
:102F60001E460C9F4FF40070019000208DF80C005D
:102F70008DF80D0008208DF80E00200A8DF80F0046
:102F80008DF81040290A8DF811108DF81250310A71
:102F90008DF813108DF81460390A8DF815108DF81E
:102FA000167001A9404602F0BDFB06B0BDE8F081F5
:102FB0002DE9F04186B080460C4615461E460C9F12
:102FC00040F2FF10019000208DF80C008DF80D00EC
:102FD00008208DF80E00200A8DF80F008DF81040A3
:102FE000290A8DF811108DF81250310A8DF813103E
:102FF0008DF81460390A8DF815108DF8167001A936
:10300000404602F08FFB06B0BDE8F081FFFF333D84
:103010000000343DF0B503460C461888002113E04B
:10302000675C80EA072000250BE0460000F4004CB6
:10303000BCF1000F03D041F2210C86EA0C063046A9
:103040006D1C082DF1D3491C9142E9D31880F0BDC5
:103050002DE9F84305460F4690464FF00009002041
:1030600000900626FE484078002859D0002085F8B8
:103070006300FB484078C0F3800078B1F9A128468E
:1030800004F0E3FDF84908600846006830B1F448F0
:10309000007820F00400001DF1490870F0484078E5
:1030A00000F0010078B1EFA1284604F0CEFDEE4912
:1030B00008600846006830B1E948007820F0010057
:1030C000401CE7490870E6484078C0F3400078B1FA
:1030D000E4A1284604F0B9FDE34908600846006809
:1030E00030B1DF48007820F00200801CDC49087015
:1030F000DB484078C0F3C00078B1DCA1284604F07A
:10310000A4FDD94908600846006830B1D448007869
:1031100020F008000830D2490870002028600AE139
:1031200028785A28FBD16878A528F8D1A878E978BA
:1031300000EB0120801D4045F1D1B8F1080FEEDB16
:10314000042229466846FFF765FFA8F10602A91D7B
:103150006846FFF75FFF2879697900EB01201FFAC5
:1031600080F9BDF800004845D9D10626E0E0AC1949
:103170002078C02860D008DC90280FD0A02813D079
:10318000A52829D0B0286FD13EE0D02870D0D12812
:103190006CD0D9286BD0F028F5D1C3E06078B8495D
:1031A0000870B01CC6B2C2E06078A17800EB0120C4
:1031B00000B2B3494880E078217900EB012000B2E9
:1031C000AF4988806079A17900EB012000B2AC4959
:1031D000C880F01DC6B2AAE06078A17800EB01209B
:1031E00000B2A7490881E078217900EB012000B204
:1031F000A34948816079A17900EB012000B2A04980
:103200008881F01DC6B292E06078A17800EB0120C1
:1032100000B29B49C881E078217900EB012000B21F
:10322000974908826079A17900EB012000B29449A6
:103230004882F01DC6B27AE06078A17800EB0120E8
:1032400000B28F498882E078217900EB012000B23A
:103250008B49C8826079A17900EB012000B28849CE
:103260000883F01DC6B262E05FE001E04CE03FE0A1
:103270006078A17800EB012000B281494883E078B2
:10328000217900EB012000B27D4988836079A17922
:1032900000EB012000B27A49C8830846B0F91A0051
:1032A00000EE100AB8EEC00ADFED760A20EE200A22
:1032B000084680ED0F0AB0F91C0000EE100AB8EEC7
:1032C000C00ADFED700A20EE200A084680ED100AE1
:1032D000B0F91E0000EE100AB8EEC00ADFED6A0A6F
:1032E00020EE200A084680ED110AF01DC6B21EE04D
:1032F000634854F8011F016261684162A1688162FC
:1033000006F10D00C6B212E05D4854F8011FC1621B
:1033100061680163A1684163E168816306F111009E
:10332000C6B204E0701DC6B201E0464600BF00BF51
:103330004645FFF61CAF5248B0F91200404200EE7D
:10334000100AB8EEC00ADFED500A20EE200A87ED21
:10335000040A4B48B0F91000404200EE100AB8EEE3
:10336000C00ADFED490A20EE200A87ED030A44482F
:10337000B0F90E00404200EE100AB8EEC00ADFEDD0
:10338000420A20EE200A87ED050A404890ED000A27
:103390003F4880ED000A3A4890ED110AB1EE400A2C
:1033A0003A4880ED000A90ED000A3948D0ED000A55
:1033B00030EE600ADFED370AB4EEE00AF1EE10FA03
:1033C00005DB35480068401E3349086013E02F488C
:1033D00090ED000A2E48D0ED000A30EE600ADFEDD5
:1033E0002F0AB4EEE00AF1EE10FA04D82A48006879
:1033F000401C294908602A4890ED000A294880EDC0
:10340000000A1F4890ED080A254880ED000A90ED5B
:10341000000A2448D0ED000A30EE600ADFED1D0AF4
:10342000B4EEE00AF1EE10FA05DB1F480068401E1A
:103430001D49086013E01A4890ED000A1948D0EDC4
:10344000000A30EE600ADFED150AB4EEE00AF1EE94
:1034500010FA04D814480068401C1349086025E09D
:10346000A40000204F4B0000A80000206E657720CC
:103470007061636B6574206974656D730000000092
:10348000F41F00200AD7233CCDCCCC3DB000002057
:10349000AC0000200000A543C40000200000A5C32C
:1034A000B8000020B4000020C800002031480068A7
:1034B0004FF4B471484300EE100AB8EEC00A2E482B
:1034C000D0ED000A30EE200A87ED000A2B4890ED7F
:1034D000000A2B4880ED000A2A4890ED090A274887
:1034E00080ED000A90ED000A2548D0ED000A30EE8C
:1034F000600A5FED180AB4EEE00AF1EE10FA05DB9F
:1035000021480068401E2049086013E01B4890EDE8
:10351000000A1B48D0ED000A30EE600A5FED210A78
:10352000B4EEE00AF1EE10FA04D817480068401C27
:1035300015490860154800684FF4B471484300EE1F
:10354000100AB8EEC00A1248D0ED000A30EE200A88
:1035500087ED010A0B4890ED100ADFED0E0A30EE00
:10356000200A87ED020A90ED0F0A87ED000ABDE8F8
:10357000F8830000C8000020B8000020C000002030
:10358000BC000020F41F0020CC000020C40000205C
:10359000B0000020A470954030B5034605E013F854
:1035A000010B80EA0204B348025D081EA1F101018B
:1035B000F5D1104630BD70B505460C4600260DB15C
:1035C000022C01D8002070BD611EFF222846FFF7A3
:1035D000E3FF0646601E285CB04201D10120F2E7FD
:1035E0000020F0E770B505460C4600260DB1022C10
:1035F00000D870BD611EFF222846FFF7CDFF0646AA
:10360000601E2E5400BFF4E730B5034613B94FF6E1
:10361000FF7030BD09E013F8014B82EA0400C0B22C
:10362000954D35F8100080EA2222081EA1F1010113
:10363000F1D11046EDE770B505460C4600260DB1F8
:10364000022C01D8002070BDA11E8C48028828469B
:10365000FFF7DAFF0646F1B2A01E285C814206D1D0
:10366000601E285CB0EB162F01D10120EBE7002093
:10367000E9E770B505460C4600260DB1022C00D8CE
:1036800070BDA11E7D4802882846FFF7BDFF064693
:10369000A01E2E54310A601E295400BFF0E770B5F9
:1036A00004460D4600260CB1022D01D8FF2070BD46
:1036B000FF2229462046FFF76FFFF8E72DE9FC5F60
:1036C00005460F46092F01D8BDE8FC9F0024A146FE
:1036D000CBE015F804A0601C295CA01C285C41EA22
:1036E0000026601D295CA01D285C41EA002B2819DA
:1036F00000F1070828190168009100798DF804008D
:1037000006F109001FFA80F9BAF1A50F77D105215A
:103710006846FFF750FF002871D028194946FFF787
:103720008AFF0028F8D0BBF5017F6AD012DC40F296
:103730000311ABEB01008B452BD006DCBBF1010F75
:103740001AD0BBF1030F74D11CE0FE2828D0FF284B
:103750006FD14BE0BBF5027F6DD006DCABF20620EB
:10376000002856D001287BD15AE0ABF20130002866
:1037700068D0022874D16CE032464146404804F0DB
:1037800032FA6EE0324641463D480C3004F02BFAE6
:1037900067E0324641463A48363004F024FA60E0A9
:1037A0001B2E22D1324641463548393004F01BFAEF
:1037B000334890F83900012809DB314890F8390086
:1037C000072804DC02202E4981F8C5000DE02C48B2
:1037D00090F839000B2808DB294890F839001128A7
:1037E00003DC0120264981F8C5003AE0102E05D1FE
:1037F000324641462248543004F0F5F931E031E0D8
:10380000FFE7012E04D198F800001D4981F87400EB
:1038100027E0324641461A48763004F0E4F920E0C9
:10382000072E05D1324641461548773004F0DBF9C2
:1038300017E015E0FFE73246414611487E3004F0BC
:10384000D2F90EE0324641460D48843004F0CBF9FF
:1038500007E0324641460A48AC3004F0C4F900E0C3
:1038600000BF00BF04EB090084B2A7423FF731AFAD
:1038700000BF29E77398000874990008D000002061
:103880003C2000200A68B2F5C26F07D0A2F2116294
:103890007AB1012A1DD0022A3BD12AE00A7BCB7AD9
:1038A00042EA032202808B7B4A7B43EA0222428067
:1038B00030E00A7BCB7A42EA032282808B7B4A7B10
:1038C00043EA0222C2800B7CCA7B43EA02220281C5
:1038D00020E00A7BCB7A42EA032242818B7B4A7B3F
:1038E00043EA022282810B7CCA7B43EA0222C28124
:1038F00010E00A7BCB7A42EA032202828B7B4A7B6E
:1039000043EA022242820B7CCA7B43EA0222828281
:1039100000E000BF00BF704770B586B006460C4699
:103920001546019500208DF80C008DF80D0008203B
:103930008DF80E0020128DF80F008DF81040002138
:103940008DF811108DF812108DF813108DF81410D9
:103950008DF815108DF8161001A9304601F0E2FE21
:1039600006B070BD30B585B005460C460094002009
:103970008DF8080002208DF8090006208DF80A0055
:1039800000208DF80B0000218DF80C108DF80D1023
:103990008DF80E108DF80F108DF81010694628461E
:1039A00001F0C0FE05B030BD10B504464FF4C26151
:1039B0002046FFF7D7FF40F211612046FFF7D2FF04
:1039C00040F212612046FFF7CDFF40F2136120461E
:1039D000FFF7C8FF10BD70B505460C464FF4C06236
:1039E00002212846FFF798FF04EBC40000EB041007
:1039F0004FF6FF7202EA800140F201622846FFF7AB
:103A00008BFF40F2026240F6C4112846FFF784FFA4
:103A100040F203624FF42F712846FFF77DFF70BD1F
:103A200010B503463BB1087838B90120087010780A
:103A3000401C107001E000200870107800EBD0747A
:103A40006410A0EB44040CB9002010BD0120FCE779
:103A5000CB8A03400BB1012300E0002313707047B1
:103A600010B5044604F1280221460120FFF7F0FFBB
:103A700004F1290221460420FFF7EAFF04F12A029B
:103A800021460220FFF7E4FF04F12B022146082023
:103A9000FFF7DEFF04F12C0221461020FFF7D8FFCC
:103AA00004F12E0221462020FFF7D2FF04F12F025D
:103AB00021464020FFF7CCFF04F130022146802050
:103AC000FFF7C6FF04F1310221464FF48070FFF783
:103AD000BFFF04F1320221464FF40070FFF7B8FF38
:103AE00004F1330221464FF48060FFF7B1FF04F187
:103AF000340221464FF40060FFF7AAFF04F12D02C3
:103B000021464FF48050FFF7A3FF04F13502214610
:103B10004FF40050FFF79CFF04F1360221464FF4AA
:103B20008040FFF795FF04F1370221464FF4004033
:103B3000FFF78EFF94F82800914A9249FFF770FF33
:103B4000382108552921085D8F4A9049FFF768FF01
:103B5000392108552A21085D8D4A8E49FFF760FFFB
:103B60003A2108552B21085D8B4A8C49FFF758FFF5
:103B70003B2108552C21085D894A8A49FFF750FFEF
:103B80003C2108552E21085D874A8849FFF748FFE8
:103B90003E2108552F21085D854A8649FFF740FFE1
:103BA0003F2108553021085D834A8449FFF738FFDB
:103BB000402108553121085D814A8249FFF730FFD5
:103BC000412108553221085D7F4A8049FFF728FFCF
:103BD000422108553321085D7D4A7E49FFF720FFC9
:103BE000432108553421085D7B4A7C49FFF718FFC3
:103BF000442108552D21085D794A7A49FFF710FFC5
:103C00003D2108553521085D774A7849FFF708FFBF
:103C1000452108553621085D754A7649FFF700FFB2
:103C2000462108553721085D734A7449FFF7F8FEAD
:103C30004721085510BD817AC176017FC27E891A5D
:103C40004177C27E0277417F01290ED1016A491C6A
:103C50000162016A01EBD1725210A1EB420212B96A
:103C60000022827701E001228277417F02290ED172
:103C7000416A491C4162416A01EBD1725210A1EBC9
:103C8000420212B90022C27701E00122C2777047D6
:103C9000C17A012901D1817608E0C17A032901D1D5
:103CA000817603E0C17A022900D18176704730B570
:103CB00004460D46122D00D030BD04B9FCE7207833
:103CC000617840EA0120C0F30A004D49088060781D
:103CD000C010A17840EA4110C0F30A00484948806A
:103CE000A0788011E17840EA8100217940EA8120C2
:103CF000C0F30A004249888020794010617940EA87
:103D0000C110C0F30A003E49C880207C617C40EAB3
:103D10000120C0F30A003A49088160790011800847
:103D200088726079C0F30110C872A079E17940EA25
:103D3000012000B232498881207A617A40EA01206C
:103D400001B22F48C181A07AE17A40EA012001B294
:103D50002B480182217B0175617B4175A07BE17B52
:103D600040EA01202649C8820846FFF791FF24480F
:103D7000FFF761FF2248FFF773FE00BF9CE70000DA
:103D8000D3000020D2000020D5000020D400002065
:103D9000D7000020D6000020D9000020D800002045
:103DA000DB000020DA000020DD000020DC00002025
:103DB000DF000020DE000020E1000020E000002005
:103DC000E3000020E2000020E5000020E4000020E5
:103DD000E7000020E6000020E9000020E8000020C5
:103DE000EB000020EA000020ED000020EC000020A5
:103DF000EF000020EE000020F1000020F000002085
:103E00001A21002010B586B0044640F20740019008
:103E100000208DF80C008DF80D0008208DF80E00A4
:103E20009A4800788DF80F00984841788DF8101066
:103E300081788DF81110C08A010A8DF8121093480C
:103E4000817D8DF81310008A010A8DF814108F48B7
:103E5000017C8DF81510017F8DF8161001A9204600
:103E600001F060FC06B010BD10B586B004464FF4FA
:103E70008160019000208DF80C008DF80D00082065
:103E80008DF80E008148408A000A8DF80F007F48A7
:103E9000817C8DF81010808A010A8DF811107B4802
:103EA000017D8DF81210008B010A8DF813107748F0
:103EB000017E8DF81410408B01128DF81510734897
:103EC000817E8DF8161001A9204601F02BFC06B06A
:103ED00010BD10B586B0044640F2094001900020A4
:103EE0008DF80C008DF80D0008208DF80E00674845
:103EF000C068000E8DF80F006448C068010C8DF892
:103F0000101062488089010A8DF811105F48017B0A
:103F10008DF8121001468868097B000E40EA0120E6
:103F2000C1B28DF8131059498868097B000C40EA2A
:103F30000140C1B28DF8141054490889097B000A68
:103F400040EA0160C1B28DF815105048017A8DF831
:103F5000161001A9204601F0E5FB06B010BD2DE9C1
:103F6000FF5F2DED020B2DED048B0C4615461E4612
:103F7000B0EE408AF0EE608A14AF97E8800F4348B5
:103F80000470457086709FED420B53EC102B51EC82
:103F9000180B03F013FF04F05EF83C4AC2E902017B
:103FA00010460782A0F81280A0F81490A0F816A07E
:103FB000A0F818B01146199848831A9808770698FF
:103FC000FFF720FF0698FFF74FFF0698FFF781FFE6
:103FD000BDEC048B06B0BDE8F09F0168A1F207417B
:103FE00021B101291CD002294ED13BE0C17A274AD8
:103FF0001170017B5170417B9170C27B817B42EAE1
:10400000012109B2214AD182427C017C42EA01218C
:1040100009B21E4A1182827C1F49A1F8512033E067
:10402000017BC27A41EA022109B2184A5182827B9D
:10403000417B42EA012109B2144A9182027CC17B90
:1040400042EA012100EE101AB8EEC00A10EE101A72
:10405000114A9165827C417C42EA01220E49A1F815
:104060005C2011E000210943C27B41EA0262017C2D
:1040700042EA0142417C42EA0121827C1143CA1793
:10408000024BC3E9021200BF00BF70476821002045
:10409000000000000088C3403C200020F0B58BB039
:1040A00004460D4616461F460121084602F098FBBD
:1040B0000121480602F0DDFB09220B21964802F09F
:1040C0007CF909220C21944802F077F94FF4C05092
:1040D000099002208DF8280009A98F4802F0E2F823
:1040E00014208DF8040003208DF8050001208DF8C0
:1040F00006008DF8070001A801F017F9874801F0C4
:104100007FF906A801F0A0FA00208DF81E0001201A
:104110008DF81F0000208DF820008DF821008DF80B
:1041200022008DF823008DF81A708DF81B008DF891
:104130001C508DF81D40ADF8186006A9774801F0B5
:1041400078F900208DF812008DF8130001208DF809
:1041500014000020ADF80800ADF80A00ADF80C001E
:10416000ADF80E00ADF8100001208DF8150002A882
:1041700001F0E9F901220221684801F0E3FC0BB0EB
:10418000F0BD10B50121654801F044FD18B10121D1
:10419000624801F0DAFD10BD00B585B002215F482C
:1041A00001F038FD88B104215C4801F0CEFD5C4986
:1041B0005A4801F00CFD6A460021584801F0A7FB5F
:1041C00000BF6846FEF77EFC00BF05B000BDF0B53D
:1041D0008BB004460D4616461F460121022002F010
:1041E000FFFA0121880602F044FB09220C214D4808
:1041F00002F0E3F809220D214A4802F0DEF84FF4FC
:104200004050029002208DF80C0002A9454802F0AF
:1042100049F840208DF8040003208DF805008DF842
:10422000060001208DF8070001A801F07EF83F206C
:104230008DF8040003208DF805008DF8060001209C
:104240008DF8070001A801F070F8374801F0D8F8A0
:1042500008A801F0F9F900208DF8260001208DF85A
:10426000270000208DF828008DF829008DF82A00FD
:104270008DF82B008DF822008DF823008DF8245046
:104280008DF82540ADF8206008A9274801F0D1F845
:104290000E208DF81A0000208DF81B0001208DF8EB
:1042A0001C000020ADF81000ADF81200ADF81400AD
:1042B000ADF81600ADF8180001208DF81D0004A817
:1042C00001F041F901220221174801F03BFC0BB03B
:1042D000F0BD10B50121144801F09CFC18B101217A
:1042E000114801F032FD10BD00B585B002210E4825
:1042F00001F090FC68B102210B4801F026FD6A46EE
:104300000021094801F003FB00BF6846FEF7E6FB09
:1043100000BF05B000BD0000000002400064004086
:1043200008000032000402400068004010B596B05A
:1043300004460121022002F053FA0121880502F00F
:104340004FFA0121102002F0A5FA07221146FE487B
:1043500002F033F814A801F0EDFF80201490022041
:104360008DF8540000208DF8550001208DF857007D
:1043700014A9F54801F096FFF44803F0D7F910A806
:1043800003F0A1FA10940020ADF84400ADF8460007
:104390004FF48060ADF848000420ADF84A000020DA
:1043A000ADF84C0010A9E94803F027FA012240219A
:1043B000E64803F057FBE64801F01AFD684601F0B5
:1043C000E2FD4FF000600090E048001D0190E148E0
:1043D00002900020039040200490002005904FF4AC
:1043E000806006900020079008904FF4807009903C
:1043F00000020A9000200B900C900D900E906946E0
:10440000D34801F097FD0022D2494031D04801F055
:10441000F2FD0121CE4801F0FAFD0121CC4801F066
:10442000C3FD25208DF83C0000208DF83D008DF85F
:104430003E0001208DF83F000FA800F076FF01221A
:1044400040F22441C14803F016FB0121BF4803F0AC
:104450005CFA16B010BD10B540F22441BB4803F021
:1044600045FB002852D0B9480088B8488088B84831
:1044700001F0DDFD20BB0021B54801F095FDB649F6
:10448000B34801F00AFEB24801F0B1FDC0F14000AE
:10449000B24908604020AE49091D0860081F006845
:1044A00040F40020091F08600121A94801F07CFDAB
:1044B00000BFAA48008881B2A648FFF7F8FB25E0B4
:1044C0000021A34801F070FDA349A14801F0E5FDDA
:1044D0009F4801F08CFDC0F14000A04908604020D9
:1044E0009B49091D0860081F006820F40020091F6F
:1044F00008600121964801F057FD00BF97480088E9
:1045000081B294484030FFF7D2FB00BF10BD10B518
:1045100096B004460121084602F062F901214805DF
:1045200002F05EF90121480402F0A3F907220221FA
:104530008B4801F042FF07220321894801F03DFF2B
:1045400014A801F0F7FE0C20149002208DF85400FE
:1045500000208DF8550001208DF8570014A98048DF
:1045600001F0A0FE7F4803F0E1F810A803F0ABF9DA
:1045700010940020ADF84400ADF84600ADF84800B6
:104580000C20ADF84A000020ADF84C0010A9754889
:1045900003F033F9012240216C4803F063FA7248BA
:1045A00001F026FC684601F0EEFC4FF00060009040
:1045B0006C48001D01906D4802900020039064201B
:1045C0000490002005904FF4806006900020079032
:1045D00008904FF48070099000020A9000200B9020
:1045E0000C900D900E9069465F4801F0A3FC0022EC
:1045F0005E4964315C4801F0FEFC01215A4801F03B
:1046000006FD0121584801F0CFFC26208DF83C0022
:1046100000208DF83D008DF83E0001208DF83F0010
:104620000FA800F082FE012240F224414D4803F021
:1046300022FA01214B4803F068F916B010BD10B5FD
:1046400040F22441474803F051FA28B34548008816
:104650004448001D00880021434801F0A5FC44495E
:10466000414801F01AFD404801F0C1FCC0F164006E
:104670004049086064203C49091D08603A48883870
:10468000D0F8880040F40020091F08600121364856
:1046900001F08AFC00BF20E00021334801F084FCD7
:1046A0003349314801F0F9FC2F4801F0A0FCC0F17A
:1046B00064003049086064202B49091D08602A48BD
:1046C0008838D0F8880020F40020091F08600121F4
:1046D000254801F069FC00BF00BF10BD10B596B0C1
:1046E00004460121022002F07BF80121880402F037
:1046F000C0F80121480502F073F807220A21124888
:1047000001F05BFE07220B210F4801F056FE02204C
:104710008DF8440003208DF8450000208DF84600F8
:1047200001208DF847008002109010A9064801F082
:10473000B9FD4FF40060109010A9034801F0B2FDDC
:1047400027208DF8000017E000040240001001400F
:10475000406402408825002000003010F400002052
:10476000000002400044004088600240082600200B
:10477000000C0020F800002002208DF8010001202C
:104780008DF802008DF80300684600F0CEFD12940B
:104790000020ADF84C00ADF84E00ADF85000ADF87B
:1047A00054000C20ADF8520012A9FE4803F025F881
:1047B000012240F22441FB4803F05DF95021F94801
:1047C00003F08BF96420059000200C900D900E9062
:1047D00009904FF48060079080100A90F148001D06
:1047E000029000200F90089006904FF400300B903C
:1047F0008002019000200490EB48039001A9EB484F
:1048000001F098FB0121E94801F0CEFB0122402193
:10481000E44803F027F90121E24803F076F816B0E6
:1048200010BD10B540F22441DE4803F05FF9F8B145
:10483000DC4803F099F840F22441DA4803F091F99A
:104840000021DA4801F0B0FB00224021D54803F0F6
:1048500009F900BFD649D448FEF78CF900BF012200
:104860004021D04803F0FEF80121D04801F09CFB24
:1048700010BD10B596B004460121042001F0B0FF30
:104880000121C80401F0F5FF08220A21C94801F0FE
:1048900094FD08220B21C74801F08FFD0121480536
:1048A00001F09EFF4FF44060109002208DF844000C
:1048B00000208DF8460003208DF8450001208DF87A
:1048C000470010A9BB4801F0EDFC12940020ADF8A0
:1048D0004C00ADF84E00ADF850000C20ADF8520081
:1048E0000020ADF8540012A9B34802F086FF01225F
:1048F0004021B14803F0B6F8AC48183001F078FA1E
:10490000684601F040FB4FF000600090AA48001D8F
:104910000190AA4802900020039064200490002097
:1049200005904FF480600690002007900890099051
:104930004FF480300A9000200B900C900D900E9058
:1049400069469A48183001F0F5FA01219748183065
:1049500001F02AFB34208DF83C0003208DF83D0047
:104960008DF83E0001208DF83F000FA800F0DDFC1F
:1049700001228021904803F075F800218B484830CF
:1049800001F012FB8948483001F032FA00BF874835
:10499000483001F056FB0028F9D14FF0006000903C
:1049A0008548001D01908648029040200390002019
:1049B000049005904FF480600690002007900890C6
:1049C00009904FF480300A9000200B9003200C9047
:1049D00000200D900E9069467448483001F0AAFA04
:1049E0000F208DF83C0003208DF83D008DF83E002F
:1049F00001208DF83F000FA800F097FC0122102144
:104A00006A48483001F05DFB012240F224416A48C7
:104A100003F031F80121684802F077FF16B010BDAD
:104A200010B5002440F22441634803F05FF808B356
:104A3000614800886048001D008800215B481830EC
:104A400001F0B2FA5F495948183001F026FB574887
:104A5000183001F0CCFAC0F16400C4B200BF00BF4E
:104A600064215248183001F0C0FA01214F48183033
:104A700001F09AFA10BD70B504460D46294620464D
:104A800001F0B3FA0121204601F08EFA70BD10B595
:104A90004D494648483001F0E4FA48B10021434806
:104AA000483001F081FA48494048483001F0F5FAB1
:104AB00010BD70B504460025414D05F8014B01219C
:104AC0003A484830FFF7D7FF70BD2DE9F041054661
:104AD0000E46002400273A4F00BF03E0285D3855FA
:104AE000601C84B2B442F9DB314630484830FFF7ED
:104AF000C2FFBDE8F08110B596B004460121042044
:104B000001F06EFE0121082001F06AFE0121080576
:104B100001F0AFFE0121480501F062FE02208DF890
:104B2000540000208DF856004FF48050149001205E
:104B30008DF8570003208DF8550014A91D4801F089
:104B4000B1FB02208DF8540000208DF8560004209F
:104B5000149001208DF8570003208DF8550014A9FA
:104B60001A4801F09FFB08220C21124801F025FC95
:104B700008220221154801F020FC10940020ADF815
:104B80004C000C20ADF84A000020ADF84800ADF80C
:104B90004600ADF8440010A90D4802F02EFE012198
:104BA0000B4817E000480040D02600202860024053
:104BB000D017002000080240004C0040342700209D
:104BC000FC2700200000301020000020000C0240D4
:104BD0000050004002F099FE01224021DD4802F021
:104BE00041FF684601F0CFF9DB4802904FF40070B6
:104BF000049080040090D748001D0190002003908D
:104C000005904FF48060069000200890079009906E
:104C10004FF480300A9000200B900C900D900E9075
:104C20006946CE4801F086F90121CC4801F0BCF973
:104C30000022CB49C94801F0DEF90121C74801F043
:104C4000E6F935208DF83C0001208DF83F008DF805
:104C50003D0002208DF83E000FA800F066FB012207
:104C600040F22441BB4802F006FF0121B94802F09E
:104C70004CFE01228021B74802F0F4FE0021B74823
:104C8000A83001F091F9B548A83001F0B1F800BFA3
:104C9000B248A83001F0D5F90028F9D14FF00060F2
:104CA0000090AC48001D0190AE4802904020039057
:104CB00096200490002005904FF48060069000201C
:104CC0000790089009900A900B9003200C90002008
:104CD0000D900E906946A148A83001F02BF90121F2
:104CE0009E48A83001F060F92F208DF83C0002208A
:104CF0008DF83D0001208DF83E008DF83F000FA893
:104D000000F013FB16B010BD70B504460D4600212F
:104D1000204601F049F900BF204601F092F9002831
:104D2000FAD12946204601F060F90121204601F020
:104D30003BF970BD10B540F22441864802F0D6FE22
:104D4000002852D08348008882488088834801F038
:104D50006EF928BB0021814801F026F982497F487D
:104D600001F09BF97D4801F042F9C0F500707F49E0
:104D700008604FF40071794801F037F94FF40022D0
:104D80007749764801F04EF90121744801F00CF999
:104D900000BF7648008881B26F48FEF78FFC24E0A0
:104DA00000216E4801F000F96F496C4801F075F977
:104DB0006A4801F01CF9C0F500706C4908604FF4B6
:104DC0000071664801F011F900226349634801F05F
:104DD00029F90121614801F0E7F800BF6348008824
:104DE00081B25F48FEF76AFC00BF10BD00B597B006
:104DF0000121042001F0F4FC0121880501F0F0FC00
:104E00000121202001F046FD08220621584801F02A
:104E1000D4FA08220721564801F0CFFAC020119099
:104E200002208DF8480000208DF84A0002208DF8FD
:104E3000490000208DF84B0011A94D4801F032FACD
:104E40004C4802F073FC4FF4E13013900020ADF8B1
:104E50005000ADF85200ADF854000C20ADF85600EB
:104E60000020ADF8580013A9424802F0C6FC012208
:104E70004021404802F0F6FD3F4800F0B9FF4FF0F6
:104E8000206001903B48001D02903C4803900020A8
:104E9000049064200590002006904FF480600790F5
:104EA0000020089009900A904FF480300B90002069
:104EB0000C900D900E900F9001A92F4801F03AF838
:104EC00001212D4801F070F847208DF840000320A3
:104ED0008DF841008DF8420001208DF8430010A8A4
:104EE00000F023FA012240F22441224802F0C3FDDF
:104EF0000121204802F009FD17B000BD10B540F2B5
:104F000024411C4802F0F2FD18B31A4800881948E1
:104F1000001D00880021184801F046F8184916487D
:104F200001F0BBF8144801F062F8C0F164001549C3
:104F3000086000BF0846027813491048FEF788F859
:104F400000BF64210C4801F050F801210A4801F02B
:104F50002BF810BD00500040882100201060024056
:104F6000882300206028002030000010FC00002072
:104F700000080240001401402864024098270020E5
:104F8000000C001000010020D01700200EB50121F8
:104F9000022001F07FFC4FF0FF300190A720ADF818
:104FA00000000020ADF80800ADF802000121D6484D
:104FB00001F082FE6946D44801F013FE0121D24877
:104FC00001F07AFE00221146CF4801F047FE012190
:104FD000CD4801F059FE0121CB4801F08BFE0EBDFA
:104FE0001FB50121042001F044FC1C208DF80000B5
:104FF00000208DF8010002208DF8020001208DF8BC
:105000000300684600F091F94FF0FF300290532002
:10501000ADF804000020ADF80C00ADF80600012149
:10502000880701F049FE01A94FF0804001F0D9FD49
:105030000121880701F05EFE1FBD1FB5012102207E
:1050400001F017FC1D208DF8000000208DF80100F4
:1050500002208DF8020001208DF80300684600F060
:1050600064F94FF0FF300290A720ADF80400002053
:10507000ADF80C00ADF806000121A44801F01CFEBB
:1050800001A9A34801F0ADFD0121A04801F032FEC5
:10509000012211469D4802F045FA01219B4802F089
:1050A00055FA1FBD1FB50121042001F0E2FB1E20AF
:1050B0008DF8000000208DF8010002208DF802001C
:1050C00001208DF80300684600F02FF94FF0FF3003
:1050D0000290A720ADF804000020ADF80C00ADF858
:1050E000060001218A4801F0E7FD01A9884801F086
:1050F00078FD0121864801F0FDFD0122114684481A
:1051000002F010FA0121824802F020FA1FBD1FB5FB
:105110000121082001F0ADFB32208DF800000020B5
:105120008DF8010002208DF8020001208DF80300A7
:10513000684600F0FAF84FF0FF300290A720ADF873
:1051400004000020ADF80C00ADF806000121714804
:1051500001F0B2FD01A96F4801F043FD01216D4846
:1051600001F0C8FD012211466A4802F0DBF9012175
:10517000684802F0EBF91FBD10B50121880702F065
:10518000E8F948B10121880702F0F4F90121880704
:1051900002F0DCF900BF00BF10BD10B501215B4873
:1051A00002F0D7F938B10121584802F0E3F90121A2
:1051B000564802F0CBF910BD10B50121544802F059
:1051C000C8F948B10121524802F0D4F901215048F0
:1051D00002F0BCF900BF00BF10BD10B501214D4861
:1051E00002F0B7F948B101214A4802F0C3F90121A0
:1051F000484802F0ABF900BF00BF10BD1FB5012148
:10520000102001F036FB36208DF8000003208DF8C9
:10521000010002208DF8020001208DF8030068468D
:1052200000F083F85320ADF804000020ADF806002C
:10523000ADF80C0040F2E730029001A9364801F0C9
:10524000D0FC0121344801F055FD012211463248BD
:1052500002F068F90121304802F078F91FBD1FB54E
:105260000121102001F005FB37208DF800000320FC
:105270008DF8010002208DF8020001208DF8030056
:10528000684600F052F85320ADF804000020ADF855
:105290000600ADF80C0040F2E730029001A91F486B
:1052A00001F09FFC01211D4801F024FD012211465F
:1052B0001A4802F037F90121184802F047F91FBDDA
:1052C00010B50121144802F044F958B101211248E7
:1052D00002F050F90121104802F038F900BFFBF745
:1052E000B9F800BF10BD10B501210C4802F031F92A
:1052F00048B10121094802F03DF90121074802F0B7
:1053000025F900BF00BF10BD0004014000040040AB
:1053100000080040000C0040001000400014004055
:1053200032490143324A1160704770B500210023B1
:105330000F22C4781CB32E4C246804F4E064C4F536
:10534000E064C4F30721C1F10404E3B20A414478E4
:105350009C40E1B28478144021430C07210E254C77
:1053600005786155047804F01F050124AC400578E8
:105370006D11AD0005F1E025C5F8004109E00478A4
:1053800004F01F050124AC401B4D0678761145F84A
:10539000264070BD194A0A400243154B1B1F1A6074
:1053A000704739B1124A121D12680243104B1B1D7F
:1053B0001A6006E00E4A121D126882430C4B1B1D38
:1053C0001A607047042808D14FF0E021096941F0C4
:1053D00004014FF0E022116107E04FF0E02109697C
:1053E00021F004014FF0E022116170470000FA053E
:1053F0000CED00E000E400E080E100E080FFFF1F32
:1054000010B50446FE48844209D10121480601F046
:1054100085FA00214FF0007001F080FA08E00121C8
:10542000880601F07BFA00214FF0806001F076FAE7
:1054300010BD30B5024600200023146824F0020499
:105440001460146844F00104146000E05B1C5468AC
:1054500004F001041CB94FF6FF74A342F6D154685E
:1054600004F001040CB900206CE08C79012C04D10B
:10547000146844F08004146003E0146824F080048D
:105480001460CC79012C04D1146844F040041460F9
:1054900003E0146824F0400414600C7A012C04D159
:1054A000146844F02004146003E0146824F020041D
:1054B00014604C7A012C04D1146844F01004146078
:1054C00003E0146824F0100414608C7A012C04D1D9
:1054D000146844F00804146003E0146824F008041D
:1054E0001460CC7A012C04D1146844F004041460D4
:1054F00003E0146824F0040414608C78A407CD78C9
:1055000044EA05640D7944EA05444D7944EA0554BA
:105510000D886D1E2C43D461146824F001041460BE
:10552000002300E05B1C546804F001041CB14FF63A
:10553000FF74A342F6D1546804F001040CB10020BA
:1055400000E0012030BD10B50021837A012202FA6B
:1055500003F1AC4A126842F00102AA4B1A60A94A50
:105560001C3212688A43A74B1C331A60027BCAB9EB
:10557000A44A0C3212688A43A24B0C331A60428848
:10558000C38842EA03439F4A4032847A42F8343067
:105590000288838842EA03439A4A4032847A02EBC3
:1055A000C4025360027B012A19D1964A0C32126858
:1055B0000A43944B0C331A604288038842EA03433F
:1055C000904A4032847A42F83430C288838842EA72
:1055D00003438C4A4032847A02EBC4025360C27A9D
:1055E0003AB9884A121D12688A43864B1B1D1A60FD
:1055F00006E0844A121D12680A43824B1B1D1A6082
:10560000028932B97F4A143212688A437D4B1433BF
:105610001A600289012A06D17A4A143212680A43B2
:10562000784B14331A60427B012A06D1754A1C322A
:1056300012680A43734B1C331A60724A126822F0D4
:105640000102704B1A6010BD00218171C17101729D
:1056500041728172C1728170C17003210171022196
:1056600041710121018070476649096841F00101DB
:10567000644A11601146096843F60E729143614A0B
:1056800011601146096841EA00211160114609685C
:1056900021F001011160704721B1026842F48032AB
:1056A000026003E0026822F4803202607047E1B1D8
:1056B000026842F0800202604FF4C272125842F453
:1056C00080734FF4C27213504FF4CA72125842F4EE
:1056D00080734FF4CA7213504FF4D272125842F4CE
:1056E00080734FF4D27213501BE0026822F08002E4
:1056F00002604FF4C272125822F480734FF4C272E7
:1057000013504FF4CA72125822F480734FF4CA72C5
:1057100013504FF4D272125822F480734FF4D272A5
:105720001350704710B502460020936803F0806361
:10573000B3F1806F00D110E0936803F00063B3F120
:10574000006F01D1012008E0936803F08053B3F1AA
:10575000805F01D1022000E00420042879D002F506
:10576000C07303EB00131B6803F0010402F5C07360
:1057700003EB00131C600B7A7BB94B7A0C8843EA6D
:10578000445302F5C07404EB00142468234302F56B
:10579000C07404EB0014236010E00B7A4C6843EAF9
:1057A000C4034C7A234302F5C07404EB001424684C
:1057B000234302F5C07404EB001423608B7A03F0DA
:1057C0000F038B7202F5C07303EB00135B6823F0C9
:1057D0000F0402F5C07303EB00135C6002F5C073A5
:1057E00003EB00135B688C7A234302F5C07404EB6F
:1057F000001463608B7B1C064B7B44EA034403E08C
:1058000000640040006600400B7B44EA0323CC7A2E
:10581000234302F5C07404EB0014A3608B7C1C06C8
:105820004B7C44EA03440B7C44EA0323CC7B2343B4
:1058300002F5C07404EB0014E36002F5C07303EBDF
:1058400000131B6843F0010402F5C07303EB00135F
:105850001C6010BD10B50246002321B1012907D0FC
:1058600002290FD109E09068F94C00EA04030BE02B
:105870009068F84C00EA040306E09068F64C00EAF1
:10588000040301E0002300BF00BFF44C181BA34237
:1058900016D007DC83B16FF08060184470B1022825
:1058A00018D111E0B0F5007F10D0ED4C204448B184
:1058B000B0F5003F0ED10BE002230DE000230BE01A
:1058C000002309E0002307E0012305E0012303E0B2
:1058D000012301E0002300BF00BFD8B210BD21B1F9
:1058E000012907D002290FD109E0826842F0800225
:1058F00082600AE0826842F40042826005E08268C9
:1059000042F40002826000E000BF00BF704710B5A3
:1059100000F5D87303EB01131B6803F00403137243
:10592000137A53B900F5D87303EB01131B6840F2E7
:10593000FF7404EA5353136009E000F5D87303EBD6
:1059400001131B686FF0604404EAD303536000F551
:10595000D87303EB01131B6803F00203537200F5C5
:10596000D87303EB01135B6803F00F03937200F528
:10597000D87303EB01135B681B0AD37400F5D8736B
:1059800003EB01139B68D37200F5D87303EB01138B
:105990009B681C0A147300F5D87303EB01139B6812
:1059A0001C0C547300F5D87303EB01139B681B0E9A
:1059B000937300F5D87303EB0113DB68D37300F521
:1059C000D87303EB0113DB681C0A147400F5D87359
:1059D00003EB0113DB681C0C547400F5D87303EB64
:1059E0000113DB681B0E937421B9C36843F02003D5
:1059F000C36003E0036943F02003036110BD21B9D4
:105A0000C26842F02002C26003E0026942F0200254
:105A1000026170470246002019B9D36803F0030001
:105A200006E0012903D1136903F0030000E0002020
:105A3000704710B502460B4600204FF6FF71BBB908
:105A4000146824F0020444F00104146000E0491ECC
:105A5000546804F00304012C01D00029F7D15468E4
:105A600004F00304012C01D0002032E0012030E0DA
:105A7000012B13D1146824F00304146000E0491EC4
:105A8000546804F003040CB10029F8D1546804F000
:105A900003040CB100201CE001201AE0022B17D1F6
:105AA000146824F0010444F00204146000E0491E6C
:105AB000546804F00304022C01D00029F7D1546883
:105AC00004F00304022C01D0002002E0012000E0D9
:105AD000002010BD014600200A6822F0010242F0B9
