:020000040800F2
:10000000D82C0020AD780008DD010008DF010008D1
:10001000E3010008E7010008EB0100080000000010
:10002000000000000000000000000000EF010008D8
:10003000F101000800000000F3010008F5010008CC
:10004000C7780008C7780008C7780008C778000894
:10005000C7780008C7780008C7780008C778000884
:10006000C7780008C7780008C7780008C778000874
:10007000C7780008C7780008C7780008B7470008A5
:10008000C7780008C7780008C7780008AB3E0008AA
:10009000C13E0008C7780008C7780008C778000884
:1000A000C7780008C7780008C7780008C778000834
:1000B000A54E0008C74E0008E54E0008C7780008A6
:1000C000C7780008C7780008C7780008C778000814
:1000D000C77800087F410008674300084B450008C7
:1000E000C7780008C7780008C7780008C7780008F4
:1000F000C7780008C7780008C7780008C7780008E4
:10010000C7780008C7780008074F0008C7780008BC
:10011000494700085D4A0008ED4F000813500008E9
:10012000C7780008C7780008C7780008C7780008B3
:10013000C7780008C7780008C7780008FB3F0008A8
:1001400011400008C7780008C7780008C778000881
:10015000C7780008C7780008C7780008234C000853
:10016000C7780008C7780008C7780008C778000873
:10017000C7780008C7780008C7780008C778000863
:10018000C7780008C7780008DFF80CD007F09CFF9C
:10019000004800479D010008D82C002000F034F9E9
:1001A00000F0C0F99FED0A1AF0EE000AB0EE080A5E
:1001B00042F2107343F698220321064802F0A5FA92
:1001C00004E005480068401C03490860F9E70000A6
:1001D00000000000480B002000000020704700BF16
:1001E000FEE700BFFEE700BFFEE700BFFEE7704787
:1001F00070477047704700000CB5002001900090D8
:100200007648006840F480307449086000BF734845
:10021000006800F4003000900198401C01900098A4
:1002200018B90198B0F5A06FF1D16C48006800F4DE
:10023000003010B10120009001E0002000900098F3
:10024000012846D165484030006840F0805063493D
:10025000403108606248006840F4404060490860EE
:100260005E48083000685D4908310860084600684B
:1002700040F4004008600846006840F4A050086060
:100280005848091F0860081F006840F08070091F67
:10029000086000BF5148006800F000700028F9D0E5
:1002A00040F20570504908604C480830006820F062
:1002B00003004A49083108600846006840F002001F
:1002C000086000BF45480830006800F00C000828AE
:1002D000F8D10CBD10B54548006840F470004349A2
:1002E00008603E48006840F001003C49086000207A
:1002F0003A4908310860394800683D4908403749A3
:1003000008603C48091D0860081F006820F4802030
:10031000091F0860002031490C310860FFF76CFFAD
:100320004FF0006031498039086010BD70B5002081
:100330000022022300240221284D08352D6805F0F3
:100340000C0020B1042806D0082834D107E02A4D3B
:100350002A4E356033E02A4D284E35602FE01F4D80
:100360002D1D2D68C5F380541C4D2D1D2D6805F0E5
:100370003F0154B1224DB5FBF1F5184E361D3668DC
:10038000C6F3881605FB06F209E01B4DB5FBF1F537
:10039000124E361D3668C6F3881605FB06F20F4D61
:1003A0002D1D2D68C5F301456D1C6B00B2FBF3F5E7
:1003B000124E356003E0104D104E356000BF00BF97
:1003C000064D08352D68C5F303150E4E705D0B4DB7
:1003D0002D68C540094E356070BD000000380240F0
:1003E0000070004008544007003C024088ED00E0E7
:1003F000FFFFF6FE103000240024F400040000206B
:1004000000127A000800002010B54FF4A06004F03C
:100410001DFE184803F01EFE4FF4165003F00BFFAC
:100420004FF4612003F0EEFF4FF4E13004F0B5F833
:100430004FF4165004F0F3F904F06CFB0023032290
:100440000821104603F0BEFC0023032208211046B9
:1004500003F051FD04F05AFC04F085FC04F0B8FCF4
:1004600004F0EBFC04F060FD04F08FFD04F024FCCC
:1004700010BD0000A086010008B52E480068401C91
:100480002C4908600868C11700EB5171C910A0EB36
:10049000C10111B901F0B4FE16E0264800680A2136
:1004A00090FBF1F201FB1200092802D103F031F9AF
:1004B0000AE0204800680A2190FBF1F201FB1200DB
:1004C000052801D103F00EF91A49086800EBD07134
:1004D0004910A0EB410169B91748B0F93A00009002
:1004E0001548B0F93830B0F93620B0F93410134857
:1004F00002F071FB0F490868C11700EB5171C91078
:10050000A0EBC10169B90C48B0F9320000900A486B
:10051000B0F93030B0F92E20B0F92C10074802F0B5
:10052000B6FB08BD10B500200249086000F008F8CD
:1005300010BD000018000020880100200068004065
:1005400010B5D821FE4807F00BFA0120FC490876C7
:1005500000204876C864FB490870B1EE041ADFED4C
:10056000FA0AB2EE000A0A234FF4FA520321F748BE
:1005700002F0CBF8B2EE041ADFEDF30A9FEDF40AB5
:100580004FF4FA7343F698220321F24802F0BDF8C3
:10059000B1EE041ADFEDEC0AB2EE000A0A234FF4C2
:1005A000FA520321E9484C3002F0AFF8B1EE001ADC
:1005B000DFEDE50A9FEDE80A4FF4FA7343F698225F
:1005C0000321E4484C3002F0A0F8B1EE001ADFED50
:1005D000DE0AB2EE000A0A234FF4FA520321DB4886
:1005E000983002F092F8B2EE001AF6EE000A9FED93
:1005F000DB0A4FF4FA7343F698220321D54898306A
:1006000002F083F8B1EE001ADFEDD50AB2EE020A6D
:100610000A234FF4FA520321CC48E43002F075F873
:10062000B2EE0E1ADFEDC80A9FEDCC0A4FF4FA7352
:1006300043F698220321C748E43002F066F800240C
:1006400013E004EB440101EB0411C64A02EB810004
:10065000B2EE041ADFEDC40AB3EE080A43F698239B
:100660001A46032102F051F8641C042CE9DB9FEDCB
:10067000BF1ADFEDBF0A9FEDBF0A00234FF4FA72E5
:100680000321BD4802F041F810BDF0EE400A002001
:10069000BA49B1F85120B1F85C10491F02EB410092
:1006A000002801DC002004E0B0F5AF7F01DB4FF44F
:1006B000AF70B7EE000AB24981ED000A00EE100AF1
:1006C000B8EEC00A704700B52DED0A8B89B0B0EEC8
:1006D000409A002021E000EB400101EB0011A94A03
:1006E00002EB810191ED000A00EB400101EB0011EA
:1006F00002EB8101D1ED020A70EE200AA24931F924
:10070000101000EE101AB8EEC00A20EE800A05A9FB
:1007100001EB800181ED000A401C0428DBDB002096
:1007200042E000EB400101EB00118E4A02EB810137
:1007300091ED090A00EB400101EB001102EB810190
:10074000D1ED000AF1EE600A7D49C43101EB800170
:1007500091ED001A00EE810A00EB400101EB00115F
:1007600002EB8101D1ED020A7549C43101EB800130
:1007700091ED001A00EEC10A00EB400101EB0011FF
:1007800002EB8101D1ED020A00EB400101EB001107
:1007900002EB810191ED061A00EEC10A01A901EBFD
:1007A000800181ED000A401C0428BADB9DED050A9A
:1007B00020EE000ADDED060A9DED061A00EE810A24
:1007C000DDED070A9DED071A00EE810ADDED080A4E
:1007D0009DED081A00EE810ADFED6C0A20EE208AFA
:1007E0009DED050ADDED010A20EE200ADDED060A89
:1007F0009DED021A00EE810ADDED070A9DED031A58
:1008000000EE810ADDED080A9DED041A00EE810A72
:10081000DFED5F0A20EE200ADDED050A9DED061AE8
:1008200070EE810A9DED071A70EE810A9DED081A9F
:1008300070EE810A9FED571A01EE200ADDED050AE0
:100840003F4890ED311A60EE810A9DED061AD0ED19
:10085000321A41EE210A9DED071AD0ED331A41EE0E
:10086000210A9DED081AD0ED341A41EE210A9FEDC0
:100870004A1AF0EE408A41EE208A9DED010A20EEF0
:10088000000ADDED020A9DED021A00EE810ADDED9F
:10089000030A9DED031A00EE810ADDED040A9DEDC9
:1008A000041A00EE810ADFED390A20EE200ADDEDA0
:1008B000010A9DED021A70EE810A9DED031A70EE99
:1008C000810A9DED041A70EE810A9FED321A00EE46
:1008D000810ADDED010A90ED311A60EE810A9DED8D
:1008E000021AD0ED321A41EE210A9DED031AD0ED25
:1008F000331A41EE210A9DED041AD0ED341A41EE6F
:10090000210A9FED251A01EE200ADFED240A30EEC0
:10091000200A70EE499A28EEA80AF1EE000A68EE65
:10092000200A00EEE90A10EE101A084607F035FA20
:1009300041EC1C0B9FED1A0B53EC102B34E0000024
:10094000880100203C000020CDCCCC3D4C13002081
:1009500000005243AC15002000003443000048431F
:10096000CDCCCC3EDC1600209A99993E0000FA438B
:100970000000000000009643400E0020CC1F002025
:100980006C000020100D00206801002058DF2C347E
:1009900058DFAC346019C0B762BEBC37FA7EEA3F9C
:1009A000000000000000F03F06F0F7FF41EC1B0BD9
:1009B000B0EE4B0AF0EE6B0A08F0BAF8B0EE40AABF
:1009C000F0EE60AA51EC1A0B07F02AFA00EE100ABA
:1009D000F1EE680A70EE200AB0EE000A28EE001A66
:1009E00080EE810A09B0BDEC0A8B00BD10B52DED7B
:1009F0000A8BB0EE408A0024FE480078032831D1EB
:100A000018EE100A07F0C9F941EC190B9FEDFA0B2B
:100A100053EC102B07F0ECF902D24FF4E17451E0E3
:100A200018EE100A07F0B9F941EC1C0B9FEDF40B1E
:100A300053EC102B07F052F841EC1B0B9FEDF20B1F
:100A400053EC102B07F0C2F841EC1A0B9FEDF00BA2
:100A500053EC102B07F048F841EC190B07F059F94B
:100A600004462FE018EE100A07F097F941EC190B35
:100A70009FEDE10B53EC102B07F0BAF901D2FA24E9
:100A800020E018EE100A07F088F941EC1C0B9FEDEE
:100A9000DC0B53EC102B07F021F841EC1B0B9FED06
:100AA000DA0B53EC102B07F091F841EC1A0B9FED89
:100AB000DA0B53EC102B07F017F841EC190B07F089
:100AC00028F90446002C01DC002404E0B4F5FA7F88
:100AD00001DB4FF4FA74B7EE000AD14880ED000A4A
:100AE00000EE104AB8EEC00ABDEC0A8B10BD10B57E
:100AF0002DED108B8CB0002085E000EB400101EB68
:100B00000011C84A02EB810191ED0B0AC64901EBC5
:100B1000800181ED000AC44901EB800191ED000ADA
:100B2000DFEDC20AB4EEE00AF1EE10FA07D89FED4D
:100B3000BF0ABD4901EB800181ED000A12E0BA490C
:100B400001EB800191ED000ADFEDB90AB4EEE00A95
:100B5000F1EE10FA06DB9FEDB60AB34901EB800116
:100B600081ED000AB04901EB800191ED000A00EB34
:100B7000400101EB0011AB4A02EB8101D1ED040A07
:100B800020EE200AAB49D1ED000A20EE200AAA4946
:100B900001EB800181ED000AA34901EB800191ED99
:100BA000000AA649D1ED000A20EE200A9E4901EB79
:100BB0008001D1ED000A20EE200A9B4901EB800163
:100BC000D1ED000A9E4991ED001A01EE200A9D49DF
:100BD000D1ED000A30EE200A9B4901EB800181ED46
:100BE000000A954901EB800191ED000A964901EB5D
:100BF0008001D1ED000A30EE200A944901EB80011A
:100C000081ED000A401C0428FFF677AF8F4890ED75
:100C1000000AD0ED010A30EE200AD0ED020A30EED3
:100C2000200AD0ED030A30EE200A894880ED000A40
:100C300090ED000AB5EEC00AF1EE10FA04D81FEDEF
:100C4000B40A80ED000A0DE0814890ED000ADFED66
:100C5000810AB4EEE00AF1EE10FA03DB9FED7D0AA3
:100C600080ED000A7A4890ED000ABCEEC00A10EE52
:100C7000100A7949088008460088002802DC002014
:100C8000088015E07448008800EE100AB8EE400AAB
:100C90007248D0ED000AB4EEE00AF1EE10FA07DB7C
:100CA00090ED000ABCEEC00A10EE100A6A490880F6
:100CB0006B48008868490988401A6A490880644876
:100CC00090ED000A6548D0ED000AB4EEE00AF1EEBE
:100CD00010FA7CDD002407E15C4800EB840090ED15
:100CE000000A5E48D0ED000A20EE200A5848D0EDF8
:100CF000000A80EE201A5C4800EB840080ED001AA8
:100D0000524800EB840090ED000A4E48D0ED000AF6
:100D1000B4EEE00AF1EE10FA6ADD4C4800EB840014
:100D200090ED000A504800EB8400D0ED000AB4EECC
:100D3000E00AF1EE10FA5BDD404890ED000A08A8E9
:100D400000EB840080ED000A04EB440000EB04108B
:100D5000344901EB8000D0ED040A394890ED000AD7
:100D6000344890ED001A01EE200A04A800EB84003C
:100D700080ED000A3C4800EB840090ED000A314809
:100D8000D0ED000A30EEC00A684600EB840080ED2A
:100D9000000A254800EB840090ED000A10EE101ABE
:100DA000084606F0FAFF41EC190B08A800EB840096
:100DB00090ED000AF0EE000A20EE200A10EE101A64
:100DC000084606F0EAFF41EC1B0B04A800E08FE0A8
:100DD00000EB840090ED000A20EE000A08A800EB6A
:100DE0008400D0ED000AB1EE001A60EE810A3DE009
:100DF00072E000005700002000000000008030403A
:100E00000000000000002940000000000000104029
:100E10000000000000207C400000000000406F4007
:100E200068000020AC1500201003002000401CC604
:100E300000401C4690000020200300209400002069
:100E4000980000209C000020300300204003002078
:100E50007C00002000007A445E000020700000202A
:100E60005A0000205C00002050030020684600EB80
:100E7000840090ED001A00EEC10A10EE101A084628
:100E800006F08BFF41EC1F0BB0EE4F0AF0EE6F0A3D
:100E900007F04EFEB0EE40DAF0EE60DA04A800EBA8
:100EA000840090ED000AB1EE400A10EE101A0846D8
:100EB00006F073FF53EC1D2B06F06FFD53EC1B2B5C
:100EC00006F084FE53EC192B06F080FE06F0A8FF16
:100ED000FD4941F8240006E0B7EE000AFA4800EBAD
:100EE000840080ED000A641C042CFFF6F5AE0BE0D4
:100EF000002007E0B7EE000AF34901EB800181ED25
:100F0000000A401C0428F5DB002025E0EE4901EB37
:100F1000800191ED000AB5EEC00AF1EE10FA07D893
:100F20009FEDEA0AE84901EB800181ED000A12E039
:100F3000E54901EB800191ED000AF7EE000AB4EEFD
:100F4000E00AF1EE10FA06DBB7EE000ADE4901EB2B
:100F5000800181ED000A401C0428D7DB0CB0BDECF9
:100F6000108B10BD10B52DED048BD948808900EE93
:100F7000100AB8EE400AD74880ED000A90ED000A4A
:100F8000DFEDD50A80EE201ABCEEC10A10EE100A81
:100F9000CF49C8820846C08A00EE900AF8EE600A7F
:100FA000B0EE600AFFF771FBCC4880ED000AFFF756
:100FB0009EFDCB480078012803D0C948007803285B
:100FC00019D1C348C08A00EE900AF8EE600AB0EE6C
:100FD000600AFFF70BFDC348008800EE900AF8EEA8
:100FE000600A30EE600AB0EE408AFFF76CFBBE4844
:100FF00080ED000A18E0B648C08A00EE900AF8EECC
:10100000600AB0EE600AFFF740FBB648008800EEC9
:10101000900AF8EE600A30EE600AB0EE408AFFF700
:1010200052FBB24880ED000AAF4890ED000AB5EEE1
:10103000C00AF1EE10FA04D89FEDA40A80ED000A70
:101040000DE0A94890ED000AF7EE000AB4EEE00AC0
:10105000F1EE10FA03DBB7EE000A80ED000AA348B8
:1010600090ED000AB5EEC00AF1EE10FA04D89FED3B
:10107000970A80ED000A0DE09C4890ED000AF7EE1B
:10108000000AB4EEE00AF1EE10FA03DBB7EE000A54
:1010900080ED000A92480078032803D09048007839
:1010A000022805D1B7EE000A914880ED000A77E0EA
:1010B0008B48007801282BD18E48006828B99FED15
:1010C0008E0A8E4880ED000A13E08A4800680128E5
:1010D0000FD18A4890ED000AB5EEC00AF1EE10FA81
:1010E00007DD90ED000AF7EE000A30EE600A80EDB1
:1010F000000A824890ED000A5FEDAA0A30EEC00AAD
:101100005FEDAC0A80EE201A794880ED001A47E0C6
:1011100073480078F0BB7748006898B97849B1F80F
:10112000510006F0E9FD41EC190B9FED760B53ECF5
:10113000102B06F0D9FC41EC180B06F071FE6F493C
:10114000086013E06B48006801280FD16B4890EDF0
:10115000000AB5EEC00AF1EE10FA07DD90ED000AC4
:10116000F7EE000A30EE600A80ED000A6448B0F83D
:10117000510000EE100AB8EE400A6048D0ED000AB7
:1011800070EE600A5E48B0F8510000EE100AB8EE4A
:10119000400A00E004E080EE801A554880ED001A15
:1011A000BDEC048B10BD5948407818B157484078C1
:1011B00001281FD100204A4908705448407801286E
:1011C00003D1087000205249088045480078012862
:1011D00005D14F480088401C00B24D4908804C485A
:1011E000B0F900000A2825DB00203D490870484975
:1011F00008801FE002203A490870444840780328DC
:1012000003D108700020424908803548007803283F
:1012100005D13F480088401C00B23D4908803C4849
:10122000B0F900000A2805DB02202D4908700020D3
:10123000374908807047DFED370AB4EEE00AF1EE77
:1012400010FA06DBDFED330A70EE600AB0EE600ADA
:101250000AE0B5EEC00AF1EE10FA05D2DFED2D0A74
:1012600070EE200AB0EE600A704710B52DED0A8BC3
:10127000B0EE409AF0EE609AB0EE418A51EC190B54
:1012800081F0004141EC1C0B9FED230B53EC102B24
:1012900006F02AFC41EC1B0B9FED211BB0EE4B0A24
:1012A000F0EE6B0A07F0FAFAB0EE40AAF0EE60AA90
:1012B00051EC1A0B06F0B4FD08EE100AB5EEC08A28
:1012C000F1EE10FA36D22FE080030020000000007B
:1012D00092200020500000200000C8427000002032
:1012E000570000205E0000206C00002068000020F5
:1012F000640000202C000020008054446000002086
:10130000CC1F00209A9999999999E93FF8200020DB
:1013100058000020DB0FC940000000A046DF913FCD
:1013200000000060FB2119401FED060A38EE000A9C
:10133000B0EE408A18EE100A06F02FFD41EC100BBB
:10134000BDEC0A8B10BD9FEDFD0BFE4880ED020B3E
:101350009FEDFA0B80ED000B1FED240AFA4880ED9B
:10136000120A704710B5F949B1F9140006F0B3FC40
:10137000F44AC2E90201F549B1F9120006F0ABFCEA
:10138000F04A03C21FED2F0AEF4880ED120A10BD8C
:1013900010B5EE49B1F9140006F09DFCE94AC2E926
:1013A0000201EA49B1F9120006F095FCE54A03C2D0
:1013B000E54890ED130A5FED290AB4EEE00AF1EE7C
:1013C00010FA08DB90ED130A5FED2E0A30EE600A8A
:1013D00080ED140A04E0DC4890ED130A80ED140A55
:1013E000D948D0ED140AB0EE600ADFEDD90AD94829
:1013F00000F094FFD44880ED120A10BD10B5D34818
:101400004078012804D140F22620D349088003E027
:101410004FF4C870D0490880CC49B1F9140006F0E7
:101420005AFCC84AC2E90201C849B1F9120006F0E3
:1014300052FCC44A03C2C348407E07280DD0C748A7
:10144000007818B90120C549087006E0C348007843
:10145000012802D10020C1490870C048007850B965
:10146000BD480088404200EE100AB8EEC00AB648F7
:1014700080ED120A0CE0B9480078012808D1B6487E
:10148000008800EE100AB8EE400AAF4880ED120A5C
:1014900010BD10B5AD49B1F9140006F01CFCA94A05
:1014A000C2E90201A949B1F9120006F014FCA54AEB
:1014B00003C2A54890ED130ADFEDA50AB4EEE00AD9
:1014C000F1EE10FA08DB90ED130A5FED6E0A30EED4
:1014D000600A80ED140A04E09B4890ED130A80ED49
:1014E000140A9948D0ED140AB0EE600A5FED890A3B
:1014F000984800F013FF944880ED120A10BD10B513
:10150000924880788F4908769048807848760846D7
:10151000007E072810D004DC012807D0032814D14E
:1015200007E008280BD00A280FD10BE0FFF70BFFCC
:101530000EE0FFF7AEFF0BE0FFF760FF08E0FFF7FC
:1015400027FF05E0FFF70EFF02E0FFF7FCFE00BFFC
:1015500000BF10BD70B52DED048B7B4890ED130AD4
:10156000DFED7F0A30EE200A80ED000A90ED130ACD
:10157000DFED7C0A30EE200A80ED010A90ED130ABF
:10158000DFED790A30EE200A80ED020A90ED130AB1
:10159000DFED760A30EE200A80ED030A00200EE02F
:1015A000694901EB8001D1ED000AB0EE600AFFF756
:1015B00042FE654901EB800181ED000A401C0428D0
:1015C000EEDB002496E0604890ED080ADFED600A4B
:1015D00030EE200A00EB8400D0ED000A30EE600A05
:1015E0005948103000EB840080ED000A5648103056
:1015F00000EB8400D0ED000AB0EE600AFFF71BFE9E
:101600005148103000EB8400D0ED000AB0EE600AC3
:1016100007F092F8F0EE400A4B4890ED120A20EEE7
:10162000000A90ED091AD0ED091A01EE210A90ED99
:10163000121AF0EE001A21EE211AD0ED091A21EE4D
:10164000211A01EE600A10EE105A284606F0A5FB9A
:1016500041EC190BB0EE490AF0EE690A07F068FA9E
:10166000B0EE408AF0EE608A51EC180B06F051FBA8
:1016700001B23548383020F81410283800EB8400C7
:10168000D0ED000AB0EE600A07F056F8F0EE400A1E
:101690002D4890ED120A20EE000A90ED091AD0EDC7
:1016A000091A01EE210A90ED121AF0EE001A21EE4D
:1016B000211AD0ED091A21EE211A01EE600A10EE6E
:1016C000105A284606F069FB41EC190BB0EE490AA6
:1016D000F0EE690A07F02CFAB0EE408AF0EE608A6C
:1016E00051EC180B06F015FB01B21748403020F8FA
:1016F0001410641C042CFFF666AF00247FE112482E
:10170000103000EB8400D0ED000AB0EE600A07F064
:1017100047F9174800EB840080ED000A0A4890ED75
:10172000090A134800EB8400D0ED000A20EE200ADD
:10173000104800EB840080ED000A1DE0000000006E
:10174000000000008801002028010020F82000206F
:10175000DB0F4940400E00205400002056000020BE
:10176000E4CB1640D2537B40E0EDAF40DB0F493F66
:101770007002002080020020FE4830F8140010B9EA
:101780009FEDFD0A0DE0FD4800EB8400D0ED000A5E
:10179000F84830F9140000EE100AB8EEC01A80EED6
:1017A000810AF74800EB840080ED000AF44800EB62
:1017B000840090ED000AFFEE000AB4EEE00AF1EEBC
:1017C00010FA07D8BFEE000AED4800EB840080ED68
:1017D000000A12E0EA4800EB840090ED000AF7EE00
:1017E000000AB4EEE00AF1EE10FA06DBB7EE000AEA
:1017F000E34800EB840080ED000AE14800EB840040
:10180000D0ED000AB0EE600A06F09CFCD948103812
:1018100000EB840080ED000AD64830F8140010FB7D
:1018200000F000EE100AB8EEC00AD2483838D0ED09
:10183000120A90ED121A00EE810AD24800EB8400E1
:1018400080ED000ACB48383890ED090A20EE000AF6
:10185000CD4800EB840080ED000AC648383890ED92
:10186000120AB5EEC00AF1EE10FA74D1383030F831
:101870001400B0B3BF48283800EB840090ED000A94
:10188000B5EEC00AF1EE10FA2CDBBA48283800EBAE
:10189000840090ED000ADFEDBD0AB4EEE00AF1EE3F
:1018A00010FA1FD8B348103800EB840090ED000AFE
:1018B0005FED590A30EE200AAE48103800EB840084
:1018C00080ED000AAB48103800EB840090ED000A70
:1018D000B1EE400AA748103800EB840080ED000A02
:1018E0008CE038E0A348283800EB840090ED000A33
:1018F000DFEDA70AB4EEE00AF1EE10FA7EDB9D48B8
:10190000283800EB840090ED000ADFEDA20AB4EE67
:10191000E00AF1EE10FA71D89648103800EB840016
:1019200090ED000A5FED760A30EE200A91481038FB
:1019300000EB840080ED000A8E48103800EB840034
:1019400090ED000AB1EE400A8A48103800EB84009E
:1019500080ED000A52E08748383890ED120AB5EE63
:10196000C00AF1EE10FA1CD2283000EB840090ED92
:10197000000A5FED890A30EE200A7E48103800EB3D
:10198000840080ED000A7B48103800EB840090ED65
:10199000000AB1EE400A7748103800EB840080ED71
:1019A000000A794800EB840090ED000A754800EBCE
:1019B0008400D0ED000AB4EEE00AF1EE10FA1DDD6D
:1019C0006C48103800EB840090ED000A5FEDA00A2F
:1019D00030EE200A6748103800EB840080ED000AE2
:1019E0006448103800EB840090ED000AB1EE400A24
:1019F0006048103800EB840080ED000A641C042C61
:101A0000FFF67DAEBDEC048B70BD10B52DED048BE3
:101A1000002413E004EB84005F4901EB001090ED1B
:101A2000101BB0EE410AF0EE610A51EC100B06F00B
:101A3000F7F90146594840F82410641C042CE9DBEE
:101A40004C48383890ED090ADFED550AB4EEE00A4B
:101A5000F1EE10FA11DC90ED120AF9EE040AB4EE80
:101A6000E00AF1EE10FA08D390ED120AF1EE040A42
:101A7000B4EEE00AF1EE10FA59DD002455E04949D0
:101A800051F824104FF4B47201FB02F006F023F970
:101A900041EC190B04EB84003F4901EB001090ED81
:101AA000101BB0EE410AF0EE610A53EC102B51EC22
:101AB000190B06F016F89FED3C0B53EC102B06F0BB
:101AC00097F907D2374850F82400401C354941F8AF
:101AD000240029E0334951F824104FF4B47201FB7B
:101AE00002F006F0F8F841EC190B04EB84002A49E7
:101AF00001EB001090ED101BB0EE410AF0EE610A10
:101B000053EC102B51EC190B05F0EBFF1FEDF50B0F
:101B100053EC102B06F054F906D2224850F824005A
:101B2000401E204941F82400641C042CA7DB114806
:101B3000383890ED090ADFED1A0AB4EEE00AF1EE4A
:101B400010FA50D8002010E0164951F820104FF438
:101B5000B472514300EE101AB8EEC00A0F491039A2
:101B600001EB800181ED000A401C0428ECDB0148F8
:101B700038381DE0600100200000000080020020D5
:101B800090020020C0020020D0020020DB0FC93FDD
:101B9000E4CB9640DB0FC94058180020EC01002030
:101BA00000004842600200200000000000807640F3
:101BB00090ED120AB5EEC00AF1EE10FA30D2002014
:101BC0000EE0FE4901EB800191ED000ADFEDFC0A19
:101BD00030EE600AF94901EB800181ED000A401CFA
:101BE0000428EEDB1CE0002018E0F64951F8201034
:101BF0004FF4B472514300EE101AB8EEC00AF24925
:101C000001EB8001D1ED000A9FEDF01A00EE810A90
:101C1000EA4901EB800181ED000A401C0428E4DB65
:101C2000002045E0E549103101EB800191ED000A0B
:101C3000E24901EB8001D1ED000A30EE600ADFEDF0
:101C4000E00AB4EEE00AF1EE10FA0EDBDB4901EB3C
:101C5000800191ED000ADFEDDE0A30EE200AD7495F
:101C600001EB800181ED000A21E0D449103101EB44
:101C7000800191ED000AD14901EB8001D1ED000A0C
:101C800030EE600ADFEDD30AB4EEE00AF1EE10FAAE
:101C90000DD8CA4901EB800191ED000ADFEDCC0AB5
:101CA00030EE600AC54901EB800181ED000A401C5D
:101CB0000428B7DBC4482838B0F94000C2492839A5
:101CC000A1F840000846B0F84200404201B2BE48C8
:101CD0002838A0F84210B0F94400BB492839A1F8CF
:101CE00044000846B0F94600A1F84600002059E03B
:101CF000B24901EB800191ED000AB049103101EBCE
:101D00008001D1ED000A30EE600ADFEDB30AB4EED7
:101D1000E00AF1EE10FA18DDA84901EB800191ED1F
:101D2000000ADFEDA70A30EE600AA44901EB80014A
:101D300081ED000AA449183131F8101049420AB265
:101D4000A149183121F810202BE09C4901EB8001BA
:101D500091ED000A9949103101EB8001D1ED000AA3
:101D600030EE600ADFED9D0AB4EEE00AF1EE10FA03
:101D700017D2924901EB800191ED000ADFED900A44
:101D800030EE200A8D4901EB800181ED000A8E4979
:101D9000183131F8101049420AB28B49183121F834
:101DA0001020401C0428A3DB002418E0834901EB29
:101DB000840191ED001AF0EE410A8049103101EBE7
:101DC000840191ED001AB0EE410A04EB440101EBED
:101DD0000411834A02EB810000F0A0FA641C042C79
:101DE000E4DB76485438007E032804D07348543826
:101DF000007E072828D1002010E000EB8001794AFE
:101E000002EB0111C96B00EE101AB8EEC00A6B4963
:101E1000303101EB800181ED000A401C0428ECDB2D
:101E200000200FE000EB400101EB00116C4A02EBD7
:101E3000810191ED0B0A6149203101EB800181EDB7
:101E4000000A401C0428EDDBBDEC048B10BD10B56E
:101E50002DED048B002450E004EB8401624800EB7C
:101E60000110C06B00EE100AB8EEC00A5348703083
:101E700000EB840080ED000A5348183030F914005C
:101E800000EE100AB8EEC00A4C48603000EB840047
:101E900080ED000A4949203101EB840191ED001ADF
:101EA000F0EE410A4549303101EB840191ED001A11
:101EB000B0EE410A04EB440101EB04114B4A02EB82
:101EC000810000F02BFA3D49603101EB840191ED76
:101ED000001AF0EE410A3949703101EB840191EDAD
:101EE000001AB0EE410A04EB440101EB0411404A30
:101EF00002EB810000F012FA641C042CACDB002021
:101F000026E02E495439097E032904D02B4954393F
:101F1000097E072916D100EB400101EB0011344A7C
:101F200002EB810191ED0B0AF7EE000A20EE200A88
:101F3000BDEEC00A10EE101A0AB22049283921F865
:101F4000102004E000221D49283921F81020401CEF
:101F50000428D6DB1948543890ED2D0A10EE101ADB
:101F6000084605F01AFF41EC190BB0EE490AF0EEF5
:101F7000690A06F089FCB0EE408AF0EE608A9FEDB7
:101F80001D0B53EC102B51EC180B05F019FF7DD2F3
:101F90000A48543890ED2E0A10EE101A084605F043
:101FA000FCFE41EC190BB0EE490AF0EE690A06F0AE
:101FB0006BFCB0EE408AF0EE608A1FE0DC0100208E
:101FC000000034436002002050010020E12E6542F1
:101FD0000000B443000034C30000B4420000B4C2A7
:101FE0004C1300205818002098190020AC15002030
:101FF000DC16002000000000000049401FED030B2C
:1020000053EC102B51EC180B05F0DAFE3ED29A4837
:1020100090ED2F0A10EE101A084605F0BEFE41ECB6
:10202000190BB0EE490AF0EE690A06F02DFCB0EE8D
:10203000408AF0EE608A1FED110B53EC102B51EC2F
:10204000180B05F0BDFE21D28B4890ED300A10EE42
:10205000101A084605F0A1FE41EC190BB0EE490A32
:10206000F0EE690A06F010FCB0EE408AF0EE608AED
:102070001FED200B53EC102B51EC180B05F0A0FEBC
:1020800004D200207D49086003E0FFE701207B497E
:102090000860002030E07849097E032903D07649A2
:1020A000097E072922D175490968F9B100EB400181
:1020B00001EB0011724A02EB810191ED0B0ABDEEBA
:1020C000C00A10EE101A09B200EE101AB8EEC00ADB
:1020D000F7EE000A20EE200ABDEEC00A10EE101A3C
:1020E0000AB26549343121F8102004E00022624927
:1020F000343121F81020401C0428CCDBBDEC048BCB
:1021000010BD10B52DED088B9FED5E0AB0EE408A34
:102110005D48408A5D4908805B48808A5C49088048
:102120005A49098811FB01F1594A1288584B1B88FA
:1021300012FB031005F0CFFD41EC1A0BB0EE4A0A7A
:10214000F0EE6A0A06F0F4FCB0EE409AF0EE609A07
:1021500051EC190B05F064FE4E494862084690EDBB
:10216000090ADFED4D0AB4EEE00AF1EE10FA3FDBAA
:102170004648B0F9000005F0AEFD41EC1A0B4448AA
:10218000B0F9000005F0A7FD41EC1B0BB0EE4A1AB8
:10219000F0EE6A1AB0EE4B0AF0EE6B0A06F0D4F9D4
:1021A000B0EE409AF0EE609A51EC190B05F038FE53
:1021B00008EE100A9FED390A38EE000A10EE101AE8
:1021C000084605F0EAFD41EC1A0B9FED351BB0EE19
:1021D0004A0AF0EE6A0A06F061FBB0EE409AF0EEB1
:1021E000609A51EC190B05F01BFE2A49086204E0C5
:1021F0009FED240A274880ED090ABDEC088B10BD2D
:1022000010B52DED028B2048D0E90221104605F0D3
:102210004CFD00EE100ADFED240A80EE201A11EECC
:10222000104A204605F0B9FD1A4AC2E916011046C7
:10223000D0ED131AB0EE611A90ED162BB0EE420AF3
:10224000F0EE620AFFF711F8B0EE408AF0EE608A15
:1022500051EC180B05F0E4FD0E49C864FFF74FF987
:10226000FFF74FFFFFF776F9FFF7CFFBFFF7EFFD23
:10227000BDEC028B10BD0000880100202C00002066
:10228000AC15002000000000F820002038000020DD
:102290003A0000202801002000004842DB0FC9401E
:1022A00000000060FB21194000401C46D0ED000AF0
:1022B000F4EEC00AF1EE10FA01DD80ED000AD0ED77
:1022C000000AB1EE401AF4EEC10AF1EE10FA03D2A0
:1022D000F1EE400AC0ED000A70470364C2638163F7
:1022E00080ED000AC0ED010A80ED021A704780ED12
:1022F000000AC0ED010A80ED021ADFEDFE1AC0ED02
:10230000081ADFEDFC1AC0ED091ADFEDFA1AC0ED6C
:102310000A1ADFEDF81AC0ED0B1A704710B52DED53
:10232000088B0446B0EE408AF0EE608A84ED048AA1
:10233000C4ED038A38EEC80A84ED070A94ED0C0A4E
:10234000B5EEC00AF1EE10FA27D094ED0C0A10EEAB
:10235000101A084605F021FD41EC190B94ED070A0F
:1023600010EE101A084605F018FD41EC1B0BB0EEFC
:102370004B0AF0EE6B0A06F087FAB0EE40AAF0EED8
:1023800060AA53EC192B51EC1A0B05F031FD04D265
:102390009FEDD80ABDEC088B10BDA06B03283ED181
:1023A00094ED000AD4ED070A20EE200A84ED080A15
:1023B00094ED090AD4ED010A94ED071A00EE810AA2
:1023C00084ED090A94ED070AD4ED060A30EE600A9E
:1023D000D4ED020A20EE200A84ED0A0AD4ED100A98
:1023E000F8EE600AB0EE600A04F12400FFF75EFF29
:1023F00094ED080AD4ED090A30EE200AD4ED0A0A59
:1024000030EE200A84ED0B0AD4ED0F0AF8EE600AD4
:10241000B0EE600A04F12C00FFF748FF42E0A06B29
:1024200004283FD194ED070AD4ED060A30EE600A85
:10243000D4ED000A20EE200A84ED080A94ED010A8A
:10244000D4ED070A20EE200A84ED090A94ED070A6C
:10245000D4ED060AB0EE001A01EE600AD4ED050ACA
:1024600030EE200AD4ED020A20EE200A84ED0A0A9A
:1024700094ED080AD4ED090A30EE200AD4ED0A0AD8
:1024800030EE200AD4ED0B0A30EE200A84ED0B0A60
:10249000D4ED0F0AF8EE600AB0EE600A04F12C00E9
:1024A000FFF704FF94ED060A84ED050A94ED070A90
:1024B00084ED060A94ED0D0AB5EEC00AF1EE10FAAD
:1024C00025D094ED0D0A10EE101A084605F065FCB3
:1024D00041EC190B94ED0B0A10EE101A084605F0AA
:1024E0005CFC41EC1B0BB0EE4B0AF0EE6B0A06F005
:1024F000CBF9B0EE40AAF0EE60AA53EC192B51ECE8
:102500001A0B05F05DFC02D29FED7A0A42E794EDCA
:102510000B0A3FE710B52DED088B0446B0EE408A5C
:10252000F0EE608A84ED048AC4ED038A38EEC80AAE
:1025300084ED070A94ED0C0AB5EEC00AF1EE10FA2C
:1025400027D094ED0C0A10EE101A084605F025FC71
:1025500041EC190B94ED070A10EE101A084605F02D
:102560001CFC41EC1B0BB0EE4B0AF0EE6B0A06F0C4
:102570008BF9B0EE40AAF0EE60AA53EC192B51ECA7
:102580001A0B05F035FC04D29FED5A0ABDEC088BFE
:1025900010BDA06B03283ED194ED000AD4ED070ACC
:1025A00020EE200A84ED080A94ED090AD4ED010A10
:1025B00094ED071A00EE810A84ED090A94ED070AEA
:1025C000D4ED060A30EE600AD4ED020A20EE200AAD
:1025D00084ED0A0AD4ED100AF8EE600AB0EE600A43
:1025E00004F12400FFF762FE94ED080AD4ED090A15
:1025F00030EE200AD4ED0A0A30EE200A84ED0B0AF0
:10260000D4ED0F0AF8EE600AB0EE600A04F12C0077
:10261000FFF74CFE3EE0A06B04283BD194ED070A87
:10262000D4ED060A30EE600AD4ED000A20EE200A4E
:1026300084ED080A94ED010AD4ED070A20EE200A81
:1026400084ED090A94ED070AD4ED060AB0EE001AEB
:1026500001EE600AD4ED050A30EE200AD4ED020A3C
:1026600020EE200A84ED0A0A94ED080AD4ED0A0A45
:1026700030EE200AD4ED0B0A30EE200A84ED0B0A6E
:10268000D4ED0F0AF8EE600AB0EE600A04F12C00F7
:10269000FFF70CFE94ED060A84ED050A94ED070A97
:1026A00084ED060A94ED0D0AB5EEC00AF1EE10FABB
:1026B00028D094ED0D0A10EE101A084605F06DFBB7
:1026C00041EC190B94ED0B0A10EE101A084605F0B8
:1026D00064FB41EC1B0BB0EE4B0AF0EE6B0A06F00C
:1026E000D3F8B0EE40AAF0EE60AA53EC192B51ECEF
:1026F0001A0B01E00000000005F062FB02D21FEDA2
:10270000030A43E794ED0B0A40E72DE9F0412DED74
:10271000048B04460D4616461F46B0EE408AF0EE86
:10272000608AB0EE419A29486064B0EE491AF0EE32
:10273000680AB0EE480A3B46324629462046D4F89D
:1027400044C0E047BDEC048BBDE8F0811FED170AE3
:1027500080ED080A1FED190A80ED090A1FED1B0A1A
:1027600080ED0A0A1FED1D0A80ED0B0A1FED1F0AFE
:1027700080ED050A1FED210A80ED060A1FED230AF0
:1027800080ED070A704770B52DED068B05460C46A7
:10279000B0EE408AF0EE608AB0EE419AF0EE619AB7
:1027A000F0EE480AB0EE680A2846FFF7B7FD30EEB3
:1027B000290AB0EE40AAF0EE4A0AB0EE490A2046D5
:1027C000FFF7ACFDBDEC068B70BD0000DB220008FE
:1027D00010B5044634480068401C33490860204660
:1027E00001F099FAFEF7DFFC2146304800F0E8FEE0
:1027F00010BD10B504462E480068401C2C490860E6
:102800002068A0F2012008284AD2DFE800F0040B7B
:10281000131B232C363F224626492548006800F02A
:10282000A6F93EE02246234950312148006800F0D5
:102830009EF936E022461F49A0311D48006800F08D
:1028400096F92EE022461B49F0311948006800F045
:102850008EF926E04FF4AD732246174914480068FC
:1028600000F095F91DE040F612132246124950314E
:102870000F48006800F08BF913E0CF2322460D4982
:10288000A0390B48006800F082F90AE041F27C337D
:102890002246084950390648006800F078F900E0FF
:1028A00000BF00BF10BD0000A0000020922000204B
:1028B000A4000020981900205818002070B5054683
:1028C0000C464C22A91D384805F023F8364890EDF7
:1028D0000C0AB1EE400A84ED000A344890ED000A7B
:1028E000334880ED000A304890ED0E0A2F4880ED05
:1028F000000A90ED000A2E48D0ED000A30EE600A82
:10290000DFED2C0AB4EEE00AF1EE10FA05DB2A48FE
:102910000068401E2849086013E0244890ED000A32
:102920002348D0ED000A30EE600ADFED240AB4EE51
:10293000E00AF1EE10FA04D81F480068401C1E4956
:1029400008601D4800684FF4B471484300EE100A57
:10295000B8EEC00A1548D0ED000A30EE200AB1EEFC
:10296000400A84ED010A104890ED0D0A84ED020A38
:1029700090ED070A84ED030A90ED080AB1EE400AD3
:1029800084ED040A90ED060A84ED050A90ED030A31
:1029900084ED060A90ED050A84ED070A90ED040A1D
:1029A00084ED080A70BD0000381F0020AC00002034
:1029B000A80000200000A243B00000200000A2C335
:1029C0000A7BCB7A42EA0322826182698260826951
:1029D00042600269521C026170472DE9F0410446D1
:1029E0000D460026002720686060287BE97A40EACF
:1029F0000120206020686168401AE060E06810F5FE
:102A0000805F07DAA06B401CA063E06800F500500F
:102A1000E0610DE0E068B0F5805F07DDA06B401E6F
:102A2000A063E068A0F50050E06101E0E068E061CB
:102A30002168A06B01EB4030A0602068A269801A79
:102A400000EE100AF8EEC00AA06B4FF4B4725043C7
:102A500000EE100AB8EEC00A9FEDBB1A00EE810A24
:102A600010EE101A084605F098F941EC100B84EDB1
:102A7000100BE269207D411C217504F1200141F811
:102A80002020207D062801D100202075002605E0A9
:102A900004F1200050F826000744761C062EF7DBD0
:102AA000062097FBF0F0E063A97B687B41EA0020F9
:102AB00000B2A4F84C00BDE8F08170B504460D46A4
:102AC00020686060287BE97A40EA01202060206865
:102AD0006168401AE060E06810F5805F07DAA06B7B
:102AE000401CA063E06800F50050E0610DE0E06884
:102AF000B0F5805F07DDA06B401EA063E068A0F525
:102B00000050E06101E0E068E0612168A06B01EB4A
:102B10004030A0602068A269801A00EE100AF8EE2A
:102B2000C00AA06B4FF4B472504300EE100AB8EE26
:102B3000C00A9FED861A00EE810A10EE101A0846B0
:102B400005F02BF941EC100B84ED100BA97B687B91
:102B500041EA0020E063E06BB0F57A7F04DBE06BD4
:102B6000A0F57F40FF38E063687CA06470BD70B55D
:102B700006460C461546322E04D829462046FFF755
:102B80001FFF03E029462046FFF727FF70BD2DE910
:102B9000F04106460C4617461D460A2E00D2A56196
:102BA00039462046FFF789FF642E12D8A069A16834
:102BB000401A10F57A6F03DA05F50050A06108E0BD
:102BC000A069A168401AB0F57A6F02DDA5F5005042
:102BD000A061BDE8F0812DE9F04186B080460C4649
:102BE00015461E460C9F40F2FF10019000208DF804
:102BF0000C008DF80D0008208DF80E00200A8DF8CD
:102C00000F008DF81040290A8DF811108DF8125020
:102C1000310A8DF813108DF81460390A8DF81510EB
:102C20008DF8167001A9404602F012FC06B0BDE80E
:102C3000F0812DE9F04186B080460C4615461E46CF
:102C40000C9F40F2FF20019000208DF80C008DF8C1
:102C50000D0008208DF80E00200A8DF80F008DF869
:102C60001040290A8DF811108DF81250310A8DF894
:102C700013108DF81460390A8DF815108DF8167040
:102C800001A9404602F0E4FB06B0BDE8F0812DE961
:102C9000F04186B080460C4615461E460C9F4FF408
:102CA0000070019000208DF80C008DF80D000820B8
:102CB0008DF80E00200A8DF80F008DF81040290ABB
:102CC0008DF811108DF81250310A8DF813108DF80F
:102CD0001460390A8DF815108DF8167001A9404658
:102CE00002F0B6FB06B0BDE8F0812DE9F04186B0F8
:102CF00080460C4615461E460C9F40F2FF10019080
:102D000000208DF80C008DF80D0008208DF80E00C5
:102D1000200A8DF80F008DF81040290A8DF8111047
:102D20008DF81250310A8DF813108DF81460390A9D
:102D30008DF815108DF8167001A9404602F088FB39
:102D400006B0BDE8F0810000FFFF333D0000343DD8
:102D5000F0B503460C461888002113E0675C80EA52
:102D6000072000250BE0460000F4004CBCF1000FEA
:102D700003D041F2210C86EA0C0630466D1C082D6A
:102D8000F1D3491C9142E9D31880F0BD2DE9F843F5
:102D900005460F4690464FF0000900200090062699
:102DA000FE484078002859D0002085F86300FB4891
:102DB0004078C0F3800078B1F9A1284604F0DBFD2B
:102DC000F84908600846006830B1F448007820F0FF
:102DD0000400001DF1490870F048407800F001003F
:102DE00078B1EFA1284604F0C6FDEE490860084618
:102DF000006830B1E948007820F00100401CE74944
:102E00000870E6484078C0F3400078B1E4A1284655
:102E100004F0B1FDE34908600846006830B1DF48BE
:102E2000007820F00200801CDC490870DB48407804
:102E3000C0F3C00078B1DCA1284604F09CFDD9495C
:102E400008600846006830B1D448007820F00800D7
:102E50000830D2490870002028600AE128785A28F2
:102E6000FBD16878A528F8D1A878E97800EB012093
:102E7000801D4045F1D1B8F1080FEEDB0422294650
:102E80006846FFF765FFA8F10602A91D6846FFF72F
:102E90005FFF2879697900EB01201FFA80F9BDF8FE
:102EA00000004845D9D10626E0E0AC192078C028BA
:102EB00060D008DC90280FD0A02813D0A52829D0F6
:102EC000B0286FD13EE0D02870D0D1286CD0D9285E
:102ED0006BD0F028F5D1C3E06078B8490870B01C19
:102EE000C6B2C2E06078A17800EB012000B2B3491D
:102EF0004880E078217900EB012000B2AF4988805A
:102F00006079A17900EB012000B2AC49C880F01DC6
:102F1000C6B2AAE06078A17800EB012000B2A74910
:102F20000881E078217900EB012000B2A3494881B3
:102F30006079A17900EB012000B2A0498881F01DE1
:102F4000C6B292E06078A17800EB012000B29B4904
:102F5000C881E078217900EB012000B2974908820E
:102F60006079A17900EB012000B294494882F01DFC
:102F7000C6B27AE06078A17800EB012000B28F49F8
:102F80008882E078217900EB012000B28B49C88269
:102F90006079A17900EB012000B288490883F01D17
:102FA000C6B262E05FE001E04CE03FE06078A1780B
:102FB00000EB012000B281494883E078217900EBE1
:102FC000012000B27D4988836079A17900EB01205E
:102FD00000B27A49C8830846B0F91A0000EE100A18
:102FE000B8EEC00ADFED760A20EE200A084680ED32
:102FF0000F0AB0F91C0000EE100AB8EEC00ADFEDAF
:10300000700A20EE200A084680ED100AB0F91E0072
:1030100000EE100AB8EEC00ADFED6A0A20EE200AC0
:10302000084680ED110AF01DC6B21EE0634854F850
:10303000011F016261684162A168816206F10D00B1
:10304000C6B212E05D4854F8011FC16261680163B5
:10305000A1684163E168816306F11100C6B204E032
:10306000701DC6B201E0464600BF00BF4645FFF6F0
:103070001CAF5248B0F91200404200EE100AB8EE00
:10308000C00ADFED500A20EE200A87ED040A4B4803
:10309000B0F91000404200EE100AB8EEC00ADFEDB1
:1030A000490A20EE200A87ED030A4448B0F90E00D1
:1030B000404200EE100AB8EEC00ADFED420A20EEF0
:1030C000200A87ED050A404890ED000A3F4880ED50
:1030D000000A3A4890ED110AB1EE400A3A4880EDF4
:1030E000000A90ED000A3948D0ED000A30EE600A7F
:1030F000DFED370AB4EEE00AF1EE10FA05DB3548F1
:103100000068401E3349086013E02F4890ED000A24
:103110002E48D0ED000A30EE600ADFED2F0AB4EE43
:10312000E00AF1EE10FA04D82A480068401C294948
:1031300008602A4890ED000A294880ED000A1F48DF
:1031400090ED080A254880ED000A90ED000A244819
:10315000D0ED000A30EE600ADFED1D0AB4EEE00AA1
:10316000F1EE10FA05DB1F480068401E1D4908609B
:1031700013E01A4890ED000A1948D0ED000A30EE2D
:10318000600ADFED150AB4EEE00AF1EE10FA04D899
:1031900014480068401C1349086025E0B400002072
:1031A0004F4B0000B80000206E6577207061636BA4
:1031B0006574206974656D7300000000841F002031
:1031C0000AD7233CCDCCCC3DC0000020BC00002061
:1031D0000000A543D40000200000A5C3C8000020C3
:1031E000C4000020D8000020314800684FF4B471BA
:1031F000484300EE100AB8EEC00A2E48D0ED000A8F
:1032000030EE200A87ED000A2B4890ED000A2B488B
:1032100080ED000A2A4890ED090A274880ED000A4F
:1032200090ED000A2548D0ED000A30EE600A5FED0F
:10323000180AB4EEE00AF1EE10FA05DB2148006846
:10324000401E2049086013E01B4890ED000A1B480F
:10325000D0ED000A30EE600A5FED210AB4EEE00A1C
:10326000F1EE10FA04D817480068401C15490860B0
:10327000154800684FF4B471484300EE100AB8EEE8
:10328000C00A1248D0ED000A30EE200A87ED010A8C
:103290000B4890ED100ADFED0E0A30EE200A87EDA4
:1032A000020A90ED0F0A87ED000ABDE8F8830000DE
:1032B000D8000020C8000020D0000020CC00002052
:1032C000841F0020DC000020D4000020C00000206B
:1032D000A470954030B5034605E013F8010B80EA71
:1032E0000204B348025D081EA1F10101F5D11046A8
:1032F00030BD70B505460C4600260DB1022C01D834
:10330000002070BD611EFF222846FFF7E3FF06463E
:10331000601E285CB04201D10120F2E70020F0E7F6
:1033200070B505460C4600260DB1022C00D870BDC4
:10333000611EFF222846FFF7CDFF0646601E2E5471
:1033400000BFF4E730B5034613B94FF6FF7030BD48
:1033500009E013F8014B82EA0400C0B2954D35F83C
:10336000100080EA2222081EA1F10101F1D11046CD
:10337000EDE770B505460C4600260DB1022C01D8CC
:10338000002070BDA11E8C4802882846FFF7DAFF96
:103390000646F1B2A01E285C814206D1601E285C60
:1033A000B0EB162F01D10120EBE70020E9E770B563
:1033B00005460C4600260DB1022C00D870BDA11E9A
:1033C0007D4802882846FFF7BDFF0646A01E2E5402
:1033D000310A601E295400BFF0E770B504460D465F
:1033E00000260CB1022D01D8FF2070BDFF22294616
:1033F0002046FFF76FFFF8E72DE9FC5F05460F4613
:10340000092F01D8BDE8FC9F0024A146CBE015F8A8
:1034100004A0601C295CA01C285C41EA0026601DF9
:10342000295CA01D285C41EA002B281900F107083F
:1034300028190168009100798DF8040006F109004F
:103440001FFA80F9BAF1A50F77D105216846FFF779
:1034500050FF002871D028194946FFF78AFF00283D
:10346000F8D0BBF5017F6AD012DC40F20311ABEB60
:1034700001008B452BD006DCBBF1010F1AD0BBF14C
:10348000030F74D11CE0FE2828D0FF286FD14BE039
:10349000BBF5027F6DD006DCABF20620002856D0CB
:1034A00001287BD15AE0ABF20130002868D0022815
:1034B00074D16CE032464146404804F02AFA6EE08E
:1034C000324641463D480C3004F023FA67E032466C
:1034D00041463A48363004F01CFA60E01B2E22D1F7
:1034E000324641463548393004F013FA334890F8F3
:1034F0003900012809DB314890F83900072804DC3D
:1035000002202E4981F8C5000DE02C4890F83900C2
:103510000B2808DB294890F83900112803DC01202A
:10352000264981F8C5003AE0102E05D132464146C1
:103530002248543004F0EDF931E031E0FFE7012E8C
:1035400004D198F800001D4981F8740027E0324644
:1035500041461A48763004F0DCF920E0072E05D108
:10356000324641461548773004F0D3F917E015E0AC
:10357000FFE73246414611487E3004F0CAF90EE0BA
:10358000324641460D48843004F0C3F907E0324624
:1035900041460A48AC3004F0BCF900E000BF00BF6F
:1035A00004EB090084B2A7423FF731AF00BF29E71F
:1035B0001F8F000820900008E0000020CC1F002092
:1035C0000A68B2F5C26F07D0A2F211627AB1012A7D
:1035D0001DD0022A3BD12AE00A7BCB7A42EA0322A1
:1035E00002808B7B4A7B43EA0222428030E00A7BE6
:1035F000CB7A42EA032282808B7B4A7B43EA022217
:10360000C2800B7CCA7B43EA0222028120E00A7B53
:10361000CB7A42EA032242818B7B4A7B43EA022235
:1036200082810B7CCA7B43EA0222C28110E00A7BC2
:10363000CB7A42EA032202828B7B4A7B43EA022254
:1036400042820B7CCA7B43EA0222828200E000BFF6
:1036500000BF704770B586B006460C46154601950A
:1036600000208DF80C008DF80D0008208DF80E005C
:1036700020128DF80F008DF8104000218DF81110E8
:103680008DF812108DF813108DF814108DF8151098
:103690008DF8161001A9304601F0DAFE06B070BDB3
:1036A00030B585B005460C46009400208DF8080022
:1036B00002208DF8090006208DF80A0000208DF800
:1036C0000B0000218DF80C108DF80D108DF80E10E8
:1036D0008DF80F108DF810106946284601F0B8FEDD
:1036E00005B030BD10B504464FF4C2612046FFF767
:1036F000D7FF40F211612046FFF7D2FF40F212617E
:103700002046FFF7CDFF40F213612046FFF7C8FFC8
:1037100010BD70B505460C464FF4C0620221284624
:10372000FFF798FF04EBC40000EB04104FF6FF72A4
:1037300002EA800140F201622846FFF78BFF40F267
:10374000026240F6C4112846FFF784FF40F203628C
:103750004FF42F712846FFF77DFF70BD10B503466B
:103760003BB1087838B9012008701078401C1070FF
:1037700001E000200870107800EBD0746410A0EB1A
:1037800044040CB9002010BD0120FCE7CB8A0340A3
:103790000BB1012300E000231370704710B50446FD
:1037A00004F1280221460120FFF7F0FF04F129026D
:1037B00021460420FFF7EAFF04F12A0221460220F5
:1037C000FFF7E4FF04F12B0221460820FFF7DEFF9C
:1037D00004F12C0221461020FFF7D8FF04F12E023D
:1037E00021462020FFF7D2FF04F12F02214640207E
:1037F000FFF7CCFF04F1300221468020FFF7C6FF1F
:1038000004F1310221464FF48070FFF7BFFF04F14D
:10381000320221464FF40070FFF7B8FF04F1330283
:1038200021464FF48060FFF7B1FF04F134022146D6
:103830004FF40060FFF7AAFF04F12D0221464FF478
:103840008050FFF7A3FF04F1350221464FF40050EA
:10385000FFF79CFF04F1360221464FF48040FFF74A
:1038600095FF04F1370221464FF40040FFF78EFF29
:1038700094F82800914A9249FFF770FF38210855C3
:103880002921085D8F4A9049FFF768FF39210855C3
:103890002A21085D8D4A8E49FFF760FF3A210855BD
:1038A0002B21085D8B4A8C49FFF758FF3B210855B7
:1038B0002C21085D894A8A49FFF750FF3C210855B1
:1038C0002E21085D874A8849FFF748FF3E210855A9
:1038D0002F21085D854A8649FFF740FF3F210855A3
:1038E0003021085D834A8449FFF738FF402108559D
:1038F0003121085D814A8249FFF730FF4121085597
:103900003221085D7F4A8049FFF728FF4221085590
:103910003321085D7D4A7E49FFF720FF432108558A
:103920003421085D7B4A7C49FFF718FF4421085584
:103930002D21085D794A7A49FFF710FF3D2108558E
:103940003521085D774A7849FFF708FF452108557A
:103950003621085D754A7649FFF700FF4621085574
:103960003721085D734A7449FFF7F8FE472108556F
:1039700010BD817AC176017FC27E891A4177C27EED
:103980000277417F01290ED1016A491C0162016A57
:1039900001EBD1725210A1EB420212B900228277E0
:1039A00001E001228277417F02290ED1416A491C40
:1039B0004162416A01EBD1725210A1EB420212B98D
:1039C0000022C27701E00122C2777047C17A012943
:1039D00001D1817608E0C17A032901D1817603E023
:1039E000C17A022900D18176704730B504460D4670
:1039F000122D00D030BD04B9FCE72078617840EA90
:103A00000120C0F30A004D4908806078C010A178F9
:103A100040EA4110C0F30A0048494880A07880116C
:103A2000E17840EA8100217940EA8120C0F30A0070
:103A30004249888020794010617940EAC110C0F382
:103A40000A003E49C880207C617C40EA0120C0F326
:103A50000A003A490881607900118008887260790B
:103A6000C0F30110C872A079E17940EA012000B2E8
:103A700032498881207A617A40EA012001B22F48D8
:103A8000C181A07AE17A40EA012001B22B4801828B
:103A9000217B0175617B4175A07BE17B40EA0120C0
:103AA0002649C8820846FFF791FF2448FFF761FFC7
:103AB0002248FFF773FE00BF9CE70000E3000020F0
:103AC000E2000020E5000020E4000020E7000020E4
:103AD000E6000020E9000020E8000020EB000020C4
:103AE000EA000020ED000020EC000020EF000020A4
:103AF000EE000020F1000020F0000020F300002084
:103B0000F2000020F5000020F4000020F700002063
:103B1000F6000020F9000020F8000020FB00002043
:103B2000FA000020FD000020FC000020FF00002023
:103B3000FE0000200101002000010020AA2000203A
:103B400010B586B0044640F20740019000208DF881
:103B50000C008DF80D0008208DF80E0096480078B6
:103B60008DF80F00944841788DF8101081788DF809
:103B70001110C08A010A8DF812108F48817D8DF8CE
:103B80001310008A010A8DF814108B48017C8DF8FF
:103B90001510017F8DF8161001A9204601F058FC80
:103BA00006B010BD10B586B004464FF48160019098
:103BB00000208DF80C008DF80D0008208DF80E0007
:103BC0007D48408A000A8DF80F007B48817C8DF883
:103BD0001010808A010A8DF811107748017D8DF848
:103BE0001210008B010A8DF813107348017E8DF8B6
:103BF0001410408B01128DF815106F48817E8DF8DE
:103C0000161001A9204601F023FC06B010BD10B526
:103C100086B0044640F20940019000208DF80C0067
:103C20008DF80D0008208DF80E006348C068000E66
:103C30008DF80F006048C068010C8DF810105E48C8
:103C40008089010A8DF811105B48017B8DF81210F4
:103C500001468868097B000E40EA0120C1B28DF858
:103C6000131055498868097B000C40EA0140C1B235
:103C70008DF8141050490889097B000A40EA016058
:103C8000C1B28DF815104C48017A8DF8161001A9B3
:103C9000204601F0DDFB06B010BD2DE9FF5F2DEDE4
:103CA000020B2DED048B0C4615461E46B0EE408AE5
:103CB000F0EE608A14AF97E8800F3F4804704570BB
:103CC00086709FED3E0B53EC102B51EC180B03F05C
:103CD0000BFF04F03DF8384AC2E9020110460782A2
:103CE000A0F81280A0F81490A0F816A0A0F818B0C0
:103CF0001146199848831A9808770698FFF720FF0D
:103D00000698FFF74FFF0698FFF781FFBDEC048B85
:103D100006B0BDE8F09F0168A1F2074121B1012979
:103D20001AD0022946D133E0C17A234A1170017BAF
:103D30005170417B9170C27B817B42EA012109B2C3
:103D40001D4AD182427C017C42EA012109B21A4A11
:103D50001182817C11772DE0017BC27A41EA022138
:103D600009B2154A5182827B417B42EA012109B2A4
:103D7000114A9182027CC17B42EA012109B20E4ABA
:103D80001183827C417C42EA01210B4A518311E07C
:103D900000210943C27B41EA0262017C42EA0142FE
:103DA000417C42EA0121827C1143CA17024BC3E9DC
:103DB000021200BF00BF7047F82000200000000082
:103DC0000088C340F0B58BB004460D4616461F462A
:103DD0000121084602F09AFB0121480602F0DFFBB0
:103DE00009220B21964802F07EF909220C21944801
:103DF00002F079F94FF4C050099002208DF82800A4
:103E000009A98F4802F0E4F814208DF8040003207B
:103E10008DF8050001208DF806008DF8070001A837
:103E200001F019F9874801F081F906A801F0A2FA1A
:103E300000208DF81E0001208DF81F0000208DF855
:103E400020008DF821008DF822008DF823008DF8D8
:103E50001A708DF81B008DF81C508DF81D40ADF8C0
:103E6000186006A9774801F07AF900208DF8120051
:103E70008DF8130001208DF814000020ADF8080023
:103E8000ADF80A00ADF80C00ADF80E00ADF810006A
:103E900001208DF8150002A801F0EBF901220221A2
:103EA000684801F0E5FC0BB0F0BD10B50121654894
:103EB00001F046FD18B10121624801F0DCFD10BDA2
:103EC00000B585B002215F4801F03AFD88B10421B8
:103ED0005C4801F0D0FD5C495A4801F00EFD6A468D
:103EE0000021584801F0A9FB00BF6846FEF770FCAE
:103EF00000BF05B000BDF0B58BB004460D461646B8
:103F00001F460121022002F001FB0121880602F078
:103F100046FB09220C214D4802F0E5F809220D214B
:103F20004A4802F0E0F84FF44050029002208DF829
:103F30000C0002A9454802F04BF840208DF804001F
:103F400003208DF805008DF8060001208DF807008C
:103F500001A801F080F83F208DF8040003208DF8BF
:103F600005008DF8060001208DF8070001A801F07A
:103F700072F8374801F0DAF808A801F0FBF90020E0
:103F80008DF8260001208DF8270000208DF82800EC
:103F90008DF829008DF82A008DF82B008DF822006D
:103FA0008DF823008DF824508DF82540ADF8206061
:103FB00008A9274801F0D3F80E208DF81A00002038
:103FC0008DF81B0001208DF81C000020ADF81000BA
:103FD000ADF81200ADF81400ADF81600ADF81800F9
:103FE00001208DF81D0004A801F043F901220221EF
:103FF000174801F03DFC0BB0F0BD10B5012114488D
:1040000001F09EFC18B10121114801F034FD10BDF2
:1040100000B585B002210E4801F092FC68B1022182
:104020000B4801F028FD6A460021094801F005FB14
:1040300000BF6846FEF7DDFB00BF05B000BD000015
:10404000000002400064004008000032000402400A
:104050000068004010B596B004460121022002F02D
:1040600055FA0121880502F051FA0121102002F0D1
:10407000A7FA07221146FE4802F035F814A801F00D
:10408000EFFF8020149002208DF8540000208DF85E
:10409000550001208DF8570014A9F54801F098FF4C
:1040A000F44803F0D9F910A803F0A3FA1094002003
:1040B000ADF84400ADF846004FF48060ADF848001C
:1040C0000420ADF84A000020ADF84C0010A9E948E2
:1040D00003F029FA01224021E64803F059FBE648A3
:1040E00001F01CFD684601F0E4FD4FF00060009017
:1040F000E048001D0190E14802900020039040201C
:104100000490002005904FF48060069000200790F6
:1041100008904FF48070099000020A9000200B90E4
:104120000C900D900E906946D34801F099FD002245
:10413000D2494031D04801F0F4FD0121CE4801F0D0
:10414000FCFD0121CC4801F0C5FD25208DF83C0087
:1041500000208DF83D008DF83E0001208DF83F00D5
:104160000FA800F078FF012240F22441C14803F07B
:1041700018FB0121BF4803F05EFA16B010BD10B560
:1041800040F22441BB4803F047FB002852D0B94815
:104190000088B8488088B84801F0DFFD20BB0021C6
:1041A000B54801F097FDB649B34801F00CFEB2489E
:1041B00001F0B3FDC0F14000B24908604020AE49B3
:1041C000091D0860081F006840F40020091F0860EE
:1041D0000121A94801F07EFD00BFAA48008881B2F4
:1041E000A648FFF702FC25E00021A34801F072FD7C
:1041F000A349A14801F0E7FD9F4801F08EFDC0F101
:104200004000A049086040209B49091D0860081F24
:10421000006820F40020091F08600121964801F081
:1042200059FD00BF9748008881B294484030FFF79D
:10423000DCFB00BF10BD10B596B004460121084656
:1042400002F064F90121480502F060F901214804F7
:1042500002F0A5F9072202218B4801F044FF072252
:104260000321894801F03FFF14A801F0F9FE0C205A
:10427000149002208DF8540000208DF85500012084
:104280008DF8570014A9804801F0A2FE7F4803F082
:10429000E3F810A803F0ADF910940020ADF8440045
:1042A000ADF84600ADF848000C20ADF84A000020FB
:1042B000ADF84C0010A9754803F035F901224021F2
:1042C0006C4803F065FA724801F028FC684601F07A
:1042D000F0FC4FF0006000906C48001D01906D48AC
:1042E00002900020039064200490002005904FF479
:1042F000806006900020079008904FF4807009902D
:1043000000020A9000200B900C900D900E906946D0
:104310005F4801F0A5FC00225E4964315C4801F071
:1043200000FD01215A4801F008FD0121584801F023
:10433000D1FC26208DF83C0000208DF83D008DF842
:104340003E0001208DF83F000FA800F084FE0122FE
:1043500040F224414D4803F024FA01214B4803F078
:104360006AF916B010BD10B540F22441474803F079
:1043700053FA28B3454800884448001D00880021AE
:10438000434801F0A7FC4449414801F01CFD404866
:1043900001F0C3FCC0F164004049086064203C495E
:1043A000091D08603A488838D0F8880040F4002099
:1043B000091F08600121364801F08CFC00BF20E095
:1043C0000021334801F086FC3349314801F0FBFC01
:1043D0002F4801F0A2FCC0F164003049086064205D
:1043E0002B49091D08602A488838D0F8880020F435
:1043F0000020091F08600121254801F06BFC00BF67
:1044000000BF10BD10B596B004460121022002F095
:104410007DF80121880402F0C2F80121480502F06C
:1044200075F807220A21124801F05DFE07220B21D0
:104430000F4801F058FE02208DF8440003208DF84B
:10444000450000208DF8460001208DF847008002CD
:10445000109010A9064801F0BBFD4FF400601090C9
:1044600010A9034801F0B4FD27208DF8000017E0E3
:104470000004024000100140406402401821002066
:104480000000301004010020000002400044004001
:1044900088600240D8210020000C00200801002084
:1044A00002208DF8010001208DF802008DF8030034
:1044B000684600F0D0FD12940020ADF84C00ADF835
:1044C0004E00ADF85000ADF854000C20ADF852008D
:1044D00012A9FE4803F027F8012240F22441FB48CC
:1044E00003F05FF95021F94803F08DF9642005903D
:1044F00000200C900D900E9009904FF48060079072
:1045000080100A90F148001D029000200F90089042
:1045100006904FF400300B90800201900020049030
:10452000EB48039001A9EB4801F09AFB0121E9480F
:1045300001F0D0FB01224021E44803F029F90121D8
:10454000E24803F078F816B010BD10B540F22441EF
:10455000DE4803F061F9F8B1DC4803F09BF840F263
:104560002441DA4803F093F90021DA4801F0B2FB64
:1045700000224021D54803F00BF900BFD649D448AA
:10458000FEF79CF900BF01224021D04803F000F95A
:104590000121D04801F09EFB10BD10B596B0044635
:1045A0000121042001F0B2FF0121C80401F0F7FF4E
:1045B00008220A21C94801F096FD08220B21C748AC
:1045C00001F091FD0121480501F0A0FF4FF440608A
:1045D000109002208DF8440000208DF84600032042
:1045E0008DF8450001208DF8470010A9BB4801F067
:1045F000EFFC12940020ADF84C00ADF84E00ADF881
:1046000050000C20ADF852000020ADF8540012A963
:10461000B34802F088FF01224021B14803F0B8F806
:10462000AC48183001F07AFA684601F042FB4FF0CE
:1046300000600090AA48001D0190AA480290002046
:10464000039064200490002005904FF48060069051
:1046500000200790089009904FF480300A900020C5
:104660000B900C900D900E9069469A48183001F00E
:10467000F7FA01219748183001F02CFB34208DF80F
:104680003C0003208DF83D008DF83E0001208DF8A0
:104690003F000FA800F0DFFC01228021904803F0CA
:1046A00077F800218B48483001F014FB89484830E6
:1046B00001F034FA00BF8748483001F058FB002869
:1046C000F9D14FF0006000908548001D01908648A8
:1046D0000290402003900020049005904FF48060E9
:1046E000069000200790089009904FF480300A90BF
:1046F00000200B9003200C9000200D900E90694636
:104700007448483001F0ACFA0F208DF83C000320CB
:104710008DF83D008DF83E0001208DF83F000FA878
:1047200000F099FC012210216A48483001F05FFB3B
:10473000012240F224416A4803F033F8012168481D
:1047400002F079FF16B010BD10B5002440F22441EC
:10475000634803F061F808B3614800886048001DB1
:10476000008800215B48183001F0B4FA5F495948CD
:10477000183001F028FB5748183001F0CEFAC0F18C
:104780006400C4B200BF00BF64215248183001F079
:10479000C2FA01214F48183001F09CFA10BD70B5E3
:1047A00004460D462946204601F0B5FA012120466F
:1047B00001F090FA70BD10B54D494648483001F0FF
:1047C000E6FA48B100214348483001F083FA4849ED
:1047D0004048483001F0F7FA10BD70B50446002596
:1047E000414D05F8014B01213A484830FFF7D7FF0A
:1047F00070BD2DE9F04105460E46002400273A4FD2
:1048000000BF03E0285D3855601C84B2B442F9DB78
:10481000314630484830FFF7C2FFBDE8F08110B59F
:1048200096B004460121042001F070FE0121082009
:1048300001F06CFE0121080501F0B1FE01214805DF
:1048400001F064FE02208DF8540000208DF856001F
:104850004FF48050149001208DF8570003208DF8FC
:10486000550014A91D4801F0B3FB02208DF8540037
:1048700000208DF856000420149001208DF8570078
:1048800003208DF8550014A91A4801F0A1FB082255
:104890000C21124801F027FC08220221154801F0E2
:1048A00022FC10940020ADF84C000C20ADF84A001A
:1048B0000020ADF84800ADF84600ADF8440010A95E
:1048C0000D4802F030FE01210B4817E0004800407F
:1048D0000423002028600240101800200008024035
:1048E000004C004068230020CC2300200000301042
:1048F00020000020000C02400050004002F09BFE0F
:1049000001224021DD4802F043FF684601F0D1F961
:10491000DB4802904FF40070049080040090D74868
:10492000001D01900020039005904FF480600690D8
:1049300000200890079009904FF480300A900020E2
:104940000B900C900D900E906946CE4801F088F9BE
:104950000121CC4801F0BEF90022CB49C94801F041
:10496000E0F90121C74801F0E8F935208DF83C0055
:1049700001208DF83F008DF83D0002208DF83E00AB
:104980000FA800F068FB012240F22441BB4802F06E
:1049900008FF0121B94802F04EFE01228021B748EC
:1049A00002F0F6FE0021B748A83001F093F9B548AF
:1049B000A83001F0B3F800BFB248A83001F0D7F931
:1049C0000028F9D14FF000600090AC48001D019024
:1049D000AE480290402003904220049000200590B1
:1049E0004FF48060069000200790089009900A908C
:1049F0000B9003200C9000200D900E906946A1486A
:104A0000A83001F02DF901219E48A83001F062F98B
:104A10002F208DF83C0002208DF83D0001208DF8FC
:104A20003E008DF83F000FA800F015FB16B010BD3A
:104A300070B504460D460021204601F04BF900BF39
:104A4000204601F094F90028FAD12946204601F0C9
:104A500062F90121204601F03DF970BD10B540F228
:104A60002441864802F0D8FE002852D083480088AE
:104A700082488088834801F070F928BB0021814872
:104A800001F028F982497F4801F09DF97D4801F045
:104A900044F9C0F500707F4908604FF4007179480F
:104AA00001F039F94FF400227749764801F050F9C6
:104AB0000121744801F00EF900BF7648008881B2E8
:104AC0006F48FEF799FC24E000216E4801F002F9DE
:104AD0006F496C4801F077F96A4801F01EF9C0F59A
:104AE00000706C4908604FF40071664801F013F9DA
:104AF00000226349634801F02BF90121614801F06C
:104B0000E9F800BF6348008881B25F48FEF774FC93
:104B100000BF10BD00B597B00121042001F0F6FCE4
:104B20000121880501F0F2FC0121202001F048FD5F
:104B300008220621584801F0D6FA082207215648D3
:104B400001F0D1FAC020119002208DF84800002019
:104B50008DF84A0002208DF8490000208DF84B00A6
:104B600011A94D4801F034FA4C4802F075FC4C484C
:104B700013900020ADF85000ADF85200ADF854008D
:104B80000C20ADF856000020ADF8580013A943489A
:104B900002F0C9FC01224021404802F0F9FD4148E1
:104BA00000F0BCFF4FF0206001903C48001D0290D7
:104BB0003D4803900020049064200590002006905A
:104BC0004FF4806007900020089009900A904FF4FD
:104BD00080300B9000200C900D900E900F9001A94A
:104BE000304801F03DF801212E4801F073F84720CC
:104BF0008DF8400003208DF841008DF8420001201F
:104C00008DF8430010A800F026FA012240F224415A
:104C1000224802F0C6FD0121204802F00CFD17B029
:104C200000BD10B540F224411C4802F0F5FD18B358
:104C30001A4800881948001D00880021194801F011
:104C400049F81A49174801F0BEF8164801F065F80E
:104C5000C0F164001649086000BF08460278154993
:104C60001148FEF793F800BF64210E4801F053F895
:104C700001210C4801F02EF810BD0000005000404A
:104C80007224002010600240722600203024002090
:104C9000300000100C010020000802400014014008
:104CA000B0AA0E002864024072280020000C0010F8
:104CB00010010020101800200EB50121022001F083
:104CC0007FFC4FF0FF300190A720ADF800000020DE
:104CD000ADF80800ADF802000121D64801F082FECF
:104CE0006946D44801F013FE0121D24801F07AFE52
:104CF00000221146CF4801F047FE0121CD4801F0C6
:104D000059FE0121CB4801F08BFE0EBD1FB50121DC
:104D1000042001F044FC1C208DF8000000208DF8D8
:104D2000010002208DF8020001208DF80300684682
:104D300000F091F94FF0FF3002905320ADF80400DD
:104D40000020ADF80C00ADF806000121880701F045
:104D500049FE01A94FF0804001F0D9FD01218807EB
:104D600001F05EFE1FBD1FB50121022001F017FCFE
:104D70001D208DF8000000208DF8010002208DF824
:104D8000020001208DF80300684600F064F94FF03E
:104D9000FF300290A720ADF804000020ADF80C0011
:104DA000ADF806000121A44801F01CFE01A9A348AA
:104DB00001F0ADFD0121A04801F032FE01221146B3
:104DC0009D4802F045FA01219B4802F055FA1FBDAB
:104DD0001FB50121042001F0E2FB1E208DF8000028
:104DE00000208DF8010002208DF8020001208DF8CE
:104DF0000300684600F02FF94FF0FF300290A72023
:104E0000ADF804000020ADF80C00ADF8060001215B
:104E10008A4801F0E7FD01A9884801F078FD0121E9
:104E2000864801F0FDFD01221146844802F010FA87
:104E30000121824802F020FA1FBD1FB50121082080
:104E400001F0ADFB32208DF8000000208DF801004C
:104E500002208DF8020001208DF80300684600F062
:104E6000FAF84FF0FF300290A720ADF804000020C0
:104E7000ADF80C00ADF806000121714801F0B2FD5B
:104E800001A96F4801F043FD01216D4801F0C8FD03
:104E9000012211466A4802F0DBF90121684802F05C
:104EA000EBF91FBD10B50121880702F0E8F948B100
:104EB0000121880702F0F4F90121880702F0DCF9EA
:104EC00000BF00BF10BD10B501215B4802F0D7F94B
:104ED00038B10121584802F0E3F90121564802F0A7
:104EE000CBF910BD10B50121544802F0C8F948B102
:104EF0000121524802F0D4F90121504802F0BCF9D6
:104F000000BF00BF10BD10B501214D4802F0B7F938
:104F100048B101214A4802F0C3F90121484802F092
:104F2000ABF900BF00BF10BD1FB50121102001F07B
:104F300036FB36208DF8000003208DF8010002209A
:104F40008DF8020001208DF80300684600F083F818
:104F50005320ADF804000020ADF80600ADF80C00B9
:104F600040F2E730029001A9364801F0D0FC01215F
:104F7000344801F055FD01221146324802F068F92B
:104F80000121304802F078F91FBD1FB50121102022
:104F900001F005FB37208DF8000003208DF801009B
:104FA00002208DF8020001208DF80300684600F011
:104FB00052F85320ADF804000020ADF80600ADF81B
:104FC0000C0040F2E730029001A91F4801F09FFC5D
:104FD00001211D4801F024FD012211461A4802F06A
:104FE00037F90121184802F047F91FBD10B501211A
:104FF000144802F044F958B10121124802F050F966
:105000000121104802F038F900BFFBF735FA00BF64
:1050100010BD10B501210C4802F031F948B1012151
:10502000094802F03DF90121074802F025F900BFC7
:1050300000BF10BD00040140000400400008004013
:10504000000C0040001000400014004032490143B1
:10505000324A1160704770B5002100230F22C478D6
:105060001CB32E4C246804F4E064C4F5E064C4F37B
:105070000721C1F10404E3B20A4144789C40E1B243
:105080008478144021430C07210E254C0578615586
:10509000047804F01F050124AC4005786D11AD00C3
:1050A00005F1E025C5F8004109E0047804F01F058A
:1050B0000124AC401B4D0678761145F8264070BDA2
:1050C000194A0A400243154B1B1F1A60704739B139
:1050D000124A121D12680243104B1B1D1A6006E093
:1050E0000E4A121D126882430C4B1B1D1A6070473A
:1050F000042808D14FF0E021096941F004014FF084
:10510000E022116107E04FF0E021096921F004017C
:105110004FF0E022116170470000FA050CED00E04D
:1051200000E400E080E100E080FFFF1F10B50446CE
:10513000FE48844209D10121480601F085FA002188
:105140004FF0007001F080FA08E00121880601F0BC
:105150007BFA00214FF0806001F076FA10BD30B587
:10516000024600200023146824F00204146014682E
:1051700044F00104146000E05B1C546804F0010476
:105180001CB94FF6FF74A342F6D1546804F0010431
:105190000CB900206CE08C79012C04D1146844F027
:1051A0008004146003E0146824F080041460CC7957
:1051B000012C04D1146844F04004146003E0146826
:1051C00024F0400414600C7A012C04D1146844F0DB
:1051D0002004146003E0146824F0200414604C7A66
:1051E000012C04D1146844F01004146003E0146826
:1051F00024F0100414608C7A012C04D1146844F05B
:105200000804146003E0146824F008041460CC7AE5
:10521000012C04D1146844F00404146003E0146801
:1052200024F0040414608C78A407CD7844EA056463
:105230000D7944EA05444D7944EA05540D886D1E04
:105240002C43D461146824F001041460002300E0AE
:105250005B1C546804F001041CB14FF6FF74A342B8
:10526000F6D1546804F001040CB1002000E00120E4
:1052700030BD10B50021837A012202FA03F1AC4A55
:10528000126842F00102AA4B1A60A94A1C32126845
:105290008A43A74B1C331A60027BCAB9A44A0C325A
:1052A00012688A43A24B0C331A604288C38842EAD0
:1052B00003439F4A4032847A42F83430028883881C
:1052C00042EA03439A4A4032847A02EBC4025360B2
:1052D000027B012A19D1964A0C3212680A43944B78
:1052E0000C331A604288038842EA0343904A4032F2
:1052F000847A42F83430C288838842EA03438C4A75
:105300004032847A02EBC4025360C27A3AB9884AC6
:10531000121D12688A43864B1B1D1A6006E0844AE0
:10532000121D12680A43824B1B1D1A60028932B992
:105330007F4A143212688A437D4B14331A60028903
:10534000012A06D17A4A143212680A43784B143380
:105350001A60427B012A06D1754A1C3212680A4340
:10536000734B1C331A60724A126822F00102704BB0
:105370001A6010BD00218171C17101724172817288
:10538000C1728170C170032101710221417101213B
:10539000018070476649096841F00101644A116063
:1053A0001146096843F60E729143614A1160114635
:1053B000096841EA002111601146096821F00101E4
:1053C0001160704721B1026842F48032026003E04C
:1053D000026822F4803202607047E1B1026842F054
:1053E000800202604FF4C272125842F480734FF48C
:1053F000C27213504FF4CA72125842F480734FF4C1
:10540000CA7213504FF4D272125842F480734FF4A0
:10541000D27213501BE0026822F0800202604FF447
:10542000C272125822F480734FF4C27213504FF4B8
:10543000CA72125822F480734FF4CA7213504FF498
:10544000D272125822F480734FF4D2721350704704
:1054500010B502460020936803F08063B3F1806FBB
:1054600000D110E0936803F00063B3F1006F01D145
:10547000012008E0936803F08053B3F1805F01D10D
:10548000022000E00420042879D002F5C07303EB69
:1054900000131B6803F0010402F5C07303EB001353
:1054A0001C600B7A7BB94B7A0C8843EA445302F5B3
:1054B000C07404EB00142468234302F5C07404EBA9
:1054C0000014236010E00B7A4C6843EAC4034C7A62
:1054D000234302F5C07404EB00142468234302F54F
:1054E000C07404EB001423608B7A03F00F038B72FB
:1054F00002F5C07303EB00135B6823F00F0402F5A1
:10550000C07303EB00135C6002F5C07303EB001380
:105510005B688C7A234302F5C07404EB001463606B
:105520008B7B1C064B7B44EA034403E00064004091
:10553000006600400B7B44EA0323CC7A234302F548
:10554000C07404EB0014A3608B7C1C064B7C44EA03
:1055500003440B7C44EA0323CC7B234302F5C07451
:1055600004EB0014E36002F5C07303EB00131B6847
:1055700043F0010402F5C07303EB00131C6010BD7F
:1055800010B50246002321B1012907D002290FD10D
:1055900009E09068F94C00EA04030BE09068F84CCD
:1055A00000EA040306E09068F64C00EA040301E018
:1055B000002300BF00BFF44C181BA34216D007DC29
:1055C00083B16FF08060184470B1022818D111E0E7
:1055D000B0F5007F10D0ED4C204448B1B0F5003F4D
:1055E0000ED10BE002230DE000230BE0002309E0C5
:1055F000002307E0012305E0012303E0012301E08C
:10560000002300BF00BFD8B210BD21B1012907D0CF
:1056100002290FD109E0826842F0800282600AE02C
:10562000826842F40042826005E0826842F400022F
:10563000826000E000BF00BF704710B500F5D8736E
:1056400003EB01131B6803F004031372137A53B9BD
:1056500000F5D87303EB01131B6840F2FF7404EAF2
:105660005353136009E000F5D87303EB01131B6873
:105670006FF0604404EAD303536000F5D87303EB82
:1056800001131B6803F00203537200F5D87303EB98
:1056900001135B6803F00F03937200F5D87303EBFB
:1056A00001135B681B0AD37400F5D87303EB011375
:1056B0009B68D37200F5D87303EB01139B681C0A37
:1056C000147300F5D87303EB01139B681C0C54731F
:1056D00000F5D87303EB01139B681B0E937300F561
:1056E000D87303EB0113DB68D37300F5D87303EBB6
:1056F0000113DB681C0A147400F5D87303EB011363
:10570000DB681C0C547400F5D87303EB0113DB68E1
:105710001B0E937421B9C36843F02003C36003E0F8
:10572000036943F02003036110BD21B9C26842F050
:105730002002C26003E0026942F020020261704769
:105740000246002019B9D36803F0030006E00129DE
:1057500003D1136903F0030000E00020704710B587
:1057600002460B4600204FF6FF71BBB9146824F0C7
:10577000020444F00104146000E0491E546804F07F
:105780000304012C01D00029F7D1546804F003046C
:10579000012C01D0002032E0012030E0012B13D198
:1057A000146824F00304146000E0491E546804F0F7
:1057B00003040CB10029F8D1546804F003040CB1BF
:1057C00000201CE001201AE0022B17D1146824F0FD
:1057D000010444F00204146000E0491E546804F01F
:1057E0000304022C01D00029F7D1546804F003040B
:1057F000022C01D0002002E0012000E0002010BDBA
:10580000014600200A6822F0010242F002020A600A
:105810004A6802F00302022A00D1012070470146C3
:105820004FF6FF7200200B6823F002030B6000E0CC
:10583000521E4B6803F00203022B01D1002AF7D15C
:105840004B6803F00203022B00D001207047014691
:1058500000208A6902F070007047014600208A69C2
:10586000100E7047014600208A69C2F30740704756
:105870001AB143690B43436102E043698B434361BF
:10588000704710B50246002001F4700343B19369DC
:10589000C1F3130423400BB101202DE000202BE0C5
:1058A00001F0807343B15368C1F3130423400BB17B
:1058B000012021E000201FE001F0006343B1936864
:1058C000C1F3130423400BB1012015E0002013E0C5
:1058D00001F0007343B1D368C1F3130423400BB14B
:1058E000012009E0002007E01369C1F313042340FD
:1058F0000BB1012000E0002010BD0022244B994292
:1059000002D10023836111E0C1F3130201F000739F
:105910000BB1C2600AE001F080630BB1026105E0E7
:1059200001F000630BB1826000E042607047024604
:10593000002002EA01030BB1012000E000207047C3
:1059400070B504460D46002660692840002872D0D4
:10595000B5F5807F69D01DDC082D42D006DC012D15
:105960002DD0022D31D0042D7FD134E0102D3ED02A
:10597000202D42D0402D78D145E0000003000004E6
:105980000003000800000310000100080001FFF7F9
:105990007000F030B5F5004F61D009DCB5F5007F3F
:1059A0004AD0B5F5806F4DD0B5F5006F5DD150E0B0
:1059B000B5F5803F2DD0B5F5003F56D12FE0A0685A
:1059C0005549FFF7B4FF064651E0E0680321FFF7B1
:1059D000AEFF06464BE0E0680821FFF7A8FF064649
:1059E00045E0E0681021FFF7A2FF06463FE020698E
:1059F0000321FFF79CFF064639E020690821FFF7E5
:105A000096FF064633E020691021FFF790FF064617
:105A10002DE060680821FFF78AFF064627E06068EE
:105A20001021FFF784FF064621E0A0690121FFF75E
:105A30007EFF06461BE01BE0A0690221FFF777FF0F
:105A4000064614E0A0690421FFF771FF06460EE048
:105A50000BE0A0697021FFF76AFF064607E0606867
:105A60000421FFF764FF064601E0002600BF00E0C6
:105A70000026304670BDB1F5007F3AD00FDC2029FA
:105A800028D006DC01291CD004291DD0082940D1CA
:105A90001DE0402921D0B1F5807F3AD126E0B1F553
:105AA000004F31D006DCB1F5806F25D0B1F5006F25
:105AB0002FD124E0B1F5803F12D0B1F5003F28D1BD
:105AC00011E0154A826025E00822C26022E010221F
:105AD000C2601FE0082202611CE01022026119E08E
