:020000040800F2
:1000000080350020F57A0008A9010008AB0100083E
:10001000AF010008B3010008B701000800000000AC
:10002000000000000000000000000000BB0100080C
:10003000BD01000800000000BF010008C101000868
:100040000F7B00080F7B00080F7B00080F7B000868
:100050000F7B00080F7B00080F7B00080F7B000858
:100060000F7B00080F7B00080F7B00080F7B000848
:100070000F7B00080F7B00080F7B0008094D00086C
:100080000F7B00080F7B00080F7B00080F4400085F
:10009000254400080F7B00080F7B00080F7B000839
:1000A0000F7B00080F7B00080F7B00080F7B000808
:1000B0000F7B00080F7B00080F7B00080F7B0008F8
:1000C0000F7B00080F7B00080F7B00080F7B0008E8
:1000D0000F7B0008C7460008B74800089D4A000883
:1000E0000F7B00080F7B00080F7B00080F7B0008C8
:1000F0000F7B00080F7B00080F7B00080F7B0008B8
:100100000F7B00080F7B00080F7B00080F7B0008A7
:100110009B4C0008B14F00086B5200080F7B000891
:100120000F7B00080F7B00080F7B00080F7B000887
:100130000F7B00080F7B00080F7B00084545000877
:100140005B4500080F7B00080F7B00080F7B000851
:100150000F7B00080F7B00080F7B00087951000817
:100160000F7B00080F7B00080F7B00080F7B000847
:100170000F7B00080F7B00080F7B00080F7B000837
:100180000F7B00080F7B0008DFF80CD008F074F834
:10019000004800479D0100088035002000F01AF952
:1001A00000F061F900BFFEE7704700BFFEE700BF47
:1001B000FEE700BFFEE700BFFEE7704770477047ED
:1001C000704700000CB50020019000907648006850
:1001D00040F480307449086000BF7348006800F440
:1001E000003000900198401C0190009818B90198C7
:1001F000B0F5A06FF1D16C48006800F4003010B188
:100200000120009001E0002000900098012846D1D4
:1002100065484030006840F08050634940310860D4
:100220006248006840F44040604908605E48083019
:1002300000685D49083108600846006840F40040E5
:1002400008600846006840F4A05008605848091F3C
:100250000860081F006840F08070091F086000BF38
:100260005148006800F000700028F9D040F2057095
:10027000504908604C480830006820F003004A49A3
:10028000083108600846006840F00200086000BFBE
:1002900045480830006800F00C000828F8D10CBD73
:1002A00010B54548006840F47000434908603E4876
:1002B000006840F001003C49086000203A490831DC
:1002C0000860394800683D490840374908603C48A3
:1002D000091D0860081F006820F48020091F0860BD
:1002E000002031490C310860FFF76CFF4FF00060CF
:1002F00031498039086010BD70B50020002202230A
:1003000000240221284D08352D6805F00C0020B18D
:10031000042806D0082834D107E02A4D2A4E35603B
:1003200033E02A4D284E35602FE01F4D2D1D2D68DE
:10033000C5F380541C4D2D1D2D6805F03F0154B1AF
:10034000224DB5FBF1F5184E361D3668C6F38816FA
:1003500005FB06F209E01B4DB5FBF1F5124E361D0B
:100360003668C6F3881605FB06F20F4D2D1D2D6865
:10037000C5F301456D1C6B00B2FBF3F5124E356001
:1003800003E0104D104E356000BF00BF064D08352C
:100390002D68C5F303150E4E705D0B4D2D68C540DD
:1003A000094E356070BD000000380240007000400A
:1003B00008544007003C024088ED00E0FFFFF6FED5
:1003C000103000240024F4000000002000127A0005
:1003D0000400002010B54FF4A06004F05BFF124849
:1003E00004F0DCF84FF4E13004F0CDF94FF4612073
:1003F00004F0B0FA4FF4E13004F078FB4FF4E13050
:1004000004F0B6FC04F030FE00230322082110465D
:1004100003F076FF002303220821104604F01DF8A4
:1004200004F0F2FE10BD0000A086010010B51148D6
:100430000068401C0F490860084600680A2190FBCC
:10044000F1F201FB120008B902F04DFA09490868FF
:1004500000EBD0714910A0EB410119B900F09CFCF0
:1004600002F02FFD10BD10B500F006F801F084F881
:1004700010BD00001400002010B540F25471FE4879
:1004800007F092FBBAEE041ADFEDFC0ABBEE040A99
:100490000A234FF47A720321F748803002F067FC98
:1004A0009FEDF71ADFEDF70AB2EE080A6423DA00CF
:1004B0000321F54802F05BFCB2EE041ADFEDF30A0B
:1004C000B2EE0A0A142340F6B8320321EA48343067
:1004D00002F04DFC9FEDEB1AF6EE000AB2EE080AB0
:1004E00032234FF4FA620321E7484C3802F03FFC14
:1004F0009FEDE71ADFEDE70AB1EE040A14234FF48B
:10050000C8720321E048983002F031FCB0EE001AC6
:10051000DFEDE10AB0EE000A32234FF47A720321D4
:10052000DE4802F024FCB2EE041ADFEDD80AB2EE87
:100530000A0A142340F6B8320321D3484C3002F0A3
:1005400016FC9FEDD01AF6EE000AB2EE080A32232E
:100550004FF4FA620321D1484C3802F008FCBAEE9D
:10056000041ADFEDC60ABBEE040A0A234FF47A72BE
:100570000321CB4802F0FBFB9FEDC11ADFEDC10A5E
:10058000B2EE080A6423DA000321C5484C3002F0B9
:10059000EEFBB2EE041ADFEDBD0AB2EE0A0A142336
:1005A00040F6B8320321B8484C3002F0E0FB9FED32
:1005B000B51AF6EE000AB2EE080A32234FF4FA62D8
:1005C0000321B6484C3802F0D2FBB0EE001ADFED42
:1005D000B10AB7EE080A6423C8220321AF48983055
:1005E00002F0C5FBB0EE001ADFEDAB0AB0EE000A78
:1005F00032234FF4FA720321AA4802F0B8FBB0EE9E
:10060000001ADFEDA90AB3EE010A142340F6B8324E
:100610000321A2484C3002F0AAFB9FEDA41ADFEDA3
:10062000A20AB3EE030A32234FF4FA6203219D4873
:100630004C3802F09CFB10BD10B52DED028B8E489E
:1006400040780D281DD09A4890ED121BB0EE410A5B
:10065000F0EE610A51EC100B81F0004141EC180BF7
:1006600007F0B6FC8449C862924890ED121BB0EEC8
:10067000410AF0EE610A51EC100B07F0A9FC7E492B
:1006800088628C4890ED121BB0EE410AF0EE610AD0
:1006900051EC100B07F09CFC77490861844890ED01
:1006A000121BB0EE410AF0EE610A51EC100B81F022
:1006B000004141EC180B07F08BFC6F49C8607E4885
:1006C00090ED050AB1EE400A084680ED080A7A4826
:1006D00090ED040A084680ED070A7848407D00281E
:1006E0007DD07748807BA0B3734890ED020AB1EECD
:1006F000400A084680ED040A6F4890ED010A08465A
:1007000080ED030A6C4890ED050AB1EE400A0846F8
:1007100080ED080A684890ED040A084680ED070A53
:10072000674890ED010A084680ED020A644890EDA2
:10073000000A084680ED010A90ED020AFBEE090A64
:10074000B4EEE00AF1EE10FA04D8BBEE090A80ED2F
:10075000020A0DE0484890ED020AF3EE0E0AB4EEEC
:10076000E00AF1EE10FA03DBB3EE0E0A80ED020AA6
:10077000534890ED062AF0EE421A3F4890ED072AC2
:10078000B0EE421A90ED032AF0EE420A90ED012AF3
:10079000B0EE420A00F1140200F5BB6100F2F44031
:1007A00002F023FBFFEE000A20EE200ABDEEC00A95
:1007B00010EE100A01B230488184D0ED081AB0EE74
:1007C000611AD0ED041AF0EE610AD0ED021AB0EE13
:1007D000610ADFED2C1A00F11802304900E00FE049
:1007E00000F5D87002F001FBF7EE000A20EE200AB7
:1007F000BDEEC00A10EE100A01B21F48C18470E0BD
:100800001D4890ED0A0A80ED020A90ED0B0A80ED7A
:10081000010AD0ED071AB0EE611AD0ED031AF0EE1E
:10082000610AD0ED011AB0EE610ADFED161A00F18F
:10083000140200F54B7100F5257002F0D6FAFFEEB8
:10084000000A20EE200ABDEEC00A10EE100A01B226
:1008500009488184D0ED081AB0EE611AD0ED041A6F
:10086000F0EE610AD0ED021AB0EE610ADFED051A72
:1008700000F118020B4925E078010020CDCCCCBD59
:100880000000484200000000900200209A99193EA2
:10089000000020420AD7A33C0AD7233CC003002013
:1008A000B8060020F0040020CDCCCC3D3333F33F1C
:1008B00048240020F0230020881F0020A8290020C1
:1008C000BC28002000F5387002F08FFAF7EE000A1D
:1008D00020EE200ABDEEC00A10EE100A01B2FE485A
:1008E000C184BDEC028B10BD10B5FB4840780328D5
:1008F00012D0FA4890ED010AF74880ED0B0AF8484B
:1009000090ED121BB0EE410AF0EE610A51EC100BB3
:1009100007F05EFBF0498862F14890ED121BB0EEE3
:10092000410AF0EE610A51EC100B07F051FBEA4965
:100930000861EA4890ED010A084680ED030AE7489D
:1009400090ED050AB1EE400A084680ED080AE3483A
:1009500090ED040A084680ED070AE248407D002831
:100960007ED0E148807BA0B3DC4890ED020AB1EE76
:10097000400A084680ED040AD84890ED010A08466E
:1009800080ED030AD54890ED050AB1EE400A08460D
:1009900080ED080AD14890ED040A084680ED070A68
:1009A000D14890ED010A084680ED020ACE4890ED4C
:1009B000000A084680ED010A90ED020AFBEE090AE2
:1009C000B4EEE00AF1EE10FA04D8BBEE090A80EDAD
:1009D000020A0DE0C04890ED020AF3EE0E0AB4EEF2
:1009E000E00AF1EE10FA03DBB3EE0E0A80ED020A24
:1009F000BD4890ED062AF0EE421AB74890ED072A5E
:100A0000B0EE421A90ED032AF0EE420A90ED012A70
:100A1000B0EE420A00F1140200F5BB6100F2F440AE
:100A200002F0E3F9FFEE000A20EE200ABDEEC00A54
:100A300010EE100A01B2A8488184D0ED081AB0EE79
:100A4000611AD0ED041AF0EE610AD0ED021AB0EE90
:100A5000610A5FED741A00F1180200F5127100E0EE
:100A60000FE000F5D87002F0C0F9F7EE000A20EEB2
:100A7000200ABDEEC00A10EE100A01B29648C184E9
:100A80004AE0954890ED0A0A80ED020A90ED0B0AC3
:100A900080ED010AD0ED071AB0EE611AD0ED031A0D
:100AA000F0EE610AD0ED011AB0EE610A5FED8B1A2B
:100AB00000F1140200F5FE7100F5B27002F095F934
:100AC000FFEE000A20EE200ABDEEC00A10EE100A6A
:100AD00001B281488184D0ED081AB0EE611AD0EDE0
:100AE000041AF0EE610AD0ED021AB0EE610A5FED71
:100AF0009B1A00F1180200F5127100F5D87002F08F
:100B000074F9F7EE000A20EE200ABDEEC00A10EEDE
:100B1000100A01B27048C18410BD10B52DED048BD0
:100B20000020724908707249087000BF1FEDAB0ABF
:100B3000694880ED020A694890ED020AB1EE400A68
:100B4000654880ED040A1FEDB10A80ED010A69488D
:100B500090ED121BB0EE410AF0EE610A51EC100B61
:100B600081F0004107F034FA5B49C8605B4890EDC2
:100B7000040A084680ED070A584890ED050AB1EED0
:100B8000400A084680ED080A90ED030ADFED5A0A94
:100B900080EE201ABDEEC10A10EE104A4FF4B47177
:100BA00004FB01F000EE100AB8EEC00A4A4880EDDE
:100BB000010A90ED010AD0ED030A30EE600ADFED84
:100BC0004F0AB4EEE00AF1EE10FA08DB90ED010AEC
:100BD000DFED490A30EE600A80ED010A15E03E487B
:100BE00090ED010AD0ED030A30EE600ADFED440A11
:100BF000B4EEE00AF1EE10FA07D290ED010ADFED53
:100C00003E0A30EE200A80ED010A3348D0ED071A83
:100C1000B0EE611AD0ED031AF0EE610AD0ED011AC0
:100C2000B0EE610A5FEDE91A00F1140200F1CC01A7
:100C3000343002F0DAF8FFEE000A20EE200ABDEEB2
:100C4000C00A10EE100A01B223488184D0ED081AC0
:100C5000B0EE611AD0ED041AF0EE610AD0ED021A7E
:100C6000B0EE610A5FEDF91A00F1180200F58C711F
:100C7000803002F0BAF8F7EE000A20EE200ABDEE4E
:100C8000C00A10EE100A01B21348C18490ED020AA6
:100C9000D0ED040A30EE600A10EE101A084607F094
:100CA00054F941EC190BB0EE490AF0EE690A07F06D
:100CB000DBFBB0EE408AF0EE608A9FED120B53EC46
:100CC000102B51EC180B07F053F962D8024890ED45
:100CD000010AD0ED030A19E078010020881F0020E6
:100CE000F0230020A8290020BC2800204C00002070
:100CF0004D000020482400200000B443000035438C
:100D0000000033C3000000000000104030EE600A15
:100D100010EE101A084607F018F941EC190BB0EE66
:100D2000490AF0EE690A07F09FFBB0EE408AF0EE48
:100D3000608A9FED3C0B53EC102B51EC180B07F025
:100D400017F926D80120394981F83000384890ED4C
:100D5000121BB0EE410AF0EE610A51EC100B07F0E5
:100D600037F934490860084690ED000A3248D0ED62
:100D7000000A30EE200A314880ED000A084690ED66
:100D8000000A2F48D0ED000A30EE200A2D4880EDF1
:100D9000000ABDEC048B10BD10B52448007830B1BA
:100DA00001280ED003280FD00D2813D10FE02421E5
:100DB0001E48001D06F0F8FE00201C4981F8300096
:100DC00009E0FFF7AAFE06E0FFF78EFD03E0FFF75C
:100DD00033FC00E000BF00BF144890ED020A194840
:100DE000D0ED000AB4EEE00AF1EE10FA05D890ED6D
:100DF000000A0E4880ED020A0FE00C4890ED020A4E
:100E00000E48D0ED000AB4EEE00AF1EE10FA04DB71
:100E100090ED000A054880ED020A04480078034975
:100E2000487010BD000000000000F83F780100206D
:100E3000F023002020000020280000201C000020BB
:100E4000240000201800002010B52DED048BFE4872
:100E50000078FE490870FE48807EFB49087008460D
:100E60000078FA490978884206D00020F9490870CC
:100E70004870F94908734873F548807E012804D00A
:100E800002287DD003287CD1C5E0F24800780128F3
:100E900029D0EF48B0F90200A0F5806000EE100AFA
:100EA000B8EEC00AF7EE080A20EE200ABDEEC00A2E
:100EB00010EE100A00B2E849A1F80F00E448B0F9BA
:100EC0000000A0F5806000EE100AB8EEC00AF7EE50
:100ED000080A20EE200ABDEEC00A10EE100A01B288
:100EE000DD48A0F81110DB480078032844D1D94828
:100EF00090ED0A0AD648B0F90600A0F5806000EE31
:100F0000900AF8EEE00A9FEDD51A00EE810AD1486A
:100F100080ED0A0A90ED0B0ACD48B0F90400A0F567
:100F2000806000EE900AF8EEE00A9FEDCD1A00EE28
:100F3000810AC84880ED0B0A90ED0A0AC948D0ED35
:100F4000000AB4EEE00AF1EE10FA05D890ED000ABE
:100F5000C04880ED0A0A0FE0BE4890ED0A0AC24878
:100F6000D0ED000AB4EEE00AF1EE10FA04DB90EDE9
:100F7000000AB84880ED0A0AB6480078012801E066
:100F8000C9E2CEE207D0B34800780C2803D0B148BC
:100F900000780B2802D10120AF490873AD480078D2
:100FA000012809D0AA48807E022805D0A9484078A7
:100FB00010B90320A7490870A648407840B9A54851
:100FC000007828B10120A3490870002081F8300082
:100FD000A0480078032803D101209F4981F84400EC
:100FE0009C4890F83000012814D1032099490870DA
:100FF0009748807F38B10720974908737821964831
:10100000A0F8131006E000219348A0F81310032065
:101010009149087386E28F480078012878D08C487F
:1010200090F82C0038B103208B4988734FF4C860C6
:101030008E49088006E002208749887340F2262006
:101040008A490880824890F8280030B18748B0F972
:1010500000008149A1F80F000FE07D4890F82A00B8
:1010600038B182480088404200B27B49A1F80F00A5
:1010700003E000207849A1F80F00754890F8290096
:10108000B8B17548807B03280BD17849B1F90010BD
:10109000484200EBD07149100AB26F49A1F8112003
:1010A00024E072480088404201B26B48A0F8111059
:1010B0001CE0674890F82B00A0B16748807B0328AC
:1010C00009D16A49B1F9000000EBD0714910624AB8
:1010D000A2F811100AE06548B0F900105E48A0F8C7
:1010E000111003E000215C48A0F811105948007865
:1010F00003286DD15648407DE8BB5548B0F90C0037
:1011000010F1640F05DC6FF063005149888108E03D
:10111000B8E14F48B0F90C00642802DB64204C4968
:1011200088814B48B0F90E0010F1640F04DC6FF0B9
:1011300063014748C18107E04548B0F90E006428C3
:1011400002DB64214248C181424890ED0B0A4048CD
:10115000B0F90C0000EE900AF8EEE00A9FED441A98
:1011600000EE810A3B4880ED0B0A90ED0A0A3848F0
:10117000B0F90E0000E02BE000EE900AF8EEE00A75
:101180009FED3C1A00EEC10A324880ED0A0A90ED4C
:101190000A0A3448D0ED000AB4EEE00AF1EE10FA83
:1011A00005D890ED000A2B4880ED0A0A6AE129482B
:1011B00090ED0A0A2C48D0ED000AB4EEE00AF1EEF8
:1011C00010FAF3DB90ED000A224880ED0A0A59E19B
:1011D000204800780D28E9D11D48407D0028E5D140
:1011E0001B4890F82800E0B123480078C8B118489F
:1011F00090F82C0048B1174890ED0A0ADFED1F0A5D
:1012000030EE200A80ED0A0A08E0124890ED0A0A42
:10121000F2EE0E0A30EE200A80ED0A0A002016498E
:1012200008700B4890F82A0060B31548007848B35E
:10123000074890F82C0030B3064890ED0A0ADFED1D
:101240000F0A30EE600A1FE05A0000205B00002009
:10125000A82900207801002030090020CDCCCC3D09
:101260006F12033C180000201C00002058000020D2
:101270008FC2753D0AD7233D5C0000200000484224
:10128000640000200FE002E080ED0A0A08E0A948AF
:1012900090ED0A0AF2EE0E0A30EE600A80ED0A0ABC
:1012A0000020A5490870A54890F82900B0B3A448CB
:1012B000007898B3A14890F82C00B0B19D4890ED0B
:1012C0000B0A10EE101A084606F03FFE41EC190B0F
:1012D0009FED9C0B53EC102B06F024FD41EC180BFA
:1012E00006F076FE9349C86215E0924890ED0A0A2E
:1012F00010EE101A084606F028FE41EC190B9FED7F
:10130000930B53EC102B06F00DFD41EC180B06F07F
:101310005FFE88498862002089490870874890F8F4
:101320002B00B0B38B48007898B3844890F82C0019
:10133000B0B1804890ED0B0A10EE101A084606F086
:1013400004FE41EC190B9FED7F0B53EC102B06F0C4
:1013500048FC41EC180B06F03BFE7649C86215E0EC
:10136000744890ED0A0A10EE101A084606F0EDFDDA
:1013700041EC190B9FED750B53EC102B06F031FC73
:1013800041EC180B06F024FE6A498862002071497E
:1013900008707148007828B970480068401C6F498F
:1013A000086002E000206D4908606C48006814285D
:1013B00005D10120684908700020684908605E482E
:1013C000007828B966480068401C6549086002E05A
:1013D00000206349086062480068142805D1012094
:1013E0005549087000205E4908605548007828B9C2
:1013F0005C480068401C5B49086002E000205949D5
:10140000086058480068142805D101204C4908702C
:101410000020544908604F48007828B952480068B5
:10142000401C5149086002E000204F4908604E48C6
:101430000068142805D101204649087000204A4957
:1014400008603C4890ED0A0A4848D0ED000AB4EE26
:10145000E00AF1EE10FA05D890ED000A354880ED6B
:101460000A0A0FE0334890ED0A0A4148D0ED000A1D
:10147000B4EEE00AF1EE10FA04DB90ED000A2D481C
:1014800080ED0A0A2B480078012803D0294800780B
:101490000D2802D101203749087326480078012819
:1014A00009D02648807E022805D02248407810B90D
:1014B0000320204908701F48407840B91D48007833
:1014C00028B101201B490870002081F8300019481C
:1014D0000078032803D10120264981F844001548EB
:1014E00090F83000012815D1144890F83F0018B149
:1014F0000D201049087002E003200E4908700F48C3
:1015000090F83E0018B107201A49087302E0032042
:101510001849087306E00020064908701549087349
:1015200000E000BF00BF1348007B12494873BDECC8
:10153000048B10BD7801002064000020A829002041
:101540006C000020000000000000E03F9A9999998B
:101550009999C93F740000205C00002060000020C1
:101560006800002070000020780000201800002093
:101570001C0000203009002010B5A821FE4806F00C
:1015800013FB0120FC490873002048730864FB49E1
:101590000870B1EE041ADFEDFA0AB2EE000A0A236F
:1015A0004FF4FA520321F74801F0E1FBB2EE041ABE
:1015B000DFEDF30A9FEDF40A4FF4FA7343F6982235
:1015C0000321F24801F0D3FBB1EE041ADFEDEC0A7F
:1015D000B2EE000A0A234FF4FA520321E9484C30D4
:1015E00001F0C5FBB1EE001ADFEDE50A9FEDE80A58
:1015F0004FF4FA7343F698220321E4484C3001F08B
:10160000B6FBB1EE001ADFEDDE0AB2EE000A0A23E5
:101610004FF4FA520321DB48983001F0A8FBB2EEF8
:10162000001AF6EE000A9FEDDB0A4FF4FA7343F658
:1016300098220321D548983001F099FBB1EE001AA9
:10164000DFEDD50AB2EE020A0A234FF4FA52032163
:10165000CC48E43001F08BFBB2EE0E1ADFEDC80A85
:101660009FEDCC0A4FF4FA7343F698220321C74842
:10167000E43001F07CFB002413E004EB440101EBB7
:101680000411C64A02EB8100B3EE041ADFEDC40A6E
:101690009FEDC40A64234FF47A52032101F067FBE3
:1016A000641C042CE9DBB0EE081ADFEDBF0AB0EED3
:1016B000000A1E234FF4E1720321BC4801F057FBDE
:1016C00010BDF0EE400A0020B949B1F85120B1F840
:1016D0005C10491F02EB4100002801DC002004E0FF
:1016E000B0F5AF7F01DB4FF4AF70B7EE000AB14940
:1016F00081ED000A00EE100AB8EEC00A704700B58E
:101700002DED0A8B89B0B0EE409A002021E000EB6D
:10171000400101EB0011A14A02EB810191ED000AA9
:1017200000EB400101EB001102EB8101D1ED020A57
:1017300070EE200AA04931F9101000EE101AB8EE30
:10174000C00A20EE800A05A901EB800181ED000AA4
:10175000401C0428DBDB002046E000EB400101EBED
:1017600000118E4A02EB810191ED090A00EB400164
:1017700001EB001102EB8101D1ED000AB1EE601A1C
:101780007D49A03131F9101000EE901AF8EEE00A10
:1017900001EE200A00EB400101EB001102EB810198
:1017A00091ED021A7449A03131F9101000EE901A2F
:1017B000F8EEE00A01EE600A00EB400101EB0011D7
:1017C00002EB8101D1ED020A00EB400101EB0011B7
:1017D00002EB810191ED061A00EEC10A01A901EBAD
:1017E000800181ED000A401C0428B6DB9DED050A4E
:1017F00020EE000ADDED060A9DED061A00EE810AD4
:10180000DDED070A9DED071A00EE810ADDED080AFD
:101810009DED081A00EE810ADFED680A20EE208AAD
:101820009DED050ADDED010A20EE200ADDED060A38
:101830009DED021A00EE810ADDED070A9DED031A07
:1018400000EE810ADDED080A9DED041A00EE810A22
:10185000DFED5B0A20EE200ADDED050A9DED061A9C
:1018600070EE810A9DED071A70EE810A9DED081A4F
:1018700070EE810A9FED531A01EE200A9DED051AC4
:101880003D48B0F9A00000EE900AF8EEE00A61EEE3
:10189000200ADDED061A3848B0F9A20001EE100A60
:1018A000B8EEC11A41EE810ADDED071A3248B0F9EF
:1018B000A40001EE100AB8EEC11A41EE810ADDED76
:1018C000081A2D48B0F9A60001EE100AB8EEC11AA8
:1018D00041EE810A9FED3C1AF0EE408A41EE208AEB
:1018E0009DED010A20EE000ADDED020A9DED021ACF
:1018F00000EE810ADDED030A9DED031A00EE810A78
:10190000DDED040A9DED041A00EE810ADFED2B0ADD
:1019100020EE200ADDED010A9DED021A70EE810A2B
:101920009DED031A70EE810A9DED041A70EE810A96
:101930009FED241A00EE810A9DED011A0E48B0F9C0
:10194000A00000EE900AF8EEE00A61EE200ADDED5C
:10195000021A0948B0F9A20001EE100AB8EEC11A45
:1019600041EE810ADDED031A0348B0F9A40001EE4F
:10197000100AB8EEC11A29E03009002094000020B6
:10198000CDCCCC3DC41A002000005243241D0020C1
:101990000000344300004843CDCCCC3E541E002010
:1019A000CDCC4C3E0000484200000000B81500209D
:1019B000F4270020C40000201009002058DF2C3438
:1019C00058DFAC346019C0B762BEBC3741EE810A43
:1019D000DDED041AFE48B0F9A60001EE100AB8EEDB
:1019E000C11A41EE810A1FED081A01EE200ADFED4F
:1019F000F90A30EE200A70EE499A28EEA80AF1EEB4
:101A0000000A68EE200A00EEE90A10EE101A0846F5
:101A100006F09BFA41EC1C0B9FEDEF0B53EC102BE7
:101A200006F0DFF841EC1B0BB0EE4B0AF0EE6B0A50
:101A300006F06EFEB0EE40AAF0EE60AA51EC1A0B72
:101A400006F0C6FA00EE100AF1EE680A70EE200AFF
:101A5000B0EE000A28EE001A80EE810A09B0BDEC53
:101A60000A8B00BD10B52DED0A8BB0EE408A002424
:101A7000DB480078032831D118EE100A06F065FA29
:101A800041EC190B9FEDD70B53EC102B06F088FAA5
:101A900002D24FF4E17451E018EE100A06F055FA44
:101AA00041EC1C0B9FEDD10B53EC102B06F03AF9D7
:101AB00041EC1B0B9FEDCF0B53EC102B06F0AAF95A
:101AC00041EC1A0B9FEDCD0B53EC102B06F030F9C7
:101AD00041EC190B06F01AFA04462FE018EE100A32
:101AE00006F033FA41EC190B9FEDBE0B53EC102BB3
:101AF00006F056FA01D2FA2420E018EE100A06F099
:101B000024FA41EC1C0B9FEDB90B53EC102B06F0A3
:101B100009F941EC1B0B9FEDB70B53EC102B06F0B2
:101B200079F941EC1A0B9FEDB70B53EC102B06F033
:101B3000FFF841EC190B06F0E9F90446002C01DC32
:101B4000002404E0B4F5FA7F01DB4FF4FA74B7EE39
:101B5000000AAE4880ED000A00EE104AB8EEC00A56
:101B6000BDEC0A8B10BD10B52DED108B8CB0002490
:101B700099E09749683131F9141001EE101AB8EE66
:101B8000C11AF0EE410A9249703131F9141001EE98
:101B9000101AB8EEC11AB0EE410A04EB440101EB91
:101BA00004119B4A02EB810000F0EAFE994800EB29
:101BB000840080ED000A974800EB840090ED000A55
:101BC000DFED950AB4EEE00AF1EE10FA07D89FEDCA
:101BD000920A904800EB840080ED000A12E08D48E4
:101BE00000EB840090ED000ADFED8C0AB4EEE00A11
:101BF000F1EE10FA06DB9FED890A864800EB8400BF
:101C000080ED000A834800EB840090ED000A04EBAD
:101C1000440000EB04107E4901EB8000D0ED040A83
:101C200020EE200A7E48D0ED000A20EE200A7D48F2
:101C300000EB840080ED000A764800EB840090ED14
:101C4000000A7948D0ED000A20EE200A714800EB26
:101C50008400D0ED000A20EE200A6E4800EB8400DC
:101C6000D0ED000A714890ED001A01EE200A70488C
:101C7000D0ED000A30EE200A6E4800EB840080EDC3
:101C8000000A684800EB840090ED000A694800EB08
:101C90008400D0ED000A30EE200A674800EB840093
:101CA00080ED000A641C042CFFF663AF624890EDDF
:101CB000000AD0ED010A30EE200AD0ED020A30EE23
:101CC000200AD0ED030A30EE200A5C4880ED000ABD
:101CD00090ED000AB5EEC00AF1EE10FA04D81FED3F
:101CE000CE0A80ED000A0DE0544890ED000ADFEDC9
:101CF000540AB4EEE00AF1EE10FA03DB9FED500A4D
:101D000080ED000A4D4890ED000ABCEEC00A10EECE
:101D1000100A4C49088008460088002802DC002090
:101D2000088015E04748008800EE100AB8EE400A27
:101D30004548D0ED000AB4EEE00AF1EE10FA07DBF8
:101D400090ED000ABCEEC00A10EE100A3D49088072
:101D50003E4800883B490988401A3D490880374879
:101D600090ED000A3848D0ED000AB4EEE00AF1EE3A
:101D700010FA71DD00240EE12F4800EB840090ED95
:101D8000000A3148D0ED000A20EE200A2B48D0EDA1
:101D9000000A80EE201A2F4800EB840080ED001A24
:101DA000254800EB840090ED000A2148D0ED000AA0
:101DB000B4EEE00AF1EE10FA7EDD1F4800EB84007D
:101DC00090ED000A234800EB8400D0ED000A44E0C7
:101DD00030090020FA7EEA3F000000000000F03FDA
:101DE000AF00002000000000008030400000000034
:101DF000000029400000000000001040000000002A
:101E000000207C400000000000406F40C000002027
:101E1000241D0020880A002000401CC600401C46EB
:101E2000E8000020980A0020EC000020F0000020CC
:101E3000F4000020A80A0020B80A0020D4000020E6
:101E400000007A44B6000020C8000020B200002044
:101E5000B4000020C80A0020A1E0B4EEE00AF1EED0
:101E600010FA29DDFB4890ED000A08A800EB840079
:101E700080ED000A04EB440000EB0410F64901EB8E
:101E80008000D0ED040AF54890ED000AF44890ED8A
:101E9000001A01EE200A04A800EB840080ED000A7D
:101EA000F04800EB840090ED000AEF48D0ED000A06
:101EB00030EEC00A684600E065E000EB840080ED8B
:101EC000000AEA4800EB840090ED000A10EE101AB8
:101ED000084606F03AF841EC190B08A800EB84001C
:101EE00090ED000AF0EE000A20EE200A10EE101A23
:101EF000084606F02AF841EC1B0B04A800EB84000E
:101F000090ED000A20EE000A08A800EB8400D0ED56
:101F1000000AB1EE001A60EE810A684600EB840008
:101F200090ED001A00EEC10A10EE101A084606F0F5
:101F30000CF841EC1F0BB0EE4F0AF0EE6F0A06F002
:101F4000E7FBB0EE40DAF0EE60DA04A800EB8400C4
:101F500090ED000AB1EE400A10EE101A084605F0A6
:101F6000F4FF53EC1D2B05F03CFE53EC1B2B05F04E
:101F700051FF53EC192B05F04DFF06F029F8BC4931
:101F800041F8240006E0B7EE000AB94800EB8400EF
:101F900080ED000A641C042CFFF6EEAE0BE000207E
:101FA00007E0B7EE000AB24901EB800181ED000ABB
:101FB000401C0428F5DB002025E0AD4901EB800141
:101FC00091ED000AB5EEC00AF1EE10FA07D89FEDC8
:101FD000A90AA74901EB800181ED000A12E0A4499A
:101FE00001EB800191ED000AF7EE000AB4EEE00A81
:101FF000F1EE10FA06DBB7EE000A9D4901EB800115
:1020000081ED000A401C0428D7DB0CB0BDEC108B1E
:1020100010BD10B52DED048B9748808900EE100A95
:10202000B8EE400A954880ED000A90ED000ADFED19
:10203000940A80EE201ABCEEC10A10EE100A8E49F6
:10204000C8820846C08A00EE900AF8EE600AB0EE38
:10205000600AFFF736FB8B4880ED000AFFF783FD2F
:1020600089480078012803D087480078032819D1CF
:102070008148C08A00EE900AF8EE600AB0EE600A6D
:10208000FFF7F0FC8148008800EE900AF8EE600A45
:1020900030EE600AB0EE408AFFF731FB7C4880EDFD
:1020A000000A18E07448C08A00EE900AF8EE600A50
:1020B000B0EE600AFFF705FB7448008800EE900A56
:1020C000F8EE600A30EE600AB0EE408AFFF717FBC8
:1020D000704880ED000A6E4890ED000AB5EEC00A27
:1020E000F1EE10FA04D89FED630A80ED000A0DE0CE
:1020F000674890ED000AF7EE000AB4EEE00AF1EE50
:1021000010FA03DBB7EE000A80ED000A614890ED9B
:10211000000AB5EEC00AF1EE10FA04D89FED550A98
:1021200080ED000A0DE05B4890ED000AF7EE000A32
:10213000B4EEE00AF1EE10FA03DBB7EE000A80ED30
:10214000000A51480078032803D04F48007802283D
:1021500005D1B7EE000A504880ED000A77E04A4802
:10216000007801282BD14D48006828B99FED4C0A12
:102170004C4880ED000A13E04848006801280FD160
:10218000484890ED000AB5EEC00AF1EE10FA07DDFE
:1021900090ED000AF7EE000A30EE600A80ED000ACA
:1021A000404890ED000A5FEDDA0A30EEC00A5FEDBC
:1021B000DC0A80EE201A384880ED001A47E03248E9
:1021C0000078E0BB3548006898B93749B1F851004C
:1021D00005F08FFE41EC190B9FED340B53EC102BE7
:1021E00005F0A6FD41EC180B05F0F2FE2D49086044
:1021F00013E02A48006801280FD12A4890ED000A10
:10220000B5EEC00AF1EE10FA07DD90ED000AF7EE28
:10221000000A30EE600A80ED000A2348B0F8510051
:1022200000EE100AB8EE400A1E48D0ED000A70EE2B
:10223000600A1D48B0F8510000EE100A00E006E008
:10224000B8EE400A80EE801A134880ED001ABDEC0B
:10225000048B10BDEC000020241D0020F0000020A5
:10226000E8000020C80A0020F4000020880A0020AE
:10227000F80A00200000000090290020A80000209B
:102280000000C842C8000020AF000020B6000020B7
:10229000C4000020C0000020BC00002084000020FA
:1022A00000805444B8000020F42700209A9999999E
:1022B0009999E93FFE48407818B1FD4840780128D7
:1022C0001FD10020FB490870F9484078012803D14C
:1022D00008700020F8490880F6480078012805D1E8
:1022E000F5480088401C00B2F3490880F248B0F974
:1022F00000000A2825DB0020EE490870EE4908801E
:102300001FE00220EB490870E9484078032803D118
:1023100008700020E8490880E6480078032805D1C5
:10232000E5480088401C00B2E3490880E248B0F963
:1023300000000A2805DB0220DE4908700020DE4983
:1023400008807047DFEDDD0AB4EEE00AF1EE10FA26
:1023500006DBDFEDDA0A70EE600AB0EE600A0AE032
:10236000B5EEC00AF1EE10FA05D2DFEDD40A70EE38
:10237000200AB0EE600A704710B52DED0A8BB0EE62
:10238000409AF0EE609AB0EE418A9FEDCD0B53EC8F
:10239000102B51EC190B05F0CBFC41EC1C0B9FED05
:1023A000CA0B53EC102B05F0C3FC41EC1B0B9FED4B
:1023B000C81BB0EE4B0AF0EE6B0A06F05FF8B0EE09
:1023C00040AAF0EE60AA51EC1A0B05F001FE08EEEF
:1023D000100AB5EEC08AF1EE10FA05D29FEDB70AE9
:1023E00038EE000AB0EE408A18EE100A05F0ADFD96
:1023F00041EC100BBDEC0A8B10BD1FED620AB64814
:1024000080ED010A1FED650A80ED000A1FED670AE5
:1024100080ED020A1FED690AB04880ED120A70478C
:10242000AD48B0F9110000EE100AB8EEC00AAA4893
:1024300080ED010AB0F90F0000EE100AB8EEC00AF4
:10244000A54880ED000A1FED750A80ED020A70476D
:10245000704710B5A14890ED130ADFEDA10AB4EE64
:10246000E00AF1EE10FA08DB90ED130ADFED930AB3
:1024700030EE600A80ED140A04E0984890ED130AEB
:1024800080ED140A9548D0ED140AB0EE600A06F00B
:1024900077F8914880ED0C0A9048D0ED140AB0EE20
:1024A000600A05F039FF8C4880ED0D0AB0F90F0085
:1024B00000EE100AB8EEC00A8748D0ED0D0A20EEF3
:1024C000200ABDEEC00A10EE100A00B28249088749
:1024D0000846B0F90F00404200EE100AB8EEC00AFC
:1024E0000846D0ED0C0A20EE200ABDEEC00A10EE20
:1024F000100A00B248870846B0F9110000EE100A31
:10250000B8EEC00A0846D0ED0C0A20EE200ABDEE57
:10251000C00A10EE100A00B288870846B0F9110010
:1025200000EE100AB8EEC00A0846D0ED0D0A20EE03
:10253000200ABDEEC00A10EE100A00B2C887084695
:10254000B0F93A00B1F93E10084400EE100AB8EEB6
:10255000C00A614880ED010AB0F938005E49B1F95E
:102560003C10084400EE100AB8EEC00A5A4880ED4C
:10257000000AB0F9130000EE100AB8EEC00A56487F
:1025800080ED020A10BD10B5544890ED130ADFED3E
:10259000540AB4EEE00AF1EE10FA08DB90ED130AEB
:1025A000DFED460A30EE600A80ED140A04E04B4885
:1025B00090ED130A80ED140A4748B0F9110000EEBF
:1025C000100AB8EEC00A444880ED010AB0F90F00C5
:1025D00000EE100AB8EEC00A3F4880ED000A3F48FE
:1025E000D0ED140A9FED3F1A60EE810AB0EE600A4A
:1025F0005FEDE00A3C4800F0C3F9374880ED020A7D
:1026000010BD10B53448007B072810D004DC012829
:1026100007D0032814D107E008280BD00A280FD1CF
:102620000BE0FFF7EAFE0EE0FFF7ADFF0BE0FFF770
:1026300010FF08E0FFF70CFF05E0FFF7F1FE02E0F6
:10264000FFF7DBFE00BF00BF10BD0CB501461FED5C
:10265000F72AF0EE421AB1EE402A32EE202ADFEDE0
:10266000232A01EE222AF0EE002A22EE222ABDEED3
:10267000C22A12EE100A00B2ADF8000030EE202A95
:10268000DFED1A2A01EE222AF0EE002A22EE222A9B
:10269000BDEEC22A12EE100A00B2ADF8020030EE12
:1026A000602ADFED122A01EE222AF0EE002A1FE056
:1026B000F0290020AF000020B0000020DB0FC9404F
:1026C000000000000000F03F000000A046DF913F46
:1026D00000000060FB21194030090020D0080020D4
:1026E000DB0F4940E12E6542B81500209A997940E8
:1026F00022EE222ABDEEC22A12EE100A00B2ADF876
:102700000400B1EE402A32EE602A5FED082A01EEA5
:10271000222AF0EE002A22EE222ABDEEC22A12EE72
:10272000100A00B2ADF8060000201EE03DF91020AE
:10273000002A01DB134600E0534202EE103AB8EEE5
:10274000C22AB4EEE12AF1EE10FA0CDD3DF91020B8
:10275000002A01DB134600E0534202EE103AB8EEC5
:10276000C22AF0EE421A421CD0B20428DEDB9FEDF2
:10277000622AF4EEC21AF1EE10FA1BDDDFED5E2ADA
:1027800082EEA13AB0EE432A002010E03DF910207D
:1027900002EE902AF8EEE22A62EE822AFDEEE22AAA
:1027A00012EE902A12B22DF81020421CD0B204284A
:1027B000ECDB00BF00980860019848600CBD00B5D4
:1027C0004E48D0ED021AB0EE611AD0ED011AF0EECB
:1027D000610AD0ED001AB0EE610A9830FFF735FFBC
:1027E00000BD10B5002429E004EB440000EBC40058
:1027F000434901EBC000006C01B24048A03020F812
:102800001410A0F1080131F9141001EE101AB8EEFD
:10281000C11AF0EE410A014631F9141001EE101A06
:10282000B8EEC11AB0EE410A04EB440101EB041109
:10283000344A02EB810000F0A3F8641C042CD3DBC3
:1028400000201FE02D49097BB1B100EB400101EBF5
:1028500000112C4A02EB810191ED0B0AF7EE000A00
:1028600020EE200ABDEEC00A10EE101A0AB223496B
:10287000203121F8102004E000222049203121F8E5
:102880001020401C0428DDDB10BD10B5FFF7C1FB94
:10289000FFF7A7FF10BD10B52DED028B1A4890ED84
:1028A000120B1A4880ED160BD0ED131AB0EE611A18
:1028B00090ED162BB0EE420AF0EE620AFFF75CFDD7
:1028C000B0EE408AF0EE608A51EC180B05F080FB08
:1028D0000E49C864BDEC028B10BD10B5FFF7DBFFDD
:1028E000FFF76DFF10BD10B5FFF78BFEFFF7F5FF8B
:1028F000FFF7CBFF10BD00000040E7453009002086
:1029000090220020541E002048240020D0080020DF
:10291000D0ED000AF4EEC00AF1EE10FA01DD80ED10
:10292000000AD0ED000AB1EE401AF4EEC10AF1EE51
:1029300010FA03D2F1EE400AC0ED000A70470364BA
:10294000C263816380ED000AC0ED010A80ED021AC6
:10295000704780ED000AC0ED010A80ED021ADFED3C
:10296000FE1AC0ED081ADFEDFC1AC0ED091ADFED02
:10297000FA1AC0ED0A1ADFEDF81AC0ED0B1A70470B
:1029800010B52DED088B0446B0EE408AF0EE608A5B
:1029900084ED048AC4ED038A38EEC80A84ED070A80
:1029A00094ED0C0AB5EEC00AF1EE10FA27D094EDC2
:1029B0000C0A10EE101A084605F0C7FA41EC190B84
:1029C00094ED070A10EE101A084605F0BEFA41EC25
:1029D0001B0BB0EE4B0AF0EE6B0A05F045FDB0EEB6
:1029E00040AAF0EE60AA53EC192B51EC1A0B05F03B
:1029F000D7FA04D29FEDD80ABDEC088B10BDA06BAE
:102A000003283ED194ED000AD4ED070A20EE200AF7
:102A100084ED080A94ED090AD4ED010A94ED071A31
:102A200000EE810A84ED090A94ED070AD4ED060A46
:102A300030EE600AD4ED020A20EE200A84ED0A0A84
:102A4000D4ED100AF8EE600AB0EE600A04F124003A
:102A5000FFF75EFF94ED080AD4ED090A30EE200A74
:102A6000D4ED0A0A30EE200A84ED0B0AD4ED0F0AE9
:102A7000F8EE600AB0EE600A04F12C00FFF748FFA0
:102A800042E0A06B04283FD194ED070AD4ED060A7A
:102A900030EE600AD4ED000A20EE200A84ED080A28
:102AA00094ED010AD4ED070A20EE200A84ED090A0C
:102AB00094ED070AD4ED060AB0EE001A01EE600AA2
:102AC000D4ED050A30EE200AD4ED020A20EE200AE9
:102AD00084ED0A0A94ED080AD4ED090A30EE200AC2
:102AE000D4ED0A0A30EE200AD4ED0B0A30EE200AAB
:102AF00084ED0B0AD4ED0F0AF8EE600AB0EE600A1E
:102B000004F12C00FFF704FF94ED060A84ED050A9A
:102B100094ED070A84ED060A94ED0D0AB5EEC00A9D
:102B2000F1EE10FA25D094ED0D0A10EE101A0846B9
:102B300005F00BFA41EC190B94ED0B0A10EE101A8C
:102B4000084605F002FA41EC1B0BB0EE4B0AF0EE22
:102B50006B0A05F089FCB0EE40AAF0EE60AA53ECD7
:102B6000192B51EC1A0B05F003FA02D29FED7A0AE9
:102B700042E794ED0B0A3FE710B52DED088B0446B4
:102B8000B0EE408AF0EE608A84ED048AC4ED038AD8
:102B900038EEC80A84ED070A94ED0C0AB5EEC00AB7
:102BA000F1EE10FA27D094ED0C0A10EE101A084638
:102BB00005F0CBF941EC190B94ED070A10EE101A51
:102BC000084605F0C2F941EC1B0BB0EE4B0AF0EEE3
:102BD0006B0A05F049FCB0EE40AAF0EE60AA53EC97
:102BE000192B51EC1A0B05F0DBF904D29FED5A0AB0
:102BF000BDEC088B10BDA06B03283ED194ED000AFC
:102C0000D4ED070A20EE200A84ED080A94ED090AA3
:102C1000D4ED010A94ED071A00EE810A84ED090A49
:102C200094ED070AD4ED060A30EE600AD4ED020AEC
:102C300020EE200A84ED0A0AD4ED100AF8EE600AAC
:102C4000B0EE600A04F12400FFF762FE94ED080A7A
:102C5000D4ED090A30EE200AD4ED0A0A30EE200A3B
:102C600084ED0B0AD4ED0F0AF8EE600AB0EE600AAC
:102C700004F12C00FFF74CFE3EE0A06B04283BD192
:102C800094ED070AD4ED060A30EE600AD4ED000A8E
:102C900020EE200A84ED080A94ED010AD4ED070A1B
:102CA00020EE200A84ED090A94ED070AD4ED060A05
:102CB000B0EE001A01EE600AD4ED050A30EE200AEB
:102CC000D4ED020A20EE200A84ED0A0A94ED080AE7
:102CD000D4ED0A0A30EE200AD4ED0B0A30EE200AB9
:102CE00084ED0B0AD4ED0F0AF8EE600AB0EE600A2C
:102CF00004F12C00FFF70CFE94ED060A84ED050AA2
:102D000094ED070A84ED060A94ED0D0AB5EEC00AAB
:102D1000F1EE10FA28D094ED0D0A10EE101A0846C4
:102D200005F013F941EC190B94ED0B0A10EE101A93
:102D3000084605F00AF941EC1B0BB0EE4B0AF0EE29
:102D40006B0A05F091FBB0EE40AAF0EE60AA53ECDE
:102D5000192B51EC1A0B01E00000000005F008F9F6
:102D600002D21FED030A43E794ED0B0A40E72DE979
:102D7000F0412DED048B04460D4616461F46B0EE7D
:102D8000408AF0EE608AB0EE419A2A486064B0EE64
:102D9000491AF0EE680AB0EE480A3B463246294628
:102DA0002046D4F844C0E047BDEC048BBDE8F08178
:102DB0001FED170A80ED080A1FED190A80ED090AB8
:102DC0001FED1B0A80ED0A0A1FED1D0A80ED0B0A9C
:102DD0001FED1F0A80ED050A1FED210A80ED060A8E
:102DE0001FED230A80ED070A704770B52DED048BA7
:102DF00006460D461446B0EE408AF0EE608AB0EE0C
:102E0000419AF0EE619AF0EE480AB0EE680A304658
:102E1000FFF7B6FD30EE290A84ED000A94ED000AB2
:102E2000F0EE400AB0EE490A2846FFF7A9FDBDECD6
:102E3000048B70BD3F29000810B504462068A0F23D
:102E4000411030B941F6150221462E4800F045FFE9
:102E500000E000BF00BF10BD10B5044640F20222E2
:102E60002068811A904218D006DCB0F5A17F08D006
:102E7000A0F2012010BB0BE0012914D002291DD1C2
:102E800017E04EF2844221461F4800F026FF16E06C
:102E900021461E4800F0A1F911E021461B48583098
:102EA00000F09BF90BE021461848B03000F095F98E
:102EB00005E02146164800F090F900E000BF00BF91
:102EC00010BD08B51348B0F924104FF4A172124890
:102ED00000F0F8FF0F48B0F9261040F241120F48F9
:102EE00000F0F0FF0E48B0F9260000900C48B0F951
:102EF0002430B0F92220B0F92010074800F002FA7F
:102F000008BD0000F023002048240020902200206B
:102F100098230020780100200068004000640040F1
:102F20003009002070B505460C464C22A91D3948D1
:102F300004F013FE374890ED0C0AB1EE400A84ED20
:102F4000000A354890ED000A344880ED000A314807
:102F500090ED0E0A304880ED000A90ED000A2F48EF
:102F6000D0ED000A30EE600ADFED2D0AB4EEE00A83
:102F7000F1EE10FA05DB2B480068401E2949086075
:102F800013E0254890ED000A2448D0ED000A30EE09
:102F9000600ADFED250AB4EEE00AF1EE10FA04D87B
:102FA00020480068401C1F4908601E4800684FF414
:102FB000B471484300EE100AB8EEC00A1648D0EDCE
:102FC000000A30EE200AB1EE400A84ED010A1148F1
:102FD00090ED0D0A84ED020A90ED070AB1EE400A69
:102FE00084ED030A90ED080AB1EE400A84ED040A6C
:102FF00090ED060A84ED050A90ED030A84ED060AB9
:1030000090ED050A84ED070A90ED040A84ED080AA4
:1030100070BD000060270020FC000020F8000020A8
:103020000000A243000100200000A2C30A7BCB7A6B
:1030300042EA032282618269826082694260026997
:10304000521C026170472DE9F04104460D460026EE
:10305000002720686060287BE97A40EA0120206030
:1030600020686168401AE060E06810F5805F07DA68
:10307000A06B401CA063E06800F50050E0610DE02B
:10308000E068B0F5805F07DDA06B401EA063E068DC
:10309000A0F50050E06101E0E068E0612168A06B0C
:1030A00001EB4030A0602068A269801A00EE100A8F
:1030B000F8EEC00AA06B4FF4B472504300EE100A51
:1030C000B8EEC00A9FEDBD1A00EE810A10EE101A8C
:1030D000084604F03AFF41EC100B84ED120BE26954
:1030E000207D411C217504F1200141F82020207D24
:1030F000062801D100202075002605E004F12000FB
:1031000050F826000744761C062EF7DB062097FBB6
:10311000F0F02064A97B687B41EA002000B2A4F8AB
:103120005400BDE8F08170B504460D46206860602B
:10313000287BE97A40EA0120206020686168401A13
:10314000E060E06810F5805F07DAA06B401CA063C8
:10315000E06800F50050E0610DE0E068B0F5805FE8
:1031600007DDA06B401EA063E068A0F50050E061A1
:1031700001E0E068E0612168A06B01EB4030A060F5
:103180002068A269801A00EE100AF8EEC00AA06B4F
:103190004FF4B472504300EE100AB8EEC00A9FED2F
:1031A000881A00EE810A10EE101A084604F0CDFECF
:1031B00041EC100B84ED120BA97B687B41EA0020E7
:1031C0002064206CB0F57A7F04DB206CA0F57F4092
:1031D000FF382064687C206570BD70B504460D46DC
:1031E000E06B401CE063E06B052804DC29462046C8
:1031F000FFF71CFF03E029462046FFF724FF70BDC0
:1032000070B504460E461546E06B401CE063E06B6B
:10321000022800DCA56131462046FFF784FFE06B01
:103220000A2812DCA069A168401A10F57A6F03DA47
:1032300005F50050A06108E0A069A168401AB0F54A
:103240007A6F02DDA5F50050A06170BD2DE9F04157
:1032500086B080460C4615461E460C9F40F2FF1075
:10326000019000208DF80C008DF80D0008208DF8DD
:103270000E00200A8DF80F008DF81040290A8DF8F5
:1032800011108DF81250310A8DF813108DF814605A
:10329000390A8DF815108DF8167001A9404602F014
:1032A000FBF906B0BDE8F0812DE9F04186B080461B
:1032B0000C4615461E460C9F40F2FF200190002050
:1032C0008DF80C008DF80D0008208DF80E00200AF6
:1032D0008DF80F008DF81040290A8DF811108DF827
:1032E0001250310A8DF813108DF81460390A8DF8D8
:1032F00015108DF8167001A9404602F0CDF906B000
:10330000BDE8F0812DE9F04186B080460C461546B7
:103310001E460C9F4FF40070019000208DF80C00A9
:103320008DF80D0008208DF80E00200A8DF80F0092
:103330008DF81040290A8DF811108DF81250310ABD
:103340008DF813108DF81460390A8DF815108DF86A
:10335000167001A9404602F09FF906B0BDE8F08161
:103360002DE9F04186B080460C4615461E460C9F5E
:1033700040F2FF10019000208DF80C008DF80D0038
:1033800008208DF80E00200A8DF80F008DF81040EF
:10339000290A8DF811108DF81250310A8DF813108A
:1033A0008DF81460390A8DF815108DF8167001A982
:1033B000404602F071F906B0BDE8F081FFFF333DF1
:1033C0000000343DF0B503460C461888002113E098
:1033D000675C80EA072000250BE0460000F4004C03
:1033E000BCF1000F03D041F2210C86EA0C063046F6
:1033F0006D1C082DF1D3491C9142E9D31880F0BD12
:103400002DE9F84305460F4690464FF0000900208D
:1034100000900626FE484078002859D0002085F804
:103420006300FB484078C0F3800078B1F9A12846DA
:1034300004F0C5FBF84908600846006830B1F4485C
:10344000007820F00400001DF1490870F048407831
:1034500000F0010078B1EFA1284604F0B0FBEE497E
:1034600008600846006830B1E948007820F00100A3
:10347000401CE7490870E6484078C0F3400078B146
:10348000E4A1284604F09BFBE34908600846006875
:1034900030B1DF48007820F00200801CDC49087061
:1034A000DB484078C0F3C00078B1DCA1284604F0C6
:1034B00086FBD94908600846006830B1D4480078D6
:1034C00020F008000830D2490870002028600AE186
:1034D00028785A28FBD16878A528F8D1A878E97807
:1034E00000EB0120801D4045F1D1B8F1080FEEDB63
:1034F000042229466846FFF765FFA8F10602A91DC8
:103500006846FFF75FFF2879697900EB01201FFA11
:1035100080F9BDF800004845D9D10626E0E0AC1995
:103520002078C02860D008DC90280FD0A02813D0C5
:10353000A52829D0B0286FD13EE0D02870D0D1285E
:103540006CD0D9286BD0F028F5D1C3E06078B849A9
:103550000870B01CC6B2C2E06078A17800EB012010
:1035600000B2B3494880E078217900EB012000B235
:10357000AF4988806079A17900EB012000B2AC49A5
:10358000C880F01DC6B2AAE06078A17800EB0120E7
:1035900000B2A7490881E078217900EB012000B250
:1035A000A34948816079A17900EB012000B2A049CC
:1035B0008881F01DC6B292E06078A17800EB01200E
:1035C00000B29B49C881E078217900EB012000B26C
:1035D000974908826079A17900EB012000B29449F3
:1035E0004882F01DC6B27AE06078A17800EB012035
:1035F00000B28F498882E078217900EB012000B287
:103600008B49C8826079A17900EB012000B288491A
:103610000883F01DC6B262E05FE001E04CE03FE0ED
:103620006078A17800EB012000B281494883E078FE
:10363000217900EB012000B27D4988836079A1796E
:1036400000EB012000B27A49C8830846B0F91A009D
:1036500000EE100AB8EEC00ADFED760A20EE200A6E
:10366000084680ED0F0AB0F91C0000EE100AB8EE13
:10367000C00ADFED700A20EE200A084680ED100A2D
:10368000B0F91E0000EE100AB8EEC00ADFED6A0ABB
:1036900020EE200A084680ED110AF01DC6B21EE099
:1036A000634854F8011F016261684162A168816248
:1036B00006F10D00C6B212E05D4854F8011FC16268
:1036C00061680163A1684163E168816306F11100EB
:1036D000C6B204E0701DC6B201E0464600BF00BF9E
:1036E0004645FFF61CAF5248B0F91200404200EECA
:1036F000100AB8EEC00ADFED500A20EE200A87ED6E
:10370000040A4B48B0F91000404200EE100AB8EE2F
:10371000C00ADFED490A20EE200A87ED030A44487B
:10372000B0F90E00404200EE100AB8EEC00ADFED1C
:10373000420A20EE200A87ED050A404890ED000A73
:103740003F4880ED000A3A4890ED110AB1EE400A78
:103750003A4880ED000A90ED000A3948D0ED000AA1
:1037600030EE600ADFED370AB4EEE00AF1EE10FA4F
:1037700005DB35480068401E3349086013E02F48D8
:1037800090ED000A2E48D0ED000A30EE600ADFED21
:103790002F0AB4EEE00AF1EE10FA04D82A480068C5
:1037A000401C294908602A4890ED000A294880ED0C
:1037B000000A1F4890ED080A254880ED000A90EDA8
:1037C000000A2448D0ED000A30EE600ADFED1D0A41
:1037D000B4EEE00AF1EE10FA05DB1F480068401E67
:1037E0001D49086013E01A4890ED000A1948D0ED11
:1037F000000A30EE600ADFED150AB4EEE00AF1EEE1
:1038000010FA04D814480068401C1349086025E0E9
:10381000040100204F4B0000080100206E65772056
:103820007061636B6574206974656D7300000000DE
:10383000AC2700200AD7233CCDCCCC3D1001002082
:103840000C0100200000A543240100200000A5C3B6
:1038500018010020140100202801002031480068D0
:103860004FF4B471484300EE100AB8EEC00A2E4877
:10387000D0ED000A30EE200A87ED000A2B4890EDCB
:10388000000A2B4880ED000A2A4890ED090A2748D3
:1038900080ED000A90ED000A2548D0ED000A30EED8
:1038A000600A5FED180AB4EEE00AF1EE10FA05DBEB
:1038B00021480068401E2049086013E01B4890ED35
:1038C000000A1B48D0ED000A30EE600A5FED210AC5
:1038D000B4EEE00AF1EE10FA04D817480068401C74
:1038E00015490860154800684FF4B471484300EE6C
:1038F000100AB8EEC00A1248D0ED000A30EE200AD5
:1039000087ED010A0B4890ED100ADFED0E0A30EE4C
:10391000200A87ED020A90ED0F0A87ED000ABDE844
:10392000F883000028010020180100202001002059
:103930001C010020AC2700202C01002024010020C5
:1039400010010020A470954030B5034605E013F83F
:10395000010B80EA0204B348025D081EA1F10101D7
:10396000F5D1104630BD70B505460C4600260DB1A8
:10397000022C01D8002070BD611EFF222846FFF7EF
:10398000E3FF0646601E285CB04201D10120F2E749
:103990000020F0E770B505460C4600260DB1022C5C
:1039A00000D870BD611EFF222846FFF7CDFF0646F6
:1039B000601E2E5400BFF4E730B5034613B94FF62E
:1039C000FF7030BD09E013F8014B82EA0400C0B279
:1039D000954D35F8100080EA2222081EA1F1010160
:1039E000F1D11046EDE770B505460C4600260DB145
:1039F000022C01D8002070BDA11E8C4802882846E8
:103A0000FFF7DAFF0646F1B2A01E285C814206D11C
:103A1000601E285CB0EB162F01D10120EBE70020DF
:103A2000E9E770B505460C4600260DB1022C00D81A
:103A300070BDA11E7D4802882846FFF7BDFF0646DF
:103A4000A01E2E54310A601E295400BFF0E770B545
:103A500004460D4600260CB1022D01D8FF2070BD92
:103A6000FF2229462046FFF76FFFF8E72DE9FC5FAC
:103A700005460F46092F01D8BDE8FC9F0024A1464A
:103A8000CBE015F804A0601C295CA01C285C41EA6E
:103A90000026601D295CA01D285C41EA002B281926
:103AA00000F1070828190168009100798DF80400D9
:103AB00006F109001FFA80F9BAF1A50F77D10521A7
:103AC0006846FFF750FF002871D028194946FFF7D4
:103AD0008AFF0028F8D0BBF5017F6AD012DC40F2E3
:103AE0000311ABEB01008B452BD006DCBBF1010FC2
:103AF0001AD0BBF1030F74D11CE0FE2828D0FF2898
:103B00006FD14BE0BBF5027F6DD006DCABF2062037
:103B1000002856D001287BD15AE0ABF201300028B2
:103B200068D0022874D16CE032464146404804F027
:103B300014F86EE0324641463D480C3004F00DF872
:103B400067E0324641463A48363004F006F860E015
:103B50001B2E22D1324641463548393003F0FDFF55
:103B6000334890F83900012809DB314890F83900D2
:103B7000072804DC02202E4981F8C5000DE02C48FE
:103B800090F839000B2808DB294890F839001128F3
:103B900003DC0120264981F8C5003AE0102E05D14A
:103BA000324641462248543003F0D7FF31E031E03D
:103BB000FFE7012E04D198F800001D4981F8740038
:103BC00027E0324641461A48763003F0C6FF20E02F
:103BD000072E05D1324641461548773003F0BDFF28
:103BE00017E015E0FFE73246414611487E3003F00A
:103BF000B4FF0EE0324641460D48843003F0ADFF7D
:103C000007E0324641460A48AC3003F0A6FF00E028
:103C100000BF00BF04EB090084B2A7423FF731AFF9
:103C200000BF29E7598900085A8A0008300100209E
:103C3000F427002070B504460D4600BF00BF206881
:103C40006060697CA87C41EA00202060206861688F
:103C5000401AE060E06810F5004F07DAA06B401CE6
:103C6000A063E06800F58030E0610DE0E068B0F549
:103C7000004F07DDA06B401EA063E068A0F5803018
:103C8000E06101E0E068E0612168A06B01EB0040C9
:103C9000A0602068A269801A00EE100AF8EEC00A3F
:103CA000A06B4FF4B472504300EE100AB8EEC00A95
:103CB0009FED981A00EE810A10EE101A084604F0E3
:103CC00044F941EC100B84ED120BE97B287C41EAAE
:103CD00000202064287B206570BD70B504460E4628
:103CE0001546E06B401CE063E06B022800DCA56138
:103CF00031462046FFF79EFFE06B0A2813DCA069DF
:103D0000A168401A8449884203DA05F58030A06131
:103D100009E0A069A168401A47F6BC71884202DD3B
:103D2000A5F58030A06170BD70B586B006460C4622
:103D30001546019508208DF80E0000208DF80C0026
:103D40008DF80D008DF80F4000218DF810108DF8C2
:103D500011108DF812108DF813108DF814108DF8C5
:103D600015108DF8161001A9304601F095FC06B02B
:103D700070BD30B52DED068B85B00546B0EE408A9E
:103D8000F0EE608AB0EE419AF0EE619AB0EE42AA8F
:103D9000F0EE62AA0C46009408208DF80A0000207C
:103DA0008DF808008DF8090032208DF80B000021F5
:103DB0008DF80C10BCEEC80A10EE100AC1B28DF8D6
:103DC0000D10BCEEE80A10EE100AC1B28DF80E100C
:103DD000BCEEC90A10EE100AC1B28DF80F10BCEE8D
:103DE000E90A10EE100AC1B28DF81010BCEECA0A32
:103DF00010EE100AC1B28DF81110BCEEEA0A10EEF6
:103E0000100AC1B28DF812106946284601F044FC30
:103E100005B0BDEC068B30BDF0B585B007460D464C
:103E200014461E46009608208DF80A0000208DF8E2
:103E300008008DF80900A4208DF80B0000218DF8F2
:103E40000C10E9B28DF80D10290A8DF80E10E1B2B0
:103E50008DF80F10210A8DF81010210C8DF811101B
:103E6000210E8DF812106946384601F015FC05B098
:103E7000F0BD70B586B006460C4615460195082083
:103E80008DF80E0000208DF80C008DF80D00A2209A
:103E90008DF80F0000218DF810108DF811108DF89D
:103EA00012108DF81340210A8DF81410210C8DF892
:103EB0001510210E8DF8161001A9304601F0ECFB0B
:103EC00006B070BD70B586B006460C461546019525
:103ED00008208DF80E0000208DF80C008DF80D00E4
:103EE000A1208DF80F0000218DF810108DF8111011
:103EF0008DF812108DF81340210A8DF8141000214E
:103F00008DF815108DF8161001A9304601F0C4FB8C
:103F100006B070BD0000B43B4480FFFF10B50346FF
:103F20003BB1087838B9012008701078401C107037
:103F300001E000200870107800EBD0746410A0EB52
:103F400044040CB9002010BD0120FCE7CB8A0340DB
:103F50000BB1012300E000231370704710B5044635
:103F600004F1280221460120FFF7F0FF04F12902A5
:103F700021460420FFF7EAFF04F12A02214602202D
:103F8000FFF7E4FF04F12B0221460820FFF7DEFFD4
:103F900004F12C0221461020FFF7D8FF04F12E0275
:103FA00021462020FFF7D2FF04F12F0221464020B6
:103FB000FFF7CCFF04F1300221468020FFF7C6FF57
:103FC00004F1310221464FF48070FFF7BFFF04F186
:103FD000320221464FF40070FFF7B8FF04F13302BC
:103FE00021464FF48060FFF7B1FF04F1340221460F
:103FF0004FF40060FFF7AAFF04F12D0221464FF4B1
:104000008050FFF7A3FF04F1350221464FF4005022
:10401000FFF79CFF04F1360221464FF48040FFF782
:1040200095FF04F1370221464FF40040FFF78EFF61
:1040300094F82800914A9249FFF770FF38210855FB
:104040002921085D8F4A9049FFF768FF39210855FB
:104050002A21085D8D4A8E49FFF760FF3A210855F5
:104060002B21085D8B4A8C49FFF758FF3B210855EF
:104070002C21085D894A8A49FFF750FF3C210855E9
:104080002E21085D874A8849FFF748FF3E210855E1
:104090002F21085D854A8649FFF740FF3F210855DB
:1040A0003021085D834A8449FFF738FF40210855D5
:1040B0003121085D814A8249FFF730FF41210855CF
:1040C0003221085D7F4A8049FFF728FF42210855C9
:1040D0003321085D7D4A7E49FFF720FF43210855C3
:1040E0003421085D7B4A7C49FFF718FF44210855BD
:1040F0002D21085D794A7A49FFF710FF3D210855C7
:104100003521085D774A7849FFF708FF45210855B2
:104110003621085D754A7649FFF700FF46210855AC
:104120003721085D734A7449FFF7F8FE47210855A7
:1041300010BD817AC176017FC27E891A4177C27E25
:104140000277417F01290ED1016A491C0162016A8F
:1041500001EBD1725210A1EB420212B90022827718
:1041600001E001228277417F02290ED1416A491C78
:104170004162416A01EBD1725210A1EB420212B9C5
:104180000022C27701E00122C2777047C17A01297B
:1041900001D1817608E0C17A032901D1817603E05B
:1041A000C17A022900D18176704730B504460D46A8
:1041B000122D00D030BD04B9FCE72078617840EAC8
:1041C0000120C0F30A004D4908806078C010A17832
:1041D00040EA4110C0F30A0048494880A0788011A5
:1041E000E17840EA8100217940EA8120C0F30A00A9
:1041F0004249888020794010617940EAC110C0F3BB
:104200000A003E49C880207C617C40EA0120C0F35E
:104210000A003A4908816079001180088872607943
:10422000C0F30110C872A079E17940EA012000B220
:1042300032498881207A617A40EA012001B22F4810
:10424000C181A07AE17A40EA012001B22B480182C3
:10425000217B0175617B4175A07BE17B40EA0120F8
:104260002649C8820846FFF791FF2448FFF761FFFF
:104270002248FFF773FE00BF9CE7000033010020D7
:1042800032010020350100203401002037010020D8
:104290003601002039010020380100203B010020B8
:1042A0003A0100203D0100203C0100203F01002098
:1042B0003E01002041010020400100204301002078
:1042C0004201002045010020440100204701002058
:1042D0004601002049010020480100204B01002038
:1042E0004A0100204D0100204C0100204F01002018
:1042F0004E0100205101002050010020A82900207B
:10430000F0B58BB004460D4616461F4601210846FF
:1043100002F020FA0121480602F065FA09220B2179
:10432000994802F004F809220C21974801F0FFFF98
:104330004FF4C050099002208DF8280009A9924836
:1043400001F06AFF14208DF8040003208DF80500A9
:1043500001208DF806008DF8070001A800F09FFFEE
:1043600013208DF8040001208DF8050000208DF841
:10437000060001208DF8070001A800F090FF834897
:1043800000F0F8FF06A801F019F900208DF81E00D2
:1043900001208DF81F0000208DF820008DF82100ED
:1043A0008DF822008DF823008DF81A708DF81B000F
:1043B0008DF81C508DF81D40ADF8186006A97348A3
:1043C00000F0F1FF00208DF812008DF8130001209D
:1043D0008DF814000020ADF80800ADF80A00ADF823
:1043E0000C00ADF80E00ADF8100001208DF815009E
:1043F00002A801F062F801220221644801F05CFB8E
:1044000001221146614801F057FB0BB0F0BD10B519
:1044100001215E4801F0B8FB18B101215B4801F0B1
:104420004EFC10BD00B585B00221584801F0ACFB30
:1044300088B10421554801F042FC5549534801F028
:1044400080FB6A460021514801F01BFA00BF684614
:10445000FEF7F2FC00BF05B000BDF0B58BB004461E
:104460000D4616461F460121022002F073F9012174
:10447000880602F0B8F909220C21464801F057FFDE
:1044800009220D21434801F052FF4FF440500290A1
:1044900002208DF80C0002A93E4801F0BDFE40202C
:1044A0008DF8040003208DF8050000208DF806002B
:1044B00001208DF8070001A800F0F1FE364800F059
:1044C00059FF08A801F07AF800208DF82600012095
:1044D0008DF8270000208DF828008DF829008DF830
:1044E0002A008DF82B008DF822008DF823008DF81E
:1044F00024508DF82540ADF8206008A9264800F02A
:1045000052FF0E208DF81A0000208DF81B000120AC
:104510008DF81C000020ADF81000ADF81200ADF8C9
:104520001400ADF81600ADF8180001208DF81D003C
:1045300004A800F0C2FF01220221174801F0BCFAD2
:104540000BB0F0BD10B50121134801F01DFB18B1EF
:104550000121114801F0B3FB10BD00B585B0022167
:104560000D4801F011FB68B102210B4801F0A7FBD7
:104570006A460021084801F084F900BF6846FEF74A
:104580006BFC00BF05B000BD0000024000640040AD
:1045900008000032000402400068004010B596B0E8
:1045A00004460121022002F0D5F80121880502F01D
:1045B000D1F80121102002F027F907221146FE4808
:1045C00001F0B5FE14A801F06FFE802014900220C7
:1045D0008DF8540000208DF8550001208DF857000B
:1045E00014A9F54801F018FEF44803F059F810A892
:1045F00003F023F910940020ADF84400ADF8460014
:104600004FF48060ADF848000420ADF84A00002067
:10461000ADF84C0010A9E94803F0A9F801224021A7
:10462000E64803F0D9F9E64801F09CFB684601F042
:1046300064FC4FF000600090E048001D0190E148EC
:1046400002900020039040200490002005904FF439
:10465000806006900020079008904FF480700990C9
:1046600000020A9000200B900C900D900E9069466D
:10467000D34801F019FC0022D2494031D04801F062
:1046800074FC0121CE4801F07CFC0121CC4801F0F2
:1046900045FC25208DF83C0000208DF83D008DF86C
:1046A0003E0001208DF83F000FA800F0F8FD012228
:1046B00040F22441C14803F098F90121BF4803F0BA
:1046C000DEF816B010BD10B540F22441BB4803F02F
:1046D000C7F9002856D0B9480088B8488088B8483B
:1046E00001F05FFC30BB0021B54801F017FCB64972
:1046F000B34801F08CFCB24801F033FCC0F140003B
:10470000B24908604020AE49091D0860081F0068D2
:1047100040F40020091F08600121A94801F0FEFBB8
:1047200000BFAA48008881B2A648FFF73EFDFCF70B
:104730008BFB27E00021A24801F0F0FBA249A04832
:1047400001F065FC9E4801F00CFCC0F140009F495F
:10475000086040209A49091D0860081F006820F47D
:104760000020091F08600121954801F0D7FB00BF18
:104770009648008881B293484030FFF716FDFCF759
:1047800063FB00BF10BD10B596B00446012108467A
:1047900001F0E0FF0121480501F0DCFF01214804A0
:1047A00002F021F807220221894801F0C0FD07220A
:1047B0000321874801F0BBFD14A801F075FD0C2012
:1047C000149002208DF8540000208DF8550001202F
:1047D0008DF8570014A97E4801F01EFD7D4802F0B7
:1047E0005FFF10A803F029F810940020ADF84400F2
:1047F000ADF84600ADF848000C20ADF84A000020A6
:10480000ADF84C0010A9734802F0B1FF012240211D
:104810006A4803F0E1F8704801F0A4FA684601F034
:104820006CFB4FF0006000906A48001D01906B48DF
:1048300002900020039064200490002005904FF423
:10484000806006900020079008904FF480700990D7
:1048500000020A9000200B900C900D900E9069467B
:104860005D4801F021FB00225C4964315A4801F0A7
:104870007CFB0121584801F084FB0121564801F0DE
:104880004DFB26208DF83C0000208DF83D008DF872
:104890003E0001208DF83F000FA800F000FD01222E
:1048A00040F224414B4803F0A0F80121494802F0AE
:1048B000E6FF16B010BD10B540F22441454803F0A4
:1048C000CFF828B3434800884248001D00880021E3
:1048D000414801F023FB42493F4801F098FB3E4824
:1048E00001F03FFBC0F164003E49086064203A4992
:1048F000091D086038488838D0F8880040F4002046
:10490000091F08600121344801F008FB00BF20E0C6
:104910000021314801F002FB31492F4801F077FBBB
:104920002D4801F01EFBC0F164002E490860642090
:104930002949091D086028488838D0F8880020F4E3
:104940000020091F08600121234801F0E7FA00BF99
:1049500000BF10BD10B596B004460121022001F041
:10496000F9FE0121880401F03EFF0121480501F014
:10497000F1FE07220A21104801F0D9FC07220B2181
:104980000D4801F0D4FC02208DF8440003208DF87E
:10499000450000208DF8460001208DF84700800278
:1049A000109010A9044801F037FC4FF400601090FB
:1049B00010A9014818E00000000402400010014066
:1049C00040640240102E00200000301054010020EE
:1049D000000002400044004088600240902E002009
:1049E000000C00205801002001F016FC27208DF853
:1049F000000002208DF8010001208DF802008DF8E2
:104A00000300684600F04BFC12940020ADF84C0007
:104A1000ADF84E00ADF85000ADF854000C20ADF8E4
:104A2000520012A9FE4802F0A2FE012240F22441E7
:104A3000FB4802F0DAFF5021F94803F008F864203F
:104A4000059000200C900D900E9009904FF480601E
:104A5000079080100A90F248001D029000200F90ED
:104A6000089006904FF400300B90800201900020D7
:104A70000490EC48039001A9EB4801F015FA0121DC
:104A8000E94801F04BFA01224021E54802F0A4FF79
:104A90000121E34802F0F3FE16B010BD10B540F25C
:104AA0002441DF4802F0DCFFF8B1DD4802F016FFD8
:104AB00040F22441DA4803F00EF80021DA4801F010
:104AC0002DFA00224021D64802F086FF00BFD749C8
:104AD000D448FEF727FA00BF01224021D04802F057
:104AE0007BFF0121D04801F019FA10BD10B596B036
:104AF00004460121042001F02DFE0121C80401F02B
:104B000072FE08220A21CA4801F011FC08220B217A
:104B1000C74801F00CFC0121480501F01BFE4FF4D1
:104B20004060109002208DF8440000208DF846006F
:104B300003208DF8450001208DF8470010A9BC48DE
:104B400001F06AFB12940020ADF84C00ADF84E0065
:104B5000ADF850000C20ADF852000020ADF8540024
:104B600012A9B44802F003FE01224021B14802F02C
:104B700033FFAD48183001F0F5F8684601F0BDF993
:104B80004FF000600090AB48001D0190AA480290D1
:104B90000020039064200490002005904FF4806072
:104BA000069000200790089009904FF480300A90FA
:104BB00000200B900C900D900E9069469A4818308A
:104BC00001F072F901219848183001F0A7F934205A
:104BD0008DF83C0003208DF83D008DF83E0001204B
:104BE0008DF83F000FA800F05AFB01228021914868
:104BF00002F0F2FE00218C48483001F08FF98A481B
:104C0000483001F0AFF800BF8748483001F0D3F9D1
:104C10000028F9D14FF0006000908648001D0190F7
:104C200086480290402003900020049005904FF4A5
:104C30008060069000200790089009904FF4803023
:104C40000A9000200B9003200C9000200D900E90F5
:104C500069467548483001F027F90F208DF83C006F
:104C600003208DF83D008DF83E0001208DF83F00B7
:104C70000FA800F014FB012210216B48483001F00E
:104C8000DAF9012240F224416A4802F0AEFE012125
:104C9000684802F0F4FD16B010BD10B5002440F2D3
:104CA0002441644802F0DCFE08B362480088614891
:104CB000001D008800215C48183001F02FF9604980
:104CC0005948183001F0A3F95748183001F049F954
:104CD000C0F16400C4B200BF00BF64215248183064
:104CE00001F03DF901215048183001F017F910BDCD
:104CF00070B504460D462946204601F030F90121E1
:104D0000204601F00BF970BD10B54E4946484830B9
:104D100001F061F948B100214348483001F0FEF844
:104D200048494148483001F072F910BD70B5044659
:104D30000025424D05F8014B01213B484830FFF763
:104D4000D7FF70BD2DE9F04105460E46002400272F
:104D50003A4F00BF03E0285D3855601C84B2B4426E
:104D6000F9DB314630484830FFF7C2FFBDE8F0813B
:104D700010B596B004460121042001F0EBFC01219E
:104D8000082001F0E7FC0121080501F02CFD0121BC
:104D9000480501F0DFFC02208DF8540000208DF85A
:104DA00056004FF48050149001208DF857000320D6
:104DB0008DF8550014A91E4801F02EFA02208DF836
:104DC000540000208DF856000420149001208DF826
:104DD000570003208DF8550014A91B4801F01CFA58
:104DE00008220C21124801F0A2FA082202211648DA
:104DF00001F09DFA10940020ADF84C000C20ADF8A5
:104E00004A000020ADF84800ADF84600ADF8440077
:104E100010A90E4802F0ABFC01210C4818E000007C
:104E200000480040582F002028600240881F0020C2
:104E300000080240004C0040BC2F002084300020BD
:104E40000000301020000020000C02400050004004
:104E500002F015FD01224021DD4802F0BDFD68464B
:104E600001F04BF8DB4802904FF40070049080048E
:104E70000090D748001D01900020039005904FF44A
:104E80008060069000200890079009904FF48030D1
:104E90000A9000200B900C900D900E906946CE4821
:104EA00001F002F80121CC4801F038F80022CB498A
:104EB000C94801F05AF80121C74801F062F83520CD
:104EC0008DF83C0001208DF83F008DF83D00022058
:104ED0008DF83E000FA800F0E2F9012240F22441D3
:104EE000BB4802F082FD0121B94802F0C8FC012252
:104EF0008021B74802F070FD0021B748A83001F0CA
:104F00000DF8B548A83000F02DFF00BFB248A8301A
:104F100001F051F80028F9D14FF000600090AC4842
:104F2000001D0190AE48029040200390962004900E
:104F3000002005904FF480600690002007900890B4
:104F400009900A900B9003200C9000200D900E9079
:104F50006946A148A83000F0A7FF01219E48A8306B
:104F600000F0DCFF2F208DF83C0002208DF83D0082
:104F700001208DF83E008DF83F000FA800F08FF95A
:104F800016B010BD70B504460D460021204600F055
:104F9000C5FF00BF204601F00EF80028FAD12946CF
:104FA000204600F0DCFF0121204600F0B7FF70BD75
:104FB00010B540F22441864802F052FD002852D03C
:104FC0008348008882488088834800F0EAFF28BB35
:104FD0000021814800F0A2FF82497F4801F017F8C4
:104FE0007D4800F0BEFFC0F500707F4908604FF4B7
:104FF0000071794800F0B3FF4FF4002277497648FA
:1050000000F0CAFF0121744800F088FF00BF764815
:10501000008881B26F48FEF729FD24E000216E4828
:1050200000F07CFF6F496C4800F0F1FF6A4800F027
:1050300098FFC0F500706C4908604FF40071664835
:1050400000F08DFF00226349634800F0A5FF0121B5
:10505000614800F063FF00BF6348008881B25F4889
:10506000FEF704FD00BF10BD00B597B0012104207C
:1050700001F070FB0121880501F06CFB012120206B
:1050800001F0C2FB08220621584801F050F908221D
:105090000721564801F04BF9C020119002208DF8ED
:1050A000480000208DF84A0002208DF849000020B9
:1050B0008DF84B0011A94D4801F0AEF84C4802F0B4
:1050C000EFFA4FF4E13013900020ADF85000ADF846
:1050D0005200ADF854000C20ADF856000020ADF899
:1050E000580013A9424802F042FB012240214048E7
:1050F00002F072FC3F4800F035FE4FF02060019056
:105100003B48001D02903C4803900020049064201E
:105110000590002006904FF48060079000200890D2
:1051200009900A904FF480300B9000200C900D9065
:105130000E900F9001A92F4800F0B6FE01212D48D6
:1051400000F0ECFE47208DF8400003208DF8410070
:105150008DF8420001208DF8430010A800F09FF860
:10516000012240F22441224802F03FFC0121204864
:1051700002F085FB17B000BD10B540F224411C4879
:1051800002F06EFC18B31A4800881948001D008808
:105190000021184800F0C2FE1849164800F037FFF9
:1051A000144800F0DEFEC0F164001549086000BF3D
:1051B0000846027813491048FEF722F900BF64211F
:1051C0000C4800F0CCFE01210A4800F0A7FE10BDFB
:1051D00000500040102A002010600240102C0020D7
:1051E000E8300020300000105C0100200008024080
:1051F000001401402864024020300020000C001000
:1052000060010020881F00201FB50121102001F03F
:10521000EAFA36208DF8000003208DF80100022004
:105220008DF8020001208DF80300684600F037F881
:105230005320ADF804000020ADF80600ADF80C00D6
:1052400040F2E730029001A9114801F084FC0121ED
:105250000F4801F009FD012211460D4802F01CF92A
:1052600001210B4802F02CF91FBD10B5012108489F
:1052700002F029F958B10121054802F035F9012160
:10528000034802F01DF900BFFBF7D0F800BF10BDC6
:105290000010004032490143324A1160704770B536
:1052A000002100230F22C4781CB32E4C246804F480
:1052B000E064C4F5E064C4F30721C1F10404E3B27F
:1052C0000A4144789C40E1B28478144021430C07A1
:1052D000210E254C05786155047804F01F05012442
:1052E000AC4005786D11AD0005F1E025C5F8004131
:1052F00009E0047804F01F050124AC401B4D06783A
:10530000761145F8264070BD194A0A400243154BF4
:105310001B1F1A60704739B1124A121D12680243EE
:10532000104B1B1D1A6006E00E4A121D12688243C4
:105330000C4B1B1D1A607047042808D14FF0E02168
:10534000096941F004014FF0E022116107E04FF0DC
:10535000E021096921F004014FF0E022116170475A
:105360000000FA050CED00E000E400E080E100E060
:1053700080FFFF1F10B50446FE48844209D1012179
:10538000480601F085FA00214FF0007001F080FA24
:1053900008E00121880601F07BFA00214FF08060CF
:1053A00001F076FA10BD30B50246002000231468E3
:1053B00024F002041460146844F00104146000E056
:1053C0005B1C546804F001041CB94FF6FF74A3423F
:1053D000F6D1546804F001040CB900206CE08C791B
:1053E000012C04D1146844F08004146003E01468B4
:1053F00024F080041460CC79012C04D1146844F0AA
:105400004004146003E0146824F0400414600C7A33
:10541000012C04D1146844F02004146003E01468E3
:1054200024F0200414604C7A012C04D1146844F058
:105430001004146003E0146824F0100414608C7AE3
:10544000012C04D1146844F00804146003E01468CB
:1054500024F008041460CC7A012C04D1146844F0C0
:105460000404146003E0146824F0040414608C78CD
:10547000A407CD7844EA05640D7944EA05444D79E2
:1054800044EA05540D886D1E2C43D461146824F041
:1054900001041460002300E05B1C546804F0010464
:1054A0001CB14FF6FF74A342F6D1546804F0010416
:1054B0000CB1002000E0012030BD10B50021837A3E
:1054C000012202FA03F1AC4A126842F00102AA4B2F
:1054D0001A60A94A1C3212688A43A74B1C331A600F
:1054E000027BCAB9A44A0C3212688A43A24B0C331D
:1054F0001A604288C38842EA03439F4A4032847A52
:1055000042F834300288838842EA03439A4A4032A0
:10551000847A02EBC4025360027B012A19D1964AB5
:105520000C3212680A43944B0C331A604288038889
:1055300042EA0343904A4032847A42F83430C288C7
:10554000838842EA03438C4A4032847A02EBC402E5
:105550005360C27A3AB9884A121D12688A43864B50
:105560001B1D1A6006E0844A121D12680A43824B12
:105570001B1D1A60028932B97F4A143212688A43AD
:105580007D4B14331A600289012A06D17A4A1432FB
:1055900012680A43784B14331A60427B012A06D101
:1055A000754A1C3212680A43734B1C331A60724AE4
:1055B000126822F00102704B1A6010BD0021817147
:1055C000C171017241728172C1728170C170032117
:1055D000017102214171012101807047664909680A
:1055E00041F00101644A11601146096843F60E72E8
:1055F0009143614A11601146096841EA0021116036
:105600001146096821F001011160704721B102685B
:1056100042F48032026003E0026822F480320260C9
:105620007047E1B1026842F0800202604FF4C2723A
:10563000125842F480734FF4C27213504FF4CA727E
:10564000125842F480734FF4CA7213504FF4D2725E
:10565000125842F480734FF4D27213501BE0026868
:1056600022F0800202604FF4C272125822F480735A
:105670004FF4C27213504FF4CA72125822F480735E
:105680004FF4CA7213504FF4D272125822F480733E
:105690004FF4D2721350704710B502460020936841
:1056A00003F08063B3F1806F00D110E0936803F0E2
:1056B0000063B3F1006F01D1012008E0936803F0AB
:1056C0008053B3F1805F01D1022000E00420042860
:1056D00079D002F5C07303EB00131B6803F00104DB
:1056E00002F5C07303EB00131C600B7A7BB94B7A95
:1056F0000C8843EA445302F5C07404EB0014246898
:10570000234302F5C07404EB0014236010E00B7A0D
:105710004C6843EAC4034C7A234302F5C07404EB9B
:1057200000142468234302F5C07404EB00142360C2
:105730008B7A03F00F038B7202F5C07303EB001337
:105740005B6823F00F0402F5C07303EB00135C6089
:1057500002F5C07303EB00135B688C7A234302F5F8
:10576000C07404EB001463608B7B1C064B7B44EA23
:10577000034403E000640040006600400B7B44EA01
:105780000323CC7A234302F5C07404EB0014A36016
:105790008B7C1C064B7C44EA03440B7C44EA0323C9
:1057A000CC7B234302F5C07404EB0014E36002F5E4
:1057B000C07303EB00131B6843F0010402F5C073D0
:1057C00003EB00131C6010BD10B50246002321B18D
:1057D000012907D002290FD109E09068F94C00EAAD
:1057E00004030BE09068F84C00EA040306E09068BC
:1057F000F64C00EA040301E0002300BF00BFF44CB4
:10580000181BA34216D007DC83B16FF080601844E8
:1058100070B1022818D111E0B0F5007F10D0ED4C26
:10582000204448B1B0F5003F0ED10BE002230DE05B
:1058300000230BE0002309E0002307E0012305E03B
:10584000012303E0012301E0002300BF00BFD8B221
:1058500010BD21B1012907D002290FD109E08268CA
:1058600042F0800282600AE0826842F40042826074
:1058700005E0826842F40002826000E000BF00BFE1
:10588000704710B500F5D87303EB01131B6803F0E4
:1058900004031372137A53B900F5D87303EB0113A1
:1058A0001B6840F2FF7404EA5353136009E000F5EB
:1058B000D87303EB01131B686FF0604404EAD30351
:1058C000536000F5D87303EB01131B6803F0020368
:1058D000537200F5D87303EB01135B6803F00F03F9
:1058E000937200F5D87303EB01135B681B0AD37442
:1058F00000F5D87303EB01139B68D37200F5D873DE
:1059000003EB01139B681C0A147300F5D87303EBB7
:1059100001139B681C0C547300F5D87303EB01133F
:105920009B681B0E937300F5D87303EB0113DB68C0
:10593000D37300F5D87303EB0113DB681C0A1474EE
:1059400000F5D87303EB0113DB681C0C547400F5ED
:10595000D87303EB0113DB681B0E937421B9C36882
:1059600043F02003C36003E0036943F020030361B5
:1059700010BD21B9C26842F02002C26003E0026992
:1059800042F02002026170470246002019B9D36834
:1059900003F0030006E0012903D1136903F00300BB
:1059A00000E00020704710B502460B4600204FF67D
:1059B000FF71BBB9146824F0020444F001041460C0
:1059C00000E0491E546804F00304012C01D00029B2
:1059D000F7D1546804F00304012C01D0002032E018
:1059E000012030E0012B13D1146824F0030414606B
:1059F00000E0491E546804F003040CB10029F8D1FA
:105A0000546804F003040CB100201CE001201AE0EB
:105A1000022B17D1146824F0010444F0020414602E
:105A200000E0491E546804F00304022C01D0002950
:105A3000F7D1546804F00304022C01D0002002E0E6
:105A4000012000E0002010BD014600200A6822F07D
:105A5000010242F002020A604A6802F00302022ACE
:105A600000D10120704701464FF6FF7200200B68FD
:105A700023F002030B6000E0521E4B6803F00203A8
:105A8000022B01D1002AF7D14B6803F00203022B4D
:105A900000D001207047014600208A6902F07000A2
:105AA0007047014600208A69100E704701460020A9
:105AB0008A69C2F3074070471AB143690B434361D7
:105AC00002E043698B434361704710B502460020F2
:105AD00001F4700343B19369C1F3130423400BB184
