:020000040800F2
:10000000A05600205D020008532800085D24000867
:1000100051280008B5030008A52D000800000000C5
:100020000000000000000000000000009D0100082A
:100030004905000800000000F901000895280008A3
:1000400077020008770200087702000877020008AC
:10005000770200087702000877020008770200089C
:1000600077020008770200087702000861040008A0
:100070006D04000879040008770200088504000870
:100080009104000877020008770200087702000850
:10009000B903000877020008770200087702000819
:1000A000770200087702000877020008770200084C
:1000B000770200087702000877020008770200083C
:1000C000770200087702000877020008770200082C
:1000D00077020008F12C0008012D00080D2D000802
:1000E00077020008770200087702000861290008FB
:1000F0006D29000877020008770200089D040008B7
:1001000077020008770200087702000877020008EB
:10011000AD2A0008B92A000855290008770200080E
:1001200077020008A9040008B50400087702000857
:1001300077020008000000000000000077020008BD
:1001400077020008550400087702000877020008CB
:1001500077020008C104000877020008192D000882
:10016000770200087702000877020008770200088B
:10017000770200087702000800000000000000007D
:100180007702000877020008DFF80CD000F000F9D1
:1001900000480047092E0008A05600202C4B196883
:1001A0000868B0E8F04F80F30988BFF36F8F4FF015
:1001B000000080F3118870470000000008480068C4
:1001C000006880F308884FF0000080F3148862B65E
:1001D00061B6BFF34F8FBFF36F8F00DF00BF00BF6B
:1001E00008ED00E0DFF80C00016841F470010160E7
:1001F000704700BF88ED00E0EFF30980BFF36F8F19
:10020000134B1A681EF0100F08BF20ED108A20E96A
:10021000F04F106009B44FF0500080F31188BFF325
:100220004F8FBFF36F8F03F0C9FC4FF0000080F3D6
:10023000118809BC19680868B0E8F04F1EF0100F6B
:1002400008BFB0EC108A80F30988BFF36F8F704746
:100250003C000020EFF3058070470000064880470F
:1002600006480047FEE7FEE7FEE7FEE7FEE7FEE79B
:10027000FEE7FEE7FEE7FEE74529000889010008E2
:100280002DE9F05F0546002092469B4688460646CB
:10029000814640241BE0284641464746224600F05E
:1002A00066F853465A46C01A914110D31146184673
:1002B000224600F016F82D1A67EB01084F46224639
:1002C0000120002100F00DF817EB00094E41201E1F
:1002D000A4F10104DFDC484631462A464346BDE826
:1002E000F09F202A04DB203A00FA02F10020704738
:1002F0009140C2F1200320FA03F319439040704764
:1003000040EA01039B0703D009E008C9121F08C097
:10031000042AFAD203E011F8013B00F8013B521E17
:10032000F9D27047D2B201E000F8012B491EFBD28E
:1003300070470022F6E710B513460A4604461946F0
:10034000FFF7F0FF204610BD00F0004230F0004003
:100350000AD0C10D01F56071C0F3160042EA0151E7
:10036000C208400711437047002001467047202A09
:1003700004DB203A21FA02F00021704721FA02F34F
:10038000D040C2F120029140084319467047000056
:10039000064C074D06E0E06840F0010394E80700D2
:1003A00098471034AC42F6D3FFF7F2FE9C460008A3
:1003B000BC460008FEE70000014800F09FBA0000BC
:1003C000BC0000201F494868401C48601E4909685D
:1003D000A1F20121082934D2DFE801F004080D124E
:1003E000181E252B174A194910320DE0154A1749D6
:1003F0001032503108E0134A14491032A03103E0A2
:10040000104A12491032F03102F029B80D4A4FF467
:10041000AD7310320E4912E00A4A0D49103240F60F
:10042000121350310BE0074A0849CF231032A0398C
:1004300005E0044A0549103241F27C33503900F09E
:1004400043B97047140000207C09002020080020D8
:10045000E0060020014800F051BA0000E40000204E
:10046000014800F0E7BC0000F4030020014800F060
:10047000E1BC000074050020014800F0DBBC000076
:1004800034030020014800F0D5BC00009403002094
:10049000014800F0CFBC000014050020014800F026
:1004A000C9BC000054040020014800F0C3BC000097
:1004B000D4050020014800F0BDBC0000B4040020B9
:1004C000014800F0B7BC0000340600200168182382
:1004D000CAB2103AB2FBF3F2054B6FF30901032ADB
:1004E0009B5CC36500D9091D816508467047000003
:1004F0006046000810B5014600208B698A6A4FF0FB
:10050000C07453B1B3F5005F15D072B1012A0CD09D
:10051000022A0AD0032A09D104E01AB1012A06D01E
:10052000022A03D1C96AC90100D5012010BDC96AD8
:10053000A142FAD010BD002AF7D0012AF2D0022A37
:10054000F3D0032AF3D010BD704700002DE9F0412D
:100550000446002500680F462E466060088840BAB1
:10056000206020686168401AE060E06810F5805FF4
:1005700006DAA06B401CA063E06800F500500BE0B9
:10058000E068B0F5805F06DDA06B401EA063E06808
:10059000A0F5005000E0E068E0612068A16B00EB8E
:1005A0004130A0602068A169401A00EE100AA06BDB
:1005B000F8EEC00A4FF4B471484300EE100A9FED04
:1005C000151AB8EEC00A00EE810A10EE100AFFF705
:1005D000BBFE41EC100B84ED100BE169207D04EBB8
:1005E0008002401C20751162207D062801D1002068
:1005F000207504EB8500006A6D1C0644062DF8DBAF
:10060000062096FBF0F0E063788840BAA4F84C002E
:10061000BDE8F081FFFF333D72B6FEE770B50446DA
:1006200000680D466060088840BA206020686168F4
:10063000401AE060E06810F5805F06DAA06B401CAD
:10064000A063E06800F500500BE0E068B0F5805F63
:1006500006DDA06B401EA063E068A0F5005000E03E
:10066000E068E0612068A16B00EB4130A060206889
:10067000A169401A00EE100AA06BF8EEC00A4FF410
:10068000B471484300EE100A9FED0E1AB8EEC00A8E
:1006900000EE810A10EE100AFFF756FE41EC100B37
:1006A00084ED100B688840BAE063E06BB0F57A7FA8
:1006B00004DBE06BA0F57F40FF38E063A879A0641D
:1006C00070BD00000000343D70B51D460C46064666
:1006D0000A2800D2A56111462046FFF79FFF642E2D
:1006E00011D8A069A168401A10F57A6F02DA05F5F1
:1006F000005507E0A069A168401AB0F57A6F02DDE5
:10070000A5F50055A56170BD098849BA8161816967
:100710008160816941600169491C01617047F0B5E0
:1007200090F820500468A468012D05D0022D03D054
:10073000416A41F4802153E014F0406F01D1E5009B
:100740004BD5C4F30164022C03D9416A41F4000182
:1007500046E00125A5401D608D684FF4C0739DB132
:10076000CE6835434E6845EAC605066803EB0417B4
:10077000F5514FF4C275076805EB04150E697E51FB
:10078000097D012905D009E00E88CD6845EA465566
:10079000EBE701684E5946F480764E511179D2F854
:1007A00005504FF4C67641EA0525016806EB0416AC
:1007B0008D511178D2F801204FF4C47541EA02211D
:1007C000026805EB04155151006803EB041142580F
:1007D00042F0010242500020F0BD416A41F4001194
:1007E00041620120F0BD704730B590F82040012CE7
:1007F00005D0022C03D0416A41F480215DE00468F9
:10080000002955D02469A40754D04FF4D874056842
:1008100004EB01142D5915F00405956005682D5958
:100820004ED0ED08556005682C5904F00204D460E0
:100830004FF4DA74056804EB01142D5905F00F0527
:10084000156105682D59C5F30725956105682C5973
:10085000240C54614FF4DC72046802EB0112A458BA
:100860001C700468A458240A5C700468A458240C02
:100870009C700468A258120EDA704FF4DE7204689D
:1008800002EB0112A4581C710468A458240A5C717C
:100890000468A458240C9C710468A258120EDA71E2
:1008A000006881B1016941F020010161002030BD83
:1008B000E468A8E7416A41F400114162012030BDBB
:1008C0006D0D1560AFE7C16841F02001C160EDE733
:1008D0000246002092F82010012901D002290CD1F3
:1008E00011688A68520100D501208A68120100D57A
:1008F000401C8968C90000D5401C70472DE9F05F95
:100900000546006800244669D0F804908768D0F84E
:100910000CB0D0F810A0D0F81880F10748D0F90733
:1009200014D001218160B80703D5284600F020FAD1
:100930000CE0780702D54FF4006407E0380702D5D1
:100940004FF4805402E0284600F011FAF80516D55D
:1009500029684FF480708860B80503D5284600F0F8
:1009600009FA0CE0780502D544F4005407E0380594
:1009700002D544F4804402E0284600F0FAF9F80376
:1009800016D529684FF480308860B80303D528460F
:1009900000F0F2F90CE0780302D544F4004407E0DB
:1009A000380302D544F4803402E0284600F0E3F92D
:1009B000300707D55FEACB6004D52968102044F4DE
:1009C0000074C86070074FF0080707D55FEA0B7026
:1009D00004D52868C760284600F09CF9B00706D502
:1009E0002868C068800702D0284600F095F9700694
:1009F00007D55FEACA6004D52968102044F48064F2
:100A00000861B00607D55FEA0A7004D52868076157
:100A1000284600F095F9F00606D528680069800799
:100A200002D0284600F08EF9B00308D55FEAC9600D
:100A300005D5296810204860284600F097F9F00392
:100A400007D55FEA097004D528684760284600F09A
:100A500094F9300446D55FEA497040D5F00504D5D5
:100A60005FEAC87001D044F00104B00504D55FEA24
:100A7000887001D544F00204700504D55FEA48701F
:100A800001D544F00404300529D518F0700F26D0A4
:100A900008F07000402815D006DC102809D0202866
:100AA0000AD0302816D10AE050280ED0602811D183
:100AB0000EE044F008040DE044F010040AE044F0B5
:100AC000200407E044F0400404E044F0800401E026
:100AD00044F480742868816921F07001816129687B
:100AE00004204860002C05D0686A204368622846CC
:100AF000FFF779FEBDE8F09F70B5040003D094F8CD
:100B0000200010B104E0012070BD204600F082F802
:100B10002068016841F00101016000F0C3FB054657
:100B2000052604E000F0BEFB401B0A2811D820680F
:100B30004068C007F6D02068016821F0020101601A
:100B400000F0B0FB05460BE000F0ACFB401B0A28B0
:100B500006D9606A40F40030606284F82060D2E711
:100B6000206840688007EFD4207E01282068016853
:100B70003DD021F080010160607E0128206801687D
:100B800038D021F040010160A07E01282068016872
:100B900033D021F020010160E07E01282068016847
:100BA0002ED041F010010160207F012820680168EB
:100BB00029D021F008010160607F012820680168C8
:100BC00024D021F004010160D4E902010843D4E9F2
:100BD0000412114308436168491E08432168C86133
:100BE00000206062012084F82000002070BD41F0E8
:100BF0008001C0E741F04001C5E741F02001CAE7AC
:100C000021F01001CFE741F00801D4E741F00401E1
:100C1000D9E70000F0B587B0044614216846FFF715
:100C200088FB374B3748DFF8D4E01968D4F800C0A8
:100C3000344A02250326092710300024491CF445B4
:100C400024D11960012907D1016841F000710160C8
:100C5000006800F000700590106840F0010010601E
:100C6000106802AB00F0010005904FF4C050CDE9D0
:100C7000000583E8D0006946234800F015FA0022F9
:100C80000521142000F0ACFB142033E0DFF87CE0F9
:100C9000F44531D1D0F800C04CF0806CC0F800C0F1
:100CA000D0F800C001290CF0806CCDF814C0196098
:100CB00007D1016841F000710160006800F0007028
:100CC0000590106840F002001060106802AB00F060
:100CD000020005904FF44050CDE9000583E8D000B4
:100CE00069460B4800F0E0F900220521412000F0A0
:100CF00077FB412000F066FB07B0F0BD00640040C8
:100D00000800002030380240000002400068004027
:100D1000000402407047000010B5064B064A00214F
:100D20000648FFF761FD002803D0BDE81040FFF73B
:100D300073BC10BD1C00002060090020BC00002016
:100D40007047000010B5064B064A01210648FFF720
:100D50004BFD08B1FFF760FCBDE81040FFF732BB68
:100D6000240000207C090020E40000207047704728
:100D70007047704770477047704770472DE9F041E2
:100D80000446876D00F08EFA064694F8350000257B
:100D9000022806D08020606584F834500120BDE828
:100DA000F0812068016821F0160101602068416926
:100DB00021F080014161206C08B9A06C20B120684D
:100DC000016821F0080101602068016821F001013B
:100DD00001600CE000F066FA801B052807D920208E
:100DE0006065032084F8350084F83450D7E7206824
:100DF0000068C007EED194F85C103F208840B860CE
:100E0000012084F8350084F834500020C7E790F8BA
:100E10003510022903D0802141650120704705214A
:100E200080F835100068016821F0010101600020A0
:100E3000704700002DE9F84304464FF00009CDF853
:100E4000009063484FF41651A56D0068B0FBF1F7B0
:100E50002E6894F85C10082000FA01F131420FD09E
:100E600021680A6852070BD50A6822F004020A605A
:100E700094F85C108840A860606D40F001006065E7
:100E800094F85C104FF0010808FA01F0304208D0E5
:100E900021684969090604D5A860606D40F0020028
:100EA000606594F85C1004208840304208D02168C6
:100EB0000968890704D5A860606D40F0040060658A
:100EC00094F85C1010208840304218D021680968DE
:100ED000090714D5A86020680168490304D5006893
:100EE000000308D5A16C07E00168C90503D40168B7
:100EF00021F008010160216C09B12046884794F86F
:100F00005C1020208840304231D021680968C90631
:100F10002DD5A86094F8350005282068016806D012
:100F2000490347D5006800031DD4616C1CE021F023
:100F3000160101602068416921F080014161206C47
:100F400008B9A06C20B12068016821F00801016097
:100F500094F85C103F208840A86084F8358084F8BD
:100F60003490216D1FE0E16B09B120468847606D28
:100F700000282BD0606DC00714D0052084F8350000
:100F80002068016821F0010101600098401C009078
:100F9000B84203D820680068C007F6D184F83580CD
:100FA00084F83490E16C002910D001B02046BDE8EF
:100FB000F04308470168C905D5D4016821F0100144
:100FC000016084F8358084F83490CCE7BDE8F8837C
:100FD000380000202DE9F041044600F063F9064690
:100FE0005CB1022084F83500002584F83450206874
:100FF000016821F0010101600DE00120BDE8F081F0
:1010000000F050F9801B052805D9202060650320D9
:1010100084F83500F2E720680068C007F0D1226844
:10102000116820480140D4E901031843D4E903368C
:101030003343184363691843A3691843E3691843AA
:10104000236A18430843616A042903D1D4E90B13C6
:1010500019430843106020684069666A20F0070160
:1010600030460E43012704280CD1A06A0643E06AEB
:1010700040B12046FFF73EFA20B14020606584F879
:101080003570BAE7206846612046FFF71FFA94F8EA
:101090005C203F2191408160656584F835700020B7
:1010A000ACE700003F8010F02DE9F84FDFF8BCA15D
:1010B0000022012503264FF00F090AF1040BAAF1C3
:1010C000040E00BF0B6805FA02F42340A34270D15E
:1010D0000F7907F00307012F01D0022F16D187687F
:1010E0004FEA420806FA08FC27EA0C07D1F80CC0C0
:1010F0000CFA08FC4CEA070CC0F808C04768A74384
:101100000C79C4F3001494403C4344600C79E443EC
:10111000A4070AD0C4684FEA420C06FA0CF7BC4395
:101120008F6807FA0CF72743C7600C7904F00304B3
:10113000022C12D1D40800EB840CDCF820405707B5
:10114000FF0E09FA07F824EA0804D1F8108008FA1B
:1011500007F848EA0408CCF8208004684FEA420CFB
:1011600006FA0CF7BC430F7907F0030707FA0CF7F0
:10117000274307604C6814F4403F70D03C4C27680C
:1011800047F480472760246822F0030704F4804472
:101190000094384C07EB040CDCF8084897074FEA3A
:1011A000177809FA08F7BC43334FB84202D1002739
:1011B00024E054E0314FB84201D101271EE0304F06
:1011C000B84201D1022719E02E4FB84201D10327BE
:1011D00014E02D4FB84201D104270FE02B4FB84245
:1011E00001D105270AE02A4FB84201D1062705E0C0
:1011F000284FB84201D1072700E0082707FA08F76F
:101200002743CCF80878DAF800405746D1F804C0F4
:101210009C435FEACC2C00D51C433C60DBF80040CB
:101220005F46D1F804C09C435FEA8C2C00D51C4378
:101230003C60DEF800407746D1F804C09C435FEA8A
:101240008C3C00D51C433C60084F083F3C68D1F8FB
:1012500004C09C435FEACC3C00D51C433C60521C5C
:10126000102AFFF42FAFBDE8F88F0000083C0140C2
:1012700044380240003001400000024000040240B7
:1012800000080240000C024000100240001402401E
:1012900000180240001C02400AB181617047090435
:1012A000FBE7000001488068704700002C00002028
:1012B0000248816802781144816070472C00002048
:1012C0000B4810B5016841F400710160016841F4F8
:1012D00080610160016841F480710160032000F0C9
:1012E0009FF80F2000F006F800F050F8002010BD25
:1012F000003C024030B505461F4887B00024016815
:1013000041F010010160006806A900F01000009093
:1013100001A800F031F90498A8B100F04DF940009F
:101320001649174AB0FBF1F11648491E026040F217
:10133000E732C0E90324C0E90114846100F044FBF2
:10134000040003D015E000F037F9E9E70D4800F09C
:101350009BFB04000DD1362000F034F8102D07D28D
:1013600000222946362000F03BF80748056000E0DF
:10137000012407B0204630BD4038024040420F00F3
:101380000010004094060020300000200C4882B07D
:10139000016841F480410160006800F480400090E1
:1013A0000748001F016841F0805101600068002279
:1013B00000F0805000900F21901E02B000F010B895
:1013C00044380240002809DB00F01F02012191404F
:1013D0004009800000F1E020C0F8001170470000D3
:1013E000F0B40E4B1B680C46C3F30223C3F1070590
:1013F000042D00D90425191D072901D2002300E07E
:10140000DB1E012606FA05F1491E214099409E4047
:10141000761E16403143F0BC01F0C5BC0CED00E077
:10142000064900F0070208684FF6FF03184040EA3B
:101430000220034A10430860704700000CED00E0F2
:101440000000FA052DE9F0470E46050065D0DFF8EB
:101450001481D8F80000F7B200F00700B04207D2BC
:1014600088F80070D8F8000000F00700B04254D1AE
:1014700028683D4C810712D5400703D5206840F409
:10148000E05020602878000703D5206840F46040D1
:1014900020602068A96820F0F000084320602878C8
:1014A000C0072DD0304968680839012812D00228B9
:1014B00013D0032811D00968890700292DDA216883
:1014C00021F0030101432160FFF7ECFE814641F268
:1014D000883A0EE009688903EFE709688901ECE7BB
:1014E000FFF7E0FEA0EB0901514502D90320BDE85A
:1014F000F0872068696800F00C00B0EB810FEFD135
:10150000D8F80010404601F00701B14207D9077032
:10151000006800F00700B04201D00120E7E728781A
:10152000400705D52068E96820F4E05008432060B2
:101530002878000706D52068296920F4604040EA31
:10154000C100206000F058F82168084AC1F3031177
:10155000515CC8400649086006480068FFF7CAFEAB
:101560000020C4E7003C02400838024068460008FA
:1015700038000020300000200F2202600C4A13685F
:1015800003F003034360136803F0F0038360136800
:1015900003F4E053C36012684FF4E05303EAD2024D
:1015A00002610448006800F007000860704700000E
:1015B00008380240003C02400448054900680968B8
:1015C000044AC1F38221515CC840704738000020B2
:1015D0000838024078460008044805490068096850
:1015E000044AC1F34231515CC840704738000020C2
:1015F0000838024078460008154810B5006810F019
:101600000C02144813D04110042A0FD0082A0ED11E
:101610000F4C241F2268236802F03F025B0207D5AB
:101620002068C0F38810A0FB010106E0084610BD49
:101630002168C1F38811A1FB00010023FEF720FE01
:101640002168C1F30141491C4900B0FBF1F010BD14
:10165000083802400024F4002DE9F84F04006ED051
:101660002078DFF84C93C007A9F104054AD009F1AE
:1016700004000168C1F38101012908D00068C0F3AA
:10168000810002280AD1D9F80000400206D5286856
:10169000800337D560680028E1D033E06068B0F59A
:1016A000803F10D0B0F5A02F286810D020F48030F3
:1016B0002860286820F4802028606068A8B1FFF7BF
:1016C000F1FD06460DE0286840F48030F4E740F470
:1016D00080202860F7E700BFFFF7E4FD801B642847
:1016E00073D828688003F7D50CE0FFF7DBFD0646CA
:1016F00005E000BFFFF7D6FD801B6428F0D82868FE
:101700008003F7D42078DFF8AC8280074FF0000A1E
:101710003ED5A748001D016811F00C0F08D00068E5
:10172000C0F3810002280BD1D9F80000400207D491
:101730002868800716D5E068012800D112E033E15F
:10174000E068B8B10120C8F80000FFF7ABFD06461D
:1017500005E000BFFFF7A6FD801B0228C0D828685F
:101760008007F7D52868216920F0F80040EAC10019
:1017700028600DE0C8F800A0FFF794FD064604E0DD
:10178000FFF790FD801B02281FD828688007F7D438
:101790002078000722D5864F87486169703771B17C
:1017A00001210160FFF77EFD064604E0FFF77AFDA8
:1017B000801B022809D838688007F7D50EE0C0F8EA
:1017C00000A0FFF76FFD064605E082E0FFF76AFD27
:1017D000801B02287DD838688007F7D4207840071E
:1017E00068D5DFF8CCB100270BF13C0BDBF800002B
:1017F000C0000BD4DBF8001041F08051CBF8001092
:10180000DBF80000012700F0805000906B4E30683C
:10181000C00510D4306840F480703060FFF742FD9E
:10182000009005E0FFF73EFD0099401A022850D8CD
:101830003068C005F6D55E4EA0686C3601280FD022
:101840000528306810D020F001003060306820F0AA
:1018500004003060A068B8B1FFF724FD00900FE0ED
:10186000306840F00100F4E740F004003060F7E732
:10187000FFF718FD0099411A41F28830814266D87D
:1018800030688007F4D50EE0FFF70CFD009007E00C
:10189000FFF708FD0099411A41F28830814256D87D
:1018A00030688007F4D42FB1DBF8001021F08051AC
:1018B000CBF80010A069C8B33D49091D0968C1F300
:1018C000810102294AD00228504607D0C8F860009A
:1018D00000E03CE0FFF7E6FC04463BE04746C8F882
:1018E0006000FFF7DFFC064605E000BFFFF7DAFC0B
:1018F000801B02282BD828688001F7D4D4E907017F
:101900000843A16A2E4A490802EB0141626A41EA92
:101910008211084394F82C1040EA0161C9F80010C4
:1019200001203866FFF7BEFC044606E03EE000BF3B
:10193000FFF7B8FC001B022809D828688001F7D5FA
:1019400034E000BFFFF7AEFC001B022802D90320E1
:10195000BDE8F88F28688001F4D427E00128F7D08B
:10196000D9F80000E26900F4800191421CD1226A9A
:1019700000F03F01914217D147F6C071626A014001
:10198000B1EB821F10D1A26A4FF0FF3300F4403157
:1019900003EB5202B1EB024F06D194F82C1000F089
:1019A0007060B0EB016F01D00120D1E70020CFE7DC
:1019B0000438024000004742800E47420070004059
:1019C0000000FFFF7047704710B5040003D094F883
:1019D0003D0010B107E0012010BD002084F83C005C
:1019E000204600F01FF8022084F83D00211D2068E9
:1019F00000F0C2FF012084F8460084F83E0084F81D
:101A00003F0084F8400084F8410084F8420084F8E4
:101A1000430084F8440084F8450084F83D00002029
:101A200010BD000008B5154A0168154891420ED155
:101A3000016841F0400101600068002200F04000B0
:101A4000009005212B20FFF7CBFC2B2010E00D4A46
:101A5000914211D1016841F08001016000680022CB
:101A600000F08000009005212C20FFF7B9FC2C200D
:101A7000BDE80840FFF7A6BC08BD00000018004004
:101A800040380240001C004090F83D10012901D070
:101A900001207047022180F83D100168CA6842F0B9
:101AA0000102CA6000681149884214D0B0F1804F29
:101AB00011D00F4988420ED00E4988420BD00E49F2
:101AC000884208D00D49884205D00D49884202D08D
:101AD0000C49884204D1816801F00701062903D02E
:101AE000016841F0010101600020704700000140E1
:101AF0000004004000080040000C004000040140C9
:101B0000004001400018004070B5044690F83C00C9
:101B10000025012817D0012684F83C60022084F8B3
:101B20003D002068826822F0770222F47F428260C2
:101B30000868502838D00DDC20284FD005DC90B341
:101B4000102811D14AE0022070BD302846D040282C
:101B50000AD13BE060282FD070280DD0B0F5805F0F
:101B600003D0B0F5005F12D0012584F83D6000205D
:101B700084F83C00284670BDCB68D1E9012120687B
:101B800000F05EFF2068816841F0770109E0CB68D2
:101B9000D1E90121206800F053FF2068816841F4F9
:101BA00080418160E1E719E0CA684968206800F077
:101BB00059FF5021206806E0CA684968206800F093
:101BC00062FF6021206800F045FFCEE7CA684968DF
:101BD000206800F047FF40212068F4E722680146B2
:101BE0001046F0E7704770B50446006801694FF091
:101BF0000005C943890715D4C168C943890711D4B1
:101C0000E91E016101202077206880698007204655
:101C100002D0FFF7E7FF04E000F098F8204600F05C
:101C200096F8257720680169C943490717D4C16828
:101C3000C943490713D46FF00401016102202077E2
:101C40002068806910F4407F204602D0FFF7CAFF69
:101C500004E000F07BF8204600F079F82577206852
:101C60000169C943090716D4C168C943090712D4D9
:101C70006FF008010161042020772068C0698007A7
:101C8000204602D0FFF7AEFF04E000F05FF82046E8
:101C900000F05DF8257720680169C943C90617D4AB
:101CA000C168C943C90613D46FF01001016108204F
:101CB00020772068C06910F4407F204602D0FFF7EB
:101CC00091FF04E000F042F8204600F040F825774C
:101CD00020680169C943C90708D1C168C943C90758
:101CE00004D1891E0161204600F032F820680169A4
:101CF000C943090609D4C168C943090605D46FF070
:101D0000800101612046FFF75DFE20680169C9433B
:101D1000490609D4C168C943490605D46FF040019A
:101D20000161204600F01EF820680169C943890658
:101D30000BD4C168C943890607D46FF02001016143
:101D40002046BDE87040FFF73EBE70BD704770474B
:101D500000680349884201D1FFF7AABA7047000022
:101D6000001000407047704770470000F8B50168E8
:101D700004460868CA684B6910F00F0F4FF0000561
:101D800059D003F0010602F49077374365D0C107BC
:101D900005D0D10503D5216C41F001012164410733
:101DA00005D5D90703D0216C41F0020121648107D8
:101DB00005D5D90703D0216C41F004012164010746
:101DC00007D502F02001314303D0216C41F0080116
:101DD0002164216C00293AD0800604D5900602D5F2
:101DE000204600F09EFE20684069216CC0F3801000
:101DF000090700D460B3204600F06CFE20684069FB
:101E0000400621D52068143050E8001F21F0400121
:101E100040E80012002AF5D1A06BA8B16C49016519
:101E2000A06BFEF7F4FF002811D0A06B016D01B08C
:101E3000BDE8F040084783060FD593060DD5204630
:101E4000BDE8F84000F06DBE2046FFF78DFFF8BDFD
:101E50002046FFF789FF2564F8BD266B2023012E5D
:101E600079D1C60677D5D60675D50868486800903A
:101E70004869400640D5A16B086840680004000C22
:101E8000EAD0A28D8242E7D9E085C869B0F5807FAB
:101E90002DD020680C3050E8001F21F4807140E8FC
:101EA0000012002AF5D12068143050E8001F21F0FC
:101EB000010140E80012002AF5D12068143050E8F2
:101EC000001F21F0400140E80012002AF5D184F8FB
:101ED0003E30256320680C3050E8001F21F01001CF
:101EE00040E80012002AF5D1A06BFEF747FFA08D55
:101EF000E18D401A81B229E0A08DE18D401A81B2B6
:101F0000E08D0028A8D00029A6D020680C3050E829
:101F1000002F22F4907240E80026002EF5D12068B0
:101F2000143050E8002F22F0010240E80026002E75
:101F3000F5D184F83E30256320680C3050E8002F3E
:101F400022F0100240E80023002BF5D12046FFF7D5
:101F50000AFFF8BDFFE705062BD5150629D594F82D
:101F60003D002128F5D1A068B0F5805F01D120693E
:101F7000B0B1206A411C2162216800784860E08C81
:101F8000401E0004000CE084E3D12068C16821F009
:101F90008001C1602068C16841F04001C160D8E79C
:101FA000206A0088C0F308004860206A801C206214
:101FB000E5E74006CDD55006CBD5CA68204622F0CD
:101FC0004002CA6084F83D3000F047FAC1E70000E3
:101FD000C52A000870B5040004D094F83D0000251F
:101FE00010B106E0012070BD84F83C50204600F09E
:101FF00023F8242084F83D002068C16821F40051B2
:10200000C160204600F0EEFD2068016921F4904196
:1020100001612068416921F02A0141612068C1689D
:1020200041F40051C1602564202084F83D0084F80B
:102030003E00002070BD00002DE9F04F87B004463F
:1020400014216846FEF775F9F448DFF8CC831038A0
:10205000D4F800C0F14B032102220827DFF8C0E3C7
:10206000002506154FF0400B4FF00069C44549D1DB
:10207000D3F800C04CF4002CC3F800C01B6803F474
:1020800000230593036843F001030360006800F038
:10209000010005908DE82600CDE9031769467046DA
:1020A000FFF702F8E04FDF483860C7E90195C7E95C
:1020B00003567D61BD61FD613D6238467D62FEF77C
:1020C00089FF08B1FEF7A8FAA763BC63D64FD548CD
:1020D00060373030C7E903567D61BD61FD613D6207
:1020E0007D6287E8010A3846FEF774FF08B1FEF703
:1020F00093FA6763002205213420BC63FFF770F96F
:10210000342071E0DFF82483C44573D1D3F800C0D4
:1021100000254CF4801CC3F800C01B6803F4801336
:102120000593036843F004030360036803F00403AA
:102130000593036843F00803036000688A4600F0D3
:10214000080005904FF48050CDE90002CDE9025A15
:10215000904669460497B648FEF7A6FF0420CDE9ED
:102160000008CDE9025A69460497B248FEF79CFF81
:10217000DFF8B482AB4908F1C00830394046C8F8EE
:102180000010C0E90195C0E90356C8F81450C8F81A
:102190001850C8F81C50C8F820504F46C8F82450B2
:1021A000FEF718FF08B1FEF737FA9E48A24DC4F8B3
:1021B00038807830C8F8384085E881080020C5E9C3
:1021C00003066861A861E861286268622846FEF734
:1021D00001FF08B1FEF720FA6563002205213520D2
:1021E000AC63FFF7FDF83520FFF7ECF807B0BDE86A
:1021F000F08FFFE7DFF844824FF0070AC4453CD177
:10220000864B1B1D1F6847F010071F601B6803F0FB
:1022100010030593036843F0010303600068CDE9F0
:10222000025100F0010005904FF4C060CDE90002BA
:10223000CDF810A069467046FEF736FF7E4F804805
:1022400060373860C7E90195C7E9035680157D619D
:10225000C7E906504FF44030C7E908053846FEF795
:10226000B9FE08B1FEF7D8F9A763002205212520A1
:10227000BC63FFF7B5F82520B6E7DFF8C881C44591
:1022800037D11F6847F400371F601B6803F4003321
:102290000593036843F0010303600068CDE9025130
:1022A00000F0010005900C20CDE90002CDF810A04F
:1022B00069467046FEF7F8FE5F4F5A48C03748300F
:1022C0003860C7E90195C7E903567D61BD61FD61CD
:1022D0003D6238467D62FEF77DFE08B1FEF79CF94F
:1022E000A763002205212620BC63FFF779F826208A
:1022F0007AE7DFF85481C44537D11F6847F4802757
:102300001F601B6803F480230593036843F00203F6
:1023100003600068CDE9025100F0020005904FF41F
:102320004060CDE90002CDF810A069464748FEF7AD
:10233000BBFE3C48464F18383860C7E90195C7E9ED
:1023400003567D61BD61FD613D6238467D62FEF7E9
:1023500041FE08B1FEF760F9A7630022052127209E
:10236000BC63FFF73DF827203EE73A4B9C457FF4DE
:102370003DAF2A4B1B1DD3F800C04CF0200CC3F816
:1023800000C01B6803F020030593036843F00403B7
:1023900003600068CDE9025100F004000590C02000
:1023A000CDE90002049769462148FEF77DFE284FDB
:1023B00023486037183838604FF02068C7E9018536
:1023C000C7E903567D61BD61FD613D6238467D62AE
:1023D000FEF700FE08B1FEF71FF9A763BC631C4FB0
:1023E0001748C0376030C7E903567D61BD61FD61A4
:1023F0003D627D6287E801093846FEF7EBFD08B1D2
:10240000FEF70AF96763002205214720BC63FEF747
:10241000E7FF4720E8E60000004C0040403802405B
:1024200000000240406002403403002000500040A1
:1024300000080240000C024054040020001001403B
:102440004064024000440040004800400004024054
:10245000740500200014014070477047FEE70B46EA
:1024600032281146184601D8FEF74EB9FEF76EB86D
:10247000104810B50E4901600321416000214FF45E
:1024800000228160C0E903124FF4401242610176DC
:10249000012242768176C17601774177FEF72CFBE7
:1024A000002803D0BDE81040FEF7B6B810BD00000C
:1024B00000640040BC000020104810B50E490160C7
:1024C0000321416000214FF400228160C0E9031222
:1024D0004FF4401242610176012242768176C17644
:1024E00001774177FEF708FB002803D0BDE81040D4
:1024F000FEF792B810BD000000680040E400002024
:102500002D4808B5016841F400110160016801F42B
:1025100000110091016841F480010160006800220F
:1025200000F48000009005210B20FEF759FF0B20DE
:10253000FEF748FF002205210C20FEF751FF0C207A
:10254000FEF740FF002205210D20FEF749FF0D2078
:10255000FEF738FF002205210F20FEF741FF0F2074
:10256000FEF730FF002205211020FEF739FF102072
:10257000FEF728FF002205212F20FEF731FF2F2034
:10258000FEF720FF002205213920FEF729FF392020
:10259000FEF718FF002205213A20FEF721FF3A201E
:1025A000FEF710FF002205214520FEF719FFBDE8C8
:1025B00008404520FEF706BF3038024010B5074AF4
:1025C0000021074800F07EFC064C044A00212060F0
:1025D0002432054800F076FC606010BD1846000803
:1025E0008D28000800000020E52D000830B587B0D8
:1025F00014216846FDF79DFE1D480024016841F046
:1026000080010160016801F080010591016841F0DD
:1026100004010160016801F004010591016841F0C5
:1026200001010160016801F001010591016841F0BB
:1026300002010160016801F002010591016841F0A9
:102640000801016000680B4D00F0080005900022B1
:1026500006212846FEF720FE062000900120CDE945
:102660000104694628460394FEF71EFD07B030BDFD
:1026700030380240000802401FB500211048009188
:10268000019102910D4A0391026040F2A312C0E948
:1026900001216322C0E903218161FFF795F908B1A7
:1026A000FDF7BAFF4FF48050009069460448FFF7E9
:1026B0002BFA002801D0FDF7AFFF1FBD0018004026
:1026C0000C0100200C4810B50A49016042F2CF010C
:1026D0004160002142F20F72C0E902120161816182
:1026E000FFF772F9002803D0BDE81040FDF794BF52
:1026F00010BD0000001C0040540100200C4810B523
:102700000A4901604FF4E1314160002181600C22EF
:10271000C160C0E904128161C161FFF75BFC002860
:1027200003D0BDE81040FDF777BF10BD004C00405E
:102730009C0100200C4810B50A4901604FF4E131BA
:102740004160002181600C22C160C0E904128161F6
:10275000C161FFF73FFC002803D0BDE81040FDF742
:102760005BBF10BD00500040E00100200C4810B5D8
:102770000A4901600B494160002181600C22C1605F
:10278000C0E904128161C161FFF724FC002803D075
:10279000BDE81040FDF740BF10BD00000010014033
:1027A00024020020A08601000C4810B50A490160EF
:1027B0004FF4E1314160002181600C22C160C0E929
:1027C00004128161C161FFF705FC002803D0BDE858
:1027D0001040FDF721BF10BD0044004068020020FA
:1027E0000C4810B50A4901604FF4E1314160002105
:1027F00081600C22C160C0E904128161C161FFF7F0
:10280000E9FB002803D0BDE81040FDF705BF10BD6F
:1028100000480040AC0200200C4810B50A49016095
:102820004FF4E1314160002181600C22C160C0E9B8
:1028300004128161C161FFF7CDFB002803D0BDE820
:102840001040FDF7E9BE10BD00140140F002002069
:10285000FEE7FEE77CB50C4C0E0A069D2670617003
:10286000110AA170E270190A21716371290AA1711C
:102870000022E57140F2FF11CDE900121346082253
:10288000214600F04FFA7CBD0C000020012000F032
:10289000DEFAFBE710B54FF0E020006901F006FD1D
:1028A000012803D0BDE8104001F034BA10BD00008B
:1028B00030B593B030216846FDF73BFD14210CA8DC
:1028C000FDF737FD1D480025016841F0805101608A
:1028D000006800F0805011901948016841F480416F
:1028E00001600068022400F48040119001200390F0
:1028F00010200490009406940820CDE90750A820E9
:10290000CDE9090404200B906846FEF7A5FE08B146
:1029100072B6FEE70CA90F2081E831004FF4A050F9
:102920000F904FF48050109005210CA8FEF78AFDFF
:10293000002801D072B6FEE713B030BD4038024027
:10294000007000400248016841F470010160704766
:1029500088ED00E00148FFF746B90000940600202A
:102960000148FFF740B900000C0100200148FFF7C3
:102970003AB9000054010020F0B50268254C264DFC
:10298000264E274F274B4FF0804CA04209D0604580
:1029900007D0A84205D0B04203D0B84201D0984237
:1029A00004D122F0700E4A6842EA0E02A0421BD007
:1029B000604519D0A84217D0B04215D0B84213D004
:1029C000984211D0184DA8420ED0184DA8420BD0F5
:1029D000174DA84208D0174DA84205D0164DA84261
:1029E00002D0164DA84203D122F44075CA682A438A
:1029F0004D6922F080022A4302608A68C2620A6836
:102A00008262A04201D0984201D10969016301218B
:102A10004161F0BD0000014000040040000800409A
:102A2000000C00400004014000400140004401400F
:102A30000048014000180040001C004000200040F9
:102A400010B5846842EA032224F47F440A432243F7
:102A5000826010BD826822F070020A4342F00701D2
:102A60008160704710B5036A046A24F001040462AF
:102A7000846924F0F00444EA021423F00A020A43B1
:102A80008461026210BD10B5036A23F01003036273
:102A90008369046A23F4704343EA023224F0A003FA
:102AA00043EA01118261016210BD00000148FFF795
:102AB0005DB900009C0100200148FFF757B90000F4
:102AC000E001002010B5806B0021C185C184FFF7B3
:102AD0004BF910BD01680C3151E8002F22F49072BF
:102AE00041E80023002BF5D10168143151E8002F93
:102AF00022F0010241E80023002BF5D1016B0129EE
:102B000009D101680C3151E8002F22F0100241E890
:102B10000023002BF5D1202180F83E100021016315
:102B2000704708B590F83E10222901D0022008BD58
:102B300082684FF480539A4201D1016921B1816AC0
:102B40009A421BD04AB10AE00268816A5268C2F315
:102B500008020A80816A891C08E0026972B1026871
:102B6000526802F07F020A70816A491C8162C18D3D
:102B7000491E0904090CC18503D019E00268526896
:102B8000F1E70168CA6822F02002CA600168CA68D9
:102B900022F48072CA6001684A6922F001024A6127
:102BA000202180F83E10016B012903D0FFF754FC6F
:102BB000002008BD0021016301680C3151E8002F9D
:102BC00022F0100241E80023002BF5D101680A68C9
:102BD000D20602D50A6849680091818DFFF7C3F8D3
:102BE000E6E7000070B5044600680169E26821F478
:102BF0004051114301612169A068E269084361699C
:102C0000114308432168CA6849F20C639A4302439E
:102C1000CA6020684169A26921F440711143416191
:102C200031492068884202D03049884202D1FEF7FB
:102C3000D3FC01E0FEF7C0FCE26900231921642502
:102C40003226B2F5004F626828D0A0FB0101930F35
:102C50009200FDF715FB0146B0FBF5F06FF018028E
:102C6000504301EB800006EB0010B0FBF5F000F0E4
:102C7000F002B1FBF5F002EB0012B1FBF5F06FF0E2
:102C80001803584301EB800006EB0010B0FBF5F091
:102C900000F00F0021681044886070BDA0FB0101A6
:102CA00092185B41FDF7ECFA0146B0FBF5F002012A
:102CB000B1FBF5F06FF01803584301EB800006EB11
:102CC000C000B0FBF5F000F0F80002EB4002B1FBF1
:102CD000F5F0584301EB800006EBC000B0FBF5F0C7
:102CE00000F00700D6E7000000100140001401408A
:102CF0000248006800680148FFF738B82402002045
:102D00000148FFF733B80000680200200148FFF7D0
:102D10002DB80000AC0200200148FFF727B80000E2
:102D2000F002002070B588B00C460546DDE90C16AF
:102D300004200690002016B1012E04D101E003907A
:102D400001E0022603960492009102902BB1012B20
:102D500011D0022B1AD008B070BD1148FDF7B8FD94
:102D60000028FAD00123224669462846FDF7D7FC01
:102D70000028F7D1EFE70223224669462846FDF7EF
:102D8000CEFC0028F7D1E6E7FDF746FC06AB22466D
:102D900069462846FDF7C3FC0028F5D1DBE70000B3
:102DA000E4000020FEE70907090E002804DB00F11B
:102DB000E02080F80014704700F00F0000F1E020E0
:102DC00080F8141D704702E008C8121F08C1002ACD
:102DD000FAD170477047002001E001C1121F002A9C
:102DE000FBD1704708B500254FF4FA64204600F087
:102DF00031FE00231A46214602480095FFF72AFDBE
:102E0000F4E70000BC000020FEF75AFAFFF750FD7F
:102E1000FFF7ECFBFFF774FBFFF72AFBFFF74CFB18
:102E2000FFF72AFCFFF76AFCFFF784FCFFF79EFC24
:102E3000FFF7BAFCFFF7D4FCFFF7EEFCFFF742FC0C
:102E400000F012F8FFF7BAFB00F020F8FEE710B52B
:102E5000EFF3058111B16FF0050403E0002408B120
:102E600000F0F8FD204610BDEFF3058010B16FF0C3
:102E7000050070470448016811B14FF0FF307047FA
:102E800001210160002070478C00002010B5EFF395
:102E9000058010B16FF0050010BD084801680129D8
:102EA00002D04FF0FF3010BD054A002182F8141DFA
:102EB0000221016000F036FE002010BD8C000020D1
:102EC0000BE000E02DE9FF414FEA01034FF0000560
:102ED000EFF30581039549BB40B3802718210024F7
:102EE0004AB3166806B1344696691EB13146761E5D
:102EF000382E02D21679F60703D0002004B0BDE8C0
:102F0000F081566906B1B708D2F808C0BCF1000FCD
:102F10000DD0D5685C2D18D312693AB136B18DE861
:102F200006103A46214601F096F903900DE0D66866
:102F30005EB912694AB903AACDE90012BAB22146B4
:102F400001F05CF9012800D003950398D6E7000052
:102F50002DE9F041134C0F460546E6682068001D38
:102F600000F044FC681C07D137B12168BDE8F0418E
:102F70000D48091D00F08ABC20683544B542456003
:102F8000216805D2A06BBDE8F041091D00F066BCC8
:102F9000606B091D00F062FCA06A854200D2A56248
:102FA000BDE8F0813C000020B80E00202DE9F04182
:102FB000054600F077FC2D4CA068401CA0602068FE
:102FC0002B4F10B1606930B32BE02560A068012859
:102FD00027D1002606EB860007EB800000F030FCCE
:102FE000761C382EF6D3234800F02AFC21481430F2
:102FF00000F026FC1F48283000F022FC1D483C3021
:1030000000F01EFC1B48503000F01AFC19486063A9
:103010001430A06305E02068E96AC06A884200D8DD
:103020002560606A401C60626864E86A21698842C1
:1030300000D9206100EB800007EB8000291D00F023
:1030400025FC00F04FFC606900280CD02068E96A7C
:10305000C06A884207D208494FF080500860BFF329
:103060004F8FBFF36F8FBDE8F08100003C00002060
:10307000080A0020680E002004ED00E038B500F0DA
:1030800011FC104C2068C8B90F4800F0D9FB0E485D
:10309000143000F0D5FB0C48E060143020610A4B7E
:1030A0000020F03B009003F1500210210A2000F0B4
:1030B00047FE206010B105A100F096FCBDE8384045
:1030C00000F010BC78000020BC0F0020546D72513D
:1030D0000000000030B4026C0B46002A0BD0C1681F
:1030E0001144C1608468A14201D30168C16030BC51
:1030F0001846FDF705B930BC70472DE9F041856BE6
:10310000174604460026026C82B1C7B1E068FDF79D
:10311000F7F8E168206C091AE1602268914202D256
:10312000A168081AE060022F16D017E02068A8B93D
:10313000A06801F033F906460020A0600EE0606848
:10314000FDF7DEF8216C606808446060A168884281
:1031500004D32068606001E005B16D1E6D1CA5639D
:103160003046BDE8F08110B5044690F8590058B1DA
:1031700001280CD002280FD0502080F31188BFF313
:103180004F8FBFF36F8FFEE7206B00F0BFFB204631
:10319000BDE8104000F0BABB10BD000010484FF46D
:1031A0007051420706D0C01D0D4920F00700411A9A
:1031B000C1F570510B4A00230144C2E900030839EC
:1031C000183A21F0070111604B600B600B1AC0E93F
:1031D000001393604FF0004053605061704700004F
:1031E0009C160020A8000020144E154CA6F29C4707
:1031F0004FF08058DFF84C9012E000BF00F052FB17
:10320000F068C568281D00F0F1FAA068401EA060B3
:103210006068401E606000F065FB2846FFF7A3FF72
:1032200060680028EAD138680128F9D9C9F8008017
:10323000BFF34F8FBFF36F8FF2E70000A40E0020A3
:103240003C00002004ED00E070B51D46049C51B127
:10325000C4F80020C4E90F010121204600F0A4FDBC
:1032600084F84C5070BD2460F4E700002DE9F05F55
:103270008846DDE90B941546834691009A460A9EDE
:10328000A522206BFDF74EF86FF00301206B01EBD8
:103290008501084420F00707780707D0502080F305
:1032A0001188BFF34F8FBFF36F8FFEE70025B8F192
:1032B000000F0FD05FF00000221818F8001082F8FD
:1032C000341018F8001011B1401C1028F4D384F801
:1032D000435001E084F83450382E00D33726E6629C
:1032E000C4E91365201D00F0B6FA04F1180000F0DF
:1032F000B2FA2461C6F138006462A061656584F8A1
:10330000585052465946384600F05AFA2060B9F1F2
:10331000000F01D0C9F80040BDE8F09F30B5114959
:1033200000E011460A688242FBD34B685C18844275
:1033300003D1406818444860084643681C1894420A
:1033400009D1084C183C2468A24209D052681A449A
:1033500042600A6812680260814200D0086030BD95
:103360000460F9E7A800002070B5002441600B4D0F
:103370000061914206D8D11A8269914206D2011D9C
:10338000286907E09A4203D2994201D3012403E05D
:10339000011DE86800F062FA204670BD7800002048
:1033A00010B5044600F07EFAA06B28B15FF000046F
:1033B00000F098FA204610BD0124F9E730B589B035
:1033C0003C4D6EE00498002806DADDE90601059A16
:1033D00090470498002864DB069C606910B1201DAA
:1033E00000F004FA03A800F0D7F8024604980A286F
:1033F00057D2DFE800F00505052D334A05052D33CA
:1034000094F8280040F0010084F828000599A0698C
:10341000059B01442046FFF7A7FF68B3216A2046B9
:10342000884794F8280040073BD500200090059875
:10343000A169002342181946204601F0B9F8D8B90D
:10344000502080F31188BFF34F8FBFF36F8FFEE7DB
:1034500014F8280F20F00100207022E094F82800D2
:1034600040F0010084F828000598A06128B1811877
:1034700013462046FFF778FF13E0502080F31188B1
:10348000BFF34F8FBFF36F8FFEE794F828008107DB
:1034900003D4204600F03AFA03E020F0010084F85B
:1034A0002800002204A9286800F0D2FD002889D154
:1034B00009B030BD780000202DE9FC410F460546DB
:1034C00000F074FB01A800F067F80446019818B1F9
:1034D00000F0DCFFBDE8FC81254EAFB1306900682B
:1034E000D0B30027291B3A46306800F091FA00F06B
:1034F000CDFF0028EED11F494FF080500860BFF388
:103500004F8FBFF36F8FE5E7A542EBD800F0BEFF0A
:10351000F0682746C068C468201D00F067F994F879
:103520002800410719D5A0692B4641193A46204683
:10353000FFF71AFFA8B100200346014600902A4673
:10354000204601F035F860B9502080F31188BFF3B0
:103550004F8FBFF36F8FFEE707E020F0010084F884
:103560002800216A20468847B4E70127BAE700000F
:103570007800002004ED00E00648416B096829B19D
:10358000416BC968C9684968816270474FF0FF3173
:10359000FAE700003C00002070B5054600F094FEFC
:1035A000064E0446B068844203D200F009F80120B8
:1035B00000E0002028602046B46070BD7800002044
:1035C000F8B5194D20E0C068C4680668201D00F0F9
:1035D0000DF9216A2046884794F82800400713D542
:1035E000A0693044B04206D924616060211DE868BA
:1035F00000F034F908E0002003460146009032460E
:10360000204600F0D5FF38B1E86801680029DAD11A
:103610002969C5E90310F8BD502080F31188BFF374
:103620004F8FBFF36F8FFEE7780000200848406897
:10363000401C4FF0500080F3118804D0BFF34F8F2F
:10364000BFF36F8FFEE7BFF34F8FBFF36F8FFEE7C0
:10365000B0000020074CE068016841B1C06800215B
:10366000D0F80000FFF728FFFFF7A8FEF3E70121DD
:103670000020F7E7780000202DE9F041044600F033
:1036800011F994F9455004F1240609E0606A48B143
:10369000304600F0C3FE08B100F00AFA6D1E6DB2AC
:1036A000002DF3DC4FF0FF3684F8456000F01AF986
:1036B00000F0F8F894F9445004F1100709E020698B
:1036C00048B1384600F0AAFE08B100F0F1F96D1ECD
:1036D0006DB2002DF3DC84F84460BDE8F04100F0E9
:1036E00001B900002DE9F0410546002700F05EFA1F
:1036F000324E306808B9FFF751FD706905424ED16E
:10370000C5B3083568070ED005F00700C0F1080002
:103710000544680707D0502080F31188BFF34F8F0E
:10372000BFF36F8FFEE72DB37068854237D823480B
:10373000183001460C6801E020460C466168A94239
:1037400002D221680029F7D131688C4227D007685E
:103750002168016060680837411B10290FD9601982
:10376000420708D0502080F31188BFF34F8FBFF37A
:103770006F8FFEE713E041606560FFF7CFFD616882
:103780007068401A7060B268904200D2B060706990
:1037900001430020C4E90001F068401CF06000F023
:1037A00075FE780707D0502080F31188BFF34F8F44
:1037B000BFF36F8FFEE73846BDE8F0819000002030
:1037C00010B5031F4FF080741C601B1F21F0010116
:1037D0001960191F044B0B6014390A60091F6FF040
:1037E000020244380A6010BD2D360008D0E90132CB
:1037F00001699A60D0E901235A604A68824201D186
:1038000082684A60002202610868401E08600868F9
:1038100070470000034B036003F15C0008608020E8
:1038200010607047E40F0020044B036003F15C005C
:1038300008604FF480701060704700004012002054
:1038400000F108014FF0FF32C0E90112C1600161CF
:1038500000210160704700210161704730B50B689D
:103860005A1C02D000F1080202E0026904E022467C
:10387000546825689D42FAD953684B6099608A6004
:10388000516008610168491C016030BD42684A60AE
:1038900093688B6093685960916008610168491C66
:1038A00001607047502080F31188BFF34F8FBFF342
:1038B0006F8F0A494868401C486001280CD10848AD
:1038C000006810F0FF0F07D0502080F31188BFF37D
:1038D0004F8FBFF36F8FFEE770470000B0000020EE
:1038E00004ED00E00849486828B1401E486001D155
:1038F00080F311887047502080F31188BFF34F8FF9
:10390000BFF36F8FFEE70000B000002070B5002805
:103910002AD0164DA0F1080460686969084207D1F1
:10392000502080F31188BFF34F8FBFF36F8FFEE7F6
:1039300022683AB1502080F31188BFF34F8FBFF354
:103940006F8FFEE78843606000F030F96068696857
:10395000084468602046FFF7E1FC2869401C2861A4
:10396000BDE8704000F092BD70BD000090000020E6
:103970004FF0E02000210161816105494FF47A7226
:103980000968B1FBF2F1491E4161072101617047ED
:103990003800002010B5FCF75DFC114910280ED34B
:1039A00000F1E02090F8F0030A78904207D250200E
:1039B00080F31188BFF34F8FBFF36F8FFEE7094885
:1039C0000068896800F4E060884207D9502080F3DD
:1039D0001188BFF34F8FBFF36F8FFEE710BD00005C
:1039E000B00000200CED00E010B5084B002200BF35
:1039F00053F832401CB1521C082AF9D310BD43F8C9
:103A0000321003EBC201486010BD0000C80900205D
:103A100070B515460E460446FFF744FF94F944106E
:103A20000020491C01D184F8440094F94510491C38
:103A300001D184F84500FFF755FFA06B28B92A464D
:103A4000314604F1240000F051F82046BDE87040F2
:103A5000FFF712BE10B5020014D00F48006B38B14A
:103A6000502080F31188BFF34F8FBFF36F8FFEE7B5
:103A700000F09CF800211046FFF76AFA00F006FDFE
:103A8000002807D105494FF080500860BFF34F8FE1
:103A9000BFF36F8F10BD00003C00002004ED00E07C
:103AA00002490A6A0260C968416070473C00002010
:103AB00001490120C86170473C00002010B50C4648
:103AC00050B1094909681831FFF7C8FE2046BDE822
:103AD00010400121FFF73CBA502080F31188BFF35A
:103AE0004F8FBFF36F8FFEE73C00002070B5144688
:103AF0000D4668B10A4909681831FFF7C7FE0CB1D5
:103B00004FF0FF3521462846BDE87040FFF720BA48
:103B1000502080F31188BFF34F8FBFF36F8FFEE704
:103B20003C00002030B587B00024039405AA04A906
:103B300003A80494FFF76EFEDDE903010094CDE9CC
:103B40000110002315A11748059A00F084FB164DBB
:103B50000028E8621FD000F0FBFC012809D0401CBF
:103B600019D1502080F31188BFF34F8FBFF36F8FAF
:103B7000FEE7502080F31188BFF34F8FBFF36F8FA4
:103B80004FF0FF30A86201206861EC6007B0BDE82B
:103B9000304000F045B807B030BD000049444C4506
:103BA00000000000E93100083C0000200248016BE1
:103BB000491C0163704700003C000020164810B506
:103BC000016B11B10121C16110BD0021C161016909
:103BD000124A01E0B9B1491E01EB810352F82330CA
:103BE000002BF7D001EB810302EB830202F1080402
:103BF00053685B685360A34201D15B685360DA6825
:103C00000260016110BD502080F31188BFF34F8F17
:103C1000BFF36F8FFEE700003C000020080A002081
:103C20001CB537480168374A914207D1502080F3CC
:103C30001188BFF34F8FBFF36F8FFEE700683149E4
:103C4000491E884207D1502080F31188BFF34F8F5F
:103C5000BFF36F8FFEE72C4908780190FF200870B2
:103C600008788DF800009DF800009DF8002000F015
:103C7000F000904207D0502080F31188BFF34F8F9F
:103C8000BFF36F8FFEE79DF80000204C00F050005E
:103C900020700720A06005E09DF8002052008DF8FC
:103CA0000020401E9DF800201206F5D4A0600328D5
:103CB00007D0502080F31188BFF34F8FBFF36F8F71
:103CC000FEE74FF44070A060019808700C48203067
:103CD000016841F470010160016841F070410160C8
:103CE000FFF746FE00206060FCF77CFA0848016898
:103CF00041F040410160FCF761FA00201CBD00006A
:103D000000ED00E071C20F4100E400E0B0000020CF
:103D100034EF00E010B5502080F31188BFF34F8FCF
:103D2000BFF36F8F00F0D6FA18B104494FF08050FE
:103D30000860002080F3118810BD000004ED00E051
:103D400038B5049D18B153B1CAB181B120E05020FB
:103D500080F31188BFF34F8FBFF36F8FFEE75020C2
:103D600080F31188BFF34F8FBFF36F8FFEE75020B2
:103D700080F31188BFF34F8FBFF36F8FFEE739B128
:103D8000502080F31188BFF34F8FBFF36F8FFEE792
:103D900050241C46012384F846302B460094FFF73C
:103DA00053FA204638BD000070B50D46040025D0FA
:103DB000FFF778FDD4E90F20216802FB0011A16014
:103DC0000021A163216861600A46D4E90F01401E09
:103DD00000FB0121E16021464FF0FF3001F8440F64
:103DE000487004F110008DB1FFF72AFD04F12400A2
:103DF000FFF726FDFFF776FD012070BD502080F310
:103E00001188BFF34F8FBFF36F8FFEE72169002941
:103E1000F0D000F003FB0028ECD004494FF08050B4
:103E20000860BFF34F8FBFF36F8FE3E704ED00E04F
:103E30002DE9FF4782B01D468A464FF00008040076
:103E400003D0BAF1000F08D011E0502080F31188A0
:103E5000BFF34F8FBFF36F8FFEE7206C38B1502058
:103E600080F31188BFF34F8FBFF36F8FFEE7022DF2
:103E70000AD1E06B012807D0502080F31188BFF3EE
:103E80004F8FBFF36F8FFEE700F010FA3F4F4FF0F8
:103E900000094FF0805648B9049838B1502080F39B
:103EA0001188BFF34F8FBFF36F8FFEE7FFF7FAFC68
:103EB000A06BE16B884207D3022D05D00498D0B1E6
:103EC000B8F1000F1AD01EE02A4651462046FFF7EF
:103ED00014F9616A19B104F1240000F09FFA20B1CD
:103EE0003E60BFF34F8FBFF36F8FFFF7FBFC0120E6
:103EF00006B0BDE8F087FFF7F5FC22E06846FFF763
:103F0000CFFD4FF00108FFF7EDFCFFF74FFEFFF785
:103F1000C9FC94F94400401C01D184F8449094F900
:103F20004500401C01D184F84590FFF7DBFC04A953
:103F3000684600F029F930B12046FFF79DFB00F0FC
:103F4000A5FA0020D4E7FFF7ADFCA06BE16B884237
:103F500013D1FFF7C7FC04F110000499FFF7AEFD81
:103F60002046FFF789FB00F091FA00289ED13E60C1
:103F7000BFF34F8FBFF36F8F98E7FFF7B3FC204677
:103F8000FFF77AFB00F082FA90E7000004ED00E012
:103F90002DE9F0471F4690468946040003D0B9F149
:103FA000000F08D011E0502080F31188BFF34F8F2D
:103FB000BFF36F8FFEE7206C38B1502080F311887B
:103FC000BFF34F8FBFF36F8FFEE7022F0AD1E06B75
:103FD000012807D0502080F31188BFF34F8FBFF323
:103FE0006F8FFEE7FFF7D6FC5020EFF3118680F3CA
:103FF0001188BFF34F8FBFF36F8FA06BE16B8842C7
:1040000006D3022F04D0002086F31188BDE8F08784
:1040100094F94550A06B3A4649462046FFF76DF8A3
:10402000681C04D06D1C84F845500120ECE7606AE0
:104030000028FAD004F1240000F0F0F90028F4D0B0
:10404000B8F1000FF1D00121C8F80010EDE7000031
:104050002DE9F747002683B08A46040003D0BAF161
:10406000000F08D011E0502080F31188BFF34F8F6C
:10407000BFF36F8FFEE7206C38B1502080F31188BA
:10408000BFF34F8FBFF36F8FFEE700F00FF9DFF83C
:10409000F4804FF000094FF0805748B9059838B1C7
:1040A000502080F31188BFF34F8FBFF36F8FFEE76F
:1040B000FFF7F8FBA56BC5B151462046FFF70AF89C
:1040C0006D1EA563206950B104F1100000F0A6F93F
:1040D00028B1C8F80070BFF34F8FBFF36F8FFFF7A1
:1040E00001FC012006B0BDE8F087059808B11EB1BB
:1040F00006E0FFF7F7FB27E06846FFF7D1FC012653
:10410000FFF7F0FBFFF752FDFFF7CCFB94F94400FB
:10411000401C01D184F8449094F94500401C01D121
:1041200084F84590FFF7DEFB05A9684600F02CF8FF
:10413000002820460AD0FFF79FFA00F0A7F9204692
:10414000FFF72EF90028B3D00020CBE7FFF728F9BE
:1041500090B104F124000599FFF7B0FC2046FFF769
:104160008BFA00F093F90028A2D1C8F80070BFF3D1
:104170004F8FBFF36F8F9BE72046FFF77DFA00F06C
:1041800085F995E704ED00E02DE9F0410C460500C6
:1041900011D0C4B1FFF786FB174BDA686E68206850
:1041A000911B471C17D02F681B6A9F4219D096425B
:1041B00017D8012410E0502080F31188BFF34F8FEF
:1041C000BFF36F8FFEE7502080F31188BFF34F8F4E
:1041D000BFF36F8FFEE70024FFF784FB2046BDE8A6
:1041E000F081884205D9401A20602846FFF758FC24
:1041F000F1E700202060DCE73C0000202DE9FF5FB4
:104200008346DDE90E87994616468A469000FFF7F9
:1042100069FA05001CD05C20FFF764FA040014D092
:104220000020256384F85900CDE90240CDE90087DC
:104230004B46324651465846FFF718F82046FEF7DF
:10424000B5FE012004B0BDE8F09F2846FFF75EFBF5
:104250004FF0FF30F6E7F0B585B0DDE90B640A9D5D
:10426000A6B1DCB15C2700972663022684F859606A
:10427000002604AFCDE90246CDE90057FEF7F6FF70
:104280002046FEF793FE049805B0F0BD502080F361
:104290001188BFF34F8FBFF36F8FFEE7502080F37D
:1042A0001188BFF34F8FBFF36F8FFEE70548416959
:1042B00019B1006B18B1002070470120704702202F
:1042C000704700003C0000200148C06870470000B3
:1042D0003C0000202DE9F0412E4C0027206B28B136
:1042E000A069401CA0613846BDE8F081E668761CF4
:1042F000E66013D1606B006838B1502080F31188FC
:10430000BFF34F8FBFF36F8FFEE7606BA16B6163ED
:10431000A063206A401C2062FFF72EF9A06ADFF834
:104320007880864209D3606B0068A0B1606BC0687A
:10433000C5686868864211D2A0622068C06A00EB36
:10434000800158F82100012800D90127E0690028E0
:10435000C9D00127C7E74FF0FF30EDE7281DFFF771
:1043600045FAA86A18B105F11800FFF73FFAE86AA4
:104370002169884200D9206100EB800108EB8100AF
:10438000291DFFF783FAE86A2168C96A8842CAD3FF
:104390000127C8E73C000020080A002070B504008F
:1043A0004FF0000133D01B4D2868844207D05020C5
:1043B00080F31188BFF34F8FBFF36F8FFEE7206D3F
:1043C00038B1401E2065E36CE26A9A421FD040B1CA
:1043D0001DE0502080F31188BFF34F8FBFF36F8F24
:1043E000FEE7201DFFF702FAE06CE062C0F1380042
:1043F000A061E06A2969884200D92861064900EB7A
:10440000800001EB8000211DFFF740FA01210846E2
:1044100070BD00003C000020080A002070B5C06894
:10442000C46854B104F118000646FFF7DFF9144DD3
:10443000286B50B13146134815E0502080F31188A5
:10444000BFF34F8FBFF36F8FFEE7201DFFF7CEF94D
:10445000E06A2969884200D928610B4900EB800095
:1044600001EB8000211DFFF711FAE06A2968C96A93
:10447000884202D90120E86170BD002070BD0000B3
:104480003C000020900E0020080A00202DE9F04793
:104490002C4D00242746286B38B1FFF703FA286B10
:1044A000401E2863286B40B146E0502080F31188FD
:1044B000BFF34F8FBFF36F8FFEE7A968224E012035
:1044C000D1B3A6F5916980463068E0B1F068C46860
:1044D00004F11800FFF78AF9201DFFF787F9E06A59
:1044E0002969884200D9286100EB800109EB81002D
:1044F000211DFFF7CBF9E06A2968C96A8842E3D336
:10450000C5F81C80E0E70CB1FFF736F8AC694CB198
:104510004FEA0806FFF7DEFE00B1EE61641EF9D136
:104520000020A861E86938B1084901273807086008
:10453000BFF34F8FBFF36F8FFFF7D4F93846BDE855
:10454000F08700003C000020900E002004ED00E009
:1045500010B586B0FEF792FD114C2068B8B100206E
:104560000390049005AA04A903A8FFF75DF9DDE90B
:10457000032102208DE8070000230AA10B48059AB9
:10458000FFF769FE606010B106B0012010BD502039
:1045900080F31188BFF34F8FBFF36F8FFEE70000EA
:1045A00078000020546D7220537663005536000861
:1045B0002DE9FF411E46134602000A9D4FF0000000
:1045C00016D0144C2768002F0FD0CDE900130292AB
:1045D000062917DAFFF76AFE02284FF000030FD012
:1045E000002269462068FFF723FC04B0BDE8F08193
:1045F000502080F31188BFF34F8FBFF36F8FFEE71A
:104600002A46EEE70023324669463846FFF7C0FCEB
:10461000EBE7000078000020804600080000000062
:104620000000000000000000000000000002000088
:104630001800000000000000000000008C46000888
:10464000000000000000000000000000000000006A
:10465000000300001800000000000000000000003F
:1046600000061016000610160000000000000000F2
:104670000102030406070809000000000102030408
:1046800064656661756C745461736B004368617333
:104690007369735F7461736B00000000BC460008AF
:1046A00000000020BC000000C62D0008784700086C
:1046B000BC000020E4550000D62D000800000000DA
:1046C00000000000000000000000000000000000EA
:1046D00000000000000000000000000000000000DA
:1046E00000000000000000000100000010000000B9
:1046F000000000000024F4000000000000000000A2
:1047000000000000000000000000000000000000A9
:104710000000000000000000000000000000000099
:104720000000000000000000000000000000000089
:104730000000000000000000000000000000000079
:104740000000000000000000000000000000000069
:104750000000000000000000000000000000000059
:104760000000000000000000000000000000000049
:08477000AAAAAAAA0000000099
:040000050800018965
:00000001FF
