:020000040800F2
:1000000068240020E56F00087302000875020008EC
:10001000790200087D02000881020008000000004B
:100020000000000000000000000000008502000841
:100030008702000800000000890200088B02000807
:10004000FF6F0008FF6F0008FF6F0008FF6F0008D8
:10005000FF6F0008FF6F0008FF6F0008FF6F0008C8
:10006000FF6F0008FF6F0008FF6F0008FF6F0008B8
:10007000FF6F0008FF6F0008FF6F0008F9410008DC
:10008000FF6F0008FF6F0008FF6F0008E3380008EB
:10009000F9380008FF6F0008FF6F0008FF6F0008C5
:1000A000FF6F0008FF6F0008FF6F0008FF6F000878
:1000B000FF6F0008FF6F0008FF6F0008FF6F000868
:1000C000FF6F0008FF6F0008FF6F0008FF6F000858
:1000D000FF6F0008B73B0008A73D00088D3F0008F0
:1000E000FF6F0008FF6F0008FF6F0008FF6F000838
:1000F000FF6F0008FF6F0008FF6F0008FF6F000828
:10010000FF6F0008FF6F0008FF6F0008FF6F000817
:100110008B410008A14400085B470008FF6F0008FE
:10012000FF6F0008FF6F0008FF6F0008FF6F0008F7
:10013000FF6F0008FF6F0008FF6F0008333A0008E8
:10014000493A0008FF6F0008FF6F0008FF6F0008C2
:10015000FF6F0008FF6F0008FF6F00086946000886
:10016000FF6F0008FF6F0008FF6F0008FF6F0008B7
:10017000FF6F0008FF6F0008FF6F0008FF6F0008A7
:10018000FF6F0008FF6F000800F002F800F05CF855
:100190000AA090E8000C82448344AAF10107DA45E2
:1001A00001D100F051F8AFF2090EBAE80F0013F0D8
:1001B000010F18BFFB1A43F0010318476CCE000073
:1001C0008CCE00000A444FF0000C10F8013B13F0F5
:1001D000070408BF10F8014B1D1108BF10F8015BA0
:1001E000641E05D010F8016B641E01F8016BF9D193
:1001F00013F0080F1EBF10F8014BAD1C0C1B09D1EA
:100200006D1E58BF01F801CBFAD505E014F8016B5B
:1002100001F8016B6D1EF9D59142D6D370470000ED
:100220000023002400250026103A28BF78C1FBD8FF
:10023000520728BF30C148BF0B6070471FB50CF094
:10024000E2FB1FBD10B510BD0AF04FFD1146FFF7D0
:10025000F5FF00F008F80AF06DFD03B4FFF7F2FFB8
:1002600003BC0AF033FD00F019F900F09BF900BF60
:10027000FEE7704700BFFEE700BFFEE700BFFEE7F6
:1002800000BFFEE770477047704770470CB500200D
:10029000019000907648006840F48030744908600E
:1002A00000BF7348006800F4003000900198401CC3
:1002B0000190009818B90198B0F5A06FF1D16C4881
:1002C000006800F4003010B10120009001E000202F
:1002D00000900098012846D165484030006840F001
:1002E00080506349403108606248006840F44040F3
:1002F000604908605E48083000685D490831086060
:100300000846006840F4004008600846006840F471
:10031000A05008605848091F0860081F006840F096
:100320008070091F086000BF5148006800F000702D
:100330000028F9D040F20570504908604C48083058
:10034000006820F003004A49083108600846006848
:1003500040F00200086000BF45480830006800F027
:100360000C000828F8D10CBD10B54548006840F4D1
:100370007000434908603E48006840F001003C4975
:10038000086000203A4908310860394800683D4952
:100390000840374908603C48091D0860081F00688C
:1003A00020F48020091F0860002031490C310860CA
:1003B000FFF76CFF4FF0006031498039086010BDD5
:1003C00070B500200022022300240221284D0835A8
:1003D0002D6805F00C0020B1042806D0082834D17F
:1003E00007E02A4D2A4E356033E02A4D284E35600D
:1003F0002FE01F4D2D1D2D68C5F380541C4D2D1D64
:100400002D6805F03F0154B1224DB5FBF1F5184EB2
:10041000361D3668C6F3881605FB06F209E01B4D4B
:10042000B5FBF1F5124E361D3668C6F3881605FB8E
:1004300006F20F4D2D1D2D68C5F301456D1C6B0097
:10044000B2FBF3F5124E356003E0104D104E3560EF
:1004500000BF00BF064D08352D68C5F303150E4ECD
:10046000705D0B4D2D68C540094E356070BD0000B4
:10047000003802400070004008544007003C024031
:1004800088ED00E0FFFFF6FE103000240024F400A9
:100490000000002000127A000400002010B54FF484
:1004A000A06004F06FF9124803F0F0FA4FF4E13065
:1004B00003F0E1FB4FF4612003F0C4FC4FF4E130A2
:1004C00003F08CFD4FF4E13003F0CAFE04F044F871
:1004D000002303220821104603F090F90023032291
:1004E0000821104603F023FA04F006F910BD0000BD
:1004F000A086010000B587B02C480068401C2B493D
:1005000008602B492B48D0ED000A2B4890ED000ADB
:100510002A4800F0C4F8254800680A2190FBF1F24F
:1005200001FB120080BB264890F851002449B1F825
:100530005C10234A926D00EE102ABDEEC00A10EE48
:10054000102A12B21F4BB3F91330CDE90332CDE9B3
:1005500005101C48B0F90F001A49B1F911101A4AD8
:10056000126C12B2CDE900210290174890ED121BD7
:10057000B0EE410AF0EE610A1248037B827B90F8EC
:100580004410124803F09BF80849086800EBD0714A
:100590004910A0EB410119B901F0D1F901F052FF66
:1005A00007B000BD10B500F09DF910BD140000208B
:1005B00084150020900200208C0200201C000020E6
:1005C000941400207C0B0020E810002000680040FC
:1005D00010B5044604F168030122042104F110005F
:1005E00006F084FF04F178030122022104F13800AF
:1005F00006F07CFF04F590730422114604F1180004
:1006000006F074FF04F1E0030422114604F1200017
:1006100006F06CFF04F1200104F1180008F02DF938
:1006200004F5D0730422114604F1480006F05EFF81
:1006300004F5C0730422022104F1280006F056FFDD
:1006400004F5B0730222042104F1300006F04EFFDD
:1006500004F1300104F1280008F00FF904F5F073FB
:100660000222114604F1400006F040FF04F1A0030D
:100670000422114604F1500006F038FF04F1800313
:100680000222042104F1580006F030FF04F5F8734B
:100690000422114604F1600006F028FF10BD30B5B9
:1006A0002DED028B95B00446B0EE408AF0EE608AE4
:1006B0000D467F48007828B901207D4908707D48A3
:1006C000FFF786FF7C4B0422114613A806F00EFFAD
:1006D0007A4B0422114611A806F008FF784B02223B
:1006E00004210FA806F002FF764B042202210DA878
:1006F00006F0FCFE744B022211460BA806F0F6FE33
:10070000724B0222114609A806F0F0FE704B01223E
:10071000022107A806F0EAFE6E4B0122022105A87D
:1007200006F0E4FE6C4B0122042103A806F0DEFE75
:100730006A4B0122042101A806F0D8FEE06B80ED8F
:10074000008AE06BC0ED018A03AA04F1100104F1F4
:10075000180007F04AFA042204F168015E4809F023
:1007600034FE2878002871D013AA04F1500104F156
:10077000180007F03AFA11AA04F1200113A807F0B3
:1007800034FA04F1500204F1480111A806F04AFCC1
:100790000FAA04F1300104F1500007F026FA0DAA67
:1007A00004F1500104F1280007F01FFA0BAA04F12C
:1007B00030010DA807F019FA09AA04F140010BA8AD
:1007C00006F030FC0BA909A806F09CFE04F15802C3
:1007D0000BA90FA807F009FA07AA04F1100104F108
:1007E000280007F002FA05AA07A904F1380007F06B
:1007F000EEFF03AA05A904F1580007F0F6F901AAD3
:1008000003A904F1100006F00DFC042204F16801B4
:10081000324809F0DAFD13AA04F1280104F1580066
:1008200007F0E3F911AA13A904F1600007F0CFFF64
:1008300013AA04F1500111A807F0D7F9102204F10E
:10084000A0011D4809F0C1FD00202870606990EDED
:10085000000A84ED000A606990ED010A84ED010A46
:10086000606990ED020A84ED020A606990ED030A66
:1008700084ED030A15B0BDEC028B30BD10B5044603
:100880000C48FFF7A5FE9FED160A606980ED000A8F
:100890009FED130A606980ED010A9FED110A6069FE
:1008A00080ED020A9FED0E0A606980ED030A10BD1B
:1008B0005C0200201C000020A80300203803002058
:1008C000E80300207803002008040020980300209B
:1008D000540200204C0200202803002018040020AD
:1008E0000000000010B540F25471FE480AF0B9F95A
:1008F000B2EE001ADFEDFC0AB2EE0E0A04234FF44A
:10090000FA720321F748803001F015FD9FEDF71AC8
:10091000DFEDF70A9FEDF70A44F6206346F67812FA
:100920000321F54801F007FDB2EE001ADFEDF30AEE
:10093000B1EE0C0A04234FF4FA720321E948343073
:1009400001F0F9FC9FEDEE1ADFEDEE0A9FEDEE0AE5
:1009500042F2107347F248120321E7484C3801F085
:10096000EAFCB2EE001ADFEDE00AB2EE0E0A042352
:100970004FF4FA720321E048983001F0DCFC9FED5F
:10098000DB1ADFEDDB0A9FEDDB0A44F6206346F657
:1009900078120321DD4801F0CEFCB2EE001ADFED43
:1009A000D70AB1EE0C0A04234FF4FA720321D2489D
:1009B0004C3001F0C0FC9FEDD21ADFEDD20A9FED62
:1009C000D20A42F2107347F248120321CF484C3842
:1009D00001F0B1FCB2EE001ADFEDC30AB2EE000A7C
:1009E0000A23C8220321CA4801F0A5FC9FEDC91AB9
:1009F000DFEDC90A9FEDC90A46F2A81346F6781240
:100A00000321C3484C3001F096FC9FEDBD1ADFED89
:100A1000C40AB3EE040AC82396220321BC484C380A
:100A200001F089FC9FEDBF1ADFEDBA0A9FEDBE0A07
:100A300047F268431A460321B548983001F07BFC21
:100A40009FEDB41ADFEDB90AB3EE090A142346226A
:100A50000321B74801F06FFC9FEDAE1AF1EE0C0ACE
:100A60009FEDB10A44F6206346F2A8120321B04874
:100A70004C3001F060FCB3EE041ADFEDAC0AB2EECC
:100A80000E0A14233C220321A9484C3801F053FCE0
:100A90009FEDA81AF1EE000A9FEDA70A46F2A813EF
:100AA0001A4603219A48983801F045FCB0EE001A26
:100AB000DFED990AB3EE040A0A23C82203219F48F6
:100AC00001F039FC9FED9B1AF2EE000A9FED9C0AA3
:100AD00046F2A81346F67812032198484C3001F0EC
:100AE0002AFCB0EE001ADFED8C0AB3EE040A0423F0
:100AF000FA22032191484C3801F01DFC9FED8D1A1C
:100B0000F2EE000A9FED8E0A41F2883346F2A812F7
:100B100003218A48983001F00EFC10BD2DE9F04108
:100B20002DED108B92B0B0EE408A4FF01C08854836
:100B300090ED000ADFED840A20EE200A10EE101A74
:100B400008460BF0EFFE41EC1B0BB0EE4B0AF0EE4B
:100B50006B0A0AF075FBB0EE40AAF0EE60AA53EC07
:100B60001A2B9FED7A0B51EC100B0BF0BBF941ECFB
:100B7000190B0BF0D1F8054628460BF0D3FE41ECDB
:100B80001D0BB0EE4D1AF0EE6D1A9FED720B0AF0D0
:100B90005FFAB0EE40CAF0EE60CA9FED700B53EC06
:100BA000102B51EC1C0B0BF0C7FB41EC1A0B18EE91
:100BB000100A0BF0B7FE41EC1B0B53EC1A2B0BF099
:100BC000DDF841EC190B0BF0A7F80E9028460BF05E
:100BD000A9FE41EC1A0B9FED5C0A28EE000A10EE0C
:100BE000101A08460BF09EFE41EC1C0BB0EE4C0AAE
:100BF000F0EE6C0A0AF024FBB0EE40BAF0EE60BAF8
:100C000053EC1A2B51EC1B0B0BF096FB41EC190B20
:100C10000BF082F80FEE100A28460BF083FE41EC31
:100C20001A0B9FED490A28EE000A10EE101A08462A
:100C30000BF078FE41EC1C0BB0EE4C0AF0EE6C0AA7
:100C40000AF06EFBB0EE40BAF0EE60BA53EC1A2B2D
:100C500051EC1B0B0BF070FB41EC190B0BF05CF82B
:100C6000064618FB08F000EE100AB8EEC00AF0EED7
:100C7000408A2FEE0F0A10EE104A18EE900A0BF081
:100C800051FECDE9080130460BF04CFE41EC1B0B48
:100C9000B0EE000A28EE800A10EE101A08460BF09B
:100CA00041FE41EC1D0B20460BF03CFE9FED2D0B51
:100CB00053EC102BCDE900019DED000B51EC100B16
:100CC0000BF03AFB41EC1E0B53EC1D2B0BF00AF919
:100CD00041EC1C0B53EC1B2B0BF050F8CDE904013D
:100CE000204643E0280400200AD7233C000070423D
:100CF0006F12833A00002A43400500209A99193E5A
:100D000000002042CDCC4C3F00001643700600206E
:100D10006809002000000000CDCC4C3E00003443A8
:100D2000EC51B83D0000C8420000AF439A99993E8B
:100D300038080020000048430000E143980A0020E2
:100D400000009643280C002035FA8E3C9A99999918
:100D500099991B40000000205C8F13400000002088
:100D6000DCA54C409A999999999923400BF0DAFDAA
:100D700041EC1B0B9FEDFB0B53EC102B0BF0DCFA43
:100D8000CDE902019DED040B53EC102B9DED020B00
:100D900051EC100B0BF0D0FACDE906019DED080BDC
:100DA00053EC102B9DED060B51EC100B0BF09AF849
:100DB000CDE90C0120460BF0B5FDCDE90A019DED12
:100DC0000C0B53EC102B9DED0A0B51EC100B0BF0A0
:100DD000BFFC41EC1A0BB0EE4A0AF0EE6A0A0AF0C8
:100DE00003FBB0EE409AF0EE609A51EC190B0AF05A
:100DF00093FF0FEE900A20460BF094FD41EC1A0B86
:100E00001FED280B53EC102B0BF096FA41EC190B4D
:100E10000AF082FF11903FEE6F0A60EE280A9DED06
:100E2000110A80EE801A11EE107A38460BF07AFD26
:100E300041EC1A0BB0EE4A0AF0EE6A0A09F09CFF88
:100E4000B0EE409AF0EE609A51EC190B0AF064FF94
:100E500010909DED100ADFEDC50A20EE200A8DED01
:100E60000F0A9DED0F0A12B0BDEC108BBDE8F081AA
:100E700010B52DED088BBE48007870B9BD4890EDD7
:100E8000000ABD4880ED000ABA4890ED010ABB484F
:100E900080ED000A0120B6490870B64890ED000ABE
:100EA000B74880ED040AB34890ED010AB44880EDDC
:100EB000030AB04890ED030AB14880ED080AAD4836
:100EC00090ED040AAE4880ED070AAE48C07B48B1F9
:100ED000AC4890ED040AF7EE000A30EE200A80EDEF
:100EE000040A04E01FED750AA64880ED040AA5482F
:100EF00090ED040AF7EE000AB4EEE00AF1EE10FA03
:100F00007ED20120A04908709E48B0F9080000EE8A
:100F1000100AB8EEC00A9D48D0ED000AB4EE600A8F
:100F2000F1EE10FA6DD19748B0F90A0000EE100A00
:100F3000B8EEC00A9648D0ED000AB4EE600AF1EEB1
:100F400010FA74D18F49B1F908000BF08EF941EC19
:100F50001B0B9FED900B53EC102B0BF0EDF941ECBC
:100F60001A0B9FED8E1BB0EE4A0AF0EE6A0A0AF0E9
:100F70006FF8B0EE409AF0EE609A1FED880B53ECDC
:100F8000102B51EC190B0BF0D7F941EC180B0AF0B0
:100F9000C3FE844908607B49B1F90A000BF065F98A
:100FA00041EC1B0B9FED7B0B53EC102B0BF0C4F9AA
:100FB00041EC1A0B9FED791BB0EE4A0AF0EE6A0A7B
:100FC0000AF046F8B0EE409AF0EE609A1FED9D0BE5
:100FD00053EC102B51EC190B0BF0AEF941EC180B44
:100FE0000AF09AFE70490860664890ED000A6D4864
:100FF000D0ED000A30EE200A6C48D0ED000A01E086
:101000003EE014E030EE200A694880ED000A5D48B9
:1010100090ED010A0846D0ED000A30EE200A65483E
:10102000D0ED000A30EE200A634880ED000A5548F2
:10103000B0F9080000EE100AB8EEC00A534880ED7F
:10104000000A5048B0F90A0000EE100AB8EEC00AD3
:101050004F4880ED000A594890ED000A484880ED5D
:10106000010A5648D0ED010AB0EE600AFFF756FDBE
:101070005048D0ED000A30EE200A414880ED020AC7
:101080003F4890ED020AFBEE090AB4EEE00AF1EEE9
:1010900010FA04D8BBEE090A80ED020A0DE03848C8
:1010A00090ED020AF3EE0E0AB4EEE00AF1EE10FA49
:1010B00003DBB3EE0E0A80ED020A3348007858B91C
:1010C0002E4890ED000A2E4880ED010A2A4890ED46
:1010D000000A2B4880ED020A2948D0ED071AB0EE2D
:1010E000611AD0ED031AF0EE610AD0ED011AB0EEEC
:1010F000610A5FEDF81A00F1140200F5956100F540
:10110000717001F056F9FFEE000A20EE200ABDEEE4
:10111000C00A10EE100A01B219488184D0ED081AF5
:10112000B0EE611AD0ED041AF0EE610AD0ED021AA9
:10113000B0EE610ADFED221A00F1180200F25C4104
:1011400000F5826001F035F9FFEE000A20EE200A7A
:10115000BDEEC00A10EE100A01B20948C184BDEC10
:10116000088B10BD9A99999999993340E12E65425F
:101170009C020020280C002084020020880200200D
:10118000280400205C1500209D020020940200200D
:1011900098020020000000A02C436C3F00000000DB
:1011A00000001840A0020020A402002074020020C9
:1011B0008C02002078020020900200201C000020F9
:1011C0000000000010B52DED088BFE48007870B9C6
:1011D000FD4890ED000AFD4880ED000AFA4890EDC8
:1011E000010AFB4880ED000A0120F6490870F64824
:1011F00090ED000AF74880ED040AF34890ED010AEB
:10120000F44880ED030AF04890ED030AF14880EDC0
:10121000080AED4890ED040AEE4880ED070AEE4812
:10122000C07B48B1EC4890ED040AF7EE000A30EEBE
:10123000200A80ED040A04E01FED1F0AE64880ED55
:10124000040AE54890ED040AF7EE000AB4EEE00A5D
:10125000F1EE10FA7ED20120E0490870DE48B0F9C4
:10126000080000EE100AB8EEC00ADD48D0ED000A12
:10127000B4EE600AF1EE10FA6DD1D748B0F90A0069
:1012800000EE100AB8EEC00AD648D0ED000AB4EE5F
:10129000600AF1EE10FA74D1CF49B1F908000AF0F2
:1012A000E4FF41EC1B0B1FED450B53EC102B0BF037
:1012B00043F841EC1A0B1FED471BB0EE4A0AF0EE63
:1012C0006A0A09F0C5FEB0EE409AF0EE609A9FED12
:1012D000C60B53EC102B51EC190B0BF02DF841EC15
:1012E000180B0AF019FDC2490860BB49B1F90A00A0
:1012F0000AF0BBFF41EC1B0B1FED5A0B53EC102BFC
:101300000BF01AF841EC1A0B1FED5C1BB0EE4A0A09
:10131000F0EE6A0A09F09CFEB0EE409AF0EE609A98
:101320009FEDB10B53EC102B51EC190B0BF004F8A3
:1013300041EC180B0AF0F0FCAE490860A64890EDAD
:10134000000AAB48D0ED000A30EE200AAA48D0EDE2
:10135000000A01E03EE014E030EE200AA74880EDEC
:10136000000A9D4890ED010A0846D0ED000A30EED3
:10137000200AA348D0ED000A30EE200AA14880EDF3
:10138000000A9548B0F9080000EE100AB8EEC00A4D
:10139000934880ED000A9048B0F90A0000EE100A68
:1013A000B8EEC00A8F4880ED000A974890ED000A19
:1013B000884880ED010A9448D0ED010AB0EE600A39
:1013C000FFF7ACFB8E48D0ED000A30EE200A8148D2
:1013D00080ED020A7F4890ED020AFBEE090AB4EEA6
:1013E000E00AF1EE10FA04D8BBEE090A80ED020A19
:1013F0000DE0784890ED020AF3EE0E0AB4EEE00A32
:10140000F1EE10FA03DBB3EE0E0A80ED020A734828
:10141000007858B96E4890ED000A6E4880ED010AD8
:101420006A4890ED000A6B4880ED020A6948D0EDE9
:10143000071AB0EE611AD0ED031AF0EE610AD0ED92
:10144000011AB0EE610A5FEDA21A00F1140200F574
:10145000956100F5717000F0ACFFFFEE000A20EE20
:10146000200ABDEEC00A10EE100A01B2594881846C
:10147000D0ED081AB0EE611AD0ED041AF0EE610A50
:10148000D0ED021AB0EE610A5FEDB31A00F1180256
:1014900000F25C4100F5826000F08BFFFFEE000A75
:1014A00020EE200ABDEEC00A10EE100A01B2494833
:1014B000C184BDEC088B10BD10B5464840780328A8
:1014C0000BD0414890ED010A424880ED0B0A3E489E
:1014D00090ED000A3F4880ED0A0A3B4890ED000A73
:1014E0003C4880ED040A384890ED010A394880ED07
:1014F000030A354890ED030A364880ED080A324861
:1015000090ED040A334880ED070A4048407D0028EA
:1015100057D03148807B80B32B4890ED000A2D488E
:1015200080ED040A284890ED010A2A4880ED030A5C
:10153000254890ED030A274880ED080A224890EDDF
:10154000040A244880ED070A234890ED010A214847
:1015500080ED020A204890ED000A1E4880ED010A45
:1015600090ED020AFBEE090AB4EEE00AF1EE10FA81
:1015700004D8BBEE090A80ED020A0DE0154890ED93
:10158000020AF3EE0E0AB4EEE00AF1EE10FA03DB03
:10159000B3EE0E0A80ED020A0F4890ED062AF0EE37
:1015A000421A0C4890ED072AB0EE421A90ED032A39
:1015B000F0EE420A90ED012AB0EE420A00F1140268
:1015C00026E058E09C020020280C00208402002025
:1015D00088020020280400205C1500209D020020C5
:1015E000940200209802002000000020DCA54C405E
:1015F000A0020020A4020020740200208C0200201F
:1016000078020020900200201C00002030160020EC
:1016100000F5BB6100F2F44000F0CBFEFFEE000AE3
:1016200020EE200ABDEEC00A10EE100A01B2EA4810
:101630008184D0ED081AB0EE611AD0ED041AF0EEF4
:10164000610AD0ED021AB0EE610ADFEDE41A00F192
:10165000180200F5127100F5D87000F0AAFEFFEE36
:10166000000A20EE200ABDEEC00A10EE100A01B2F8
:10167000D948C1844AE0D84890ED0A0A80ED020AB0
:1016800090ED0B0A80ED010AD0ED071AB0EE611A59
:10169000D0ED031AF0EE610AD0ED011AB0EE610A46
:1016A000DFEDCE1A00F1140200F5FE7100F5B27004
:1016B00000F07FFEFFEE000A20EE200ABDEEC00A19
:1016C00010EE100A01B2C4488184D0ED081AB0EEC1
:1016D000611AD0ED041AF0EE610AD0ED021AB0EEF4
:1016E000610ADFEDBE1A00F1180200F5127100F573
:1016F000D87000F05EFEFFEE000A20EE200ABDEE7C
:10170000C00A10EE100A01B2B348C18410BD10B572
:101710002DED048B0020B2490870B249087000BF5B
:101720009FEDAE0AAC4880ED020AAF4890ED000A8A
:10173000A94880ED040A9FEDA90A80ED010AAB4893
:1017400090ED121BB0EE410AF0EE610A51EC100B65
:101750000AF0D6FA0AF0E0FA9F49C860A24890ED74
:10176000040A084680ED070A9F4890ED030A0846E0
:1017700080ED080A90ED030ADFED9D0A80EE201A45
:10178000BDEEC10A10EE104A4FF4B47104FB01F033
:1017900000EE100AB8EEC00A8F4880ED010A90ED05
:1017A000010AD0ED030A30EE600ADFED920AB4EED2
:1017B000E00AF1EE10FA08DB90ED010ADFED8C0A89
:1017C00030EE600A80ED010A15E0834890ED010AD1
:1017D000D0ED030A30EE600ADFED870AB4EEE00ACE
:1017E000F1EE10FA07D290ED010ADFED810A30EE3A
:1017F000200A80ED010A7848D0ED071AB0EE611A90
:10180000D0ED031AF0EE610AD0ED011AB0EE610AD4
:10181000DFED721A00F1140200F1CC01343000F057
:10182000C8FDFFEE000A20EE200ABDEEC00A10EE51
:10183000100A01B268488184D0ED081AB0EE611A2E
:10184000D0ED041AF0EE610AD0ED021AB0EE610A92
:10185000DFED621A00F1180200F58C71803000F0A3
:10186000A8FDFFEE000A20EE200ABDEEC00A10EE31
:10187000100A01B25848C18490ED020AD0ED040A62
:1018800030EE600A10EE101A08460BF04BF841ECEF
:10189000190BB0EE490AF0EE690A09F035FDB0EE19
:1018A000408AF0EE608A9FED550B53EC102B51EC03
:1018B000180B0AF005FD3FD8474890ED010AD0ED1E
:1018C000030A30EE600A10EE101A08460BF02AF8F0
:1018D00041EC190BB0EE490AF0EE690A09F014FD6B
:1018E000B0EE408AF0EE608A9FED460B53EC102B71
:1018F00051EC180B0AF0E4FC1ED80120364981F89F
:101900003000394890ED000A404880ED000A90ED23
:10191000000A3F48D0ED000A30EE200A3D4880ED35
:10192000000A3A4890ED000A3B48D0ED000A30EE3C
:10193000200A3A4880ED000ABDEC048B10BD10B5BA
:1019400025480078032816D003DC38B101281BD1C4
:101950000EE00B2812D00C2816D112E024211E48CC
:10196000001D09F07EF900201B4981F830000CE0D1
:10197000FFF7CDFE09E0FFF79FFD06E0FFF722FC31
:1019800003E0FFF775FA00E000BF00BF124890EDDA
:10199000020A2248D0ED000AB4EEE00AF1EE10FA95
:1019A00005D890ED000A0C4880ED020A0FE00A48C5
:1019B00090ED020A1748D0ED000AB4EEE00AF1EE0D
:1019C00010FA04DB90ED000A034880ED020A024899
:1019D00000780149487010BD280400200000000074
:1019E0009C0200209D020020280C0020E81000200E
:1019F0000000B44300003543000033C30000000082
:101A000000001040000000000000F83F68020020C5
:101A100070020020640200206C020020600200209E
:101A200010B52DED088BFE480078FE490870FE4881
:101A3000807EFB49087008460078FA490978884298
:101A400006D00020F94908704870F94908734873B6
:101A5000F548807E012804D002287CD003287BD161
:101A6000D8E0F2480078012829D0EF48B0F9020008
:101A7000A0F5806000EE100AB8EEC00AF7EE080A82
:101A800020EE200ABDEEC00A10EE100A00B2E849AE
:101A9000A1F80F00E448B0F90000A0F5806000EE66
:101AA000100AB8EEC00AF7EE080A20EE200ABDEED2
:101AB000C00A10EE100A01B2DD48A0F81110DB4890
:101AC0000078032859D1D849B1F90610A1F58060F2
:101AD0000AF0CBFB41EC1B0B9FEDD60B53EC102B0C
:101AE0000AF02AFC41EC190BD04890ED0A0A10EEDE
:101AF000101A08460AF016FF41EC1A0B53EC192B8A
:101B00000AF03CF941EC180B0AF006F9C749886263
:101B1000084690ED0B0AC448B0F90400A0F58060B7
:101B200000EE900AF8EEE00A9FEDC41A00EE810A7A
:101B3000084680ED0B0A90ED0A0AC148D0ED000A74
:101B4000B4EEE00AF1EE10FA07D890ED000A08466C
:101B500080ED0A0A11E0A9E1AEE1B44890ED0A0A6D
:101B6000B848D0ED000AB4EEE00AF1EE10FA04DB5A
:101B700090ED000AAD4880ED0A0AAC4800780128D3
:101B800007D0AA4800780C2803D0A84800780B2872
:101B900002D10120A6490873A4480078012809D081
:101BA000A148807E022805D0A048407810B90320C3
:101BB0009E4908709D48407840B99C48007828B1FB
:101BC00001209A490870002081F830009748007879
:101BD000032803D10120964981F84400934890F8E6
:101BE0003000012815D10320904908708E48807F6D
:101BF00040B107208E49087340F226218C48A0F896
:101C0000131006E003208A49087300218848A0F8D1
:101C1000131052E185480078012878D0824890F866
:101C20002C0038B10320824988734FF4C86086497C
:101C3000088006E002207E49887340F2262082490F
:101C40000880794890F8280030B17F48B0F900004A
:101C50007749A1F80F000FE0734890F82A0038B1D7
:101C600079480088404200B27149A1F80F0003E0B2
:101C700000206F49A1F80F006B4890F82900B8B117
:101C80006B48807B03280BD16F49B1F900104842A3
:101C900000EBD07149100AB26549A1F8112024E087
:101CA00069480088404201B26148A0F811101CE068
:101CB0005D4890F82B00A0B15D48807B032809D1D6
:101CC0006149B1F9000000EBD0714910584AA2F8FF
:101CD00011100AE05C48B0F900105548A0F8111046
:101CE00003E000215248A0F8111050480078032862
:101CF0006AD14D48407D50B94B48B0F90C0010F105
:101D0000640F05DC6FF063004749888108E05BE001
:101D10004548B0F90C00642802DB64204249888100
:101D20004148B0F90E0010F1640F04DC6FF063015C
:101D30003D48C18107E03C48B0F90E00642802DB51
:101D400064213948C181394890ED0B0A3648B0F911
:101D50000C0000EE900AF8EEE00A9FED3C1A00EE4F
:101D6000810A324880ED0B0A90ED0A0A2E48B0F93C
:101D70000E0000EE900AF8EEE00A9FED351A00EE34
:101D8000C10A2A4880ED0A0A90ED0A0A2C48D0EDD3
:101D9000000AB4EEE00AF1EE10FA05D890ED000A60
:101DA000224880ED0A0A0FE0204890ED0A0A2548F3
:101DB000D0ED000AB4EEE00AF1EE10FA04DB90ED8B
:101DC000000A1A4880ED0A0A18480078012807D04E
:101DD000164800780C2803D0144800780B2802D14C
:101DE00001201349087311480078012809D00E48D2
:101DF000807E022805D00D48407810B903200B4999
:101E000008700A48407840B90848007828B1012095
:101E100006490870002081F830000448007819E075
:101E2000AA020020AB020020301600202804002067
:101E30007C0B0020FCA9F1D24D62803F6F12033C65
:101E40006002002064020020A80200208FC2753DBD
:101E50000AD7233D032803D101201C4981F84400FF
:101E60001B4890F8300001281FD11A4890F846000E
:101E700018B10C20164908700CE0164890F8440080
:101E800018B10B201249087004E0032010490870B3
:101E90000E4908730F4890F83E0018B107200B490F
:101EA000087302E003200949087306E0002008498E
:101EB00008700649087300E000BF00BF0348007BBC
:101EC00002494873BDEC088B10BD00007C0B00205C
:101ED0002804002030160020D0ED000AF4EEC00ADD
:101EE000F1EE10FA01DD80ED000AD0ED000AB1EE4E
:101EF000401AF4EEC10AF1EE10FA03D2F1EE400AF4
:101F0000C0ED000A70470364C263816380ED000A7C
:101F1000C0ED010A80ED021A704780ED000AC0EDA5
:101F2000010A80ED021ADFEDFE1AC0ED081ADFED9E
:101F3000FC1AC0ED091ADFEDFA1AC0ED0A1ADFED3E
:101F4000F81AC0ED0B1A704710B52DED088B04463A
:101F5000B0EE408AF0EE608A84ED048AC4ED038A14
:101F600038EEC80A84ED070A94ED0C0AB5EEC00AF3
:101F7000F1EE10FA27D094ED0C0A10EE101A084674
:101F80000AF0D0FC41EC190B94ED070A10EE101A80
:101F900008460AF0C7FC41EC1B0BB0EE4B0AF0EE12
:101FA0006B0A09F0B1F9B0EE40AAF0EE60AA53EC6A
:101FB000192B51EC1A0B0AF0BDFA04D29FEDD80A86
:101FC000BDEC088B10BDA06B03283ED194ED000A38
:101FD000D4ED070A20EE200A84ED080A94ED090AE0
:101FE000D4ED010A94ED071A00EE810A84ED090A86
:101FF00094ED070AD4ED060A30EE600AD4ED020A29
:1020000020EE200A84ED0A0AD4ED100AF8EE600AE8
:10201000B0EE600A04F12400FFF75EFF94ED080AB9
:10202000D4ED090A30EE200AD4ED0A0A30EE200A77
:1020300084ED0B0AD4ED0F0AF8EE600AB0EE600AE8
:1020400004F12C00FFF748FF42E0A06B04283FD1C9
:1020500094ED070AD4ED060A30EE600AD4ED000ACA
:1020600020EE200A84ED080A94ED010AD4ED070A57
:1020700020EE200A84ED090A94ED070AD4ED060A41
:10208000B0EE001A01EE600AD4ED050A30EE200A27
:10209000D4ED020A20EE200A84ED0A0A94ED080A23
:1020A000D4ED090A30EE200AD4ED0A0A30EE200AF7
:1020B000D4ED0B0A30EE200A84ED0B0AD4ED0F0AA2
:1020C000F8EE600AB0EE600A04F12C00FFF704FF9E
:1020D00094ED060A84ED050A94ED070A84ED060ADC
:1020E00094ED0D0AB5EEC00AF1EE10FA25D094ED8C
:1020F0000D0A10EE101A08460AF014FC41EC190BF8
:1021000094ED0B0A10EE101A08460AF00BFC41EC95
:102110001B0BB0EE4B0AF0EE6B0A09F0F5F8B0EECF
:1021200040AAF0EE60AA53EC192B51EC1A0B0AF0FE
:10213000C7F802D29FED7A0A42E794ED0B0A3FE717
:1021400010B52DED088B0446B0EE408AF0EE608AA3
:1021500084ED048AC4ED038A38EEC80A84ED070AC8
:1021600094ED0C0AB5EEC00AF1EE10FA27D094ED0A
:102170000C0A10EE101A08460AF0D4FB41EC190BB9
:1021800094ED070A10EE101A08460AF0CBFB41EC5A
:102190001B0BB0EE4B0AF0EE6B0A09F0B5F8B0EE8F
:1021A00040AAF0EE60AA53EC192B51EC1A0B0AF07E
:1021B000C1F904D29FED5A0ABDEC088B10BDA06B8B
:1021C00003283ED194ED000AD4ED070A20EE200A40
:1021D00084ED080A94ED090AD4ED010A94ED071A7A
:1021E00000EE810A84ED090A94ED070AD4ED060A8F
:1021F00030EE600AD4ED020A20EE200A84ED0A0ACD
:10220000D4ED100AF8EE600AB0EE600A04F1240082
:10221000FFF762FE94ED080AD4ED090A30EE200AB9
:10222000D4ED0A0A30EE200A84ED0B0AD4ED0F0A31
:10223000F8EE600AB0EE600A04F12C00FFF74CFEE5
:102240003EE0A06B04283BD194ED070AD4ED060ACA
:1022500030EE600AD4ED000A20EE200A84ED080A70
:1022600094ED010AD4ED070A20EE200A84ED090A54
:1022700094ED070AD4ED060AB0EE001A01EE600AEA
:10228000D4ED050A30EE200AD4ED020A20EE200A31
:1022900084ED0A0A94ED080AD4ED0A0A30EE200A09
:1022A000D4ED0B0A30EE200A84ED0B0AD4ED0F0AB0
:1022B000F8EE600AB0EE600A04F12C00FFF70CFEA5
:1022C00094ED060A84ED050A94ED070A84ED060AEA
:1022D00094ED0D0AB5EEC00AF1EE10FA28D094ED97
:1022E0000D0A10EE101A08460AF01CFB41EC190BFF
:1022F00094ED0B0A10EE101A08460AF013FB41EC9D
:102300001B0BB0EE4B0AF0EE6B0A08F0FDFFB0EECF
:1023100040AAF0EE60AA53EC192B51EC1A0B01E025
:102320000000000009F0CCFF02D21FED030A43E7D2
:1023300094ED0B0A40E72DE9F0412DED048B0446A6
:102340000D4616461F46B0EE408AF0EE608AB0EEAB
:10235000419A2A486064B0EE491AF0EE680AB0EE7D
:10236000480A3B46324629462046D4F844C0E04756
:10237000BDEC048BBDE8F0811FED170A80ED080A63
:102380001FED190A80ED090A1FED1B0A80ED0A0AEC
:102390001FED1D0A80ED0B0A1FED1F0A80ED050AD7
:1023A0001FED210A80ED060A1FED230A80ED070AC2
:1023B000704770B52DED048B06460D461446B0EE01
:1023C000408AF0EE608AB0EE419AF0EE619AF0EE4B
:1023D000480AB0EE680A3046FFF7B6FD30EE290A2B
:1023E00084ED000A94ED000AF0EE400AB0EE490ACE
:1023F0002846FFF7A9FDBDEC048B70BD071F000840
:102400000168A1F2052101B900E000BF00BF7047DB
:1024100010B504462068A0F2052010B101280ED1A5
:1024200006E041F27D7221460D4800F08FF907E089
:1024300041F6150221460B4800F088F900BF00BFA5
:1024400000BF10BD08B5002000900748B0F9262055
:10245000B0F924100023054800F09EF908BD0000E3
:10246000E8100020901000202804002000680040A0
:1024700070B505460C464C22A91D394808F07AFB78
:10248000374890ED0C0AB1EE400A84ED000A354859
:1024900090ED000A344880ED000A314890ED0E0AB4
:1024A000304880ED000A90ED000A2F48D0ED000A78
:1024B00030EE600ADFED2D0AB4EEE00AF1EE10FA1C
:1024C00005DB2B480068401E2949086013E02548B9
:1024D00090ED000A2448D0ED000A30EE600ADFEDEE
:1024E000250AB4EEE00AF1EE10FA04D8204800689C
:1024F000401C1F4908601E4800684FF4B4714843EF
:1025000000EE100AB8EEC00A1648D0ED000A30EE10
:10251000200AB1EE400A84ED010A114890ED0D0A3F
:1025200084ED020A90ED070AB1EE400A84ED030A39
:1025300090ED080AB1EE400A84ED040A90ED060A17
:1025400084ED050A90ED030A84ED060A90ED050A74
:1025500084ED070A90ED040A84ED080A70BD0000BE
:1025600000140020B0020020AC0200200000A243B2
:10257000B40200200000A2C30A7BCB7A42EA032205
:10258000826182698260826942600269521C0261D2
:1025900070472DE9F04104460D46002600272068CB
:1025A0006060287BE97A40EA012020602068616849
:1025B000401AE060E06810F5805F07DAA06B401C0D
:1025C000A063E06800F50050E0610DE0E068B0F560
:1025D000805F07DDA06B401EA063E068A0F500509F
:1025E000E06101E0E068E0612168A06B01EB403050
:1025F000A0602068A269801A00EE100AF8EEC00AF6
:10260000A06B4FF4B472504300EE100AB8EEC00A4B
:102610009FEDBD1A00EE810A10EE101A08460AF06E
:1026200081F941EC100B84ED120BE269207D411C15
:10263000217504F1200141F82020207D062801D1D8
:1026400000202075002605E004F1200050F8260047
:102650000744761C062EF7DB062097FBF0F020647B
:10266000A97B687B41EA002000B2A4F85400BDE8D1
:10267000F08170B504460D4620686060287BE97AD9
:1026800040EA0120206020686168401AE060E0684C
:1026900010F5805F07DAA06B401CA063E06800F5CE
:1026A0000050E0610DE0E068B0F5805F07DDA06BF1
:1026B000401EA063E068A0F50050E06101E0E06822
:1026C000E0612168A06B01EB4030A0602068A26946
:1026D000801A00EE100AF8EEC00AA06B4FF4B47234
:1026E000504300EE100AB8EEC00A9FED881A00EEC3
:1026F000810A10EE101A08460AF014F941EC100B8A
:1027000084ED120BA97B687B41EA00202064206CD9
:10271000B0F57A7F04DB206CA0F57F40FF382064A1
:10272000687C206570BD70B504460D46E06B401CAA
:10273000E063E06B052804DC29462046FFF71CFF18
:1027400003E029462046FFF724FF70BD70B504461C
:102750000E461546E06B401CE063E06B022800DC8F
:10276000A56131462046FFF784FFE06B0A2812DCA2
:10277000A069A168401A10F57A6F03DA05F50050D8
:10278000A06108E0A069A168401AB0F57A6F02DD87
:10279000A5F50050A06170BD2DE9F04186B08046DE
:1027A0000C4615461E460C9F40F2FF10019000207B
:1027B0008DF80C008DF80D0008208DF80E00200A11
:1027C0008DF80F008DF81040290A8DF811108DF842
:1027D0001250310A8DF813108DF81460390A8DF8F3
:1027E00015108DF8167001A9404602F0CDF906B01B
:1027F000BDE8F0812DE9F04186B080460C461546D3
:102800001E460C9F40F2FF20019000208DF80C0026
:102810008DF80D0008208DF80E00200A8DF80F00AD
:102820008DF81040290A8DF811108DF81250310AD8
:102830008DF813108DF81460390A8DF815108DF885
:10284000167001A9404602F09FF906B0BDE8F0817C
:102850002DE9F04186B080460C4615461E460C9F79
:102860004FF40070019000208DF80C008DF80D00E1
:1028700008208DF80E00200A8DF80F008DF810400A
:10288000290A8DF811108DF81250310A8DF81310A5
:102890008DF81460390A8DF815108DF8167001A99D
:1028A000404602F071F906B0BDE8F0812DE9F04133
:1028B00086B080460C4615461E460C9F40F2FF101F
:1028C000019000208DF80C008DF80D0008208DF887
:1028D0000E00200A8DF80F008DF81040290A8DF89F
:1028E00011108DF81250310A8DF813108DF8146004
:1028F000390A8DF815108DF8167001A9404602F0BE
:1029000043F906B0BDE8F081FFFF333D0000343DE0
:10291000F0B503460C461888002113E0675C80EA96
:10292000072000250BE0460000F4004CBCF1000F2E
:1029300003D041F2210C86EA0C0630466D1C082DAE
:10294000F1D3491C9142E9D31880F0BD2DE9F84339
:1029500005460F4690464FF00009002000900626DD
:10296000FE484078002859D0002085F86300FB48D5
:102970004078C0F3800078B1F9A1284608F0E8F863
:10298000F84908600846006830B1F448007820F043
:102990000400001DF1490870F048407800F0010083
:1029A00078B1EFA1284608F0D3F8EE490860084650
:1029B000006830B1E948007820F00100401CE74988
:1029C0000870E6484078C0F3400078B1E4A128469A
:1029D00008F0BEF8E34908600846006830B1DF48F7
:1029E000007820F00200801CDC490870DB48407849
:1029F000C0F3C00078B1DCA1284608F0A9F8D94995
:102A000008600846006830B1D448007820F008001B
:102A10000830D2490870002028600AE128785A2836
:102A2000FBD16878A528F8D1A878E97800EB0120D7
:102A3000801D4045F1D1B8F1080FEEDB0422294694
:102A40006846FFF765FFA8F10602A91D6846FFF773
:102A50005FFF2879697900EB01201FFA80F9BDF842
:102A600000004845D9D10626E0E0AC192078C028FE
:102A700060D008DC90280FD0A02813D0A52829D03A
:102A8000B0286FD13EE0D02870D0D1286CD0D928A2
:102A90006BD0F028F5D1C3E06078B8490870B01C5D
:102AA000C6B2C2E06078A17800EB012000B2B34961
:102AB0004880E078217900EB012000B2AF4988809E
:102AC0006079A17900EB012000B2AC49C880F01D0B
:102AD000C6B2AAE06078A17800EB012000B2A74955
:102AE0000881E078217900EB012000B2A3494881F8
:102AF0006079A17900EB012000B2A0498881F01D26
:102B0000C6B292E06078A17800EB012000B29B4948
:102B1000C881E078217900EB012000B29749088252
:102B20006079A17900EB012000B294494882F01D40
:102B3000C6B27AE06078A17800EB012000B28F493C
:102B40008882E078217900EB012000B28B49C882AD
:102B50006079A17900EB012000B288490883F01D5B
:102B6000C6B262E05FE001E04CE03FE06078A1784F
:102B700000EB012000B281494883E078217900EB25
:102B8000012000B27D4988836079A17900EB0120A2
:102B900000B27A49C8830846B0F91A0000EE100A5C
:102BA000B8EEC00ADFED760A20EE200A084680ED76
:102BB0000F0AB0F91C0000EE100AB8EEC00ADFEDF3
:102BC000700A20EE200A084680ED100AB0F91E00B7
:102BD00000EE100AB8EEC00ADFED6A0A20EE200A05
:102BE000084680ED110AF01DC6B21EE0634854F895
:102BF000011F016261684162A168816206F10D00F6
:102C0000C6B212E05D4854F8011FC16261680163F9
:102C1000A1684163E168816306F11100C6B204E076
:102C2000701DC6B201E0464600BF00BF4645FFF634
:102C30001CAF5248B0F91200404200EE100AB8EE44
:102C4000C00ADFED500A20EE200A87ED040A4B4847
:102C5000B0F91000404200EE100AB8EEC00ADFEDF5
:102C6000490A20EE200A87ED030A4448B0F90E0015
:102C7000404200EE100AB8EEC00ADFED420A20EE34
:102C8000200A87ED050A404890ED000A3F4880ED94
:102C9000000A3A4890ED110AB1EE400A3A4880ED38
:102CA000000A90ED000A3948D0ED000A30EE600AC3
:102CB000DFED370AB4EEE00AF1EE10FA05DB354835
:102CC0000068401E3349086013E02F4890ED000A69
:102CD0002E48D0ED000A30EE600ADFED2F0AB4EE88
:102CE000E00AF1EE10FA04D82A480068401C29498D
:102CF00008602A4890ED000A294880ED000A1F4824
:102D000090ED080A254880ED000A90ED000A24485D
:102D1000D0ED000A30EE600ADFED1D0AB4EEE00AE5
:102D2000F1EE10FA05DB1F480068401E1D490860DF
:102D300013E01A4890ED000A1948D0ED000A30EE71
:102D4000600ADFED150AB4EEE00AF1EE10FA04D8DD
:102D500014480068401C1349086025E0B8020020B0
:102D60004F4B0000BC0200206E6577207061636BE2
:102D70006574206974656D73000000004C140020B8
:102D80000AD7233CCDCCCC3DC4020020C002002099
:102D90000000A543D80200200000A5C3CC020020FB
:102DA000C8020020DC020020314800684FF4B471F2
:102DB000484300EE100AB8EEC00A2E48D0ED000AD3
:102DC00030EE200A87ED000A2B4890ED000A2B48D0
:102DD00080ED000A2A4890ED090A274880ED000A94
:102DE00090ED000A2548D0ED000A30EE600A5FED54
:102DF000180AB4EEE00AF1EE10FA05DB214800688B
:102E0000401E2049086013E01B4890ED000A1B4853
:102E1000D0ED000A30EE600A5FED210AB4EEE00A60
:102E2000F1EE10FA04D817480068401C15490860F4
:102E3000154800684FF4B471484300EE100AB8EE2C
:102E4000C00A1248D0ED000A30EE200A87ED010AD0
:102E50000B4890ED100ADFED0E0A30EE200A87EDE8
:102E6000020A90ED0F0A87ED000ABDE8F883000022
:102E7000DC020020CC020020D4020020D00200207E
:102E80004C140020E0020020D8020020C4020020E0
:102E9000A470954030B5034605E013F8010B80EAB5
:102EA0000204B348025D081EA1F10101F5D11046EC
:102EB00030BD70B505460C4600260DB1022C01D878
:102EC000002070BD611EFF222846FFF7E3FF064683
:102ED000601E285CB04201D10120F2E70020F0E73B
:102EE00070B505460C4600260DB1022C00D870BD09
:102EF000611EFF222846FFF7CDFF0646601E2E54B6
:102F000000BFF4E730B5034613B94FF6FF7030BD8C
:102F100009E013F8014B82EA0400C0B2954D35F880
:102F2000100080EA2222081EA1F10101F1D1104611
:102F3000EDE770B505460C4600260DB1022C01D810
:102F4000002070BDA11E8C4802882846FFF7DAFFDA
:102F50000646F1B2A01E285C814206D1601E285CA4
:102F6000B0EB162F01D10120EBE70020E9E770B5A7
:102F700005460C4600260DB1022C00D870BDA11EDE
:102F80007D4802882846FFF7BDFF0646A01E2E5446
:102F9000310A601E295400BFF0E770B504460D46A3
:102FA00000260CB1022D01D8FF2070BDFF2229465A
:102FB0002046FFF76FFFF8E72DE9FC5F05460F4657
:102FC000092F01D8BDE8FC9F0024A146CBE015F8ED
:102FD00004A0601C295CA01C285C41EA0026601D3E
:102FE000295CA01D285C41EA002B281900F1070884
:102FF00028190168009100798DF8040006F1090094
:103000001FFA80F9BAF1A50F77D105216846FFF7BD
:1030100050FF002871D028194946FFF78AFF002881
:10302000F8D0BBF5017F6AD012DC40F20311ABEBA4
:1030300001008B452BD006DCBBF1010F1AD0BBF190
:10304000030F74D11CE0FE2828D0FF286FD14BE07D
:10305000BBF5027F6DD006DCABF20620002856D00F
:1030600001287BD15AE0ABF20130002868D0022859
:1030700074D16CE032464146404807F07BFD6EE07B
:10308000324641463D480C3007F074FD67E0324659
:1030900041463A48363007F06DFD60E01B2E22D1E4
:1030A000324641463548393007F064FD334890F8E0
:1030B0003900012809DB314890F83900072804DC81
:1030C00002202E4981F8C5000DE02C4890F8390007
:1030D0000B2808DB294890F83900112803DC01206F
:1030E000264981F8C5003AE0102E05D13246414606
:1030F0002248543007F03EFD31E031E0FFE7012E79
:1031000004D198F800001D4981F8740027E0324688
:1031100041461A48763007F02DFD20E0072E05D1F4
:10312000324641461548773007F024FD17E015E098
:10313000FFE73246414611487E3007F01BFD0EE0A6
:10314000324641460D48843007F014FD07E0324610
:1031500041460A48AC3007F00DFD00E000BF00BF5B
:1031600004EB090084B2A7423FF731AF00BF29E763
:1031700067CB000868CC0008E4020020941400200B
:1031800010B503463BB1087838B9012008701078B3
:10319000401C107001E000200870107800EBD07423
:1031A0006410A0EB44040CB9002010BD0120FCE722
:1031B000CB8A03400BB1012300E00023137070475A
:1031C00010B5044604F1280221460120FFF7F0FF64
:1031D00004F1290221460420FFF7EAFF04F12A0244
:1031E00021460220FFF7E4FF04F12B0221460820CC
:1031F000FFF7DEFF04F12C0221461020FFF7D8FF75
:1032000004F12E0221462020FFF7D2FF04F12F0205
:1032100021464020FFF7CCFF04F1300221468020F8
:10322000FFF7C6FF04F1310221464FF48070FFF72B
:10323000BFFF04F1320221464FF40070FFF7B8FFE0
:1032400004F1330221464FF48060FFF7B1FF04F12F
:10325000340221464FF40060FFF7AAFF04F12D026B
:1032600021464FF48050FFF7A3FF04F135022146B9
:103270004FF40050FFF79CFF04F1360221464FF453
:103280008040FFF795FF04F1370221464FF40040DC
:10329000FFF78EFF94F82800914A9249FFF770FFDC
:1032A000382108552921085D8F4A9049FFF768FFAA
:1032B000392108552A21085D8D4A8E49FFF760FFA4
:1032C0003A2108552B21085D8B4A8C49FFF758FF9E
:1032D0003B2108552C21085D894A8A49FFF750FF98
:1032E0003C2108552E21085D874A8849FFF748FF91
:1032F0003E2108552F21085D854A8649FFF740FF8A
:103300003F2108553021085D834A8449FFF738FF83
:10331000402108553121085D814A8249FFF730FF7D
:10332000412108553221085D7F4A8049FFF728FF77
:10333000422108553321085D7D4A7E49FFF720FF71
:10334000432108553421085D7B4A7C49FFF718FF6B
:10335000442108552D21085D794A7A49FFF710FF6D
:103360003D2108553521085D774A7849FFF708FF68
:10337000452108553621085D754A7649FFF700FF5B
:10338000462108553721085D734A7449FFF7F8FE56
:103390004721085510BD817AC176017FC27E891A06
:1033A0004177C27E0277417F01290ED1016A491C13
:1033B0000162016A01EBD1725210A1EB420212B913
:1033C0000022827701E001228277417F02290ED11B
:1033D000416A491C4162416A01EBD1725210A1EB72
:1033E000420212B90022C27701E00122C27770477F
:1033F000C17A012901D1817608E0C17A032901D17E
:10340000817603E0C17A022900D18176704730B518
:1034100004460D46122D00D030BD04B9FCE72078DB
:10342000617840EA0120C0F30A004D4908806078C5
:10343000C010A17840EA4110C0F30A004849488012
:10344000A0788011E17840EA8100217940EA81206A
:10345000C0F30A004249888020794010617940EA2F
:10346000C110C0F30A003E49C880207C617C40EA5C
:103470000120C0F30A003A490881607900118008F0
:1034800088726079C0F30110C872A079E17940EACE
:10349000012000B232498881207A617A40EA012015
:1034A00001B22F48C181A07AE17A40EA012001B23D
:1034B0002B480182217B0175617B4175A07BE17BFB
:1034C00040EA01202649C8820846FFF791FF2448B8
:1034D000FFF761FF2248FFF773FE00BF9CE7000083
:1034E000E7020020E6020020E9020020E8020020B6
:1034F000EB020020EA020020ED020020EC02002096
:10350000EF020020EE020020F1020020F002002075
:10351000F3020020F2020020F5020020F402002055
:10352000F7020020F6020020F9020020F802002035
:10353000FB020020FA020020FD020020FC02002015
:10354000FF020020FE0200200103002000030020F3
:1035500003030020020300200503002004030020D1
:103560003016002010B586B0044640F207400190A6
:1035700000208DF80C008DF80D0008208DF80E004D
:103580009A4800788DF80F00984841788DF810100F
:1035900081788DF81110C08A010A8DF812109348B5
:1035A000817D8DF81310008A010A8DF814108F4860
:1035B000017C8DF81510017F8DF8161001A92046A9
:1035C00001F0E2FA06B010BD10B586B004464FF423
:1035D0008160019000208DF80C008DF80D0008200E
:1035E0008DF80E008148408A000A8DF80F007F4850
:1035F000817C8DF81010808A010A8DF811107B48AB
:10360000017D8DF81210008B010A8DF81310774898
:10361000017E8DF81410408B01128DF8151073483F
:10362000817E8DF8161001A9204601F0ADFA06B092
:1036300010BD10B586B0044640F20940019000204C
:103640008DF80C008DF80D0008208DF80E006748ED
:10365000C068000E8DF80F006448C068010C8DF83A
:10366000101062488089010A8DF811105F48017BB3
:103670008DF8121001468868097B000E40EA01208F
:10368000C1B28DF8131059498868097B000C40EAD3
:103690000140C1B28DF8141054490889097B000A11
:1036A00040EA0160C1B28DF815105048017A8DF8DA
:1036B000161001A9204601F067FA06B010BD2DE9E9
:1036C000FF5F2DED020B2DED048B0C4615461E46BB
:1036D000B0EE408AF0EE608A14AF97E8800F43485E
:1036E0000470457086709FED420B53EC102B51EC2B
:1036F000180B08F021FE09F091F93C4AC2E90201D9
:1037000010460782A0F81280A0F81490A0F816A026
:10371000A0F818B01146199848831A9808770698A7
:10372000FFF720FF0698FFF74FFF0698FFF781FF8E
:10373000BDEC048B06B0BDE8F09F0168A1F2074123
:1037400021B101291CD002294ED13BE0C17A274A80
:103750001170017B5170417B9170C27B817B42EA89
:10376000012109B2214AD182427C017C42EA012135
:1037700009B21E4A1182827C1F49A1F8512033E010
:10378000017BC27A41EA022109B2184A5182827B46
:10379000417B42EA012109B2144A9182027CC17B39
:1037A00042EA012100EE101AB8EEC00A10EE101A1B
:1037B000114A9165827C417C42EA01220E49A1F8BE
:1037C0005C2011E000210943C27B41EA0262017CD6
:1037D00042EA0142417C42EA0121827C1143CA173C
:1037E000024BC3E9021200BF00BF704778160020E9
:1037F000000000000088C34094140020F0B58BB096
:1038000004460D4616461F460121084602F01AFAE4
:103810000121480602F05FFA09220B21964801F0C7
:10382000FEFF09220C21944801F0F9FF4FF4C0502B
:10383000099002208DF8280009A98F4801F064FF43
:1038400014208DF8040003208DF8050001208DF868
:1038500006008DF8070001A800F099FF874801F0E5
:1038600001F806A801F022F900208DF81E000120C1
:103870008DF81F0000208DF820008DF821008DF8B4
:1038800022008DF823008DF81A708DF81B008DF83A
:103890001C508DF81D40ADF8186006A9774800F05F
:1038A000FAFF00208DF812008DF8130001208DF82A
:1038B00014000020ADF80800ADF80A00ADF80C00C7
:1038C000ADF80E00ADF8100001208DF8150002A82B
:1038D00001F06BF801220221684801F065FB0BB092
:1038E000F0BD10B50121654801F0C6FB18B10121FA
:1038F000624801F05CFC10BD00B585B002215F4854
:1039000001F0BAFB88B104215C4801F050FC5C492D
:103910005A4801F08EFB6A460021584801F029FA06
:1039200000BF6846FEF76CFD00BF05B000BDF0B5F6
:103930008BB004460D4616461F460121022002F0B8
:1039400081F90121880602F0C6F909220C214D48AF
:1039500001F065FF09220D214A4801F060FF4FF494
:103960004050029002208DF80C0002A9454801F059
:10397000CBFE40208DF8040003208DF805008DF863
:10398000060001208DF8070001A800F000FF3F208D
:103990008DF8040003208DF805008DF80600012045
:1039A0008DF8070001A800F0F2FE374800F05AFF3A
:1039B00008A801F07BF800208DF8260001208DF882
:1039C000270000208DF828008DF829008DF82A00A6
:1039D0008DF82B008DF822008DF823008DF82450EF
:1039E0008DF82540ADF8206008A9274800F053FF66
:1039F0000E208DF81A0000208DF81B0001208DF894
:103A00001C000020ADF81000ADF81200ADF8140055
:103A1000ADF81600ADF8180001208DF81D0004A8BF
:103A200000F0C3FF01220221174801F0BDFA0BB0DC
:103A3000F0BD10B50121144801F01EFB18B10121A1
:103A4000114801F0B4FB10BD00B585B002210E484D
:103A500001F012FB68B102210B4801F0A8FB6A4695
:103A60000021094801F085F900BF6846FEF7D0FC47
:103A700000BF05B000BD000000000240006400402F
:103A800008000032000402400068004010B596B003
:103A900004460121022002F0D5F80121880502F038
:103AA000D1F80121102002F027F907221146FE4823
:103AB00001F0B5FE14A801F06FFE802014900220E2
:103AC0008DF8540000208DF8550001208DF8570026
:103AD00014A9F54801F018FEF44803F059F810A8AD
:103AE00003F023F910940020ADF84400ADF846002F
:103AF0004FF48060ADF848000420ADF84A00002083
:103B0000ADF84C0010A9E94803F0A9F801224021C2
:103B1000E64803F0D9F9E64801F09CFB684601F05D
:103B200064FC4FF000600090E048001D0190E14807
:103B300002900020039040200490002005904FF454
:103B4000806006900020079008904FF480700990E4
:103B500000020A9000200B900C900D900E90694688
:103B6000D34801F019FC0022D2494031D04801F07D
:103B700074FC0121CE4801F07CFC0121CC4801F00D
:103B800045FC25208DF83C0000208DF83D008DF887
:103B90003E0001208DF83F000FA800F0F8FD012243
:103BA00040F22441C14803F098F90121BF4803F0D5
:103BB000DEF816B010BD10B540F22441BB4803F04A
:103BC000C7F9002856D0B9480088B8488088B84856
:103BD00001F05FFC30BB0021B54801F017FCB6498D
:103BE000B34801F08CFCB24801F033FCC0F1400056
:103BF000B24908604020AE49091D0860081F0068EE
:103C000040F40020091F08600121A94801F0FEFBD3
:103C100000BFAA48008881B2A648FFF7F8FBFDF76D
:103C2000FFFE27E00021A24801F0F0FBA249A048D6
:103C300001F065FC9E4801F00CFCC0F140009F497A
:103C4000086040209A49091D0860081F006820F498
:103C50000020091F08600121954801F0D7FB00BF33
:103C60009648008881B293484030FFF7D0FBFDF7BB
:103C7000D7FE00BF10BD10B596B00446012108461E
:103C800001F0E0FF0121480501F0DCFF01214804BB
:103C900002F021F807220221894801F0C0FD072225
:103CA0000321874801F0BBFD14A801F075FD0C202D
:103CB000149002208DF8540000208DF8550001204A
:103CC0008DF8570014A97E4801F01EFD7D4802F0D2
:103CD0005FFF10A803F029F810940020ADF844000D
:103CE000ADF84600ADF848000C20ADF84A000020C1
:103CF000ADF84C0010A9734802F0B1FF0122402139
:103D00006A4803F0E1F8704801F0A4FA684601F04F
:103D10006CFB4FF0006000906A48001D01906B48FA
:103D200002900020039064200490002005904FF43E
:103D3000806006900020079008904FF480700990F2
:103D400000020A9000200B900C900D900E90694696
:103D50005D4801F021FB00225C4964315A4801F0C2
:103D60007CFB0121584801F084FB0121564801F0F9
:103D70004DFB26208DF83C0000208DF83D008DF88D
:103D80003E0001208DF83F000FA800F000FD012249
:103D900040F224414B4803F0A0F80121494802F0C9
:103DA000E6FF16B010BD10B540F22441454803F0BF
:103DB000CFF828B3434800884248001D00880021FE
:103DC000414801F023FB42493F4801F098FB3E483F
:103DD00001F03FFBC0F164003E49086064203A49AD
:103DE000091D086038488838D0F8880040F4002061
:103DF000091F08600121344801F008FB00BF20E0E2
:103E00000021314801F002FB31492F4801F077FBD6
:103E10002D4801F01EFBC0F164002E4908606420AB
:103E20002949091D086028488838D0F8880020F4FE
:103E30000020091F08600121234801F0E7FA00BFB4
:103E400000BF10BD10B596B004460121022001F05C
:103E5000F9FE0121880401F03EFF0121480501F02F
:103E6000F1FE07220A21104801F0D9FC07220B219C
:103E70000D4801F0D4FC02208DF8440003208DF899
:103E8000450000208DF8460001208DF84700800293
:103E9000109010A9044801F037FC4FF40060109016
:103EA00010A9014818E00000000402400010014081
:103EB00040640240981A00200000301008030020DF
:103EC000000002400044004088600240181B0020AF
:103ED000000C00200C03002001F016FC27208DF8B8
:103EE000000002208DF8010001208DF802008DF8FD
:103EF0000300684600F04BFC12940020ADF84C0023
:103F0000ADF84E00ADF85000ADF854000C20ADF8FF
:103F1000520012A9FE4802F0A2FE012240F2244102
:103F2000FB4802F0DAFF5021F94803F008F864205A
:103F3000059000200C900D900E9009904FF4806039
:103F4000079080100A90F248001D029000200F9008
:103F5000089006904FF400300B90800201900020F2
:103F60000490EC48039001A9EB4801F015FA0121F7
:103F7000E94801F04BFA01224021E54802F0A4FF94
:103F80000121E34802F0F3FE16B010BD10B540F277
:103F90002441DF4802F0DCFFF8B1DD4802F016FFF3
:103FA00040F22441DA4803F00EF80021DA4801F02B
:103FB0002DFA00224021D64802F086FF00BFD749E3
:103FC000D448FEF755FA00BF01224021D04802F044
:103FD0007BFF0121D04801F019FA10BD10B596B051
:103FE00004460121042001F02DFE0121C80401F046
:103FF00072FE08220A21CA4801F011FC08220B2196
:10400000C74801F00CFC0121480501F01BFE4FF4EC
:104010004060109002208DF8440000208DF846008A
:1040200003208DF8450001208DF8470010A9BC48F9
:1040300001F06AFB12940020ADF84C00ADF84E0080
:10404000ADF850000C20ADF852000020ADF854003F
:1040500012A9B44802F003FE01224021B14802F047
:1040600033FFAD48183001F0F5F8684601F0BDF9AE
:104070004FF000600090AB48001D0190AA480290EC
:104080000020039064200490002005904FF480608D
:10409000069000200790089009904FF480300A9015
:1040A00000200B900C900D900E9069469A481830A5
:1040B00001F072F901219848183001F0A7F9342075
:1040C0008DF83C0003208DF83D008DF83E00012066
:1040D0008DF83F000FA800F05AFB01228021914883
:1040E00002F0F2FE00218C48483001F08FF98A4836
:1040F000483001F0AFF800BF8748483001F0D3F9ED
:104100000028F9D14FF0006000908648001D019012
:1041100086480290402003900020049005904FF4C0
:104120008060069000200790089009904FF480303E
:104130000A9000200B9003200C9000200D900E9010
:1041400069467548483001F027F90F208DF83C008A
:1041500003208DF83D008DF83E0001208DF83F00D2
:104160000FA800F014FB012210216B48483001F029
:10417000DAF9012240F224416A4802F0AEFE012140
:10418000684802F0F4FD16B010BD10B5002440F2EE
:104190002441644802F0DCFE08B3624800886148AC
:1041A000001D008800215C48183001F02FF960499B
:1041B0005948183001F0A3F95748183001F049F96F
:1041C000C0F16400C4B200BF00BF6421524818307F
:1041D00001F03DF901215048183001F017F910BDE8
:1041E00070B504460D462946204601F030F90121FC
:1041F000204601F00BF970BD10B54E4946484830D5
:1042000001F061F948B100214348483001F0FEF85F
:1042100048494148483001F072F910BD70B5044674
:104220000025424D05F8014B01213B484830FFF77E
:10423000D7FF70BD2DE9F04105460E46002400274A
:104240003A4F00BF03E0285D3855601C84B2B44289
:10425000F9DB314630484830FFF7C2FFBDE8F08156
:1042600010B596B004460121042001F0EBFC0121B9
:10427000082001F0E7FC0121080501F02CFD0121D7
:10428000480501F0DFFC02208DF8540000208DF875
:1042900056004FF48050149001208DF857000320F1
:1042A0008DF8550014A91E4801F02EFA02208DF851
:1042B000540000208DF856000420149001208DF841
:1042C000570003208DF8550014A91B4801F01CFA73
:1042D00008220C21124801F0A2FA082202211648F5
:1042E00001F09DFA10940020ADF84C000C20ADF8C0
:1042F0004A000020ADF84800ADF84600ADF8440093
:1043000010A90E4802F0ABFC01210C4818E0000097
:1043100000480040E01B002028600240280C0020DC
:1043200000080240004C0040441C00200C1D0020EE
:104330000000301020000020000C0240005000401F
:1043400002F015FD01224021DD4802F0BDFD684666
:1043500001F04BF8DB4802904FF4007004908004A9
:104360000090D748001D01900020039005904FF465
:104370008060069000200890079009904FF48030EC
:104380000A9000200B900C900D900E906946CE483C
:1043900001F002F80121CC4801F038F80022CB49A5
:1043A000C94801F05AF80121C74801F062F83520E8
:1043B0008DF83C0001208DF83F008DF83D00022073
:1043C0008DF83E000FA800F0E2F9012240F22441EE
:1043D000BB4802F082FD0121B94802F0C8FC01226D
:1043E0008021B74802F070FD0021B748A83001F0E5
:1043F0000DF8B548A83000F02DFF00BFB248A83036
:1044000001F051F80028F9D14FF000600090AC485D
:10441000001D0190AE480290402003909620049029
:10442000002005904FF480600690002007900890CF
:1044300009900A900B9003200C9000200D900E9094
:104440006946A148A83000F0A7FF01219E48A83086
:1044500000F0DCFF2F208DF83C0002208DF83D009D
:1044600001208DF83E008DF83F000FA800F08FF975
:1044700016B010BD70B504460D460021204600F070
:10448000C5FF00BF204601F00EF80028FAD12946EA
:10449000204600F0DCFF0121204600F0B7FF70BD90
:1044A00010B540F22441864802F052FD002852D057
:1044B0008348008882488088834800F0EAFF28BB50
:1044C0000021814800F0A2FF82497F4801F017F8DF
:1044D0007D4800F0BEFFC0F500707F4908604FF4D2
:1044E0000071794800F0B3FF4FF400227749764815
:1044F00000F0CAFF0121744800F088FF00BF764831
:10450000008881B26F48FEF757FD24E000216E4815
:1045100000F07CFF6F496C4800F0F1FF6A4800F042
:1045200098FFC0F500706C4908604FF40071664850
:1045300000F08DFF00226349634800F0A5FF0121D0
:10454000614800F063FF00BF6348008881B25F48A4
:10455000FEF732FD00BF10BD00B597B00121042069
:1045600001F070FB0121880501F06CFB0121202086
:1045700001F0C2FB08220621584801F050F9082238
:104580000721564801F04BF9C020119002208DF808
:10459000480000208DF84A0002208DF849000020D4
:1045A0008DF84B0011A94D4801F0AEF84C4802F0CF
:1045B000EFFA4FF4E13013900020ADF85000ADF861
:1045C0005200ADF854000C20ADF856000020ADF8B4
:1045D000580013A9424802F042FB01224021404802
:1045E00002F072FC3F4800F035FE4FF02060019071
:1045F0003B48001D02903C4803900020049064203A
:104600000590002006904FF48060079000200890ED
:1046100009900A904FF480300B9000200C900D9080
:104620000E900F9001A92F4800F0B6FE01212D48F1
:1046300000F0ECFE47208DF8400003208DF841008B
:104640008DF8420001208DF8430010A800F09FF87B
:10465000012240F22441224802F03FFC012120487F
:1046600002F085FB17B000BD10B540F224411C4894
:1046700002F06EFC18B31A4800881948001D008823
:104680000021184800F0C2FE1849164800F037FF14
:10469000144800F0DEFEC0F164001549086000BF58
:1046A0000846027813491048FEF750F900BF64210C
:1046B0000C4800F0CCFE01210A4800F0A7FE10BD16
:1046C000005000409816002010600240981800200A
:1046D000701D002030000010100300200008024070
:1046E0000014014028640240A81C0020000C0010A7
:1046F00014030020280C00201FB50121102001F018
:10470000EAFA36208DF8000003208DF8010002201F
:104710008DF8020001208DF80300684600F037F89C
:104720005320ADF804000020ADF80600ADF80C00F1
:1047300040F2E730029001A9114801F084FC012108
:104740000F4801F009FD012211460D4802F01CF945
:1047500001210B4802F02CF91FBD10B501210848BA
:1047600002F029F958B10121054802F035F901217B
:10477000034802F01DF900BFFBF7BCFE00BF10BDEF
:104780000010004032490143324A1160704770B551
:10479000002100230F22C4781CB32E4C246804F49B
:1047A000E064C4F5E064C4F30721C1F10404E3B29A
:1047B0000A4144789C40E1B28478144021430C07BC
:1047C000210E254C05786155047804F01F0501245D
:1047D000AC4005786D11AD0005F1E025C5F800414C
:1047E00009E0047804F01F050124AC401B4D067855
:1047F000761145F8264070BD194A0A400243154B10
:104800001B1F1A60704739B1124A121D1268024309
:10481000104B1B1D1A6006E00E4A121D12688243DF
:104820000C4B1B1D1A607047042808D14FF0E02183
:10483000096941F004014FF0E022116107E04FF0F7
:10484000E021096921F004014FF0E0221161704775
:104850000000FA050CED00E000E400E080E100E07B
:1048600080FFFF1F10B50446FE48844209D1012194
:10487000480601F085FA00214FF0007001F080FA3F
:1048800008E00121880601F07BFA00214FF08060EA
:1048900001F076FA10BD30B50246002000231468FE
:1048A00024F002041460146844F00104146000E071
:1048B0005B1C546804F001041CB94FF6FF74A3425A
:1048C000F6D1546804F001040CB900206CE08C7936
:1048D000012C04D1146844F08004146003E01468CF
:1048E00024F080041460CC79012C04D1146844F0C5
:1048F0004004146003E0146824F0400414600C7A4F
:10490000012C04D1146844F02004146003E01468FE
:1049100024F0200414604C7A012C04D1146844F073
:104920001004146003E0146824F0100414608C7AFE
:10493000012C04D1146844F00804146003E01468E6
:1049400024F008041460CC7A012C04D1146844F0DB
:104950000404146003E0146824F0040414608C78E8
:10496000A407CD7844EA05640D7944EA05444D79FD
:1049700044EA05540D886D1E2C43D461146824F05C
:1049800001041460002300E05B1C546804F001047F
:104990001CB14FF6FF74A342F6D1546804F0010431
:1049A0000CB1002000E0012030BD10B50021837A59
:1049B000012202FA03F1AC4A126842F00102AA4B4A
:1049C0001A60A94A1C3212688A43A74B1C331A602A
:1049D000027BCAB9A44A0C3212688A43A24B0C3338
:1049E0001A604288C38842EA03439F4A4032847A6D
:1049F00042F834300288838842EA03439A4A4032BC
:104A0000847A02EBC4025360027B012A19D1964AD0
:104A10000C3212680A43944B0C331A6042880388A4
:104A200042EA0343904A4032847A42F83430C288E2
:104A3000838842EA03438C4A4032847A02EBC40200
:104A40005360C27A3AB9884A121D12688A43864B6B
:104A50001B1D1A6006E0844A121D12680A43824B2D
:104A60001B1D1A60028932B97F4A143212688A43C8
:104A70007D4B14331A600289012A06D17A4A143216
:104A800012680A43784B14331A60427B012A06D11C
:104A9000754A1C3212680A43734B1C331A60724AFF
:104AA000126822F00102704B1A6010BD0021817162
:104AB000C171017241728172C1728170C170032132
:104AC0000171022141710121018070476649096825
:104AD00041F00101644A11601146096843F60E7203
:104AE0009143614A11601146096841EA0021116051
:104AF0001146096821F001011160704721B1026877
:104B000042F48032026003E0026822F480320260E4
:104B10007047E1B1026842F0800202604FF4C27255
:104B2000125842F480734FF4C27213504FF4CA7299
:104B3000125842F480734FF4CA7213504FF4D27279
:104B4000125842F480734FF4D27213501BE0026883
:104B500022F0800202604FF4C272125822F4807375
:104B60004FF4C27213504FF4CA72125822F4807379
:104B70004FF4CA7213504FF4D272125822F4807359
:104B80004FF4D2721350704710B50246002093685C
:104B900003F08063B3F1806F00D110E0936803F0FD
:104BA0000063B3F1006F01D1012008E0936803F0C6
:104BB0008053B3F1805F01D1022000E0042004287B
:104BC00079D002F5C07303EB00131B6803F00104F6
:104BD00002F5C07303EB00131C600B7A7BB94B7AB0
:104BE0000C8843EA445302F5C07404EB00142468B3
:104BF000234302F5C07404EB0014236010E00B7A29
:104C00004C6843EAC4034C7A234302F5C07404EBB6
:104C100000142468234302F5C07404EB00142360DD
:104C20008B7A03F00F038B7202F5C07303EB001352
:104C30005B6823F00F0402F5C07303EB00135C60A4
:104C400002F5C07303EB00135B688C7A234302F513
:104C5000C07404EB001463608B7B1C064B7B44EA3E
:104C6000034403E000640040006600400B7B44EA1C
:104C70000323CC7A234302F5C07404EB0014A36031
:104C80008B7C1C064B7C44EA03440B7C44EA0323E4
:104C9000CC7B234302F5C07404EB0014E36002F5FF
:104CA000C07303EB00131B6843F0010402F5C073EB
:104CB00003EB00131C6010BD10B50246002321B1A8
:104CC000012907D002290FD109E09068F94C00EAC8
:104CD00004030BE09068F84C00EA040306E09068D7
:104CE000F64C00EA040301E0002300BF00BFF44CCF
:104CF000181BA34216D007DC83B16FF08060184404
:104D000070B1022818D111E0B0F5007F10D0ED4C41
:104D1000204448B1B0F5003F0ED10BE002230DE076
:104D200000230BE0002309E0002307E0012305E056
:104D3000012303E0012301E0002300BF00BFD8B23C
:104D400010BD21B1012907D002290FD109E08268E5
:104D500042F0800282600AE0826842F4004282608F
:104D600005E0826842F40002826000E000BF00BFFC
:104D7000704710B500F5D87303EB01131B6803F0FF
:104D800004031372137A53B900F5D87303EB0113BC
:104D90001B6840F2FF7404EA5353136009E000F506
:104DA000D87303EB01131B686FF0604404EAD3036C
:104DB000536000F5D87303EB01131B6803F0020383
:104DC000537200F5D87303EB01135B6803F00F0314
:104DD000937200F5D87303EB01135B681B0AD3745D
:104DE00000F5D87303EB01139B68D37200F5D873F9
:104DF00003EB01139B681C0A147300F5D87303EBD3
:104E000001139B681C0C547300F5D87303EB01135A
:104E10009B681B0E937300F5D87303EB0113DB68DB
:104E2000D37300F5D87303EB0113DB681C0A147409
:104E300000F5D87303EB0113DB681C0C547400F508
:104E4000D87303EB0113DB681B0E937421B9C3689D
:104E500043F02003C36003E0036943F020030361D0
:104E600010BD21B9C26842F02002C26003E00269AD
:104E700042F02002026170470246002019B9D3684F
:104E800003F0030006E0012903D1136903F00300D6
:104E900000E00020704710B502460B4600204FF698
:104EA000FF71BBB9146824F0020444F001041460DB
:104EB00000E0491E546804F00304012C01D00029CD
:104EC000F7D1546804F00304012C01D0002032E033
:104ED000012030E0012B13D1146824F00304146086
:104EE00000E0491E546804F003040CB10029F8D115
:104EF000546804F003040CB100201CE001201AE007
:104F0000022B17D1146824F0010444F00204146049
:104F100000E0491E546804F00304022C01D000296B
:104F2000F7D1546804F00304022C01D0002002E001
:104F3000012000E0002010BD014600200A6822F098
:104F4000010242F002020A604A6802F00302022AE9
:104F500000D10120704701464FF6FF7200200B6818
:104F600023F002030B6000E0521E4B6803F00203C3
:104F7000022B01D1002AF7D14B6803F00203022B68
:104F800000D001207047014600208A6902F07000BD
:104F90007047014600208A69100E704701460020C4
:104FA0008A69C2F3074070471AB143690B434361F2
:104FB00002E043698B434361704710B5024600200D
:104FC00001F4700343B19369C1F3130423400BB19F
:104FD00001202DE000202BE001F0807343B15368E5
:104FE000C1F3130423400BB1012021E000201FE096
:104FF00001F0006343B19368C1F3130423400BB184
:10500000012015E0002013E001F0007343B1D368E4
:10501000C1F3130423400BB1012009E0002007E095
:105020001369C1F3130423400BB1012000E00020F9
:1050300010BD0022244B994202D10023836111E06C
:10504000C1F3130201F000730BB1C2600AE001F07A
:1050500080630BB1026105E001F000630BB1826077
:1050600000E0426070470246002002EA01030BB1F3
:10507000012000E00020704770B504460D46002670
:1050800060692840002872D0B5F5807F69D01DDCAA
:10509000082D42D006DC012D2DD0022D31D0042D5B
:1050A0007FD134E0102D3ED0202D42D0402D78D13C
:1050B00045E00000030000040003000800000310A6
:1050C000000100080001FFF77000F030B5F5004F57
:1050D00061D009DCB5F5007F4AD0B5F5806F4DD0C1
:1050E000B5F5006F5DD150E0B5F5803F2DD0B5F539
:1050F000003F56D12FE0A0685549FFF7B4FF0646A0
:1051000051E0E0680321FFF7AEFF06464BE0E068A0
:105110000821FFF7A8FF064645E0E0681021FFF7E9
:10512000A2FF06463FE020690321FFF79CFF0646E9
:1051300039E020690821FFF796FF064633E0206931
:105140001021FFF790FF06462DE060680821FFF769
:105150008AFF064627E060681021FFF784FF0646B5
:1051600021E0A0690121FFF77EFF06461BE01BE05E
:10517000A0690221FFF777FF064614E0A069042129
:10518000FFF771FF06460EE00BE0A0697021FFF704
:105190006AFF064607E060680421FFF764FF0646E1
:1051A00001E0002600BF00E00026304670BDB1F5EA
:1051B000007F3AD00FDC202928D006DC01291CD042
:1051C00004291DD0082940D11DE0402921D0B1F586
:1051D000807F3AD126E0B1F5004F31D006DCB1F541
:1051E000806F25D0B1F5006F2FD124E0B1F5803F5D
:1051F00012D0B1F5003F28D111E0154A826025E0B8
:105200000822C26022E01022C2601FE00822026170
:105210001CE01022026119E00822426016E0102210
:10522000426013E00422426010E0042242600DE07C
:10523000042242600AE0002282610422426005E00A
:10524000002282610422426000E000BF00BF70477C
:1052500001010100016821F00101016000210160EC
:1052600041608160C160016121214161DB49884267
:1052700004D13D21D94A103A91608CE0D7491831C8
:10528000884205D14FF47461D44A103A916082E0AB
:10529000D2493031884205D14FF47411CF4A103AC7
:1052A000916078E0CD494831884205D14FF0746172
:1052B000CA4A103A91606EE0C8496031884204D110
:1052C000C749C64A103AD16065E0C449783188427E
:1052D00004D1C449C14A103AD1605CE0BF49903161
:1052E000884204D1C049BD4A103AD16053E0BB495D
:1052F000A831884205D14FF03D51B84A103AD160EB
:1053000049E0BA49884204D13D21B84A083A1160BF
:1053100041E0B6491831884205D14FF47461B34A6F
:10532000083A116037E0B1493031884205D14FF475
:105330007411AE4A083A11602DE0AC4948318842F8
:1053400005D14FF07461A94A083A116023E0A749DA
:105350006031884204D1A249A44A121F11601AE0A8
:10536000A2497831884204D19E49A04A121F116097
:1053700011E09E499031884204D19B499B4A121FFB
:10538000116008E09949A831884204D14FF03D519D
:10539000964A121F1160704710B500220268944BA4
:1053A0001A40CC680B6823434C6923438C69234320
:1053B000CC6923430C6A23434C6A23438C6A2343FE
:1053C0004C6B23438C6B23431A430260426922F0E7
:1053D0000702D1E90B3423431A4342610B6943604E
:1053E0004B6883608B68C36010BD00210160416021
:1053F0008160C160016141618161C161016241629D
:105400008162C162016341638163704721B10268B7
:1054100042F00102026003E0026822F00102026031
:10542000704721B1026842F40042026003E0026862
:1054300022F400420260704721B1026842F020026B
:10544000026003E0026822F02002026070474160BF
:1054500070470146486880B2704722B1036843F440
:105460000023036003E0036823F400230360016169
:10547000704721B1026842F48022026003E00268B2
:1054800022F48022026070470AB1016100E0C1602D
:105490007047014600200A6802F400220AB1012088
:1054A00000E000207047014600200A6802F0010277
:1054B0000AB1012000E000207047014600204A693F
:1054C00002F03800704730B503460A460020002439
:1054D000464DAB4202D24149103901E043491039EF
:1054E00002F000550DB14C6800E00C68414D2C40B5
:1054F00004EA02050DB1012000E0002030BD0246A3
:105500003A4B9A4202D23548103801E037481038F9
:1055100001F000531BB1374B0B40C36002E0354B29
:105520000B408360704710B501F080034BB122B18E
:10553000436943F08003436103E0436923F0800340
:10554000436180290BD02AB1036801F01E04234374
:10555000036004E0036801F01E04A343036010BD70
:1055600070B50246002000240025204EB24202D22F
:105570001A4B103B01E01D4B103B1F4E0E4036B145
:105580001E2606EAD124166806EA040502E05669DA
:1055900006F0800501F000560EB15C6800E01C6862
:1055A000144E344004EA010616B10DB1012000E0AA
:1055B000002070BD02460D4B9A4202D207481038B7
:1055C00001E00A48103801F000531BB1094B0B40B1
:1055D000C36002E0074B0B408360704710600240DD
:1055E0003D000020400F002000003D2010640240DC
:1055F0003F801CF07D0F7D0F3C0F3C0F10B5044623
:105600009848844208D10121084600F086FB002119
:10561000012000F082FB76E09348844208D101210A
:10562000022000F07AFB0021022000F076FB6AE005
:105630008E48844208D10121042000F06EFB002135
:10564000042000F06AFB5EE08948844208D1012111
:10565000082000F062FB0021082000F05EFB52E011
:105660008448844208D10121102000F056FB00211B
:10567000102000F052FB46E07F48844208D101210F
:10568000202000F04AFB0021202000F046FB3AE0F9
:105690007A48844208D10121402000F03EFB0021DD
:1056A000402000F03AFB2EE07548844208D10121E9
:1056B000802000F032FB0021802000F02EFB22E051
:1056C0007048844208D10121801500F026FB00219A
:1056D000A01500F022FB16E06B48844208D101219E
:1056E000401500F01AFB0021601500F016FB0AE0DF
:1056F0006648844207D10121001500F00EFB00210D
:10570000201500F00AFB10BDF0B50A460021002369
:10571000002400BF3DE0012505FA01F3156805EA04
:1057200003049C4234D105684F000326BE40B543B4
:10573000056015794E00B54006683543056015795A
:10574000012D02D01579022D16D185684F00032650
:10575000BE40B543856055794E00B54086683543F7
:105760008560456801268E40B54345604568967959
:105770008E40B6B235434560C5684F000326BE4033
:10578000B543C560D5794E00B540C6683543C560A0
:10579000491C1029BFD3F0BD4FF6FF7101600021F5
:1057A000017141718171C171704708B54FF4803248
:1057B0000092009A0A430092009AC261C161009A65
:1057C000C261C2690092C269009208BD024600200F
:1057D00013690B400BB1012000E000207047014627
:1057E000086980B270470246002053690B400BB134
:1057F000012000E0002070470146486980B27047F0
:1058000001837047418370470AB1018300E04183FF
:1058100070474161704742694A4042617047F0B544
:10582000002300244D07ED0E02FA05F3CE1000F11F
:10583000200555F826504E07F70E0F26BE40B543FB
:10584000CF1000F1200646F82750CE1000F12005B9
:1058500055F8265045EA0304CE1000F1200545F81E
:105860002640F0BD00000240000402400008024053
:10587000000C0240001002400014024000180240D8
:10588000001C024000200240002402400028024088
:10589000F948006840F00100F74908600020F64927
:1058A00008310860F4480068F4490840F24908608B
:1058B000F348091D0860F348EF4984310860F04857
:1058C0001038091D0860EC48006820F48020EA497F
:1058D00008600020E8490C310860E7498C31086015
:1058E00070470021E44A921C1170114608707047FD
:1058F00010B501460022002300204A11012A02D1DE
:10590000DD4C236808E0022A03D1DB4C70342368A5
:1059100002E0D94C7434236801F01F020124944042
:105920001C400CB1012000E0002010BD38B5002063
:1059300000900024002500BF3120FFF7D9FF054665
:105940000098401C00900098B0F5A06F01D0002D89
:10595000F2D03120FFF7CCFF08B1012400E0002491
:10596000204638BD01460020C34A106820F0F800E8
:1059700040EAC10010607047C349086070470021C9
:10598000BD4A703211701170012802D004280AD16A
:1059900004E00121B84A7032117005E00521B64AD1
:1059A0007032117000E000BF00BF7047B749086057
:1059B000704770B5049C41EA82150126C6EB530678
:1059C00045EA0645054345EA0465AB4E361D35609C
:1059D00070BDAD4908667047820142EA0172A64B6C
:1059E00084331A607047A8498866704710B58301F0
:1059F00043EA016343EA02739F4C8834236010BD7D
:105A0000A14908677047A049C86470470246002052
:105A1000994B0833186820F0EC6042EA0103184300
:105A2000954B08331860704702460020924B0833AC
:105A3000186820F0784042EA010318438E4B08337F
:105A400018607047014600208B4A0832106820F029
:105A5000030008431060704787480830006800F072
:105A60000C00704701460020834A0832106820F07D
:105A7000F000084310607047014600207E4A08325B
:105A8000106820F4E0500843106070470146002081
:105A9000794A0832106820F4604040EAC100106082
:105AA0007047F0B5002100220024022500260223C1
:105AB000714F08373F6807F00C0121B1042905D068
:105AC000082937D105E0724F076036E0714F076053
:105AD00033E0694F3F1D3F68C7F38056664F3F1D57
