:020000040800F2
:10000000C80D00201D150008AD020008AF02000851
:10001000B3020008B7020008BB020008000000009D
:10002000000000000000000000000000BF02000807
:10003000C102000800000000C3020008C502000859
:100040003715000837150008371500083715000860
:100050003715000837150008371500083715000850
:100060003715000837150008371500083715000840
:1000700037150008371500083715000885100008E7
:10008000371500086D0D000837150008F305000846
:10009000E90600083715000837150008371500086D
:1000A0003715000837150008371500083715000800
:1000B00037150008371500083715000837150008F0
:1000C00037150008371500083715000837150008E0
:1000D00037150008550A0008C30C0008371500083A
:1000E00037150008371500083715000837150008C0
:1000F00037150008371500083715000837150008B0
:10010000371500083715000837150008371500089F
:1001100007100008371500083715000837150008C4
:10012000371500083715000837150008371500087F
:1001300037150008371500083715000809060008AC
:100140006B0600083715000837150008371500083A
:10015000371500083715000837150008371500084F
:10016000371500083715000837150008371500083F
:10017000371500083715000837150008371500082F
:10018000371500083715000800F002F800F03CF8B9
:100190000AA090E8000C82448344AAF10107DA45E2
:1001A00001D100F031F8AFF2090EBAE80F0013F0F8
:1001B000010F18BFFB1A43F001031847403100003C
:1001C00060310000103A24BF78C878C1FAD85207CD
:1001D00024BF30C830C144BF04680C6070470000C1
:1001E0000023002400250026103A28BF78C1FBD840
:1001F000520728BF30C148BF0B6070471FB503F0DE
:1002000077F81FBD10B510BD03F02CF81146FFF7AD
:10021000F5FF00F009F803F05EF803B4FFF7F2FF12
:1002200003BC00F073FB000000244FF4A06001F059
:1002300095F94FF4E13000F077FB4FF4E13000F036
:1002400060FC4FF4E13000F0A0FD4FF4E13000F02D
:10025000F9FD4FF4E13000F027FF4FF4E13001F0F9
:100260004EF800F031F800F04DF800231E2208216E
:10027000032000F0C7F8002303220821104600F0F5
:100280003AF90BE0641C0648B4FBF0F100FB1140A6
:1002900020B900F0B4FA03A002F0A6FFF2E70000D4
:1002A0002048010030576F726B210000704700BF7B
:1002B000FEE700BFFEE700BFFEE700BFFEE77047B6
:1002C00070477047704700001CB50121042002F000
:1002D00035FB0620009001208DF8040000208DF8E9
:1002E000060003208DF8050001208DF807006946FF
:1002F000034802F0DDF80621014802F055F91CBD63
:10030000000802401CB50121112002F017FB1C203F
:10031000009000208DF8040003208DF805000120D6
:100320008DF807006946344802F0C2F801200090B9
:1003300002208DF807006946304802F0B9F81CBD6C
:1003400010B5044614B101202D4908702C480078DE
:10035000A0B31021284802F00DF978B108212648F1
:1003600002F008F950B10421234802F003F928B142
:100370000121224802F0FEF8012820D10020204966
:10038000087010211C4802F0F5F808B9012010BDD2
:100390000821194802F0EEF808B90220F7E7042115
:1003A000154802F0E7F808B90320F0E701211348E7
:1003B00002F0E0F801281CD10420E8E7FFE7102153
:1003C0000D4802F0D7F8012813D108210A4802F09D
:1003D000D1F801280DD10421074802F0CBF80128FB
:1003E00007D10121054802F0C5F810B901200449E0
:1003F00008700020CBE7000000100240000002401F
:1004000000000020F0B58BB004460D4616461F468E
:100410000121084602F092FA0121480602F0C1FAD1
:100420004FF4C050099002208DF8280009A9FE4819
:1004300002F03EF809220B21FB4802F0C4F8092221
:100440000C21F94802F0BFF8F84801F0F7F806A8C7
:1004500001F018FA00208DF81E0001208DF81F0011
:1004600000208DF820008DF821008DF822008DF8F5
:1004700023008DF81A708DF81B008DF81C508DF834
:100480001D40ADF8186006A9E84801F0F0F800201A
:100490008DF812008DF8130001208DF81400002053
:1004A000ADF80800ADF80A00ADF80C00ADF80E008C
:1004B000ADF8100001208DF8150002A801F061F9D7
:1004C00001220221D94801F05BFC14208DF80400C0
:1004D00003208DF8050001208DF806008DF8070037
:1004E00001A801F040F801220221D04801F048FCA7
:1004F00000200BB0F0BDF0B58BB004460D4616469B
:100500001F460121022002F019FA0121880602F09B
:1005100048FA4FF44050099002208DF8280000203E
:100520008DF82A0003208DF8290001208DF82B007A
:1005300009A9BF4801F0BCFF09220C21BC4802F008
:1005400042F809220D21BA4802F03DF8B94801F0FD
:1005500075F806A801F096F900208DF81E0001201C
:100560008DF81F0000208DF820008DF821008DF8F7
:1005700022008DF823008DF81A708DF81B008DF87D
:100580001C508DF81D40ADF8186006A9A94801F06F
:100590006EF80E208DF8120000208DF81300012057
:1005A0008DF814000020ADF80800ADF80A00ADF891
:1005B0000C00ADF80E00ADF8100001208DF815000C
:1005C00002A801F0DEF840208DF8040003208DF829
:1005D00005008DF8060001208DF8070001A800F045
:1005E000C2FF01220221934801F0CAFB00200BB098
:1005F000F0BD10B501218D4801F02AFC18B1012190
:100600008A4801F0C0FC10BD10B50121894801F0F5
:100610001FFC18B10121874801F0B5FC10BD30B5B1
:1006200085B0054640F20520009000208DF80900B5
:100630008DF8080000217F4801F00AFB10B9002066
:1006400005B030BD6A4600217A4801F07EFA0024E8
:1006500004E00DF10B00005D2855641C9DF80A00B4
:10066000A042F6D89DF80B00EAE710B586B002214B
:10067000704801F0EDFBB8B102216E4801F083FC37
:1006800001AA00216B4801F060FA0DF10F00FFF79D
:10069000C6FF002406E00DF10F00005D6649085515
:1006A000601CC4B2082CF6DB06B010BD30B585B0B6
:1006B000054600215D4801F0CBFA10B9002005B0D5
:1006C00030BD6A460021594801F03FFA002404E099
:1006D0000DF10B00005D2855641C9DF80A00A04236
:1006E000F6D89DF80B00EAE710B586B00221534812
:1006F00001F05AFF0421514801F056FF02214B48F6
:1007000001F0A6FBE0B10221484801F03CFC01AA3F
:100710000021464801F019FA40F25121019888421F
:100720000ED10DF10F00FFF7C1FF002406E00DF11F
:100730000F00005D42490855601CC4B2082CF6DB6E
:100740003F480078472807D13EA002F04DFD022126
:100750003A4801F02BFF1AE039480078772807D192
:100760003DA002F041FD0421344801F01FFF0EE0DE
:100770003EA002F039FD0221304801F017FF0221AE
:100780002E4801F011FF02212C4801F00FFF06B0A6
:1007900010BDF0B585B007460D46002440F251204B
:1007A00000901220019000208DF808008DF80900BB
:1007B0008DF80A5000BF05E0395D0DF10B000155C1
:1007C000601C84B2AC42F7DB6946184801F0C8F8F7
:1007D0000646002401E0601C84B23146134801F053
:1007E00057F918B940F6FF708442F4DB40F6FF7009
:1007F000844202DB012005B0F0BD0020FBE700B51C
:1008000085B04FF414700090002001908DF808001E
:100810008DF8090008208DF80A00074880788DF8C7
:100820000B000548C1782BE0000002400064004046
:100830000004024000680040480000200008024018
:10084000340000204E6F726D616C207265636570BC
:1008500074696F6E0D0A00005265636569766520E4
:10086000657863657074696F6E0D0A0053746F70FC
:1008700070656420726563657074696F6E0D0A003F
:100880008DF80C1081798DF80D1000218DF80E1067
:100890008DF80F108DF810108DF811108DF81210C2
:1008A0006946194801F05CF805B000BD2DE9F0413A
:1008B00086B080460C4615461E460C9F40F2FF103F
:1008C000019000208DF80C008DF80D0008208DF8A7
:1008D0000E00200A8DF80F008DF81040290A8DF8BF
:1008E00011108DF81250310A8DF813108DF8146024
:1008F000390A8DF815108DF8167001A9404601F0DF
:100900002FF806B0BDE8F0810064004000BF7047DA
:1009100000BFFE4A128802F04002002AF9D0C2B29B
:10092000FA4B1B1D1A80704710B596B00446012182
:10093000022002F003F80121102002F043F8072200
:100940001146F34801F03FFE07220621F04801F06E
:100950003AFE14A801F0F4FDC020149002208DF896
:10096000540000208DF8550001208DF8570014A97F
:10097000E74801F09DFDE74802F01EF910A802F0DB
:10098000CFF910940020ADF84400ADF84600ADF862
:100990004800ADF84C000C20ADF84A0010A9DD4825
:1009A00002F058F9012240F22551DA4802F090FA9B
:1009B00025208DF83C0000208DF83D008DF83E008C
:1009C00001208DF83F000FA800F0CDFD0121880522
:1009D00001F0B4FF01224021CE4802F070FACE4867
:1009E00001F024FB684601F0ECFBCC480290642047
:1009F00004904FF000600090C648001D0190002058
:100A0000039005904FF480600690002007900890B6
:100A10004FF48070099000020A9000200B900C9017
:100A20000D900E906946BC4801F0A2FB0022BB4924
:100A30006431B94801F0FDFB0121B74801F005FC24
:100A40000121B54801F0CEFB0121B24802F08AF93C
:100A500016B010BD10B540F22441AE4802F073FA52
:100A600000284DD0AB480088AA488088AA4801F0E9
:100A7000FCFB10BB0021A84801F0B4FBA849A64824
:100A800001F029FCA44801F0D0FBC0F16400A549A5
:100A900008606420A049091D0860081F006840F430
:100AA0000020091F086001219B4801F09BFB9D4825
:100AB0000068122824D100BF22E00021964801F0EE
:100AC00091FB9749944801F006FC934801F0ADFB77
:100AD000C0F164009349086064208F49091D0860D3
:100AE000081F006820F40020091F086001218A48BF
:100AF00001F078FB8B480068122801D100BF00BFCD
:100B000010BD10B596B004460121084601F016FF4D
:100B10000121480401F045FF07220221824801F02B
:100B200052FD07220321804801F04DFD0C20149056
:100B300002208DF8540003208DF8550000208DF818
:100B4000560001208DF8570014A9774801F0B0FC39
:100B500010940020ADF84400ADF84600ADF8480010
:100B6000ADF84C000C20ADF84A0010A96F4802F017
:100B700071F80121480501F0E1FE012240216B4896
:100B800002F09DF96A4801F051FA684601F019FB3C
:100B900068480290642004904FF000600090634821
:100BA000001D01900020039005904FF48060069096
:100BB00000200790089009904FF480300A900020A0
:100BC0000B900C900D900E906946594801F0D0FAA8
:100BD0000121574801F006FB002256496431544870
:100BE00001F027FB0121524801F02FFB0122802157
:100BF0004E4802F064F900214D48183001F0F2FA35
:100C00004B48183001F012FA00BF4948183001F083
:100C100036FB0028F9D14FF0006000904348001DDA
:100C200001904548029040200390002004900590D8
:100C30004FF48060069000200790089009904FF4D0
:100C400080300A9000200B9003200C9000200D9023
:100C50000E9069463648183001F08AFA012134486E
:100C6000183001F0BFFA012210213148183001F08C
:100C700046FB11208DF83C0003208DF83D008DF8D7
:100C80003E0001208DF83F000FA800F06CFC01220F
:100C900040F22441254802F01BF926208DF83C0043
:100CA00003208DF83D008DF83E0001208DF83F00B7
:100CB0000FA800F058FC01211C4802F053F816B0B0
:100CC00010BD10B540F22441184802F03CF9E0B1E3
:100CD000164800881548001D00880021144801F0BE
:100CE00081FA1649124801F0F6FA114801F09DFA0E
:100CF000C0F164001249087000BF00BF64210C48B5
:100D000001F091FA01210A481CE01DE000140140A5
:100D1000000402400010014040640240C000002076
:100D2000000030100C000020000002400044004091
:100D300088600240EC01002088010020000C0020A7
:100D40000800002001F04EFA10BD10B5044600BFA7
:100D5000FE4801F094FA0028FAD12146FB4801F040
:100D600062FA0121F94801F03DFA10BD10B5F849C9
:100D7000F64801F094FA38B10021F44801F032FA53
:100D8000F349F24801F0A7FA10BD10B588B0044647
:100D90000121022001F0D2FD0121880401F001FEB1
:100DA00007220A21EB4801F00EFC07220B21E9483B
:100DB00001F009FC02208DF80C0003208DF80D00D5
:100DC00000208DF80E0001208DF80F0080020290A7
:100DD00002A9E04801F06CFB4FF40060029002A908
:100DE000DC4801F065FB04940020ADF81400ADF878
:100DF0001600ADF81800ADF81C000C20ADF81A0074
:100E000004A9D54801F026FF27208DF80400022010
:100E10008DF8050001208DF806008DF8070001A867
:100E200000F0A1FB012240F22441CB4802F050F82F
:100E30005021C94802F07EF80121C74801F092FF15
:100E400008B010BD10B596B004460121042001F091
:100E500075FD0121C80401F0A4FD08220A21BF4844
:100E600001F0B1FB08220B21BC4801F0ACFB4FF4B0
:100E70004060149002208DF8540003208DF8550036
:100E800000208DF8560001208DF8570014A9B348B2
:100E900001F00EFB10940020ADF84400ADF84600C0
:100EA000ADF84800ADF84C000C20ADF84A0010A990
:100EB000AB4801F0CFFE0121480501F03FFD0122C2
:100EC0004021A74801F0FBFFA048603801F0AEF8D0
:100ED000684601F076F9A3480290642004904FF030
:100EE000006000909E48001D019000200390059036
:100EF0004FF48060069000200790089009904FF40E
:100F000080300A9000200B900C900D900E90694656
:100F10008E48603801F02CF901218C48603801F0CE
:100F200061F900228F4964318848603801F081F905
:100F300001218648603801F088F901228021884823
:100F400001F0BDFF00218148303801F04BF97F48A6
:100F5000303801F06BF800BF7C48303801F08FF971
:100F60000028F9D14FF0006000907D48001D0190ED
:100F70007D480290402003900020049005904FF49B
:100F80008060069000200790089009904FF4803010
:100F90000A9000200B9003200C9000200D900E90E2
:100FA00069466A48303801F0E3F8012210216748A9
:100FB000303801F0A4F90F208DF83C0003208DF8A3
:100FC0003D008DF83E0001208DF83F000FA800F095
:100FD000CAFA012240F22441614801F079FF34202D
:100FE0008DF83C0003208DF83D008DF83E00012077
:100FF0008DF83F000FA800F0B6FA0121584801F023
:10100000B1FE16B010BD10B540F22441544801F0B5
:101010009AFF10B3524800885148001D00880021F3
:101020004A48603801F0DEF850494848603801F01D
:1010300052F94648603801F0F8F8C0F164004C49B4
:10104000087000BF00BF64214048603801F0EBF831
:1010500001213E48603801F0C5F810BD10B50446C6
:1010600000BF3A48303801F00AF90028F9D121468A
:101070003648303801F0D7F801213448303801F0D3
:10108000B1F810BD10B53B493048303801F007F9D0
:1010900048B100212D48303801F0A4F835492B48DB
:1010A000303801F018F910BD10B596B00446012192
:1010B000042001F043FC0121082001F03FFC012144
:1010C000080501F06EFC02208DF8540000208DF818
:1010D00056004FF48050149001208DF857000320E3
:1010E0008DF8550014A91D4801F0E2F902208DF891
:1010F000540000208DF856000420149001208DF833
:10110000570003208DF8550014A91B4801F0D0F9B1
:1011100008220C21114801F056FA08220221164833
:1011200001F051FA10940020ADF84C000C20ADF8FD
:101130004A000020ADF84800ADF84600ADF8440084
:1011400010A90E4801F086FD012119E0A0600240BF
:101150000000202000040240004800400008024037
:10116000004C004044040020E00300200000301048
:101170000900002020000020000C02400050004028
:10118000480501F0DBFB01224021DB4801F097FE1E
:10119000684601F016F8D9480290642004904FF098
:1011A00000600090D448001D01900020039005903D
:1011B0004FF48060069000200890079009904FF44B
:1011C00080300A9000200B900C900D900E90694694
:1011D000CB4800F0CDFF0121C94801F003F80022FF
:1011E000C6496431C64801F024F80121C44801F021
:1011F0002CF801228021C04801F061FE0021C04886
:10120000A83000F0EFFFBE48A83000F00FFF00BF8D
:10121000BB48A83001F033F80028F9D14FF0006046
:101220000090B548001D0190B64802904020039000
:1012300064200490002005904FF480600690002008
:101240000790089009900A900B9003200C900020C2
:101250000D900E906946AA48A83000F089FF012140
:10126000A748A83000F0BEFF2F208DF83C000220D8
:101270008DF83D0001208DF83E008DF83F000FA84D
:1012800000F071F935208DF83C0001208DF83F0009
:101290008DF83D0002208DF83E000FA800F063F9A4
:1012A000012240F22441944801F012FE01219248AB
:1012B00001F058FD0121904801F054FD16B010BD19
:1012C00010B504464FF020518D48A83001F003F8C6
:1012D00000218B48A83000F085FF00BF8848A83067
:1012E00000F0CDFF0028F9D121468548A83000F054
:1012F0009AFF01218248A83000F074FF10BD10B59C
:1013000096B004460121042001F018FB01212020A1
:1013100001F058FB02208DF8540000208DF8560093
:10132000C020149001208DF8570003208DF855003F
:1013300014A9754801F0BCF808220621724801F092
:1013400042F908220721704801F03DF96F4801F089
:1013500033FC10940020ADF84C000C20ADF84A008E
:101360000020ADF84800ADF84600ADF8440010A9E3
:10137000664801F06FFC0121880501F0DFFA0122C7
:101380004021624801F09BFD684600F01AFF60486A
:101390000290642004904FF0206000905B48001D94
:1013A00001900020039005904FF48060069000208B
:1013B0000890079009904FF480300A9000200B901D
:1013C0000C900D900E906946524800F0D1FE01211C
:1013D000504800F007FF00224D4964314D4800F0AD
:1013E00028FF01214B4800F030FF012280214748AF
:1013F00001F065FD00214748903000F0F3FE4548BC
:10140000903000F013FE00BF4248903000F037FFEC
:101410000028F9D14FF0206000903C48001D019059
:101420003D480290402003906420049000200590E5
:101430004FF48060069000200790089009900A9071
:101440000B9003200C9000200D900E9069463148BF
:10145000903000F08DFE01212E48903000F0C2FE49
:1014600046208DF83C0002208DF83D0001208DF8CB
:101470003E008DF83F000FA800F075F847208DF86A
:101480003C0001208DF83F008DF83D0002208DF8D2
:101490003E000FA800F067F8012240F224411B48EB
:1014A00001F016FD0121194801F05CFC01211748EB
:1014B00001F058FC16B010BD10B504464FF0205195
:1014C0001448903000F007FF00211248903000F0DF
:1014D00089FE00BF0F48903000F0D1FE0028F9D1FE
:1014E00021460C48903000F09EFE012109489030C2
:1014F00000F078FE10BD0000005000407005002094
:10150000106002400C050020000802400014014059
:101510009C060020286402403806002009488047C5
:1015200009480047FEE7FEE7FEE7FEE7FEE7FEE7C5
:10153000FEE7FEE7FEE7FEE704480549054A064BDD
:1015400070470000B130000889010008C80700207A
:10155000C80D0020C8090020C809002032490143F5
:10156000324A1160704770B5002100230F22C47801
:101570001CB32E4C246804F4E064C4F5E064C4F3A6
:101580000721C1F10404E3B20A4144789C40E1B26E
:101590008478144021430C07210E254C05786155B1
:1015A000047804F01F050124AC4005786D11AD00EE
:1015B00005F1E025C5F8004109E0047804F01F05B5
:1015C0000124AC401B4D0678761145F8264070BDCD
:1015D000194A0A400243154B1B1F1A60704739B164
:1015E000124A121D12680243104B1B1D1A6006E0BE
:1015F0000E4A121D126882430C4B1B1D1A60704765
:10160000042808D14FF0E021096941F004014FF0AE
:10161000E022116107E04FF0E021096921F00401A7
:101620004FF0E022116170470000FA050CED00E078
:1016300000E400E080E100E080FFFF1F10B50446F9
:10164000FE48844209D10121480601F012FA002126
:101650004FF0007001F00DFA08E00121880601F05A
:1016600008FA00214FF0806001F003FA10BD30B598
:10167000024600200023146824F002041460146859
:1016800044F00104146000E05B1C546804F00104A1
:101690001CB94FF6FF74A342F6D1546804F001045C
:1016A0000CB900206CE08C79012C04D1146844F052
:1016B0008004146003E0146824F080041460CC7982
:1016C000012C04D1146844F04004146003E0146851
:1016D00024F0400414600C7A012C04D1146844F006
:1016E0002004146003E0146824F0200414604C7A91
:1016F000012C04D1146844F01004146003E0146851
:1017000024F0100414608C7A012C04D1146844F085
:101710000804146003E0146824F008041460CC7A10
:10172000012C04D1146844F00404146003E014682C
:1017300024F0040414608C78A407CD7844EA05648E
:101740000D7944EA05444D7944EA05540D886D1E2F
:101750002C43D461146824F001041460002300E0D9
:101760005B1C546804F001041CB14FF6FF74A342E3
:10177000F6D1546804F001040CB1002000E001200F
:1017800030BD10B50021837A012202FA03F1AC4A80
:10179000126842F00102AA4B1A60A94A1C32126870
:1017A0008A43A74B1C331A60027BCAB9A44A0C3285
:1017B00012688A43A24B0C331A604288C38842EAFB
:1017C00003439F4A4032847A42F834300288838847
:1017D00042EA03439A4A4032847A02EBC4025360DD
:1017E000027B012A19D1964A0C3212680A43944BA3
:1017F0000C331A604288038842EA0343904A40321D
:10180000847A42F83430C288838842EA03438C4A9F
:101810004032847A02EBC4025360C27A3AB9884AF1
:10182000121D12688A43864B1B1D1A6006E0844A0B
:10183000121D12680A43824B1B1D1A60028932B9BD
:101840007F4A143212688A437D4B14331A6002892E
:10185000012A06D17A4A143212680A43784B1433AB
:101860001A60427B012A06D1754A1C3212680A436B
:10187000734B1C331A60724A126822F00102704BDB
:101880001A6010BD00218171C171017241728172B3
:10189000C1728170C1700321017102214171012166
:1018A000018070476649096841F00101644A11608E
:1018B0001146096843F60E729143614A1160114660
:1018C000096841EA002111601146096821F001010F
:1018D0001160704721B1026842F48032026003E077
:1018E000026822F4803202607047E1B1026842F07F
:1018F000800202604FF4C272125842F480734FF4B7
:10190000C27213504FF4CA72125842F480734FF4EB
:10191000CA7213504FF4D272125842F480734FF4CB
:10192000D27213501BE0026822F0800202604FF472
:10193000C272125822F480734FF4C27213504FF4E3
:10194000CA72125822F480734FF4CA7213504FF4C3
:10195000D272125822F480734FF4D272135070472F
:1019600010B502460020936803F08063B3F1806FE6
:1019700000D110E0936803F00063B3F1006F01D170
:10198000012008E0936803F08053B3F1805F01D138
:10199000022000E00420042879D002F5C07303EB94
:1019A00000131B6803F0010402F5C07303EB00137E
:1019B0001C600B7A7BB94B7A0C8843EA445302F5DE
:1019C000C07404EB00142468234302F5C07404EBD4
:1019D0000014236010E00B7A4C6843EAC4034C7A8D
:1019E000234302F5C07404EB00142468234302F57A
:1019F000C07404EB001423608B7A03F00F038B7226
:101A000002F5C07303EB00135B6823F00F0402F5CB
:101A1000C07303EB00135C6002F5C07303EB0013AB
:101A20005B688C7A234302F5C07404EB0014636096
:101A30008B7B1C064B7B44EA034403E000640040BC
:101A4000006600400B7B44EA0323CC7A234302F573
:101A5000C07404EB0014A3608B7C1C064B7C44EA2E
:101A600003440B7C44EA0323CC7B234302F5C0747C
:101A700004EB0014E36002F5C07303EB00131B6872
:101A800043F0010402F5C07303EB00131C6010BDAA
:101A900010B50246002321B1012907D002290FD138
:101AA00009E09068F94C00EA04030BE09068F84CF8
:101AB00000EA040306E09068F64C00EA040301E043
:101AC000002300BF00BFF44C181BA34216D007DC54
:101AD00083B16FF08060184470B1022818D111E012
:101AE000B0F5007F10D0ED4C204448B1B0F5003F78
:101AF0000ED10BE002230DE000230BE0002309E0F0
:101B0000002307E0012305E0012303E0012301E0B6
:101B1000002300BF00BFD8B210BD21B1012907D0FA
:101B200002290FD109E0826842F0800282600AE057
:101B3000826842F40042826005E0826842F400025A
:101B4000826000E000BF00BF704710B500F5D87399
:101B500003EB01131B6803F004031372137A53B9E8
:101B600000F5D87303EB01131B6840F2FF7404EA1D
:101B70005353136009E000F5D87303EB01131B689E
:101B80006FF0604404EAD303536000F5D87303EBAD
:101B900001131B6803F00203537200F5D87303EBC3
:101BA00001135B6803F00F03937200F5D87303EB26
:101BB00001135B681B0AD37400F5D87303EB0113A0
:101BC0009B68D37200F5D87303EB01139B681C0A62
:101BD000147300F5D87303EB01139B681C0C54734A
:101BE00000F5D87303EB01139B681B0E937300F58C
:101BF000D87303EB0113DB68D37300F5D87303EBE1
:101C00000113DB681C0A147400F5D87303EB01138D
:101C1000DB681C0C547400F5D87303EB0113DB680C
:101C20001B0E937421B9C36843F02003C36003E023
:101C3000036943F02003036110BD21B9C26842F07B
:101C40002002C26003E0026942F020020261704794
:101C50000246002019B9D36803F0030006E0012909
:101C600003D1136903F0030000E00020704710B5B2
:101C700002460B4600204FF6FF71BBB9146824F0F2
:101C8000020444F00104146000E0491E546804F0AA
:101C90000304012C01D00029F7D1546804F0030497
:101CA000012C01D0002032E0012030E0012B13D1C3
:101CB000146824F00304146000E0491E546804F022
:101CC00003040CB10029F8D1546804F003040CB1EA
:101CD00000201CE001201AE0022B17D1146824F028
:101CE000010444F00204146000E0491E546804F04A
:101CF0000304022C01D00029F7D1546804F0030436
:101D0000022C01D0002002E0012000E0002010BDE4
:101D1000014600200A6822F0010242F002020A6035
:101D20004A6802F00302022A00D1012070470146EE
:101D30004FF6FF7200200B6823F002030B6000E0F7
:101D4000521E4B6803F00203022B01D1002AF7D187
:101D50004B6803F00203022B00D0012070470146BC
:101D600000208A6902F070007047014600208A69ED
:101D7000100E7047014600208A69C2F30740704781
:101D80001AB143690B43436102E043698B434361EA
:101D9000704710B50246002001F4700343B1936907
:101DA000C1F3130423400BB101202DE000202BE0F0
:101DB00001F0807343B15368C1F3130423400BB1A6
:101DC000012021E000201FE001F0006343B193688F
:101DD000C1F3130423400BB1012015E0002013E0F0
:101DE00001F0007343B1D368C1F3130423400BB176
:101DF000012009E0002007E01369C1F31304234028
:101E00000BB1012000E0002010BD0022244B9942BC
:101E100002D10023836111E0C1F3130201F00073CA
:101E20000BB1C2600AE001F080630BB1026105E012
:101E300001F000630BB1826000E04260704702462F
:101E4000002002EA01030BB1012000E000207047EE
:101E500070B504460D46002660692840002872D0FF
:101E6000B5F5807F69D01DDC082D42D006DC012D40
:101E70002DD0022D31D0042D7FD134E0102D3ED055
:101E8000202D42D0402D78D145E000000300000411
:101E90000003000800000310000100080001FFF724
:101EA0007000F030B5F5004F61D009DCB5F5007F6A
:101EB0004AD0B5F5806F4DD0B5F5006F5DD150E0DB
:101EC000B5F5803F2DD0B5F5003F56D12FE0A06885
:101ED0005549FFF7B4FF064651E0E0680321FFF7DC
:101EE000AEFF06464BE0E0680821FFF7A8FF064674
:101EF00045E0E0681021FFF7A2FF06463FE02069B9
:101F00000321FFF79CFF064639E020690821FFF70F
:101F100096FF064633E020691021FFF790FF064642
:101F20002DE060680821FFF78AFF064627E0606819
:101F30001021FFF784FF064621E0A0690121FFF789
:101F40007EFF06461BE01BE0A0690221FFF777FF3A
:101F5000064614E0A0690421FFF771FF06460EE073
:101F60000BE0A0697021FFF76AFF064607E0606892
:101F70000421FFF764FF064601E0002600BF00E0F1
:101F80000026304670BDB1F5007F3AD00FDC202925
:101F900028D006DC01291CD004291DD0082940D1F5
:101FA0001DE0402921D0B1F5807F3AD126E0B1F57E
:101FB000004F31D006DCB1F5806F25D0B1F5006F50
:101FC0002FD124E0B1F5803F12D0B1F5003F28D1E8
:101FD00011E0154A826025E00822C26022E010224A
:101FE000C2601FE0082202611CE01022026119E0B9
:101FF0000822426016E01022426013E00422426090
:1020000010E0042242600DE0042242600AE0002257
:1020100082610422426005E0002282610422426063
:1020200000E000BF00BF704701010100016821F01E
:10203000010101600021016041608160C1600161B6
:1020400021214161DB49884204D13D21D94A103A1E
:1020500091608CE0D7491831884205D14FF4746102
:10206000D44A103A916082E0D2493031884205D199
:102070004FF47411CF4A103A916078E0CD4948315D
:10208000884205D14FF07461CA4A103A91606EE0FF
:10209000C8496031884204D1C749C64A103AD16064
:1020A00065E0C4497831884204D1C449C14A103A34
:1020B000D1605CE0BF499031884204D1C049BD4A3B
:1020C000103AD16053E0BB49A831884205D14FF0A6
:1020D0003D51B84A103AD16049E0BA49884204D12A
:1020E0003D21B84A083A116041E0B64918318842AA
:1020F00005D14FF47461B34A083A116037E0B14931
:102100003031884205D14FF47411AE4A083A11605B
:102110002DE0AC494831884205D14FF07461A94A9D
:10212000083A116023E0A7496031884204D1A249EE
:10213000A44A121F11601AE0A2497831884204D1E2
:102140009E49A04A121F116011E09E4990318842B9
:1021500004D19B499B4A121F116008E09949A8319C
:10216000884204D14FF03D51964A121F11607047CA
:1021700010B500220268944B1A40CC680B682343C8
:102180004C6923438C692343CC6923430C6A234362
:102190004C6A23438C6A23434C6B23438C6B23434D
:1021A0001A430260426922F00702D1E90B3423434B
:1021B0001A4342610B6943604B6883608B68C3605C
:1021C00010BD0021016041608160C1600161416119
:1021D0008161C161016241628162C16201634163E7
:1021E0008163704721B1026842F00102026003E09E
:1021F000026822F001020260704721B1026842F4D5
:102200000042026003E0026822F40042026070476C
:1022100021B1026842F02002026003E0026822F06D
:10222000200202607047416070470146486880B2F2
:10223000704722B1036843F40023036003E003689E
:1022400023F4002303600161704721B1026842F466
:102250008022026003E0026822F48022026070475C
:102260000AB1016100E0C1607047014600200A68C0
:1022700002F400220AB1012000E00020704701466C
:1022800000200A6802F001020AB1012000E00020EB
:102290007047014600204A6902F03800704730B5A7
:1022A00003460A4600200024464DAB4202D2414973
:1022B000103901E04349103902F000550DB14C6866
:1022C00000E00C68414D2C4004EA02050DB10120EC
:1022D00000E0002030BD02463A4B9A4202D2354817
:1022E000103801E03748103801F000531BB1374B6C
:1022F0000B40C36002E0354B0B408360704710B564
:1023000001F080034BB122B1436943F08003436184
:1023100003E0436923F08003436180290BD02AB195
:10232000036801F01E042343036004E0036801F026
:102330001E04A343036010BD70B5024600200024B4
:102340000025204EB24202D21A4B103B01E01D4B39
:10235000103B1F4E0E4036B11E2606EAD1241668E9
:1023600006EA040502E0566906F0800501F0005611
:102370000EB15C6800E01C68144E344004EA0106AB
:1023800016B10DB1012000E0002070BD02460D4BDA
:102390009A4202D20748103801E00A48103801F08A
:1023A00000531BB1094B0B40C36002E0074B0B40CD
:1023B00083607047106002403D000020400F002005
:1023C00000003D20106402403F801CF07D0F7D0F17
:1023D0003C0F3C0F10B504468C48844208D10121C3
:1023E000084600F000FB0021012000F0FCFA5EE04E
:1023F0008748844208D10121022000F0F4FA00212C
:10240000022000F0F0FA52E08248844208D1012113
:10241000042000F0E8FA0021042000F0E4FA46E08D
:102420007D48844208D10121082000F0DCFA002117
:10243000082000F0D8FA3AE07848844208D1012117
:10244000102000F0D0FA0021102000F0CCFA2EE08D
:102450007348844208D10121202000F0C4FA0021F1
:10246000202000F0C0FA22E06E48844208D1012109
:10247000402000F0B8FA0021402000F0B4FA16E045
:102480006948844208D10121802000F0ACFA002183
:10249000802000F0A8FA0AE06448844207D10121B4
:1024A000801500F0A0FA0021A01500F09CFA10BDE4
:1024B000F0B50A4600210023002400BF3DE00125BD
:1024C00005FA01F3156805EA03049C4234D1056856
:1024D0004F000326BE40B543056015794E00B54058
:1024E0000668354305601579012D02D01579022D56
:1024F00016D185684F000326BE40B54385605579E7
:102500004E00B540866835438560456801268E409B
:10251000B5434560456896798E40B6B2354345600F
:10252000C5684F000326BE40B543C560D5794E004F
:10253000B540C6683543C560491C1029BFD3F0BDFE
:102540004FF6FF7101600021017141718171C1710C
:10255000704708B54FF480320092009A0A43009207
:10256000009AC261C161009AC261C2690092C269E7
:10257000009208BD0246002013690B400BB10120F8
:1025800000E0002070470146086980B270470246AB
:10259000002053690B400BB1012000E00020704780
:1025A0000146486980B27047018370474183704794
:1025B0000AB1018300E0418370474161704742697D
:1025C0004A4042617047F0B5002300244D07ED0EEC
:1025D00002FA05F3CE1000F1200555F826504E07FB
:1025E000F70E0F26BE40B543CF1000F1200646F887
:1025F0002750CE1000F1200555F8265045EA030477
:10260000CE1000F1200545F82640F0BD0000024044
:102610000004024000080240000C0240001002408A
:102620000014024000180240001C0240002002403A
:10263000FA48006840F00100F84908600020F749B6
:1026400008310860F5480068F5490840F34908601A
:10265000F448091D0860081F006820F48020091F45
:1026600008600020ED490C31086070470021EB4AFA
:10267000921C117011460870704710B50146002277
:10268000002300204A11012A02D1E44C236808E00B
:10269000022A03D1E14C7034236802E0DF4C743429
:1026A000236801F01F02012494401C400CB101205A
:1026B00000E0002010BD38B5002000900024002567
:1026C00000BF3120FFF7D9FF05460098401C00905D
:1026D0000098B0F5A06F01D0002DF2D03120FFF7A7
:1026E000CCFF08B1012400E00024204638BD01469B
:1026F0000020CA4A106820F0F80040EAC1001060CB
:102700007047C949086070470021C44A703211708F
:102710001170012802D004280AD104E00121BF4A27
:102720007032117005E00521BC4A7032117000E072
:1027300000BF00BF7047BD490860704770B5049C7A
:1027400041EA82150126C6EB530645EA06450543D4
:1027500045EA0465B14E361D356070BDB249086664
:102760007047820142EA0172AC4B84331A607047B1
:10277000AD4988667047AC49C8647047024600207E
:10278000A64B0833186820F0EC6042EA01031843B6
:10279000A24B083318607047024600209F4B083355
:1027A000186820F0784042EA010318439B4B083335
:1027B0001860704701460020984A0832106820F0DF
:1027C000030008431060704794480830006800F028
:1027D0000C00704701460020904A0832106820F033
:1027E000F000084310607047014600208B4A083211
:1027F000106820F4E0500843106070470146002044
:10280000864A0832106820F4604040EAC100106037
:102810007047F0B500210022002402250026022383
:102820007E4F08373F6807F00C0121B1042905D01D
:10283000082937D105E07E4F076036E07D4F0760FD
:1028400033E0764F3F1D3F68C7F38056734F3F1DFF
:102850003F6807F03F036EB1764FB7FBF3F7DFF841
:10286000BCC10CF1040CDCF800C0CCF3881C07FBE5
:102870000CF40CE06E4FB7FBF3F7DFF8A0C10CF1DE
:10288000040CDCF800C0CCF3881C07FB0CF4634F8D
:102890003F1D3F68C7F301477F1C7D00B4FBF5F780
:1028A000076002E0624F076000BF00BF5B4F083760
:1028B0003F6807F0F00109095F4F7A5C0768D7406D
:1028C0004760564F08373F6807F4E051890A5A4F6E
:1028D0007A5C4768D7408760504F08373F6807F4F5
:1028E0006041490B544F7A5C4768D740C760F0BDE0
:1028F000002100F44072B2F5407F0AD1474A083205
:10290000116821F4F8114D4A02401143434A08323C
:102910001160424A70321268C0F30B031A433F4BF6
:1029200070331A60704741494439086070473F4925
:1029300040390860704742490860704739B1374AEA
:10294000303212680243354B30331A6006E0334AA6
:10295000303212688243314B30331A60704739B1DC
:102960002E4A3432126802432C4B34331A6006E08C
:102970002A4A343212688243284B34331A60704733
:1029800039B1264A383212680243244B38331A6070
:1029900006E0224A383212688243204B38331A60EC
:1029A000704739B11D4A4032126802431B4B403315
:1029B0001A6006E0194A403212688243174B4033CE
:1029C0001A60704739B1154A443212680243134BFA
:1029D00044331A6006E0114A4432126882430F4BB6
:1029E00044331A60704739B10C4A103212680243FE
:1029F0000A4B10331A6006E0084A1032126882430C
:102A0000064B10331A607047E1B1044A1432126861
:102A10000243024B14331A6019E0000000380240F0
:102A2000FFFFF6FE1030002400004742800E4742B0
:102A30000024F40000127A0010000020FFFCFF0FB9
:102A40005C0147425B4A126882435A4B1A607047E6
:102A500039B1584A121D12680243564B1B1D1A60A9
:102A600006E0544A121D12688243524B1B1D1A6025
:102A7000704739B14F4A0C32126802434D4B0C3348
:102A80001A6006E04B4A0C3212688243494B0C3301
:102A90001A60704739B1474A103212680243454BF9
:102AA00010331A6006E0434A103212688243414BE9
:102AB00010331A60704739B13E4A3C321268024303
:102AC0003C4B3C331A6006E03A4A3C32126882437F
:102AD000384B3C331A60704739B1364A403212687D
:102AE0000243344B40331A6006E0324A40321268E7
:102AF0008243304B40331A60704739B12D4A44321B
:102B0000126802432B4B44331A6006E0294A4432D0
:102B100012688243274B44331A60704739B1254A03
:102B20004C3212680243234B4C331A6006E0214AB0
:102B30004C32126882431F4B4C331A60704739B1D4
:102B40001C4A5032126802431A4B50331A6006E096
:102B5000184A503212688243164B50331A6070473D
:102B600039B1144AD21F12780243124BDB1F1A707C
:102B700006E0104AD21F127882430E4BDB1F1A70F8
:102B800070470C486030006840F08070094960313F
:102B90000860704701460020064A083A12680A4059
:102BA0000AB1012000E0002070470249891F087027
:102BB000704700001438024010B50446F7488442BC
:102BC00008D101211020FFF765FF00211020FFF739
:102BD00061FF3EE0F248844209D101214804FFF739
:102BE00048FF00214FF40030FFF743FF31E0ED488C
:102BF000844209D101218804FFF73BFF00214FF4F3
:102C00008020FFF736FF24E0E748844209D1012104
:102C1000C804FFF72EFF00214FF40020FFF729FF23
:102C200017E0E248844209D101210805FFF721FF9E
:102C300000214FF48010FFF71CFF0AE0DC488442BB
:102C400007D101212020FFF725FF00212020FFF7D9
:102C500021FF10BD2DE9FF4705460E460024A14681
:102C600000BFA046B08900B100BF2C8A24F44054B4
:102C7000F08804432C82AC8941F20C608443B08814
:102C800031890843718908430443AC81AC8A24F438
:102C90004074B0890443AC826846FFF7BAFDBF4870
:102CA000854202D0C248854202D1DDF80C9001E095
:102CB000DDF80890A88900F4004040B109EBC90094
:102CC00000EB091031684900B0FBF1F707E009EBB0
:102CD000C90000EB091031688900B0FBF1F76420EE
:102CE000B7FBF0F004012009642101FB1078A889EA
:102CF00000F4004040B1322000EBC800B0FBF1F01E
:102D000000F00700044308E0322000EB08106421C3
:102D1000B0FBF1F000F00F0004432C81BDE8FF8709
:102D20004FF41651016000218180C18001810C2186
:102D3000418100218181704710B502460020108A30
:102D400020F470600B884C8823438C882343CC8804
:102D500023431843108210BD0021018041808180EF
:102D6000C180704721B1828942F40052828104E01F
:102D700082894DF6FF731A4082817047028B02F4FC
:102D80007F420283028B0A430283704721B182890A
:102D900042F40042828103E08289C2F30E02828102
:102DA000704721B1828A42F40062828204E0828A02
:102DB0004FF2FF731A4082827047C1F3080282808B
:102DC000704701468888C0F308007047028A4FF6B2
:102DD000F0731A400282028A0A430282704721B1CC
:102DE000828942F00202828104E082894FF6FD73FB
:102DF0001A408281704782894FF2FF731A408281A4
:102E000082890A4382817047028A4FF6DF731A4033
:102E10000282028A0A430282704721B1028A42F486
:102E20008042028204E0028A4BF6FF731A4002825B
:102E30007047818941F001018181704721B1828A07
:102E400042F00802828204E0828A4FF6F7731A4049
:102E500082827047028BD2B20283028B42EA012245
:102E60000283704721B1828A42F02002828204E00C
:102E7000828A4FF6DF731A408282704721B1828ABC
:102E800042F01002828204E0828A4FF6EF731A4009
:102E900082827047828A4FF6FB731A408282828A4E
:102EA0000A438282704721B1828A42F00202828202
:102EB00004E0828A4FF6FD731A40828270471AB18D
:102EC000838A0B43838202E0838A8B438382704729
:102ED000F0B50346002400260025002040F66A17BE
:102EE000B94200D100BF1846C1F3421401F01F06D9
:102EF000012707FA06F5012C01D10C3004E0022C61
:102F000001D1103000E014301AB107682F43076078
:102F100002E00768AF430760F0BD02460020B1F54C
:102F2000007F00D100BF13880B400BB1012000E0EF
:102F30000020704701F40072B2F5007F00D100BF9D
:102F4000CA430280704770B5024600240023002562
:102F5000002040F66A16B14200D100BFC1F342150D
:102F600001F01F03012606FA03F3012D02D1968911
:102F7000334006E0022D02D1168A334001E0968AE2
:102F800033400C12012606FA04F41688344013B1BB
:102F90000CB1012000E0002070BD000000100140D5
:102FA0000044004000480040004C004000500040F9
:102FB0000014014010B50022002340F66A14A1421B
:102FC00000D100BF0A1201249440A3B2DC43048064
:102FD00010BD00000CB500200190009076480068FC
:102FE00040F480307449086000BF7348006800F402
:102FF000003000900198401C0190009818B9019889
:10300000B0F5A04FF1D16C48006800F4003010B169
:103010000120009001E0002000900098012846D196
:1030200065484030006840F0805063494031086096
:103030006248006840F44040604908605E480830DB
:1030400000685D49083108600846006840F40040A7
:1030500008600846006840F4A05008605848091FFE
:103060000860081F006840F08070091F086000BFFA
:103070005148006800F000700028F9D040F2056067
:10308000504908604C480830006820F003004A4965
:10309000083108600846006840F00200086000BF80
:1030A00045480830006800F00C000828F8D10CBD35
:1030B00010B54548006840F47000434908603E4838
:1030C000006840F001003C49086000203A4908319E
:1030D0000860394800683D490840374908603C4865
:1030E000091D0860081F006820F48020091F08607F
:1030F000002031490C310860FFF76CFF4FF0006091
:1031000031498039086010BD70B5002000220223CB
:1031100000240221284D08352D6805F00C0020B14F
:10312000042806D0082834D107E02A4D2A4E3560FD
:1031300033E02A4D284E35602FE01F4D2D1D2D68A0
:10314000C5F380541C4D2D1D2D6805F03F0154B171
:10315000224DB5FBF1F5184E361D3668C6F38816BC
:1031600005FB06F209E01B4DB5FBF1F5124E361DCD
:103170003668C6F3881605FB06F20F4D2D1D2D6827
:10318000C5F301456D1C6B00B2FBF3F5124E3560C3
:1031900003E0104D104E356000BF00BF064D0835EE
:1031A0002D68C5F303150E4E705D0B4D2D68C5409F
:1031B000094E356070BD00000038024000700040CC
:1031C00008544007003C024088ED00E0FFFFF6FE97
:1031D000103000240024F4002000002000127A00A7
:1031E00024000020704700000FB4044910B503AA62
:1031F000029800F009F810BC5DF814FB04000020F0
:103200007047704770477047074B70B50D467B4459
:1032100000F011F80446284600F020F810B14FF0F5
:10322000FF3070BD204670BDFFD6FFFF01694A1C0C
:1032300002610878704700B58FB0CDE901310021F7
:10324000059105497944CDE903101146684600F01F
:103250002EF80FB000BD0000E5FFFFFF007B00F07F
:1032600080007047754600F03FF8AE46050069469D
:10327000534620F00700854618B020B5FEF75CF9EC
:10328000BDE820404FF000064FF000074FF0000867
:103290004FF0000B21F00701AC46ACE8C009ACE8E8
:1032A000C009ACE8C009ACE8C0098D4670472DE9FB
:1032B000F04106460024D6E90170F56880463046A4
:1032C00003E04146B847641C3046A8470028F8D1BF
:1032D0002046BDE8F08110B50446AFF300802046DB
:1032E000BDE81040FCF799BF004870476407002014
:1032F0004FF04070E1EE100A704700001C330008E8
:103300000000002034000000C40100085033000811
:1033100034000020940D0000E001000801000000CE
:10332000000000000000000000000000000000009D
:10333000010203040102030406070809007A030AD4
:103340000000000000000000010203040607080955
:040000050800018965
:00000001FF
