:020000040800F2
:10000000B8060020350B00088D0200088F0200089A
:1000100093020008970200089B02000800000000FD
:100020000000000000000000000000009F02000827
:10003000A102000800000000A3020008A5020008B9
:100040004F0B00084F0B00084F0B00084F0B000828
:100050004F0B00084F0B00084F0B00084F0B000818
:100060004F0B00084F0B00084F0B00084F0B000808
:100070004F0B00084F0B00084F0B00084F0B0008F8
:100080004F0B00084F0B00084F0B0008D30500086A
:10009000C90600084F0B00084F0B00084F0B000863
:1000A0004F0B00084F0B00084F0B00084F0B0008C8
:1000B0004F0B00084F0B00084F0B00084F0B0008B8
:1000C0004F0B00084F0B00084F0B00084F0B0008A8
:1000D0004F0B0008B10900084F0B00084F0B000838
:1000E0004F0B00084F0B00084F0B00084F0B000888
:1000F0004F0B00084F0B00084F0B00084F0B000878
:100100004F0B00084F0B00084F0B00084F0B000867
:100110004F0B00084F0B00084F0B00084F0B000857
:100120004F0B00084F0B00084F0B00084F0B000847
:100130004F0B00084F0B00084F0B0008E9050008A3
:100140004B0600084F0B00084F0B00084F0B000830
:100150004F0B00084F0B00084F0B00084F0B000817
:100160004F0B00084F0B00084F0B00084F0B000807
:100170004F0B00084F0B00084F0B00084F0B0008F7
:100180004F0B00084F0B000800F002F800F03CF89D
:100190000AA090E8000C82448344AAF10107DA45E2
:1001A00001D100F031F8AFF2090EBAE80F0013F0F8
:1001B000010F18BFFB1A43F001031847582700002E
:1001C00078270000103A24BF78C878C1FAD85207BF
:1001D00024BF30C830C144BF04680C6070470000C1
:1001E0000023002400250026103A28BF78C1FBD840
:1001F000520728BF30C148BF0B6070471FB502F0DF
:1002000083FB1FBD10B510BD02F038FB1146FFF790
:10021000F5FF00F009F802F06AFB03B4FFF7F2FF04
:1002200003BC00F063FB000000244FF4A06000F06A
:10023000A1FC4FF4E13000F067FB4FF4E13000F037
:100240000EFC00F031F800F04DF800231E220821CA
:10025000032000F0C7F8002303220821104600F015
:100260003AF90BE0641C0648B4FBF0F100FB1140C6
:1002700020B900F0B4FA03A002F0C2FAF2E70000DD
:100280002048010030576F726B210000704700BF9B
:10029000FEE700BFFEE700BFFEE700BFFEE77047D6
:1002A00070477047704700001CB50121042001F021
:1002B00051FE0620009001208DF8040000208DF8EA
:1002C000060003208DF8050001208DF8070069461F
:1002D000034801F0F9FB0621014801F071FC1CBD47
:1002E000000802401CB50121112001F033FE1C2042
:1002F000009000208DF8040003208DF805000120F7
:100300008DF807006946344801F0DEFB01200090BB
:1003100002208DF807006946304801F0D5FB1CBD6E
:1003200010B5044614B101202D4908702C480078FE
:10033000A0B31021284801F029FC78B108212648F3
:1003400001F024FC50B10421234801F01FFC28B126
:100350000121224801F01AFC012820D10020204967
:10036000087010211C4801F011FC08B9012010BDD3
:100370000821194801F00AFC08B90220F7E7042116
:10038000154801F003FC08B90320F0E701211348E8
:1003900001F0FCFB01281CD10420E8E7FFE7102155
:1003A0000D4801F0F3FB012813D108210A4801F0A0
:1003B000EDFB01280DD10421074801F0E7FB0128DE
:1003C00007D10121054801F0E1FB10B901200449E2
:1003D00008700020CBE7000000100240000002403F
:1003E00000000020F0B58BB004460D4616461F46AF
:1003F0000121084601F0AEFD0121480601F0DDFDB6
:100400004FF4C050099002208DF8280009A9FE4839
:1004100001F05AFB09220B21FB4801F0E0FB092205
:100420000C21F94801F0DBFBF84800F013FC06A8AA
:1004300000F034FD00208DF81E0001208DF81F0013
:1004400000208DF820008DF821008DF822008DF815
:1004500023008DF81A708DF81B008DF81C508DF854
:100460001D40ADF8186006A9E84800F00CFC00201B
:100470008DF812008DF8130001208DF81400002073
:10048000ADF80800ADF80A00ADF80C00ADF80E00AC
:10049000ADF8100001208DF8150002A800F07DFCD9
:1004A00001220221D94800F077FF14208DF80400C2
:1004B00003208DF8050001208DF806008DF8070057
:1004C00001A800F05CFB01220221D04800F064FF8B
:1004D00000200BB0F0BDF0B58BB004460D461646BB
:1004E0001F460121022001F035FD0121880601F09F
:1004F00064FD4FF44050099002208DF82800002040
:100500008DF82A0003208DF8290001208DF82B009A
:1005100009A9BF4801F0D8FA09220C21BC4801F012
:100520005EFB09220D21BA4801F059FBB94800F0E1
:1005300091FB06A800F0B2FC00208DF81E000120FF
:100540008DF81F0000208DF820008DF821008DF817
:1005500022008DF823008DF81A708DF81B008DF89D
:100560001C508DF81D40ADF8186006A9A94800F090
:100570008AFB0E208DF8120000208DF81300012058
:100580008DF814000020ADF80800ADF80A00ADF8B1
:100590000C00ADF80E00ADF8100001208DF815002C
:1005A00002A800F0FAFB40208DF8040003208DF82B
:1005B00005008DF8060001208DF8070001A800F065
:1005C000DEFA01220221934800F0E6FE00200BB083
:1005D000F0BD10B501218D4800F046FF18B1012192
:1005E0008A4800F0DCFF10BD10B50121894800F0F9
:1005F0003BFF18B10121874800F0D1FF10BD30B595
:1006000085B0054640F20520009000208DF80900D5
:100610008DF8080000217F4800F026FE10B9002068
:1006200005B030BD6A4600217A4800F09AFD0024EA
:1006300004E00DF10B00005D2855641C9DF80A00D4
:10064000A042F6D89DF80B00EAE710B586B002216B
:10065000704800F009FFB8B102216E4800F09FFF1A
:1006600001AA00216B4800F07CFD0DF10F00FFF79F
:10067000C6FF002406E00DF10F00005D6649085535
:10068000601CC4B2082CF6DB06B010BD30B585B0D6
:10069000054600215D4800F0E7FD10B9002005B0D7
:1006A00030BD6A460021594800F05BFD002404E09B
:1006B0000DF10B00005D2855641C9DF80A00A04256
:1006C000F6D89DF80B00EAE710B586B00221534832
:1006D00001F076FA0421514801F072FA02214B48E8
:1006E00000F0C2FEE0B10221484800F058FF01AA24
:1006F0000021464800F035FD40F251210198884222
:100700000ED10DF10F00FFF7C1FF002406E00DF13F
:100710000F00005D42490855601CC4B2082CF6DB8E
:100720003F480078472807D13EA002F069F802212F
:100730003A4801F047FA1AE039480078772807D19B
:100740003DA002F05DF80421344801F03BFA0EE0D0
:100750003EA002F055F80221304801F033FA0221A0
:100760002E4801F02DFA02212C4801F02BFA06B098
:1007700010BDF0B585B007460D46002440F251206B
:1007800000901220019000208DF808008DF80900DB
:100790008DF80A5000BF05E0395D0DF10B000155E1
:1007A000601C84B2AC42F7DB6946184800F0E4FBF9
:1007B0000646002401E0601C84B23146134800F074
:1007C00073FC18B940F6FF708442F4DB40F6FF700A
:1007D000844202DB012005B0F0BD0020FBE700B53C
:1007E00085B04FF414700090002001908DF808003F
:1007F0008DF8090008208DF80A00074880788DF8E8
:100800000B000548C1782BE0000002400064004066
:10081000000402400068004044000020000802403C
:10082000300000204E6F726D616C207265636570E0
:1008300074696F6E0D0A0000526563656976652004
:10084000657863657074696F6E0D0A0053746F701C
:1008500070656420726563657074696F6E0D0A005F
:100860008DF80C1081798DF80D1000218DF80E1087
:100870008DF80F108DF810108DF811108DF81210E2
:100880006946194800F078FB05B000BD2DE9F0413C
:1008900086B080460C4615461E460C9F40F2FF105F
:1008A000019000208DF80C008DF80D0008208DF8C7
:1008B0000E00200A8DF80F008DF81040290A8DF8DF
:1008C00011108DF81250310A8DF813108DF8146044
:1008D000390A8DF815108DF8167001A9404600F000
:1008E0004BFB06B0BDE8F0810064004000BF7047DC
:1008F00000BF894A128802F04002002AF9D0C2B231
:10090000854B1B1D1A80704710B588B00446012125
:10091000022001F01FFB0121102001F05FFB0722E4
:1009200011467E4801F05BF9072206217B4801F061
:1009300056F906A801F010F9C020069002208DF8A3
:100940001C0000208DF81D0001208DF81F0006A955
:10095000724801F0B9F8724801F03AFC02A801F0BF
:10096000EBFC02940020ADF80C00ADF80E00ADF8E1
:100970001000ADF814000C20ADF8120002A9684870
:1009800001F074FC012240F22551654801F0ACFDF4
:1009900025208DF8040000208DF805008DF8060054
:1009A00001208DF8070001A800F0E9F808B010BD9B
:1009B00010B540F224415A4801F0D1FD00284DD035
:1009C0005748008856488088564800F05AFF10BBA8
:1009D0000021544800F012FF5349524800F087FFAD
:1009E000504800F02EFFC0F16400504908606420B8
:1009F0004C49091D0860081F006840F40020091FC9
:100A000008600121474800F0F9FE484800681228B4
:100A100024D100BF22E00021424800F0EFFE42490D
:100A2000404800F064FF3F4800F00BFFC0F1640055
:100A30003E49086064203B49091D0860081F0068A2
:100A400020F40020091F08600121364800F0D6FE7E
:100A500036480068122801D100BF00BF10BD10B594
:100A600088B004460121022001F074FA01218804B3
:100A700001F0A3FA07220A21284801F0B0F8072262
:100A80000B21264801F0ABF802208DF80C00032062
:100A90008DF80D0000208DF80E0001208DF80F005C
:100AA0008002029002A91D4801F00EF84FF4006088
:100AB000029002A9194801F007F804940020ADF84B
:100AC0001400ADF81600ADF81800ADF81C000C20AD
:100AD000ADF81A0004A9164801F0C8FB27208DF8CC
:100AE000040002208DF8050001208DF806008DF825
:100AF000070001A800F043F8012240F224410C480D
:100B000001F0F2FC50210A4801F020FD01210848C3
:100B100001F034FC08B010BD001401400004024094
:100B20000010014040640240000030100800002026
:100B3000004800400948804709480047FEE7FEE7B3
:100B4000FEE7FEE7FEE7FEE7FEE7FEE7FEE7FEE77D
:100B500004480549054A064B70470000C9260008AD
:100B600089010008B8000020B8060020B802002063
:100B7000B802002032490143324A1160704770B513
:100B8000002100230F22C4781CB32E4C246804F4E7
:100B9000E064C4F5E064C4F30721C1F10404E3B2E6
:100BA0000A4144789C40E1B28478144021430C0708
:100BB000210E254C05786155047804F01F050124A9
:100BC000AC4005786D11AD0005F1E025C5F8004198
:100BD00009E0047804F01F050124AC401B4D0678A1
:100BE000761145F8264070BD194A0A400243154B5C
:100BF0001B1F1A60704739B1124A121D1268024356
:100C0000104B1B1D1A6006E00E4A121D126882432B
:100C10000C4B1B1D1A607047042808D14FF0E021CF
:100C2000096941F004014FF0E022116107E04FF043
:100C3000E021096921F004014FF0E02211617047C1
:100C40000000FA050CED00E000E400E080E100E0C7
:100C500080FFFF1F10B50446FE48844209D10121E0
:100C6000480601F012FA00214FF0007001F00DFA71
:100C700008E00121880601F008FA00214FF08060A9
:100C800001F003FA10BD30B50246002000231468BD
:100C900024F002041460146844F00104146000E0BD
:100CA0005B1C546804F001041CB94FF6FF74A342A6
:100CB000F6D1546804F001040CB900206CE08C7982
:100CC000012C04D1146844F08004146003E014681B
:100CD00024F080041460CC79012C04D1146844F011
:100CE0004004146003E0146824F0400414600C7A9B
:100CF000012C04D1146844F02004146003E014684B
:100D000024F0200414604C7A012C04D1146844F0BF
:100D10001004146003E0146824F0100414608C7A4A
:100D2000012C04D1146844F00804146003E0146832
:100D300024F008041460CC7A012C04D1146844F027
:100D40000404146003E0146824F0040414608C7834
:100D5000A407CD7844EA05640D7944EA05444D7949
:100D600044EA05540D886D1E2C43D461146824F0A8
:100D700001041460002300E05B1C546804F00104CB
:100D80001CB14FF6FF74A342F6D1546804F001047D
:100D90000CB1002000E0012030BD10B50021837AA5
:100DA000012202FA03F1AC4A126842F00102AA4B96
:100DB0001A60A94A1C3212688A43A74B1C331A6076
:100DC000027BCAB9A44A0C3212688A43A24B0C3384
:100DD0001A604288C38842EA03439F4A4032847AB9
:100DE00042F834300288838842EA03439A4A403208
:100DF000847A02EBC4025360027B012A19D1964A1D
:100E00000C3212680A43944B0C331A6042880388F0
:100E100042EA0343904A4032847A42F83430C2882E
:100E2000838842EA03438C4A4032847A02EBC4024C
:100E30005360C27A3AB9884A121D12688A43864BB7
:100E40001B1D1A6006E0844A121D12680A43824B79
:100E50001B1D1A60028932B97F4A143212688A4314
:100E60007D4B14331A600289012A06D17A4A143262
:100E700012680A43784B14331A60427B012A06D168
:100E8000754A1C3212680A43734B1C331A60724A4B
:100E9000126822F00102704B1A6010BD00218171AE
:100EA000C171017241728172C1728170C17003217E
:100EB0000171022141710121018070476649096871
:100EC00041F00101644A11601146096843F60E724F
:100ED0009143614A11601146096841EA002111609D
:100EE0001146096821F001011160704721B10268C3
:100EF00042F48032026003E0026822F48032026031
:100F00007047E1B1026842F0800202604FF4C272A1
:100F1000125842F480734FF4C27213504FF4CA72E5
:100F2000125842F480734FF4CA7213504FF4D272C5
:100F3000125842F480734FF4D27213501BE00268CF
:100F400022F0800202604FF4C272125822F48073C1
:100F50004FF4C27213504FF4CA72125822F48073C5
:100F60004FF4CA7213504FF4D272125822F48073A5
:100F70004FF4D2721350704710B5024600209368A8
:100F800003F08063B3F1806F00D110E0936803F049
:100F90000063B3F1006F01D1012008E0936803F012
:100FA0008053B3F1805F01D1022000E004200428C7
:100FB00079D002F5C07303EB00131B6803F0010442
:100FC00002F5C07303EB00131C600B7A7BB94B7AFC
:100FD0000C8843EA445302F5C07404EB00142468FF
:100FE000234302F5C07404EB0014236010E00B7A75
:100FF0004C6843EAC4034C7A234302F5C07404EB03
:1010000000142468234302F5C07404EB0014236029
:101010008B7A03F00F038B7202F5C07303EB00139E
:101020005B6823F00F0402F5C07303EB00135C60F0
:1010300002F5C07303EB00135B688C7A234302F55F
:10104000C07404EB001463608B7B1C064B7B44EA8A
:10105000034403E000640040006600400B7B44EA68
:101060000323CC7A234302F5C07404EB0014A3607D
:101070008B7C1C064B7C44EA03440B7C44EA032330
:10108000CC7B234302F5C07404EB0014E36002F54B
:10109000C07303EB00131B6843F0010402F5C07337
:1010A00003EB00131C6010BD10B50246002321B1F4
:1010B000012907D002290FD109E09068F94C00EA14
:1010C00004030BE09068F84C00EA040306E0906823
:1010D000F64C00EA040301E0002300BF00BFF44C1B
:1010E000181BA34216D007DC83B16FF08060184450
:1010F00070B1022818D111E0B0F5007F10D0ED4C8E
:10110000204448B1B0F5003F0ED10BE002230DE0C2
:1011100000230BE0002309E0002307E0012305E0A2
:10112000012303E0012301E0002300BF00BFD8B288
:1011300010BD21B1012907D002290FD109E0826831
:1011400042F0800282600AE0826842F400428260DB
:1011500005E0826842F40002826000E000BF00BF48
:10116000704710B500F5D87303EB01131B6803F04B
:1011700004031372137A53B900F5D87303EB011308
:101180001B6840F2FF7404EA5353136009E000F552
:10119000D87303EB01131B686FF0604404EAD303B8
:1011A000536000F5D87303EB01131B6803F00203CF
:1011B000537200F5D87303EB01135B6803F00F0360
:1011C000937200F5D87303EB01135B681B0AD374A9
:1011D00000F5D87303EB01139B68D37200F5D87345
:1011E00003EB01139B681C0A147300F5D87303EB1F
:1011F00001139B681C0C547300F5D87303EB0113A7
:101200009B681B0E937300F5D87303EB0113DB6827
:10121000D37300F5D87303EB0113DB681C0A147455
:1012200000F5D87303EB0113DB681C0C547400F554
:10123000D87303EB0113DB681B0E937421B9C368E9
:1012400043F02003C36003E0036943F0200303611C
:1012500010BD21B9C26842F02002C26003E00269F9
:1012600042F02002026170470246002019B9D3689B
:1012700003F0030006E0012903D1136903F0030022
:1012800000E00020704710B502460B4600204FF6E4
:10129000FF71BBB9146824F0020444F00104146027
:1012A00000E0491E546804F00304012C01D0002919
:1012B000F7D1546804F00304012C01D0002032E07F
:1012C000012030E0012B13D1146824F003041460D2
:1012D00000E0491E546804F003040CB10029F8D161
:1012E000546804F003040CB100201CE001201AE053
:1012F000022B17D1146824F0010444F00204146096
:1013000000E0491E546804F00304022C01D00029B7
:10131000F7D1546804F00304022C01D0002002E04D
:10132000012000E0002010BD014600200A6822F0E4
:10133000010242F002020A604A6802F00302022A35
:1013400000D10120704701464FF6FF7200200B6864
:1013500023F002030B6000E0521E4B6803F002030F
:10136000022B01D1002AF7D14B6803F00203022BB4
:1013700000D001207047014600208A6902F0700009
:101380007047014600208A69100E70470146002010
:101390008A69C2F3074070471AB143690B4343613E
:1013A00002E043698B434361704710B50246002059
:1013B00001F4700343B19369C1F3130423400BB1EB
:1013C00001202DE000202BE001F0807343B1536831
:1013D000C1F3130423400BB1012021E000201FE0E2
:1013E00001F0006343B19368C1F3130423400BB1D0
:1013F000012015E0002013E001F0007343B1D36831
:10140000C1F3130423400BB1012009E0002007E0E1
:101410001369C1F3130423400BB1012000E0002045
:1014200010BD0022244B994202D10023836111E0B8
:10143000C1F3130201F000730BB1C2600AE001F0C6
:1014400080630BB1026105E001F000630BB18260C3
:1014500000E0426070470246002002EA01030BB13F
:10146000012000E00020704770B504460D460026BC
:1014700060692840002872D0B5F5807F69D01DDCF6
:10148000082D42D006DC012D2DD0022D31D0042DA7
:101490007FD134E0102D3ED0202D42D0402D78D188
:1014A00045E00000030000040003000800000310F2
:1014B000000100080001FFF77000F030B5F5004FA3
:1014C00061D009DCB5F5007F4AD0B5F5806F4DD00D
:1014D000B5F5006F5DD150E0B5F5803F2DD0B5F585
:1014E000003F56D12FE0A0685549FFF7B4FF0646EC
:1014F00051E0E0680321FFF7AEFF06464BE0E068ED
:101500000821FFF7A8FF064645E0E0681021FFF735
:10151000A2FF06463FE020690321FFF79CFF064635
:1015200039E020690821FFF796FF064633E020697D
:101530001021FFF790FF06462DE060680821FFF7B5
:101540008AFF064627E060681021FFF784FF064601
:1015500021E0A0690121FFF77EFF06461BE01BE0AA
:10156000A0690221FFF777FF064614E0A069042175
:10157000FFF771FF06460EE00BE0A0697021FFF750
:101580006AFF064607E060680421FFF764FF06462D
:1015900001E0002600BF00E00026304670BDB1F536
:1015A000007F3AD00FDC202928D006DC01291CD08E
:1015B00004291DD0082940D11DE0402921D0B1F5D2
:1015C000807F3AD126E0B1F5004F31D006DCB1F58D
:1015D000806F25D0B1F5006F2FD124E0B1F5803FA9
:1015E00012D0B1F5003F28D111E0154A826025E004
:1015F0000822C26022E01022C2601FE008220261BD
:101600001CE01022026119E00822426016E010225C
:10161000426013E00422426010E0042242600DE0C8
:10162000042242600AE0002282610422426005E056
:10163000002282610422426000E000BF00BF7047C8
:1016400001010100016821F0010101600021016038
:1016500041608160C160016121214161DB498842B3
:1016600004D13D21D94A103A91608CE0D749183114
:10167000884205D14FF47461D44A103A916082E0F7
:10168000D2493031884205D14FF47411CF4A103A13
:10169000916078E0CD494831884205D14FF07461BE
:1016A000CA4A103A91606EE0C8496031884204D15C
:1016B000C749C64A103AD16065E0C44978318842CA
:1016C00004D1C449C14A103AD1605CE0BF499031AD
:1016D000884204D1C049BD4A103AD16053E0BB49A9
:1016E000A831884205D14FF03D51B84A103AD16037
:1016F00049E0BA49884204D13D21B84A083A11600C
:1017000041E0B6491831884205D14FF47461B34ABB
:10171000083A116037E0B1493031884205D14FF4C1
:101720007411AE4A083A11602DE0AC494831884244
:1017300005D14FF07461A94A083A116023E0A74926
:101740006031884204D1A249A44A121F11601AE0F4
:10175000A2497831884204D19E49A04A121F1160E3
:1017600011E09E499031884204D19B499B4A121F47
:10177000116008E09949A831884204D14FF03D51E9
:10178000964A121F1160704710B500220268944BF0
:101790001A40CC680B6823434C6923438C6923436C
:1017A000CC6923430C6A23434C6A23438C6A23434A
:1017B0004C6B23438C6B23431A430260426922F033
:1017C0000702D1E90B3423431A4342610B6943609A
:1017D0004B6883608B68C36010BD0021016041606D
:1017E0008160C160016141618161C16101624162E9
:1017F0008162C162016341638163704721B1026804
:1018000042F00102026003E0026822F0010202607D
:10181000704721B1026842F40042026003E00268AE
:1018200022F400420260704721B1026842F02002B7
:10183000026003E0026822F020020260704741600B
:1018400070470146486880B2704722B1036843F48C
:101850000023036003E0036823F4002303600161B5
:10186000704721B1026842F48022026003E00268FE
:1018700022F48022026070470AB1016100E0C16079
:101880007047014600200A6802F400220AB10120D4
:1018900000E000207047014600200A6802F00102C3
:1018A0000AB1012000E000207047014600204A698B
:1018B00002F03800704730B503460A460020002485
:1018C000464DAB4202D24149103901E0434910393B
:1018D00002F000550DB14C6800E00C68414D2C4001
:1018E00004EA02050DB1012000E0002030BD0246EF
:1018F0003A4B9A4202D23548103801E03748103846
:1019000001F000531BB1374B0B40C36002E0354B75
:101910000B408360704710B501F080034BB122B1DA
:10192000436943F08003436103E0436923F080038C
:10193000436180290BD02AB1036801F01E042343C0
:10194000036004E0036801F01E04A343036010BDBC
:1019500070B50246002000240025204EB24202D27B
:101960001A4B103B01E01D4B103B1F4E0E4036B191
:101970001E2606EAD124166806EA040502E0566926
:1019800006F0800501F000560EB15C6800E01C68AE
:10199000144E344004EA010616B10DB1012000E0F6
:1019A000002070BD02460D4B9A4202D20748103803
:1019B00001E00A48103801F000531BB1094B0B40FD
:1019C000C36002E0074B0B40836070471060024029
:1019D0003D000020400F002000003D201064024028
:1019E0003F801CF07D0F7D0F3C0F3C0F10B504466F
:1019F0008C48844208D10121084600F000FB0021F8
:101A0000012000F0FCFA5EE08748844208D1012101
:101A1000022000F0F4FA0021022000F0F0FA52E077
:101A20008248844208D10121042000F0E8FA002114
:101A3000042000F0E4FA46E07D48844208D1012108
:101A4000082000F0DCFA0021082000F0D8FA3AE083
:101A50007848844208D10121102000F0D0FA0021FA
:101A6000102000F0CCFA2EE07348844208D1012106
:101A7000202000F0C4FA0021202000F0C0FA22E06B
:101A80006E48844208D10121402000F0B8FA0021BC
:101A9000402000F0B4FA16E06948844208D10121E0
:101AA000802000F0ACFA0021802000F0A8FA0AE0C3
:101AB0006448844207D10121801500F0A0FA00217A
:101AC000A01500F09CFA10BDF0B50A4600210023D5
:101AD000002400BF3DE0012505FA01F3156805EA81
:101AE00003049C4234D105684F000326BE40B54331
:101AF000056015794E00B5400668354305601579D7
:101B0000012D02D01579022D16D185684F000326CC
:101B1000BE40B543856055794E00B5408668354373
:101B20008560456801268E40B543456045689679D5
:101B30008E40B6B235434560C5684F000326BE40AF
:101B4000B543C560D5794E00B540C6683543C5601C
:101B5000491C1029BFD3F0BD4FF6FF710160002171
:101B6000017141718171C171704708B54FF48032C4
:101B70000092009A0A430092009AC261C161009AE1
:101B8000C261C2690092C269009208BD024600208B
:101B900013690B400BB1012000E0002070470146A3
:101BA000086980B270470246002053690B400BB1B0
:101BB000012000E0002070470146486980B270476C
:101BC00001837047418370470AB1018300E041837C
:101BD00070474161704742694A4042617047F0B5C1
:101BE000002300244D07ED0E02FA05F3CE1000F19C
:101BF000200555F826504E07F70E0F26BE40B54378
:101C0000CF1000F1200646F82750CE1000F1200535
:101C100055F8265045EA0304CE1000F1200545F89A
:101C20002640F0BD000002400004024000080240CF
:101C3000000C024000100240001402400018024054
:101C4000001C024000200240FA48006840F00100F9
:101C5000F84908600020F74908310860F548006835
:101C6000F5490840F3490860F448091D0860081F59
:101C7000006820F48020091F08600020ED490C3125
:101C8000086070470021EB4A921C117011460870E1
:101C9000704710B501460022002300204A11012A96
:101CA00002D1E44C236808E0022A03D1E14C7034ED
:101CB000236802E0DF4C7434236801F01F02012422
:101CC00094401C400CB1012000E0002010BD38B54C
:101CD000002000900024002500BF3120FFF7D9FF2D
:101CE00005460098401C00900098B0F5A06F01D008
:101CF000002DF2D03120FFF7CCFF08B1012400E025
:101D00000024204638BD01460020CA4A106820F051
:101D1000F80040EAC10010607047C9490860704788
:101D20000021C44A703211701170012802D00428B9
:101D30000AD104E00121BF4A7032117005E005218B
:101D4000BC4A7032117000E000BF00BF7047BD494F
:101D50000860704770B5049C41EA82150126C6EB05
:101D6000530645EA0645054345EA0465B14E361D6E
:101D7000356070BDB24908667047820142EA01725F
:101D8000AC4B84331A607047AD4988667047AC49E4
:101D9000C864704702460020A64B0833186820F03C
:101DA000EC6042EA01031843A24B08331860704705
:101DB000024600209F4B0833186820F0784042EA22
:101DC000010318439B4B08331860704701460020FD
:101DD000984A0832106820F00300084310607047EA
:101DE00094480830006800F00C007047014600205D
:101DF000904A0832106820F0F000084310607047E5
:101E0000014600208B4A0832106820F4E050084355
:101E10001060704701460020864A0832106820F49E
:101E2000604040EAC10010607047F0B50021002218
:101E300000240225002602237E4F08373F6807F062
:101E40000C0121B1042905D0082937D105E07E4FC6
:101E5000076036E07D4F076033E0764F3F1D3F68F7
:101E6000C7F38056734F3F1D3F6807F03F036EB1C5
:101E7000764FB7FBF3F7DFF8BCC10CF1040CDCF8CC
:101E800000C0CCF3881C07FB0CF40CE06E4FB7FBD2
:101E9000F3F7DFF8A0C10CF1040CDCF800C0CCF3C0
:101EA000881C07FB0CF4634F3F1D3F68C7F30147D5
:101EB0007F1C7D00B4FBF5F7076002E0624F07600E
:101EC00000BF00BF5B4F08373F6807F0F00109090A
:101ED0005F4F7A5C0768D7404760564F08373F68C6
:101EE00007F4E051890A5A4F7A5C4768D740876007
:101EF000504F08373F6807F46041490B544F7A5CF4
:101F00004768D740C760F0BD002100F44072B2F5C9
:101F1000407F0AD1474A0832116821F4F8114D4A2E
:101F200002401143434A08321160424A703212683B
:101F3000C0F30B031A433F4B70331A60704741499B
:101F40004439086070473F4940390860704742494A
:101F50000860704739B1374A303212680243354B56
:101F600030331A6006E0334A303212688243314B14
:101F700030331A60704739B12E4A34321268024346
:101F80002C4B34331A6006E02A4A343212688243FA
:101F9000284B34331A60704739B1264A38321268F8
:101FA0000243244B38331A6006E0224A3832126862
:101FB0008243204B38331A60704739B11D4A403292
:101FC000126802431B4B40331A6006E0194A403244
:101FD00012688243174B40331A60704739B1154A73
:101FE000443212680243134B44331A6006E0114A2C
:101FF0004432126882430F4B44331A60704739B140
:102000000C4A1032126802430A4B10331A6006E081
:10201000084A103212688243064B10331A60704728
:10202000E1B1044A143212680243024B14331A60BD
:1020300019E0000000380240FFFFF6FE10300024D7
:1020400000004742800E47420024F40000127A004C
:102050000C000020FFFCFF0F5C0147425B4A126846
:1020600082435A4B1A60704739B1584A121D1268A0
:102070000243564B1B1D1A6006E0544A121D12689B
:102080008243524B1B1D1A60704739B14F4A0C32C4
:10209000126802434D4B0C331A6006E04B4A0C3277
:1020A00012688243494B0C331A60704739B1474A72
:1020B000103212680243454B10331A6006E0434A5F
:1020C000103212688243414B10331A60704739B1A5
:1020D0003E4A3C32126802433C4B3C331A6006E0F5
:1020E0003A4A3C3212688243384B3C331A6070479C
:1020F00039B1364A403212680243344B40331A60D9
:1021000006E0324A403212688243304B40331A6054
:10211000704739B12D4A4432126802432B4B443385
:102120001A6006E0294A443212688243274B44333E
:102130001A60704739B1254A4C3212680243234B6A
:102140004C331A6006E0214A4C32126882431F4B1E
:102150004C331A60704739B11C4A5032126802433E
:102160001A4B50331A6006E0184A50321268824304
:10217000164B50331A60704739B1144AD21F127887
:102180000243124BDB1F1A7006E0104AD21F12786E
:1021900082430E4BDB1F1A7070470C48603000689A
:1021A00040F08070094960310860704701460020A6
:1021B000064A083A12680A400AB1012000E00020ED
:1021C00070470249891F08707047000014380240A8
:1021D00010B50446F748844208D101211020FFF7CA
:1021E00065FF00211020FFF761FF3EE0F2488442C6
:1021F00009D101214804FFF748FF00214FF40030C6
:10220000FFF743FF31E0ED48844209D10121880402
:10221000FFF73BFF00214FF48020FFF736FF24E05B
:10222000E748844209D10121C804FFF72EFF0021AD
:102230004FF40020FFF729FF17E0E248844209D15C
:1022400001210805FFF721FF00214FF48010FFF75F
:102250001CFF0AE0DC48844207D101212020FFF75F
:1022600025FF00212020FFF721FF10BD2DE9FF47AA
:1022700005460E460024A14600BFA046B08900B125
:1022800000BF2C8A24F44054F08804432C82AC898B
:1022900041F20C608443B088318908437189084356
:1022A0000443AC81AC8A24F44074B0890443AC820A
:1022B0006846FFF7BAFDBF48854202D0C248854252
:1022C00002D1DDF80C9001E0DDF80890A88900F457
:1022D000004040B109EBC90000EB0910316849002A
:1022E000B0FBF1F707E009EBC90000EB091031681A
:1022F0008900B0FBF1F76420B7FBF0F0040120097E
:10230000642101FB1078A88900F4004040B132201C
:1023100000EBC800B0FBF1F000F00700044308E058
:10232000322000EB08106421B0FBF1F000F00F0048
:1023300004432C81BDE8FF874FF416510160002152
:102340008180C18001810C21418100218181704700
:1023500010B502460020108A20F470600B884C886B
:1023600023438C882343CC8823431843108210BD19
:102370000021018041808180C180704721B1828924
:1023800042F40052828104E082894DF6FF731A40C4
:1023900082817047028B02F47F420283028B0A43E0
:1023A0000283704721B1828942F40042828103E0B6
:1023B0008289C2F30E028281704721B1828A42F47F
:1023C0000062828204E0828A4FF2FF731A408282A6
:1023D0007047C1F308028280704701468888C0F3C5
:1023E00008007047028A4FF6F0731A400282028A90
:1023F0000A430282704721B1828942F0020282813F
:1024000004E082894FF6FD731A4082817047828909
:102410004FF2FF731A40828182890A43828170479A
:10242000028A4FF6DF731A400282028A0A4302824E
:10243000704721B1028A42F48042028204E0028A9B
:102440004BF6FF731A4002827047818941F0010107
:102450008181704721B1828A42F00802828204E0C1
:10246000828A4FF6F7731A4082827047028BD2B28B
:102470000283028B42EA01220283704721B1828AE1
:1024800042F02002828204E0828A4FF6DF731A4013
:102490008282704721B1828A42F01002828204E077
:1024A000828A4FF6EF731A4082827047828A4FF613
:1024B000FB731A408282828A0A438282704721B16A
:1024C000828A42F00202828204E0828A4FF6FD7321
:1024D0001A40828270471AB1838A0B43838202E0DA
:1024E000838A8B4383827047F0B50346002400261D
:1024F0000025002040F66A17B94200D100BF1846F7
:10250000C1F3421401F01F06012707FA06F5012C5A
:1025100001D10C3004E0022C01D1103000E0143065
:102520001AB107682F43076002E00768AF430760EE
:10253000F0BD02460020B1F5007F00D100BF138836
:102540000B400BB1012000E00020704701F4007245
:10255000B2F5007F00D100BFCA430280704770B55A
:102560000246002400230025002040F66A16B142EE
:1025700000D100BFC1F3421501F01F03012606FA86
:1025800003F3012D02D19689334006E0022D02D1DA
:10259000168A334001E0968A33400C12012606FA6F
:1025A00004F41688344013B10CB1012000E000207F
:1025B00070BD000000100140004400400048004091
:1025C000004C0040005000400014014010B50022B3
:1025D000002340F66A14A14200D100BF0A12012470
:1025E0009440A3B2DC43048010BD00000CB5002071
:1025F000019000907648006840F48030744908608B
:1026000000BF7348006800F4003000900198401C3F
:102610000190009818B90198B0F5A04FF1D16C481D
:10262000006800F4003010B10120009001E00020AB
:1026300000900098012846D165484030006840F07D
:1026400080506349403108606248006840F440406F
:10265000604908605E48083000685D4908310860DC
:102660000846006840F4004008600846006840F4EE
:10267000A05008605848091F0860081F006840F013
:102680008070091F086000BF5148006800F00070AA
:102690000028F9D040F20560504908604C480830E5
:1026A000006820F003004A490831086008460068C5
:1026B00040F00200086000BF45480830006800F0A4
:1026C0000C000828F8D10CBD10B54548006840F44E
:1026D0007000434908603E48006840F001003C49F2
:1026E000086000203A4908310860394800683D49CF
:1026F0000840374908603C48091D0860081F006809
:1027000020F48020091F0860002031490C31086046
:10271000FFF76CFF4FF0006031498039086010BD51
:1027200070B500200022022300240221284D083524
:102730002D6805F00C0020B1042806D0082834D1FB
:1027400007E02A4D2A4E356033E02A4D284E356089
:102750002FE01F4D2D1D2D68C5F380541C4D2D1DE0
:102760002D6805F03F0154B1224DB5FBF1F5184E2F
:10277000361D3668C6F3881605FB06F209E01B4DC8
:10278000B5FBF1F5124E361D3668C6F3881605FB0B
:1027900006F20F4D2D1D2D68C5F301456D1C6B0014
:1027A000B2FBF3F5124E356003E0104D104E35606C
:1027B00000BF00BF064D08352D68C5F303150E4E4A
:1027C000705D0B4D2D68C540094E356070BD000031
:1027D000003802400070004008544007003C0240AE
:1027E00088ED00E0FFFFF6FE103000240024F40026
:1027F0001C00002000127A0020000020704700001A
:102800000FB4044910B503AA029800F009F810BCEF
:102810005DF814FB04000020704770477047704754
:10282000074B70B50D467B4400F011F8044628466E
:1028300000F020F810B14FF0FF3070BD204670BDA1
:10284000C7E0FFFF01694A1C02610878704700B5C4
:102850008FB0CDE901310021059105497944CDE9D9
:1028600003101146684600F02EF80FB000BD0000BE
:10287000E5FFFFFF007B00F080007047754600F029
:102880003FF8AE4605006946534620F007008546EE
:1028900018B020B5FEF75CF9BDE820404FF0000607
:1028A0004FF000074FF000084FF0000B21F0070138
:1028B000AC46ACE8C009ACE8C009ACE8C009ACE87B
:1028C000C0098D4670472DE9F04106460024D6E93F
:1028D0000170F5688046304603E04146B847641C05
:1028E0003046A8470028F8D12046BDE8F08110B551
:1028F0000446AFF300802046BDE81040FDF78DBCD4
:1029000000487047580000204FF04070E1EE100A78
:10291000704700003429000800000020300000004B
:10292000C401000864290008300000208806000067
:10293000E0010008010000000000000000000000AD
:102940000000000001020304010203040607080955
:10295000007A030A000000000000000001020304E6
:042960000607080955
:040000050800018965
:00000001FF
