:020000040800F2
:10000000380E00200D37000845020008470200089E
:100010004B0200084F0200085302000800000000D5
:10002000000000000000000000000000570200086F
:1000300059020008000000005B0200085D02000891
:100040002737000827370008273700082737000818
:100050002737000827370008273700082737000808
:1000600027370008273700082737000827370008F8
:100070002737000827370008273700087B180008B3
:10008000273700082737000827370008DF0C00084B
:10009000F50C000827370008273700082737000825
:1000A00027370008273700082737000827370008B8
:1000B00027370008273700082737000827370008A8
:1000C0002737000827370008273700082737000898
:1000D00027370008B70F00088F1100088D1300089C
:1000E0002737000827370008273700082737000878
:1000F0002737000827370008273700082737000868
:100100002737000827370008273700082737000857
:100110000D180008DF1500082737000827370008EA
:100120002737000827370008273700082737000837
:100130002737000827370008273700082B0E00084C
:10014000410E000827370008273700082737000826
:10015000273700082737000827370008051A000846
:1001600027370008273700082737000827370008F7
:1001700027370008273700082737000827370008E7
:10018000273700082737000800F002F800F03CF895
:100190000AA090E8000C82448344AAF10107DA45E2
:1001A00001D100F031F8AFF2090EBAE80F0013F0F8
:1001B000010F18BFFB1A43F0010318470037000076
:1001C00020370000103A24BF78C878C1FAD8520707
:1001D00024BF30C830C144BF04680C6070470000C1
:1001E0000023002400250026103A28BF78C1FBD840
:1001F000520728BF30C148BF0B6070471FB503F0DE
:1002000058FB1FBD10B510BD03F025FB1146FFF7CD
:10021000F5FF00F009F803F043FB03B4FFF7F2FF2A
:1002200003BC03F00DFB000000F022F906E01021F2
:10023000034803F05BF90A2001F054FCF7E70000E3
:1002400000480040704700BFFEE700BFFEE700BF68
:10025000FEE700BFFEE77047704770477047000039
:100260000CB50020019000907648006840F4803082
:100270007449086000BF7348006800F400300090C3
:100280000198401C0190009818B90198B0F5A04F52
:10029000F1D16C48006800F4003010B101200090EA
:1002A00001E0002000900098012846D165484030C8
:1002B000006840F08050634940310860624800683F
:1002C00040F44040604908605E48083000685D497D
:1002D000083108600846006840F40040086008469D
:1002E000006840F4A05008605848091F0860081FC3
:1002F000006840F08070091F086000BF5148006826
:1003000000F000700028F9D040F2057050490860F4
:100310004C480830006820F003004A490831086062
:100320000846006840F00200086000BF45480830F9
:10033000006800F00C000828F8D10CBD10B5454845
:10034000006840F47000434908603E48006840F08F
:1003500001003C49086000203A49083108603948EA
:1003600000683D490840374908603C48091D08605D
:10037000081F006820F48020091F08600020314910
:100380000C310860FFF76CFF4FF000603149803995
:10039000086010BD70B50020002202230024022155
:1003A000284D08352D6805F00C0020B1042806D032
:1003B000082834D107E02A4D2A4E356033E02A4D13
:1003C000284E35602FE01F4D2D1D2D68C5F380543C
:1003D0001C4D2D1D2D6805F03F0154B1224DB5FB7C
:1003E000F1F5184E361D3668C6F3881605FB06F281
:1003F00009E01B4DB5FBF1F5124E361D3668C6F30C
:10040000881605FB06F20F4D2D1D2D68C5F301451D
:100410006D1C6B00B2FBF3F5124E356003E0104D1E
:10042000104E356000BF00BF064D08352D68C5F37E
:1004300003150E4E705D0B4D2D68C540094E35609D
:1004400070BD0000003802400070004008544007B2
:10045000003C024088ED00E0FFFFF6FE1030002473
:100460000024F4000000002000127A0004000020A4
:1004700010B54FF4A06001F06BFB4FF4E13000F0D9
:1004800005FD4FF4E13000F0EDFD4FF4612000F088
:10049000DAFE4FF4E13001F0CCF84FF4E13000F037
:1004A0009FFF002303220821104600F0A5FB002334
:1004B00003220821104600F036FC10BDFE490968F1
:1004C000491CFD4A11600168012900D100E000BF0C
:1004D00000BF7047F9490968491CF84A1160016872
:1004E000012900D100E000BF00BF70472DE9F041B5
:1004F00086B080460C4615461E460C9F40F2FF1003
:10050000019000208DF80C008DF80D0008208DF86A
:100510000E00200A8DF80F008DF81040290A8DF882
:1005200011108DF81250310A8DF813108DF81460E7
:10053000390A8DF815108DF8167001A9404601F0A2
:1005400009FD06B0BDE8F0812DE9F04186B0804696
:100550000C4615461E460C9F40F2FF2001900020DD
:100560008DF80C008DF80D0008208DF80E00200A83
:100570008DF80F008DF81040290A8DF811108DF8B4
:100580001250310A8DF813108DF81460390A8DF865
:1005900015108DF8167001A9404601F0DBFC06B07D
:1005A000BDE8F0812DE9F04186B080460C46154645
:1005B0001E460C9F4FF40070019000208DF80C0037
:1005C0008DF80D0008208DF80E00200A8DF80F0020
:1005D0008DF81040290A8DF811108DF81250310A4B
:1005E0008DF813108DF81460390A8DF815108DF8F8
:1005F000167001A9404601F0ADFC06B0BDE8F081DF
:100600002DE9F04186B080460C4615461E460C9FEB
:1006100040F2FF10019000208DF80C008DF80D00C5
:1006200008208DF80E00200A8DF80F008DF810407C
:10063000290A8DF811108DF81250310A8DF8131017
:100640008DF81460390A8DF815108DF8167001A90F
:10065000404601F07FFC06B0BDE8F08170B586B081
:1006600006460C461546019508208DF80E00002020
:100670008DF80C008DF80D008DF80F4000218DF8DD
:1006800010108DF811108DF812108DF813108DF8D0
:1006900014108DF815108DF8161001A9304601F0D0
:1006A00059FC06B070BD30B52DED068B85B0054602
:1006B000B0EE408AF0EE608AB0EE419AF0EE619AB8
:1006C000B0EE42AAF0EE62AA0C46009408208DF823
:1006D0000A0000208DF808008DF8090032208DF8FE
:1006E0000B0000218DF80C10BCEEC80A10EE100AA9
:1006F000C1B28DF80D10BCEEE80A10EE100AC1B2BE
:100700008DF80E10BCEEC90A10EE100AC1B28DF8B9
:100710000F10BCEEE90A10EE100AC1B28DF81010ED
:10072000BCEECA0A10EE100AC1B28DF81110BCEE70
:10073000EA0A10EE100AC1B28DF812106946284676
:1007400001F008FC05B0BDEC068B30BDF0B585B0FE
:1007500007460D4614461E46009608208DF80A00EE
:1007600000208DF808008DF80900A4208DF80B00FA
:1007700000218DF80C10E9B28DF80D10290A8DF8C2
:100780000E10E1B28DF80F10210A8DF81010210C17
:100790008DF81110210E8DF812106946384601F0BF
:1007A000D9FB05B0F0BD70B586B006460C461546BF
:1007B000019508208DF80E0000208DF80C008DF8B2
:1007C0000D00A2208DF80F0000218DF810108DF87B
:1007D00011108DF812108DF81340210A8DF81410A5
:1007E000210C8DF81510210E8DF8161001A9304638
:1007F00001F0B0FB06B070BD70B586B006460C4681
:100800001546019508208DF80E0000208DF80C008B
:100810008DF80D00A1208DF80F0000218DF810102B
:100820008DF811108DF812108DF81340210A8DF8F3
:10083000141000218DF815108DF8161001A93046FE
:1008400001F088FB06B070BD70B586B006460C4658
:100850001546019500208DF80C008DF80D0008203C
:100860008DF80E0020128DF80F008DF81040002139
:100870008DF811108DF812108DF813108DF81410DA
:100880008DF815108DF8161001A9304601F062FBA5
:1008900006B070BD30B585B005460C46009400200A
:1008A0008DF8080002208DF8090006208DF80A0056
:1008B00000208DF80B0003E0140000201800002039
:1008C00000218DF80C108DF80D108DF80E108DF89C
:1008D0000F108DF810106946284601F03BFB05B05B
:1008E00030BD10B504464FF4C2612046FFF7D2FF79
:1008F00040F211612046FFF7CDFF40F21261204621
:10090000FFF7C8FF40F213612046FFF7C3FF10BD99
:1009100070B505460C464FF4C06202212846FFF729
:1009200093FF04EBC40000EB04104FF6FF7202EAE1
:10093000800140F201622846FFF786FF40F2026222
:1009400040F6C4112846FFF77FFF40F203624FF4E0
:100950002F712846FFF778FF70BD30B585B005468A
:100960000C4644F40070009000208DF808008DF8CB
:1009700009008DF80A006946284601F0EBFA05B037
:1009800030BD30B585B005460C4644F40470009087
:1009900000208DF808008DF809008DF80A006946DE
:1009A000284601F0D7FA05B030BD30B585B0054610
:1009B0000C4600208DF808008DF809008DF80A001B
:1009C00044F4806000906946284601F0C3FA05B0FF
:1009D00030BD30B585B005460C4644F482600090C9
:1009E00000208DF808008DF809008DF80A0069468E
:1009F000284601F0AFFA05B030BD30B585B00546E8
:100A00000C4644F4A060009000208DF808008DF89A
:100A100009008DF80A006946284601F09BFA05B0E6
:100A200030BD30B585B005460C4644F4A260009058
:100A300000208DF808008DF809008DF80A0069463D
:100A4000284601F087FA05B030BD30B585B00546BF
:100A50000C4644F4A460009000208DF808008DF846
:100A600009008DF80A006946284601F073FA05B0BE
:100A700030BDF0B585B006460D46144645F4A66077
:100A8000009000208DF808008DF8090002208DF8F4
:100A90000A00E0B28DF80B00210A8DF80C106946AF
:100AA000304601F057FA07463946304601F0EAFA77
:100AB00005B0F0BDF0B585B006460D46144645F4C8
:100AC000A860009000208DF808008DF80900022031
:100AD0008DF80A00E0B28DF80B00210A8DF80C1099
:100AE0006946304601F036FA07463946304601F08D
:100AF000C9FA05B0F0BD2DE9F04186B007460D46B4
:100B0000164645F4AA60019000208DF80C008DF87F
:100B10000D0004208DF80E00B0034FF4B471B0FB4B
:100B2000F1F4E0B28DF80F00210A8DF81010210CBD
:100B30008DF81110210E8DF8121001A9384601F020
:100B400009FA80464146384601F09CFA06B0BDE8F5
:100B5000F0812DE9F04186B007460D46164645F472
:100B6000AC60019000208DF80C008DF80D00042081
:100B70008DF80E00B0034FF4B471B0FBF1F4E0B2A5
:100B80008DF80F00210A8DF81010210C8DF811102E
:100B9000210E8DF8121001A9384601F0DBF98046CC
:100BA0004146384601F06EFA06B0BDE8F0812DE905
:100BB000F04186B007460C4615461E4644F4AE602A
:100BC000019000208DF80C008DF80D0003208DF8A9
:100BD0000E00F0B28DF80F009DF81000058001A9FD
:100BE000384601F0B7F980464146384601F04AFAE6
:100BF00006B0BDE8F0810000F0B58BB004460D46AC
:100C000016461F460121084602F002FA0121480655
:100C100002F047FA09220B21964801F0E6FF09226B
:100C20000C21944801F0E1FF4FF4C05009900220DC
:100C30008DF8280009A98F4801F04CFF14208DF889
:100C4000040003208DF8050001208DF806008DF8C2
:100C5000070001A800F081FF874800F0E9FF06A81F
:100C600001F00AF900208DF81E0001208DF81F0008
:100C700000208DF820008DF821008DF822008DF8DD
:100C800023008DF81A708DF81B008DF81C508DF81C
:100C90001D40ADF8186006A9774800F0E2FF00207B
:100CA0008DF812008DF8130001208DF8140000203B
:100CB000ADF80800ADF80A00ADF80C00ADF80E0074
:100CC000ADF8100001208DF8150002A801F053F8CE
:100CD00001220221684801F04DFB0BB0F0BD10B5B8
:100CE0000121654801F0AEFB18B10121624801F015
:100CF00044FC10BD00B585B002215F4801F0A2FBA5
:100D000078B104215C4801F038FC5C495A4801F094
:100D100076FB6A460021584801F011FA6846FFF751
:100D2000CDFB05B000BDF0B58BB004460D461646B0
:100D30001F460121022002F06BF90121880602F012
:100D4000B0F909220C214E4801F04FFF09220D2174
:100D50004B4801F04AFF4FF44050029002208DF8BA
:100D60000C0002A9464801F0B5FE40208DF80400B1
:100D700003208DF805008DF8060001208DF807008E
:100D800001A800F0EAFE3F208DF8040003208DF852
:100D900005008DF8060001208DF8070001A800F07D
:100DA000DCFE384800F044FF08A801F065F8002098
:100DB0008DF8260001208DF8270000208DF82800EE
:100DC0008DF829008DF82A008DF82B008DF822006F
:100DD0008DF823008DF824508DF82540ADF8206063
:100DE00008A9284800F03DFF0E208DF81A000020C9
:100DF0008DF81B0001208DF81C000020ADF81000BC
:100E0000ADF81200ADF81400ADF81600ADF81800FA
:100E100001208DF81D0004A800F0ADFF0122022181
:100E2000184801F0A7FA0BB0F0BD10B50121154824
:100E300001F008FB18B10121124801F09EFB10BD22
:100E400000B585B010480068401C0F4908600221B9
:100E50000C4801F0F7FA50B102210A4801F08DFB6D
:100E60006A460021074801F06AF900BF00BF05B0DB
:100E700000BD000000000240006400400800003295
:100E800000040240006800402000002010B596B029
:100E900004460121022002F0BBF80121880502F07E
:100EA000B7F80121102002F00DF907221146FE4883
:100EB00001F09BFE14A801F055FE80201490022042
:100EC0008DF8540000208DF8550001208DF8570052
:100ED00014A9F54801F0FEFDF44802F0EDF910A860
:100EE00002F0B7FA10940020ADF84400ADF84600C7
:100EF0004FF48060ADF848000420ADF84A000020AF
:100F0000ADF84C0010A9E94802F03DFA0122402159
:100F1000E64802F06DFBE64801F082FB684601F00E
:100F20004AFC4FF000600090E048001D0190E1484D
:100F300002900020039040200490002005904FF480
:100F4000806006900020079008904FF48070099010
:100F500000020A9000200B900C900D900E906946B4
:100F6000D34801F0FFFB0022D2494031D04801F0C4
:100F70005AFC0121CE4801F062FC0121CC4801F06D
:100F80002BFC25208DF83C0000208DF83D008DF8CD
:100F90003E0001208DF83F000FA800F0DEFD012289
:100FA00040F22441C14802F02CFB0121BF4802F06D
:100FB00072FA16B010BD10B540F22441BB4802F0E1
:100FC0005BFB00284DD0B9480088B8488088B848F5
:100FD00001F045FC10BB0021B54801F0FDFBB6490E
:100FE000B34801F072FCB24801F019FCC0F14000B6
:100FF000B24908604020AE49091D0860081F00681A
:1010000040F40020091F08600121A94801F0E4FB19
:10101000AA480068122824D100BF22E00021A44879
:1010200001F0DAFBA449A24801F04FFCA04801F00E
:10103000F6FBC0F14000A149086040209C49091D11
:101040000860081F006820F40020091F08600121C3
:10105000974801F0C1FB99480068122801D100BFF0
:1010600000BF10BD10B596B004460121084601F03E
:10107000CFFF0121480501F0CBFF0121480402F018
:1010800010F8072202218E4801F0AFFD14A801F0EC
:1010900069FD0420149002208DF8540000208DF882
:1010A000550001208DF8570014A9854801F012FD64
:1010B000844802F001F910A802F0CBF91094002046
:1010C000ADF84400ADF846004FF48060ADF848003C
:1010D0000420ADF84A000020ADF84C0010A9794872
:1010E00002F051F901224021704802F081FA76485D
:1010F00001F096FA684601F05EFB4FF00060009048
:101100007048001D019071480290002003906420F7
:101110000490002005904FF4806006900020079016
:1011200008904FF48070099000020A9000200B9004
:101130000C900D900E906946634801F013FB00225D
:1011400062496431604801F06EFB01215E4801F0A4
:1011500076FB01215C4801F03FFB26208DF83C0026
:1011600000208DF83D008DF83E0001208DF83F00F5
:101170000FA800F0F2FC012240F22441514802F095
:1011800040FA01214F4802F086F916B010BD10B5A3
:1011900040F224414B4802F06FFA002852D04948EF
:1011A00000884848001D0088414801F058FB20BBDA
:1011B0000021454801F010FB4549434801F085FBFB
:1011C000414801F02CFBC0F16400424908606420F2
:1011D0003D49091D08603C488838D0F8880040F433
:1011E0000020091F08600121374801F0F5FA39484D
:1011F0000068122826D100BF24E00021324801F007
:10120000EBFA3349304801F060FB2F4801F007FB4F
:10121000C0F164002F49086064202B49091D086053
:1012200029488838D0F8880020F40020091F086079
:101230000121254801F0D0FA26480068122801D182
:1012400000BF00BF10BD10B596B0044601210220BA
:1012500001F0DEFE0121880401F023FF0121480591
:1012600001F0D6FE07220A210F4801F0BEFC07223A
:101270000B210D4801F0B9FC02208DF84400032039
:101280008DF8450000208DF8460001208DF84700BC
:101290008002109010A9044801F01CFC4FF400607B
:1012A000109010A9004817E000040240001001400F
:1012B000406402404C000020000030102C00002050
:1012C0000000024000440040886002400C01002001
:1012D000000C00203000002001F0FCFB27208DF8DE
:1012E000000002208DF8010001208DF802008DF829
:1012F0000300684600F031FC12940020ADF84C0069
:10130000ADF84E00ADF85000ADF854000C20ADF82B
:10131000520012A9FE4802F036F8012240F22441A0
:10132000FB4802F06EF95021F94802F09CF9642064
:10133000059000200C900D900E9009904FF4806065
:10134000079080100A90F248001D029000200F9034
:10135000089006904FF400300B908002019000201E
:101360000490EC48039001A9EB4801F0FBF901213E
:10137000E94801F031FA01224021E54802F038F94C
:101380000121E34802F087F816B010BD10B540F215
:101390002441DF4802F070F908B3DD4802F0AAF8F2
:1013A00040F22441DA4802F0A2F90021DA4801F0C3
:1013B00013FA00224021D64802F01AF94C22D549EE
:1013C000891DD64802F0C2F900BF00BF01224021AA
:1013D000CF4802F00DF90121CF4801F0FDF910BD11
:1013E00010B596B004460121042001F011FE012140
:1013F000082001F00DFE0121080501F052FE012137
:10140000480501F005FE02208DF8540000208DF8FB
:1014100056004FF48050149001208DF8570003209F
:101420008DF8550014A9BE4801F054FB02208DF838
:10143000540000208DF856000420149001208DF8EF
:10144000570003208DF8550014A9B64801F042FB5F
:1014500008220C21B24801F0C8FB08220221B14841
:1014600001F0C3FB10940020ADF84C000C20ADF847
:101470004A000020ADF84800ADF84600ADF8440041
:1014800010A9A94801F07FFF0121A74802F003F845
:1014900001224021A44802F0ABF8684601F08BF924
:1014A000A2480290642004904FF0006000909E4893
:1014B000001D01900020039005904FF4806006907D
:1014C00000200890079009904FF480300A90002087
:1014D0000B900C900D900E9069468F48183801F0D3
:1014E00041F901218C48183801F076F935208DF842
:1014F0003C0001208DF83F008DF83D0002208DF862
:101500003E000FA800F029FB012240F2244186484A
:1015100002F077F80121844801F0BDFF012280210B
:10152000814802F065F800217B48903001F054F9C1
:101530007948903001F074F800BF7748903001F09E
:1015400098F90028F9D14FF0006000907648001D0E
:1015500001907748029040200390422004900020A0
:1015600005904FF480600690002007900890099045
:101570000A900B9003200C9000200D900E9069466D
:101580006548903001F0EEF801216348903001F099
:1015900023F92F208DF83C0002208DF83D0001201A
:1015A0008DF83E008DF83F000FA800F0D6FA16B077
:1015B00010BD70B504460D460021204601F00CF91F
:1015C00000BF204601F055F90028FAD129462046EF
:1015D00001F023F90121204601F0FEF870BD10B59D
:1015E00040F22441504802F047F808B34E480088C2
:1015F0004D48808800214848183801F0EDF84D49E1
:101600004548183801F061F94348183801F007F9E6
:10161000C0F164004849086064213F48183801F06F
:10162000FCF801213C48183801F0D6F800BF00BF93
:1016300010BD10B596B004460121042001F0E8FC6D
:101640000121C80401F02DFD08220A21344801F0CF
:10165000CCFA08220B21324801F0C7FA01214805D3
:1016600001F0D6FC4FF44060109002208DF8440049
:1016700000208DF8460003208DF8450001208DF8EC
:10168000470010A9264801F025FA12940020ADF871
:101690004C00ADF84E00ADF850000C20ADF85200F3
:1016A0000020ADF8540012A9244801F06CFE01227C
:1016B0004021224801F09CFF1748183000F0B0FF8D
:1016C000684601F078F84FF0006000901B48001D5C
:1016D00001901B4802900020039064200490002099
:1016E00005904FF4806006900020079008900990C4
:1016F0004FF480300A9000200B900C900D900E90CB
:1017000069460548183001F02DF80121024819E01A
:101710000048004038020020286002409C0200205F
:1017200000080240000C0240005000404806002023
:10173000A40500203000001034000020004C0040C0
:10174000E8020020183001F047F834208DF83C0002
:1017500003208DF83D008DF83E0001208DF83F00FC
:101760000FA800F0FAF901228021D24801F040FFD1
:101770000021D14801F030F8CF4800F051FF00BF00
:10178000CD4801F076F80028FAD14FF000600090C3
:10179000C848001D0190C9480290402003900020D5
:1017A000049005904FF48060069000200790089008
:1017B00009904FF480300A9000200B9003200C9089
:1017C00000200D900E906946BB4800F0CBFF0F2023
:1017D0008DF83C0003208DF83D008DF83E0001207F
:1017E0008DF83F000FA800F0B8F901221021B2488F
:1017F00001F07FF8012240F22441AE4801F001FFE0
:101800000121AC4801F047FE16B010BD10B5002410
:1018100040F22441A74801F02FFF08B3A5480088F3
:10182000A448001D00880021A348303800F0D4FFF0
:10183000A349A148303801F048F89F48303800F0FB
:10184000EEFFC0F16400C4B200BF00BF64219A483B
:10185000303800F0E2FF01219748303800F0BCFF3B
:1018600010BD70B504460D462946204600F0D5FF50
:101870000121204600F0B0FF70BD10B591498E489F
:1018800001F007F838B100218B4800F0A5FF8D4921
:10189000894801F01AF810BD70B504460025874D3F
:1018A00005F8014B01218448FFF7DBFF70BD2DE9EE
:1018B000F04105460E4600240027804F00BF03E09C
:1018C000285D3855601C84B2B442F9DB31467A4851
:1018D000FFF7C7FFBDE8F08110B596B004460121BF
:1018E000042001F095FB0121480501F091FB012145
:1018F000202001F0E7FB07220221734801F075F96F
:1019000014A801F02FF94020149002208DF8540003
:1019100000208DF8550001208DF8570014A96B4860
:1019200001F0D8F86A4801F0C7FC10A801F091FD59
:1019300010940020ADF84400ADF846004FF48060EC
:10194000ADF848000420ADF84A000020ADF84C0086
:1019500010A95F4801F017FD012240215C4801F009
:1019600047FE5C4800F05CFE684600F024FF4FF044
:10197000006000905648001D0190574802900020DA
:10198000039064200490002005904FF4806006903E
:101990000020079008904FF48070099000020A9090
:1019A00000200B900C900D900E906946494800F075
:1019B000D9FE002248496431464800F034FF012135
:1019C0003D48183000F03BFF0121424800F004FF81
:1019D00047208DF83C0000208DF83D008DF83E003A
:1019E00001208DF83F000FA800F0B7F8012240F267
:1019F0002441374801F005FE0121354801F04BFD37
:101A000016B010BD10B540F22441314801F034FE4B
:101A100000284ED02E4800882D48001D00882D48F3
:101A200000F01DFF10BB00212A4800F0D5FE2B4915
:101A3000284800F04AFF274800F0F1FEC0F164009A
:101A40002749086064202349091D0860081F0068B1
:101A500040F40020091F086001211E4800F0BCFE70
:101A60001F480068122824D100BF22E00021194835
:101A700000F0B2FE1949174800F027FF154800F0A2
:101A8000CEFEC0F164001649086064201149091DAA
:101A90000860081F006820F40020091F0860012169
:101AA0000C4800F099FE0E480068122801D100BFD2
:101AB00000BF10BD004C0040706002404C0300208D
:101AC000000030102000002000000240000802400A
:101AD0000014014028640240AC060020000C0010F5
:101AE0003800002010B5002107E04AF2104200BF84
:101AF000131EA2F10102FBD1491C8142F5D310BD96
:101B000010B5002106E0282200BF131EA2F1010239
:101B1000FBD1491C8142F6D310BD10B5002107E06E
:101B20004AF2104200BF131EA2F10102FBD1491C70
:101B30008142F5D310BD10B5002106E0282200BF78
:101B4000131EA2F10102FBD1491C8142F6D310BD44
:101B500032490143324A1160704770B500210023B9
:101B60000F22C4781CB32E4C246804F4E064C4F53E
:101B7000E064C4F30721C1F10404E3B20A414478EC
:101B80009C40E1B28478144021430C07210E254C7F
:101B900005786155047804F01F050124AC400578F0
:101BA0006D11AD0005F1E025C5F8004109E00478AC
:101BB00004F01F050124AC401B4D0678761145F852
:101BC000264070BD194A0A400243154B1B1F1A607C
:101BD000704739B1124A121D12680243104B1B1D87
:101BE0001A6006E00E4A121D126882430C4B1B1D40
:101BF0001A607047042808D14FF0E021096941F0CC
:101C000004014FF0E022116107E04FF0E021096983
:101C100021F004014FF0E022116170470000FA0545
:101C20000CED00E000E400E080E100E080FFFF1F39
:101C300010B50446FE48844209D10121480601F04E
:101C400085FA00214FF0007001F080FA08E00121D0
:101C5000880601F07BFA00214FF0806001F076FAEF
:101C600010BD30B5024600200023146824F00204A1
:101C70001460146844F00104146000E05B1C5468B4
:101C800004F001041CB94FF6FF74A342F6D1546866
:101C900004F001040CB900206CE08C79012C04D113
:101CA000146844F08004146003E0146824F0800495
:101CB0001460CC79012C04D1146844F04004146001
:101CC00003E0146824F0400414600C7A012C04D161
:101CD000146844F02004146003E0146824F0200425
:101CE00014604C7A012C04D1146844F01004146080
:101CF00003E0146824F0100414608C7A012C04D1E1
:101D0000146844F00804146003E0146824F0080424
:101D10001460CC7A012C04D1146844F004041460DB
:101D200003E0146824F0040414608C78A407CD78D0
:101D300044EA05640D7944EA05444D7944EA0554C2
:101D40000D886D1E2C43D461146824F001041460C6
:101D5000002300E05B1C546804F001041CB14FF642
:101D6000FF74A342F6D1546804F001040CB10020C2
:101D700000E0012030BD10B50021837A012202FA73
:101D800003F1AC4A126842F00102AA4B1A60A94A58
:101D90001C3212688A43A74B1C331A60027BCAB9F3
:101DA000A44A0C3212688A43A24B0C331A60428850
:101DB000C38842EA03439F4A4032847A42F834306F
:101DC0000288838842EA03439A4A4032847A02EBCB
:101DD000C4025360027B012A19D1964A0C32126860
:101DE0000A43944B0C331A604288038842EA034347
:101DF000904A4032847A42F83430C288838842EA7A
:101E000003438C4A4032847A02EBC4025360C27AA4
:101E10003AB9884A121D12688A43864B1B1D1A6004
:101E200006E0844A121D12680A43824B1B1D1A6089
:101E3000028932B97F4A143212688A437D4B1433C7
:101E40001A600289012A06D17A4A143212680A43BA
:101E5000784B14331A60427B012A06D1754A1C3232
:101E600012680A43734B1C331A60724A126822F0DC
:101E70000102704B1A6010BD00218171C1710172A5
:101E800041728172C1728170C1700321017102219E
:101E900041710121018070476649096841F00101E3
:101EA000644A11601146096843F60E729143614A13
:101EB00011601146096841EA002111601146096864
:101EC00021F001011160704721B1026842F48032B3
:101ED000026003E0026822F4803202607047E1B1E0
:101EE000026842F0800202604FF4C272125842F45B
:101EF00080734FF4C27213504FF4CA72125842F4F6
:101F000080734FF4CA7213504FF4D272125842F4D5
:101F100080734FF4D27213501BE0026822F08002EB
:101F200002604FF4C272125822F480734FF4C272EE
:101F300013504FF4CA72125822F480734FF4CA72CD
:101F400013504FF4D272125822F480734FF4D272AD
:101F50001350704710B502460020936803F0806369
:101F6000B3F1806F00D110E0936803F00063B3F128
:101F7000006F01D1012008E0936803F08053B3F1B2
:101F8000805F01D1022000E00420042879D002F50E
:101F9000C07303EB00131B6803F0010402F5C07368
:101FA00003EB00131C600B7A7BB94B7A0C8843EA75
:101FB000445302F5C07404EB00142468234302F573
:101FC000C07404EB0014236010E00B7A4C6843EA01
:101FD000C4034C7A234302F5C07404EB0014246854
:101FE000234302F5C07404EB001423608B7A03F0E2
:101FF0000F038B7202F5C07303EB00135B6823F0D1
:102000000F0402F5C07303EB00135C6002F5C073AC
:1020100003EB00135B688C7A234302F5C07404EB76
:10202000001463608B7B1C064B7B44EA034403E093
:1020300000640040006600400B7B44EA0323CC7A36
:10204000234302F5C07404EB0014A3608B7C1C06D0
:102050004B7C44EA03440B7C44EA0323CC7B2343BC
:1020600002F5C07404EB0014E36002F5C07303EBE7
:1020700000131B6843F0010402F5C07303EB001367
:102080001C6010BD10B50246002321B1012907D004
:1020900002290FD109E09068F94C00EA04030BE033
:1020A0009068F84C00EA040306E09068F64C00EAF9
:1020B000040301E0002300BF00BFF44C181BA3423F
:1020C00016D007DC83B16FF08060184470B102282D
:1020D00018D111E0B0F5007F10D0ED4C204448B18C
:1020E000B0F5003F0ED10BE002230DE000230BE022
:1020F000002309E0002307E0012305E0012303E0BA
:10210000012301E0002300BF00BFD8B210BD21B100
:10211000012907D002290FD109E0826842F080022C
:1021200082600AE0826842F40042826005E08268D0
:1021300042F40002826000E000BF00BF704710B5AB
:1021400000F5D87303EB01131B6803F0040313724B
:10215000137A53B900F5D87303EB01131B6840F2EF
:10216000FF7404EA5353136009E000F5D87303EBDE
:1021700001131B686FF0604404EAD303536000F559
:10218000D87303EB01131B6803F00203537200F5CD
:10219000D87303EB01135B6803F00F03937200F530
:1021A000D87303EB01135B681B0AD37400F5D87373
:1021B00003EB01139B68D37200F5D87303EB011393
:1021C0009B681C0A147300F5D87303EB01139B681A
:1021D0001C0C547300F5D87303EB01139B681B0EA2
:1021E000937300F5D87303EB0113DB68D37300F529
:1021F000D87303EB0113DB681C0A147400F5D87361
:1022000003EB0113DB681C0C547400F5D87303EB6B
:102210000113DB681B0E937421B9C36843F02003DC
:10222000C36003E0036943F02003036110BD21B9DB
:10223000C26842F02002C26003E0026942F020025C
:10224000026170470246002019B9D36803F0030009
:1022500006E0012903D1136903F0030000E0002028
:10226000704710B502460B4600204FF6FF71BBB910
:10227000146824F0020444F00104146000E0491ED4
:10228000546804F00304012C01D00029F7D15468EC
:1022900004F00304012C01D0002032E0012030E0E2
:1022A000012B13D1146824F00304146000E0491ECC
:1022B000546804F003040CB10029F8D1546804F008
:1022C00003040CB100201CE001201AE0022B17D1FE
:1022D000146824F0010444F00204146000E0491E74
:1022E000546804F00304022C01D00029F7D154688B
:1022F00004F00304022C01D0002002E0012000E0E1
:10230000002010BD014600200A6822F0010242F0C0
:1023100002020A604A6802F00302022A00D1012088
:10232000704701464FF6FF7200200B6823F002034E
:102330000B6000E0521E4B6803F00203022B01D138
:10234000002AF7D14B6803F00203022B00D00120D2
:102350007047014600208A6902F07000704701460C
:1023600000208A69100E7047014600208A69C2F376
:10237000074070471AB143690B43436102E0436968
:102380008B434361704710B50246002001F470038F
:1023900043B19369C1F3130423400BB101202DE035
:1023A00000202BE001F0807343B15368C1F31304A4
:1023B00023400BB1012021E000201FE001F0006369
:1023C00043B19368C1F3130423400BB1012015E01E
:1023D000002013E001F0007343B1D368C1F313048C
:1023E00023400BB1012009E0002007E01369C1F38D
:1023F000130423400BB1012000E0002010BD002297
:10240000244B994202D10023836111E0C1F31302EE
:1024100001F000730BB1C2600AE001F080630BB100
:10242000026105E001F000630BB1826000E04260F0
:1024300070470246002002EA01030BB1012000E0D0
:102440000020704770B504460D460026606928409C
:10245000002872D0B5F5807F69D01DDC082D42D0F0
:1024600006DC012D2DD0022D31D0042D7FD134E09A
:10247000102D3ED0202D42D0402D78D145E00000D7
:10248000030000040003000800000310000100081E
:102490000001FFF77000F030B5F5004F61D009DCA6
:1024A000B5F5007F4AD0B5F5806F4DD0B5F5006F1A
:1024B0005DD150E0B5F5803F2DD0B5F5003F56D148
:1024C0002FE0A0685549FFF7B4FF064651E0E068E9
:1024D0000321FFF7AEFF06464BE0E0680821FFF757
:1024E000A8FF064645E0E0681021FFF7A2FF064678
:1024F0003FE020690321FFF79CFF064639E0206991
:102500000821FFF796FF064633E020691021FFF708
:1025100090FF06462DE060680821FFF78AFF064617
:1025200027E060681021FFF784FF064621E0A069DC
:102530000121FFF77EFF06461BE01BE0A069022198
:10254000FFF777FF064614E0A0690421FFF771FF4B
:1025500006460EE00BE0A0697021FFF76AFF064611
:1025600007E060680421FFF764FF064601E00026EB
:1025700000BF00E00026304670BDB1F5007F3AD0C4
:102580000FDC202928D006DC01291CD004291DD00D
:10259000082940D11DE0402921D0B1F5807F3AD1F2
:1025A00026E0B1F5004F31D006DCB1F5806F25D0C3
:1025B000B1F5006F2FD124E0B1F5803F12D0B1F515
:1025C000003F28D111E0154A826025E00822C26050
:1025D00022E01022C2601FE0082202611CE01022EB
:1025E000026119E00822426016E01022426013E006
:1025F0000422426010E0042242600DE004224260A6
:102600000AE0002282610422426005E00022826129
:102610000422426000E000BF00BF704701010100DA
:10262000016821F0010101600021016041608160C9
:10263000C160016121214161DB49884204D13D2112
:10264000D94A103A91608CE0D7491831884205D1B7
:102650004FF47461D44A103A916082E0D24930312B
:10266000884205D14FF47411CF4A103A916078E056
:10267000CD494831884205D14FF07461CA4A103AB9
:1026800091606EE0C8496031884204D1C749C64AAA
:10269000103AD16065E0C4497831884204D1C44918
:1026A000C14A103AD1605CE0BF499031884204D100
:1026B000C049BD4A103AD16053E0BB49A8318842B5
:1026C00005D14FF03D51B84A103AD16049E0BA49BE
:1026D000884204D13D21B84A083A116041E0B64928
:1026E0001831884205D14FF47461B34A083A116039
:1026F00037E0B1493031884205D14FF47411AE4A08
:10270000083A11602DE0AC494831884205D14FF0BC
:102710007461A94A083A116023E0A74960318842F0
:1027200004D1A249A44A121F11601AE0A2497831CB
:10273000884204D19E49A04A121F116011E09E49AF
:102740009031884204D19B499B4A121F116008E0D6
:102750009949A831884204D14FF03D51964A121F41
:102760001160704710B500220268944B1A40CC6883
:102770000B6823434C6923438C692343CC6923436F
:102780000C6A23434C6A23438C6A23434C6B2343D8
:102790008C6B23431A430260426922F00702D1E99D
:1027A0000B3423431A4342610B6943604B688360D7
:1027B0008B68C36010BD0021016041608160C16011
:1027C000016141618161C161016241628162C162F5
:1027D000016341638163704721B1026842F00102E5
:1027E000026003E0026822F001020260704721B13A
:1027F000026842F40042026003E0026822F40042F0
:102800000260704721B1026842F02002026003E0DA
:10281000026822F020020260704741607047014662
:10282000486880B2704722B1036843F40023036014
:1028300003E0036823F4002303600161704721B1C2
:10284000026842F48022026003E0026822F48022DF
:10285000026070470AB1016100E0C1607047014643
:1028600000200A6802F400220AB1012000E00020E2
:102870007047014600200A6802F001020AB10120F7
:1028800000E000207047014600204A6902F038004D
:10289000704730B503460A4600200024464DAB423F
:1028A00002D24149103901E04349103902F0005584
:1028B0000DB14C6800E00C68414D2C4004EA020563
:1028C0000DB1012000E0002030BD02463A4B9A4293
:1028D00002D23548103801E03748103801F0005373
:1028E0001BB1374B0B40C36002E0354B0B4083609C
:1028F000704710B501F080034BB122B1436943F03A
:102900008003436103E0436923F08003436180292E
:102910000BD02AB1036801F01E042343036004E0D6
:10292000036801F01E04A343036010BD70B50246A6
:10293000002000240025204EB24202D21A4B103B48
:1029400001E01D4B103B1F4E0E4036B11E2606EA1D
:10295000D124166806EA040502E0566906F08005EF
:1029600001F000560EB15C6800E01C68144E344063
:1029700004EA010616B10DB1012000E0002070BD8F
:1029800002460D4B9A4202D20748103801E00A482D
:10299000103801F000531BB1094B0B40C36002E03B
:1029A000074B0B4083607047106002403D000020E1
:1029B000400F002000003D20106402403F801CF0CA
:1029C0007D0F7D0F3C0F3C0F10B5044698488442A4
:1029D00008D10121084600F086FB0021012000F00B
:1029E00082FB76E09348844208D10121022000F066
:1029F0007AFB0021022000F076FB6AE08E488442D8
:102A000008D10121042000F06EFB0021042000F019
:102A10006AFB5EE08948844208D10121082000F069
:102A200062FB0021082000F05EFB52E084488442F3
:102A300008D10121102000F056FB0021102000F0E9
:102A400052FB46E07F48844208D10121202000F05B
:102A50004AFB0021202000F046FB3AE07A488442FD
:102A600008D10121402000F03EFB0021402000F071
:102A70003AFB2EE07548844208D10121802000F005
:102A800032FB0021802000F02EFB22E070488442BF
:102A900008D10121801500F026FB0021A01500F0CF
:102AA00022FB16E06B48844208D10121401500F05A
:102AB0001AFB0021601500F016FB0AE0664884420C
:102AC00007D10121001500F00EFB0021201500F0B8
:102AD0000AFB10BDF0B50A4600210023002400BF08
:102AE0003DE0012505FA01F3156805EA03049C425F
:102AF00034D105684F000326BE40B5430560157903
:102B00004E00B5400668354305601579012D02D0A9
:102B10001579022D16D185684F000326BE40B543B6
:102B2000856055794E00B5408668354385604568B7
:102B300001268E40B5434560456896798E40B6B211
:102B400035434560C5684F000326BE40B543C560A8
:102B5000D5794E00B540C6683543C560491C10297B
:102B6000BFD3F0BD4FF6FF710160002101714171CB
:102B70008171C171704708B54FF480320092009A9C
:102B80000A430092009AC261C161009AC261C2699F
:102B90000092C269009208BD0246002013690B40F2
:102BA0000BB1012000E0002070470146086980B2A7
:102BB00070470246002053690B400BB1012000E032
:102BC000002070470146486980B270470183704712
:102BD000418370470AB1018300E04183704741613E
:102BE000704742694A4042617047F0B500230024B3
:102BF0004D07ED0E02FA05F3CE1000F1200555F851
:102C000026504E07F70E0F26BE40B543CF1000F1F9
:102C1000200646F82750CE1000F1200555F8265022
:102C200045EA0304CE1000F1200545F82640F0BD2A
:102C3000000002400004024000080240000C024074
:102C4000001002400014024000180240001C024024
:102C5000002002400024024000280240F948006899
:102C600040F00100F74908600020F649083108608B
:102C7000F4480068F4490840F2490860F348091D27
:102C80000860F348EF4984310860F0481038091DA6
:102C90000860EC48006820F48020EA4908600020C1
:102CA000E8490C310860E7498C3108607047002121
:102CB000E44A921C117011460870704710B5014625
:102CC0000022002300204A11012A02D1DD4C236892
:102CD00008E0022A03D1DB4C7034236802E0D94CAF
:102CE0007434236801F01F02012494401C400CB18D
:102CF000012000E0002010BD38B500200090002425
:102D0000002500BF3120FFF7D9FF05460098401C81
:102D100000900098B0F5A04F01D0002DF2D03120E6
:102D2000FFF7CCFF08B1012400E00024204638BDA5
:102D300001460020C34A106820F0F80040EAC100B4
:102D400010607047C349086070470021BD4A703267
:102D500011701170012802D004280AD104E0012169
:102D6000B84A7032117005E00521B64A7032117010
:102D700000E000BF00BF7047B7490860704770B5FA
:102D8000049C41EA82150126C6EB530645EA064536
:102D9000054345EA0465AB4E361D356070BDAD494F
:102DA00008667047820142EA0172A64B84331A60BA
:102DB0007047A8498866704710B5830143EA0163EC
:102DC00043EA02739F4C8834236010BDA149086711
:102DD0007047A049C864704702460020994B0833E9
:102DE000186820F0EC6042EA01031843954B083361
:102DF0001860704702460020924B0833186820F094
:102E0000784042EA010318438E4B0833186070473C
:102E1000014600208B4A0832106820F00300084366
:102E20001060704787480830006800F00C00704759
:102E300001460020834A0832106820F0F000084361
:102E400010607047014600207E4A0832106820F466
:102E5000E05008431060704701460020794A08326C
:102E6000106820F4604040EAC10010607047F0B57F
:102E7000002100220024022500260223714F08377A
:102E80003F6807F00C0121B1042905D0082937D18A
:102E900005E0724F076036E0714F076033E0694F1D
:102EA0003F1D3F68C7F38056664F3F1D3F6807F0E0
:102EB0003F036EB16A4FB7FBF3F7DFF888C10CF13F
:102EC000040CDCF800C0CCF3881C07FB0CF40CE00D
:102ED000624FB7FBF3F7DFF86CC10CF1040CDCF8C0
:102EE00000C0CCF3881C07FB0CF4564F3F1D3F6815
:102EF000C7F301477F1C7D00B4FBF5F7076002E0D4
:102F0000564F076000BF00BF4E4F08373F6807F0BD
:102F1000F0010909534F7A5C0768D7404760494F71
:102F200008373F6807F4E051890A4E4F7A5C4768DA
:102F3000D7408760434F08373F6807F46041490B2B
:102F4000484F7A5C4768D740C760F0BD002100F465
:102F50004072B2F5407F0AD13A4A0832116821F432
:102F6000F811414A02401143364A08321160354A8D
:102F700070321268C0F30B031A43324B70331A607D
:102F80007047354944390860704733494039086013
:102F9000704736490860704701460020294A8C3244
:102FA000106820F01F004A1E1043264A8C32106021
:102FB000704701460020234A8C32106820F4F850F4
:102FC0004A1E40EA02201F4A8C32106070470146B8
:102FD00000201C4A8C32106820F440100843106016
:102FE000704701460020174A8C32106820F44000D8
:102FF00008431060704701460020124A8C32106866
:1030000020F4403008431060704719490860704749
:1030100039B10C4A3032126802430A4B30331A601D
:1030200006E0084A303212688243064B30331A6099
:103030007047F9B1034A343212680243014B34330A
:103040001A601CE000380240FFFFF6EA103000244E
:103050000030002000004742800E47420024F40068
:1030600000127A003C000020FFFCFF0F5C01474289
:10307000E01147428F4A126882438E4B1A607047B4
:1030800039B18C4A121D126802438A4B1B1D1A600B
:1030900006E0884A121D12688243864B1B1D1A6087
:1030A000704739B1834A0C3212680243814B0C33AA
:1030B0001A6006E07F4A0C32126882437D4B0C3363
:1030C0001A60704739B17B4A103212680243794B5B
:1030D00010331A6006E0774A103212688243754B4B
:1030E00010331A60704739B1724A243A12680243A9
:1030F000704B243B1A6006E06E4A243A1268824301
:103100006C4B243B1A60704739B16A4A203A126806
:103110000243684B203B1A6006E0664A203A126878
:103120008243644B203B1A60704739B1614A1C3AB4
:10313000126802435F4B1C3B1A6006E05D4A1C3A72
:10314000126882435B4B1C3B1A60704739B1594A85
:10315000143A12680243574B143B1A6006E0554A72
:10316000143A12688243534B143B1A60704739B1CA
:10317000504A103A126802434E4B103B1A6006E068
:103180004C4A103A126882434A4B103B1A6070470F
:1031900039B1484A1C3212680243464B1C331A604C
:1031A00006E0444A1C3212688243424B1C331A60C8
:1031B000704739B13F4A2032126802433D4B2033F9
:1031C0001A6006E03B4A203212688243394B2033B2
:1031D0001A60704739B1374A243212680243354BBE
:1031E00024331A6006E0334A243212688243314B9A
:1031F00024331A60704739B12E4A2C3212680243C8
:103200002C4B2C331A6006E02A4A2C321268824377
:10321000284B2C331A60704739B1264A3032126875
:103220000243244B30331A6006E0224A30321268DF
:103230008243204B30331A607047012808D11D4962
:103240003C31096841F008011A4A3C32116007E03C
:1032500018493C31096821F00801164A3C321160D6
:10326000704739B1134A273A12780243114B273B72
:103270001A7006E00F4A273A127882430D4B273B1B
:103280001A7070470B484030006840F08070094960
:1032900040310860704701460020064A283A12680B
:1032A0000A400AB1012000E0002070470149263998
:1032B000087070473438024010B50446FA4884421A
:1032C00008D101211020FFF752FF00211020FFF745
:1032D0004EFF57E0F548844209D101214804FFF729
:1032E00035FF00214FF40030FFF730FF4AE0F0488F
:1032F000844209D101218804FFF728FF00214FF4FF
:103300008020FFF723FF3DE0EA48844209D10121F4
:10331000C804FFF71BFF00214FF40020FFF716FF42
:1033200030E0E548844209D101210805FFF70EFF8E
:1033300000214FF48010FFF709FF23E0DF488442AB
:1033400008D101212020FFF712FF00212020FFF7E4
:103350000EFF17E0DA48844209D101218807FFF700
:10336000F5FE00214FF08040FFF7F0FE0AE0D5485F
:10337000844207D101214005FFF7E8FE00216005E6
:10338000FFF7E4FE10BD2DE9FF4705460E46002479
:10339000A14600BFA046B08900B100BF2C8A24F42A
:1033A0004054F08804432C82AC8941F20C60844381
:1033B000B08831890843718908430443AC81AC8AE1
:1033C00024F44074B0890443AC826846FFF74FFD93
:1033D000B548854202D0B948854202D1DDF80C904B
:1033E00001E0DDF80890A88900F4004040B109EB45
:1033F000C90000EB091031684900B0FBF1F707E0A4
:1034000009EBC90000EB091031688900B0FBF1F746
:103410006420B7FBF0F004012009642101FB10785F
:10342000A88900F4004040B1322000EBC800B0FB96
:10343000F1F000F00700044308E0322000EB081030
:103440006421B0FBF1F000F00F0004432C81BDE8D3
:10345000FF874FF41651016000218180C1800181F6
:103460000C21418100218181704710B50246002066
:10347000108A20F470600B884C8823438C88234387
:10348000CC8823431843108210BD00210180418065
:103490008180C180704721B1828942F400528281CB
:1034A00004E082894DF6FF731A4082817047028BD7
:1034B00002F47F420283028B0A430283704721B1E8
:1034C000828942F40042828103E08289C2F30E02C3
:1034D0008281704721B1828A42F40062828204E0D4
:1034E000828A4FF2FF731A4082827047C1F308024A
:1034F0008280704701468888C0F308007047028ABE
:103500004FF6F0731A400282028A0A430282704721
:1035100021B1828942F00202828104E082894FF661
:10352000FD731A408281704782894FF2FF731A40FF
:10353000828182890A4382817047028A4FF6DF7353
:103540001A400282028A0A430282704721B1028A2B
:1035500042F48042028204E0028A4BF6FF731A4072
:1035600002827047818941F001018181704721B158
:10357000828A42F00802828204E0828A4FF6F77360
:103580001A4082827047028BD2B20283028B42EAD7
:1035900001220283704721B1828A42F02002828296
:1035A00004E0828A4FF6DF731A408282704721B1AD
:1035B000828A42F01002828204E0828A4FF6EF7320
:1035C0001A4082827047828A4FF6FB731A408282C9
:1035D000828A0A438282704721B1828A42F00202C3
:1035E000828204E0828A4FF6FD731A40828270471D
:1035F0001AB1838A0B43838202E0838A8B438382DE
:103600007047F0B50346002400260025002040F650
:103610006A17B94200D100BF1846C1F3421401F045
:103620001F06012707FA06F5012C01D10C3004E032
:10363000022C01D1103000E014301AB107682F437A
:10364000076002E00768AF430760F0BD0246002054
:10365000B1F5007F00D100BF13880B400BB10120F2
:1036600000E00020704701F40072B2F5007F00D145
:1036700000BFCA430280704770B502460024002391
:103680000025002040F66A16B14200D100BFC1F308
:10369000421501F01F03012606FA03F3012D13D191
:1036A0009689334017E000000010014000440040BC
:1036B00000480040004C0040005000400014014011
:1036C00000780040007C0040022D02D1168A334071
:1036D00001E0968A33400C12012606FA04F416889B
:1036E000344013B10CB1012000E0002070BD10B5D2
:1036F0000022002340F66A14A14200D100BF0A1242
:1037000001249440A3B2DC43048010BD09488047E3
:1037100009480047FEE7FEE7FEE7FEE7FEE7FEE7B3
:10372000FEE7FEE7FEE7FEE704480549054A064BCB
:10373000704700003D030008890100083808002098
:10374000380E0020380A0020380A0020032A40F2F0
:10375000308010F0030C00F0158011F8013BBCF133
:10376000020F624498BF11F801CB00F8013B38BF4B
:1037700011F8013BA2F1040298BF00F801CB38BF59
:1037800000F8013B11F0030300F02580083AC0F077
:10379000088051F8043B083A51F804CBA0E808101F
:1037A000F5E7121D5CBF51F8043B40F8043BAFF352
:1037B0000080D20724BF11F8013B11F801CB48BFAC
:1037C00011F8012B24BF00F8013B00F801CB48BFE2
:1037D00000F8012B704710B5203AC0F00B80B1E81B
:1037E0001850203AA0E81850B1E81850A0E8185036
:1037F000BFF4F5AF5FEA027C24BFB1E81850A0E83F
:10380000185044BF18C918C0BDE810405FEA827C58
:1038100024BF51F8043B40F8043B08BF7047D2076F
:1038200028BF31F8023B48BF11F8012B28BF20F810
:10383000023B48BF00F8012B704770477047704744
:1038400001491820ABBEFEE7260002000048704781
:10385000D807002070477546FFF7F8FFAE46050011
:103860006946534620F00700854618B020B5FFF79B
:103870005BFFBDE820404FF000064FF000074FF01F
:1038800000084FF0000B21F00701AC46ACE8C0097E
:10389000ACE8C009ACE8C009ACE8C0098D46704787
:1038A00010B50446AFF300802046BDE81040FCF799
:1038B000B4BC4FF04070E1EE100A7047DC380008ED
:1038C000000000204C000000C40100082839000856
:1038D0004C000020EC0D0000E0010008007A030A13
:1038E00000000000000000000102030406070809B0
:1038F00000000000000000007017881300000000A6
:1039000000000000000000000000000000000000B7
:10391000000000000000000000000000010203049D
:08392000010203040607080977
:040000050800018965
:00000001FF
