:020000040800F2
:10000000B8070020011D0008410200084302000853
:10001000470200084B0200084F02000800000000E1
:100020000000000000000000000000005302000873
:10003000550200080000000057020008590200089D
:100040001B1D00081B1D00081B1D00081B1D0008B0
:100050001B1D00081B1D00081B1D00081B1D0008A0
:100060001B1D00081B1D00081B1D00081B1D000890
:100070001B1D00081B1D00081B1D00081B1D000880
:100080001B1D00081B1D00081B1D0008670600083B
:100090005D0700081B1D00081B1D00081B1D000834
:1000A0001B1D00081B1D00081B1D00081B1D000850
:1000B0001B1D00081B1D00081B1D00081B1D000840
:1000C0001B1D00081B1D00081B1D00081B1D000830
:1000D0001B1D00081B1D00081B1D00081B1D000820
:1000E0001B1D00081B1D00081B1D00081B1D000810
:1000F0001B1D00081B1D00081B1D00081B1D000800
:100100001B1D00081B1D00081B1D00081B1D0008EF
:100110001B1D00081B1D00081B1D00081B1D0008DF
:100120001B1D00081B1D00081B1D00081B1D0008CF
:100130001B1D00081B1D00081B1D00087D06000874
:10014000DF0600081B1D00081B1D00081B1D000802
:100150001B1D00081B1D00081B1D00081B1D00089F
:100160001B1D00081B1D00081B1D00081B1D00088F
:100170001B1D00081B1D00081B1D00081B1D00087F
:100180001B1D00081B1D000800F002F800F044F8D9
:100190000AA090E8000C82448344AAF10107DA45E2
:1001A00001D100F039F8AFF2090EBAE80F0013F0F0
:1001B000010F18BFFB1A43F001031847A8280000DD
:1001C000C8280000103A24BF78C878C1FAD852076E
:1001D00024BF30C830C144BF04680C6070470000C1
:1001E0000023002400250026103A28BF78C1FBD840
:1001F000520728BF30C148BF0B6070471FB502F0DF
:1002000020FC9DE8030002F005FA01F02DFF1FBD60
:1002100010B501F092FF10BD01F0C6FF1146FFF7C7
:10022000EDFF00F009F802F0C9F903B4FFF7F0FFA1
:1002300003BC02F061FB000000F018F900BFFEE70C
:10024000704700BFFEE700BFFEE700BFFEE700BF4C
:10025000FEE7704770477047704700000CB50020FC
:10026000019000907648006840F48030744908603E
:1002700000BF7348006800F4003000900198401CF3
:100280000190009818B90198B0F5A04FF1D16C48D1
:10029000006800F4003010B10120009001E000205F
:1002A00000900098012846D165484030006840F031
:1002B00080506349403108606248006840F4404023
:1002C000604908605E48083000685D490831086090
:1002D0000846006840F4004008600846006840F4A2
:1002E000A05008605848091F0860081F006840F0C7
:1002F0008070091F086000BF5148006800F000705E
:100300000028F9D040F20570504908604C48083088
:10031000006820F003004A49083108600846006878
:1003200040F00200086000BF45480830006800F057
:100330000C000828F8D10CBD10B54548006840F401
:100340007000434908603E48006840F001003C49A5
:10035000086000203A4908310860394800683D4982
:100360000840374908603C48091D0860081F0068BC
:1003700020F48020091F0860002031490C310860FA
:10038000FFF76CFF4FF0006031498039086010BD05
:1003900070B500200022022300240221284D0835D8
:1003A0002D6805F00C0020B1042806D0082834D1AF
:1003B00007E02A4D2A4E356033E02A4D284E35603D
:1003C0002FE01F4D2D1D2D68C5F380541C4D2D1D94
:1003D0002D6805F03F0154B1224DB5FBF1F5184EE3
:1003E000361D3668C6F3881605FB06F209E01B4D7C
:1003F000B5FBF1F5124E361D3668C6F3881605FBBF
:1004000006F20F4D2D1D2D68C5F301456D1C6B00C7
:10041000B2FBF3F5124E356003E0104D104E35601F
:1004200000BF00BF064D08352D68C5F303150E4EFD
:10043000705D0B4D2D68C540094E356070BD0000E4
:10044000003802400070004008544007003C024061
:1004500088ED00E0FFFFF6FE103000240024F400D9
:100460000000002000127A000400002010B54FF4B4
:10047000A06000F065FA10BDF0B58BB004460D46E3
:1004800016461F460121084601F0E6FA01214806FA
:1004900001F02BFB4FF4C050099002208DF828008A
:1004A00009A9FB4801F03AF809220B21F84801F0AC
:1004B000C0F809220C21F64801F0BBF8F54800F01D
:1004C000AFFA06A800F0D0FB00208DF81E00012036
:1004D0008DF81F0000208DF820008DF821008DF888
:1004E00022008DF823008DF81A708DF81B008DF80E
:1004F0001C508DF81D40ADF8186006A9E54800F0C5
:10050000A8FA00208DF812008DF8130001208DF854
:1005100014000020ADF80800ADF80A00ADF80C009A
:10052000ADF80E00ADF8100001208DF8150002A8FE
:1005300000F019FB01220221D64800F013FE14201E
:100540008DF8040003208DF8050001208DF80600C9
:100550008DF8070001A800F0F8F901220221CD482A
:1005600000F000FE00200BB0F0BDF0B58BB00446EB
:100570000D4616461F460121022001F06DFA0121A9
:10058000880601F0B2FA4FF44050099002208DF82D
:10059000280000208DF82A0003208DF82900012072
:1005A0008DF82B0009A9BC4800F0B8FF09220C21E6
:1005B000B94801F03EF809220D21B74801F039F899
:1005C000B64800F02DFA06A800F04EFB00208DF88A
:1005D0001E0001208DF81F0000208DF820008DF8EE
:1005E00021008DF822008DF823008DF81A708DF807
:1005F0001B008DF81C508DF81D40ADF8186006A941
:10060000A64800F026FA0E208DF8120000208DF882
:10061000130001208DF814000020ADF80800ADF89B
:100620000A00ADF80C00ADF80E00ADF81000012086
:100630008DF8150002A800F096FA40208DF804000D
:1006400003208DF805008DF8060001208DF80700C5
:1006500001A800F07AF901220221904800F082FD01
:1006600000200BB0F0BD10B501218A4800F0E2FD7A
:1006700018B10121874800F078FE10BD10B50121A6
:10068000864800F0D7FD18B10121844800F06DFEC6
:1006900010BD30B585B0054640F205200090002021
:1006A0008DF809008DF8080000217C4800F0C2FC9C
:1006B00010B9002005B030BD6A460021774800F02F
:1006C00036FC002404E00DF10B00005D2855641C8D
:1006D0009DF80A00A042F6D89DF80B00EAE710B595
:1006E00086B002216D4800F0A5FDB8B102216B482B
:1006F00000F03BFE01AA0021684800F018FC0DF153
:100700000F00FFF7C6FF002406E00DF10F00005DAB
:1007100063490855601CC4B2082CF6DB06B010BD56
:1007200030B585B0054600215A4800F083FC10B969
:10073000002005B030BD6A460021564800F0F7FBA6
:10074000002404E00DF10B00005D2855641C9DF8A9
:100750000A00A042F6D89DF80B00EAE710B586B073
:1007600002214C4800F066FDE0B10221494800F04A
:10077000FCFD01AA0021474800F0D9FB40F25121BD
:10078000019888420ED10DF10F00FFF7C9FF002438
:1007900006E00DF10F00005D42490855601CC4B22F
:1007A000082CF6DB3F480078472803D13EA001F033
:1007B000B1FB0AE03B480078772803D13FA001F065
:1007C000A9FB02E042A001F0A5FB06B010BDF0B508
:1007D00085B007460D46002440F2512000901220BB
:1007E000019000208DF808008DF809008DF80A505E
:1007F00000BF05E0395D0DF10B000155601C84B2AE
:10080000AC42F7DB6946234800F09CFA0646002418
:1008100001E0601C84B231461E4800F02BFB18B981
:1008200040F6FF708442F4DB40F6FF70844202DB46
:10083000012005B0F0BD0020FBE700B585B04FF406
:1008400014700090002001908DF808008DF80900C8
:1008500008208DF80A00124880788DF80B001048A7
:10086000C1788DF80C1081798DF80D1000218DF86C
:100870000E108DF80F108DF810108DF811108DF8E6
:1008800012106946034800F05DFA05B000BD000093
:100890000000024000640040000402400068004084
:1008A00048000020340000204E6F726D616C207291
:1008B0006563657074696F6E0D0A0000526563654B
:1008C00069766520657863657074696F6E0D0A00DE
:1008D00053746F7070656420726563657074696FBE
:1008E0006E0D0A002DE9F04186B080460C46154693
:1008F0001E460C9F40F2FF10019000208DF80C0066
:100900008DF80D0008208DF80E00200A8DF80F00DC
:100910008DF81040290A8DF811108DF81250310A07
:100920008DF813108DF81460390A8DF815108DF8B4
:10093000167001A9404600F005FA06B0BDE8F08146
:1009400032490143324A1160704770B500210023DB
:100950000F22C4781CB32E4C246804F4E064C4F560
:10096000E064C4F30721C1F10404E3B20A4144780E
:100970009C40E1B28478144021430C07210E254CA1
:1009800005786155047804F01F050124AC40057812
:100990006D11AD0005F1E025C5F8004109E00478CE
:1009A00004F01F050124AC401B4D0678761145F874
:1009B000264070BD194A0A400243154B1B1F1A609E
:1009C000704739B1124A121D12680243104B1B1DA9
:1009D0001A6006E00E4A121D126882430C4B1B1D62
:1009E0001A607047042808D14FF0E021096941F0EE
:1009F00004014FF0E022116107E04FF0E0210969A6
:100A000021F004014FF0E022116170470000FA0567
:100A10000CED00E000E400E080E100E080FFFF1F5B
:100A200010B50446FE48844209D10121480601F070
:100A3000B1F800214FF0007001F0ACF808E001219E
:100A4000880601F0A7F800214FF0806001F0A2F8BD
:100A500010BD30B5024600200023146824F00204C3
:100A60001460146844F00104146000E05B1C5468D6
:100A700004F001041CB94FF6FF74A342F6D1546888
:100A800004F001040CB900206CE08C79012C04D135
:100A9000146844F08004146003E0146824F08004B7
:100AA0001460CC79012C04D1146844F04004146023
:100AB00003E0146824F0400414600C7A012C04D183
:100AC000146844F02004146003E0146824F0200447
:100AD00014604C7A012C04D1146844F010041460A2
:100AE00003E0146824F0100414608C7A012C04D103
:100AF000146844F00804146003E0146824F0080447
:100B00001460CC7A012C04D1146844F004041460FD
:100B100003E0146824F0040414608C78A407CD78F2
:100B200044EA05640D7944EA05444D7944EA0554E4
:100B30000D886D1E2C43D461146824F001041460E8
:100B4000002300E05B1C546804F001041CB14FF664
:100B5000FF74A342F6D1546804F001040CB10020E4
:100B600000E0012030BD10B50021837A012202FA95
:100B700003F1AC4A126842F00102AA4B1A60A94A7A
:100B80001C3212688A43A74B1C331A60027BCAB915
:100B9000A44A0C3212688A43A24B0C331A60428872
:100BA000C38842EA03439F4A4032847A42F8343091
:100BB0000288838842EA03439A4A4032847A02EBED
:100BC000C4025360027B012A19D1964A0C32126882
:100BD0000A43944B0C331A604288038842EA034369
:100BE000904A4032847A42F83430C288838842EA9C
:100BF00003438C4A4032847A02EBC4025360C27AC7
:100C00003AB9884A121D12688A43864B1B1D1A6026
:100C100006E0844A121D12680A43824B1B1D1A60AB
:100C2000028932B97F4A143212688A437D4B1433E9
:100C30001A600289012A06D17A4A143212680A43DC
:100C4000784B14331A60427B012A06D1754A1C3254
:100C500012680A43734B1C331A60724A126822F0FE
:100C60000102704B1A6010BD00218171C1710172C7
:100C700041728172C1728170C170032101710221C0
:100C800041710121018070476649096841F0010105
:100C9000644A11601146096843F60E729143614A35
:100CA00011601146096841EA002111601146096886
:100CB00021F001011160704721B1026842F48032D5
:100CC000026003E0026822F4803202607047E1B102
:100CD000026842F0800202604FF4C272125842F47D
:100CE00080734FF4C27213504FF4CA72125842F418
:100CF00080734FF4CA7213504FF4D272125842F4F8
:100D000080734FF4D27213501BE0026822F080020D
:100D100002604FF4C272125822F480734FF4C27210
:100D200013504FF4CA72125822F480734FF4CA72EF
:100D300013504FF4D272125822F480734FF4D272CF
:100D40001350704710B502460020936803F080638B
:100D5000B3F1806F00D110E0936803F00063B3F14A
:100D6000006F01D1012008E0936803F08053B3F1D4
:100D7000805F01D1022000E00420042879D002F530
:100D8000C07303EB00131B6803F0010402F5C0738A
:100D900003EB00131C600B7A7BB94B7A0C8843EA97
:100DA000445302F5C07404EB00142468234302F595
:100DB000C07404EB0014236010E00B7A4C6843EA23
:100DC000C4034C7A234302F5C07404EB0014246876
:100DD000234302F5C07404EB001423608B7A03F004
:100DE0000F038B7202F5C07303EB00135B6823F0F3
:100DF0000F0402F5C07303EB00135C6002F5C073CF
:100E000003EB00135B688C7A234302F5C07404EB98
:100E1000001463608B7B1C064B7B44EA034403E0B5
:100E200000640040006600400B7B44EA0323CC7A58
:100E3000234302F5C07404EB0014A3608B7C1C06F2
:100E40004B7C44EA03440B7C44EA0323CC7B2343DE
:100E500002F5C07404EB0014E36002F5C07303EB09
:100E600000131B6843F0010402F5C07303EB001389
:100E70001C6010BD10B50246002321B1012907D026
:100E800002290FD109E09068F94C00EA04030BE055
:100E90009068F84C00EA040306E09068F64C00EA1B
:100EA000040301E0002300BF00BFF44C181BA34261
:100EB00016D007DC83B16FF08060184470B102284F
:100EC00018D111E0B0F5007F10D0ED4C204448B1AE
:100ED000B0F5003F0ED10BE002230DE000230BE044
:100EE000002309E0002307E0012305E0012303E0DC
:100EF000012301E0002300BF00BFD8B210BD21B123
:100F0000012907D002290FD109E0826842F080024E
:100F100082600AE0826842F40042826005E08268F2
:100F200042F40002826000E000BF00BF704710B5CD
:100F300000F5D87303EB01131B6803F0040313726D
:100F4000137A53B900F5D87303EB01131B6840F211
:100F5000FF7404EA5353136009E000F5D87303EB00
:100F600001131B686FF0604404EAD303536000F57B
:100F7000D87303EB01131B6803F00203537200F5EF
:100F8000D87303EB01135B6803F00F03937200F552
:100F9000D87303EB01135B681B0AD37400F5D87395
:100FA00003EB01139B68D37200F5D87303EB0113B5
:100FB0009B681C0A147300F5D87303EB01139B683C
:100FC0001C0C547300F5D87303EB01139B681B0EC4
:100FD000937300F5D87303EB0113DB68D37300F54B
:100FE000D87303EB0113DB681C0A147400F5D87383
:100FF00003EB0113DB681C0C547400F5D87303EB8E
:101000000113DB681B0E937421B9C36843F02003FE
:10101000C36003E0036943F02003036110BD21B9FD
:10102000C26842F02002C26003E0026942F020027E
:10103000026170470246002019B9D36803F003002B
:1010400006E0012903D1136903F0030000E000204A
:10105000704710B502460B4600204FF6FF71BBB932
:10106000146824F0020444F00104146000E0491EF6
:10107000546804F00304012C01D00029F7D154680E
:1010800004F00304012C01D0002032E0012030E004
:10109000012B13D1146824F00304146000E0491EEE
:1010A000546804F003040CB10029F8D1546804F02A
:1010B00003040CB100201CE001201AE0022B17D120
:1010C000146824F0010444F00204146000E0491E96
:1010D000546804F00304022C01D00029F7D15468AD
:1010E00004F00304022C01D0002002E0012000E003
:1010F000002010BD014600200A6822F0010242F0E3
:1011000002020A604A6802F00302022A00D10120AA
:10111000704701464FF6FF7200200B6823F0020370
:101120000B6000E0521E4B6803F00203022B01D15A
:10113000002AF7D14B6803F00203022B00D00120F4
:101140007047014600208A6902F07000704701462E
:1011500000208A69100E7047014600208A69C2F398
:10116000074070471AB143690B43436102E043698A
:101170008B434361704710B50246002001F47003B1
:1011800043B19369C1F3130423400BB101202DE057
:1011900000202BE001F0807343B15368C1F31304C6
:1011A00023400BB1012021E000201FE001F000638B
:1011B00043B19368C1F3130423400BB1012015E040
:1011C000002013E001F0007343B1D368C1F31304AE
:1011D00023400BB1012009E0002007E01369C1F3AF
:1011E000130423400BB1012000E0002010BD0022B9
:1011F000244B994202D10023836111E0C1F3130211
:1012000001F000730BB1C2600AE001F080630BB122
:10121000026105E001F000630BB1826000E0426012
:1012200070470246002002EA01030BB1012000E0F2
:101230000020704770B504460D46002660692840BE
:10124000002872D0B5F5807F69D01DDC082D42D012
:1012500006DC012D2DD0022D31D0042D7FD134E0BC
:10126000102D3ED0202D42D0402D78D145E00000F9
:101270000300000400030008000003100001000840
:101280000001FFF77000F030B5F5004F61D009DCC8
:10129000B5F5007F4AD0B5F5806F4DD0B5F5006F3C
:1012A0005DD150E0B5F5803F2DD0B5F5003F56D16A
:1012B0002FE0A0685549FFF7B4FF064651E0E0680B
:1012C0000321FFF7AEFF06464BE0E0680821FFF779
:1012D000A8FF064645E0E0681021FFF7A2FF06469A
:1012E0003FE020690321FFF79CFF064639E02069B3
:1012F0000821FFF796FF064633E020691021FFF72B
:1013000090FF06462DE060680821FFF78AFF064639
:1013100027E060681021FFF784FF064621E0A069FE
:101320000121FFF77EFF06461BE01BE0A0690221BA
:10133000FFF777FF064614E0A0690421FFF771FF6D
:1013400006460EE00BE0A0697021FFF76AFF064633
:1013500007E060680421FFF764FF064601E000260D
:1013600000BF00E00026304670BDB1F5007F3AD0E6
:101370000FDC202928D006DC01291CD004291DD02F
:10138000082940D11DE0402921D0B1F5807F3AD114
:1013900026E0B1F5004F31D006DCB1F5806F25D0E5
:1013A000B1F5006F2FD124E0B1F5803F12D0B1F537
:1013B000003F28D111E0154A826025E00822C26072
:1013C00022E01022C2601FE0082202611CE010220D
:1013D000026119E00822426016E01022426013E028
:1013E0000422426010E0042242600DE004224260C8
:1013F0000AE0002282610422426005E0002282614C
:101400000422426000E000BF00BF704701010100FC
:1014100010B504469848844208D10121084600F0DE
:1014200086FB0021012000F082FB76E09348844295
:1014300008D10121022000F07AFB0021022000F0F7
:1014400076FB6AE08E48844208D10121042000F036
:101450006EFB0021042000F06AFB5EE089488442B4
:1014600008D10121082000F062FB0021082000F0D3
:101470005EFB52E08448844208D10121102000F034
:1014800056FB0021102000F052FB46E07F488442CA
:1014900008D10121202000F04AFB0021202000F08B
:1014A00046FB3AE07A48844208D10121402000F00E
:1014B0003EFB0021402000F03AFB2EE075488442BC
:1014C00008D10121802000F032FB0021802000F0B3
:1014D0002EFB22E07048844208D10121801500F0E3
:1014E00026FB0021A01500F022FB16E06B48844289
:1014F00008D10121401500F01AFB0021601500F011
:1015000016FB0AE06648844207D10121001500F06D
:101510000EFB0021201500F00AFB10BDF0B50A46B5
:1015200000210023002400BF3DE0012505FA01F35E
:10153000156805EA03049C4234D105684F00032670
:10154000BE40B543056015794E00B5400668354389
:1015500005601579012D02D01579022D16D1856807
:101560004F000326BE40B543856055794E00B54017
:10157000866835438560456801268E40B5434560E1
:10158000456896798E40B6B235434560C5684F00D0
:101590000326BE40B543C560D5794E00B540C66848
:1015A0003543C560491C1029BFD3F0BD4FF6FF710C
:1015B00001600021017141718171C171704708B5ED
:1015C0004FF480320092009A0A430092009AC2615E
:1015D000C161009AC261C2690092C269009208BDED
:1015E0000246002013690B400BB1012000E00020EF
:1015F00070470146086980B270470246002053696F
:101600000B400BB1012000E0002070470146486903
:1016100080B2704701837047418370470AB10183EC
:1016200000E0418370474161704742694A4042612E
:101630007047F0B5002300244D07ED0E02FA05F3C4
:10164000CE1000F1200555F826504E07F70E0F2654
:10165000BE40B543CF1000F1200646F82750CE100B
:1016600000F1200555F8265045EA0304CE1000F19C
:10167000200545F82640F0BD00000240000402406D
:1016800000080240000C024000100240001402401A
:1016900000180240001C02400020024000240240CA
:1016A00000280240F948006840F00100F74908604E
:1016B0000020F64908310860F4480068F449084001
:1016C000F2490860F348091D0860F348EF49843186
:1016D0000860F0481038091D0860EC48006820F4E4
:1016E0008020EA4908600020E8490C310860E74999
:1016F0008C31086070470021E44A921C1170114639
:101700000870704710B501460022002300204A11DE
:10171000012A02D1DD4C236808E0022A03D1DB4C08
:101720007034236802E0D94C7434236801F01F023E
:10173000012494401C400CB1012000E0002010BDA9
:1017400038B5002000900024002500BF3120FFF7AD
:10175000D9FF05460098401C00900098B0F5A04FB6
:1017600001D0002DF2D03120FFF7CCFF08B10124C9
:1017700000E00024204638BD01460020C34A10681E
:1017800020F0F80040EAC10010607047C3490860CB
:1017900070470021BD4A703211701170012802D0CB
:1017A00004280AD104E00121B84A7032117005E022
:1017B0000521B64A7032117000E000BF00BF7047CB
:1017C000B7490860704770B5049C41EA821501264C
:1017D000C6EB530645EA0645054345EA0465AB4EAC
:1017E000361D356070BDAD4908667047820142EA1A
:1017F0000172A64B84331A607047A8498866704707
:1018000010B5830143EA016343EA02739F4C8834B5
:10181000236010BDA14908677047A049C86470479C
:1018200002460020994B0833186820F0EC6042EA29
:1018300001031843954B0833186070470246002097
:10184000924B0833186820F0784042EA01031843AD
:101850008E4B083318607047014600208B4A0832CF
:10186000106820F003000843106070478748083074
:10187000006800F00C00704701460020834A0832DF
:10188000106820F0F0000843106070470146002007
:101890007E4A0832106820F4E05008431060704718
:1018A00001460020794A0832106820F4604040EA7E
:1018B000C10010607047F0B500210022002402250D
:1018C00000260223714F08373F6807F00C0121B151
:1018D000042905D0082937D105E0724F076036E0AA
:1018E000714F076033E0694F3F1D3F68C7F3805673
:1018F000664F3F1D3F6807F03F036EB16A4FB7FB6D
:10190000F3F7DFF888C10CF1040CDCF800C0CCF36D
:10191000881C07FB0CF40CE0624FB7FBF3F7DFF811
:101920006CC10CF1040CDCF800C0CCF3881C07FB84
:101930000CF4564F3F1D3F68C7F301477F1C7D00E5
:10194000B4FBF5F7076002E0564F076000BF00BF29
:101950004E4F08373F6807F0F0010909534F7A5C92
:101960000768D7404760494F08373F6807F4E051A0
:10197000890A4E4F7A5C4768D7408760434F0837E3
:101980003F6807F46041490B484F7A5C4768D7408D
:10199000C760F0BD002100F44072B2F5407F0AD16B
:1019A0003A4A0832116821F4F811414A02401143C1
:1019B000364A08321160354A70321268C0F30B03A0
:1019C0001A43324B70331A60704735494439086006
:1019D000704733494039086070473649086070479E
:1019E00001460020294A8C32106820F01F004A1E50
:1019F0001043264A8C321060704701460020234A6B
:101A00008C32106820F4F8504A1E40EA02201F4A27
:101A10008C3210607047014600201C4A8C321068DE
:101A200020F4401008431060704701460020174A18
:101A30008C32106820F44000084310607047014663
:101A40000020124A8C32106820F4403008431060A5
:101A5000704719490860704739B10C4A3032126832
:101A600002430A4B30331A6006E0084A30321268EB
:101A70008243064B30331A607047F9B1034A34325F
:101A800012680243014B34331A601CE000380240F4
:101A9000FFFFF6EA1030002400300020000047422B
:101AA000800E47420024F40000127A001400002047
:101AB000FFFCFF0F5C014742E01147428F4A12686A
:101AC00082438E4B1A60704739B18C4A121D1268DE
:101AD00002438A4B1B1D1A6006E0884A121D1268D9
:101AE0008243864B1B1D1A60704739B1834A0C3202
:101AF00012680243814B0C331A6006E07F4A0C32B5
:101B0000126882437D4B0C331A60704739B17B4AAF
:101B1000103212680243794B10331A6006E0774A9C
:101B2000103212688243754B10331A60704739B116
:101B3000724A243A12680243704B243B1A6006E052
:101B40006E4A243A126882436C4B243B1A607047F9
:101B500039B16A4A203A12680243684B203B1A6046
:101B600006E0664A203A12688243644B203B1A60C2
:101B7000704739B1614A1C3A126802435F4B1C3B03
:101B80001A6006E05D4A1C3A126882435B4B1C3BBC
:101B90001A60704739B1594A143A12680243574BD8
:101BA000143B1A6006E0554A143A12688243534BBC
:101BB000143B1A60704739B1504A103A1268024318
:101BC0004E4B103B1A6006E04C4A103A12688243B2
:101BD0004A4B103B1A60704739B1484A1C321268B0
:101BE0000243464B1C331A6006E0444A1C3212681A
:101BF0008243424B1C331A60704739B13F4A20324E
:101C0000126802433D4B20331A6006E03B4A203203
:101C100012688243394B20331A60704739B1374A12
:101C2000243212680243354B24331A6006E0334AEB
:101C3000243212688243314B24331A60704739B121
:101C40002E4A2C32126802432C4B2C331A6006E0C9
:101C50002A4A2C3212688243284B2C331A60704770
:101C600039B1264A303212680243244B30331A60AD
:101C700006E0224A303212688243204B30331A6029
:101C80007047012808D11D493C31096841F008011D
:101C90001A4A3C32116007E018493C31096821F0CA
:101CA0000801164A3C321160704739B1134A273A8D
:101CB00012780243114B273B1A7006E00F4A273A6D
:101CC000127882430D4B273B1A7070470B48403007
:101CD000006840F080700949403108607047014653
:101CE0000020064A283A12680A400AB1012000E0A2
:101CF0000020704701492639087070473438024087
:101D00000948804709480047FEE7FEE7FEE7FEE78F
:101D1000FEE7FEE7FEE7FEE7FEE7FEE704480549CB
:101D2000054A064B70470000390300088901000886
:101D3000B8010020B8070020B8030020B803002035
:101D40006B49096801F0010171B16949803909687D
:101D500001F0010141B100BF4FF060410968002965
:101D6000FAD04FF06042107070474FF0FF30614979
:101D70000968614A914204D05E49086811465D4A8B
:101D80001160704700B503461846FFF7D9FF00BD44
:101D900070B504460D4614B94FF0FF3070BD207881
:101DA0003A281AD155A1204600F0E8F810B948F2B7
:101DB0000100F3E753A1204600F0E0F810B948F223
:101DC0000200EBE751A1204600F0D8F810B948F224
:101DD0000300E3E74FF0FF30E0E74FF0FF30DDE7CF
:101DE00001466FF40040084420B1012804D00228C5
:101DF00006D103E0002070470020FCE70020FAE74E
:101E00004FF0FF30F7E72DE9F04106460C46154646
:101E100098466FF40040304420B1012806D00228D3
:101E200011D105E04FF0FF30BDE8F0810020FBE765
:101E300005E014F8017B3846FFF7A4FF6D1E002D66
:101E4000F7D10020F0E74FF0FF30EDE710B5044682
:101E50006FF40040204420B1012805D0022809D1A8
:101E600005E042F0004010BD4FF0FF30FBE74FF0BF
:101E7000FF30F8E74FF0FF30F5E701466FF4004020
:101E8000084420B1012804D0022806D103E0012033
:101E900070470120FCE70120FAE70020F8E702463E
:101EA0006FF40040104420B1012805D0022809D168
:101EB00005E04FF0FF3070474FF0FF30FBE74FF089
:101EC000FF30F8E74FF0FF30F5E701466FF40040D0
:101ED000084420B1012804D0022806D103E00020E4
:101EE00070470020FCE70020FAE70020F8E7000038
:101EF000800E00E024000020A55AA55A3A5354440D
:101F0000494E00003A5354444F5554003A535444F8
:101F1000455252000FB4044910B503AA029800F0CC
:101F200071F810BC5DF814FBB00000204FF0000207
:101F300000B5134694469646203922BFA0E80C50BF
:101F4000A0E80C50B1F12001BFF4F7AF090728BF9A
:101F5000A0E80C5048BF0CC05DF804EB890028BF16
:101F600040F8042B08BF704748BF20F8022B11F03F
:101F7000804F18BF00F8012B704700004FF0013C64
:101F800050F8042B51F8043B9A4221D1A2EB0C03E8
:101F9000934313EACC1317D150F8042B51F8043BA8
:101FA0009A4215D1A2EB0C03934313EACC130BD145
:101FB00050F8042B51F8043B9A4209D1A2EB0C03D0
:101FC000934313EACC13DBD04FF00000704700BFFF
:101FD000D01A01BAB1FA81F101F0180122FA01F028
:101FE000CB40C1F12001DBB2C0B2C01A2CFA01F320
:101FF000D11A914311EAC311E6D170477047704777
:1020000070470000074B70B50D467B4400F015F893
:102010000446284600F024F810B14FF0FF3070BDA0
:10202000204670BD1B0A0000004870475801002080
:1020300001694A1C02610878704700B58FB0CDE98C
:1020400001310021059105497944CDE9031011467C
:10205000684600F0F5F80FB000BD0000E5FFFFFF97
:10206000007B00F08000704710B542485421FFF714
:102070005DFF41485421FFF759FF40485421FFF7C5
:1020800055FF3F493B483C4A3F4B08603D490A6089
:102090003A491960531C0365481C10650120086506
:1020A0003B48344A39A1784400F0ECF920B938486B
:1020B00078440A3800F08BFA37482F4A35A1784423
:1020C00000F0E0F920B9344878440A3800F07FFA8B
:1020D00032482A4A2FA1784400F0D4F920B92F4879
:1020E00078440A3800F073FA40232248DC000021CB
:1020F000224600F0A4F920B125487844543800F075
:1021000066FA1D4822464023002100F098F920B1CC
:1021100021487844543800F05AFA184822461023CF
:10212000002100F08CF9002806D01C487844BDE856
:102130001040563800F04BBA10BD104870B5006D15
:1021400020F001040B4800F013FA0B4800F010FADD
:102150000A4800F00DFA09E0206D20F00105204644
:1021600000F006FA204600F044F82C46002CF3D18B
:1021700070BD00005C000020B000002004010020C1
:10218000280000202C0000203000002072000000F9
:10219000A2090000770000009109000081090000F9
:1021A00000487047580100207546FFF7F9FFAE461A
:1021B00005006946534620F00700854618B020B553
:1021C000FFF7ACFDBDE820404FF000064FF00007E0
:1021D0004FF000084FF0000B21F00701AC46ACE8CF
:1021E000C009ACE8C009ACE8C009ACE8C0098D463C
:1021F000704770B50446051F00F0F0F90068002C28
:1022000014BF446870BD002C18BFAC423CBF2046D0
:102210006468F8D301680A18AA4218BF456003D160
:102220002A6805461144016028684119A1421CBF73
:102230006C6070BD6168696021680844286070BD89
:102240002DE9F04106460024D6E90170F568804684
:10225000304603E04146B847641C3046A847002892
:10226000F8D12046BDE8F0812DE9F04705460C463F
:10227000C86820F4201040F48000C860800602D5B1
:10228000084600F0F8FAE06841F282014FF0FF39A9
:102290000140022903D0204600F096FAB5E000F490
:1022A0002041B1F5004F0FD1C00306D56168E06A47
:1022B000884200D80846606006E02069E0626060FD
:1022C0006069FFF702FEA061A0680022EEB200285C
:1022D0000DDAE1688B050AD4C043A06041F4903068
:1022E0002260E0606068411C61600670A5E0E06803
:1022F0009046226040F40050E060206968BB60694D
:10230000FFF7BBFD012704F12405A0B1A08910F45B
:10231000407F08D0E06900F0ACF9206118B1E068B6
:1023200040F4006016E0E7612561E06820F4407049
:1023300040F480600EE0E06900F09BF90028206125
:10234000F1D0E06840F4006010F4407FE06002D11A
:1023500040F48070E06020696060E06825696FF09B
:10236000010AC1051FD56168E06A884200D80846A5
:10237000411B04D02246284600F030FAF0BBE0684A
:10238000010203D5E562C4E9015854E0691CE16229
:102390006160E16940F48030491EC4E902103046B2
:1023A0002E70BDE8F087010202D500F480320AE009
:1023B0006068411C61600670E0680A2E40F480305D
:1023C000E06006D00022E16A6068814203D90B46D2
:1023D00002E00122F7E70346A7895B1B7F0503D4D0
:1023E000E7699F4200DDE2B1814200D80146E56223
:1023F0000F1AC4E90158002B09DD00E005E0224670
:102400001946284600F0EAF908B14846C9E747B13D
:10241000A069E5626560C01BA061E06840F0100043
:10242000E060E068000208D56168A069E562491BC8
:1024300008446560A0615046B3E73046B1E770B527
:10244000C468A50713D0650211D4B2F5807F09D006
:10245000B2F5007F06D0B2F5806F08D1012300F1FC
:10246000240106E05D1E6FF07F46B54201D30120D6
:1024700070BD0161C361416024F470611143C160AA
:10248000002070BD2DE9F0410C4607461646104667
:1024900000F06EF82078611C61280AD0722802D002
:1024A00077283CD102E00125002405E00225042420
:1024B00002E0082448F2020511F8010B2B2806D08F
:1024C000622809D011F8010C74280AD00BE045F0FD
:1024D000030544F00204EFE745F0040544F001046D
:1024E000EAE744F0100438462146FFF751FC411C4E
:1024F00015D00021316171604FF40071F560F16118
:102500007061200704D530460222002100F0E0F877
:10251000306D40F0010030653046BDE8F0810020AC
:10252000FBE72DE9F0410D460646104C206DC10732
:1025300004D0410804D020F00104F7E722460EE061
:10254000542000F096F807000ED0206D47F00101EE
:102550000843542120653846FFF7E8FC3A462946EF
:102560003046BDE8F0418DE70020D6E75C00002052
:102570002DE9F04704464FF000094FF0FF37C568DA
:10258000D4E90486A80707D0204600F051F9304668
:10259000FFF726FC002802DA3846BDE8F087280558
:1025A00002D54046FFF725FE4C212046FFF7BEFC32
:1025B000206D20F0010020654846EEE710B5044686
:1025C000AFF300802046BDE81040FDF72EBE10B5E9
:1025D00000F078F9BDE8104000F06EB9004870478F
:1025E00060010020704770477047704738B5044657
:1025F0000A4600206946AFF30080002808BF38BDB6
:1026000002460099204600F084F9012038BD0120DF
:1026100000F0D3B9F8B5AFF30080054600200C46B2
:10262000102000BF0646A819A0420DD932466946BF
:102630000020AFF30080070008BF00F0BEF900984B
:10264000A04218BF0546C419FFF7C8FF056007463A
:10265000F01D20F007004619284600F053F9B44257
:1026600008BFF8BDA21B31463868BDE8F84000F04D
:1026700050B970B50646FFF7B1FF056806F10B00CB
:1026800020F00704B4429CBF002070BD2B466A684E
:10269000BAB11068A04210D304F1080188423CBFCF
:1026A0005068586007D35168101941601168091BC0
:1026B000016058601460101D70BD13465268002AF6
:1026C000E7D121462846FFF791FF0028DED170BDF3
:1026D0002DE9F041044616460D464769007B800708
:1026E0002ED03846FFF7C9FB50BB3EB3012E02D0B7
:1026F000022E25D104E0204600F025F905441DE016
:102700003846FFF7E2FBE168002841F01001E16084
:1027100005DA204600F058F80120BDE8F081C90331
:102720000BD56268E16A914200D81146A269114452
:102730002269891A814200DD08460544002D01DA2C
:102740000220EAE7E16A6068E268814206D291030A
:10275000E06203D522F4003141F01002A66900279F
:10276000AE4213DCE16A814201D90B4600E0034628
:1027700003EB060C2369ACEB030CAC4506DD814290
:1027800001D98C4600E084469C4505D1A7602760AE
:1027900042F02000A5620DE0AD1BE669AE1B814250
:1027A000A66000D90846C01A281A2060581960602F
:1027B00022F0200003490840E060002084F84870BF
:1027C000ABE70000BFCFD7FFC16821F4001141F093
:1027D0008001C16000218160016070472DE9F047F0
:1027E000814614460E464FF0FF383248D568576987
:1027F000054209D03846A169FFF751FB002811DBDB
:102800002C48C0430540E5602B46324649463846D1
:10281000FFF7F9FAA16920F00042B21A114400282A
:10282000A16103D02046FFF7CFFF4046BDE8F08707
:1028300070B504460569C06A6168884200D80846D8
:10284000E16821F42011E160C90312D5A84208D043
:102850002246411B2846FFF7C1FF10B14FF0FF3061
:1028600070BD0020E562C4E90150E06820F48030CA
:10287000E060002070BD10B50446C06820F0200064
:10288000E060A16AA06988420DD02046FFF7D0FF22
:10289000E06820F4405040F01000E060A06AA061C1
:1028A0002069E062606044F24001E0688843E060D3
:1028B00010BD000010000200002801D000F01CB87C
:1028C0007047000010B5014602A000F05DF801203D
:1028D00010BD000053494752545245443A205265B6
:1028E0006469726563743A2063616E2774206F7047
:1028F000656E3A200000000001491820ABBEFEE7DB
:102900002600020000210160C0E90110704710207C
:102910007047034640688C46002818BF88423CBF79
:1029200003464068F8D318681844884207D00CF171
:10293000030020F00700001D411A521A0146081D2D
:102940000A60FFF756BC10B50146C268900703D075
:10295000900607D5886A0AE0FFF766FB012101604F
:10296000881E10BD8B69486818440B69C01A91F81D
:1029700048301BB191F84910401A10BD1103FCD525
:102980000028FADD401E10BD70B505460C460A2031
:1029900000E06D1C00F018F835B128780028F8D157
:1029A00002E0641C00F010F814B120780028F8D17F
:1029B000BDE870400A2000F007B810B500F00CF830
:1029C000BDE81040FFF778BF08B569468DF80000F4
:1029D0000320ABBE08BD704710B5012805D000210B
:1029E00003A0FFF7D1FF012010BD09A1F8E7000007
:1029F00053494752544D454D3A204F7574206F66E8
:102A00002068656170206D656D6F7279000000004F
:102A10003A2048656170206D656D6F727920636F33
:102A200072727570746564008A68002A01DCFFF7B1
:102A30001BBC521E8A604A68C0B2531C4B601070A7
:102A400070474FF04070E1EE100A70473A5354441B
:102A5000494E003A5354444F5554003A5354444558
:102A600052520000842A00080000002034000000B8
:102A7000C4010008B82A00083400002084070000C0
:102A8000E0010008007A030A0000000000000000D6
:102A90000102030406070809000000000102030404
:102AA0000102030406070809A55AA55A0000000000
:082AB00000000000000000001E
:040000050800018965
:00000001FF
