:020000040800F2
:10000000D00900203D2A00082F0200083102000814
:1000100035020008390200083D0200080000000017
:100020000000000000000000000000004102000885
:1000300043020008000000004502000847020008D3
:10004000572A0008572A0008572A0008572A00088C
:10005000572A0008572A0008572A0008572A00087C
:10006000572A0008572A0008572A0008572A00086C
:10007000572A0008572A0008572A00081F0C0008B2
:10008000572A0008572A0008572A00088306000844
:100090007D070008572A0008572A0008572A000839
:1000A000572A0008572A0008572A0008572A00082C
:1000B000572A0008572A0008572A0008572A00081C
:1000C000572A0008572A0008572A0008572A00080C
:1000D000572A0008572A0008572A0008572A0008FC
:1000E000572A0008572A0008572A0008572A0008EC
:1000F000572A0008572A0008572A0008572A0008DC
:10010000572A0008572A0008572A0008572A0008CB
:100110006F0B0008572A0008572A0008572A0008C2
:10012000572A0008572A0008572A0008572A0008AB
:10013000572A0008572A0008572A0008990600087D
:10014000FB060008572A0008572A0008572A00080B
:10015000572A0008572A0008572A0008572A00087B
:10016000572A0008572A0008572A0008572A00086B
:10017000572A0008572A0008572A0008572A00085B
:10018000572A0008572A000800F002F800F03CF84F
:100190000AA090E8000C82448344AAF10107DA45E2
:1001A00001D100F031F8AFF2090EBAE80F0013F0F8
:1001B000010F18BFFB1A43F0010318474429000040
:1001C00064290000103A24BF78C878C1FAD85207D1
:1001D00024BF30C830C144BF04680C6070470000C1
:1001E0000023002400250026103A28BF78C1FBD840
:1001F000520728BF30C148BF0B6070471FB502F0DF
:100200007AFC1FBD10B510BD02F047FC1146FFF788
:10021000F5FF00F008F802F065FC03B4FFF7F2FF09
:1002200003BC02F02FFC00F017F900BFFEE7704797
:1002300000BFFEE700BFFEE700BFFEE700BFFEE72E
:1002400070477047704770470CB5002001900090D0
:100250007648006840F480307449086000BF7348F5
:10026000006800F4003000900198401C0190009854
:1002700018B90198B0F5A04FF1D16C48006800F4AE
:10028000003010B10120009001E0002000900098A3
:10029000012846D165484030006840F080506349ED
:1002A000403108606248006840F44040604908609E
:1002B0005E48083000685D490831086008460068FB
:1002C00040F4004008600846006840F4A050086010
:1002D0005848091F0860081F006840F08070091F17
:1002E000086000BF5148006800F000700028F9D095
:1002F00040F20570504908604C480830006820F012
:1003000003004A49083108600846006840F00200CE
:10031000086000BF45480830006800F00C0008285D
:10032000F8D10CBD10B54548006840F47000434951
:1003300008603E48006840F001003C490860002029
:100340003A4908310860394800683D490840374952
:1003500008603C48091D0860081F006820F48020E0
:10036000091F0860002031490C310860FFF76CFF5D
:100370004FF0006031498039086010BD70B5002031
:100380000022022300240221284D08352D6805F0A3
:100390000C0020B1042806D0082834D107E02A4DEB
:1003A0002A4E356033E02A4D284E35602FE01F4D30
:1003B0002D1D2D68C5F380541C4D2D1D2D6805F095
:1003C0003F0154B1224DB5FBF1F5184E361D36688C
:1003D000C6F3881605FB06F209E01B4DB5FBF1F5E7
:1003E000124E361D3668C6F3881605FB06F20F4D11
:1003F0002D1D2D68C5F301456D1C6B00B2FBF3F597
:10040000124E356003E0104D104E356000BF00BF46
:10041000064D08352D68C5F303150E4E705D0B4D66
:100420002D68C540094E356070BD0000003802409F
:100430000070004008544007003C024088ED00E096
:10044000FFFFF6FE103000240024F400000000201E
:1004500000127A000400002010B54FF4A06000F0F4
:100460000FFD4FF4E13000F049FA4FF4E13000F0B5
:10047000A2FA4FF4E13000F0E4FB0023032208214C
:10048000104600F007F8002303220821104600F070
:100490007AF810BDF0B58BB004460D4616461F46DF
:1004A0000121084601F04CFF0121480601F091FFAF
:1004B0004FF4C050099002208DF8280009A9FE4889
:1004C00001F0A0FC09220B21FB4801F026FD0922C6
:1004D0000C21F94801F021FDF84800F041FD06A883
:1004E00000F062FE00208DF81E0001208DF81F0034
:1004F00000208DF820008DF821008DF822008DF865
:1005000023008DF81A708DF81B008DF81C508DF8A3
:100510001D40ADF8186006A9E84800F03AFD00203B
:100520008DF812008DF8130001208DF814000020C2
:10053000ADF80800ADF80A00ADF80C00ADF80E00FB
:10054000ADF8100001208DF8150002A800F0ABFDF9
:1005500001220221D94801F0A5F814208DF80400E9
:1005600003208DF8050001208DF806008DF80700A6
:1005700001A800F08AFC01220221D04801F092F883
:1005800000200BB0F0BDF0B58BB004460D4616460A
:100590001F460121022001F0D3FE0121880601F04F
:1005A00018FF4FF44050099002208DF828000020D9
:1005B0008DF82A0003208DF8290001208DF82B00EA
:1005C00009A9BF4801F01EFC09220C21BC4801F01A
:1005D000A4FC09220D21BA4801F09FFCB94800F0A3
:1005E000BFFC06A800F0E0FD00208DF81E000120F1
:1005F0008DF81F0000208DF820008DF821008DF867
:1006000022008DF823008DF81A708DF81B008DF8EC
:100610001C508DF81D40ADF8186006A9A94800F0DF
:10062000B8FC0E208DF8120000208DF81300012078
:100630008DF814000020ADF80800ADF80A00ADF800
:100640000C00ADF80E00ADF8100001208DF815007B
:1006500002A800F028FD40208DF8040003208DF84A
:1006600005008DF8060001208DF8070001A800F0B4
:100670000CFC01220221934801F014F800200BB079
:10068000F0BD10B501218D4801F074F818B10121B9
:100690008A4801F00AF910BD10B50121894801F01E
:1006A00069F818B10121874801F0FFF810BD30B595
:1006B00085B0054640F20520009000208DF8090025
:1006C0008DF8080000217F4800F054FF10B9002089
:1006D00005B030BD6A4600217A4800F0C8FE00240B
:1006E00004E00DF10B00005D2855641C9DF80A0024
:1006F000A042F6D89DF80B00EAE710B586B00221BB
:10070000704801F037F8C8B102216E4801F0CDF809
:1007100001AA00216B4800F0AAFE00BF0DF10F00F6
:10072000FFF7C5FF00BF002406E00DF10F00005DDC
:1007300065490855601CC4B2082CF6DB06B010BD34
:1007400030B585B0054600215C4800F013FF10B9B4
:10075000002005B030BD6A460021584800F087FEF1
:10076000002404E00DF10B00005D2855641C9DF889
:100770000A00A042F6D89DF80B00EAE710B586B053
:1007800002214E4800F0F6FFC8B102214B4801F0AB
:100790008CF801AA0021494800F069FE00BF0DF164
:1007A0000F00FFF7CDFF00BF002406E00DF10F00A2
:1007B000005D46490855601CC4B2082CF6DB06B043
:1007C00010BDF0B585B007460D46002440F251201B
:1007D00000901220019000208DF808008DF809008B
:1007E0008DF80A5000BF05E0395D0DF10B00015591
:1007F000601C84B2AC42F7DB6946304800F042FD31
:100800000646002401E0601C84B231462B4800F00B
:10081000D1FD18B940F6FF708442F4DB40F6FF705A
:10082000844202DB012005B0F0BD0020FBE700B5EB
:1008300085B04FF414700090002001908DF80800EE
:100840008DF8090008208DF80A001F4880788DF87F
:100850000B001D48C1788DF80C1081798DF80D10B2
:1008600000218DF80E108DF80F108DF810108DF8F6
:1008700011108DF812106946104800F003FD05B004
:1008800000BD2DE9F04186B080460C4615461E4657
:100890000C9F40F2FF10019000208DF80C008DF8A5
:1008A0000D0008208DF80E00200A8DF80F008DF83D
:1008B0001040290A0CE000000000024000640040E3
:1008C00000040240006800403C0000202800002096
:1008D0008DF811108DF81250310A8DF813108DF823
:1008E0001460390A8DF815108DF8167001A940466C
:1008F00000F0C8FC06B0BDE8F081000010B588B07B
:1009000004460121022001F01BFD0121880401F0B1
:1009100060FD07220A21FE4801F0FFFA07220B21A1
:10092000FB4801F0FAFA02208DF80C0003208DF844
:100930000D0000208DF80E0001208DF80F008002C0
:10094000029002A9F24801F05DFA4FF400600290B3
:1009500002A9EF4801F056FA04940020ADF8140003
:10096000ADF81600ADF81800ADF81C000C20ADF87D
:100970001A0004A9E74801F09EFE27208DF8040024
:1009800002208DF8050001208DF806008DF8070083
:1009900001A800F07AFA012240F22441DD4801F07A
:1009A000C8FF5021DB4801F0F6FF0121D94801F0D2
:1009B0000AFF08B010BD10B596B00446012104200E
:1009C00001F0BEFC0121C80401F003FD08220A2148
:1009D000D14801F0A2FA08220B21CF4801F09DFA7C
:1009E0004FF44060149002208DF8540003208DF8DD
:1009F000550000208DF8560001208DF8570014A9ED
:100A0000C54801F0FFF910940020ADF84400ADF89E
:100A10004600ADF84800ADF84C000C20ADF84A0097
:100A200010A9BE4801F047FE0121480501F088FCED
:100A300001224021B94801F073FFB94800F088FF56
:100A4000684601F050F8B7480290642004904FF0D7
:100A500000600090B148001D0190002003900590B7
:100A60004FF48060069000200790089009904FF4A2
:100A700080300A9000200B900C900D900E906946EB
:100A8000A74801F007F80121A54801F03DF8002230
:100A9000A4496431A24801F05EF80121A04801F0A8
:100AA00066F8012280219D4801F03AFF00219C4810
:100AB000303001F029F89A48303000F049FF00BF8B
:100AC0009748303001F06DF80028F9D14FF0006000
:100AD00000909248001D019093480290402003909E
:100AE0000020049005904FF480600690002007904D
:100AF000089009904FF480300A9000200B9003205A
:100B00000C9000200D900E9069468548303000F022
:100B1000C1FF012210218248303001F082F80F20FD
:100B20008DF83C0003208DF83D008DF83E0001203B
:100B30008DF83F000FA800F0A8F9012240F22441EF
:100B4000764801F0F6FE34208DF83C0003208DF845
:100B50003D008DF83E0001208DF83F000FA800F009
:100B600094F901216D4801F02EFE16B010BD10B5AC
:100B700040F22441694801F017FFE8B16748008856
:100B80006648001D00880021654800F0BDFF6749E8
:100B9000634801F032F8624800F0D9FFC0F1640008
:100BA0006349087000BF00BF64215D4800F0CDFFBD
:100BB00001215B4800F0A8FF10BD10B5044600BF3E
:100BC0005748303000F0EDFF0028F9D12146544855
:100BD000303000F0BAFF01215148303000F094FF6E
:100BE00010BD70B5044600254F4D05F8014B01209E
:100BF000FFF7E3FF70BD2DE9F04106460D460024E6
:100C00000027494F00BF03E0305D3855601C84B2B7
:100C1000AC42F9DB2846FFF7D0FFBDE8F08110B504
:100C200044493F48303000F0CCFF48B100213C48F7
:100C3000303000F069FF3F493948303000F0DDFFC7
:100C400010BD10B596B004460121042001F078FBD8
:100C50000121202001F0CEFB02208DF8540000205D
:100C60008DF85600C020149001208DF85700032005
:100C70008DF8550014A9284801F0C4F8082206216F
:100C8000254801F04AF908220721234801F045F9D7
:100C9000294801F0A9FC10940020ADF84C000C206C
:100CA000ADF84A000020ADF84800ADF84600ADF8B8
:100CB000440010A9204801F0FEFC0121880501F044
:100CC0003FFB012240211C4801F02AFE684600F04B
:100CD0000AFF1A480290642004904FF020600090B0
:100CE0001548001D01900020039005904FF480608E
:100CF000069000200890079009904FF480300A90E9
:100D000000200B900C900D900E9069460C4819E055
:100D1000000402400048004000080240004C00402F
:100D2000406002407C0100201801002000003010CB
:100D3000140000202000002000140140A802002020
:100D40002864024000F0A6FE0121494800F0DCFEC4
:100D500000224849464800F0FEFE0121444800F0C8
:100D600006FF01228021444801F0DAFD00214048BD
:100D7000903000F0C9FE3E48903000F0E9FD00BF21
:100D80003B48903000F00DFF0028F9D14FF0206073
:100D900000903948001D019038480290402003908F
:100DA00064200490002005904FF48060069000209D
:100DB0000790089009900A900B9003200C90002057
:100DC0000D900E9069462A48903000F063FE012194
:100DD0002748903000F098FE46208DF83C00022015
:100DE0008DF83D0001208DF83E008DF83F000FA8E2
:100DF00000F04BF847208DF83C0001208DF83F00B3
:100E00008DF83D0002208DF83E000FA800F03DF85F
:100E1000012240F22441184801F08BFD01211648BF
:100E200001F0D1FC0121144801F0CDFC16B010BD39
:100E300010B504464FF020510D48903000F0DDFE13
:100E400000210B48903000F05FFE00BF0848903052
:100E500000F0A7FE0028F9D121460548903000F0A7
:100E600074FE01210248903000F04EFE10BD0000DB
:100E7000286402400C0300200014014044020020BA
:100E800032490143324A1160704770B50021002396
:100E90000F22C4781CB32E4C246804F4E064C4F51B
:100EA000E064C4F30721C1F10404E3B20A414478C9
:100EB0009C40E1B28478144021430C07210E254C5C
:100EC00005786155047804F01F050124AC400578CD
:100ED0006D11AD0005F1E025C5F8004109E0047889
:100EE00004F01F050124AC401B4D0678761145F82F
:100EF000264070BD194A0A400243154B1B1F1A6059
:100F0000704739B1124A121D12680243104B1B1D63
:100F10001A6006E00E4A121D126882430C4B1B1D1C
:100F20001A607047042808D14FF0E021096941F0A8
:100F300004014FF0E022116107E04FF0E021096960
:100F400021F004014FF0E022116170470000FA0522
:100F50000CED00E000E400E080E100E080FFFF1F16
:100F600010B50446FE48844209D10121480601F02B
:100F700085FA00214FF0007001F080FA08E00121AD
:100F8000880601F07BFA00214FF0806001F076FACC
:100F900010BD30B5024600200023146824F002047E
:100FA0001460146844F00104146000E05B1C546891
:100FB00004F001041CB94FF6FF74A342F6D1546843
:100FC00004F001040CB900206CE08C79012C04D1F0
:100FD000146844F08004146003E0146824F0800472
:100FE0001460CC79012C04D1146844F040041460DE
:100FF00003E0146824F0400414600C7A012C04D13E
:10100000146844F02004146003E0146824F0200401
:1010100014604C7A012C04D1146844F0100414605C
:1010200003E0146824F0100414608C7A012C04D1BD
:10103000146844F00804146003E0146824F0080401
:101040001460CC7A012C04D1146844F004041460B8
:1010500003E0146824F0040414608C78A407CD78AD
:1010600044EA05640D7944EA05444D7944EA05549F
:101070000D886D1E2C43D461146824F001041460A3
:10108000002300E05B1C546804F001041CB14FF61F
:10109000FF74A342F6D1546804F001040CB100209F
:1010A00000E0012030BD10B50021837A012202FA50
:1010B00003F1AC4A126842F00102AA4B1A60A94A35
:1010C0001C3212688A43A74B1C331A60027BCAB9D0
:1010D000A44A0C3212688A43A24B0C331A6042882D
:1010E000C38842EA03439F4A4032847A42F834304C
:1010F0000288838842EA03439A4A4032847A02EBA8
:10110000C4025360027B012A19D1964A0C3212683C
:101110000A43944B0C331A604288038842EA034323
:10112000904A4032847A42F83430C288838842EA56
:1011300003438C4A4032847A02EBC4025360C27A81
:101140003AB9884A121D12688A43864B1B1D1A60E1
:1011500006E0844A121D12680A43824B1B1D1A6066
:10116000028932B97F4A143212688A437D4B1433A4
:101170001A600289012A06D17A4A143212680A4397
:10118000784B14331A60427B012A06D1754A1C320F
:1011900012680A43734B1C331A60724A126822F0B9
:1011A0000102704B1A6010BD00218171C171017282
:1011B00041728172C1728170C1700321017102217B
:1011C00041710121018070476649096841F00101C0
:1011D000644A11601146096843F60E729143614AF0
:1011E00011601146096841EA002111601146096841
:1011F00021F001011160704721B1026842F4803290
:10120000026003E0026822F4803202607047E1B1BC
:10121000026842F0800202604FF4C272125842F437
:1012200080734FF4C27213504FF4CA72125842F4D2
:1012300080734FF4CA7213504FF4D272125842F4B2
:1012400080734FF4D27213501BE0026822F08002C8
:1012500002604FF4C272125822F480734FF4C272CB
:1012600013504FF4CA72125822F480734FF4CA72AA
:1012700013504FF4D272125822F480734FF4D2728A
:101280001350704710B502460020936803F0806346
:10129000B3F1806F00D110E0936803F00063B3F105
:1012A000006F01D1012008E0936803F08053B3F18F
:1012B000805F01D1022000E00420042879D002F5EB
:1012C000C07303EB00131B6803F0010402F5C07345
:1012D00003EB00131C600B7A7BB94B7A0C8843EA52
:1012E000445302F5C07404EB00142468234302F550
:1012F000C07404EB0014236010E00B7A4C6843EADE
:10130000C4034C7A234302F5C07404EB0014246830
:10131000234302F5C07404EB001423608B7A03F0BE
:101320000F038B7202F5C07303EB00135B6823F0AD
:101330000F0402F5C07303EB00135C6002F5C07389
:1013400003EB00135B688C7A234302F5C07404EB53
:10135000001463608B7B1C064B7B44EA034403E070
:1013600000640040006600400B7B44EA0323CC7A13
:10137000234302F5C07404EB0014A3608B7C1C06AD
:101380004B7C44EA03440B7C44EA0323CC7B234399
:1013900002F5C07404EB0014E36002F5C07303EBC4
:1013A00000131B6843F0010402F5C07303EB001344
:1013B0001C6010BD10B50246002321B1012907D0E1
:1013C00002290FD109E09068F94C00EA04030BE010
:1013D0009068F84C00EA040306E09068F64C00EAD6
:1013E000040301E0002300BF00BFF44C181BA3421C
:1013F00016D007DC83B16FF08060184470B102280A
:1014000018D111E0B0F5007F10D0ED4C204448B168
:10141000B0F5003F0ED10BE002230DE000230BE0FE
:10142000002309E0002307E0012305E0012303E096
:10143000012301E0002300BF00BFD8B210BD21B1DD
:10144000012907D002290FD109E0826842F0800209
:1014500082600AE0826842F40042826005E08268AD
:1014600042F40002826000E000BF00BF704710B588
:1014700000F5D87303EB01131B6803F00403137228
:10148000137A53B900F5D87303EB01131B6840F2CC
:10149000FF7404EA5353136009E000F5D87303EBBB
:1014A00001131B686FF0604404EAD303536000F536
:1014B000D87303EB01131B6803F00203537200F5AA
:1014C000D87303EB01135B6803F00F03937200F50D
:1014D000D87303EB01135B681B0AD37400F5D87350
:1014E00003EB01139B68D37200F5D87303EB011370
:1014F0009B681C0A147300F5D87303EB01139B68F7
:101500001C0C547300F5D87303EB01139B681B0E7E
:10151000937300F5D87303EB0113DB68D37300F505
:10152000D87303EB0113DB681C0A147400F5D8733D
:1015300003EB0113DB681C0C547400F5D87303EB48
:101540000113DB681B0E937421B9C36843F02003B9
:10155000C36003E0036943F02003036110BD21B9B8
:10156000C26842F02002C26003E0026942F0200239
:10157000026170470246002019B9D36803F00300E6
:1015800006E0012903D1136903F0030000E0002005
:10159000704710B502460B4600204FF6FF71BBB9ED
:1015A000146824F0020444F00104146000E0491EB1
:1015B000546804F00304012C01D00029F7D15468C9
:1015C00004F00304012C01D0002032E0012030E0BF
:1015D000012B13D1146824F00304146000E0491EA9
:1015E000546804F003040CB10029F8D1546804F0E5
:1015F00003040CB100201CE001201AE0022B17D1DB
:10160000146824F0010444F00204146000E0491E50
:10161000546804F00304022C01D00029F7D1546867
:1016200004F00304022C01D0002002E0012000E0BD
:10163000002010BD014600200A6822F0010242F09D
:1016400002020A604A6802F00302022A00D1012065
:10165000704701464FF6FF7200200B6823F002032B
:101660000B6000E0521E4B6803F00203022B01D115
:10167000002AF7D14B6803F00203022B00D00120AF
:101680007047014600208A6902F0700070470146E9
:1016900000208A69100E7047014600208A69C2F353
:1016A000074070471AB143690B43436102E0436945
:1016B0008B434361704710B50246002001F470036C
:1016C00043B19369C1F3130423400BB101202DE012
:1016D00000202BE001F0807343B15368C1F3130481
:1016E00023400BB1012021E000201FE001F0006346
:1016F00043B19368C1F3130423400BB1012015E0FB
:10170000002013E001F0007343B1D368C1F3130468
:1017100023400BB1012009E0002007E01369C1F369
:10172000130423400BB1012000E0002010BD002273
:10173000244B994202D10023836111E0C1F31302CB
:1017400001F000730BB1C2600AE001F080630BB1DD
:10175000026105E001F000630BB1826000E04260CD
:1017600070470246002002EA01030BB1012000E0AD
:101770000020704770B504460D4600266069284079
:10178000002872D0B5F5807F69D01DDC082D42D0CD
:1017900006DC012D2DD0022D31D0042D7FD134E077
:1017A000102D3ED0202D42D0402D78D145E00000B4
:1017B00003000004000300080000031000010008FB
:1017C0000001FFF77000F030B5F5004F61D009DC83
:1017D000B5F5007F4AD0B5F5806F4DD0B5F5006FF7
:1017E0005DD150E0B5F5803F2DD0B5F5003F56D125
:1017F0002FE0A0685549FFF7B4FF064651E0E068C6
:101800000321FFF7AEFF06464BE0E0680821FFF733
:10181000A8FF064645E0E0681021FFF7A2FF064654
:101820003FE020690321FFF79CFF064639E020696D
:101830000821FFF796FF064633E020691021FFF7E5
:1018400090FF06462DE060680821FFF78AFF0646F4
:1018500027E060681021FFF784FF064621E0A069B9
:101860000121FFF77EFF06461BE01BE0A069022175
:10187000FFF777FF064614E0A0690421FFF771FF28
:1018800006460EE00BE0A0697021FFF76AFF0646EE
:1018900007E060680421FFF764FF064601E00026C8
:1018A00000BF00E00026304670BDB1F5007F3AD0A1
:1018B0000FDC202928D006DC01291CD004291DD0EA
:1018C000082940D11DE0402921D0B1F5807F3AD1CF
:1018D00026E0B1F5004F31D006DCB1F5806F25D0A0
:1018E000B1F5006F2FD124E0B1F5803F12D0B1F5F2
:1018F000003F28D111E0154A826025E00822C2602D
:1019000022E01022C2601FE0082202611CE01022C7
:10191000026119E00822426016E01022426013E0E2
:101920000422426010E0042242600DE00422426082
:101930000AE0002282610422426005E00022826106
:101940000422426000E000BF00BF704701010100B7
:10195000016821F0010101600021016041608160A6
:10196000C160016121214161DB49884204D13D21EF
:10197000D94A103A91608CE0D7491831884205D194
:101980004FF47461D44A103A916082E0D249303108
:10199000884205D14FF47411CF4A103A916078E033
:1019A000CD494831884205D14FF07461CA4A103A96
:1019B00091606EE0C8496031884204D1C749C64A87
:1019C000103AD16065E0C4497831884204D1C449F5
:1019D000C14A103AD1605CE0BF499031884204D1DD
:1019E000C049BD4A103AD16053E0BB49A831884292
:1019F00005D14FF03D51B84A103AD16049E0BA499B
:101A0000884204D13D21B84A083A116041E0B64904
:101A10001831884205D14FF47461B34A083A116015
:101A200037E0B1493031884205D14FF47411AE4AE4
:101A3000083A11602DE0AC494831884205D14FF099
:101A40007461A94A083A116023E0A74960318842CD
:101A500004D1A249A44A121F11601AE0A2497831A8
:101A6000884204D19E49A04A121F116011E09E498C
:101A70009031884204D19B499B4A121F116008E0B3
:101A80009949A831884204D14FF03D51964A121F1E
:101A90001160704710B500220268944B1A40CC6860
:101AA0000B6823434C6923438C692343CC6923434C
:101AB0000C6A23434C6A23438C6A23434C6B2343B5
:101AC0008C6B23431A430260426922F00702D1E97A
:101AD0000B3423431A4342610B6943604B688360B4
:101AE0008B68C36010BD0021016041608160C160EE
:101AF000016141618161C161016241628162C162D2
:101B0000016341638163704721B1026842F00102C1
:101B1000026003E0026822F001020260704721B116
:101B2000026842F40042026003E0026822F40042CC
:101B30000260704721B1026842F02002026003E0B7
:101B4000026822F02002026070474160704701463F
:101B5000486880B2704722B1036843F400230360F1
:101B600003E0036823F4002303600161704721B19F
:101B7000026842F48022026003E0026822F48022BC
:101B8000026070470AB1016100E0C1607047014620
:101B900000200A6802F400220AB1012000E00020BF
:101BA0007047014600200A6802F001020AB10120D4
:101BB00000E000207047014600204A6902F038002A
:101BC000704730B503460A4600200024464DAB421C
:101BD00002D24149103901E04349103902F0005561
:101BE0000DB14C6800E00C68414D2C4004EA020540
:101BF0000DB1012000E0002030BD02463A4B9A4270
:101C000002D23548103801E03748103801F000534F
:101C10001BB1374B0B40C36002E0354B0B40836078
:101C2000704710B501F080034BB122B1436943F016
:101C30008003436103E0436923F08003436180290B
:101C40000BD02AB1036801F01E042343036004E0B3
:101C5000036801F01E04A343036010BD70B5024683
:101C6000002000240025204EB24202D21A4B103B25
:101C700001E01D4B103B1F4E0E4036B11E2606EAFA
:101C8000D124166806EA040502E0566906F08005CC
:101C900001F000560EB15C6800E01C68144E344040
:101CA00004EA010616B10DB1012000E0002070BD6C
:101CB00002460D4B9A4202D20748103801E00A480A
:101CC000103801F000531BB1094B0B40C36002E018
:101CD000074B0B4083607047106002403D000020BE
:101CE000400F002000003D20106402403F801CF0A7
:101CF0007D0F7D0F3C0F3C0F10B504469848844281
:101D000008D10121084600F086FB0021012000F0E7
:101D100082FB76E09348844208D10121022000F042
:101D20007AFB0021022000F076FB6AE08E488442B4
:101D300008D10121042000F06EFB0021042000F0F6
:101D40006AFB5EE08948844208D10121082000F046
:101D500062FB0021082000F05EFB52E084488442D0
:101D600008D10121102000F056FB0021102000F0C6
:101D700052FB46E07F48844208D10121202000F038
:101D80004AFB0021202000F046FB3AE07A488442DA
:101D900008D10121402000F03EFB0021402000F04E
:101DA0003AFB2EE07548844208D10121802000F0E2
:101DB00032FB0021802000F02EFB22E0704884429C
:101DC00008D10121801500F026FB0021A01500F0AC
:101DD00022FB16E06B48844208D10121401500F037
:101DE0001AFB0021601500F016FB0AE066488442E9
:101DF00007D10121001500F00EFB0021201500F095
:101E00000AFB10BDF0B50A4600210023002400BFE4
:101E10003DE0012505FA01F3156805EA03049C423B
:101E200034D105684F000326BE40B54305601579DF
:101E30004E00B5400668354305601579012D02D086
:101E40001579022D16D185684F000326BE40B54393
:101E5000856055794E00B540866835438560456894
:101E600001268E40B5434560456896798E40B6B2EE
:101E700035434560C5684F000326BE40B543C56085
:101E8000D5794E00B540C6683543C560491C102958
:101E9000BFD3F0BD4FF6FF710160002101714171A8
:101EA0008171C171704708B54FF480320092009A79
:101EB0000A430092009AC261C161009AC261C2697C
:101EC0000092C269009208BD0246002013690B40CF
:101ED0000BB1012000E0002070470146086980B284
:101EE00070470246002053690B400BB1012000E00F
:101EF000002070470146486980B2704701837047EF
:101F0000418370470AB1018300E04183704741611A
:101F1000704742694A4042617047F0B5002300248F
:101F20004D07ED0E02FA05F3CE1000F1200555F82D
:101F300026504E07F70E0F26BE40B543CF1000F1D6
:101F4000200646F82750CE1000F1200555F82650FF
:101F500045EA0304CE1000F1200545F82640F0BD07
:101F6000000002400004024000080240000C024051
:101F7000001002400014024000180240001C024001
:101F8000002002400024024000280240F948006876
:101F900040F00100F74908600020F6490831086068
:101FA000F4480068F4490840F2490860F348091D04
:101FB0000860F348EF4984310860F0481038091D83
:101FC0000860EC48006820F48020EA49086000209E
:101FD000E8490C310860E7498C31086070470021FE
:101FE000E44A921C117011460870704710B5014602
:101FF0000022002300204A11012A02D1DD4C23686F
:1020000008E0022A03D1DB4C7034236802E0D94C8B
:102010007434236801F01F02012494401C400CB169
:10202000012000E0002010BD38B500200090002401
:10203000002500BF3120FFF7D9FF05460098401C5E
:1020400000900098B0F5A04F01D0002DF2D03120C3
:10205000FFF7CCFF08B1012400E00024204638BD82
:1020600001460020C34A106820F0F80040EAC10091
:1020700010607047C349086070470021BD4A703244
:1020800011701170012802D004280AD104E0012146
:10209000B84A7032117005E00521B64A70321170ED
:1020A00000E000BF00BF7047B7490860704770B5D7
:1020B000049C41EA82150126C6EB530645EA064513
:1020C000054345EA0465AB4E361D356070BDAD492C
:1020D00008667047820142EA0172A64B84331A6097
:1020E0007047A8498866704710B5830143EA0163C9
:1020F00043EA02739F4C8834236010BDA1490867EE
:102100007047A049C864704702460020994B0833C5
:10211000186820F0EC6042EA01031843954B08333D
:102120001860704702460020924B0833186820F070
:10213000784042EA010318438E4B08331860704719
:10214000014600208B4A0832106820F00300084343
:102150001060704787480830006800F00C00704736
:1021600001460020834A0832106820F0F00008433E
:1021700010607047014600207E4A0832106820F443
:10218000E05008431060704701460020794A083249
:10219000106820F4604040EAC10010607047F0B55C
:1021A000002100220024022500260223714F083757
:1021B0003F6807F00C0121B1042905D0082937D167
:1021C00005E0724F076036E0714F076033E0694FFA
:1021D0003F1D3F68C7F38056664F3F1D3F6807F0BD
:1021E0003F036EB16A4FB7FBF3F7DFF888C10CF11C
:1021F000040CDCF800C0CCF3881C07FB0CF40CE0EA
:10220000624FB7FBF3F7DFF86CC10CF1040CDCF89C
:1022100000C0CCF3881C07FB0CF4564F3F1D3F68F1
:10222000C7F301477F1C7D00B4FBF5F7076002E0B0
:10223000564F076000BF00BF4E4F08373F6807F09A
:10224000F0010909534F7A5C0768D7404760494F4E
:1022500008373F6807F4E051890A4E4F7A5C4768B7
:10226000D7408760434F08373F6807F46041490B08
:10227000484F7A5C4768D740C760F0BD002100F442
:102280004072B2F5407F0AD13A4A0832116821F40F
:10229000F811414A02401143364A08321160354A6A
:1022A00070321268C0F30B031A43324B70331A605A
:1022B00070473549443908607047334940390860F0
:1022C000704736490860704701460020294A8C3221
:1022D000106820F01F004A1E1043264A8C321060FE
:1022E000704701460020234A8C32106820F4F850D1
:1022F0004A1E40EA02201F4A8C3210607047014695
:1023000000201C4A8C32106820F4401008431060F2
:10231000704701460020174A8C32106820F44000B4
:1023200008431060704701460020124A8C32106842
:1023300020F4403008431060704719490860704726
:1023400039B10C4A3032126802430A4B30331A60FA
:1023500006E0084A303212688243064B30331A6076
:102360007047F9B1034A343212680243014B3433E7
:102370001A601CE000380240FFFFF6EA103000242B
:102380000030002000004742800E47420024F40045
:1023900000127A0015000020FFFCFF0F5C0147428D
:1023A000E01147428F4A126882438E4B1A60704791
:1023B00039B18C4A121D126802438A4B1B1D1A60E8
:1023C00006E0884A121D12688243864B1B1D1A6064
:1023D000704739B1834A0C3212680243814B0C3387
:1023E0001A6006E07F4A0C32126882437D4B0C3340
:1023F0001A60704739B17B4A103212680243794B38
:1024000010331A6006E0774A103212688243754B27
:1024100010331A60704739B1724A243A1268024385
:10242000704B243B1A6006E06E4A243A12688243DD
:102430006C4B243B1A60704739B16A4A203A1268E3
:102440000243684B203B1A6006E0664A203A126855
:102450008243644B203B1A60704739B1614A1C3A91
:10246000126802435F4B1C3B1A6006E05D4A1C3A4F
:10247000126882435B4B1C3B1A60704739B1594A62
:10248000143A12680243574B143B1A6006E0554A4F
:10249000143A12688243534B143B1A60704739B1A7
:1024A000504A103A126802434E4B103B1A6006E045
:1024B0004C4A103A126882434A4B103B1A607047EC
:1024C00039B1484A1C3212680243464B1C331A6029
:1024D00006E0444A1C3212688243424B1C331A60A5
:1024E000704739B13F4A2032126802433D4B2033D6
:1024F0001A6006E03B4A203212688243394B20338F
:102500001A60704739B1374A243212680243354B9A
:1025100024331A6006E0334A243212688243314B76
:1025200024331A60704739B12E4A2C3212680243A4
:102530002C4B2C331A6006E02A4A2C321268824354
:10254000284B2C331A60704739B1264A3032126852
:102550000243244B30331A6006E0224A30321268BC
:102560008243204B30331A607047012808D11D493F
:102570003C31096841F008011A4A3C32116007E019
:1025800018493C31096821F00801164A3C321160B3
:10259000704739B1134A273A12780243114B273B4F
:1025A0001A7006E00F4A273A127882430D4B273BF8
:1025B0001A7070470B484030006840F0807009493D
:1025C00040310860704701460020064A283A1268E8
:1025D0000A400AB1012000E0002070470149263975
:1025E000087070473438024010B50446FA488442F7
:1025F00008D101211020FFF752FF00211020FFF722
:102600004EFF57E0F548844209D101214804FFF705
:1026100035FF00214FF40030FFF730FF4AE0F0486B
:10262000844209D101218804FFF728FF00214FF4DB
:102630008020FFF723FF3DE0EA48844209D10121D1
:10264000C804FFF71BFF00214FF40020FFF716FF1F
:1026500030E0E548844209D101210805FFF70EFF6B
:1026600000214FF48010FFF709FF23E0DF48844288
:1026700008D101212020FFF712FF00212020FFF7C1
:102680000EFF17E0DA48844209D101218807FFF7DD
:10269000F5FE00214FF08040FFF7F0FE0AE0D5483C
:1026A000844207D101214005FFF7E8FE00216005C3
:1026B000FFF7E4FE10BD2DE9FF4705460E46002456
:1026C000A14600BFA046B08900B100BF2C8A24F407
:1026D0004054F08804432C82AC8941F20C6084435E
:1026E000B08831890843718908430443AC81AC8ABE
:1026F00024F44074B0890443AC826846FFF74FFD70
:10270000B548854202D0B948854202D1DDF80C9027
:1027100001E0DDF80890A88900F4004040B109EB21
:10272000C90000EB091031684900B0FBF1F707E080
:1027300009EBC90000EB091031688900B0FBF1F723
:102740006420B7FBF0F004012009642101FB10783C
:10275000A88900F4004040B1322000EBC800B0FB73
:10276000F1F000F00700044308E0322000EB08100D
:102770006421B0FBF1F000F00F0004432C81BDE8B0
:10278000FF874FF41651016000218180C1800181D3
:102790000C21418100218181704710B50246002043
:1027A000108A20F470600B884C8823438C88234364
:1027B000CC8823431843108210BD00210180418042
:1027C0008180C180704721B1828942F400528281A8
:1027D00004E082894DF6FF731A4082817047028BB4
:1027E00002F47F420283028B0A430283704721B1C5
:1027F000828942F40042828103E08289C2F30E02A0
:102800008281704721B1828A42F40062828204E0B0
:10281000828A4FF2FF731A4082827047C1F3080226
:102820008280704701468888C0F308007047028A9A
:102830004FF6F0731A400282028A0A4302827047FE
:1028400021B1828942F00202828104E082894FF63E
:10285000FD731A408281704782894FF2FF731A40DC
:10286000828182890A4382817047028A4FF6DF7330
:102870001A400282028A0A430282704721B1028A08
:1028800042F48042028204E0028A4BF6FF731A404F
:1028900002827047818941F001018181704721B135
:1028A000828A42F00802828204E0828A4FF6F7733D
:1028B0001A4082827047028BD2B20283028B42EAB4
:1028C00001220283704721B1828A42F02002828273
:1028D00004E0828A4FF6DF731A408282704721B18A
:1028E000828A42F01002828204E0828A4FF6EF73FD
:1028F0001A4082827047828A4FF6FB731A408282A6
:10290000828A0A438282704721B1828A42F002029F
:10291000828204E0828A4FF6FD731A4082827047F9
:102920001AB1838A0B43838202E0838A8B438382BA
:102930007047F0B50346002400260025002040F62D
:102940006A17B94200D100BF1846C1F3421401F022
:102950001F06012707FA06F5012C01D10C3004E00F
:10296000022C01D1103000E014301AB107682F4357
:10297000076002E00768AF430760F0BD0246002031
:10298000B1F5007F00D100BF13880B400BB10120CF
:1029900000E00020704701F40072B2F5007F00D122
:1029A00000BFCA430280704770B50246002400236E
:1029B0000025002040F66A16B14200D100BFC1F3E5
:1029C000421501F01F03012606FA03F3012D13D16E
:1029D0009689334017E00000001001400044004099
:1029E00000480040004C00400050004000140140EE
:1029F00000780040007C0040022D02D1168A33404E
:102A000001E0968A33400C12012606FA04F4168877
:102A1000344013B10CB1012000E0002070BD10B5AE
:102A20000022002340F66A14A14200D100BF0A121E
:102A300001249440A3B2DC43048010BD09488047C0
:102A400009480047FEE7FEE7FEE7FEE7FEE7FEE790
:102A5000FEE7FEE7FEE7FEE704480549054A064BA8
:102A6000704700002503000889010008D0030020FA
:102A7000D0090020D0050020D00500207047704705
:102A80007047000001491820ABBEFEE72600020097
:102A9000004870477003002070477546FFF7F8FF45
:102AA000AE4605006946534620F00700854618B03B
:102AB00020B5FFF7D1FFBDE820404FF000064FF0F2
:102AC00000074FF000084FF0000B21F00701AC4663
:102AD000ACE8C009ACE8C009ACE8C009ACE8C00982
:102AE0008D46704710B50446AFF300802046BDE820
:102AF0001040FDF792BB4FF04070E1EE100A7047B6
:102B0000202B00080000002028000000C40100085D
:102B1000482B000828000020A8090000E001000858
:102B2000007A030A00000000000000000102030414
:102B30000607080900000000000102030401020367
:082B400004060708090000006B
:040000050800018965
:00000001FF
