:020000040800F2
:10000000200A0020DD2C00085502000857020008D5
:100010005B0200085F0200086302000800000000A5
:10002000000000000000000000000000670200085F
:1000300069020008000000006B0200086D02000861
:10004000F72C0008F72C0008F72C0008F72C000804
:10005000F72C0008F72C0008F72C0008F72C0008F4
:10006000F72C0008F72C0008F72C0008F72C0008E4
:10007000F72C0008F72C0008F72C0008F72C0008D4
:10008000F72C0008F72C0008F72C0008E3060008FE
:100090009D070008F72C0008F72C0008F72C000833
:1000A000F72C0008F72C0008F72C0008F72C0008A4
:1000B000F72C0008F72C0008F72C0008F72C000894
:1000C000F72C0008F72C0008F72C0008F72C000884
:1000D000F72C0008F72C0008F72C0008EF0A00089E
:1000E000F72C0008F72C0008F72C0008F72C000864
:1000F000F72C0008F72C0008F72C0008C10D0008A9
:10010000F72C0008F72C0008F72C0008F72C000843
:10011000F72C0008E30D0008F72C0008F72C000866
:10012000F72C0008F72C0008F72C0008F72C000823
:10013000F72C0008F72C0008F72C0008F906000837
:100140005B070008F72C0008F72C0008F72C0008C4
:10015000F72C0008F72C0008F72C0008F72C0008F3
:10016000F72C0008F72C0008F72C0008F72C0008E3
:10017000F72C0008F72C0008F72C0008F72C0008D3
:10018000F72C0008F72C000800F002F800F044F803
:100190000AA090E8000C82448344AAF10107DA45E2
:1001A00001D100F039F8AFF2090EBAE80F0013F0F0
:1001B000010F18BFFB1A43F0010318478C380000E9
:1001C000AC380000103A24BF78C878C1FAD852077A
:1001D00024BF30C830C144BF04680C6070470000C1
:1001E0000023002400250026103A28BF78C1FBD840
:1001F000520728BF30C148BF0B6070471FB503F0DE
:1002000011FC9DE8030002F05DFF02F0EFFF1FBD4F
:1002100010B503F054F810BD03F08CF81146FFF749
:10022000EDFF00F009F803F069FA03B4FFF7F0FFFF
:1002300003BC02F097FF000000F022F906E0102155
:10024000034802F03BFC0A2000F034FFF7E700000F
:1002500000480040704700BFFEE700BFFEE700BF58
:10026000FEE700BFFEE77047704770477047000029
:100270000CB50020019000907648006840F4803072
:100280007449086000BF7348006800F400300090B3
:100290000198401C0190009818B90198B0F5A04F42
:1002A000F1D16C48006800F4003010B101200090DA
:1002B00001E0002000900098012846D165484030B8
:1002C000006840F08050634940310860624800682F
:1002D00040F44040604908605E48083000685D496D
:1002E000083108600846006840F40040086008468D
:1002F000006840F4A05008605848091F0860081FB3
:10030000006840F08070091F086000BF5148006815
:1003100000F000700028F9D040F2057050490860E4
:100320004C480830006820F003004A490831086052
:100330000846006840F00200086000BF45480830E9
:10034000006800F00C000828F8D10CBD10B5454835
:10035000006840F47000434908603E48006840F07F
:1003600001003C49086000203A49083108603948DA
:1003700000683D490840374908603C48091D08604D
:10038000081F006820F48020091F08600020314900
:100390000C310860FFF76CFF4FF000603149803985
:1003A000086010BD70B50020002202230024022145
:1003B000284D08352D6805F00C0020B1042806D022
:1003C000082834D107E02A4D2A4E356033E02A4D03
:1003D000284E35602FE01F4D2D1D2D68C5F380542C
:1003E0001C4D2D1D2D6805F03F0154B1224DB5FB6C
:1003F000F1F5184E361D3668C6F3881605FB06F271
:1004000009E01B4DB5FBF1F5124E361D3668C6F3FB
:10041000881605FB06F20F4D2D1D2D68C5F301450D
:100420006D1C6B00B2FBF3F5124E356003E0104D0E
:10043000104E356000BF00BF064D08352D68C5F36E
:1004400003150E4E705D0B4D2D68C540094E35608D
:1004500070BD0000003802400070004008544007A2
:10046000003C024088ED00E0FFFFF6FE1030002463
:100470000024F4000000002000127A000400002094
:1004800010B54FF4A06000F04BFE4FF4E13000F0E7
:100490005BFA4FF4E13000F077FB4FF4E13000F00D
:1004A000D4FC002303220821104600F007F80023A3
:1004B00003220821104600F088F810BDF0B58BB07B
:1004C00004460D4616461F460121084602F088F8EC
:1004D0000121480602F0CDF84FF4C05009900220E7
:1004E0008DF8280009A9FB4801F0DCFD09220B2149
:1004F000F84801F062FE09220C21F64801F05DFE89
:10050000F54800F07DFE06A800F09EFF00208DF863
:100510001E0001208DF81F0000208DF820008DF8AE
:1005200021008DF822008DF823008DF81A708DF8C7
:100530001B008DF81C508DF81D40ADF8186006A901
:10054000E54800F076FE00208DF812008DF81300CB
:1005500001208DF814000020ADF80800ADF80A0065
:10056000ADF80C00ADF80E00ADF8100001208DF8CC
:10057000150002A800F0E7FE01220221D64801F092
:10058000E1F914208DF8040003208DF80500012006
:100590008DF806008DF8070001A800F0C6FD1320B5
:1005A0008DF8040003208DF8050001208DF8060069
:1005B0008DF8070001A800F0B8FD01220221C6480D
:1005C00001F0C0F900200BB0F0BDF0B58BB00446CF
:1005D0000D4616461F460121022002F001F80121B6
:1005E000880602F046F84FF44050099002208DF83A
:1005F000280000208DF82A0003208DF82900012012
:100600008DF82B0009A9B54801F04CFD09220C21F9
:10061000B24801F0D2FD09220D21B04801F0CDFD14
:10062000AF4800F0EDFD06A800F00EFF00208DF8A9
:100630001E0001208DF81F0000208DF820008DF88D
:1006400021008DF822008DF823008DF81A708DF8A6
:100650001B008DF81C508DF81D40ADF8186006A9E0
:100660009F4800F0E6FD0E208DF8120000208DF866
:10067000130001208DF814000020ADF80800ADF83B
:100680000A00ADF80C00ADF80E00ADF81000012026
:100690008DF8150002A800F056FE40208DF80400E9
:1006A00003208DF805008DF8060001208DF8070065
:1006B00001A800F03AFD3F208DF8040003208DF8DA
:1006C00005008DF8060001208DF8070001A800F054
:1006D0002CFD01220221824801F034F900200BB0E8
:1006E000F0BD10B501217C4801F094F918B1012149
:1006F000794801F02AFA10BD10B50121784801F0BF
:1007000089F918B10121764801F01FFA10BD30B502
:1007100085B0054640F20520009000208DF80900C4
:100720008DF8080000216E4801F074F810B900201F
:1007300005B030BD6A460021694800F0E8FF00249A
:1007400004E00DF10B00005D2855641C9DF80A00C3
:10075000A042F6D89DF80B00EAE710B586B002215A
:100760005F4801F057F9B8B102215D4801F0EDF999
:1007700001AA00215A4800F0CAFF0DF10F00FFF74F
:10078000C6FF002406E00DF10F00005D5549085535
:10079000601CC4B2082CF6DB06B010BD10B586B0E4
:1007A00002214D4801F036F998B102214A4801F082
:1007B000CCF901AA0021484800F0A9FF002406E076
:1007C0000DF10F00005D48490855601CC4B2082CAB
:1007D000F6DB06B010BDF0B585B007460D46002427
:1007E00040F2512000901220019000208DF8080066
:1007F0008DF809008DF80A5000BF05E0395D0DF154
:100800000B000155601C84B2AC42F7DB69463248EC
:1008100000F088FE0646002401E0601C84B23146E8
:100820002D4800F017FF18B940F6FF708442F4DB42
:1008300040F6FF70844202DB012005B0F0BD0020CD
:10084000FBE730B585B005460021234800F0E2FF04
:1008500010B9002005B030BD6A4600211E4800F0E6
:1008600056FF002404E00DF10B00005D2855641CC8
:100870009DF80A00A042F6D89DF80B00EAE700B503
:1008800085B04FF414700090002001908DF808009E
:100890008DF8090008208DF80A00124880788DF83C
:1008A0000B001048C1788DF80C1081798DF80D106F
:1008B00000218DF80E108DF80F108DF810108DF8A6
:1008C00011108DF812106946034800F02BFE05B098
:1008D00000BD00000000024000640040000402402F
:1008E0000068004054000020400000202DE9F04145
:1008F00086B080460C4615461E460C9F40F2FF10FF
:10090000019000208DF80C008DF80D0008208DF866
:100910000E00200A8DF80F008DF81040290A8DF87E
:1009200011108DF81250310A8DF813108DF81460E3
:10093000390A8DF815108DF8167001A9404600F09F
:10094000F1FD06B0BDE8F08110B596B00446012176
:10095000022001F045FE0121880401F08AFE0722F1
:100960000A21FC4801F029FC07220B21F94801F07B
:1009700024FC02208DF8440003208DF8450000205F
:100980008DF8460001208DF847008002109010A9D4
:10099000F04801F087FB4FF40060109010A9ED487B
:1009A00001F080FB12940020ADF84C00ADF84E0031
:1009B000ADF85000ADF854000C20ADF8520012A96B
:1009C000E54801F0C8FF27208DF83C0002208DF893
:1009D0003D0001208DF83E008DF83F000FA800F08B
:1009E000A4FB012240F22441DB4802F0F2F850213E
:1009F000D94802F020F90121480501F0F1FDD7485E
:100A000002906420049000200B900C900D900890B0
:100A10004FF48060069080100990CF48001D01902F
:100A200000200E90079005904FF400300A9080024D
:100A30000090002003906946C94801F07BF901212C
:100A4000C74801F0B1F901224021C34802F0B8F8CB
:100A500001228021C04802F0B3F80021C0483030A4
:100A600001F0A2F9BE48303001F0C2F800BFBC4826
:100A7000303001F0E6F90028F9D14FF00060009025
:100A8000B548001D0190B7480290402003906420B3
:100A90000490002005904FF480600690002007909D
:100AA000089009900A900B9003200C9000200D9064
:100AB0000E906946AA48303001F03CF90121A8485F
:100AC000303001F071F90E208DF83C0002208DF8D5
:100AD0003D0001208DF83E008DF83F000FA800F08A
:100AE00024FB01219C4801F0BEFF16B010BD10B5DB
:100AF00040F22441984802F0A7F828B396480088AD
:100B00009548001D008800219548303001F04CF9CF
:100B100095499348303001F0C0F99148303001F0E8
:100B200066F9C0F164009149087000BF90A002F01E
:100B300035FA00BF64218A48303001F056F90121AE
:100B40008748303001F030F910BD10B504464FF041
:100B5000C0518348303001F0A0F900218048303086
:100B600001F022F900BF7E48303001F06AF9002818
:100B7000F9D121467A48303001F037F9012178481F
:100B8000303001F011F910BD10B596B004460121C6
:100B9000042001F025FD0121082001F021FD0121A3
:100BA000080501F066FD0121480501F019FD02204C
:100BB0008DF8540000208DF856004FF480501490AA
:100BC00001208DF8570003208DF8550014A96A48BC
:100BD00001F068FA02208DF8540000208DF85600CC
:100BE0000420149001208DF8570003208DF8550043
:100BF00014A9624801F056FA08220C215E4801F05F
:100C0000DCFA082202215D4801F0D7FA1094002096
:100C1000ADF84C000C20ADF84A000020ADF84800BB
:100C2000ADF84600ADF8440010A9554801F093FE18
:100C300001224021524801F0C3FF684601F0A3F8A9
:100C400050480290642004904FF0006000904C489F
:100C5000001D01900020039005904FF480600690E5
:100C600000200890079009904FF480300A900020EF
:100C70000B900C900D900E9069463948183801F091
:100C800059F801213648183801F08EF835208DF8D2
:100C90003C0001208DF83F008DF83D0002208DF8CA
:100CA0003E000FA800F041FA012240F224413448EE
:100CB00001F08FFF0121324801F0D5FE0122802191
:100CC0002F4801F07DFF00212548903001F06CF89D
:100CD0002348903000F08CFF00BF2148903001F095
:100CE000B0F80028F9D14FF0006000902448001DB2
:100CF0000190254802904020039064200490002039
:100D000005904FF4806006900020079008900990AD
:100D10000A900B9003200C9000200D900E906946D5
:100D20000F48903001F006F801210D48903001F095
:100D30003BF82F208DF83C0002208DF83D0001206B
:100D40008DF83E008DF83F000FA800F0EEF916B0C8
:100D500010BD00000004024000480040CC0000200C
:100D60002860024068000020000C002014000020D1
:100D7000307833300000000000080240000C0240D0
:100D800000500040940100203001002010B50446BE
:100D90004FF02051BD4801F080F80021BB4801F020
:100DA00003F800BFB94801F04CF80028FAD12146F9
:100DB000B64801F01AF80121B44800F0F5FF10BD63
:100DC00010B54FF02051B14801F04BF840B100216F
:100DD000AE4800F0E9FF4FF02051AC4801F05DF85B
:100DE00010BD10B540F22441A94801F02DFF58B3C1
:100DF000A7480088A64880880021A448A83800F0A9
:100E0000D3FFA449A148A83801F047F89F48A83863
:100E100000F0EDFFC0F164009F49086000BFAFF231
:100E2000B00002F0BBF800BF64219848A83800F079
:100E3000DCFF01219548A83800F0B6FF00BFAFF2F3
:100E4000D00002F0ABF800BF10BD10B596B004465C
:100E50000121042001F0C4FB0121202001F01AFC33
:100E600002208DF8540000208DF85600C020149008
:100E700001208DF8570003208DF8550014A98748EC
:100E800001F010F908220621844801F096F90822A1
:100E90000721824801F091F9814801F0F5FC109496
:100EA0000020ADF84C000C20ADF84A000020ADF851
:100EB0004800ADF84600ADF8440010A9784801F0AC
:100EC0004AFD0121880501F08BFB01224021744875
:100ED00001F076FE684600F056FF724802906420EA
:100EE00004904FF0206000906D48001D019000209C
:100EF000039005904FF480600690002008900790C2
:100F000009904FF480300A9000200B900C900D90C7
:100F10000E906946644800F00DFF0121624800F020
:100F200043FF012280215E4801F04AFE00215E4815
:100F3000903000F039FF5C48903000F059FE00BF5F
:100F40005948903000F07DFF0028F9D14FF0206023
:100F500000905348001D0190544802904020039097
:100F600064200490002005904FF4806006900020DB
:100F70000790089009900A900B9003200C90002095
:100F80000D900E9069464848903000F0D3FE012144
:100F90004548903000F008FF46208DF83C000220C4
:100FA0008DF83D0001208DF83E008DF83F000FA820
:100FB00000F0BBF847208DF83C0001208DF83F0081
:100FC0008DF83D0002208DF83E000FA800F0ADF82E
:100FD000012240F22441324801F0FBFD012130485A
:100FE00001F041FD01212E4801F03DFD16B010BD7C
:100FF00010B504464FF020512B48903000F04DFFC3
:1010000000212948903000F0CFFE00BF26489030E4
:1010100000F017FF0028F9D121462348903000F056
:10102000E4FE01212048903000F0BEFE10BD10B556
:1010300040F224411A4801F007FE30B318480088F6
:101040001748001D008800211048A83800F0ACFEA9
:1010500010490E48A83800F020FF0C48A83800F0CE
:10106000C6FEC0F164001249086064210748A83830
:1010700000F0BBFE01210548A83800F095FE0C48A1
:101080000068092801D900BF00BF10BDB860024048
:1010900000500040300000101800002000080240FE
:1010A000001401405C02002028640240F801002086
:1010B0001C00002010B5002107E04AF2104200BFDA
:1010C000131EA2F10102FBD1491C8142F5D310BDD0
:1010D00010B5002106E0282200BF131EA2F1010274
:1010E000FBD1491C8142F6D310BD10B5002107E0A9
:1010F0004AF2104200BF131EA2F10102FBD1491CAB
:101100008142F5D310BD10B5002106E0282200BFB2
:10111000131EA2F10102FBD1491C8142F6D310BD7E
:1011200032490143324A1160704770B500210023F3
:101130000F22C4781CB32E4C246804F4E064C4F578
:10114000E064C4F30721C1F10404E3B20A41447826
:101150009C40E1B28478144021430C07210E254CB9
:1011600005786155047804F01F050124AC4005782A
:101170006D11AD0005F1E025C5F8004109E00478E6
:1011800004F01F050124AC401B4D0678761145F88C
:10119000264070BD194A0A400243154B1B1F1A60B6
:1011A000704739B1124A121D12680243104B1B1DC1
:1011B0001A6006E00E4A121D126882430C4B1B1D7A
:1011C0001A607047042808D14FF0E021096941F006
:1011D00004014FF0E022116107E04FF0E0210969BE
:1011E00021F004014FF0E022116170470000FA0580
:1011F0000CED00E000E400E080E100E080FFFF1F74
:1012000010B50446FE48844209D10121480601F088
:1012100085FA00214FF0007001F080FA08E001210A
:10122000880601F07BFA00214FF0806001F076FA29
:1012300010BD30B5024600200023146824F00204DB
:101240001460146844F00104146000E05B1C5468EE
:1012500004F001041CB94FF6FF74A342F6D15468A0
:1012600004F001040CB900206CE08C79012C04D14D
:10127000146844F08004146003E0146824F08004CF
:101280001460CC79012C04D1146844F0400414603B
:1012900003E0146824F0400414600C7A012C04D19B
:1012A000146844F02004146003E0146824F020045F
:1012B00014604C7A012C04D1146844F010041460BA
:1012C00003E0146824F0100414608C7A012C04D11B
:1012D000146844F00804146003E0146824F008045F
:1012E0001460CC7A012C04D1146844F00404146016
:1012F00003E0146824F0040414608C78A407CD780B
:1013000044EA05640D7944EA05444D7944EA0554FC
:101310000D886D1E2C43D461146824F00104146000
:10132000002300E05B1C546804F001041CB14FF67C
:10133000FF74A342F6D1546804F001040CB10020FC
:1013400000E0012030BD10B50021837A012202FAAD
:1013500003F1AC4A126842F00102AA4B1A60A94A92
:101360001C3212688A43A74B1C331A60027BCAB92D
:10137000A44A0C3212688A43A24B0C331A6042888A
:10138000C38842EA03439F4A4032847A42F83430A9
:101390000288838842EA03439A4A4032847A02EB05
:1013A000C4025360027B012A19D1964A0C3212689A
:1013B0000A43944B0C331A604288038842EA034381
:1013C000904A4032847A42F83430C288838842EAB4
:1013D00003438C4A4032847A02EBC4025360C27ADF
:1013E0003AB9884A121D12688A43864B1B1D1A603F
:1013F00006E0844A121D12680A43824B1B1D1A60C4
:10140000028932B97F4A143212688A437D4B143301
:101410001A600289012A06D17A4A143212680A43F4
:10142000784B14331A60427B012A06D1754A1C326C
:1014300012680A43734B1C331A60724A126822F016
:101440000102704B1A6010BD00218171C1710172DF
:1014500041728172C1728170C170032101710221D8
:1014600041710121018070476649096841F001011D
:10147000644A11601146096843F60E729143614A4D
:1014800011601146096841EA00211160114609689E
:1014900021F001011160704721B1026842F48032ED
:1014A000026003E0026822F4803202607047E1B11A
:1014B000026842F0800202604FF4C272125842F495
:1014C00080734FF4C27213504FF4CA72125842F430
:1014D00080734FF4CA7213504FF4D272125842F410
:1014E00080734FF4D27213501BE0026822F0800226
:1014F00002604FF4C272125822F480734FF4C27229
:1015000013504FF4CA72125822F480734FF4CA7207
:1015100013504FF4D272125822F480734FF4D272E7
:101520001350704710B502460020936803F08063A3
:10153000B3F1806F00D110E0936803F00063B3F162
:10154000006F01D1012008E0936803F08053B3F1EC
:10155000805F01D1022000E00420042879D002F548
:10156000C07303EB00131B6803F0010402F5C073A2
:1015700003EB00131C600B7A7BB94B7A0C8843EAAF
:10158000445302F5C07404EB00142468234302F5AD
:10159000C07404EB0014236010E00B7A4C6843EA3B
:1015A000C4034C7A234302F5C07404EB001424688E
:1015B000234302F5C07404EB001423608B7A03F01C
:1015C0000F038B7202F5C07303EB00135B6823F00B
:1015D0000F0402F5C07303EB00135C6002F5C073E7
:1015E00003EB00135B688C7A234302F5C07404EBB1
:1015F000001463608B7B1C064B7B44EA034403E0CE
:1016000000640040006600400B7B44EA0323CC7A70
:10161000234302F5C07404EB0014A3608B7C1C060A
:101620004B7C44EA03440B7C44EA0323CC7B2343F6
:1016300002F5C07404EB0014E36002F5C07303EB21
:1016400000131B6843F0010402F5C07303EB0013A1
:101650001C6010BD10B50246002321B1012907D03E
:1016600002290FD109E09068F94C00EA04030BE06D
:101670009068F84C00EA040306E09068F64C00EA33
:10168000040301E0002300BF00BFF44C181BA34279
:1016900016D007DC83B16FF08060184470B1022867
:1016A00018D111E0B0F5007F10D0ED4C204448B1C6
:1016B000B0F5003F0ED10BE002230DE000230BE05C
:1016C000002309E0002307E0012305E0012303E0F4
:1016D000012301E0002300BF00BFD8B210BD21B13B
:1016E000012907D002290FD109E0826842F0800267
:1016F00082600AE0826842F40042826005E082680B
:1017000042F40002826000E000BF00BF704710B5E5
:1017100000F5D87303EB01131B6803F00403137285
:10172000137A53B900F5D87303EB01131B6840F229
:10173000FF7404EA5353136009E000F5D87303EB18
:1017400001131B686FF0604404EAD303536000F593
:10175000D87303EB01131B6803F00203537200F507
:10176000D87303EB01135B6803F00F03937200F56A
:10177000D87303EB01135B681B0AD37400F5D873AD
:1017800003EB01139B68D37200F5D87303EB0113CD
:101790009B681C0A147300F5D87303EB01139B6854
:1017A0001C0C547300F5D87303EB01139B681B0EDC
:1017B000937300F5D87303EB0113DB68D37300F563
:1017C000D87303EB0113DB681C0A147400F5D8739B
:1017D00003EB0113DB681C0C547400F5D87303EBA6
:1017E0000113DB681B0E937421B9C36843F0200317
:1017F000C36003E0036943F02003036110BD21B916
:10180000C26842F02002C26003E0026942F0200296
:10181000026170470246002019B9D36803F0030043
:1018200006E0012903D1136903F0030000E0002062
:10183000704710B502460B4600204FF6FF71BBB94A
:10184000146824F0020444F00104146000E0491E0E
:10185000546804F00304012C01D00029F7D1546826
:1018600004F00304012C01D0002032E0012030E01C
:10187000012B13D1146824F00304146000E0491E06
:10188000546804F003040CB10029F8D1546804F042
:1018900003040CB100201CE001201AE0022B17D138
:1018A000146824F0010444F00204146000E0491EAE
:1018B000546804F00304022C01D00029F7D15468C5
:1018C00004F00304022C01D0002002E0012000E01B
:1018D000002010BD014600200A6822F0010242F0FB
:1018E00002020A604A6802F00302022A00D10120C3
:1018F000704701464FF6FF7200200B6823F0020389
:101900000B6000E0521E4B6803F00203022B01D172
:10191000002AF7D14B6803F00203022B00D001200C
:101920007047014600208A6902F070007047014646
:1019300000208A69100E7047014600208A69C2F3B0
:10194000074070471AB143690B43436102E04369A2
:101950008B434361704710B50246002001F47003C9
:1019600043B19369C1F3130423400BB101202DE06F
:1019700000202BE001F0807343B15368C1F31304DE
:1019800023400BB1012021E000201FE001F00063A3
:1019900043B19368C1F3130423400BB1012015E058
:1019A000002013E001F0007343B1D368C1F31304C6
:1019B00023400BB1012009E0002007E01369C1F3C7
:1019C000130423400BB1012000E0002010BD0022D1
:1019D000244B994202D10023836111E0C1F3130229
:1019E00001F000730BB1C2600AE001F080630BB13B
:1019F000026105E001F000630BB1826000E042602B
:101A000070470246002002EA01030BB1012000E00A
:101A10000020704770B504460D46002660692840D6
:101A2000002872D0B5F5807F69D01DDC082D42D02A
:101A300006DC012D2DD0022D31D0042D7FD134E0D4
:101A4000102D3ED0202D42D0402D78D145E0000011
:101A50000300000400030008000003100001000858
:101A60000001FFF77000F030B5F5004F61D009DCE0
:101A7000B5F5007F4AD0B5F5806F4DD0B5F5006F54
:101A80005DD150E0B5F5803F2DD0B5F5003F56D182
:101A90002FE0A0685549FFF7B4FF064651E0E06823
:101AA0000321FFF7AEFF06464BE0E0680821FFF791
:101AB000A8FF064645E0E0681021FFF7A2FF0646B2
:101AC0003FE020690321FFF79CFF064639E02069CB
:101AD0000821FFF796FF064633E020691021FFF743
:101AE00090FF06462DE060680821FFF78AFF064652
:101AF00027E060681021FFF784FF064621E0A06917
:101B00000121FFF77EFF06461BE01BE0A0690221D2
:101B1000FFF777FF064614E0A0690421FFF771FF85
:101B200006460EE00BE0A0697021FFF76AFF06464B
:101B300007E060680421FFF764FF064601E0002625
:101B400000BF00E00026304670BDB1F5007F3AD0FE
:101B50000FDC202928D006DC01291CD004291DD047
:101B6000082940D11DE0402921D0B1F5807F3AD12C
:101B700026E0B1F5004F31D006DCB1F5806F25D0FD
:101B8000B1F5006F2FD124E0B1F5803F12D0B1F54F
:101B9000003F28D111E0154A826025E00822C2608A
:101BA00022E01022C2601FE0082202611CE0102225
:101BB000026119E00822426016E01022426013E040
:101BC0000422426010E0042242600DE004224260E0
:101BD0000AE0002282610422426005E00022826164
:101BE0000422426000E000BF00BF70470101010015
:101BF000016821F001010160002101604160816004
:101C0000C160016121214161DB49884204D13D214C
:101C1000D94A103A91608CE0D7491831884205D1F1
:101C20004FF47461D44A103A916082E0D249303165
:101C3000884205D14FF47411CF4A103A916078E090
:101C4000CD494831884205D14FF07461CA4A103AF3
:101C500091606EE0C8496031884204D1C749C64AE4
:101C6000103AD16065E0C4497831884204D1C44952
:101C7000C14A103AD1605CE0BF499031884204D13A
:101C8000C049BD4A103AD16053E0BB49A8318842EF
:101C900005D14FF03D51B84A103AD16049E0BA49F8
:101CA000884204D13D21B84A083A116041E0B64962
:101CB0001831884205D14FF47461B34A083A116073
:101CC00037E0B1493031884205D14FF47411AE4A42
:101CD000083A11602DE0AC494831884205D14FF0F7
:101CE0007461A94A083A116023E0A749603188422B
:101CF00004D1A249A44A121F11601AE0A249783106
:101D0000884204D19E49A04A121F116011E09E49E9
:101D10009031884204D19B499B4A121F116008E010
:101D20009949A831884204D14FF03D51964A121F7B
:101D30001160704710B500220268944B1A40CC68BD
:101D40000B6823434C6923438C692343CC692343A9
:101D50000C6A23434C6A23438C6A23434C6B234312
:101D60008C6B23431A430260426922F00702D1E9D7
:101D70000B3423431A4342610B6943604B68836011
:101D80008B68C36010BD0021016041608160C1604B
:101D9000016141618161C161016241628162C1622F
:101DA000016341638163704721B1026842F001021F
:101DB000026003E0026822F001020260704721B174
:101DC000026842F40042026003E0026822F400422A
:101DD0000260704721B1026842F02002026003E015
:101DE000026822F02002026070474160704701469D
:101DF000486880B2704722B1036843F4002303604F
:101E000003E0036823F4002303600161704721B1FC
:101E1000026842F48022026003E0026822F4802219
:101E2000026070470AB1016100E0C160704701467D
:101E300000200A6802F400220AB1012000E000201C
:101E40007047014600200A6802F001020AB1012031
:101E500000E000207047014600204A6902F0380087
:101E6000704730B503460A4600200024464DAB4279
:101E700002D24149103901E04349103902F00055BE
:101E80000DB14C6800E00C68414D2C4004EA02059D
:101E90000DB1012000E0002030BD02463A4B9A42CD
:101EA00002D23548103801E03748103801F00053AD
:101EB0001BB1374B0B40C36002E0354B0B408360D6
:101EC000704710B501F080034BB122B1436943F074
:101ED0008003436103E0436923F080034361802969
:101EE0000BD02AB1036801F01E042343036004E011
:101EF000036801F01E04A343036010BD70B50246E1
:101F0000002000240025204EB24202D21A4B103B82
:101F100001E01D4B103B1F4E0E4036B11E2606EA57
:101F2000D124166806EA040502E0566906F0800529
:101F300001F000560EB15C6800E01C68144E34409D
:101F400004EA010616B10DB1012000E0002070BDC9
:101F500002460D4B9A4202D20748103801E00A4867
:101F6000103801F000531BB1094B0B40C36002E075
:101F7000074B0B4083607047106002403D0000201B
:101F8000400F002000003D20106402403F801CF004
:101F90007D0F7D0F3C0F3C0F10B5044698488442DE
:101FA00008D10121084600F086FB0021012000F045
:101FB00082FB76E09348844208D10121022000F0A0
:101FC0007AFB0021022000F076FB6AE08E48844212
:101FD00008D10121042000F06EFB0021042000F054
:101FE0006AFB5EE08948844208D10121082000F0A4
:101FF00062FB0021082000F05EFB52E0844884422E
:1020000008D10121102000F056FB0021102000F023
:1020100052FB46E07F48844208D10121202000F095
:102020004AFB0021202000F046FB3AE07A48844237
:1020300008D10121402000F03EFB0021402000F0AB
:102040003AFB2EE07548844208D10121802000F03F
:1020500032FB0021802000F02EFB22E070488442F9
:1020600008D10121801500F026FB0021A01500F009
:1020700022FB16E06B48844208D10121401500F094
:102080001AFB0021601500F016FB0AE06648844246
:1020900007D10121001500F00EFB0021201500F0F2
:1020A0000AFB10BDF0B50A4600210023002400BF42
:1020B0003DE0012505FA01F3156805EA03049C4299
:1020C00034D105684F000326BE40B543056015793D
:1020D0004E00B5400668354305601579012D02D0E4
:1020E0001579022D16D185684F000326BE40B543F1
:1020F000856055794E00B5408668354385604568F2
:1021000001268E40B5434560456896798E40B6B24B
:1021100035434560C5684F000326BE40B543C560E2
:10212000D5794E00B540C6683543C560491C1029B5
:10213000BFD3F0BD4FF6FF71016000210171417105
:102140008171C171704708B54FF480320092009AD6
:102150000A430092009AC261C161009AC261C269D9
:102160000092C269009208BD0246002013690B402C
:102170000BB1012000E0002070470146086980B2E1
:1021800070470246002053690B400BB1012000E06C
:10219000002070470146486980B27047018370474C
:1021A000418370470AB1018300E041837047416178
:1021B000704742694A4042617047F0B500230024ED
:1021C0004D07ED0E02FA05F3CE1000F1200555F88B
:1021D00026504E07F70E0F26BE40B543CF1000F134
:1021E000200646F82750CE1000F1200555F826505D
:1021F00045EA0304CE1000F1200545F82640F0BD65
:10220000000002400004024000080240000C0240AE
:10221000001002400014024000180240001C02405E
:10222000002002400024024000280240F9480068D3
:1022300040F00100F74908600020F64908310860C5
:10224000F4480068F4490840F2490860F348091D61
:102250000860F348EF4984310860F0481038091DE0
:102260000860EC48006820F48020EA4908600020FB
:10227000E8490C310860E7498C310860704700215B
:10228000E44A921C117011460870704710B501465F
:102290000022002300204A11012A02D1DD4C2368CC
:1022A00008E0022A03D1DB4C7034236802E0D94CE9
:1022B0007434236801F01F02012494401C400CB1C7
:1022C000012000E0002010BD38B50020009000245F
:1022D000002500BF3120FFF7D9FF05460098401CBC
:1022E00000900098B0F5A04F01D0002DF2D0312021
:1022F000FFF7CCFF08B1012400E00024204638BDE0
:1023000001460020C34A106820F0F80040EAC100EE
:1023100010607047C349086070470021BD4A7032A1
:1023200011701170012802D004280AD104E00121A3
:10233000B84A7032117005E00521B64A703211704A
:1023400000E000BF00BF7047B7490860704770B534
:10235000049C41EA82150126C6EB530645EA064570
:10236000054345EA0465AB4E361D356070BDAD4989
:1023700008667047820142EA0172A64B84331A60F4
:102380007047A8498866704710B5830143EA016326
:1023900043EA02739F4C8834236010BDA14908674B
:1023A0007047A049C864704702460020994B083323
:1023B000186820F0EC6042EA01031843954B08339B
:1023C0001860704702460020924B0833186820F0CE
:1023D000784042EA010318438E4B08331860704777
:1023E000014600208B4A0832106820F003000843A1
:1023F0001060704787480830006800F00C00704794
:1024000001460020834A0832106820F0F00008439B
:1024100010607047014600207E4A0832106820F4A0
:10242000E05008431060704701460020794A0832A6
:10243000106820F4604040EAC10010607047F0B5B9
:10244000002100220024022500260223714F0837B4
:102450003F6807F00C0121B1042905D0082937D1C4
:1024600005E0724F076036E0714F076033E0694F57
:102470003F1D3F68C7F38056664F3F1D3F6807F01A
:102480003F036EB16A4FB7FBF3F7DFF888C10CF179
:10249000040CDCF800C0CCF3881C07FB0CF40CE047
:1024A000624FB7FBF3F7DFF86CC10CF1040CDCF8FA
:1024B00000C0CCF3881C07FB0CF4564F3F1D3F684F
:1024C000C7F301477F1C7D00B4FBF5F7076002E00E
:1024D000564F076000BF00BF4E4F08373F6807F0F8
:1024E000F0010909534F7A5C0768D7404760494FAC
:1024F00008373F6807F4E051890A4E4F7A5C476815
:10250000D7408760434F08373F6807F46041490B65
:10251000484F7A5C4768D740C760F0BD002100F49F
:102520004072B2F5407F0AD13A4A0832116821F46C
:10253000F811414A02401143364A08321160354AC7
:1025400070321268C0F30B031A43324B70331A60B7
:10255000704735494439086070473349403908604D
:10256000704736490860704701460020294A8C327E
:10257000106820F01F004A1E1043264A8C3210605B
:10258000704701460020234A8C32106820F4F8502E
:102590004A1E40EA02201F4A8C32106070470146F2
:1025A00000201C4A8C32106820F440100843106050
:1025B000704701460020174A8C32106820F4400012
:1025C00008431060704701460020124A8C321068A0
:1025D00020F4403008431060704719490860704784
:1025E00039B10C4A3032126802430A4B30331A6058
:1025F00006E0084A303212688243064B30331A60D4
:102600007047F9B1034A343212680243014B343344
:102610001A601CE000380240FFFFF6EA1030002488
:102620000030002000004742800E47420024F400A2
:1026300000127A0020000020FFFCFF0F5C014742DF
:10264000E01147428F4A126882438E4B1A607047EE
:1026500039B18C4A121D126802438A4B1B1D1A6045
:1026600006E0884A121D12688243864B1B1D1A60C1
:10267000704739B1834A0C3212680243814B0C33E4
:102680001A6006E07F4A0C32126882437D4B0C339D
:102690001A60704739B17B4A103212680243794B95
:1026A00010331A6006E0774A103212688243754B85
:1026B00010331A60704739B1724A243A12680243E3
:1026C000704B243B1A6006E06E4A243A126882433B
:1026D0006C4B243B1A60704739B16A4A203A126841
:1026E0000243684B203B1A6006E0664A203A1268B3
:1026F0008243644B203B1A60704739B1614A1C3AEF
:10270000126802435F4B1C3B1A6006E05D4A1C3AAC
:10271000126882435B4B1C3B1A60704739B1594ABF
:10272000143A12680243574B143B1A6006E0554AAC
:10273000143A12688243534B143B1A60704739B104
:10274000504A103A126802434E4B103B1A6006E0A2
:102750004C4A103A126882434A4B103B1A60704749
:1027600039B1484A1C3212680243464B1C331A6086
:1027700006E0444A1C3212688243424B1C331A6002
:10278000704739B13F4A2032126802433D4B203333
:102790001A6006E03B4A203212688243394B2033EC
:1027A0001A60704739B1374A243212680243354BF8
:1027B00024331A6006E0334A243212688243314BD4
:1027C00024331A60704739B12E4A2C321268024302
:1027D0002C4B2C331A6006E02A4A2C3212688243B2
:1027E000284B2C331A60704739B1264A30321268B0
:1027F0000243244B30331A6006E0224A303212681A
:102800008243204B30331A607047012808D11D499C
:102810003C31096841F008011A4A3C32116007E076
:1028200018493C31096821F00801164A3C32116010
:10283000704739B1134A273A12780243114B273BAC
:102840001A7006E00F4A273A127882430D4B273B55
:102850001A7070470B484030006840F0807009499A
:1028600040310860704701460020064A283A126845
:102870000A400AB1012000E00020704701492639D2
:10288000087070473438024010B50446FA48844254
:1028900008D101211020FFF752FF00211020FFF77F
:1028A0004EFF57E0F548844209D101214804FFF763
:1028B00035FF00214FF40030FFF730FF4AE0F048C9
:1028C000844209D101218804FFF728FF00214FF439
:1028D0008020FFF723FF3DE0EA48844209D101212F
:1028E000C804FFF71BFF00214FF40020FFF716FF7D
:1028F00030E0E548844209D101210805FFF70EFFC9
:1029000000214FF48010FFF709FF23E0DF488442E5
:1029100008D101212020FFF712FF00212020FFF71E
:102920000EFF17E0DA48844209D101218807FFF73A
:10293000F5FE00214FF08040FFF7F0FE0AE0D54899
:10294000844207D101214005FFF7E8FE0021600520
:10295000FFF7E4FE10BD2DE9FF4705460E460024B3
:10296000A14600BFA046B08900B100BF2C8A24F464
:102970004054F08804432C82AC8941F20C608443BB
:10298000B08831890843718908430443AC81AC8A1B
:1029900024F44074B0890443AC826846FFF74FFDCD
:1029A000B548854202D0B948854202D1DDF80C9085
:1029B00001E0DDF80890A88900F4004040B109EB7F
:1029C000C90000EB091031684900B0FBF1F707E0DE
:1029D00009EBC90000EB091031688900B0FBF1F781
:1029E0006420B7FBF0F004012009642101FB10789A
:1029F000A88900F4004040B1322000EBC800B0FBD1
:102A0000F1F000F00700044308E0322000EB08106A
:102A10006421B0FBF1F000F00F0004432C81BDE80D
:102A2000FF874FF41651016000218180C180018130
:102A30000C21418100218181704710B502460020A0
:102A4000108A20F470600B884C8823438C882343C1
:102A5000CC8823431843108210BD0021018041809F
:102A60008180C180704721B1828942F40052828105
:102A700004E082894DF6FF731A4082817047028B11
:102A800002F47F420283028B0A430283704721B122
:102A9000828942F40042828103E08289C2F30E02FD
:102AA0008281704721B1828A42F40062828204E00E
:102AB000828A4FF2FF731A4082827047C1F3080284
:102AC0008280704701468888C0F308007047028AF8
:102AD0004FF6F0731A400282028A0A43028270475C
:102AE00021B1828942F00202828104E082894FF69C
:102AF000FD731A408281704782894FF2FF731A403A
:102B0000828182890A4382817047028A4FF6DF738D
:102B10001A400282028A0A430282704721B1028A65
:102B200042F48042028204E0028A4BF6FF731A40AC
:102B300002827047818941F001018181704721B192
:102B4000828A42F00802828204E0828A4FF6F7739A
:102B50001A4082827047028BD2B20283028B42EA11
:102B600001220283704721B1828A42F020028282D0
:102B700004E0828A4FF6DF731A408282704721B1E7
:102B8000828A42F01002828204E0828A4FF6EF735A
:102B90001A4082827047828A4FF6FB731A40828203
:102BA000828A0A438282704721B1828A42F00202FD
:102BB000828204E0828A4FF6FD731A408282704757
:102BC0001AB1838A0B43838202E0838A8B43838218
:102BD0007047F0B50346002400260025002040F68B
:102BE0006A17B94200D100BF1846C1F3421401F080
:102BF0001F06012707FA06F5012C01D10C3004E06D
:102C0000022C01D1103000E014301AB107682F43B4
:102C1000076002E00768AF430760F0BD024600208E
:102C2000B1F5007F00D100BF13880B400BB101202C
:102C300000E00020704701F40072B2F5007F00D17F
:102C400000BFCA430280704770B5024600240023CB
:102C50000025002040F66A16B14200D100BFC1F342
:102C6000421501F01F03012606FA03F3012D13D1CB
:102C70009689334017E000000010014000440040F6
:102C800000480040004C004000500040001401404B
:102C900000780040007C0040022D02D1168A3340AB
:102CA00001E0968A33400C12012606FA04F41688D5
:102CB000344013B10CB1012000E0002070BD10B50C
:102CC0000022002340F66A14A14200D100BF0A127C
:102CD00001249440A3B2DC43048010BD094880471E
:102CE00009480047FEE7FEE7FEE7FEE7FEE7FEE7EE
:102CF000FEE7FEE7FEE7FEE704480549054A064B06
:102D0000704700004D0300088901000820040020DE
:102D1000200A002020060020200600206B490968B8
:102D200001F0010171B169498039096801F00101BF
:102D300041B100BF4FF0604109680029FAD04FF05F
:102D40006042107070474FF0FF3061490968614A76
:102D5000914204D05E49086811465D4A116070478F
:102D600000B503461846FFF7D9FF00BD70B504460D
:102D70000D4614B94FF0FF3070BD20783A281AD1B3
:102D800055A1204600F03EF910B948F20100F3E7E2
:102D900053A1204600F036F910B948F20200EBE7E3
:102DA00051A1204600F02EF910B948F20300E3E7E4
:102DB0004FF0FF30E0E74FF0FF30DDE701466FF402
:102DC0000040084420B1012804D0022806D103E0C5
:102DD000002070470020FCE70020FAE74FF0FF30AA
:102DE000F7E72DE9F04106460C46154698466FF484
:102DF0000040304420B1012806D0022811D105E05E
:102E00004FF0FF30BDE8F0810020FBE705E014F84B
:102E1000017B3846FFF7A4FF6D1E002DF7D100207F
:102E2000F0E74FF0FF30EDE710B504466FF40040D7
:102E3000204420B1012805D0022809D105E042F044
:102E4000004010BD4FF0FF30FBE74FF0FF30F8E7D8
:102E50004FF0FF30F5E701466FF40040084420B121
:102E6000012804D0022806D103E001207047012088
:102E7000FCE70120FAE70020F8E702466FF4004083
:102E8000104420B1012805D0022809D105E04FF0F7
:102E9000FF3070474FF0FF30FBE74FF0FF30F8E7AF
:102EA0004FF0FF30F5E701466FF40040084420B1D1
:102EB000012804D0022806D103E00020704700203A
:102EC000FCE70020FAE70020F8E70000800E00E0B1
:102ED00030000020A55AA55A3A535444494E0000E8
:102EE0003A5354444F5554003A53544445525200B7
:102EF00070B5064600F0CAF8056806F10B0020F030
:102F00000704B4429CBF002070BD2B466A68BAB16A
:102F10001068A04210D304F1080188423CBF5068F9
:102F2000586007D35168101941601168091B01608E
:102F300058601460101D70BD13465268002AE7D116
:102F40002146284600F0AAF80028DED170BD70B5F1
:102F50000446051F00F09AF80068002C14BF44686E
:102F600070BD002C18BFAC423CBF20466468F8D34B
:102F700001680A18AA4218BF456003D12A680546AD
:102F80001144016028684119A1421CBF6C6070BDEA
:102F90006168696021680844286070BD0FB4044905
:102FA00010B503AA029800F0C3F810BC5DF814FB3A
:102FB000140300204FF0000200B5134694469646D5
:102FC000203922BFA0E80C50A0E80C50B1F120013C
:102FD000BFF4F7AF090728BFA0E80C5048BF0CC0EA
:102FE0005DF804EB890028BF40F8042B08BF704748
:102FF00048BF20F8022B11F0804F18BF00F8012BBA
:10300000704700004FF0013C50F8042B51F8043B8E
:103010009A4221D1A2EB0C03934313EACC1317D1AC
:1030200050F8042B51F8043B9A4215D1A2EB0C0343
:10303000934313EACC130BD150F8042B51F8043B03
:103040009A4209D1A2EB0C03934313EACC13DBD0D1
:103050004FF00000704700BFD01A01BAB1FA81F1F9
:1030600001F0180122FA01F0CB40C1F12001DBB2DE
:10307000C0B2C01A2CFA01F3D11A914311EAC3115C
:10308000E6D17047704770477047000000487047AE
:10309000C4030020704770477047704738B5044636
:1030A0000A4600206946AFF30080002808BF38BDFB
:1030B00002460099204600F063F8012038BD012047
:1030C00000F030B9F8B5AFF30080054600200C469B
:1030D000102000BF0646A819A0420DD93246694605
:1030E0000020AFF30080070008BF00F01BF9009834
:1030F000A04218BF0546C419FFF7C8FF0560074680
:10310000F01D20F007004619284600F00AF8B442E6
:1031100008BFF8BDA21B31463868BDE8F84000F092
:103120002FB800210160C0E90110704710207047DE
:10313000074B70B50D467B4400F041F80446284625
:1031400000F050F810B14FF0FF3070BD204670BD58
:10315000D108000008B569468DF800000320ABBE19
:1031600008BD000001491820ABBEFEE726000200A2
:1031700000487047BC03002000487047BC03002093
:10318000034640688C46002818BF88423CBF03466F
:103190004068F8D318681844884207D00CF103003F
:1031A00020F00700001D411A521A0146081D0A604E
:1031B000FFF7CDBE01694A1C02610878704700B56F
:1031C0008FB0CDE901310021059105497944CDE960
:1031D00003101146684600F0D2F80FB000BD0000A1
:1031E000E5FFFFFF007B00F08000704710B542480C
:1031F0005421FFF7DFFE41485421FFF7DBFE404832
:103200005421FFF7D7FE3F493B483C4A3F4B0860FB
:103210003D490A603A491960531C0365481C106512
:10322000012008653B48344A39A1784400F0CAF9C6
:1032300020B9384878440A3800F06EFA37482F4AE7
:1032400035A1784400F0BEF920B9344878440A38F2
:1032500000F062FA32482A4A2FA1784400F0B2F90D
:1032600020B92F4878440A3800F056FA4023224803
:10327000DC000021224600F081F920B12548784485
:10328000543800F049FA1D4822464023002100F03E
:1032900075F920B121487844543800F03DFA1848B7
:1032A00022461023002100F069F9002806D01C48AE
:1032B0007844BDE81040563800F02EBA10BD1048D2
:1032C00070B5006D20F001040B4800F0F1F90B48D7
:1032D00000F0EEF90A4800F0EBF909E0206D20F06B
:1032E0000105204600F0E4F92046FFF730FE2C46A9
:1032F000002CF3D170BD0000C00200201403002098
:103300006803002034000020380000203C0000202A
:10331000720000000008000077000000EF070000C6
:10332000DF07000010B500F0FFF9BDE8104000F025
:10333000EEB970477546FFF71BFFAE4605006946BC
:10334000534620F00700854618B020B5FFF7D4FC9F
:10335000BDE820404FF000064FF000074FF0000896
:103360004FF0000B21F00701AC46ACE8C009ACE817
:10337000C009ACE8C009ACE8C0098D4670472DE92A
:10338000F04106460024D6E90170F56880463046D3
:1033900003E04146B847641C3046A8470028F8D1EE
:1033A0002046BDE8F0812DE9F04705460C46C86887
:1033B00020F4201040F48000C860800602D5084642
:1033C00000F0ADFAE06841F282014FF0FF390140B0
:1033D000022903D0204600F04BFAB5E000F420416A
:1033E000B1F5004F0FD1C00306D56168E06A88428D
:1033F00000D80846606006E02069E06260606069AD
:10340000FFF751FDA061A0680022EEB200280DDA9E
:10341000E1688B050AD4C043A06041F4903022607B
:10342000E0606068411C61600670A5E0E06890465D
:10343000226040F40050E060206968BB6069FFF7DB
:103440000AFD012704F12405A0B1A08910F4407FF2
:1034500008D0E069FFF74CFD206118B1E06840F446
:10346000006016E0E7612561E06820F4407040F4F8
:1034700080600EE0E069FFF73BFD00282061F1D09D
:10348000E06840F4006010F4407FE06002D140F456
:103490008070E06020696060E06825696FF0010A73
:1034A000C1051FD56168E06A884200D80846411B03
:1034B00004D02246284600F0E5F9F0BBE06801029E
:1034C00003D5E562C4E9015854E0691CE16261601A
:1034D000E16940F48030491EC4E9021030462E7084
:1034E000BDE8F087010202D500F480320AE060688E
:1034F000411C61600670E0680A2E40F48030E06094
:1035000006D00022E16A6068814203D90B4602E0DE
:103510000122F7E70346A7895B1B7F0503D4E76910
:103520009F4200DDE2B1814200D80146E5620F1AF8
:10353000C4E90158002B09DD00E005E022461946E8
:10354000284600F09FF908B14846C9E747B1A0698D
:10355000E5626560C01BA061E06840F01000E060BB
:10356000E068000208D56168A069E562491B08446B
:103570006560A0615046B3E73046B1E770B5C468F6
:10358000A50713D0650211D4B2F5807F09D0B2F53A
:10359000007F06D0B2F5806F08D1012300F124012D
:1035A00006E05D1E6FF07F46B54201D3012070BD7D
:1035B0000161C361416024F470611143C160002066
:1035C00070BD00002DE9F0410C4607461646104636
:1035D00000F06EF82078611C61280AD0722802D0B1
:1035E00077283CD102E00125002405E002250424CF
:1035F00002E0082448F2020511F8010B2B2806D03E
:10360000622809D011F8010C74280AD00BE045F0AB
:10361000030544F00204EFE745F0040544F001041B
:10362000EAE744F0100438462146FFF79FFB411CAF
:1036300015D00021316171604FF40071F560F161C6
:103640007061200704D530460222002100F094F872
:10365000306D40F0010030653046BDE8F08100205B
:10366000FBE72DE9F0410D460646104C206DC107E1
:1036700004D0410804D020F00104F7E722460EE010
:103680005420FFF735FC07000ED0206D47F00101F4
:103690000843542120653846FFF78CFC3A462946FA
:1036A0003046BDE8F0418DE70020D6E7C00200209B
:1036B0002DE9F04704464FF000094FF0FF37C56889
:1036C000D4E90486A80707D0204600F005F9304663
:1036D000FFF774FB002802DA3846BDE8F0872805BA
:1036E00002D54046FFF733FC4C212046FFF762FC31
:1036F000206D20F0010020654846EEE710B5044635
:10370000AFF300802046BDE81040FCF78EBD0028D6
:1037100001D0FFF727BD704710B500F03BF9BDE8B9
:103720001040FFF7F4BF000010B5012805D00021BC
:1037300003A000F015F9012010BD09A1F8E7000071
:1037400053494752544D454D3A204F7574206F668A
:103750002068656170206D656D6F727900000000F2
:103760003A2048656170206D656D6F727920636FD6
:1037700072727570746564002DE9F0410446164656
:103780000D464769007B80072ED03846FFF763FB64
:1037900050BB3EB3012E02D0022E25D104E02046BC
:1037A00000F012F905441DE03846FFF77CFBE168A4
:1037B000002841F01001E16005DA204600F058F8D9
:1037C0000120BDE8F081C9030BD56268E16A91422E
:1037D00000D81146A26911442269891A814200DD8C
:1037E00008460544002D01DA0220EAE7E16A606834
:1037F000E268814206D29103E06203D522F40031EF
:1038000041F01002A6690027AE4213DCE16A814252
:1038100001D90B4600E0034603EB060C2369ACEB31
:10382000030CAC4506DD814201D98C4600E084469C
:103830009C4505D1A760276042F02000A5620DE0FD
:10384000AD1BE669AE1B8142A66000D90846C01ACE
:10385000281A20605819606022F0200003490840AF
:10386000E060002084F84870ABE70000BFCFD7FFCE
:10387000C16821F4001141F08001C1600021816024
:10388000016070472DE9F047814614460E464FF01F
:10389000FF383248D5685769054209D03846A169D2
:1038A000FFF7EBFA002811DB2C48C0430540E56028
:1038B0002B46324649463846FFF793FAA16920F075
:1038C0000042B21A11440028A16103D02046FFF73C
:1038D000CFFF4046BDE8F08770B504460569C06A71
:1038E0006168884200D80846E16821F42011E1604F
:1038F000C90312D5A84208D02246411B2846FFF72B
:10390000C1FF10B14FF0FF3070BD0020E562C4E987
:103910000150E06820F48030E060002070BD10B5F8
:103920000446C06820F02000E060A16AA0698842D7
:103930000DD02046FFF7D0FFE06820F4405040F063
:103940001000E060A06AA0612069E062606044F25B
:103950004001E0688843E06010BD000010000200F4
:1039600070B505460C460A2000E06D1CFFF7F2FB1F
:1039700035B128780028F8D102E0641CFFF7EAFB93
:1039800014B120780028F8D1BDE870400A20FFF774
:10399000E1BB000010B5014602A0FFF7E1FF0120E6
:1039A00010BD000053494752545245443A205265D5
:1039B0006469726563743A2063616E2774206F7066
:1039C000656E3A200000000010B50146C2689007FD
:1039D00003D0900607D5886A0AE0FFF7CDFB0121E6
:1039E0000160881E10BD8B69486818440B69C01AB5
:1039F00091F848301BB191F84910401A10BD1103DD
:103A0000FCD50028FADD401E10BD8A68002A01DCC2
:103A1000FFF7C9BC521E8A604A68C0B2531C4B6093
:103A2000107070474FF04070E1EE100A70473A5343
:103A30005444494E003A5354444F5554003A535459
:103A40004445525200000000683A0008000000207F
:103A500040000000C4010008A83A0008400000200F
:103A6000E0090000E0010008007A030A00000000FD
:103A7000000000000102030406070809000000001E
:103A8000000000000000000000000000010203042C
:103A90000102030406070809A55AA55A0000000000
:083AA00000000000000000001E
:040000050800018965
:00000001FF
