:020000040800F2
:10000000702F00208D780008DD010008DF01000856
:10001000E3010008E7010008EB0100080000000010
:10002000000000000000000000000000EF010008D8
:10003000F101000800000000F3010008F5010008CC
:10004000A7780008A7780008A7780008A778000814
:10005000A7780008A7780008A7780008A778000804
:10006000A7780008A7780008A7780008A7780008F4
:10007000A7780008A7780008A77800089747000825
:10008000A7780008A7780008A77800086F3E000846
:10009000853E0008A7780008A7780008A778000820
:1000A000A7780008A7780008A7780008A7780008B4
:1000B000854E0008A74E0008C54E0008A778000826
:1000C000A7780008A7780008A7780008A778000894
:1000D000A77800085F410008474300082B45000847
:1000E000A7780008A7780008A7780008A778000874
:1000F000A7780008A7780008A7780008A778000864
:10010000A7780008A7780008E74E0008A77800083D
:10011000294700083B4A0008CD4F0008F34F00086C
:10012000A7780008A7780008A7780008A778000833
:10013000A7780008A7780008A7780008BF3F000844
:10014000D53F0008A7780008A7780008A77800081E
:10015000A7780008A7780008A7780008014C0008D5
:10016000A7780008A7780008A7780008A7780008F3
:10017000A7780008A7780008A7780008A7780008E3
:10018000A7780008A7780008DFF80CD007F07EFFFA
:10019000004800479D010008702F002000F034F94E
:1001A00000F0E2F99FED0A1AF0EE000AB0EE080A3C
:1001B00042F2107343F698220321064802F0C7FB6F
:1001C00004E005480068401C03490860F9E70000A6
:1001D00000000000E00D002000000020704700BF7C
:1001E000FEE700BFFEE700BFFEE700BFFEE7704787
:1001F00070477047704700000CB5002001900090D8
:100200007648006840F480307449086000BF734845
:10021000006800F4003000900198401C01900098A4
:1002200018B90198B0F5A06FF1D16C48006800F4DE
:10023000003010B10120009001E0002000900098F3
:10024000012846D165484030006840F0805063493D
:10025000403108606248006840F4404060490860EE
:100260005E48083000685D4908310860084600684B
:1002700040F4004008600846006840F4A050086060
:100280005848091F0860081F006840F08070091F67
:10029000086000BF5148006800F000700028F9D0E5
:1002A00040F20570504908604C480830006820F062
:1002B00003004A49083108600846006840F002001F
:1002C000086000BF45480830006800F00C000828AE
:1002D000F8D10CBD10B54548006840F470004349A2
:1002E00008603E48006840F001003C49086000207A
:1002F0003A4908310860394800683D4908403749A3
:1003000008603C48091D0860081F006820F4802030
:10031000091F0860002031490C310860FFF76CFFAD
:100320004FF0006031498039086010BD70B5002081
:100330000022022300240221284D08352D6805F0F3
:100340000C0020B1042806D0082834D107E02A4D3B
:100350002A4E356033E02A4D284E35602FE01F4D80
:100360002D1D2D68C5F380541C4D2D1D2D6805F0E5
:100370003F0154B1224DB5FBF1F5184E361D3668DC
:10038000C6F3881605FB06F209E01B4DB5FBF1F537
:10039000124E361D3668C6F3881605FB06F20F4D61
:1003A0002D1D2D68C5F301456D1C6B00B2FBF3F5E7
:1003B000124E356003E0104D104E356000BF00BF97
:1003C000064D08352D68C5F303150E4E705D0B4DB7
:1003D0002D68C540094E356070BD000000380240F0
:1003E0000070004008544007003C024088ED00E0E7
:1003F000FFFFF6FE103000240024F400040000206B
:1004000000127A000800002010B54FF4A06004F03C
:100410000DFE184803F00EFE4FF4165003F0FBFEDD
:100420004FF4612003F0DEFF4FF4E13004F0A5F853
:100430004FF4165004F0E3F904F05BFB00230322B1
:100440000821104603F0A0FC0023032208211046D7
:1004500003F033FD04F04AFC04F075FC04F0A8FC42
:1004600004F0DBFC04F050FD04F07FFD04F014FC0C
:1004700010BD0000A086010000B587B03E480068AE
:10048000401C3D490860084600680A2190FBF1F2D3
:1004900001FB120010B901F0C3FF16E036480068F6
:1004A0000A2190FBF1F201FB1200092802D103F0AE
:1004B00054FA0AE0304800680A2190FBF1F201FB8F
:1004C0001200052801D103F031FA2B49086800EB2E
:1004D000D0714910A0EB4101D9B92848B0F94A00C0
:1004E00000902648B0F94830B0F94620B0F94410E1
:1004F000234802F095FC2148B0F9420000901F48C3
:10050000B0F94030B0F93E20B0F93C101C4802F080
:10051000E3FC1948006840F6B83190FBF1F201FBAA
:100520001200F8B91748D0F86C12D0F81C22D0F895
:10053000CC01144BD3F87C31CDE90230CDE9042154
:100540001048D0F82C010F49D1F8DC10CDE900108B
:100550000C48D0F88C30C26B0B48B0F910100BA0CF
:1005600007F0C4FD07B000BD10B5002002490860C7
:1005700000F028F810BD00001800002090010020B5
:1005800000680040F01A0020902300200A0D7961D5
:10059000772025640A0D2048656164696E673A25F5
:1005A00064202564202564202564200A0D44726996
:1005B00076696E673A2564202564202564202564C9
:1005C000200A0D0010B5E821FE4807F0B9F9012016
:1005D000FC49087600204876C865FB490870B0EEF3
:1005E000081ADFEDFA0AB2EE000A0A234FF4FA52B3
:1005F0000321F74802F0ABF9B0EE001ADFEDF30A81
:100600009FEDF40A4FF4FA7343F698220321F2485F
:1006100002F09DF9B1EE041ADFEDEC0AB2EE000A29
:100620000A234FF4FA520321E9484C3002F08FF9C3
:10063000B1EE001ADFEDE50A9FEDE80A4FF4FA7318
:1006400043F698220321E4484C3002F080F9B1EEE1
:10065000001ADFEDDE0AB2EE000A0A234FF4FA5266
:100660000321DB48983002F072F9B2EE001AF6EE80
:10067000000A9FEDDB0A4FF4FA7343F69822032138
:10068000D548983002F063F9B1EE001ADFEDD50AD3
:10069000B2EE020A0A234FF4FA520321CC48E430A6
:1006A00002F055F9B2EE041ADFEDC80A9FEDCC0A4C
:1006B0004FF4FA7343F698220321C748E43002F05E
:1006C00046F9002413E004EB440101EB0411C64A8F
:1006D00002EB8100B2EE041ADFEDC40AB3EE080AA1
:1006E00043F698231A46032102F031F9641C042CC6
:1006F000E9DB9FEDBF1ADFEDBF0A9FEDBF0A0023C4
:100700004FF4FA720321BD4802F021F910BDF0EE5A
:10071000400A0020BA49B1F85120B1F85C10491FD5
:1007200002EB4100002801DC002004E0B0F5AF7FBF
:1007300001DB4FF4AF70B7EE000AB24981ED000A59
:1007400000EE100AB8EEC00A704700B52DED0A8B16
:1007500089B0B0EE409A002021E000EB400101EBAF
:100760000011A94A02EB810191ED000A00EB400162
:1007700001EB001102EB8101D1ED020A70EE200ABB
:10078000A24931F9101000EE101AB8EEC00A20EE9E
:10079000800A05A901EB800181ED000A401C0428B4
:1007A000DBDB002042E000EB400101EB00118E4A50
:1007B00002EB810191ED090A00EB400101EB001110
:1007C00002EB8101D1ED000AF1EE600A7D49D431DE
:1007D00001EB800191ED001A00EE810A00EB40016F
:1007E00001EB001102EB8101D1ED020A7549D43110
:1007F00001EB800191ED001A00EEC10A00EB40010F
:1008000001EB001102EB8101D1ED020A00EB400186
:1008100001EB001102EB810191ED061A00EEC10A15
:1008200001A901EB800181ED000A401C0428BADB1C
:100830009DED050A20EE000ADDED060A9DED061A83
:1008400000EE810ADDED070A9DED071A00EE810A30
:10085000DDED080A9DED081A00EE810ADFED6C0A55
:1008600020EE208A9DED050ADDED010A20EE200A2A
:10087000DDED060A9DED021A00EE810ADDED070AA4
:100880009DED031A00EE810ADDED080A9DED041AC4
:1008900000EE810ADFED5F0A20EE200ADDED050A99
:1008A0009DED061A70EE810A9DED071A70EE810A21
:1008B0009DED081A70EE810A9FED571A01EE200A8D
:1008C000DDED050A3F4890ED351A60EE810A9DED99
:1008D000061AD0ED361A41EE210A9DED071AD0ED29
:1008E000371A41EE210A9DED081AD0ED381A41EE73
:1008F000210A9FED4A1AF0EE408A41EE208A9DEDD2
:10090000010A20EE000ADDED020A9DED021A00EE5A
:10091000810ADDED030A9DED031A00EE810ADDED8B
:10092000040A9DED041A00EE810ADFED390A20EE7B
:10093000200ADDED010A9DED021A70EE810A9DED9F
:10094000031A70EE810A9DED041A70EE810A9FED84
:10095000321A00EE810ADDED010A90ED351A60EEE3
:10096000810A9DED021AD0ED361A41EE210A9DED65
:10097000031AD0ED371A41EE210A9DED041AD0ED8D
:10098000381A41EE210A9FED251A01EE200ADFED0B
:10099000240A30EE200A70EE499A28EEA80AF1EEF9
:1009A000000A68EE200A00EEE90A10EE101A084666
:1009B00007F0BEF941EC1C0B9FED1A0B53EC102B0A
:1009C00034E00000900100203C000020CDCCCC3D64
:1009D000E415002000005243441800200000344376
:1009E00000004843CDCCCC3E741900209A99993E22
:1009F0000000FA430000000000009643D8100020D9
:100A0000642200206C000020A80F0020700100204C
:100A100058DF2C3458DFAC346019C0B762BEBC3725
:100A2000FA7EEA3F000000000000F03F06F0A5FF5C
:100A300041EC1B0BB0EE4B0AF0EE6B0A08F0E8F845
:100A4000B0EE40AAF0EE60AA51EC1A0B07F0B4F930
:100A500000EE100AF1EE680A70EE200AB0EE000A0D
:100A600028EE001A80EE810A09B0BDEC0A8B00BDA9
:100A700010B52DED0A8BB0EE408A0024FE480078B8
:100A8000032831D118EE100A07F052F941EC190B86
:100A90009FEDFA0B53EC102B07F076F902D24FF4CE
:100AA000E17451E018EE100A07F042F941EC1C0B1A
:100AB0009FEDF40B53EC102B07F000F841EC1B0BEF
:100AC0009FEDF20B53EC102B07F070F841EC1A0B72
:100AD0009FEDF00B53EC102B06F0F6FF41EC190BD9
:100AE00007F007F904462FE018EE100A07F020F986
:100AF00041EC190B9FEDE10B53EC102B07F044F97F
:100B000001D2FA2420E018EE100A07F011F941ECA6
:100B10001C0B9FEDDC0B53EC102B06F0CFFF41ECD0
:100B20001B0B9FEDDA0B53EC102B07F03FF841EC59
:100B30001A0B9FEDDA0B53EC102B06F0C5FF41ECBE
:100B4000190B07F0D6F80446002C01DC002404E061
:100B5000B4F5FA7F01DB4FF4FA74B7EE000AD1481E
:100B600080ED000A00EE104AB8EEC00ABDEC0A8B18
:100B700010BD10B52DED108B8CB0002085E000EB82
:100B8000400101EB0011C84A02EB810191ED0B0A13
:100B9000C64901EB800181ED000AC44901EB8001E7
:100BA00091ED000ADFEDC20AB4EEE00AF1EE10FAB0
:100BB00007D89FEDBF0ABD4901EB800181ED000A16
:100BC00012E0BA4901EB800191ED000ADFEDB90AAC
:100BD000B4EEE00AF1EE10FA06DB9FEDB60AB34977
:100BE00001EB800181ED000AB04901EB800191ED3C
:100BF000000A00EB400101EB0011AB4A02EB81015E
:100C0000D1ED040A20EE200AAB49D1ED000A20EE16
:100C1000200AAA4901EB800181ED000AA34901EBFA
:100C2000800191ED000AA649D1ED000A20EE200ACC
:100C30009E4901EB8001D1ED000A20EE200A9B497C
:100C400001EB8001D1ED000A9E4991ED001A01EE01
:100C5000200A9D49D1ED000A30EE200A9B4901EBA4
:100C6000800181ED000A954901EB800191ED000AB8
:100C7000964901EB8001D1ED000A30EE200A94493B
:100C800001EB800181ED000A401C0428FFF677AFDC
:100C90008F4890ED000AD0ED010A30EE200AD0ED29
:100CA000020A30EE200AD0ED030A30EE200A89480D
:100CB00080ED000A90ED000AB5EEC00AF1EE10FAE0
:100CC00004D81FEDB40A80ED000A0DE0814890EDD4
:100CD000000ADFED810AB4EEE00AF1EE10FA03DB60
:100CE0009FED7D0A80ED000A7A4890ED000ABCEE87
:100CF000C00A10EE100A79490880084600880028CA
:100D000002DC0020088015E07448008800EE100A1C
:100D1000B8EE400A7248D0ED000AB4EEE00AF1EEF7
:100D200010FA07DB90ED000ABCEEC00A10EE100AC4
:100D30006A4908806B48008868490988401A6A49EE
:100D40000880644890ED000A6548D0ED000AB4EED2
:100D5000E00AF1EE10FA7CDD002407E15C4800EBCC
:100D6000840090ED000A5E48D0ED000A20EE200AD3
:100D70005848D0ED000A80EE201A5C4800EB840051
:100D800080ED001A524800EB840090ED000A4E48B6
:100D9000D0ED000AB4EEE00AF1EE10FA6ADD4C483C
:100DA00000EB840090ED000A504800EB8400D0ED89
:100DB000000AB4EEE00AF1EE10FA5BDD404890ED77
:100DC000000A08A800EB840080ED000A04EB440050
:100DD00000EB0410344901EB8000D0ED040A3948DF
:100DE00090ED000A344890ED001A01EE200A04A8A4
:100DF00000EB840080ED000A3C4800EB840090ED9D
:100E0000000A3148D0ED000A30EEC00A684600EB17
:100E1000840080ED000A254800EB840090ED000A74
:100E200010EE101A084606F083FF41EC190B08A8D3
:100E300000EB840090ED000AF0EE000A20EE200A9C
:100E400010EE101A084606F073FF41EC1B0B04A8C5
:100E500000E08FE000EB840090ED000A20EE000A35
:100E600008A800EB8400D0ED000AB1EE001A60EE95
:100E7000810A3DE072E00000570000200000000001
:100E80000080304000000000000029400000000009
:100E9000000010400000000000207C400000000026
:100EA00000406F406800002044180020A805002082
:100EB00000401CC600401C4690000020B8050020E1
:100EC00094000020980000209C000020C80500200D
:100ED000D80500207C00002000007A445E0000203D
:100EE000700000205A0000205C000020E80500206F
:100EF000684600EB840090ED001A00EEC10A10EE87
:100F0000101A084606F014FF41EC1F0BB0EE4F0A12
:100F1000F0EE6F0A07F07CFEB0EE40DAF0EE60DA39
:100F200004A800EB840090ED000AB1EE400A10EE38
:100F3000101A084606F0FCFE53EC1D2B06F01DFDB2
:100F400053EC1B2B06F032FE53EC192B06F02EFE51
:100F500006F032FFFD4941F8240006E0B7EE000A32
:100F6000FA4800EB840080ED000A641C042CFFF6B4
:100F7000F5AE0BE0002007E0B7EE000AF34901EB05
:100F8000800181ED000A401C0428F5DB002025E0EB
:100F9000EE4901EB800191ED000AB5EEC00AF1EED9
:100FA00010FA07D89FEDEA0AE84901EB800181EDCC
:100FB000000A12E0E54901EB800191ED000AF7EE2D
:100FC000000AB4EEE00AF1EE10FA06DBB7EE000A12
:100FD000DE4901EB800181ED000A401C0428D7DBCB
:100FE0000CB0BDEC108B10BD10B52DED048BD948A5
:100FF000808900EE100AB8EE400AD74880ED000A5A
:1010000090ED000ADFEDD50A80EE201ABCEEC10A91
:1010100010EE100ACF49C8820846C08A00EE900A36
:10102000F8EE600AB0EE600AFFF771FBCC4880ED85
:10103000000AFFF79EFDCB480078012803D0C9487D
:101040000078032819D1C348C08A00EE900AF8EE50
:10105000600AB0EE600AFFF70BFDC348008800EE9F
:10106000900AF8EE600A30EE600AB0EE408AFFF7B0
:101070006CFBBE4880ED000A18E0B648C08A00EE5E
:10108000900AF8EE600AB0EE600AFFF740FBB6483F
:10109000008800EE900AF8EE600A30EE600AB0EECA
:1010A000408AFFF752FBB24880ED000AAF4890ED4E
:1010B000000AB5EEC00AF1EE10FA04D89FEDA40ABA
:1010C00080ED000A0DE0A94890ED000AF7EE000A55
:1010D000B4EEE00AF1EE10FA03DBB7EE000A80EDA1
:1010E000000AA34890ED000AB5EEC00AF1EE10FA2E
:1010F00004D89FED970A80ED000A0DE09C4890ED22
:10110000000AF7EE000AB4EEE00AF1EE10FA03DB93
:10111000B7EE000A80ED000A92480078032803D059
:1011200090480078022805D1B7EE000A914880ED7A
:10113000000A77E08B48007801282BD18E480068A0
:1011400028B99FED8E0A8E4880ED000A13E08A4888
:10115000006801280FD18A4890ED000AB5EEC00A58
:10116000F1EE10FA07DD90ED000AF7EE000A30EE1E
:10117000600A80ED000A824890ED000A5FEDAA0A3D
:1011800030EEC00A5FEDAC0A80EE201A794880ED9F
:10119000001A47E073480078F0BB7748006898B9B8
:1011A0007849B1F8510006F097FD41EC190B9FED1D
:1011B000760B53EC102B06F087FC41EC180B06F075
:1011C000FBFD6F49086013E06B48006801280FD1F0
:1011D0006B4890ED000AB5EEC00AF1EE10FA07DD9B
:1011E00090ED000AF7EE000A30EE600A80ED000A8A
:1011F0006448B0F8510000EE100AB8EE400A6048AA
:10120000D0ED000A70EE600A5E48B0F8510000EEC2
:10121000100AB8EE400A00E004E080EE801A55485B
:1012200080ED001ABDEC048B10BD5948407818B110
:101230005748407801281FD100204A490870544877
:101240004078012803D108700020524908804548A1
:101250000078012805D14F480088401C00B24D4954
:1012600008804C48B0F900000A2825DB00203D49E1
:101270000870484908801FE002203A490870444835
:101280004078032803D1087000204249088035487F
:101290000078032805D13F480088401C00B23D4932
:1012A00008803C48B0F900000A2805DB02202D49DF
:1012B00008700020374908807047DFED370AB4EE28
:1012C000E00AF1EE10FA06DBDFED330A70EE600A99
:1012D000B0EE600A0AE0B5EEC00AF1EE10FA05D2EF
:1012E000DFED2D0A70EE200AB0EE600A704710B5EF
:1012F0002DED0A8BB0EE409AF0EE609AB0EE418A86
:1013000051EC190B81F0004141EC1C0B9FED230BBC
:1013100053EC102B06F0D8FB41EC1B0B9FED211B6F
:10132000B0EE4B0AF0EE6B0A07F08CFBB0EE40AA71
:10133000F0EE60AA51EC1A0B06F03EFD08EE100A22
:10134000B5EEC08AF1EE10FA36D22FE01806002072
:10135000000000002A230020500000200000C842A6
:1013600070000020570000205E0000206C0000206C
:1013700068000020640000202C00002000805444FD
:1013800060000020642200209A9999999999E93F78
:101390009023002058000020DB0FC940000000A06F
:1013A00046DF913F00000060FB2119401FED060A57
:1013B00038EE000AB0EE408A18EE100A06F0B8FCCB
:1013C00041EC100BBDEC0A8B10BD9FEDFD0BFE48F0
:1013D00080ED020B9FEDFA0B80ED000B9FEDF80BFB
:1013E00080ED040B704710B5F849B1F9140006F010
:1013F00062FCF54AC2E90201F449B1F9120006F0B3
:101400005AFCF14A03C21FED2E0AF14880ED120A80
:1014100010BD10B52DED048BEC49B1F9140006F0A8
:101420004AFCE94AC2E90201E849B1F9120006F0B2
:1014300042FCE54A03C2E64890ED130A5FED2A0A32
:10144000B4EEE00AF1EE10FA08DB90ED130A5FED5E
:101450002E0A30EE600A80ED140A04E0DC4890EDBC
:10146000130A80ED140ADA48D0ED140AB0EE600ACF
:10147000DFEDD80AD84801F073F8D54880ED120A9C
:10148000D54890ED040AD0ED030A30EE600A10EE64
:10149000101A084606F04CFC41EC190BB0EE490A54
:1014A000F0EE690A07F0C4FAB0EE408AF0EE608A06
:1014B0009FEDCA0B53EC102B51EC180B06F04CFCB3
:1014C00004D21FED5D0AC24880ED120ABDEC048B08
:1014D00010BD10B5BD484078012804D140F2262047
:1014E000C049088003E04FF4C870BE490880B7497E
:1014F000B1F9140006F0DFFBB34AC2E90201B349B7
:10150000B1F9120006F0D7FBAF4A03C2AE48407EE5
:1015100007280DD0B448007818B90120B2490870E6
:1015200006E0B1480078012802D10020AE490870D9
:10153000AD48007850B9AB480088404200EE100A30
:10154000B8EEC00AA24880ED120A0CE0A648007866
:10155000012808D1A348008800EE100AB8EE400A1E
:101560009B4880ED120A10BD10B52DED048B9749F4
:10157000B1F9140006F09FFB934AC2E902019349B6
:10158000B1F9120006F097FB8F4A03C2904890ED24
:10159000130ADFED900AB4EEE00AF1EE10FA08DB70
:1015A00090ED130A5FED840A30EE600A80ED140AB4
:1015B00004E0874890ED130A80ED140A8448D0EDCA
:1015C000140AB0EE600A5FED9E0A834800F0C8FF7F
:1015D0007F4880ED120A804890ED040AD0ED030A9E
:1015E00030EE600A10EE101A084606F0A1FB41EC3E
:1015F000190BB0EE490AF0EE690A07F019FAB0EEDD
:10160000408AF0EE608A9FED750B53EC102B51EC85
:10161000180B06F0A1FB04D21FEDB30A6C4880ED55
:10162000120ABDEC048B10BD10B56848807866497D
:1016300008766648807848760846007E072810D0ED
:1016400004DC012807D0032814D107E008280BD0B8
:101650000A280FD10BE0FFF7B8FE0EE0FFF784FF7A
:101660000BE0FFF736FF08E0FFF7D3FE05E0FFF7DA
:10167000BAFE02E0FFF7A9FE00BF00BF10BD10B523
:101680002DED0E8B524890ED130ADFED580A30EE27
:10169000200A80ED000A90ED130ADFED550A30EEC6
:1016A000200A80ED010A90ED130ADFED520A30EEB8
:1016B000200A80ED020A90ED130ADFED4F0A30EEAA
:1016C000200A80ED030A00200EE0414901EB800171
:1016D000D1ED000AB0EE600AFFF7EFFD3C4901EBE7
:1016E000800181ED000A401C0428EEDB002402E1A9
:1016F000374890ED080ADFED370A30EE200A00EB9C
:101700008400D0ED000A30EE600A3148103000EB62
:10171000840080ED000A2E48103000EB8400D0EDEC
:10172000000AB0EE600AFFF7C8FD2948103000EB50
:10173000840090ED000A10EE101A084606F0F8FA40
:1017400041EC1E0BB0EE4E0AF0EE6E0A07F00CF9FB
:10175000B0EE40CAF0EE60CA1D4890ED120AF0EEFD
:10176000000A20EE200AD0ED090A20EE200A10EE31
:10177000101A084606F0DCFA41EC1D0B53EC1C2B4A
:1017800006F0A2F941EC1A0B114890ED120A20EE76
:10179000000AD0ED090A90ED091A00EE810A10EE58
:1017A000101A084606F0C4FA41EC1B0B53EC1A2B36
:1017B00006F084F941EC190BB0EE490A1EE0000076
:1017C0000000000000000000900100209023002095
:1017D00030010020DB0F4940D81000209A999999D8
:1017E0009999A93F5400002056000020E4CB1640F0
:1017F000D2537B40E0EDAF40DB0F493FF0EE690A8A
:1018000007F006FAB0EE408AF0EE608A51EC180B51
:1018100006F06FFA01B2FB4820F81410283800EBEC
:10182000840090ED000A10EE101A084606F080FAC7
:1018300041EC1E0BB0EE4E0AF0EE6E0A07F094F883
:10184000B0EE40CAF0EE60CAEE48383890ED120AA9
:10185000F0EE000A20EE200AD0ED090AEA4890EDE9
:10186000001A60EE810A20EE200A10EE101A0846D7
:1018700006F05EFA41EC1D0B53EC1C2B06F024F92C
:1018800041EC1A0BDF48383890ED120A20EE000ABE
:10189000D0ED090ADC4890ED001A60EE810AD948C3
:1018A000383890ED091AD848D0ED001A21EE211AE7
:1018B00000EE810A10EE101A084606F039FA41ECE3
:1018C0001B0B53EC1A2B06F0F9F841EC190BB0EE98
:1018D000490AF0EE690A07F09BF9B0EE408AF0EE93
:1018E000608A51EC180B06F004FA01B2C5480830C2
:1018F00020F81410641C042CFFF6FAAE00247BE1DF
:10190000C048283800EB840090ED000A10EE101A51
:10191000084606F00DFA41EC190BB0EE490AF0EE5C
:10192000690A07F011F9B0EE408AF0EE608A51ECD6
:10193000180B06F041FAB54941F82400B14838388F
:1019400090ED090A084600EB8400D0ED000A20EE75
:10195000200AAF4800EB840080ED000AA94830F867
:10196000140010B99FEDAB0A0DE0A94800EB84000C
:10197000D0ED000AA34830F9140000EE100AB8EECA
:10198000C01A80EE810AA44800EB840080ED000AB2
:10199000A14800EB840090ED000AFFEE000AB4EECF
:1019A000E00AF1EE10FA07D8BFEE000A9A4800EB01
:1019B000840080ED000A12E0974800EB840090ED6F
:1019C000000AF7EE000AB4EEE00AF1EE10FA06DBC8
:1019D000B7EE000A904800EB840080ED000A8E48C4
:1019E00000EB840090ED000A10EE101A084606F095
:1019F0009FF941EC190BB0EE490AF0EE690A06F0C6
:101A00009FFBB0EE408AF0EE608A51EC180B06F0B6
:101A1000D3F97C49103941F824007A4830F8140091
:101A200010FB00F000EE100AB8EEC00AA1F1280089
:101A3000D0ED120A90ED121A00EE810A774800EB01
:101A4000840080ED000AA1F1280090ED090A20EE43
:101A5000000A734800EB840080ED000AA1F1280021
:101A600090ED120AB5EEC00AF1EE10FA70D13830DE
:101A700030F8140090B3A1F1180000EB840090ED51
:101A8000000AB5EEC00AF1EE10FA28DBA1F1180049
:101A900000EB840090ED000ADFED620AB4EEE00A8C
:101AA000F1EE10FA1BD8084600EB840090ED000A16
:101AB0005FEDB80A30EE200A084600EB840080EDA6
:101AC000000A084600EB840090ED000AB1EE400ADF
:101AD000084600EB840080ED000A8CE038E04948BD
:101AE000283800EB840090ED000ADFED4F0AB4EED9
:101AF000E00AF1EE10FA7EDB4248283800EB840061
:101B000090ED000ADFED490AB4EEE00AF1EE10FABA
:101B100071D83C48103800EB840090ED000A5FED6E
:101B2000D30A30EE200A3748103800EB840080EDED
:101B3000000A3448103800EB840090ED000AB1EE42
:101B4000400A3048103800EB840080ED000A52E073
:101B50002C48383890ED120AB5EEC00AF1EE10FAB2
:101B60001CD2283000EB840090ED000A5FEDE70AFC
:101B700030EE200A2348103800EB840080ED000A84
:101B80002048103800EB840090ED000AB1EE400AC6
:101B90001C48103800EB840080ED000A204800EB60
:101BA000840090ED000A1D4800EB8400D0ED000A8F
:101BB000B4EEE00AF1EE10FA1DDD1248103800EB29
:101BC000840090ED000ADFED1A0A30EE200A0D487D
:101BD000103800EB840080ED000A0A48103800EB52
:101BE000840090ED000AB1EE400A0648103800EB80
:101BF000840080ED000A641C042CFFF681AEBDEC6D
:101C00000E8B10BD68010020640000200805002034
:101C100018050020000000002805002058050020BD
:101C200068050020DB0FC93FE4CB9640DB0FC940BD
:101C3000DB0F494010B52DED048B002413E004EBBD
:101C40008400FE4901EB001090ED101BB0EE410A3C
:101C5000F0EE610A51EC100B06F0AEF80146F848C0
:101C600040F82410641C042CE9DBF64890ED090AC6
:101C7000DFEDF50AB4EEE00AF1EE10FA11DC90EDBA
:101C8000120AF9EE040AB4EEE00AF1EE10FA08D3F3
:101C900090ED120AF1EE040AB4EEE00AF1EE10FA49
:101CA00059DD002455E0E94951F824104FF4B4728D
:101CB00001FB02F005F0FFFF41EC190B04EB84007F
:101CC000DE4901EB001090ED101BB0EE410AF0EE82
:101CD000610A53EC102B51EC190B05F0F2FE9FED4D
:101CE000DC0B53EC102B06F04FF807D2D74850F816
:101CF0002400401CD54941F8240029E0D34951F87B
:101D000024104FF4B47201FB02F005F0D4FF41EC53
:101D1000190B04EB8400C94901EB001090ED101B76
:101D2000B0EE410AF0EE610A53EC102B51EC190BA6
:101D300005F0C7FE9FEDC80B53EC102B06F00CF816
:101D400006D2C24850F82400401EC04941F8240081
:101D5000641C042CA7DBBB4890ED090ADFEDBA0A2E
:101D6000B4EEE00AF1EE10FA32D8002010E0B749E4
:101D700051F820104FF4B472514300EE101AB8EE2F
:101D8000C00AAF49103901EB800181ED000A401C07
:101D90000428ECDBAB4890ED120AB5EEC00AF1EE78
:101DA00010FA34D2002010E0A549103901EB80016F
:101DB00091ED000ADFEDAA0A30EE600AA049103961
:101DC00001EB800181ED000A401C0428ECDB1EE0E1
:101DD00000201AE09D4951F820104FF4B47251438D
:101DE00000EE101AB8EEC00A9649283101EB8001C6
:101DF000D1ED000A9FED9B1A00EE810A904910393F
:101E000001EB800181ED000A401C0428E2DB002088
:101E100049E08B4901EB800191ED000A88491039B6
:101E200001EB8001D1ED000A30EE600ADFED8C0A93
:101E3000B4EEE00AF1EE10FA10DB8149103901EB43
:101E4000800191ED000ADFED880A30EE200A7C491E
:101E5000103901EB800181ED000A23E0784901EBA4
:101E6000800191ED000A7649103901EB8001D1ED36
:101E7000000A30EE600ADFED7D0AB4EEE00AF1EE12
:101E800010FA0FD86E49103901EB800191ED000A6C
:101E9000DFED750A30EE600A6949103901EB800107
:101EA00081ED000A401C0428B3DB6648B0F940000D
:101EB0006449A1F840000846B0F94200A1F8420088
:101EC0000846B0F94400A1F844000846B0F84600BE
:101ED000404201B25B48A0F8461000205DE058493E
:101EE000103901EB800191ED000A554901EB8001A9
:101EF000D1ED000A30EE600ADFED5D0AB4EEE00AD3
:101F0000F1EE10FA1ADD4E49103901EB800191ED26
:101F1000000ADFED530A30EE600A4949103901EB3F
:101F2000800181ED000A4749403131F810104942E3
:101F30000AB24449403121F810202DE040491039BF
:101F400001EB800191ED000A3D4901EB8001D1EDEB
:101F5000000A30EE600ADFED470AB4EEE00AF1EE67
:101F600010FA19D23649103901EB800191ED000ABF
:101F7000DFED3B0A30EE200A3149103901EB8001D8
:101F800081ED000A2F49403131F8101049420AB260
:101F90002C49403121F81020401C04289FDB0024EC
:101FA00018E02749103901EB840191ED001AF0EE99
:101FB000410A234901EB840191ED001AB0EE410A78
:101FC00004EB440101EB04112B4A02EB810000F009
:101FD000C7FA641C042CE4DB19487438007E03281B
:101FE00004D017487438007E07284BD1002010E039
:101FF00000EB8002214901EB0211C96B00EE101ABF
:10200000B8EEC00A0E49203101EB800181ED000AD3
:10201000401C0428ECDB00200FE000EB400101EB4A
:102020000011154A02EB810191ED0B0A04491031B0
:1020300001EB800181ED000A401C21E078020020C4
:10204000040200203001002000004842F804002073
:10205000000000000080764000000000000000004A
:1020600000003443E12E65420000B443000034C355
:102070000000B4420000B4C2E4150020B803002000
:102080000428CADBBDEC048B10BD10B52DED048B0C
:1020900000245DE004EB8401FE4800EB0110C06BFE
:1020A00000EE100AB8EEC00AFB4800EB840080ED99
:1020B000000AFA4830F9140000EE100AB8EEC00A1F
:1020C000F548103800EB840080ED000AF44991EDEA
:1020D000001AF149503901EB8401D1ED001A21EECB
:1020E000211AF0EE410AEC49403901EB840191EDEF
:1020F000001AB0EE410A04EB440101EB0411E94A75
:1021000002EB810000F02CFAE74991ED001AE74953
:10211000D1ED001A61EE211AE04931F9141001EEF7
:10212000101AB8EEC11A21EE811AF0EE410ADA490E
:1021300001EB840191ED001AB0EE410A04EB440179
:1021400001EB0411DA4A02EB810000F009FA641C89
:10215000042C9FDB002026E0CF49D439097E0329D7
:1021600004D0CD49D439097E072916D100EB4001AE
:1021700001EB0011CE4A02EB810191ED0B0AF7EE63
:10218000000A20EE200ABDEEC00A10EE101A0AB2B4
:10219000C149983921F8102004E00022BE4998393D
:1021A00021F81020401C0428D6DBBB48D43890ED21
:1021B000310A10EE101A084605F0BAFD41EC190B71
:1021C000B0EE490AF0EE690A06F032FCB0EE408A41
:1021D000F0EE608A9FEDB70B53EC102B51EC180B0F
:1021E00005F0BAFD5DD2AC48D43890ED320A10EE5D
:1021F000101A084605F09CFD41EC190BB0EE490A97
:10220000F0EE690A06F014FCB0EE408AF0EE608A47
:102210009FEDA80B53EC102B51EC180B05F09CFD17
:102220003FD29D48D43890ED330A10EE101A08467C
:1022300005F07EFD41EC190BB0EE490AF0EE690A9B
:1022400006F0F6FBB0EE408AF0EE608A9FED990B47
:1022500053EC102B51EC180B05F07EFD21D28E486B
:10226000D43890ED340A10EE101A084605F060FDDF
:1022700041EC190BB0EE490AF0EE690A06F0D8FB02
:10228000B0EE408AF0EE608A9FED8A0B53EC102B83
:1022900051EC180B05F060FD03D20020874908605F
:1022A00002E0012085490860002032E07A49D439F3
:1022B000097E032904D07849D439097E072922D11F
:1022C0007E490968F9B100EB400101EB0011754A44
:1022D00002EB810191ED0B0ABDEEC00A10EE101A5F
:1022E00009B200EE101AB8EEC00AF7EE000A20EEAE
:1022F000200ABDEEC00A10EE101A0AB266499039E3
:1023000021F8102004E000226349903921F81020C0
:10231000401C0428CADBBDEC048B10BD10B52DEDAC
:10232000088B9FED670AB0EE408A6648408A66498E
:1023300008806448808A654908806349098811FBE0
:1023400001F1624A1288614B1B8812FB031005F0F1
:10235000B2FC41EC1A0BB0EE4A0AF0EE6A0A06F043
:1023600057FCB0EE409AF0EE609A51EC190B05F074
:1023700023FD4A4940394862084690ED090A5FED5D
:10238000CE0AB4EEE00AF1EE10FA40DB4E48B0F9A6
:10239000000005F090FC41EC1A0B4C48B0F900002D
:1023A00005F089FC41EC1B0BB0EE4A1AF0EE6A1AFC
:1023B000B0EE4B0AF0EE6B0A06F0DEF9B0EE409A92
:1023C000F0EE609A51EC190B05F0F6FC08EE100ADD
:1023D0009FED3F0A38EE000A10EE101A084605F08D
:1023E000A7FC41EC1A0B9FED3B1BB0EE4A0AF0EE46
:1023F0006A0A06F027FBB0EE409AF0EE609A51ECC4
:10240000190B05F0D9FC25494039086205E09FED1C
:102410002C0A2248403880ED090ABDEC088B10BD1B
:1024200010B52DED028B2748D0E90221104605F0AA
:102430002CFC00EE100ADFED290A80EE201A11EEC6
:10244000104A204605F074FC144A403AC2E91601CD
:102450001046D0ED131AB0EE611A90ED162BB0EEC7
:10246000420AF0EE620AFEF742FFB0EE408AF0EE5A
:10247000608A51EC180B05F09FFC08494039C8648C
:10248000FFF7D2F8FFF74AFFFFF7F9F8FFF7D2FBA3
:1024900026E00000B8030020640200207001002044
:1024A0001806002044180020680000206C0000205E
:1024B0007419002000000000000049402C0000209A
:1024C0000000000090230020380000203A00002087
:1024D000DB0FC94000000060FB21194000401C4692
:1024E000FEF782FDFFF7D1FDBDEC028B10BD0000B1
:1024F000D0ED000AF4EEC00AF1EE10FA01DD80ED35
:10250000000AD0ED000AB1EE401AF4EEC10AF1EE75
:1025100010FA03D2F1EE400AC0ED000A70470364DE
:10252000C263816380ED000AC0ED010A80ED021AEA
:10253000704780ED000AC0ED010A80ED021ADFED60
:10254000FE1AC0ED081ADFEDFC1AC0ED091ADFED26
:10255000FA1AC0ED0A1ADFEDF81AC0ED0B1A70472F
:1025600010B52DED088B0446B0EE408AF0EE608A7F
:1025700084ED048AC4ED038A38EEC80A84ED070AA4
:1025800094ED0C0AB5EEC00AF1EE10FA27D094EDE6
:102590000C0A10EE101A084605F0CAFB41EC190BA4
:1025A00094ED070A10EE101A084605F0C1FB41EC45
:1025B0001B0BB0EE4B0AF0EE6B0A06F039FAB0EEE8
:1025C00040AAF0EE60AA53EC192B51EC1A0B05F05F
:1025D000DBFB04D29FEDD80ABDEC088B10BDA06BCD
:1025E00003283ED194ED000AD4ED070A20EE200A1C
:1025F00084ED080A94ED090AD4ED010A94ED071A56
:1026000000EE810A84ED090A94ED070AD4ED060A6A
:1026100030EE600AD4ED020A20EE200A84ED0A0AA8
:10262000D4ED100AF8EE600AB0EE600A04F124005E
:10263000FFF75EFF94ED080AD4ED090A30EE200A98
:10264000D4ED0A0A30EE200A84ED0B0AD4ED0F0A0D
:10265000F8EE600AB0EE600A04F12C00FFF748FFC4
:1026600042E0A06B04283FD194ED070AD4ED060A9E
:1026700030EE600AD4ED000A20EE200A84ED080A4C
:1026800094ED010AD4ED070A20EE200A84ED090A30
:1026900094ED070AD4ED060AB0EE001A01EE600AC6
:1026A000D4ED050A30EE200AD4ED020A20EE200A0D
:1026B00084ED0A0A94ED080AD4ED090A30EE200AE6
:1026C000D4ED0A0A30EE200AD4ED0B0A30EE200ACF
:1026D00084ED0B0AD4ED0F0AF8EE600AB0EE600A42
:1026E00004F12C00FFF704FF94ED060A84ED050ABF
:1026F00094ED070A84ED060A94ED0D0AB5EEC00AC2
:10270000F1EE10FA25D094ED0D0A10EE101A0846DD
:1027100005F00EFB41EC190B94ED0B0A10EE101AAC
:10272000084605F005FB41EC1B0BB0EE4B0AF0EE42
:102730006B0A06F07DF9B0EE40AAF0EE60AA53EC09
:10274000192B51EC1A0B05F007FB02D29FED7A0A08
:1027500042E794ED0B0A3FE710B52DED088B0446D8
:10276000B0EE408AF0EE608A84ED048AC4ED038AFC
:1027700038EEC80A84ED070A94ED0C0AB5EEC00ADB
:10278000F1EE10FA27D094ED0C0A10EE101A08465C
:1027900005F0CEFA41EC190B94ED070A10EE101A71
:1027A000084605F0C5FA41EC1B0BB0EE4B0AF0EE03
:1027B0006B0A06F03DF9B0EE40AAF0EE60AA53ECC9
:1027C000192B51EC1A0B05F0DFFA04D29FED5A0ACF
:1027D000BDEC088B10BDA06B03283ED194ED000A20
:1027E000D4ED070A20EE200A84ED080A94ED090AC8
:1027F000D4ED010A94ED071A00EE810A84ED090A6E
:1028000094ED070AD4ED060A30EE600AD4ED020A10
:1028100020EE200A84ED0A0AD4ED100AF8EE600AD0
:10282000B0EE600A04F12400FFF762FE94ED080A9E
:10283000D4ED090A30EE200AD4ED0A0A30EE200A5F
:1028400084ED0B0AD4ED0F0AF8EE600AB0EE600AD0
:1028500004F12C00FFF74CFE3EE0A06B04283BD1B6
:1028600094ED070AD4ED060A30EE600AD4ED000AB2
:1028700020EE200A84ED080A94ED010AD4ED070A3F
:1028800020EE200A84ED090A94ED070AD4ED060A29
:10289000B0EE001A01EE600AD4ED050A30EE200A0F
:1028A000D4ED020A20EE200A84ED0A0A94ED080A0B
:1028B000D4ED0A0A30EE200AD4ED0B0A30EE200ADD
:1028C00084ED0B0AD4ED0F0AF8EE600AB0EE600A50
:1028D00004F12C00FFF70CFE94ED060A84ED050AC6
:1028E00094ED070A84ED060A94ED0D0AB5EEC00AD0
:1028F000F1EE10FA28D094ED0D0A10EE101A0846E9
:1029000005F016FA41EC190B94ED0B0A10EE101AB3
:10291000084605F00DFA41EC1B0BB0EE4B0AF0EE49
:102920006B0A06F085F8B0EE40AAF0EE60AA53EC10
:10293000192B51EC1A0B01E00000000005F00CFA15
:1029400002D21FED030A43E794ED0B0A40E72DE99D
:10295000F0412DED048B04460D4616461F46B0EEA1
:10296000408AF0EE608AB0EE419A29486064B0EE89
:10297000491AF0EE680AB0EE480A3B46324629464C
:102980002046D4F844C0E047BDEC048BBDE8F0819C
:102990001FED170A80ED080A1FED190A80ED090ADC
:1029A0001FED1B0A80ED0A0A1FED1D0A80ED0B0AC0
:1029B0001FED1F0A80ED050A1FED210A80ED060AB2
:1029C0001FED230A80ED070A704770B52DED068BC9
:1029D00005460C46B0EE408AF0EE608AB0EE419AB1
:1029E000F0EE619AF0EE480AB0EE680A2846FFF76A
:1029F000B7FD30EE290AB0EE40AAF0EE4A0AB0EE7A
:102A0000490A2046FFF7ACFDBDEC068B70BD000007
:102A10001F25000810B5044637480068401C364999
:102A200008602068A0F2052040B941F27D7322467B
:102A300032493148006800F0D2F900E000BF00BF21
:102A400010BD10B504462E480068401C2C49086093
:102A50002068A0F2012008284BD2DFE800F0040B28
:102A6000131B232C3640224626492548006800F0D7
:102A7000A6F93FE02246234950312148006800F082
:102A80009EF937E022461F49A0311D48006800F03A
:102A900096F92FE022461B49F0311948006800F0F2
:102AA0008EF927E040F29D532246174914480068EA
:102AB00000F095F91EE041F66A7322461249503142
:102AC0000F48006800F08BF914E041F22D03224614
:102AD0000C49A0390A48006800F081F90AE041F683
:102AE0004C232246074950390548006800F077F921
:102AF00000E000BF00BF10BDA0000020001F0020AC
:102B0000A4000020301C0020F01A002070B50546FB
:102B10000C464C22A91D384804F0EBFE364890EDD7
:102B20000C0AB1EE400A84ED000A344890ED000A28
:102B3000334880ED000A304890ED0E0A2F4880EDB2
:102B4000000A90ED000A2E48D0ED000A30EE600A2F
:102B5000DFED2C0AB4EEE00AF1EE10FA05DB2A48AC
:102B60000068401E2849086013E0244890ED000AE0
:102B70002348D0ED000A30EE600ADFED240AB4EEFF
:102B8000E00AF1EE10FA04D81F480068401C1E4904
:102B900008601D4800684FF4B471484300EE100A05
:102BA000B8EEC00A1548D0ED000A30EE200AB1EEAA
:102BB000400A84ED010A104890ED0D0A84ED020AE6
:102BC00090ED070A84ED030A90ED080AB1EE400A81
:102BD00084ED040A90ED060A84ED050A90ED030ADF
:102BE00084ED060A90ED050A84ED070A90ED040ACB
:102BF00084ED080A70BD0000D0210020AC00002048
:102C0000A80000200000A243B00000200000A2C3E2
:102C10000A7BCB7A42EA03228261826982608269FE
:102C200042600269521C026170472DE9F04104467E
:102C30000D460026002720686060287BE97A40EA7C
:102C40000120206020686168401AE060E06810F5AB
:102C5000805F07DAA06B401CA063E06800F50050BD
:102C6000E0610DE0E068B0F5805F07DDA06B401E1D
:102C7000A063E068A0F50050E06101E0E068E06179
:102C80002168A06B01EB4030A0602068A269801A27
:102C900000EE100AF8EEC00AA06B4FF4B472504375
:102CA00000EE100AB8EEC00A9FEDB91A00EE810AD4
:102CB00010EE101A084605F03BF841EC100B84EDBD
:102CC000100BE269207D411C217504F1200141F8BF
:102CD0002020207D062801D100202075002605E057
:102CE00004F1200050F826000744761C062EF7DB7E
:102CF000062097FBF0F0E063A97B687B41EA0020A7
:102D000000B2A4F84C00BDE8F08170B504460D4651
:102D100020686060287BE97A40EA01202060206812
:102D20006168401AE060E06810F5805F07DAA06B28
:102D3000401CA063E06800F50050E0610DE0E06831
:102D4000B0F5805F07DDA06B401EA063E068A0F5D2
:102D50000050E06101E0E068E0612168A06B01EBF8
:102D60004030A0602068A269801A00EE100AF8EED8
:102D7000C00AA06B4FF4B472504300EE100AB8EED4
:102D8000C00A9FED841A00EE810A10EE101A084660
:102D900004F0CEFF41EC100B84ED100BA97B687B97
:102DA00041EA0020E063E06BB0F57A7F04DBE06B82
:102DB000A0F57F40FF38E063687CA06470BD70B50B
:102DC00006460C461546322E04D829462046FFF703
:102DD0001FFF03E029462046FFF727FF70BD2DE9BE
:102DE000F04106460C4617461D4639462046FFF779
:102DF0008CFF642E12D8A069A168401A10F57A6F72
:102E000003DA05F50050A06108E0A069A168401A46
:102E1000B0F57A6F02DDA5F50050A061BDE8F08144
:102E20002DE9F04186B080460C4615461E460C9FA3
:102E300040F2FF10019000208DF80C008DF80D007D
:102E400008208DF80E00200A8DF80F008DF8104034
:102E5000290A8DF811108DF81250310A8DF81310CF
:102E60008DF81460390A8DF815108DF8167001A9C7
:102E7000404602F0DDFA06B0BDE8F0812DE9F041F0
:102E800086B080460C4615461E460C9F40F2FF2039
:102E9000019000208DF80C008DF80D0008208DF8B1
:102EA0000E00200A8DF80F008DF81040290A8DF8C9
:102EB00011108DF81250310A8DF813108DF814602E
:102EC000390A8DF815108DF8167001A9404602F0E8
:102ED000AFFA06B0BDE8F0812DE9F04186B080463A
:102EE0000C4615461E460C9F4FF4007001900020C2
:102EF0008DF80C008DF80D0008208DF80E00200ACA
:102F00008DF80F008DF81040290A8DF811108DF8FA
:102F10001250310A8DF813108DF81460390A8DF8AB
:102F200015108DF8167001A9404602F081FA06B01E
:102F3000BDE8F0812DE9F04186B080460C4615468B
:102F40001E460C9F40F2FF10019000208DF80C00EF
:102F50008DF80D0008208DF80E00200A8DF80F0066
:102F60008DF81040290A8DF811108DF81250310A91
:102F70008DF813108DF81460390A8DF815108DF83E
:102F8000167001A9404602F053FA06B0BDE8F08180
:102F9000FFFF333D0000343DF0B503460C46188872
:102FA000002113E0675C80EA072000250BE0460063
:102FB00000F4004CBCF1000F03D041F2210C86EA72
:102FC0000C0630466D1C082DF1D3491C9142E9D303
:102FD0001880F0BD2DE9F84305460F4690464FF0A6
:102FE0000009002000900626FE484078002859D0AD
:102FF000002085F86300FB484078C0F3800078B17A
:10300000F9A1284604F0A7FCF849086008460068C2
:1030100030B1F448007820F00400001DF149087038
:10302000F048407800F0010078B1EFA1284604F0A4
:1030300092FCEE4908600846006830B1E948007823
:1030400020F00100401CE7490870E6484078C0F3D2
:10305000400078B1E4A1284604F07DFCE349086013
:103060000846006830B1DF48007820F00200801C7C
:10307000DC490870DB484078C0F3C00078B1DCA1BF
:10308000284604F068FCD94908600846006830B159
:10309000D448007820F008000830D2490870002099
:1030A00028600AE128785A28FBD16878A528F8D149
:1030B000A878E97800EB0120801D4045F1D1B8F1F6
:1030C000080FEEDB042229466846FFF765FFA8F1EA
:1030D0000602A91D6846FFF75FFF2879697900EBB2
:1030E00001201FFA80F9BDF800004845D9D1062615
:1030F000E0E0AC192078C02860D008DC90280FD020
:10310000A02813D0A52829D0B0286FD13EE0D02820
:1031100070D0D1286CD0D9286BD0F028F5D1C3E07D
:103120006078B8490870B01CC6B2C2E06078A17877
:1031300000EB012000B2B3494880E078217900EB30
:10314000012000B2AF4988806079A17900EB0120AD
:1031500000B2AC49C880F01DC6B2AAE06078A17880
:1031600000EB012000B2A7490881E078217900EB4B
:10317000012000B2A34948816079A17900EB0120C8
:1031800000B2A0498881F01DC6B292E06078A178B3
:1031900000EB012000B29B49C881E078217900EB67
:1031A000012000B2974908826079A17900EB0120E3
:1031B00000B294494882F01DC6B27AE06078A178E6
:1031C00000EB012000B28F498882E078217900EB82
:1031D000012000B28B49C8826079A17900EB0120FF
:1031E00000B288490883F01DC6B262E05FE001E0EA
:1031F0004CE03FE06078A17800EB012000B281490B
:103200004883E078217900EB012000B27D49888372
:103210006079A17900EB012000B27A49C8830846A1
:10322000B0F91A0000EE100AB8EEC00ADFED760A17
:1032300020EE200A084680ED0F0AB0F91C0000EECF
:10324000100AB8EEC00ADFED700A20EE200A084628
:1032500080ED100AB0F91E0000EE100AB8EEC00AA8
:10326000DFED6A0A20EE200A084680ED110AF01D03
:10327000C6B21EE0634854F8011F016261684162F2
:10328000A168816206F10D00C6B212E05D4854F8F3
:10329000011FC16261680163A1684163E1688163E4
:1032A00006F11100C6B204E0701DC6B201E0464648
:1032B00000BF00BF4645FFF61CAF5248B0F91200F0
:1032C000404200EE100AB8EEC00ADFED500A20EED0
:1032D000200A87ED040A4B48B0F91000404200EE86
:1032E000100AB8EEC00ADFED490A20EE200A87ED89
:1032F000030A4448B0F90E00404200EE100AB8EE4E
:10330000C00ADFED420A20EE200A87ED050A404898
:1033100090ED000A3F4880ED000A3A4890ED110A0E
:10332000B1EE400A3A4880ED000A90ED000A3948B3
:10333000D0ED000A30EE600ADFED370AB4EEE00AA5
:10334000F1EE10FA05DB35480068401E334908608D
:1033500013E02F4890ED000A2E48D0ED000A30EE21
:10336000600ADFED2F0AB4EEE00AF1EE10FA04D89D
:103370002A480068401C294908602A4890ED000A44
:10338000294880ED000A1F4890ED080A254880ED85
:10339000000A90ED000A2448D0ED000A30EE600AE1
:1033A000DFED1D0AB4EEE00AF1EE10FA05DB1F486E
:1033B0000068401E1D49086013E01A4890ED000A9D
:1033C0001948D0ED000A30EE600ADFED150AB4EEC0
:1033D000E00AF1EE10FA04D814480068401C1349C2
:1033E000086025E0B40000204F4B0000B80000202A
:1033F0006E6577207061636B6574206974656D73A9
:10340000000000001C2200200AD7233CCDCCCC3D7C
:10341000C0000020BC0000200000A543D400002014
:103420000000A5C3C8000020C4000020D800002070
:10343000314800684FF4B471484300EE100AB8EE0A
:10344000C00A2E48D0ED000A30EE200A87ED000AAF
:103450002B4890ED000A2B4880ED000A2A4890ED99
:10346000090A274880ED000A90ED000A2548D0EDB2
:10347000000A30EE600A5FED180AB4EEE00AF1EEE1
:1034800010FA05DB21480068401E2049086013E05F
:103490001B4890ED000A1B48D0ED000A30EE600A90
:1034A0005FED210AB4EEE00AF1EE10FA04D81748F5
:1034B0000068401C15490860154800684FF4B47155
:1034C000484300EE100AB8EEC00A1248D0ED000AD8
:1034D00030EE200A87ED010A0B4890ED100ADFED6F
:1034E0000E0A30EE200A87ED020A90ED0F0A87EDF2
:1034F000000ABDE8F8830000D8000020C8000020C2
:10350000D0000020CC0000201C220020DC00002085
:10351000D4000020C0000020A470954030B50346C0
:1035200005E013F8010B80EA0204B348025D081EAF
:10353000A1F10101F5D1104630BD70B505460C462C
:1035400000260DB1022C01D8002070BD611EFF22A3
:103550002846FFF7E3FF0646601E285CB04201D113
:103560000120F2E70020F0E770B505460C46002682
:103570000DB1022C00D870BD611EFF222846FFF756
:10358000CDFF0646601E2E5400BFF4E730B503465B
:1035900013B94FF6FF7030BD09E013F8014B82EA12
:1035A0000400C0B2954D35F8100080EA2222081EB2
:1035B000A1F10101F1D11046EDE770B505460C46C9
:1035C00000260DB1022C01D8002070BDA11E8C4830
:1035D00002882846FFF7DAFF0646F1B2A01E285CF3
:1035E000814206D1601E285CB0EB162F01D101206C
:1035F000EBE70020E9E770B505460C4600260DB163
:10360000022C00D870BDA11E7D4802882846FFF715
:10361000BDFF0646A01E2E54310A601E295400BF6D
:10362000F0E770B504460D4600260CB1022D01D816
:10363000FF2070BDFF2229462046FFF76FFFF8E705
:103640002DE9FC5F05460F46092F01D8BDE8FC9F18
:103650000024A146CBE015F804A0601C295CA01C46
:10366000285C41EA0026601D295CA01D285C41EA17
:10367000002B281900F1070828190168009100792A
:103680008DF8040006F109001FFA80F9BAF1A50FC0
:1036900077D105216846FFF750FF002871D028191F
:1036A0004946FFF78AFF0028F8D0BBF5017F6AD0B2
:1036B00012DC40F20311ABEB01008B452BD006DC92
:1036C000BBF1010F1AD0BBF1030F74D11CE0FE282F
:1036D00028D0FF286FD14BE0BBF5027F6DD006DC10
:1036E000ABF20620002856D001287BD15AE0ABF27D
:1036F0000130002868D0022874D16CE0324641467F
:10370000404804F0F6F86EE0324641463D480C3041
:1037100004F0EFF867E0324641463A48363004F0AC
:10372000E8F860E01B2E22D1324641463548393058
:1037300004F0DFF8334890F83900012809DB3148FC
:1037400090F83900072804DC02202E4981F8C500D2
:103750000DE02C4890F839000B2808DB294890F838
:103760003900112803DC0120264981F8C5003AE020
:10377000102E05D1324641462248543004F0B9F8A3
:1037800031E031E0FFE7012E04D198F800001D4937
:1037900081F8740027E0324641461A48763004F03A
:1037A000A8F820E0072E05D132464146154877306B
:1037B00004F09FF817E015E0FFE732464146114854
:1037C0007E3004F096F80EE0324641460D488430D3
:1037D00004F08FF807E0324641460A48AC3004F066
:1037E00088F800E000BF00BF04EB090084B2A742E4
:1037F0003FF731AF00BF29E7DF960008E0970008E8
:10380000E0000020642200200A68B2F5C26F07D0F1
:10381000A2F211627AB1012A1DD0022A3BD12AE01C
:103820000A7BCB7A42EA032202808B7B4A7B43EA03
:103830000222428030E00A7BCB7A42EA0322828075
:103840008B7B4A7B43EA0222C2800B7CCA7B43EA21
:103850000222028120E00A7BCB7A42EA03224281E3
:103860008B7B4A7B43EA022282810B7CCA7B43EA40
:103870000222C28110E00A7BCB7A42EA0322028252
:103880008B7B4A7B43EA022242820B7CCA7B43EA5F
:103890000222828200E000BF00BF704770B586B090
:1038A00006460C461546019500208DF80C008DF853
:1038B0000D0008208DF80E0020128DF80F008DF8F5
:1038C000104000218DF811108DF812108DF8131092
:1038D0008DF814108DF815108DF8161001A93046CA
:1038E00001F0A6FD06B070BD30B585B005460C46AA
:1038F000009400208DF8080002208DF809000620B1
:103900008DF80A0000208DF80B0000218DF80C10B6
:103910008DF80D108DF80E108DF80F108DF8101019
:103920006946284601F084FD05B030BD10B5044657
:103930004FF4C2612046FFF7D7FF40F211612046E5
:10394000FFF7D2FF40F212612046FFF7CDFF40F2B1
:1039500013612046FFF7C8FF10BD70B505460C4641
:103960004FF4C06202212846FFF798FF04EBC40021
:1039700000EB04104FF6FF7202EA800140F2016290
:103980002846FFF78BFF40F2026240F6C41128463A
:10399000FFF784FF40F203624FF42F712846FFF7D0
:1039A0007DFF70BD10B503463BB1087838B90120E2
:1039B00008701078401C107001E00020087010782A
:1039C00000EBD0746410A0EB44040CB9002010BDCF
:1039D0000120FCE7CB8A03400BB1012300E0002368
:1039E0001370704710B5044604F1280221460120E7
:1039F000FFF7F0FF04F1290221460420FFF7EAFF58
:103A000004F12A0221460220FFF7E4FF04F12B0211
:103A100021460820FFF7DEFF04F12C02214610208A
:103A2000FFF7D8FF04F12E0221462020FFF7D2FF36
:103A300004F12F0221464020FFF7CCFF04F13002B1
:103A400021468020FFF7C6FF04F1310221464FF4E2
:103A50008070FFF7BFFF04F1320221464FF400707F
:103A6000FFF7B8FF04F1330221464FF48060FFF7FF
:103A7000B1FF04F1340221464FF40060FFF7AAFFC2
:103A800004F12D0221464FF48050FFF7A3FF04F10B
:103A9000350221464FF40050FFF79CFF04F1360237
:103AA00021464FF48040FFF795FF04F1370221468D
:103AB0004FF40040FFF78EFF94F82800914A924996
:103AC000FFF770FF382108552921085D8F4A90497A
:103AD000FFF768FF392108552A21085D8D4A8E4974
:103AE000FFF760FF3A2108552B21085D8B4A8C496E
:103AF000FFF758FF3B2108552C21085D894A8A4968
:103B0000FFF750FF3C2108552E21085D874A884960
:103B1000FFF748FF3E2108552F21085D854A864959
:103B2000FFF740FF3F2108553021085D834A844953
:103B3000FFF738FF402108553121085D814A82494D
:103B4000FFF730FF412108553221085D7F4A804947
:103B5000FFF728FF422108553321085D7D4A7E4941
:103B6000FFF720FF432108553421085D7B4A7C493B
:103B7000FFF718FF442108552D21085D794A7A493D
:103B8000FFF710FF3D2108553521085D774A784938
:103B9000FFF708FF452108553621085D754A76492B
:103BA000FFF700FF462108553721085D734A744925
:103BB000FFF7F8FE4721085510BD817AC176017FD5
:103BC000C27E891A4177C27E0277417F01290ED1D8
:103BD000016A491C0162016A01EBD1725210A1EB2A
:103BE000420212B90022827701E001228277417FEE
:103BF00002290ED1416A491C4162416A01EBD1722E
:103C00005210A1EB420212B90022C27701E0012258
:103C1000C2777047C17A012901D1817608E0C17A63
:103C2000032901D1817603E0C17A022900D181768E
:103C3000704730B504460D46122D00D030BD04B992
:103C4000FCE72078617840EA0120C0F30A004D4982
:103C500008806078C010A17840EA4110C0F30A00E3
:103C600048494880A0788011E17840EA81002179B4
:103C700040EA8120C0F30A00424988802079401040
:103C8000617940EAC110C0F30A003E49C880207C37
:103C9000617C40EA0120C0F30A003A49088160795A
:103CA0000011800888726079C0F30110C872A07991
:103CB000E17940EA012000B232498881207A617AB4
:103CC00040EA012001B22F48C181A07AE17A40EA9E
:103CD000012001B22B480182217B0175617B417576
:103CE000A07BE17B40EA01202649C8820846FFF715
:103CF00091FF2448FFF761FF2248FFF773FE00BFE2
:103D00009CE70000E3000020E2000020E500002026
:103D1000E4000020E7000020E6000020E900002089
:103D2000E8000020EB000020EA000020ED00002069
:103D3000EC000020EF000020EE000020F100002049
:103D4000F0000020F3000020F2000020F500002029
:103D5000F4000020F7000020F6000020F900002009
:103D6000F8000020FB000020FA000020FD000020E9
:103D7000FC000020FF000020FE00002001010020C8
:103D80000001002042230020F0B58BB004460D4610
:103D900016461F460121084602F0A8FB01214806ED
:103DA00002F0EDFB09220B21964802F08CF9092262
:103DB0000C21944802F087F94FF4C050099002207A
:103DC0008DF8280009A98F4802F0F2F814208DF828
:103DD000040003208DF8050001208DF806008DF801
:103DE000070001A801F027F9874801F08FF906A81C
:103DF00001F0B0FA00208DF81E0001208DF81F00A0
:103E000000208DF820008DF821008DF822008DF81B
:103E100023008DF81A708DF81B008DF81C508DF85A
:103E20001D40ADF8186006A9774801F088F9002018
:103E30008DF812008DF8130001208DF81400002079
:103E4000ADF80800ADF80A00ADF80C00ADF80E00B2
:103E5000ADF8100001208DF8150002A801F0F9F965
:103E600001220221684801F0F3FC0BB0F0BD10B54F
:103E70000121654801F054FD18B10121624801F0AB
:103E8000EAFD10BD00B585B002215F4801F048FD94
:103E900088B104215C4801F0DEFD5C495A4801F01C
:103EA0001CFD6A460021584801F0B7FB00BF684678
:103EB000FEF7B0FD00BF05B000BDF0B58BB0044605
:103EC0000D4616461F460121022002F00FFB01217C
:103ED000880602F054FB09220C214D4802F0F3F849
:103EE00009220D214A4802F0EEF84FF440500290AA
:103EF00002208DF80C0002A9454802F059F8402034
:103F00008DF8040003208DF805008DF806000120CF
:103F10008DF8070001A801F08EF83F208DF804000D
:103F200003208DF805008DF8060001208DF80700AC
:103F300001A801F080F8374801F0E8F808A801F07E
:103F400009FA00208DF8260001208DF827000020B6
:103F50008DF828008DF829008DF82A008DF82B00A7
:103F60008DF822008DF823008DF824508DF825401F
:103F7000ADF8206008A9274801F0E1F80E208DF87F
:103F80001A0000208DF81B0001208DF81C00002075
:103F9000ADF81000ADF81200ADF81400ADF8160041
:103FA000ADF8180001208DF81D0004A801F051F9AA
:103FB00001220221174801F04BFC0BB0F0BD10B5F7
:103FC0000121144801F0ACFC18B10121114801F0A5
:103FD00042FD10BD00B585B002210E4801F0A0FCE5
:103FE00068B102210B4801F036FD6A4600210948FC
:103FF00001F013FB00BF6846FEF723FD00BF05B0CC
:1040000000BD0000000002400064004008000032D3
:10401000000402400068004000BF704700BFFE4A35
:10402000128802F04002002AF9D0C2B2FA4B1B1DDE
:104030001A80704710B596B004460121022002F0A4
:1040400055FA0121880502F051FA0121102002F0F1
:10405000A7FA07221146F14802F035F814A801F03A
:10406000EFFF8020149002208DF8540000208DF87E
:10407000550001208DF8570014A9E84801F098FF79
:10408000E74803F0D9F910A803F0A3FA1094002030
:10409000ADF84400ADF846004FF48060ADF848003C
:1040A0000420ADF84A000020ADF84C0010A9DC480F
:1040B00003F029FA01224021D94803F059FBD948DD
:1040C00001F01CFD684601F0E4FD4FF00060009037
:1040D000D348001D0190D448029000200390402056
:1040E0000490002005904FF4806006900020079017
:1040F00008904FF48070099000020A9000200B9005
:104100000C900D900E906946C64801F099FD002272
:10411000C5494031C34801F0F4FD0121C14801F017
:10412000FCFD0121BF4801F0C5FD25208DF83C00B4
:1041300000208DF83D008DF83E0001208DF83F00F5
:104140000FA800F078FF012240F22441B44803F0A8
:1041500018FB0121B24803F05EFA16B010BD10B58D
:1041600040F22441AE4803F047FB002852D0AC484F
:104170000088AB488088AB4801F0DFFD20BB002100
:10418000A84801F097FDA949A64801F00CFEA548F2
:1041900001F0B3FDC0F14000A54908604020A149ED
:1041A000091D0860081F006840F40020091F08600E
:1041B00001219C4801F07EFD00BF9D48008881B22E
:1041C0009948FFF736FD25E00021964801F072FD81
:1041D0009649944801F0E7FD924801F08EFDC0F148
:1041E00040009349086040208E49091D0860081F5F
:1041F000006820F40020091F08600121894801F0AF
:1042000059FD00BF8A48008881B287484030FFF7D7
:1042100010FD00BF10BD10B596B004460121084640
:1042200002F064F90121480502F060F90121480417
:1042300002F0A5F9072202217E4801F044FF07227F
:1042400003217C4801F03FFF14A801F0F9FE0C2087
:10425000149002208DF8540000208DF855000120A4
:104260008DF8570014A9734801F0A2FE6A4803F0C4
:10427000E3F810A803F0ADF910940020ADF8440065
:10428000ADF84600ADF848000C20ADF84A0000201B
:10429000ADF84C0010A9604803F035F90122402127
:1042A0005F4803F065FA644801F028FC684601F0B5
:1042B000F0FC4FF0006000905748001D01905F48EF
:1042C00002900020039064200490002005904FF499
:1042D000806006900020079008904FF4807009904D
:1042E00000020A9000200B900C900D900E906946F1
:1042F000514801F0A5FC0022504964314E4801F0BC
:1043000000FD01214C4801F008FD01214A4801F05F
:10431000D1FC26208DF83C0000208DF83D008DF862
:104320003E0001208DF83F000FA800F084FE01221E
:1043300040F22441384803F024FA0121364803F0C2
:104340006AF916B010BD10B540F22441324803F0AE
:1043500053FA28B3304800882F48001D00880021F8
:10436000354801F0A7FC3649334801F01CFD3248BE
:1043700001F0C3FCC0F164003249086064202E499A
:10438000091D08602C488838D0F8880040F40020C7
:10439000091F08600121284801F08CFC00BF20E0C3
:1043A0000021254801F086FC2549234801F0FBFC4B
:1043B000214801F0A2FCC0F1640022490860642099
:1043C0001D49091D08601C488838D0F8880020F471
:1043D0000020091F08600121174801F06BFC00BF95
:1043E00000BF10BD10B596B004460121022002F0B6
:1043F0007DF80121880402F0C2F80121480502F08D
:1044000075F807220A21054801F05DFE07220B21FD
:10441000024801F058FE17E000440040000402404A
:104420000010014040640240B02300200000301022
:104430000801002000000240886002407024002033
:10444000000C00200C01002002208DF84400032005
:104450008DF8450000208DF8460001208DF84700BA
:104460008002109010A9FE4801F0A2FD4FF40060F8
:10447000109010A9FA4801F09BFD27208DF800004C
:1044800002208DF8010001208DF802008DF8030054
:10449000684600F0D0FD12940020ADF84C00ADF855
:1044A0004E00ADF85000ADF854000C20ADF85200AD
:1044B00012A9EC4803F027F8012240F22441E94810
:1044C00003F05FF95021E74803F08DF9642005906F
:1044D00000200C900D900E9009904FF48060079092
:1044E00080100A90DF48001D029000200F90089075
:1044F00006904FF400300B90800201900020049051
:10450000D948039001A9D94801F09AFB0121D74865
:1045100001F0D0FB01224021D24803F029F901210A
:10452000D04803F078F816B010BD10B540F2244121
:10453000CC4803F061F9F8B1CA4803F09BF840F2A7
:104540002441C84803F093F90021C84801F0B2FBA8
:1045500000224021C34803F00BF900BFC449C24800
:10456000FEF7D4FA00BF01224021BE4803F000F953
:104570000121BE4801F09EFB10BD10B596B0044667
:104580000121042001F0B2FF0121C80401F0F7FF6E
:1045900008220A21B74801F096FD08220B21B548F0
:1045A00001F091FD0121480501F0A0FF4FF44060AA
:1045B000109002208DF8440000208DF84600032062
:1045C0008DF8450001208DF8470010A9A94801F099
:1045D000EFFC12940020ADF84C00ADF84E00ADF8A1
:1045E00050000C20ADF852000020ADF8540012A984
:1045F000A14802F088FF012240219F4803F0B8F84B
:104600009A48183001F07AFA684601F042FB4FF000
:10461000006000909848001D01909848029000208A
:10462000039064200490002005904FF48060069071
:1046300000200790089009904FF480300A900020E5
:104640000B900C900D900E9069468848183001F040
:10465000F7FA01218548183001F02CFB34208DF841
:104660003C0003208DF83D008DF83E0001208DF8C0
:104670003F000FA800F0DFFC012280217E4803F0FC
:1046800077F800217948483001F014FB774848302A
:1046900001F034FA00BF7548483001F058FB00289B
:1046A000F9D14FF0006000907348001D01907448EC
:1046B0000290402003900020049005904FF4806009
:1046C000069000200790089009904FF480300A90DF
:1046D00000200B9003200C9000200D900E90694656
:1046E0006248483001F0ACFA0F208DF83C000320FE
:1046F0008DF83D008DF83E0001208DF83F000FA899
:1047000000F099FC012210215848483001F05FFB6D
:10471000012240F22441584803F033F80121564861
:1047200002F079FF16B010BD10B5002440F224410C
:10473000514803F061F808B34F4800884E48001D07
:10474000008800214948183001F0B4FA4D49474823
:10475000183001F028FB4548183001F0CEFAC0F1BE
:104760006400C4B200BF00BF64214048183001F0AB
:10477000C2FA01213D48183001F09CFA10BD70B515
:1047800004460D462946204601F0B5FA012120468F
:1047900001F090FA70BD10B53B493448483001F043
:1047A000E6FA48B100213148483001F083FA364931
:1047B0002E48483001F0F7FA10BD70B504460025C8
:1047C0002F4D05F8014B012128484830FFF7D7FF4E
:1047D00070BD2DE9F04105460E4600240027284F04
:1047E00000BF03E0285D3855601C84B2B442F9DB99
:1047F00031461E484830FFF7C2FFBDE8F08110B5D2
:1048000096B004460121042001F070FE0121082029
:1048100001F06CFE0121080501F0B1FE01214805FF
:1048200001F064FE02208DF8540000208DF856003F
:104830004FF48050149001208DF8570003208DF81C
:10484000550014A90B4801F0B3FB02208DF8540069
:1048500000208DF8560004201490012016E000007E
:1048600000040240004800409C25002028600240CF
:10487000A81A002000080240004C0040002600203A
:104880006426002000003010200000208DF8570022
:1048900003208DF8550014A9EF4801F089FB082288
:1048A0000C21EE4801F00FFC08220221EA4801F039
:1048B0000AFC10940020ADF84C000C20ADF84A0022
:1048C0000020ADF84800ADF84600ADF8440010A94E
:1048D000E34802F018FE0121E14802F09CFE0122AB
:1048E0004021DF4802F044FF684601F0D2F9DD487C
:1048F00002904FF40070049080040090D848001D8E
:1049000001900020039005904FF4806006900020F5
:104910000890079009904FF480300A9000200B9087
:104920000C900D900E906946CF4801F089F9012155
:10493000CD4801F0BFF90022CC49CB4801F0E1F9A4
:104940000121C94801F0E9F935208DF83C0001202A
:104950008DF83F008DF83D0002208DF83E000FA835
:1049600000F069FB012240F22441BD4802F009FF3A
:104970000121BB4802F04FFE01228021B84802F01D
:10498000F7FE0021B848A83001F094F9B648A830E5
:1049900001F0B4F800BFB448A83001F0D8F90028FD
:1049A000F9D14FF000600090AD48001D0190B04873
:1049B00002904020039042200490002005904FF484
:1049C0008060069000200790089009900A900B9054
:1049D00003200C9000200D900E906946A248A8304C
:1049E00001F02EF90121A048A83001F063F92F2031
:1049F0008DF83C0002208DF83D0001208DF83E002E
:104A00008DF83F000FA800F016FB16B010BD70B572
:104A100004460D460021204601F04CF900BF204617
:104A200001F095F90028FAD12946204601F063F9F2
:104A30000121204601F03EF970BD10B540F224413D
:104A4000874802F0D9FE002852D085480088844863
:104A50008088854801F071F928BB0021824801F067
:104A600029F98449804801F09EF97F4801F045F911
:104A7000C0F50070804908604FF400717A4801F079
:104A80003AF94FF400227949774801F051F90121B0
:104A9000754801F00FF900BF7748008881B271486E
:104AA000FEF7CEFD24E000216F4801F003F97149C3
:104AB0006D4801F078F96C4801F01FF9C0F50070FD
:104AC0006D4908604FF40071674801F014F9002245
:104AD0006449654801F02CF90121634801F0EAF8C6
:104AE00000BF6548008881B26048FEF7A9FD00BF9D
:104AF00010BD00B597B00121042001F0F7FC0121A1
:104B0000880501F0F3FC0121202001F049FD082275
:104B10000621524801F0D7FA082207214F4801F038
:104B2000D2FAC020119002208DF8480000208DF8A4
:104B30004A0002208DF8490000208DF84B0011A991
:104B4000464801F035FA4D4802F076FC4C48139087
:104B50000020ADF85000ADF85200ADF854000C2024
:104B6000ADF856000020ADF8580013A9434802F0F4
:104B7000CAFC01224021414802F0FAFD414800F000
:104B8000BDFF4FF0206001903C48001D02903E4860
:104B900003900020049064200590002006904FF4BC
:104BA000806007900020089009900A904FF48030B0
:104BB0000B9000200C900D900E900F9001A93148A1
:104BC00001F03EF801212F4801F074F847208DF8DC
:104BD000400003208DF841008DF8420001208DF83F
:104BE000430010A800F027FA012240F22441234894
:104BF00002F0C7FD0121214802F00DFD17B000BDF4
:104C000010B540F224411D4802F0F6FD18B31B48D0
:104C100000881A48001D008800211A4801F04AF84F
:104C20001A49184801F0BFF8164801F066F8C0F1BB
:104C300064001749086000BF084602781549124809
:104C4000FEF7C8F900BF64210E4801F054F80121B5
:104C50000C4801F02FF810BD000C02400008024083
:104C6000005000400A270020106002400A2900205E
:104C7000C826002030000010100100200014014060
:104C8000B0AA0E00286402400A2B0020000C00107D
:104C900014010020A81A00200EB50121022001F005
:104CA0007FFC4FF0FF300190A720ADF800000020FE
:104CB000ADF80800ADF802000121D64801F082FEEF
:104CC0006946D44801F013FE0121D24801F07AFE72
:104CD00000221146CF4801F047FE0121CD4801F0E6
:104CE00059FE0121CB4801F08BFE0EBD1FB50121FD
:104CF000042001F044FC1C208DF8000000208DF8F9
:104D0000010002208DF8020001208DF803006846A2
:104D100000F091F94FF0FF3002905320ADF80400FD
:104D20000020ADF80C00ADF806000121880701F065
:104D300049FE01A94FF0804001F0D9FD012188070B
:104D400001F05EFE1FBD1FB50121022001F017FC1E
:104D50001D208DF8000000208DF8010002208DF844
:104D6000020001208DF80300684600F064F94FF05E
:104D7000FF300290A720ADF804000020ADF80C0031
:104D8000ADF806000121A44801F01CFE01A9A348CA
:104D900001F0ADFD0121A04801F032FE01221146D3
:104DA0009D4802F045FA01219B4802F055FA1FBDCB
:104DB0001FB50121042001F0E2FB1E208DF8000048
:104DC00000208DF8010002208DF8020001208DF8EE
:104DD0000300684600F02FF94FF0FF300290A72043
:104DE000ADF804000020ADF80C00ADF8060001217C
:104DF0008A4801F0E7FD01A9884801F078FD01210A
:104E0000864801F0FDFD01221146844802F010FAA7
:104E10000121824802F020FA1FBD1FB501210820A0
:104E200001F0ADFB32208DF8000000208DF801006C
:104E300002208DF8020001208DF80300684600F082
:104E4000FAF84FF0FF300290A720ADF804000020E0
:104E5000ADF80C00ADF806000121714801F0B2FD7B
:104E600001A96F4801F043FD01216D4801F0C8FD23
:104E7000012211466A4802F0DBF90121684802F07C
:104E8000EBF91FBD10B50121880702F0E8F948B120
:104E90000121880702F0F4F90121880702F0DCF90A
:104EA00000BF00BF10BD10B501215B4802F0D7F96B
:104EB00038B10121584802F0E3F90121564802F0C7
:104EC000CBF910BD10B50121544802F0C8F948B122
:104ED0000121524802F0D4F90121504802F0BCF9F6
:104EE00000BF00BF10BD10B501214D4802F0B7F959
:104EF00048B101214A4802F0C3F90121484802F0B3
:104F0000ABF900BF00BF10BD1FB50121102001F09B
:104F100036FB36208DF8000003208DF801000220BA
:104F20008DF8020001208DF80300684600F083F838
:104F30005320ADF804000020ADF80600ADF80C00D9
:104F400040F2E730029001A9364801F0D0FC01217F
:104F5000344801F055FD01221146324802F068F94B
:104F60000121304802F078F91FBD1FB50121102042
:104F700001F005FB37208DF8000003208DF80100BB
:104F800002208DF8020001208DF80300684600F031
:104F900052F85320ADF804000020ADF80600ADF83B
:104FA0000C0040F2E730029001A91F4801F09FFC7D
:104FB00001211D4801F024FD012211461A4802F08A
:104FC00037F90121184802F047F91FBD10B501213A
:104FD000144802F044F958B10121124802F050F986
:104FE0000121104802F038F900BFFBF745FA00BF75
:104FF00010BD10B501210C4802F031F948B1012172
:10500000094802F03DF90121074802F025F900BFE7
:1050100000BF10BD00040140000400400008004033
:10502000000C0040001000400014004032490143D1
:10503000324A1160704770B5002100230F22C478F6
:105040001CB32E4C246804F4E064C4F5E064C4F39B
:105050000721C1F10404E3B20A4144789C40E1B263
:105060008478144021430C07210E254C05786155A6
:10507000047804F01F050124AC4005786D11AD00E3
:1050800005F1E025C5F8004109E0047804F01F05AA
:105090000124AC401B4D0678761145F8264070BDC2
:1050A000194A0A400243154B1B1F1A60704739B159
:1050B000124A121D12680243104B1B1D1A6006E0B3
:1050C0000E4A121D126882430C4B1B1D1A6070475A
:1050D000042808D14FF0E021096941F004014FF0A4
:1050E000E022116107E04FF0E021096921F004019D
:1050F0004FF0E022116170470000FA050CED00E06E
:1051000000E400E080E100E080FFFF1F10B50446EE
:10511000FE48844209D10121480601F085FA0021A8
:105120004FF0007001F080FA08E00121880601F0DC
:105130007BFA00214FF0806001F076FA10BD30B5A7
:10514000024600200023146824F00204146014684E
:1051500044F00104146000E05B1C546804F0010496
:105160001CB94FF6FF74A342F6D1546804F0010451
:105170000CB900206CE08C79012C04D1146844F047
:105180008004146003E0146824F080041460CC7977
:10519000012C04D1146844F04004146003E0146846
:1051A00024F0400414600C7A012C04D1146844F0FB
:1051B0002004146003E0146824F0200414604C7A86
:1051C000012C04D1146844F01004146003E0146846
:1051D00024F0100414608C7A012C04D1146844F07B
:1051E0000804146003E0146824F008041460CC7A06
:1051F000012C04D1146844F00404146003E0146822
:1052000024F0040414608C78A407CD7844EA056483
:105210000D7944EA05444D7944EA05540D886D1E24
:105220002C43D461146824F001041460002300E0CE
:105230005B1C546804F001041CB14FF6FF74A342D8
:10524000F6D1546804F001040CB1002000E0012004
:1052500030BD10B50021837A012202FA03F1AC4A75
:10526000126842F00102AA4B1A60A94A1C32126865
:105270008A43A74B1C331A60027BCAB9A44A0C327A
:1052800012688A43A24B0C331A604288C38842EAF0
:1052900003439F4A4032847A42F83430028883883C
:1052A00042EA03439A4A4032847A02EBC4025360D2
:1052B000027B012A19D1964A0C3212680A43944B98
:1052C0000C331A604288038842EA0343904A403212
:1052D000847A42F83430C288838842EA03438C4A95
:1052E0004032847A02EBC4025360C27A3AB9884AE7
:1052F000121D12688A43864B1B1D1A6006E0844A01
:10530000121D12680A43824B1B1D1A60028932B9B2
:105310007F4A143212688A437D4B14331A60028923
:10532000012A06D17A4A143212680A43784B1433A0
:105330001A60427B012A06D1754A1C3212680A4360
:10534000734B1C331A60724A126822F00102704BD0
:105350001A6010BD00218171C171017241728172A8
:10536000C1728170C170032101710221417101215B
:10537000018070476649096841F00101644A116083
:105380001146096843F60E729143614A1160114655
:10539000096841EA002111601146096821F0010104
:1053A0001160704721B1026842F48032026003E06C
:1053B000026822F4803202607047E1B1026842F074
:1053C000800202604FF4C272125842F480734FF4AC
:1053D000C27213504FF4CA72125842F480734FF4E1
:1053E000CA7213504FF4D272125842F480734FF4C1
:1053F000D27213501BE0026822F0800202604FF468
:10540000C272125822F480734FF4C27213504FF4D8
:10541000CA72125822F480734FF4CA7213504FF4B8
:10542000D272125822F480734FF4D2721350704724
:1054300010B502460020936803F08063B3F1806FDB
:1054400000D110E0936803F00063B3F1006F01D165
:10545000012008E0936803F08053B3F1805F01D12D
:10546000022000E00420042879D002F5C07303EB89
:1054700000131B6803F0010402F5C07303EB001373
:105480001C600B7A7BB94B7A0C8843EA445302F5D3
:10549000C07404EB00142468234302F5C07404EBC9
:1054A0000014236010E00B7A4C6843EAC4034C7A82
:1054B000234302F5C07404EB00142468234302F56F
:1054C000C07404EB001423608B7A03F00F038B721B
:1054D00002F5C07303EB00135B6823F00F0402F5C1
:1054E000C07303EB00135C6002F5C07303EB0013A1
:1054F0005B688C7A234302F5C07404EB001463608C
:105500008B7B1C064B7B44EA034403E000640040B1
:10551000006600400B7B44EA0323CC7A234302F568
:10552000C07404EB0014A3608B7C1C064B7C44EA23
:1055300003440B7C44EA0323CC7B234302F5C07471
:1055400004EB0014E36002F5C07303EB00131B6867
:1055500043F0010402F5C07303EB00131C6010BD9F
:1055600010B50246002321B1012907D002290FD12D
:1055700009E09068F94C00EA04030BE09068F84CED
:1055800000EA040306E09068F64C00EA040301E038
:10559000002300BF00BFF44C181BA34216D007DC49
:1055A00083B16FF08060184470B1022818D111E007
:1055B000B0F5007F10D0ED4C204448B1B0F5003F6D
:1055C0000ED10BE002230DE000230BE0002309E0E5
:1055D000002307E0012305E0012303E0012301E0AC
:1055E000002300BF00BFD8B210BD21B1012907D0F0
:1055F00002290FD109E0826842F0800282600AE04D
:10560000826842F40042826005E0826842F400024F
:10561000826000E000BF00BF704710B500F5D8738E
:1056200003EB01131B6803F004031372137A53B9DD
:1056300000F5D87303EB01131B6840F2FF7404EA12
:105640005353136009E000F5D87303EB01131B6893
:105650006FF0604404EAD303536000F5D87303EBA2
:1056600001131B6803F00203537200F5D87303EBB8
:1056700001135B6803F00F03937200F5D87303EB1B
:1056800001135B681B0AD37400F5D87303EB011395
:105690009B68D37200F5D87303EB01139B681C0A57
:1056A000147300F5D87303EB01139B681C0C54733F
:1056B00000F5D87303EB01139B681B0E937300F581
:1056C000D87303EB0113DB68D37300F5D87303EBD6
:1056D0000113DB681C0A147400F5D87303EB011383
:1056E000DB681C0C547400F5D87303EB0113DB6802
:1056F0001B0E937421B9C36843F02003C36003E019
:10570000036943F02003036110BD21B9C26842F070
:105710002002C26003E0026942F020020261704789
:105720000246002019B9D36803F0030006E00129FE
:1057300003D1136903F0030000E00020704710B5A7
:1057400002460B4600204FF6FF71BBB9146824F0E7
:10575000020444F00104146000E0491E546804F09F
:105760000304012C01D00029F7D1546804F003048C
:10577000012C01D0002032E0012030E0012B13D1B8
:10578000146824F00304146000E0491E546804F017
:1057900003040CB10029F8D1546804F003040CB1DF
:1057A00000201CE001201AE0022B17D1146824F01D
:1057B000010444F00204146000E0491E546804F03F
:1057C0000304022C01D00029F7D1546804F003042B
:1057D000022C01D0002002E0012000E0002010BDDA
:1057E000014600200A6822F0010242F002020A602B
:1057F0004A6802F00302022A00D1012070470146E4
:105800004FF6FF7200200B6823F002030B6000E0EC
:10581000521E4B6803F00203022B01D1002AF7D17C
:105820004B6803F00203022B00D0012070470146B1
:1058300000208A6902F070007047014600208A69E2
:10584000100E7047014600208A69C2F30740704776
:105850001AB143690B43436102E043698B434361DF
:10586000704710B50246002001F4700343B19369FC
:10587000C1F3130423400BB101202DE000202BE0E5
:1058800001F0807343B15368C1F3130423400BB19B
:10589000012021E000201FE001F0006343B1936884
:1058A000C1F3130423400BB1012015E0002013E0E5
:1058B00001F0007343B1D368C1F3130423400BB16B
:1058C000012009E0002007E01369C1F3130423401D
:1058D0000BB1012000E0002010BD0022244B9942B2
:1058E00002D10023836111E0C1F3130201F00073C0
:1058F0000BB1C2600AE001F080630BB1026105E008
:1059000001F000630BB1826000E042607047024624
:10591000002002EA01030BB1012000E000207047E3
:1059200070B504460D46002660692840002872D0F4
:10593000B5F5807F69D01DDC082D42D006DC012D35
:105940002DD0022D31D0042D7FD134E0102D3ED04A
:10595000202D42D0402D78D145E000000300000406
:105960000003000800000310000100080001FFF719
:105970007000F030B5F5004F61D009DCB5F5007F5F
:105980004AD0B5F5806F4DD0B5F5006F5DD150E0D0
:10599000B5F5803F2DD0B5F5003F56D12FE0A0687A
:1059A0005549FFF7B4FF064651E0E0680321FFF7D1
:1059B000AEFF06464BE0E0680821FFF7A8FF064669
:1059C00045E0E0681021FFF7A2FF06463FE02069AE
:1059D0000321FFF79CFF064639E020690821FFF705
:1059E00096FF064633E020691021FFF790FF064638
:1059F0002DE060680821FFF78AFF064627E060680F
:105A00001021FFF784FF064621E0A0690121FFF77E
:105A10007EFF06461BE01BE0A0690221FFF777FF2F
:105A2000064614E0A0690421FFF771FF06460EE068
:105A30000BE0A0697021FFF76AFF064607E0606887
:105A40000421FFF764FF064601E0002600BF00E0E6
:105A50000026304670BDB1F5007F3AD00FDC20291A
:105A600028D006DC01291CD004291DD0082940D1EA
:105A70001DE0402921D0B1F5807F3AD126E0B1F573
:105A8000004F31D006DCB1F5806F25D0B1F5006F45
:105A90002FD124E0B1F5803F12D0B1F5003F28D1DD
:105AA00011E0154A826025E00822C26022E010223F
:105AB000C2601FE0082202611CE01022026119E0AE
:105AC0000822426016E01022426013E00422426085
:105AD00010E0042242600DE0042242600AE000224D
