:020000040800F2
:1000000070320020017F0008E1020008E3020008CE
:10001000E7020008EB020008EF0200080000000001
:10002000000000000000000000000000F3020008D3
:10003000F502000800000000F7020008F9020008BD
:100040001B7F00081B7F00081B7F00081B7F000828
:100050001B7F00081B7F00081B7F00081B7F000818
:100060001B7F00081B7F00081B7F00081B7F000808
:100070001B7F00081B7F00081B7F0008A14D0008A4
:100080001B7F00081B7F00081B7F000887440008B7
:100090009D4400081B7F00081B7F00081B7F000891
:1000A0001B7F00081B7F00081B7F00081B7F0008C8
:1000B000F95400081B550008395500081B7F00083B
:1000C0001B7F00081B7F00081B7F00081B7F0008A8
:1000D0001B7F00085B47000847490008354B0008B4
:1000E0001B7F00081B7F00081B7F00081B7F000888
:1000F0001B7F00081B7F00081B7F00081B7F000878
:100100001B7F00081B7F00085B5500081B7F000851
:10011000334D000849500008415600086356000856
:100120001B7F00081B7F00081B7F00081B7F000847
:100130001B7F00081B7F00081B7F0008D7450008B5
:10014000ED4500081B7F00081B7F00081B7F00088F
:100150001B7F00081B7F00081B7F00081F52000840
:100160001B7F00081B7F00081B7F00081B7F000807
:100170001B7F00081B7F00081B7F00081B7F0008F7
:100180001B7F00081B7F000800F002F800F04CF80D
:100190000AA090E8000C82448344AAF10107DA45E2
:1001A00001D100F041F8AFF2090EBAE80F0013F0E8
:1001B000010F18BFFB1A43F001031847D4A6000033
:1001C000F4A600000A4410F8014B14F00F0508BF14
:1001D00010F8015B240908BF10F8014B6D1E05D013
:1001E00010F8013B6D1E01F8013BF9D1641E03D0EC
:1001F000641E01F8015BFBD19142E4D3704700001B
:100200000023002400250026103A28BF78C1FBD81F
:10021000520728BF30C148BF0B6070471FB50AF0B6
:10022000A2F81FBD10B510BD07F057FF1146FFF72C
:10023000F5FF00F009F807F075FF03B4FFF7F2FFD0
:1002400003BC07F03BFF000008B500F05FF99FED2D
:100250001D1AF0EE000AB0EE080A42F2107343F6DF
:1002600098220321184802F096FC2AE017480068FB
:10027000174990FBF1F201FB1200D8B91548C06B89
:1002800000EE900AF8EEE00AB0EE600ADFED120A26
:100290000D4802F089FA002000900B4890ED0B0AFF
:1002A000BDEEC00A10EE100A03B2002211460B4840
:1002B00002F041FD02F0DFF904480068401C0349E8
:1002C0000860D3E700000000680E00200000002056
:1002D00020480100881F00200000C842006800403C
:1002E000704700BFFEE700BFFEE700BFFEE700BFAC
:1002F000FEE7704770477047704700000CB500205C
:10030000019000907648006840F48030744908609D
:1003100000BF7348006800F4003000900198401C52
:100320000190009818B90198B0F5A06FF1D16C4810
:10033000006800F4003010B10120009001E00020BE
:1003400000900098012846D165484030006840F090
:1003500080506349403108606248006840F4404082
:10036000604908605E48083000685D4908310860EF
:100370000846006840F4004008600846006840F401
:10038000A05008605848091F0860081F006840F026
:100390008070091F086000BF5148006800F00070BD
:1003A0000028F9D040F20570504908604C480830E8
:1003B000006820F003004A490831086008460068D8
:1003C00040F00200086000BF45480830006800F0B7
:1003D0000C000828F8D10CBD10B54548006840F461
:1003E0007000434908603E48006840F001003C4905
:1003F000086000203A4908310860394800683D49E2
:100400000840374908603C48091D0860081F00681B
:1004100020F48020091F0860002031490C31086059
:10042000FFF76CFF4FF0006031498039086010BD64
:1004300070B500200022022300240221284D083537
:100440002D6805F00C0020B1042806D0082834D10E
:1004500007E02A4D2A4E356033E02A4D284E35609C
:100460002FE01F4D2D1D2D68C5F380541C4D2D1DF3
:100470002D6805F03F0154B1224DB5FBF1F5184E42
:10048000361D3668C6F3881605FB06F209E01B4DDB
:10049000B5FBF1F5124E361D3668C6F3881605FB1E
:1004A00006F20F4D2D1D2D68C5F301456D1C6B0027
:1004B000B2FBF3F5124E356003E0104D104E35607F
:1004C00000BF00BF064D08352D68C5F303150E4E5D
:1004D000705D0B4D2D68C540094E356070BD000044
:1004E000003802400070004008544007003C0240C1
:1004F00088ED00E0FFFFF6FE103000240024F40039
:100500000400002000127A000800002010B54FF40B
:10051000A06005F0C5F8114804F08AF84FF4E13006
:1005200004F07CF94FF4612004F061FA4FF4E130FB
:1005300004F028FB4FF4E13004F066FC04F0E8FD21
:10054000002303220821104603F02AFF0023032280
:100550000821104603F0BDFF10BD0000A086010079
:1005600010B54FF4B471FE4807F073FD0120FC494B
:10057000087600204876C865FA490870B2EE001A7D
:10058000DFEDF90AB6EE000A0A2378220321F748C4
:1005900002F001FBB2EE041ADFEDF30AB6EE000A38
:1005A0000A2378220321F24802F0F5FA9FEDF11AAE
:1005B000DFEDF00A9FEDF00A0A231E220321EF4827
:1005C00002F0E9FAB1EE001ADFEDED0A9FEDED0A57
:1005D0000A2378220321E54802F0DDFAB1EE001A81
:1005E000DFEDE90A9FEDE90A0A2378220321E048BA
:1005F00002F0D1FA9FEDDF1ADFEDDE0A9FEDDE0A91
:100600000A231E220321DD4802F0C5FAB0EE081AC3
:10061000DFEDDF0AB2EE000A0A234FF4FA5203219B
:10062000DC4802F0B8FAB0EE001ADFEDD90A9FED0F
:10063000DA0A4FF4FA7343F698220321D74802F0FE
:10064000AAFAB1EE041ADFEDD20AB2EE000A0A23CA
:100650004FF4FA520321CF484C3002F09CFAB1EE2D
:10066000001ADFEDCB0A9FEDCE0A4FF4FA7343F682
:1006700098220321C9484C3002F08DFAB1EE001ADD
:10068000DFEDC30AB2EE000A0A234FF4FA52032147
:10069000C048983002F07FFAB2EE001AF6EE000A77
:1006A0009FEDC00A4FF4FA7343F698220321BB482A
:1006B000983002F070FAB1EE001ADFEDBB0AB2EE2C
:1006C000020A0A234FF4FA520321B248E43002F03E
:1006D00062FAB2EE041ADFEDAE0A9FEDB20A4FF4F1
:1006E000FA7343F698220321AC48E43002F053FA3F
:1006F00010BDF0EE400A0020AC49B1F85120B1F82D
:100700005C10491F02EB4100002801DC002004E0DE
:10071000B0F5AF7F01DB4FF4AF70B7EE000AA4492C
:1007200081ED000A00EE100AB8EEC00A704700B56D
:100730002DED0A8B89B0B0EE409A002021E000EB4D
:10074000400101EB00119B4A02EB810191ED000A8F
:1007500000EB400101EB001102EB8101D1ED020A37
:1007600070EE200A944931F9101000EE101AB8EE1C
:10077000C00A20EE800A05A901EB800181ED000A84
:10078000401C0428DBDB002040E000EB400101EBD3
:1007900000118A4A02EB810191ED090A00EB400148
:1007A00001EB001102EB8101D1ED000AF1EE600ACC
:1007B000834901EB800191ED001A00EE810A00EB04
:1007C000400101EB001102EB8101D1ED020A7C49ED
:1007D00001EB800191ED001A00EEC10A00EB40012F
:1007E00001EB001102EB8101D1ED020A00EB4001A7
:1007F00001EB001102EB810191ED061A00EEC10A36
:1008000001A901EB800181ED000A401C0428BCDB3A
:100810009DED050A20EE000ADDED060A9DED061AA3
:1008200000EE810ADDED070A9DED071A00EE810A50
:10083000DDED080A9DED081A00EE810ADFED610A80
:1008400020EE208A9DED050ADDED010A20EE200A4A
:10085000DDED060A9DED021A00EE810ADDED070AC4
:100860009DED031A00EE810ADDED080A9DED041AE4
:1008700000EE810ADFED540A20EE200ADDED050AC4
:100880009DED061A70EE810A9DED071A70EE810A41
:100890009DED081A70EE810A9FED4C1A01EE200AB8
:1008A000DDED050A2E4890ED551A60EE810A9DEDAA
:1008B000061AD0ED561A41EE210A9DED071AD0ED29
:1008C000571A41EE210A9DED081AD0ED581A41EE53
:1008D000210A9FED3F1AF0EE408A41EE208A9DEDFD
:1008E000010A20EE000ADDED020A9DED021A00EE7B
:1008F000810ADDED030A9DED031A00EE810ADDEDAC
:10090000040A9DED041A00EE810ADFED2E0A20EEA6
:10091000200ADDED010A9DED021A70EE810A9DEDBF
:10092000031A70EE810A9DED041A70EE810A9FEDA4
:10093000271A00EE810ADDED010A90ED551A60EEEE
:10094000810A9DED021AD0ED561A41EE210A9DED65
:10095000031AD0ED571A41EE210A9DED041A39E031
:10096000A80100203000002017B75138F0140020F3
:100970003C150020000000009A99193E88150020BF
:1009800017B7D138713D8A3E52491D39295C8F3ED7
:10099000CDCCCC3D6C16002000005243CC1800207A
:1009A0000000344300004843CDCCCC3E70220020F0
:1009B000880000203010002090010020FC19002049
:1009C000FC02002058DF2C3458DFAC346019C0B76B
:1009D00062BEBC37D0ED581A41EE210A1FED041A51
:1009E00001EE200ADFEDFC0A30EE200A70EE499A93
:1009F00028EEA80AF1EE000A68EE200A00EEE90AE5
:100A000010EE101A084609F03DFC41EC1C0B9FED5E
:100A1000F30B53EC102B08F0F5FD41EC1B0BB0EE83
:100A20004B0AF0EE6B0A08F007F9B0EE40AAF0EEC0
:100A300060AA51EC1A0B08F0B3FD00EE100AF1EEBB
:100A4000680A70EE200AB0EE000A28EE001A80EE66
:100A5000810A09B0BDEC0A8B00BD10B52DED0A8BE3
:100A6000B0EE408A0024DF480078032831D118EE28
:100A7000100A09F007FC41EC190B9FEDDB0B53EC5E
:100A8000102B09F007FA02D24FF4E17451E018EE8E
:100A9000100A09F0F7FB41EC1C0B9FEDD50B53EC52
:100AA000102B09F005FB41EC1B0B9FEDD30B53EC16
:100AB000102B08F05BFE41EC1A0B9FEDD10B53ECB1
:100AC000102B09F041F841EC190B08F0A7FF044680
:100AD0002FE018EE100A09F0D5FB41EC190B9FED41
:100AE000C20B53EC102B09F0D5F901D2FA2420E007
:100AF00018EE100A09F0C6FB41EC1C0B9FEDBC0B75
:100B000053EC102B09F0D4FA41EC1B0B9FEDBA0B00
:100B100053EC102B08F02AFE41EC1A0B9FEDBA0B98
:100B200053EC102B09F010F841EC190B08F076FF8C
:100B30000446002C01DC002404E0B4F5FA7F01DB5C
:100B40004FF4FA74B7EE000AB14880ED000A00EEE7
:100B5000104AB8EEC00ABDEC0A8B10BDAD48407813
:100B600018B1AC48407801281FD100209D49087079
:100B7000A8484078012803D108700020A6490880C1
:100B800098480078012805D1A3480088401C00B28D
:100B9000A1490880A048B0F900000A2825DB002000
:100BA000904908709C4908801FE002208D49087018
:100BB00098484078032803D108700020964908809F
:100BC00088480078032805D193480088401C00B26B
:100BD000914908809048B0F900000A2805DB0220FE
:100BE0008049087000208C490880704710B52DEDB1
:100BF000108B8CB0002085E000EB400101EB001170
:100C0000864A02EB810191ED0B0A854901EB8001D7
:100C100081ED000A824901EB800191ED000ADFEDD0
:100C2000810AB4EEE00AF1EE10FA07D89FED7D0AD2
:100C30007B4901EB800181ED000A12E0784901EB6C
:100C4000800191ED000ADFED780AB4EEE00AF1EEE2
:100C500010FA06DB9FED740A714901EB800181ED0A
:100C6000000A6F4901EB800191ED000A00EB4001A1
:100C700001EB0011694A02EB8101D1ED040A20EE7B
:100C8000200A6A49D1ED000A20EE200A684901EBEA
:100C9000800181ED000A624901EB800191ED000ABB
:100CA0006449D1ED000A20EE200A5D4901EB800184
:100CB000D1ED000A20EE200A594901EB8001D1ED67
:100CC000000A5D4991ED001A01EE200A5B49D1ED61
:100CD000000A30EE200A5A4901EB800181ED000A3A
:100CE000534901EB800191ED000A554901EB800168
:100CF000D1ED000A30EE200A524901EB800181ED6E
:100D0000000A401C0428FFF677AF4E4890ED000A19
:100D1000D0ED010A30EE200AD0ED020A30EE200AB2
:100D2000D0ED030A30EE200A474880ED000A90ED2E
:100D3000000AB5EEC00AF1EE10FA04D81FEDF30A6E
:100D400080ED000A0DE0404890ED000ADFED3F0A1B
:100D5000B4EEE00AF1EE10FA03DB9FED3C0A80ED01
:100D6000000A394890ED000ABCEEC00A10EE100AE5
:100D70003749088008460088002802DC00200880E7
:100D800015E03348008800EE100AB8EE400A3148FA
:100D9000D0ED000AB4EEE00AF1EE10FA07DB90EDB8
:100DA000000ABCEEC00A10EE100A294908802A4841
:100DB000008827490988401A28490880224890ED70
:100DC000000A2448D0ED000AB4EEE00AF1EE10FA71
:100DD0007DDD00240FE10000FA7EEA3F0000000004
:100DE0000000F03F70000020000000000080304054
:100DF000000000000000294000000000000010403A
:100E00000000000000207C400000000000406F4017
:100E100084000020A423002072000020CC180020B1
:100E20003006002000401CC600401C46AC000020DC
:100E300040060020B0000020B4000020B8000020D0
:100E400050060020600600209800002000007A4430
:100E5000780000208C000020740000207600002024
:100E6000FC4800EB840090ED000AFB48D0ED000A3E
:100E700020EE200AF948D0ED000A80EE201AF8484A
:100E800000EB840080ED001AF24800EB840090ED46
:100E9000000AF448D0ED000AB4EEE00AF1EE10FAD0
:100EA0007EDDEC4800EB840090ED000AEC4800EB9E
:100EB0008400D0ED000AB4EEE00AF1EE10FA6FDD26
:100EC000E94890ED000A08A800EB840000E096E0F5
:100ED00080ED000A04EB440000EB0410E34901EB51
:100EE0008000D0ED040AE24890ED000AE14890ED60
:100EF000001A01EE200A04A800EB840080ED000A2D
:100F0000D74800EB840090ED000AD648D0ED000AE7
:100F100030EEC00A684600EB840080ED000AD64837
:100F200000EB840090ED000A10EE101A084609F05C
:100F3000A9F941EC190B08A800EB840090ED000A18
:100F4000F0EE000A20EE200A10EE101A084609F012
:100F500099F941EC1B0B04A800EB840090ED000A0A
:100F600020EE000A08A800EB8400D0ED000AB1EEE4
:100F7000001A60EE810A684600EB840090ED001ACA
:100F800000EEC10A10EE101A084609F07BF941EC98
:100F90001F0BB0EE4F0AF0EE6F0A07F04DFE00E0B7
:100FA00021E0B0EE40DAF0EE60DA04A800EB840055
:100FB00090ED000AB1EE400A10EE101A084609F052
:100FC00061F953EC1D2B08F01DFB53EC1B2B08F0B3
:100FD000CDFB53EC192B08F0C9FB08F0E1FAA74947
:100FE00041F8240006E0B7EE000AA44800EB8400B4
:100FF00080ED000A641C042CFFF632AF0BE00020E9
:1010000007E0B7EE000A9D4901EB800181ED000A7F
:10101000401C0428F5DB002025E0984901EB800105
:1010200091ED000AB5EEC00AF1EE10FA07D89FED77
:10103000940A924901EB800181ED000A12E08F4988
:1010400001EB800191ED000AF7EE000AB4EEE00A30
:10105000F1EE10FA06DBB7EE000A884901EB8001D9
:1010600081ED000A401C0428D7DB0CB0BDEC108BCE
:1010700010BD10B52DED028B8248808900EE100A5C
:10108000B8EE400A804880ED000A90ED000ADFEDDE
:101090007F0A80EE201ABCEEC10A10EE100A7949D0
:1010A000C8820846C08A00EE900AF8EE600AB0EEE8
:1010B000600AFFF71EFB684880ED000AFFF796FD07
:1010C000FFF74CFD72480078012803D07048007883
:1010D000032819D16B48C08A00EE900AF8EE600A26
:1010E000B0EE600AFFF7B9FC6A48008800EE900A8B
:1010F000F8EE600A30EE600AB0EE408AFFF717FBA8
:10110000654880ED000A18E05E48C08A00EE900A4B
:10111000F8EE600AB0EE600AFFF7EBFA5D4800886F
:1011200000EE900AF8EE600A30EE600AB0EE408AF7
:10113000FFF7FDFA594880ED000A574890ED000A84
:10114000B5EEC00AF1EE10FA04D89FED4D0A80ED1D
:10115000000A0DE0504890ED000AF7EE000AB4EEE8
:10116000E00AF1EE10FA03DBB7EE000A80ED000AA8
:101170004A4890ED000AB5EEC00AF1EE10FA04D824
:101180009FED3F0A80ED000A0DE0444890ED000A13
:10119000F7EE000AB4EEE00AF1EE10FA03DBB7EE68
:1011A000000A80ED000ABDEC028B10BDDFED3C0AA9
:1011B000B4EEE00AF1EE10FA06DBDFED390A70EE6C
:1011C000600AB0EE600A0AE0B5EEC00AF1EE10FA6D
:1011D00005D2DFED330A70EE200AB0EE600A7047E8
:1011E00010B52DED088BB0EE409AF0EE609AB0EE9F
:1011F000418A9FED2C0B53EC102B51EC190B08F08E
:10120000A3FC41EC1B0B9FED291BB0EE4B0AF0EE4B
:101210006B0A07F02BFCB0EE40AAF0EE60AA51EC8E
:101220001A0B08F0BDF908EE100AB5EEC08AF1EE0F
:1012300010FA05D29FED1A0A38EE000AB0EE408A85
:1012400018EE100A09F01EF841EC100BBDEC088BEB
:1012500010BD0000600600208C00002098000020D7
:1012600070060020B8000020B0000020CC1800203C
:10127000B4000020AC00002030060020A0060020B2
:101280000000000058220020640000200000C84236
:1012900070000020780000208800002084000020DA
:1012A000DB0FC940000000A046DF913F0000006056
:1012B000FB211940FE48807E012803D0FD48807E36
:1012C000022803D10120FA49087612E0F848007E8E
:1012D00007280ED0F648007E08280AD0F448007E81
:1012E000092806D0F248007E0B2802D00320F049DE
:1012F000087670479FEDF00BED4880ED020B9FEDF7
:10130000EE0B80ED000B9FEDEC0B80ED040B7047B6
:1013100010B52DED048BEA49B1F9020008F0ADFBE0
:10132000E34AC2E90201E649B1F9000008F0A5FB71
:10133000DF4A03C2E34890ED130ADFEDE30AB4EE9F
:10134000E00AF1EE10FA08DB90ED130A5FED2C0ACB
:1013500030EE600A80ED140A04E0DA4890ED130ADA
:1013600080ED140AD248807E88B9D14890F8600098
:1013700068B1D448D0ED140AB0EE600A5FED400ABF
:10138000D24801F011FACF4880ED120A04E01FEDB7
:10139000440ACC4880ED120ACC4890ED040AD0ED06
:1013A000030A30EE600A10EE101A084608F06AFFD1
:1013B00041EC190BB0EE490AF0EE690A07F04CFB5C
:1013C000B0EE408AF0EE608A9FEDC10B53EC102B1B
:1013D00051EC180B08F07CFB04D21FED570AB948FA
:1013E00080ED120ABDEC048B10BD10B5B449B1F903
:1013F000020008F042FBAE4AC2E90201B049B1F96D
:10140000000008F03AFBAA4A03C21FED630AAD4888
:1014100080ED120A10BD10B5A949B1F9020008F01B
:101420002CFBA34AC2E90201A549B1F9000008F06A
:1014300024FB9F4A03C29E48407E07280DD0A64841
:10144000007818B90120A449087006E0A248007885
:10145000012802D10020A04908709F48007850B9A7
:101460009E480088404200EE100AB8EEC00A954837
:1014700080ED120A0CE098480078012808D19748BE
:10148000008800EE100AB8EE400A8E4880ED120A7D
:1014900010BD10B52DED048B8949B1F9020008F09B
:1014A000ECFA834AC2E902018549B1F9000008F06B
:1014B000E4FA7F4A03C2834890ED130A5FED880A7D
:1014C000B4EEE00AF1EE10FA08DB90ED130A5FEDDE
:1014D0008C0A30EE600A80ED140A04E0794890ED41
:1014E000130A80ED140A724890F8600088B17048C1
:1014F000807E01280DD17348D0ED140AB0EE600A49
:10150000DFED710A714801F04FF96E4880ED120A63
:1015100004E01FEDA50A6B4880ED120A6B4890EDC0
:10152000040AD0ED030A30EE600A10EE101A0846E5
:1015300008F0A8FE41EC190BB0EE490AF0EE690A7A
:1015400007F08AFAB0EE408AF0EE608A9FED600BF9
:1015500053EC102B51EC180B08F0BAFA04D21FED23
:10156000B80A584880ED120ABDEC048B10BD10B5C6
:101570002DED0E8B534890ED130ADFED590A30EE36
:10158000200A80ED000A90ED130ADFED560A30EED6
:10159000200A80ED010A90ED130ADFED530A30EEC8
:1015A000200A80ED020A90ED130ADFED500A30EEBA
:1015B000200A80ED030A002009E0424901EB800186
:1015C000D1ED000AB0EE600AFFF7F0FD401C0428E0
:1015D000F3DB002403E13B4890ED080ADFED3A0A13
:1015E00030EE200A00EB8400D0ED000A30EE600AF5
:1015F0003448103000EB840080ED000A3148103090
:1016000000EB8400D0ED000AB0EE600AFFF7CEFDDB
:101610002C48103000EB840090ED000A10EE101AF8
:10162000084608F02FFE41EC1E0BB0EE4E0AF0EE1D
:101630006E0A07F0ADF9B0EE40CAF0EE60CA21487C
:1016400090ED120AF0EE000A20EE200AD0ED090A11
:1016500020EE200A10EE101A084608F013FE41ECA6
:101660001D0B53EC1C2B08F06FFA41EC1A0B1548BC
:1016700090ED120A20EE000AD0ED090A90ED091A49
:1016800000EE810A10EE101A084608F0FBFD41EC4E
:101690001B0B53EC1A2B08F00BFD41EC190BB0EEB1
:1016A000490AF0EE690A07F0C7FAB0EE408A1FE077
:1016B000A80100205C2300200000000000000000C2
:1016C0001800002050010020DB0F4940601100206D
:1016D0009A9999999999A93FC2000020C4000020C5
:1016E000E4CB1640D2537B40E0EDAF40DB0F493FE7
:1016F000F0EE608A51EC180B08F090F901B2FE4848
:1017000020F81410283800EB840090ED000A10EE49
:10171000101A084608F0B6FD41EC1E0BB0EE4E0A5A
:10172000F0EE6E0A07F034F9B0EE40CAF0EE60CA8F
:10173000F148383890ED120AF0EE000A20EE200A47
:10174000D0ED090AED4890ED001A60EE810A20EE16
:10175000200A10EE101A084608F094FD41EC1D0B0B
:1017600053EC1C2B08F0F0F941EC1A0BE248383826
:1017700090ED120A20EE000AD0ED090ADF4890ED44
:10178000001A60EE810ADC48383890ED091ADB480F
:10179000D0ED001A21EE211A00EE810A10EE101A87
:1017A000084608F06FFD41EC1B0B53EC1A2B08F0B8
:1017B0007FFC41EC190BB0EE490AF0EE690A07F024
:1017C0003BFAB0EE408AF0EE608A51EC180B08F05C
:1017D00025F901B2C848083020F81410641C042C04
:1017E000FFF6F9AE00246EE1C348283800EB840010
:1017F00090ED000A10EE101A084608F043FD41EC87
:10180000190BB0EE490AF0EE690A07F0B1F9B0EE33
:10181000408AF0EE608A51EC180B07F0C1FEB8491F
:1018200041F82400B448383890ED090A084600EB26
:101830008400D0ED000A20EE200AB24800EB8400BC
:1018400080ED000AAF4800EB8400D0ED000AAA4802
:1018500030F9140000EE100AB8EEC00A80EE801ACB
:10186000A94800EB840080ED001AA74800EB840033
:1018700090ED000AFFEE000AB4EEE00AF1EE10FA75
:1018800007D8BFEE000AA04800EB840080ED000AF4
:1018900012E09D4800EB840090ED000AF7EE000A8C
:1018A000B4EEE00AF1EE10FA06DBB7EE000A964855
:1018B00000EB840080ED000A934800EB840090ED7B
:1018C000000A10EE101A084608F0DCFC41EC190B77
:1018D000B0EE490AF0EE690A06F046FCB0EE408A26
:1018E000F0EE608A51EC180B07F05AFE824910396D
:1018F00041F82400804830F8140010FB00F000EE9E
:10190000100AB8EEC00AA1F12800D0ED120A90ED3D
:10191000121A00EE810A7D4800EB840080ED000A77
:10192000A1F1280090ED090A20EE000A784800EBAA
:10193000840080ED000AA1F1280090ED120AB5EEB6
:10194000C00AF1EE10FA6AD1103000EB840090ED7D
:10195000000AB5EEC00AF1EE10FA27DBA1F118007B
:1019600000EB840090ED000ADFED6A0AB4EEE00AB5
:10197000F1EE10FA1AD8084600EB840090ED000A48
:101980005FEDAF0A30EE200A084600EB840080EDE0
:10199000000A084600EB840090ED000AB1EE400A10
:1019A000084600EB840080ED000A8BE0524828389E
:1019B00000EB840090ED000ADFED570AB4EEE00A78
:1019C000F1EE10FA7EDB4C48283800EB840090EDF5
:1019D000000ADFED520AB4EEE00AF1EE10FA71D817
:1019E0004548103800EB840090ED000A5FEDCA0A0C
:1019F00030EE200A4048103800EB840080ED000AE9
:101A00003D48103800EB840090ED000AB1EE400A2A
:101A10003948103800EB840080ED000A52E0364867
:101A2000383890ED120AB5EEC00AF1EE10FA1CD269
:101A3000283000EB840090ED000A5FEDDD0A30EE07
:101A4000200A2D48103800EB840080ED000A2A4857
:101A5000103800EB840090ED000AB1EE400A2648F1
:101A6000103800EB840080ED000A294800EB840068
:101A700090ED000A254800EB8400D0ED000AB4EE9A
:101A8000E00AF1EE10FA1DDD1B48103800EB84006F
:101A900090ED000A5FEDF40A30EE200A1648103887
:101AA00000EB840080ED000A1348103800EB84003E
:101AB00090ED000AB1EE400A0F48103800EB8400A8
:101AC00080ED000A641C042CFFF68EAEBDEC0E8B7C
:101AD00010BD10B52DED048B1148D0F8CC0100EEEF
:101AE000100AB8EEC00A0F4880ED450A0C48D0F83D
:101AF0007C0100EE100A17E0880100208000002021
:101B000090050020A0050020B0050020E005002081
:101B1000F0050020DB0FC93FE4CB9640DB0FC94046
:101B200010030020A8010020B8EEC00AFE4880ED96
:101B3000460AFE48D0F81C0200EE100AB8EEC00AB1
:101B4000F94880ED470AF948D0F86C0200EE100A17
:101B5000B8EEC00AF44880ED480AF44890ED241B22
:101B6000B0EE410AF0EE610A51EC100B07F018FDDF
:101B7000ED49C1F89400ED4890ED101BB0EE410A1C
:101B8000F0EE610A51EC100B07F00AFD0146E64841
:101B9000C0F89810E54890ED4C1BB0EE410AF0EE0D
:101BA000610A51EC100B07F0FBFC0146DE48C0F85F
:101BB0009C10DE4890ED381BB0EE410AF0EE610A51
:101BC00051EC100B07F0ECFC0146D748C0F8A01010
:101BD000D74890ED090ADFEDD70AB4EEE00AF1EE3E
:101BE00010FA11DC90ED120AF9EE040AB4EEE00AE4
:101BF000F1EE10FA08D390ED120AF1EE040AB4EEF9
:101C0000E00AF1EE10FA7CDDCB4909684FF4B472BA
:101C100001FB02F007F031FF41EC190BC34890EDD6
:101C2000241BB0EE410AF0EE610A53EC102B51EC8C
:101C3000190B08F065F99FEDC10B53EC102B08F060
:101C400029F905D2BC480068401CBB49086022E065
:101C5000B94909684FF4B47201FB02F007F00DFFB7
:101C600041EC190BB14890ED241BB0EE410AF0EEA7
:101C7000610A53EC102B51EC190B08F041F99FED60
:101C8000B10B53EC102B07F023FF04D2AA480068D5
:101C9000401EA9490860AD4909684FF4B47201FBC0
:101CA00002F007F0EAFE41EC190BA04890ED101B82
:101CB000B0EE410AF0EE610A53EC102B51EC190B17
:101CC00008F01EF99FED9D0B53EC102B08F0E2F885
:101CD00005D29E480068401C9C49086024E09B494E
:101CE00009684FF4B47201FB02F007F0C6FE41EC44
:101CF000190B8E4890ED101BB0EE410AF0EE610A10
:101D000000E09FE053EC102B51EC190B08F0F8F8B1
:101D10009FED8C0B53EC102B07F0DAFE04D28B48AE
:101D20000068401E89490860894909684FF4B47207
:101D300001FB02F007F0A1FE41EC190B7B4890ED8E
:101D40004C1BB0EE410AF0EE610A53EC102B51EC43
:101D5000190B08F0D5F89FED790B53EC102B08F018
:101D600099F805D27A480068401C7949086022E059
:101D7000774909684FF4B47201FB02F007F07DFE69
:101D800041EC190B694890ED4C1BB0EE410AF0EEA6
:101D9000610A53EC102B51EC190B08F0B1F89FEDD0
:101DA000690B53EC102B07F093FE04D268480068CF
:101DB000401E67490860674909684FF4B47201FB27
:101DC00002F007F05AFE41EC190B584890ED381B11
:101DD000B0EE410AF0EE610A53EC102B51EC190BF6
:101DE00008F08EF89FED550B53EC102B08F052F8CD
:101DF00005D258480068401C5649086022E0554901
:101E000009684FF4B47201FB02F007F036FE41ECB2
:101E1000190B464890ED4C1BB0EE410AF0EE610AFA
:101E200053EC102B51EC190B08F06AF89FED450BA1
:101E300053EC102B07F04CFE04D246480068401EBD
:101E4000444908603A4890ED090ADFED3A0AB4EED9
:101E5000E00AF1EE10FA53D8374800684FF4B47135
:101E6000484300EE100AB8EEC00A2F4880ED210A60
:101E700036480068484300EE100AB8EEC00A2A4807
:101E800080ED220A32480068484300EE100AB8EE9E
:101E9000C00A254880ED230A2E480068484300EE1A
:101EA000100AB8EEC00A204880ED240A204890EDC0
:101EB000120AB5EEC00AF1EE10FA20D21A4890EDDF
:101EC000210ADFED250A30EE600A80ED210A90ED4F
:101ED000220ADFED210A30EE600A80ED220A90ED41
:101EE000230ADFED1D0A30EE600A80ED230A90ED33
:101EF000240ADFED190A30EE600A80ED240A62E060
:101F00000D4800684FF4B471484300EE100AB8EE73
:101F1000C00A0748D0ED0A0A9FED101A00EE810AA8
:101F2000014880ED210A1BE0A801002010030020D9
:101F30005001002000004842340000200000000052
:101F40000080764000000000000000003800002003
:101F50003C0000204000002000003443E12E654298
:101F6000F8480068484300EE100AB8EEC00AF64888
:101F7000D0ED0B0A1FED071A00EE810AF34880ED41
:101F8000220AF3480068484300EE100AB8EEC00A7F
:101F9000ED48D0ED0C0A1FED0F1A00EE810AEB4858
:101FA00080ED230AEB480068484300EE100AB8EEC3
:101FB000C00AE548D0ED0D0A1FED181A00EE810A9F
:101FC000E24880ED240AE14890ED250AD0ED210A8F
:101FD00030EE600A5FED200AB4EEE00AF1EE10FA8E
:101FE00008DB90ED210ADFEDDC0A30EE200A80EDFF
:101FF000210A15E0D54890ED250AD0ED210A30EEF2
:10200000600ADFEDD60AB4EEE00AF1EE10FA07D866
:1020100090ED210ADFEDD00A30EE600A80ED210A52
:10202000CA4890ED260AD0ED220A30EE600A5FED34
:10203000360AB4EEE00AF1EE10FA08DB90ED220A5F
:10204000DFEDC50A30EE200A80ED220A15E0BF4818
:1020500090ED260AD0ED220A30EE600ADFEDBF0ACD
:10206000B4EEE00AF1EE10FA07D890ED220ADFEDA7
:10207000BA0A30EE600A80ED220AB44890ED270AD1
:10208000D0ED230A30EE600A5FED4D0AB4EEE00AAF
:10209000F1EE10FA08DB90ED230ADFEDAF0A30EE27
:1020A000200A80ED230A15E0A84890ED270AD0ED1C
:1020B000230A30EE600ADFEDA90AB4EEE00AF1EE81
:1020C00010FA07D890ED230ADFEDA30A30EE600A7C
:1020D00080ED230A9D4890ED280AD0ED240A30EEC9
:1020E000600A5FED630AB4EEE00AF1EE10FA08DB75
:1020F00090ED240ADFED980A30EE200A80ED240AE4
:1021000015E0924890ED280AD0ED240A30EE600ADE
:10211000DFED920AB4EEE00AF1EE10FA07D890ED86
:10212000240ADFED8D0A30EE600A80ED240A86482D
:10213000B0F84600404201B28348A0F846100020A3
:102140005FE08249843101EB800191ED000A7F4913
:10215000943101EB8001D1ED000A30EE600ADFED31
:10216000800AB4EEE00AF1EE10FA1ADD7749843104
:1021700001EB800191ED000A5FED890A30EE600A03
:102180007249843101EB800181ED000A6E494031D2
:1021900031F8101049420AB26B49403121F8102041
:1021A0002EE06A49843101EB800191ED000A674914
:1021B000943101EB8001D1ED000A30EE600ADFEDD1
:1021C000690AB4EEE00AF1EE10FA19D25F498431DF
:1021D00001EB800191ED000A5FEDA10A30EE200ACB
:1021E0005A49843101EB800181ED000A56494031A2
:1021F00031F8101049420AB25349403121F81020F9
:10220000401C04289DDB002419E05049843101EB77
:10221000840191ED001AF0EE410A4C49943101EB32
:10222000840191ED001AB0EE410A04EB440101EB88
:1022300004114D4A02EB810000F0B6FA641C042C34
:10224000E3DB4248007E032803D04048007E072895
:102250003BD14648D0F8CC0100EE100AB8EEC00AD7
:102260003A4880ED350A4148D0F87C0100EE100A6A
:10227000B8EEC00A354880ED360A3C48D0F81C025A
:1022800000EE100AB8EEC00A304880ED370A374831
:10229000D0F86C0200EE100AB8EEC00A2B4880EDB0
:1022A000380A00200FE000EB400101EB00112E4A3C
:1022B00002EB810191ED0B0A2449C43101EB80014D
:1022C00081ED000A401C0428EDDB00241EE02849B3
:1022D00091ED001A1D49C43101EB8401D1ED001AC2
:1022E00021EE211AF0EE410A1849D43101EB8401A4
:1022F00091ED001AB0EE410A04EB440101EB041128
:102300001C4A02EB810000F04FFA641C042CDEDB57
:1023100000200DE00C49403131F9101000EE101A88
:10232000B8EEC00A144901EB800181ED000A401C9F
:102330000428EFDBBDEC048B10BD10B52DED048B34
:1023400000244FE03800002050010020A8010020A8
:102350003C000020400000200000B443000034C3D3
:102360000000B4420000B4C26C160020100300202C
:10237000A0060020CC180020EC020020DD48007EE2
:10238000032803D0DB48007E072825D1DA4901EB7A
:10239000840191ED001AF0EE410AD749103101EBAA
:1023A000840191ED001AB0EE410A04EB440101EB07
:1023B0000411D24A02EB810000F0F6F9F7EE000AB0
:1023C00020EE200ABDEEC00A10EE100A01B2C94884
:1023D0003C3020F8141004E00021C6483C3020F8BE
:1023E0001410641C042CC9DBC24890ED510A10EE95
:1023F000101A084607F046FF41EC190BB0EE490AE7
:10240000F0EE690A06F028FBB0EE408AF0EE608A32
:102410009FEDBB0B53EC102B51EC180B07F058FB46
:102420005AD2B44890ED520A10EE101A084607F03E
:1024300029FF41EC190BB0EE490AF0EE690A06F0EB
:102440000BFBB0EE408AF0EE608A9FEDAD0B53ECD3
:10245000102B51EC180B07F03BFB3DD2A54890ED3B
:10246000530A10EE101A084607F00CFF41EC190B46
:10247000B0EE490AF0EE690A06F0EEFAB0EE408AD4
:10248000F0EE608A9FED9E0B53EC102B51EC180B75
:1024900007F01EFB20D2974890ED540A10EE101A58
:1024A000084607F0EFFE41EC190BB0EE490AF0EEDA
:1024B000690A06F0D1FAB0EE408AF0EE608A9FED2C
:1024C000900B53EC102B51EC180B07F001FB03D2CF
:1024D00000208D49086002E001208B49086000203F
:1024E00030E08449097E032903D08249097E072907
:1024F00022D185490968F9B100EB400101EB0011D7
:10250000824A02EB810191ED0B0ABDEEC00A10EE8A
:10251000101A09B200EE101AB8EEC00AF7EE000A5F
:1025200020EE200ABDEEC00A10EE101A0AB2714960
:10253000443121F8102004E000226E49443121F892
:102540001020401C0428CCDBBDEC048B10BD10B562
:102550002DED088B9FED6E0AB0EE408A654890ED38
:10256000021BB0EE410AF0EE610A51EC100B07F0CD
:1025700017F8684908605F4890ED001BB0EE410A0B
:10258000F0EE610A51EC100B07F00AF8624908609E
:10259000604890ED000A20EE000A0846D0ED000ADF
:1025A00090ED001A00EE810A10EE101A084607F0AE
:1025B00069FE41EC1A0BB0EE4A0AF0EE6A0A06F028
:1025C0003BFBB0EE409AF0EE609A51EC190B06F02E
:1025D000E7FF52494862084690ED090ADFED500ACC
:1025E000B4EEE00AF1EE10FA3DDB4A48006807F06D
:1025F00049FE41EC1A0B4848006807F043FE41ECE5
:102600001B0BB0EE4A1AF0EE6A1AB0EE4B0AF0EE6F
:102610006B0A06F0C5F8B0EE409AF0EE609A51EC05
:10262000190B06F0BDFF08EE100A9FED3E0A38EECA
:10263000000A10EE101A084607F024FE41EC1A0BAF
:102640009FED391BB0EE4A0AF0EE6A0A06F00EFA68
:10265000B0EE409AF0EE609A51EC190B06F0A0FF34
:102660002E49086204E09FED2A0A2C4880ED090AF1
:10267000BDEC088B10BD10B52848D0ED131AB0EE94
:10268000611A2B4890ED102BB0EE420AF0EE620A70
:10269000FEF7A6FD27488078164908760846007E92
:1026A000072810D004DC012807D0032814D107E044
:1026B00008280BD00A280FD10BE0FEF71BFE0EE016
:1026C000FEF726FE0BE0FEF7A6FE08E0FEF7E1FEB1
:1026D00005E0FEF78AFE02E0FEF70CFE00BF00BF39
:1026E000FFF735FFFEF743FFFFF7F3F9FFF725FE8E
:1026F00010BD0000A8010020EC020020FC19002001
:10270000000000000000494024000020CC180020F8
:1027100000000000280000202C00002050010020B4
:1027200000004842DB0FC94000000060FB21194057
:10273000881F0020A4230020D0ED000AF4EEC00A78
:10274000F1EE10FA01DD80ED000AD0ED000AB1EEE5
:10275000401AF4EEC10AF1EE10FA03D2F1EE400A8B
:10276000C0ED000A70470364C263816380ED000A14
:10277000C0ED010A80ED021A704780ED000AC0ED3D
:10278000010A80ED021ADFEDFE1AC0ED081ADFED36
:10279000FC1AC0ED091ADFEDFA1AC0ED0A1ADFEDD6
:1027A000F81AC0ED0B1A704710B52DED088B0446D2
:1027B000B0EE408AF0EE608A84ED048AC4ED038AAC
:1027C00038EEC80A84ED070A94ED0C0AB5EEC00A8B
:1027D000F1EE10FA27D094ED0C0A10EE101A08460C
:1027E00007F050FD41EC190B94ED070A10EE101A9A
:1027F000084607F047FD41EC1B0BB0EE4B0AF0EE2C
:102800006B0A06F029F9B0EE40AAF0EE60AA53EC8C
:10281000192B51EC1A0B07F03DFB04D29FEDD80A9F
:10282000BDEC088B10BDA06B03283ED194ED000ACF
:10283000D4ED070A20EE200A84ED080A94ED090A77
:10284000D4ED010A94ED071A00EE810A84ED090A1D
:1028500094ED070AD4ED060A30EE600AD4ED020AC0
:1028600020EE200A84ED0A0AD4ED100AF8EE600A80
:10287000B0EE600A04F12400FFF75EFF94ED080A51
:10288000D4ED090A30EE200AD4ED0A0A30EE200A0F
:1028900084ED0B0AD4ED0F0AF8EE600AB0EE600A80
:1028A00004F12C00FFF748FF42E0A06B04283FD161
:1028B00094ED070AD4ED060A30EE600AD4ED000A62
:1028C00020EE200A84ED080A94ED010AD4ED070AEF
:1028D00020EE200A84ED090A94ED070AD4ED060AD9
:1028E000B0EE001A01EE600AD4ED050A30EE200ABF
:1028F000D4ED020A20EE200A84ED0A0A94ED080ABB
:10290000D4ED090A30EE200AD4ED0A0A30EE200A8E
:10291000D4ED0B0A30EE200A84ED0B0AD4ED0F0A39
:10292000F8EE600AB0EE600A04F12C00FFF704FF35
:1029300094ED060A84ED050A94ED070A84ED060A73
:1029400094ED0D0AB5EEC00AF1EE10FA25D094ED23
:102950000D0A10EE101A084607F094FC41EC190B12
:1029600094ED0B0A10EE101A084607F08BFC41ECB0
:102970001B0BB0EE4B0AF0EE6B0A06F06DF8B0EEF2
:1029800040AAF0EE60AA53EC192B51EC1A0B07F099
:102990009FF802D29FED7A0A42E794ED0B0A3FE7D7
:1029A00010B52DED088B0446B0EE408AF0EE608A3B
:1029B00084ED048AC4ED038A38EEC80A84ED070A60
:1029C00094ED0C0AB5EEC00AF1EE10FA27D094EDA2
:1029D0000C0A10EE101A084607F054FC41EC190BD3
:1029E00094ED070A10EE101A084607F04BFC41EC74
:1029F0001B0BB0EE4B0AF0EE6B0A06F02DF8B0EEB2
:102A000040AAF0EE60AA53EC192B51EC1A0B07F018
:102A100041FA04D29FED5A0ABDEC088B10BDA06BA1
:102A200003283ED194ED000AD4ED070A20EE200AD7
:102A300084ED080A94ED090AD4ED010A94ED071A11
:102A400000EE810A84ED090A94ED070AD4ED060A26
:102A500030EE600AD4ED020A20EE200A84ED0A0A64
:102A6000D4ED100AF8EE600AB0EE600A04F124001A
:102A7000FFF762FE94ED080AD4ED090A30EE200A51
:102A8000D4ED0A0A30EE200A84ED0B0AD4ED0F0AC9
:102A9000F8EE600AB0EE600A04F12C00FFF74CFE7D
:102AA0003EE0A06B04283BD194ED070AD4ED060A62
:102AB00030EE600AD4ED000A20EE200A84ED080A08
:102AC00094ED010AD4ED070A20EE200A84ED090AEC
:102AD00094ED070AD4ED060AB0EE001A01EE600A82
:102AE000D4ED050A30EE200AD4ED020A20EE200AC9
:102AF00084ED0A0A94ED080AD4ED0A0A30EE200AA1
:102B0000D4ED0B0A30EE200A84ED0B0AD4ED0F0A47
:102B1000F8EE600AB0EE600A04F12C00FFF70CFE3C
:102B200094ED060A84ED050A94ED070A84ED060A81
:102B300094ED0D0AB5EEC00AF1EE10FA28D094ED2E
:102B40000D0A10EE101A084607F09CFB41EC190B19
:102B500094ED0B0A10EE101A084607F093FB41ECB7
:102B60001B0BB0EE4B0AF0EE6B0A05F075FFB0EEF2
:102B700040AAF0EE60AA53EC192B51EC1A0B01E0BD
:102B80000000000006F0A4FF02D21FED030A43E795
:102B900094ED0B0A40E72DE9F0412DED048B04463E
:102BA0000D4616461F46B0EE408AF0EE608AB0EE43
:102BB000419A29486064B0EE491AF0EE680AB0EE16
:102BC000480A3B46324629462046D4F844C0E047EE
:102BD000BDEC048BBDE8F0811FED170A80ED080AFB
:102BE0001FED190A80ED090A1FED1B0A80ED0A0A84
:102BF0001FED1D0A80ED0B0A1FED1F0A80ED050A6F
:102C00001FED210A80ED060A1FED230A80ED070A59
:102C1000704770B52DED068B05460C46B0EE408A28
:102C2000F0EE608AB0EE419AF0EE619AF0EE480A5A
:102C3000B0EE680A2846FFF7B7FD30EE290AB0EE7D
:102C400040AAF0EE4A0AB0EE490A2046FFF7ACFD72
:102C5000BDEC068B70BD000067270008F9490968C4
:102C6000491CF84A11600168A1F20721002947D0E8
:102C7000B1F5007F05D0A1F20121D9B1012940D1E0
:102C800035E0C17AF04A1170017B5170417B91703F
:102C9000817B0A06C17B42EA0142017C42EA0121B2
:102CA000427C114300EE101AB8EEC00AE64981EDED
:102CB000010A27E0017BC27A41EA022109B2E24A15
:102CC0001181827B417B42EA012109B2DE4A5181B6
:102CD000027CC17B42EA012109B2DB4A9181827CFC
:102CE000417C42EA012109B2D74AD1810AE0017B45
:102CF000C27A41EA0221D44A1182417B917401E0F7
:102D000000E000BF00BF704710B50446CF48006820
:102D1000401CCE4908602068A0F2072040B941F26B
:102D200096232246CA49C948006800F0F6FC00E034
:102D300000BF00BF10BD2DE9F04186B080460C46B3
:102D400015461E460C9F40F2FF10019000208DF8A2
:102D50000C008DF80D0008208DF80E00200A8DF86B
:102D60000F008DF81040290A8DF811108DF81250BF
:102D7000310A8DF813108DF81460390A8DF815108A
:102D80008DF8167001A9404602F08CFE06B0BDE831
:102D9000F0812DE9F04186B080460C4615461E466E
:102DA0000C9F40F2FF20019000208DF80C008DF860
:102DB0000D0008208DF80E00200A8DF80F008DF808
:102DC0001040290A8DF811108DF81250310A8DF833
:102DD00013108DF81460390A8DF815108DF81670DF
:102DE00001A9404602F05EFE06B0BDE8F0812DE983
:102DF000F04186B080460C4615461E460C9F4FF4A7
:102E00000070019000208DF80C008DF80D00082056
:102E10008DF80E00200A8DF80F008DF81040290A59
:102E20008DF811108DF81250310A8DF813108DF8AD
:102E30001460390A8DF815108DF8167001A94046F6
:102E400002F030FE06B0BDE8F0812DE9F04186B019
:102E500080460C4615461E460C9F40F2FF1001901E
:102E600000208DF80C008DF80D0008208DF80E0064
:102E7000200A8DF80F008DF81040290A8DF81110E6
:102E80008DF81250310A8DF813108DF81460390A3C
:102E90008DF815108DF8167001A9404602F002FE5B
:102EA00006B0BDE8F08170B586B006460C46154602
:102EB000019508208DF80E0000208DF80C008DF88B
:102EC0000D008DF80F4000218DF810108DF81110B5
:102ED0008DF812108DF813108DF814108DF8151050
:102EE0008DF8161001A9304602F0DCFD06B070BD69
:102EF00030B52DED068B85B00546B0EE408AF0EE7C
:102F0000608AB0EE419AF0EE619AB0EE42AAF0EE1D
:102F100062AA0C46009408208DF80A0000208DF863
:102F200008008DF8090032208DF80B0000218DF883
:102F30000C10BCEEC80A10EE100AC1B28DF80D10CC
:102F4000BCEEE80A10EE100AC1B28DF80E10BCEE0D
:102F5000C90A10EE100AC1B28DF80F10BCEEE90AD2
:102F600010EE100AC1B28DF81010BCEECA0A10EEB5
:102F7000100AC1B28DF81110BCEEEA0A10EE100A68
:102F8000C1B28DF812106946284602F08BFD05B0DB
:102F9000BDEC068B30BDF0B585B007460D46144636
:102FA0001E46009608208DF80A0000208DF80800C3
:102FB0008DF80900A4208DF80B0000218DF80C106D
:102FC000E9B28DF80D10290A8DF80E10E1B28DF8D6
:102FD0000F10210A8DF81010210C8DF81110210E00
:102FE0008DF812106946384602F05CFD05B0F0BD60
:102FF00070B586B006460C461546019508208DF83A
:103000000E0000208DF80C008DF80D00A2208DF828
:103010000F0000218DF810108DF811108DF812108E
:103020008DF81340210A8DF81410210C8DF815101D
:10303000210E8DF8161001A9304602F033FD06B0BE
:1030400070BD0000C8000020A4230020CC00002098
:10305000881F002070B586B006460C4615460195BF
:1030600008208DF80E0000208DF80C008DF80D0062
:10307000A1208DF80F0000218DF810108DF811108F
:103080008DF812108DF81340210A8DF814100021CC
:103090008DF815108DF8161001A9304602F002FDCA
:1030A00006B070BD70B586B006460C461546019553
:1030B00000208DF80C008DF80D0008208DF80E0012
:1030C00020128DF80F008DF8104000218DF811109E
:1030D0008DF812108DF813108DF814108DF815104E
:1030E0008DF8161001A9304602F0DCFC06B070BD68
:1030F00030B585B005460C46009400208DF80800D8
:1031000002208DF8090006208DF80A0000208DF8B5
:103110000B0000218DF80C108DF80D108DF80E109D
:103120008DF80F108DF810106946284602F0BAFC91
:1031300005B030BD10B504464FF4C2612046FFF71C
:10314000D7FF40F211612046FFF7D2FF40F2126133
:103150002046FFF7CDFF40F213612046FFF7C8FF7E
:1031600010BD70B505460C464FF4C06202212846DA
:10317000FFF798FF04EBC40000EB04104FF6FF725A
:1031800002EA800140F201622846FFF78BFF40F21D
:10319000026240F6C4112846FFF784FF40F2036242
:1031A0004FF42F712846FFF77DFF70BD30B585B015
:1031B00005460C4644F40070009000208DF808008D
:1031C0008DF809008DF80A006946284602F06AFC6D
:1031D00005B030BD30B585B005460C4644F40470EA
:1031E000009000208DF808008DF809008DF80A0085
:1031F0006946284602F056FC05B030BD30B585B0B2
:1032000005460C4600208DF808008DF809008DF861
:103210000A0044F4806000906946284602F042FCAF
:1032200005B030BD30B585B005460C4644F482602B
:10323000009000208DF808008DF809008DF80A0034
:103240006946284602F02EFC05B030BD30B585B089
:1032500005460C4644F4A060009000208DF808005C
:103260008DF809008DF80A006946284602F01AFC1C
:1032700005B030BD30B585B005460C4644F4A260BB
:10328000009000208DF808008DF809008DF80A00E4
:103290006946284602F006FC05B030BD30B585B061
:1032A00005460C4644F4A460009000208DF8080008
:1032B0008DF809008DF80A006946284602F0F2FBF5
:1032C00005B030BDF0B585B006460D46144645F450
:1032D000A660009000208DF808008DF809000220FB
:1032E0008DF80A00E0B28DF80B00210A8DF80C1061
:1032F0006946304602F0D6FB07463946304602F0B2
:1033000069FC05B0F0BDF0B585B006460D46144623
:1033100045F4A860009000208DF808008DF80900A1
:1033200002208DF80A00E0B28DF80B00210A8DF81A
:103330000C106946304602F0B5FB07463946304668
:1033400002F048FC05B0F0BD2DE9F04186B007461B
:103350000D46164645F4AA60019000208DF80C0039
:103360008DF80D0004208DF80E00B0034FF4B471F9
:10337000B0FBF1F4E0B28DF80F00210A8DF81010C7
:10338000210C8DF81110210E8DF8121001A938466C
:1033900002F088FB80464146384602F01BFC06B02E
:1033A000BDE8F0812DE9F04186B007460D4616468E
:1033B00045F4AC60019000208DF80C008DF80D00F4
:1033C00004208DF80E00B0034FF4B471B0FBF1F49B
:1033D000E0B28DF80F00210A8DF81010210C8DF845
:1033E0001110210E8DF8121001A9384602F05AFB77
:1033F00080464146384602F0EDFB06B0BDE8F0815C
:103400002DE9F04186B007460C4615461E4644F4A9
:10341000AE60019000208DF80C008DF80D000320A7
:103420008DF80E00F0B28DF80F009DF810000580A9
:1034300001A9384602F036FB80464146384602F084
:10344000C9FB06B0BDE8F08170B505460C464C22BC
:10345000A91D384804F086FD364890ED0C0AB1EEFF
:10346000400A84ED000A344890ED000A334880EDAC
:10347000000A304890ED0E0A2F4880ED000A90EDCA
:10348000000A2E48D0ED000A30EE600ADFED2C0A6B
:10349000B4EEE00AF1EE10FA05DB2A480068401E9F
:1034A0002849086013E0244890ED000A2348D0ED35
:1034B000000A30EE600ADFED240AB4EEE00AF1EE15
:1034C00010FA04D81F480068401C1E4908601D48B7
:1034D00000684FF4B471484300EE100AB8EEC00A19
:1034E0001548D0ED000A30EE200AB1EE400A84ED16
:1034F000010A104890ED0D0A84ED020A90ED070ACA
:1035000084ED030A90ED080AB1EE400A84ED040A46
:1035100090ED060A84ED050A90ED030A84ED060A93
:1035200090ED050A84ED070A90ED040A84ED080A7F
:1035300070BD0000B8230020D4000020D00000207F
:103540000000A243D80000200000A2C30A7BCB7A6F
:1035500042EA032282618269826082694260026972
:10356000521C026170472DE9F04104460D460026C9
:10357000002720686060287BE97A40EA012020600B
:1035800020686168401AE060E06810F5805F07DA43
:10359000A06B401CA063E06800F50050E0610DE006
:1035A000E068B0F5805F07DDA06B401EA063E068B7
:1035B000A0F50050E06101E0E068E0612168A06BE7
:1035C00001EB4030A0602068A269801A00EE100A6A
:1035D000F8EEC00AA06B4FF4B472504300EE100A2C
:1035E000B8EEC00A9FED5D1A00EE810A10EE101AC7
:1035F000084606F047FE41EC100B84ED100BE26923
:10360000207D411C217504F1200141F82020207DFE
:10361000062801D100202075002605E004F12000D5
:1036200050F826000744761C062EF7DB062097FB91
:10363000F0F0E063A97B687B41EA002000B2A4F8C7
:103640004C00BDE8F08170B504460D46206860600E
:10365000287BE97A40EA0120206020686168401AEE
:10366000E060E06810F5805F07DAA06B401CA063A3
:10367000E06800F50050E0610DE0E068B0F5805FC3
:1036800007DDA06B401EA063E068A0F50050E0617C
:1036900001E0E068E0612168A06B01EB4030A060D0
:1036A0002068A269801A00EE100AF8EEC00AA06B2A
:1036B0004FF4B472504300EE100AB8EEC00A9FED0A
:1036C000281A00EE810A10EE101A084606F0DAFDFC
:1036D00041EC100B84ED100BA97B687B41EA0020C4
:1036E000E063E06BB0F57A7F04DBE06BA0F57F4030
:1036F000FF38E063687CA06470BD70B506460C4678
:103700001546322E04D829462046FFF71FFF03E056
:1037100029462046FFF727FF70BD2DE9F0410646F8
:103720000C4617461D4639462046FFF78CFF642E8F
:1037300012D8A069A168401A10F57A6F03DA05F56E
:103740000050A06108E0A069A168401AB0F57A6F46
:1037500002DDA5F50050A061BDE8F081FFFF333D1B
:103760000000343DF0B503460C461888002113E0F4
:10377000675C80EA072000250BE0460000F4004C5F
:10378000BCF1000F03D041F2210C86EA0C06304652
:103790006D1C082DF1D3491C9142E9D31880F0BD6E
:1037A0002DE9F84305460F4690464FF000090020EA
:1037B00000900626FE484078002859D0002085F861
:1037C0006300FB484078C0F3800078B1F9A1284637
:1037D00004F0B6FBF84908600846006830B1F448C8
:1037E000007820F00400001DF1490870F04840788E
:1037F00000F0010078B1EFA1284604F0A1FBEE49EA
:1038000008600846006830B1E948007820F00100FF
:10381000401CE7490870E6484078C0F3400078B1A2
:10382000E4A1284604F08CFBE349086008460068E0
:1038300030B1DF48007820F00200801CDC490870BD
:10384000DB484078C0F3C00078B1DCA1284604F022
:1038500077FBD94908600846006830B1D448007841
:1038600020F008000830D2490870002028600AE1E2
:1038700028785A28FBD16878A528F8D1A878E97863
:1038800000EB0120801D4045F1D1B8F1080FEEDBBF
:10389000042229466846FFF765FFA8F10602A91D24
:1038A0006846FFF75FFF2879697900EB01201FFA6E
:1038B00080F9BDF800004845D9D10626E0E0AC19F2
:1038C0002078C02860D008DC90280FD0A02813D022
:1038D000A52829D0B0286FD13EE0D02870D0D128BB
:1038E0006CD0D9286BD0F028F5D1C3E06078B84906
:1038F0000870B01CC6B2C2E06078A17800EB01206D
:1039000000B2B3494880E078217900EB012000B291
:10391000AF4988806079A17900EB012000B2AC4901
:10392000C880F01DC6B2AAE06078A17800EB012043
:1039300000B2A7490881E078217900EB012000B2AC
:10394000A34948816079A17900EB012000B2A04928
:103950008881F01DC6B292E06078A17800EB01206A
:1039600000B29B49C881E078217900EB012000B2C8
:10397000974908826079A17900EB012000B294494F
:103980004882F01DC6B27AE06078A17800EB012091
:1039900000B28F498882E078217900EB012000B2E3
:1039A0008B49C8826079A17900EB012000B2884977
:1039B0000883F01DC6B262E05FE001E04CE03FE04A
:1039C0006078A17800EB012000B281494883E0785B
:1039D000217900EB012000B27D4988836079A179CB
:1039E00000EB012000B27A49C8830846B0F91A00FA
:1039F00000EE100AB8EEC00ADFED760A20EE200ACB
:103A0000084680ED0F0AB0F91C0000EE100AB8EE6F
:103A1000C00ADFED700A20EE200A084680ED100A89
:103A2000B0F91E0000EE100AB8EEC00ADFED6A0A17
:103A300020EE200A084680ED110AF01DC6B21EE0F5
:103A4000634854F8011F016261684162A1688162A4
:103A500006F10D00C6B212E05D4854F8011FC162C4
:103A600061680163A1684163E168816306F1110047
:103A7000C6B204E0701DC6B201E0464600BF00BFFA
:103A80004645FFF61CAF5248B0F91200404200EE26
:103A9000100AB8EEC00ADFED500A20EE200A87EDCA
:103AA000040A4B48B0F91000404200EE100AB8EE8C
:103AB000C00ADFED490A20EE200A87ED030A4448D8
:103AC000B0F90E00404200EE100AB8EEC00ADFED79
:103AD000420A20EE200A87ED050A404890ED000AD0
:103AE0003F4880ED000A3A4890ED110AB1EE400AD5
:103AF0003A4880ED000A90ED000A3948D0ED000AFE
:103B000030EE600ADFED370AB4EEE00AF1EE10FAAB
:103B100005DB35480068401E3349086013E02F4834
:103B200090ED000A2E48D0ED000A30EE600ADFED7D
:103B30002F0AB4EEE00AF1EE10FA04D82A48006821
:103B4000401C294908602A4890ED000A294880ED68
:103B5000000A1F4890ED080A254880ED000A90ED04
:103B6000000A2448D0ED000A30EE600ADFED1D0A9D
:103B7000B4EEE00AF1EE10FA05DB1F480068401EC3
:103B80001D49086013E01A4890ED000A1948D0ED6D
:103B9000000A30EE600ADFED150AB4EEE00AF1EE3D
:103BA00010FA04D814480068401C1349086025E046
:103BB000DC0000204F4B0000E00000206E65772005
:103BC0007061636B6574206974656D73000000003B
:103BD000042400200AD7233CCDCCCC3DE8000020B3
:103BE000E40000200000A543FC0000200000A5C365
:103BF000F0000020EC0000200001002031480068A7
:103C00004FF4B471484300EE100AB8EEC00A2E48D3
:103C1000D0ED000A30EE200A87ED000A2B4890ED27
:103C2000000A2B4880ED000A2A4890ED090A27482F
:103C300080ED000A90ED000A2548D0ED000A30EE34
:103C4000600A5FED180AB4EEE00AF1EE10FA05DB47
:103C500021480068401E2049086013E01B4890ED91
:103C6000000A1B48D0ED000A30EE600A5FED210A21
:103C7000B4EEE00AF1EE10FA04D817480068401CD0
:103C800015490860154800684FF4B471484300EEC8
:103C9000100AB8EEC00A1248D0ED000A30EE200A31
:103CA00087ED010A0B4890ED100ADFED0E0A30EEA9
:103CB000200A87ED020A90ED0F0A87ED000ABDE8A1
:103CC000F883000000010020F0000020F800002030
:103CD000F40000200424002004010020FC00002047
:103CE000E8000020A470954030B5034605E013F8C5
:103CF000010B80EA0204B048025D081EA1F1010137
:103D0000F5D1104630BD70B505460C4600260DB104
:103D1000022C01D8002070BD611EFF222846FFF74B
:103D2000E3FF0646601E285CB04201D10120F2E7A5
:103D30000020F0E770B505460C4600260DB1022CB8
:103D400000D870BD611EFF222846FFF7CDFF064652
:103D5000601E2E5400BFF4E730B5034613B94FF68A
:103D6000FF7030BD09E013F8014B82EA0400C0B2D5
:103D7000924D35F8100080EA2222081EA1F10101BF
:103D8000F1D11046EDE770B505460C4600260DB1A1
:103D9000022C01D8002070BDA11E89480288284647
:103DA000FFF7DAFF0646F1B2A01E285C814206D179
:103DB000601E285CB0EB162F01D10120EBE700203C
:103DC000E9E770B505460C4600260DB1022C00D877
:103DD00070BDA11E7A4802882846FFF7BDFF06463F
:103DE000A01E2E54310A601E295400BFF0E770B5A2
:103DF00004460D4600260CB1022D01D8FF2070BDEF
:103E0000FF2229462046FFF76FFFF8E72DE9FC5F08
:103E1000054688460024A346C8E015F80490601CB7
:103E2000295CA01C285C41EA0026601D295CA01DBD
:103E3000285C41EA002A2819C71D28190168009149
:103E400000798DF8040006F109001FFA80FBB9F132
:103E5000A50F6ED105216846FFF755FF002868D0F1
:103E600028195946FFF78FFF0028F8D0BAF5017FCF
:103E700069D012DC40F20311AAEB01008A452BD075
:103E800006DCBAF1010F1AD0BAF1030F72D11CE0AF
:103E9000FE2828D0FF28F9D14CE0BAF5027F6BD07C
:103EA00006DCAAF20620002854D0012879D158E077
:103EB000AAF20130002866D0022872D16AE03246A8
:103EC0003946404804F04EF86CE0324639463D48E9
:103ED0000C3004F047F865E0324639463948363050
:103EE00004F040F85EE01B2E22D1324639463548B8
:103EF000393004F037F8334890F83900012809DBED
:103F0000304890F83900072804DC02202D4981F858
:103F1000C5000DE02B4890F839000B2808DB294834
:103F200090F83900112803DC0120264981F8C500EA
:103F300038E038E0102E05D1324639462148543059
:103F400004F010F82EE0012E03D138781D4981F8D5
:103F5000740027E0324639461A48763004F002F8F9
:103F600020E0072E05D1324639461648773003F057
:103F7000F9FF17E015E0FFE73246394611487E3079
:103F800003F0F0FF0EE0324639460E48843003F06D
:103F9000E9FF07E0324639460A48AC3003F0E2FF59
:103FA00000E000BF00BF04EB0B0084B2A0453FF768
:103FB00034AFBDE8FC9F00007BA300087CA4000890
:103FC000080100207022002010B503462BB10878AC
:103FD00028B901200870521C01E0002008701078F8
:103FE00000EBD0746410A0EB44040CB9002010BDA9
:103FF0000120FCE7CB8A03400BB1012300E0002342
:104000001370704710B5044604F1280221460120C0
:10401000FFF7F0FF04F1290221460420FFF7EAFF31
:1040200004F12A0221460220FFF7E4FF04F12B02EB
:1040300021460820FFF7DEFF04F12C022146102064
:10404000FFF7D8FF04F12E0221462020FFF7D2FF10
:1040500004F12F0221464020FFF7CCFF04F130028B
:1040600021468020FFF7C6FF04F1310221464FF4BC
:104070008070FFF7BFFF04F1320221464FF4007059
:10408000FFF7B8FF04F1330221464FF48060FFF7D9
:10409000B1FF04F1340221464FF40060FFF7AAFF9C
:1040A00004F12D0221464FF48050FFF7A3FF04F1E5
:1040B000350221464FF40050FFF79CFF04F1360211
:1040C00021464FF48040FFF795FF04F13702214667
:1040D0004FF40040FFF78EFF94F828008F4A904974
:1040E000FFF772FF382108552921085D8D4A8E4956
:1040F000FFF76AFF392108552A21085D8B4A8C4950
:10410000FFF762FF3A2108552B21085D894A8A4949
:10411000FFF75AFF3B2108552C21085D874A884943
:10412000FFF752FF3C2108552E21085D854A86493C
:10413000FFF74AFF3E2108552F21085D834A844935
:10414000FFF742FF3F2108553021085D814A82492F
:10415000FFF73AFF402108553121085D7F4A804929
:10416000FFF732FF412108553221085D7D4A7E4923
:10417000FFF72AFF422108553321085D7B4A7C491D
:10418000FFF722FF432108553421085D794A7A4917
:10419000FFF71AFF442108552D21085D774A784919
:1041A000FFF712FF3D2108553521085D754A764914
:1041B000FFF70AFF452108553621085D734A744907
:1041C000FFF702FF462108553721085D714A724901
:1041D000FFF7FAFE4721085510BD817AC176017FAD
:1041E000C27E891A4177C27E0277417F01290ED1B2
:1041F000016A491C0162016A01EBD1725210A1EB04
:10420000420212B90022827701E001228277417FC7
:1042100002290ED1416A491C4162416A01EBD17207
:104220005210A1EB420212B90022C27701E0012232
:10423000C2777047C17A012901D1817608E0C17A3D
:10424000032901D1817603E0C17A022900D1817668
:10425000704710B5044604B910BD2078617840EA73
:104260000120C0F30A004D4908806078C010A17891
:1042700040EA4110C0F30A0048494880A078801104
:10428000E17840EA8100217940EA8120C0F30A0008
:104290004249888020794010617940EAC110C0F31A
:1042A0000A003E49C880207C617C40EA0120C0F3BE
:1042B0000A003A49088160790011800888726079A3
:1042C000C0F30110C872A079E17940EA012000B280
:1042D00032498881207A617A40EA012001B22F4870
:1042E000C181A07AE17A40EA012001B22B48018223
:1042F000217B0175617B4175A07BE17B40EA012058
:104300002649C8820846FFF795FF2448FFF765FF56
:104310002248FFF777FE00BF9EE700000B01002058
:104320000A0100200D0100200C0100200F010020D7
:104330000E010020110100201001002013010020B7
:104340001201002015010020140100201701002097
:104350001601002019010020180100201B01002077
:104360001A0100201D0100201C0100201F01002057
:104370001E01002021010020200100202301002037
:104380002201002025010020240100202701002017
:104390002601002029010020280100205C230020A4
:1043A000F0B58BB004460D4616461F46012108465F
:1043B00002F0D6FB0121480602F01BFC09220B216A
:1043C000964802F0BAF909220C21944802F0B5F996
:1043D0004FF4C050099002208DF8280009A98F4899
:1043E00002F020F914208DF8040003208DF8050058
:1043F00001208DF806008DF8070001A801F055F99D
:10440000874801F0BDF906A801F0DEFA00208DF81A
:104410001E0001208DF81F0000208DF820008DF86F
:1044200021008DF822008DF823008DF81A708DF888
:104430001B008DF81C508DF81D40ADF8186006A9C2
:10444000774801F0B6F900208DF812008DF81300BE
:1044500001208DF814000020ADF80800ADF80A0026
:10446000ADF80C00ADF80E00ADF8100001208DF88D
:10447000150002A801F027FA01220221684801F084
:1044800021FD0BB0F0BD10B50121654801F082FDA2
:1044900018B10121624801F018FE10BD00B585B0C9
:1044A00002215F4801F076FD88B104215C4801F0EB
:1044B0000CFE5C495A4801F04AFD6A460021584802
:1044C00001F0E5FB00BF6846FEF7C8FB00BF05B082
:1044D00000BDF0B58BB004460D4616461F460121BF
:1044E000022002F03DFB0121880602F082FB092236
:1044F0000C214D4802F021F909220D214A4802F011
:104500001CF94FF44050029002208DF80C0002A9D3
:10451000454802F087F840208DF8040003208DF80C
:1045200005008DF8060001208DF8070001A801F0B4
:10453000BCF83F208DF8040003208DF805008DF8AD
:10454000060001208DF8070001A801F0AEF83748F9
:1045500001F016F908A801F037FA00208DF82600BE
:1045600001208DF8270000208DF828008DF8290003
:104570008DF82A008DF82B008DF822008DF823008D
:104580008DF824508DF82540ADF8206008A9274803
:1045900001F00FF90E208DF81A0000208DF81B0095
:1045A00001208DF81C000020ADF81000ADF81200BD
:1045B000ADF81400ADF81600ADF8180001208DF824
:1045C0001D0004A801F07FF901220221174801F023
:1045D00079FC0BB0F0BD10B50121144801F0DAFCF4
:1045E00018B10121114801F070FD10BD00B585B072
:1045F00002210E4801F0CEFC68B102210B4801F007
:1046000064FD6A460021094801F041FB00BF68468D
:10461000FEF77AFB00BF05B000BD000000000240BD
:1046200000640040080000320004024000680040BE
:1046300010B596B004460121022002F091FA012142
:10464000880502F08DFA0121102002F0E3FA07221A
:104650001146FE4802F071F814A802F02BF88020F1
:10466000149002208DF8540000208DF85500012090
:104670008DF8570014A9F54801F0D4FFF44803F071
:1046800015FA10A803F0DFFA10940020ADF84400EA
:10469000ADF846004FF48060ADF848000420ADF856
:1046A0004A000020ADF84C0010A9E94803F065FA73
:1046B00001224021E64803F095FBE64801F058FD51
:1046C000684601F020FE4FF000600090E048001DB9
:1046D0000190E148029000200390402004900020C7
:1046E00005904FF4806006900020079008904FF4EA
:1046F0008070099000020A9000200B900C900D90A1
:104700000E906946D34801F0D5FD0022D2494031D0
:10471000D04801F030FE0121CE4801F038FE0121E1
:10472000CC4801F001FE25208DF83C0000208DF8DA
:104730003D008DF83E0001208DF83F000FA800F0ED
:10474000B4FF012240F22441C14803F054FB01218F
:10475000BF4803F09AFA16B010BD10B540F22441DC
:10476000BB4803F083FB002857D0B9480088B848FD
:104770008088B84801F01BFE40BB0021B54801F01D
:10478000D3FDB649B34801F048FEB24801F0EFFD51
:10479000C0F14000B24908604020AE49091D0860E0
:1047A000081F006840F40020091F08600121A94883
:1047B00001F0BAFDAA48006812282ED1A648FFF7DA
:1047C00048FD00BFA448FFF744FD26E00021A148B2
:1047D00001F0AAFDA1499F4801F01FFE9D4801F08C
:1047E000C6FDC0F140009E49086040209949091D5E
:1047F0000860081F006820F40020091F08600121DC
:10480000944801F091FD96480068122805D100BF38
:1048100091484030FFF71DFD00BF10BD10B596B0A8
:1048200004460121084602F09BF90121480502F0E7
:1048300097F90121480402F0DCF907220221894896
:1048400001F07BFF14A801F035FF04201490022032
:104850008DF8540000208DF8550001208DF8570088
:1048600014A9804801F0DEFE7F4803F01FF910A86C
:1048700003F0E9F910940020ADF84400ADF84600CB
:104880004FF48060ADF848000420ADF84A000020E5
:10489000ADF84C0010A9744803F06FF901224021D3
:1048A0006B4803F09FFA714801F062FC684601F022
:1048B0002AFD4FF0006000906B48001D01906C488D
:1048C00002900020039064200490002005904FF493
:1048D000806006900020079008904FF48070099047
:1048E00000020A9000200B900C900D900E906946EB
:1048F0005E4801F0DFFC00225D4964315B4801F055
:104900003AFD0121594801F042FD0121574801F0CB
:104910000BFD26208DF83C0000208DF83D008DF821
:104920003E0001208DF83F000FA800F0BEFE0122DE
:1049300040F224414C4803F05EFA01214A4803F05A
:10494000A4F916B010BD10B540F22441464803F05A
:104950008DFA00284AD0444800884348001D00884A
:104960003C4801F024FD00BB0021404801F0DCFC84
:1049700040493E4801F051FD3C4801F0F8FCC0F1CF
:1049800064003D49086064203849091D08603748C3
:104990008838D0F8880040F40020091F0860012101
:1049A000324801F0C1FC00BF20E000212F4801F097
:1049B000BBFC30492D4801F030FD2C4801F0D7FCFC
:1049C000C0F164002C49086064202849091D086072
:1049D00026488838D0F8880020F40020091F086095
:1049E0000121224801F0A0FC00BF00BF10BD10B59E
:1049F00096B004460121022002F0B2F80121880499
:104A000002F0F7F80121480502F0AAF807220A216E
:104A10000E4801F092FE07220B210C4801F08DFE9A
:104A200002208DF8440003208DF8450000208DF809
:104A3000460001208DF847008002109010A903481D
:104A400001F0F0FD4FF40060109017E00004024008
:104A500000100140406402404C240020000030104F
:104A60002C01002000000240004400408860024009
:104A70000C250020000C00203001002010A9FE4869
:104A800001F0D0FD27208DF8000002208DF80100F4
:104A900001208DF802008DF80300684600F005FE45
:104AA00012940020ADF84C00ADF84E00ADF8500067
:104AB000ADF854000C20ADF8520012A9EF4803F0F5
:104AC0005CF8012240F22441EC4803F094F95021B3
:104AD000EA4803F0C2F96420059000200C900D9084
:104AE0000E9009904FF48060079080100A90E34880
:104AF000001D029000200F90089006904FF40030A7
:104B00000B908002019000200490DD48039001A9E1
:104B1000DC4801F0CFFB0121DA4801F005FC01225D
:104B20004021D64803F05EF90121D44803F0ADF8E6
:104B300016B010BD10B540F22441D04803F096F9EC
:104B4000F8B1CE4803F0D0F840F22441CB4803F04E
:104B5000C8F90021CB4801F0E7FB00224021C748FB
:104B600003F040F900BFC849C548FEF76DFC00BF1F
:104B700001224021C14803F035F90121C14801F06B
:104B8000D3FB10BD10B596B004460121042001F0FE
:104B9000E7FF0121C80402F02CF808220A21BB48D3
:104BA00001F0CBFD08220B21B84801F0C6FD012120
:104BB000480501F0D5FF4FF44060109002208DF8B9
:104BC000440000208DF8460003208DF845000120A8
:104BD0008DF8470010A9AD4801F024FD1294002083
:104BE000ADF84C00ADF84E00ADF850000C20ADF81B
:104BF00052000020ADF8540012A9A54802F0BDFFF4
:104C000001224021A24803F0EDF89E48183001F03F
:104C1000AFFA684601F077FB4FF0006000909C48C7
:104C2000001D01909B480290002003906420049096
:104C3000002005904FF480600690002007900890B7
:104C400009904FF480300A9000200B900C900D904A
:104C50000E9069468B48183001F02CFB01218948E1
:104C6000183001F061FB34208DF83C0003208DF8F2
:104C70003D008DF83E0001208DF83F000FA800F0A8
:104C800014FD01228021824803F0ACF800217D4808
:104C9000483001F049FB7B48483001F069FA00BF19
:104CA0007848483001F08DFB0028F9D14FF00060C2
:104CB00000907748001D01907748029040200390B3
:104CC0000020049005904FF480600690002007902B
:104CD000089009904FF480300A9000200B90032038
:104CE0000C9000200D900E9069466648483001F007
:104CF000E1FA0F208DF83C0003208DF83D008DF87F
:104D00003E0001208DF83F000FA800F0CEFC0122EC
:104D100010215C48483001F094FB012240F224410C
:104D20005B4803F068F80121594802F0AEFF16B065
:104D300010BD10B5002440F22441554803F096F808
:104D400008B3534800885248001D008800214D4890
:104D5000183001F0E9FA51494A48183001F05DFB7A
:104D60004848183001F003FBC0F16400C4B200BF32
:104D700000BF64214348183001F0F7FA012141488F
:104D8000183001F0D1FA10BD70B504460D46294621
:104D9000204601F0EAFA0121204601F0C5FA70BD73
:104DA00010B53F493748483001F01BFB48B100219E
:104DB0003448483001F0B8FA39493248483001F0F7
:104DC0002CFB10BD70B504460025334D05F8014B92
:104DD00001212C484830FFF7D7FF70BD2DE9F04185
:104DE00005460E46002400272B4F00BF03E0285D38
:104DF0003855601C84B2B442F9DB31462148483052
:104E0000FFF7C2FFBDE8F08110B596B0044601215E
:104E1000042001F0A5FE0121082001F0A1FE0121DE
:104E2000080501F0E6FE0121480501F099FE022087
:104E30008DF8540000208DF856004FF480501490E7
:104E400001208DF8570003208DF8550014A90F4854
:104E500001F0E8FB02208DF8540000208DF8560088
:104E60000420149001208DF8570003208DF8550080
:104E700014A90C4818E0000000040240004800405B
:104E80003826002028600240301B00200008024025
:104E9000004C00409C26002000270020000030101D
:104EA00020000020000C024001F0BCFB08220C2175
:104EB000F14801F042FC08220221F04801F03DFCDB
:104EC00010940020ADF84C000C20ADF84A000020F2
:104ED000ADF84800ADF84600ADF8440010A9E84828
:104EE00002F04BFE0121E64802F0CFFE01224021F4
:104EF000E34802F077FF684601F005FAE1480290C6
:104F00004FF40070049080040090DD48001D019073
:104F10000020039005904FF48060069000200890D8
:104F2000079009904FF480300A9000200B900C906D
:104F30000D900E906946D44801F0BCF90121D24889
:104F400001F0F2F90022D149CF4801F014FA012111
:104F5000CD4801F01CFA35208DF83C0001208DF879
:104F60003F008DF83D0002208DF83E000FA800F0B4
:104F70009CFB012240F22441C14802F03CFF012188
:104F8000BF4802F082FE01228021BD4802F02AFFC4
:104F90000021BD48A83001F0C7F9BB48A83001F096
:104FA000E7F800BFB848A83001F00BFA0028F9D1A3
:104FB0004FF000600090B248001D0190B44802908C
:104FC0004020039042200490002005904FF4806020
:104FD000069000200790089009900A900B900320FB
:104FE0000C9000200D900E906946A748A83001F063
:104FF00061F90121A448A83001F096F92F208DF81D
:105000003C0002208DF83D0001208DF83E008DF817
:105010003F000FA800F049FB16B010BD70B5044664
:105020000D460021204601F07FF900BF204601F027
:10503000C8F90028FAD12946204601F096F9012145
:10504000204601F071F970BD10B540F224418C4842
:1050500002F00CFF00285AD08948008888488088D0
:10506000894801F0A4F948BB0021874801F05CF9A8
:105070008849854801F0D1F9834801F078F9C0F5F5
:105080000070854908604FF400717F4801F06DF9A8
:105090004FF400227D497C4801F084F901217A48CF
:1050A00001F042F97C480068092830D900BF7A48ED
:1050B000008881B27348FEF7A9FE28E000217248FB
:1050C00001F032F97349704801F0A7F96E4801F018
:1050D0004EF9C0F50070704908604FF400716A48DD
:1050E00001F043F900226749674801F05BF90121AB
:1050F000654801F019F968480068092807D900BF18
:105100006548008881B26148FEF780FE00BF10BD8F
:1051100000B597B00121042001F022FD012188058E
:1051200001F01EFD0121202001F074FD082206215E
:10513000514801F002FB082207214F4801F0FDFA17
:10514000C020119002208DF8480000208DF84A0000
:1051500002208DF8490000208DF84B0011A9464827
:1051600001F060FA4D4802F0A1FC4D481390002078
:10517000ADF85000ADF85200ADF854000C20ADF879
:1051800056000020ADF8580013A9444802F0F5FC81
:1051900001224021414802F025FE424800F0E8FF8C
:1051A0004FF0206001903D48001D02903E48039062
:1051B0000020049064200590002006904FF4806049
:1051C00007900020089009900A904FF480300B90CF
:1051D00000200C900D900E900F9001A9314801F025
:1051E00069F801212F4801F09FF847208DF8400011
:1051F00003208DF841008DF8420001208DF8430016
:1052000010A800F052FA012240F22441234802F093
:10521000F2FD0121214802F038FD17B000BD10B5A4
:1052200040F224411D4802F021FE18B31B480088BB
:105230001A48001D008800211A4801F075F81B4922
:10524000184801F0EAF8174801F091F8C0F164003D
:105250001749086000BF0846027816491248FEF751
:105260009FFA00BF64210F4801F07FF801210D482B
:1052700001F05AF810BD000000080240000C024086
:1052800000500040A627002010600240A629002000
:105290006427002030000010340100200014014079
:1052A000B0AA0E0028640240A62B0020000C0010BB
:1052B00038010020301B00200EB50121022001F032
:1052C000A9FC4FF0FF300190A720ADF800000020AE
:1052D000ADF80800ADF802000121EA4801F0ACFE8B
:1052E0006946E84801F03DFE0121E64801F0A4FED0
:1052F00000221146E34801F071FE0121E14801F06E
:1053000083FE0121DF4801F0B5FE0EBD0EB501217F
:10531000084601F07FFC4FF0FF300190A720ADF868
:1053200000000020ADF80800ADF802000121D548CA
:1053300001F082FE6946D34801F013FE0121D248F4
:1053400001F07AFE00221146CF4801F047FE01210C
:10535000CD4801F059FE0121CB4801F08BFE0EBD76
:105360001FB50121042001F044FC1C208DF8000031
:1053700000208DF8010002208DF8020001208DF838
:105380000300684600F091F94FF0FF30029053207F
:10539000ADF804000020ADF80C00ADF806000121C6
:1053A000880701F049FE01A94FF0804001F0D9FDC6
:1053B0000121880701F05EFE1FBD1FB501210220FB
:1053C00001F017FC1D208DF8000000208DF8010071
:1053D00002208DF8020001208DF80300684600F0DD
:1053E00064F94FF0FF300290A720ADF804000020D0
:1053F000ADF80C00ADF806000121A44801F01CFE38
:1054000001A9A34801F0ADFD0121A04801F032FE41
:10541000012211469D4802F045FA01219B4802F005
:1054200055FA1FBD1FB50121042001F0E2FB1E202B
:105430008DF8000000208DF8010002208DF8020098
:1054400001208DF80300684600F02FF94FF0FF307F
:105450000290A720ADF804000020ADF80C00ADF8D4
:10546000060001218A4801F0E7FD01A9884801F002
:1054700078FD0121864801F0FDFD01221146844896
:1054800002F010FA0121824802F020FA1FBD1FB578
:105490000121082001F0ADFB32208DF80000002032
:1054A0008DF8010002208DF8020001208DF8030024
:1054B000684600F0FAF84FF0FF300290A720ADF8F0
:1054C00004000020ADF80C00ADF806000121714881
:1054D00001F0B2FD01A96F4801F043FD01216D48C3
:1054E00001F0C8FD012211466A4802F0DBF90121F2
:1054F000684802F0EBF91FBD10B50121880702F0E2
:10550000E8F948B10121880702F0F4F90121880780
:1055100002F0DCF900BF00BF10BD10B501215B48EF
:1055200002F0D7F938B10121584802F0E3F901211E
:10553000564802F0CBF910BD10B50121544802F0D5
:10554000C8F948B10121524802F0D4F9012150486C
:1055500002F0BCF900BF00BF10BD10B501214D48DD
:1055600002F0B7F948B101214A4802F0C3F901211C
:10557000484802F0ABF900BF00BF10BD1FB50121C4
:10558000102001F036FB36208DF8000003208DF846
:10559000010002208DF8020001208DF8030068460A
:1055A00000F083F85320ADF804000020ADF80600A9
:1055B000ADF80C0040F2E730029001A9364801F046
:1055C000D0FC0121344801F055FD0122114632483A
:1055D00002F068F90121304802F078F91FBD1FB5CB
:1055E0000121102001F005FB37208DF80000032079
:1055F0008DF8010002208DF8020001208DF80300D3
:10560000684600F052F85320ADF804000020ADF8D1
:105610000600ADF80C0040F2E730029001A91F48E7
:1056200001F09FFC01211D4801F024FD01221146DB
:105630001A4802F037F90121184802F047F91FBD56
:1056400010B50121144802F044F948B10121124873
:1056500002F050F90121104802F038F900BF00BFF4
:1056600010BD10B501210D4802F033F948B10121F8
:105670000A4802F03FF90121084802F027F900BF6B
:1056800000BF10BD000401400000014000040040C4
:1056900000080040000C00400010004000140040D2
:1056A00032490143324A1160704770B5002100232E
:1056B0000F22C4781CB32E4C246804F4E064C4F5B3
:1056C000E064C4F30721C1F10404E3B20A41447861
:1056D0009C40E1B28478144021430C07210E254CF4
:1056E00005786155047804F01F050124AC40057865
:1056F0006D11AD0005F1E025C5F8004109E0047821
:1057000004F01F050124AC401B4D0678761145F8C6
:10571000264070BD194A0A400243154B1B1F1A60F0
:10572000704739B1124A121D12680243104B1B1DFB
:105730001A6006E00E4A121D126882430C4B1B1DB4
:105740001A607047042808D14FF0E021096941F040
:1057500004014FF0E022116107E04FF0E0210969F8
:1057600021F004014FF0E022116170470000FA05BA
:105770000CED00E000E400E080E100E080FFFF1FAE
:1057800010B50446FE48844209D10121480601F0C3
:1057900085FA00214FF0007001F080FA08E0012145
:1057A000880601F07BFA00214FF0806001F076FA64
:1057B00010BD30B5024600200023146824F0020416
:1057C0001460146844F00104146000E05B1C546829
:1057D00004F001041CB94FF6FF74A342F6D15468DB
:1057E00004F001040CB900206CE08C79012C04D188
:1057F000146844F08004146003E0146824F080040A
:105800001460CC79012C04D1146844F04004146075
:1058100003E0146824F0400414600C7A012C04D1D5
:10582000146844F02004146003E0146824F0200499
:1058300014604C7A012C04D1146844F010041460F4
:1058400003E0146824F0100414608C7A012C04D155
:10585000146844F00804146003E0146824F0080499
:105860001460CC7A012C04D1146844F00404146050
:1058700003E0146824F0040414608C78A407CD7845
:1058800044EA05640D7944EA05444D7944EA055437
:105890000D886D1E2C43D461146824F0010414603B
:1058A000002300E05B1C546804F001041CB14FF6B7
:1058B000FF74A342F6D1546804F001040CB1002037
:1058C00000E0012030BD10B50021837A012202FAE8
:1058D00003F1AC4A126842F00102AA4B1A60A94ACD
:1058E0001C3212688A43A74B1C331A60027BCAB968
:1058F000A44A0C3212688A43A24B0C331A604288C5
:10590000C38842EA03439F4A4032847A42F83430E3
:105910000288838842EA03439A4A4032847A02EB3F
:10592000C4025360027B012A19D1964A0C321268D4
:105930000A43944B0C331A604288038842EA0343BB
:10594000904A4032847A42F83430C288838842EAEE
:1059500003438C4A4032847A02EBC4025360C27A19
:105960003AB9884A121D12688A43864B1B1D1A6079
:1059700006E0844A121D12680A43824B1B1D1A60FE
:10598000028932B97F4A143212688A437D4B14333C
:105990001A600289012A06D17A4A143212680A432F
:1059A000784B14331A60427B012A06D1754A1C32A7
:1059B00012680A43734B1C331A60724A126822F051
:1059C0000102704B1A6010BD00218171C17101721A
:1059D00041728172C1728170C17003210171022113
:1059E00041710121018070476649096841F0010158
:1059F000644A11601146096843F60E729143614A88
:105A000011601146096841EA0021116011460968D8
:105A100021F001011160704721B1026842F4803227
:105A2000026003E0026822F4803202607047E1B154
:105A3000026842F0800202604FF4C272125842F4CF
:105A400080734FF4C27213504FF4CA72125842F46A
:105A500080734FF4CA7213504FF4D272125842F44A
:105A600080734FF4D27213501BE0026822F0800260
:105A700002604FF4C272125822F480734FF4C27263
:105A800013504FF4CA72125822F480734FF4CA7242
:105A900013504FF4D272125822F480734FF4D27222
:105AA0001350704710B502460020936803F08063DE
:105AB000B3F1806F00D110E0936803F00063B3F19D
:105AC000006F01D1012008E0936803F08053B3F127
:105AD000805F01D1022000E00420042879D002F583
