:020000040800F2
:10000000B82B002025400008990200089B02000838
:100010009F020008A3020008A702000800000000D9
:10002000000000000000000000000000AB0200081B
:10003000AD02000800000000AF020008B102000895
:100040003F4000083F4000083F4000083F40000894
:100050003F4000083F4000083F4000083F40000884
:100060003F4000083F4000083F4000083F40000874
:100070003F4000083F4000083F400008991F00082B
:100080003F4000083F4000083F4000086B16000852
:10009000811600083F4000083F4000083F4000082C
:1000A0003F4000083F4000083F4000083F40000834
:1000B0003F4000083F4000083F4000083F40000824
:1000C0003F4000083F4000083F4000083F40000814
:1000D0003F4000083F1900082B1B0008291D00089D
:1000E0003F4000083F4000083F4000083F400008F4
:1000F0003F4000083F4000083F4000083F400008E4
:100100003F4000083F4000083F4000083F400008D3
:100110002B1F0008292200083F4000083F4000082C
:100120003F4000083F4000083F4000083F400008B3
:100130003F4000083F4000083F400008BB17000850
:10014000D11700083F4000083F4000083F4000082A
:100150003F4000083F4000083F400008832300085C
:100160003F4000083F4000083F4000083F40000873
:100170003F4000083F4000083F4000083F40000863
:100180003F4000083F40000800F002F800F03CF853
:100190000AA090E8000C82448344AAF10107DA45E2
:1001A00001D100F031F8AFF2090EBAE80F0013F0F8
:1001B000010F18BFFB1A43F001031847B4420000B7
:1001C000D4420000103A24BF78C878C1FAD8520748
:1001D00024BF30C830C144BF04680C6070470000C1
:1001E0000023002400250026103A28BF78C1FBD840
:1001F000520728BF30C148BF0B6070471FB504F0DD
:1002000032F91FBD10B510BD03F0B1FF1146FFF765
:10021000F5FF00F009F803F0CFFF03B4FFF7F2FF9A
:1002200003BC03F099FF000008B500F04BF99FED07
:10023000151AF0EE000AB0EE080A42F210731A46E0
:100240000321114800F0A9FB1BE01048C06B00EE31
:10025000900AF8EEE00AB0EE600ADFED0D0A0A48F7
:1002600000F094F900200090074890ED0B0ABDEED5
:10027000C00A10EE100A03B200221146054800F031
:10028000E6FBE2E700000000200800204019002003
:100290000000484300680040704700BFFEE700BF11
:1002A000FEE700BFFEE700BFFEE7704770477047FC
:1002B000704700000CB5002001900090764800685F
:1002C00040F480307449086000BF7348006800F44F
:1002D000003000900198401C0190009818B90198D6
:1002E000B0F5A06FF1D16C48006800F4003010B197
:1002F0000120009001E0002000900098012846D1E4
:1003000065484030006840F08050634940310860E3
:100310006248006840F44040604908605E48083028
:1003200000685D49083108600846006840F40040F4
:1003300008600846006840F4A05008605848091F4B
:100340000860081F006840F08070091F086000BF47
:100350005148006800F000700028F9D040F20570A4
:10036000504908604C480830006820F003004A49B2
:10037000083108600846006840F00200086000BFCD
:1003800045480830006800F00C000828F8D10CBD82
:1003900010B54548006840F47000434908603E4885
:1003A000006840F001003C49086000203A490831EB
:1003B0000860394800683D490840374908603C48B2
:1003C000091D0860081F006820F48020091F0860CC
:1003D000002031490C310860FFF76CFF4FF00060DE
:1003E00031498039086010BD70B500200022022319
:1003F00000240221284D08352D6805F00C0020B19D
:10040000042806D0082834D107E02A4D2A4E35604A
:1004100033E02A4D284E35602FE01F4D2D1D2D68ED
:10042000C5F380541C4D2D1D2D6805F03F0154B1BE
:10043000224DB5FBF1F5184E361D3668C6F3881609
:1004400005FB06F209E01B4DB5FBF1F5124E361D1A
:100450003668C6F3881605FB06F20F4D2D1D2D6874
:10046000C5F301456D1C6B00B2FBF3F5124E356010
:1004700003E0104D104E356000BF00BF064D08353B
:100480002D68C5F303150E4E705D0B4D2D68C540EC
:10049000094E356070BD0000003802400070004019
:1004A00008544007003C024088ED00E0FFFFF6FEE4
:1004B000103000240024F4000000002000127A0014
:1004C0000400002010B54FF4A06001F0CDFF1248E9
:1004D00001F0A0F94FF4E13001F092FA4FF46120FD
:1004E00001F07FFB4FF4E13001F048FC4FF4E130C4
:1004F00001F086FD4FF4E13001F0BCFE0023032241
:100500000821104601F03EF800230322082110467E
:1005100001F0D1F810BD0000A0860100D0ED000A66
:10052000F4EEC00AF1EE10FA01DD80ED000AD0ED24
:10053000000AB1EE401AF4EEC10AF1EE10FA03D24D
:10054000F1EE400AC0ED000A70470364C2638163A4
:1005500080ED000AC0ED010A80ED021A704780EDBF
:10056000000AC0ED010A80ED021ADFEDFE1AC0EDAF
:10057000081ADFEDFC1AC0ED091ADFEDFA1AC0ED1A
:100580000A1ADFEDF81AC0ED0B1A704710B52DED01
:10059000088B0446B0EE408AF0EE608A84ED048A4F
:1005A000C4ED038A38EEC80A84ED070A94ED0C0AFC
:1005B000B5EEC00AF1EE10FA27D094ED0C0A10EE59
:1005C000101A084603F0DEFE41EC190B94ED070A01
:1005D00010EE101A084603F0D5FE41EC1B0BB0EEEE
:1005E0004B0AF0EE6B0A03F0F0FDB0EE40AAF0EE1D
:1005F00060AA53EC192B51EC1A0B03F08DFE04D2B8
:100600009FEDD80ABDEC088B10BDA06B032846D126
:1006100094ED000AD4ED070A20EE200A84ED080AC2
:1006200094ED070AD4ED060A30EE200AB0EE001A67
:10063000C0EE010A94ED090A94ED011A01EE200AB8
:1006400084ED090A94ED070AD4ED060A30EE600A3B
:10065000D4ED020A20EE200A84ED0A0AD4ED100A35
:10066000F8EE600AB0EE600A04F12400FFF756FFCE
:1006700094ED080AD4ED090A30EE200AD4ED0A0AF6
:1006800030EE200A84ED0B0AD4ED0F0AF8EE600A72
:10069000B0EE600A04F12C00FFF740FF42E0A06BCF
:1006A00004283FD194ED070AD4ED060A30EE600A23
:1006B000D4ED000A20EE200A84ED080A94ED010A28
:1006C000D4ED070A20EE200A84ED090A94ED070A0A
:1006D000D4ED060AB0EE001A01EE600AD4ED050A68
:1006E00030EE200AD4ED020A20EE200A84ED0A0A38
:1006F00094ED080AD4ED090A30EE200AD4ED0A0A76
:1007000030EE200AD4ED0B0A30EE200A84ED0B0AFD
:10071000D4ED0F0AF8EE600AB0EE600A04F12C0086
:10072000FFF7FCFE94ED060A84ED050A94ED070A36
:1007300084ED060A94ED0D0AB5EEC00AF1EE10FA4A
:1007400025D094ED0D0A10EE101A084603F01AFE9B
:1007500041EC190B94ED0B0A10EE101A084603F049
:1007600011FE41EC1B0BB0EE4B0AF0EE6B0A03F0EE
:100770002CFDB0EE40AAF0EE60AA53EC192B51EC20
:100780001A0B03F039FD02D29FED760A3AE794ED99
:100790000B0A37E710B52DED088B0446B0EE408A02
:1007A000F0EE608A84ED048AC4ED038A38EEC80A4C
:1007B00084ED070A94ED0C0AB5EEC00AF1EE10FACA
:1007C00027D094ED0C0A10EE101A084603F0DAFD5B
:1007D00041EC190B94ED070A10EE101A084603F0CD
:1007E000D1FD41EC1B0BB0EE4B0AF0EE6B0A03F0AF
:1007F000ECFCB0EE40AAF0EE60AA53EC192B51ECE1
:100800001A0B03F089FD04D29FED560ABDEC088B4C
:1008100010BDA06B032846D194ED000AD4ED070A61
:1008200020EE200A84ED080A94ED070AD4ED060AAA
:1008300030EE200AB0EE001AC0EE010A94ED090A6B
:1008400094ED011A01EE200A84ED090A94ED070ADD
:10085000D4ED060A30EE600AD4ED020A20EE200A3A
:1008600084ED0A0AD4ED100AF8EE600AB0EE600AD0
:1008700004F12400FFF752FE94ED080AD4ED090AB2
:1008800030EE200AD4ED0A0A30EE200A84ED0B0A7D
:10089000D4ED0F0AF8EE600AB0EE600A04F12C0005
:1008A000FFF73CFE3EE0A06B04283BD194ED070A25
:1008B000D4ED060A30EE600AD4ED000A20EE200ADC
:1008C00084ED080A94ED010AD4ED070A20EE200A0F
:1008D00084ED090A94ED070AD4ED060AB0EE001A79
:1008E00001EE600AD4ED050A30EE200AD4ED020ACA
:1008F00020EE200A84ED0A0A94ED080AD4ED0A0AD3
:1009000030EE200AD4ED0B0A30EE200A84ED0B0AFB
:10091000D4ED0F0AF8EE600AB0EE600A04F12C0084
:10092000FFF7FCFD94ED060A84ED050A94ED070A35
:1009300084ED060A94ED0D0AB5EEC00AF1EE10FA48
:1009400028D094ED0D0A10EE101A084603F01AFD97
:1009500041EC190B94ED0B0A10EE101A084603F047
:1009600011FD01E00000000041EC1B0BB0EE4B0A52
:10097000F0EE6B0A03F029FCB0EE40AAF0EE60AA9C
:1009800053EC192B51EC1A0B03F036FC02D21FED7D
:100990000B0A3BE794ED0B0A38E72DE9F0412DED0A
:1009A000048B04460D4616461F46B0EE408AF0EE14
:1009B000608AB0EE419A18486064B0EE491AF0EED1
:1009C000680AB0EE480A3B46324629462046D4F82B
:1009D00044C0E047BDEC048BBDE8F0811FED1F0A69
:1009E00080ED080A1FED210A80ED090A1FED230A98
:1009F00080ED0A0A1FED250A80ED0B0A1FED270A7C
:100A000080ED050A1FED290A80ED060A1FED2B0A6D
:100A100080ED070A704700004B050008FE49096891
:100A2000491CFD4A11600168A1F2072101B900E0EB
:100A300000BF00BF7047F9490968491CF74A1160B7
:100A40000168012900D100E000BF00BF70472DE917
:100A5000F04186B080460C4615461E460C9F40F27B
:100A6000FF10019000208DF80C008DF80D0008207B
:100A70008DF80E00200A8DF80F008DF81040290A1D
:100A80008DF811108DF81250310A8DF813108DF871
:100A90001460390A8DF815108DF8167001A94046BA
:100AA00001F0E4FE06B0BDE8F0812DE9F04186B02A
:100AB00080460C4615461E460C9F40F2FF200190D2
:100AC00000208DF80C008DF80D0008208DF80E0028
:100AD000200A8DF80F008DF81040290A8DF81110AA
:100AE0008DF81250310A8DF813108DF81460390A00
:100AF0008DF815108DF8167001A9404601F0B6FE6C
:100B000006B0BDE8F0812DE9F04186B080460C4684
:100B100015461E460C9F4FF40070019000208DF882
:100B20000C008DF80D0008208DF80E00200A8DF8BD
:100B30000F008DF81040290A8DF811108DF8125011
:100B4000310A8DF813108DF81460390A8DF81510DC
:100B50008DF8167001A9404601F088FE06B0BDE888
:100B6000F0812DE9F04186B080460C4615461E46C0
:100B70000C9F40F2FF10019000208DF80C008DF8C2
:100B80000D0008208DF80E00200A8DF80F008DF85A
:100B90001040290A8DF811108DF81250310A8DF885
:100BA00013108DF81460390A8DF815108DF8167031
:100BB00001A9404601F05AFE06B0BDE8F08170B5CB
:100BC00086B006460C461546019508208DF80E00A5
:100BD00000208DF80C008DF80D008DF80F400021DD
:100BE0008DF810108DF811108DF812108DF813106B
:100BF0008DF814108DF815108DF8161001A93046D7
:100C000001F034FE06B070BD30B52DED068B85B019
:100C10000546B0EE408AF0EE608AB0EE419AF0EE02
:100C2000619AB0EE42AAF0EE62AA0C460094082047
:100C30008DF80A0000208DF808008DF80900322098
:100C40008DF80B0000218DF80C10BCEEC80A10EED8
:100C5000100AC1B28DF80D10BCEEE80A10EE100AB1
:100C6000C1B28DF80E10BCEEC90A10EE100AC1B266
:100C70008DF80F10BCEEE90A10EE100AC1B28DF823
:100C80001010BCEECA0A10EE100AC1B28DF8111095
:100C9000BCEEEA0A10EE100AC1B28DF812106946D5
:100CA000284601F0E3FD05B0BDEC068B30BDF0B584
:100CB00085B007460D4614461E46009608208DF85E
:100CC0000A0000208DF808008DF80900A4208DF896
:100CD0000B0000218DF80C10E9B28DF80D10290AD7
:100CE0008DF80E10E1B28DF80F10210A8DF810105A
:100CF000210C8DF81110210E8DF81210694638461E
:100D000001F0B4FD05B0F0BD70B586B006460C46E6
:100D10001546019508208DF80E0000208DF80C0076
:100D20008DF80D00A2208DF80F0000218DF8101015
:100D30008DF811108DF812108DF81340210A8DF8DE
:100D40001410210C8DF81510210E8DF8161001A924
:100D5000304601F08BFD06B070BD70B586B006461A
:100D60000C461546019508208DF80E0000208DF8E0
:100D70000C008DF80D00A1208DF80F0000218DF8DA
:100D800010108DF811108DF812108DF81340210AF3
:100D90008DF8141000218DF815108DF8161001A98A
:100DA000304601F063FD06B070BD70B586B00646F2
:100DB0000C461546019500208DF80C008DF80D00AD
:100DC00008208DF80E0020128DF80F008DF81040CD
:100DD00000218DF811108DF812108DF813108DF878
:100DE00014108DF815108DF8161001A9304601F079
:100DF0003DFD06B070BD30B585B005460C4600948B
:100E000000208DF8080002208DF8090006208DF8DA
:100E10000A00002004E00000140000201800002058
:100E20008DF80B0000218DF80C108DF80D108DF849
:100E30000E108DF80F108DF810106946284601F03D
:100E400015FD05B030BD10B504464FF4C261204613
:100E5000FFF7D1FF40F211612046FFF7CCFF40F2CF
:100E600012612046FFF7C7FF40F213612046FFF7EB
:100E7000C2FF10BD70B505460C464FF4C06202219A
:100E80002846FFF792FF04EBC40000EB04104FF676
:100E9000FF7202EA800140F201622846FFF785FFF7
:100EA00040F2026240F6C4112846FFF77EFF40F28E
:100EB00003624FF42F712846FFF777FF70BD30B5FE
:100EC00085B005460C4644F40070009000208DF873
:100ED00008008DF809008DF80A006946284601F0DF
:100EE000C5FC05B030BD30B585B005460C4644F4B0
:100EF0000470009000208DF808008DF809008DF82E
:100F00000A006946284601F0B1FC05B030BD30B595
:100F100085B005460C4600208DF808008DF80900C4
:100F20008DF80A0044F4806000906946284601F07C
:100F30009DFC05B030BD30B585B005460C4644F487
:100F40008260009000208DF808008DF809008DF86F
:100F50000A006946284601F089FC05B030BD30B56D
:100F600085B005460C4644F4A060009000208DF842
:100F700008008DF809008DF80A006946284601F03E
:100F800075FC05B030BD30B585B005460C4644F45F
:100F9000A260009000208DF808008DF809008DF8FF
:100FA0000A006946284601F061FC05B030BD30B545
:100FB00085B005460C4644F4A460009000208DF8EE
:100FC00008008DF809008DF80A006946284601F0EE
:100FD0004DFC05B030BDF0B585B006460D46144653
:100FE00045F4A660009000208DF808008DF80900F7
:100FF00002208DF80A00E0B28DF80B00210A8DF86E
:101000000C106946304601F031FC0746394630463F
:1010100001F0C4FC05B0F0BDF0B585B006460D4644
:10102000144645F4A860009000208DF808008DF863
:10103000090002208DF80A00E0B28DF80B00210AA9
:101040008DF80C106946304601F010FC0746394611
:10105000304601F0A3FC05B0F0BD2DE9F04186B0AB
:1010600007460D46164645F4AA60019000208DF80B
:101070000C008DF80D0004208DF80E00B0034FF425
:10108000B471B0FBF1F4E0B28DF80F00210A8DF8D5
:101090001010210C8DF81110210E8DF8121001A9DD
:1010A000384601F0E3FB80464146384601F076FCC5
:1010B00006B0BDE8F0812DE9F04186B007460D4647
:1010C000164645F4AC60019000208DF80C008DF8B8
:1010D0000D0004208DF80E00B0034FF4B471B0FB86
:1010E000F1F4E0B28DF80F00210A8DF81010210CF8
:1010F0008DF81110210E8DF8121001A9384601F05B
:10110000B5FB80464146384601F048FC06B0BDE8D4
:10111000F0812DE9F04186B007460C4615461E4683
:1011200044F4AE60019000208DF80C008DF80D00A5
:1011300003208DF80E00F0B28DF80F009DF810001E
:10114000058001A9384601F091FB804641463846AA
:1011500001F024FC06B0BDE8F081000010B50346A4
:101160002BB1087828B901200870521C01E000203A
:101170000870107800EBD0746410A0EB44040CB934
:10118000002010BD0120FCE7CB8A03400BB10123F6
:1011900000E000231370704710B5044604F13202DA
:1011A00021460120FFF7F0FF04F13302214604201D
:1011B000FFF7EAFF04F1340221460220FFF7E4FFC3
:1011C00004F1350221460820FFF7DEFF04F1360264
:1011D00021461020FFF7D8FF04F1380221462020D5
:1011E000FFF7D2FF04F1390221464020FFF7CCFF80
:1011F00004F13A0221468020FFF7C6FF04F13B02CA
:1012000021464FF48070FFF7BFFF04F13C022146F6
:101210004FF40070FFF7B8FF04F13D0221464FF490
:101220008060FFF7B1FF04F13E0221464FF40060F9
:10123000FFF7AAFF04F1370221464FF48050FFF771
:10124000A3FF04F13F0221464FF40050FFF79CFF3B
:1012500004F1400221464FF48040FFF795FF04F16E
:10126000410221464FF40040FFF78EFF94F8320010
:10127000A24AA349FFF772FF422108553321085DB6
:10128000A04AA149FFF76AFF432108553421085DB0
:101290009E4A9F49FFF762FF442108553521085DAA
:1012A0009C4A9D49FFF75AFF452108553621085DA4
:1012B0009A4A9B49FFF752FF462108553821085D9D
:1012C000984A9949FFF74AFF482108553921085D96
:1012D000964A9749FFF742FF492108553A21085D90
:1012E000944A9549FFF73AFF4A2108553B21085D8A
:1012F000924A9349FFF732FF4B2108553C21085D84
:10130000904A9149FFF72AFF4C2108553D21085D7D
:101310008E4A8F49FFF722FF4D2108553E21085D77
:101320008C4A8D49FFF71AFF4E2108553721085D79
:101330008A4A8B49FFF712FF472108553F21085D74
:10134000884A8949FFF70AFF4F2108554021085D67
:10135000864A8749FFF702FF502108554121085D61
:10136000844A8549FFF7FAFE5121085510BD817A5C
:10137000C176C27E2F210B5C00F11F01CA542F21C0
:101380000A5C00F11F018A5C30210B5C00F11F0137
:10139000C95C42EA810101772F21095C491C01F0F7
:1013A0000F0231210A54027F0B5C00F11F01C95C5E
:1013B00042EA011141772F210A5C00F11F018A5C8A
:1013C00030210B5C00F11F01C95C8A4205D16B49D9
:1013D0000968491C694A116002E00021674A1160EE
:1013E00066490968282905D32F210A5C00F11F01ED
:1013F0008A5C82772F210A5C30210A542F21095CF4
:10140000491CCAB22F210A54095C102902D10022BA
:101410002F210A547047C17A012901D1817608E051
:10142000C17A032901D1817603E0C17A022900D172
:101430008176704710B5044604B910BD20786178F4
:1014400040EA0120C0F30A004D4908806078C010CE
:10145000A17840EA4110C0F30A0049494880A078C9
:101460008011E17840EA8100217940EA8120C0F3CF
:101470000A004349888020794010617940EAC11010
:10148000C0F30A003E49C880207C617C40EA01200C
:10149000C0F30A003A490881607900118008887217
:1014A0006079C0F30110C872A079E17940EA0120A7
:1014B00000B233498881207A617A40EA012001B282
:1014C0002F48C181A07AE17A40EA012001B22C487C
:1014D0000182217B0175617B4175A07BE17B40EA44
:1014E00001202749C8820846FFF795FF2448FFF7E7
:1014F0003EFF2348FFF750FE00BF9EE71D0000207F
:101500001C0000201F0000201E00002021000020E1
:1015100020000020230000202200002025000020C1
:1015200024000020270000202600002029000020A1
:10153000280000202B0000202A0000202D00002081
:101540002C0000202F0000202E0000203100002061
:101550003000002033000020320000203500002041
:101560003400002037000020360000203900002021
:10157000380000203B0000203A0000203C00002002
:10158000101D0020F0B58BB004460D4616461F46D0
:101590000121084602F0C8F90121480602F00DFABF
:1015A00009220B21964801F0ACFF09220C21944836
:1015B00001F0A7FF4FF4C050099002208DF82800D9
:1015C00009A98F4801F012FF14208DF804000320B0
:1015D0008DF8050001208DF806008DF8070001A8A0
:1015E00000F047FF874800F0AFFF06A801F0D0F8F1
:1015F00000208DF81E0001208DF81F0000208DF8BE
:1016000020008DF821008DF822008DF823008DF840
:101610001A708DF81B008DF81C508DF81D40ADF828
:10162000186006A9774800F0A8FF00208DF8120086
:101630008DF8130001208DF814000020ADF808008B
:10164000ADF80A00ADF80C00ADF80E00ADF81000D2
:1016500001208DF8150002A801F019F801220221DD
:10166000684801F013FB0BB0F0BD10B501216548CF
:1016700001F074FB18B10121624801F00AFC10BDB1
:1016800000B585B002215F4801F068FB88B10421F4
:101690005C4801F0FEFB5C495A4801F03CFB6A469D
:1016A0000021584801F0D7F900BF6846FFF7B6F9A6
:1016B00000BF05B000BDF0B58BB004460D46164620
:1016C0001F460121022002F02FF90121880602F0B5
:1016D00074F909220C214D4801F013FF09220D2154
:1016E0004A4801F00EFF4FF44050029002208DF85E
:1016F0000C0002A9454801F079FE40208DF8040055
:1017000003208DF805008DF8060001208DF80700F4
:1017100001A800F0AEFE3F208DF8040003208DF8F4
:1017200005008DF8060001208DF8070001A800F0E3
:10173000A0FE374800F008FF08A801F029F80020B3
:101740008DF8260001208DF8270000208DF8280054
:101750008DF829008DF82A008DF82B008DF82200D5
:101760008DF823008DF824508DF82540ADF82060C9
:1017700008A9274800F001FF0E208DF81A0000206C
:101780008DF81B0001208DF81C000020ADF8100022
:10179000ADF81200ADF81400ADF81600ADF8180061
:1017A00001208DF81D0004A800F071FF0122022124
:1017B000174801F06BFA0BB0F0BD10B501211448C9
:1017C00001F0CCFA18B10121114801F062FB10BD03
:1017D00000B585B002210E4801F0C0FA68B10221BF
:1017E0000B4801F056FB6A460021094801F033F925
:1017F00000BF6846FFF71FF900BF05B000BD00003D
:101800000000024000640040080000320004024072
:101810000068004010B596B004460121022002F095
:1018200083F80121880502F07FF80121102002F0E1
:10183000D5F807221146FE4801F063FE14A801F016
:101840001DFE8020149002208DF8540000208DF899
:10185000550001208DF8570014A9F54801F0C6FD88
:10186000F44802F0B5F910A802F07FFA10940020B5
:10187000ADF84400ADF846004FF48060ADF8480084
:101880000420ADF84A000020ADF84C0010A9E9484A
:1018900002F005FA01224021E64802F035FBE64855
:1018A00001F04AFB684601F012FC4FF00060009026
:1018B000E048001D0190E148029000200390402084
:1018C0000490002005904FF480600690002007905F
:1018D00008904FF48070099000020A9000200B904D
:1018E0000C900D900E906946D34801F0C7FB002282
:1018F000D2494031D04801F022FC0121CE4801F00C
:101900002AFC0121CC4801F0F3FB25208DF83C0096
:1019100000208DF83D008DF83E0001208DF83F003D
:101920000FA800F0A6FD012240F22441C14802F0B8
:10193000F4FA0121BF4802F03AFA16B010BD10B512
:1019400040F22441BB4802F023FB002857D0B9489D
:101950000088B8488088B84801F00DFC40BB0021E1
:10196000B54801F0C5FBB649B34801F03AFCB248AE
:1019700001F0E1FBC0F14000B24908604020AE49EF
:10198000091D0860081F006840F40020091F086056
:101990000121A94801F0ACFBAA48006812282ED109
:1019A000A648FFF747FD00BFA448FFF743FD26E028
:1019B0000021A14801F09CFBA1499F4801F011FCC6
:1019C0009D4801F0B8FBC0F140009E4908604020EE
:1019D0009949091D0860081F006820F40020091FAC
:1019E00008600121944801F083FB964800681228A2
:1019F00005D100BF91484030FFF71CFD00BF10BD6E
:101A000010B596B004460121084601F08DFF012172
:101A1000480501F089FF0121480401F0CEFF0722AB
:101A20000221894801F06DFD14A801F027FD042072
:101A3000149002208DF8540000208DF855000120EC
:101A40008DF8570014A9804801F0D0FC7F4802F0BF
:101A5000BFF810A802F089F910940020ADF84400F6
:101A6000ADF846004FF48060ADF848000420ADF8B2
:101A70004A000020ADF84C0010A9744802F00FF99C
:101A8000012240216B4802F03FFA714801F054FAFC
:101A9000684601F01CFB4FF0006000906B48001D91
:101AA00001906C4802900020039064200490002074
:101AB00005904FF4806006900020079008904FF446
:101AC0008070099000020A9000200B900C900D90FD
:101AD0000E9069465E4801F0D1FA00225D496431FA
:101AE0005B4801F02CFB0121594801F034FB012136
:101AF000574801F0FDFA26208DF83C0000208DF8B3
:101B00003D008DF83E0001208DF83F000FA800F049
:101B1000B0FC012240F224414C4802F0FEF90121C0
:101B20004A4802F044F916B010BD10B540F2244105
:101B3000464802F02DFA002852D044480088434815
:101B4000001D00883C4801F016FB20BB00214048E6
:101B500001F0CEFA40493E4801F043FB3C4801F019
:101B6000EAFAC0F164003D49086064203849091D63
:101B7000086037488838D0F8880040F40020091FF2
:101B800008600121324801F0B3FA34480068122895
:101B900026D100BF24E000212D4801F0A9FA2E49EA
:101BA0002B4801F01EFB2A4801F0C5FAC0F1640081
:101BB0002A49086064202649091D0860244888389D
:101BC000D0F8880020F40020091F08600121204877
:101BD00001F08EFA21480068122801D100BF00BF31
:101BE00010BD10B596B004460121022001F09CFE04
:101BF0000121880401F0E1FE0121480501F094FE75
:101C000007220A210A4801F07CFC07220B21084820
:101C100001F077FC02208DF8440003208DF8450088
:101C200000208DF8460001208DF84700800217E063
:101C3000000402400010014040640240641D002086
:101C40000000301048000020000002400044004026
:101C500088600240241E0020000C00204C00002060
:101C6000109010A9FE4801F0C1FB4FF400601090E5
:101C700010A9FB4801F0BAFB27208DF800000220D4
:101C80008DF8010001208DF802008DF803006846F0
:101C900000F0EFFB12940020ADF84C00ADF84E00C0
:101CA000ADF85000ADF854000C20ADF8520012A968
:101CB000EC4801F0F4FF012240F22441E94802F02F
:101CC0002CF95021E74802F05AF9642005900020D1
:101CD0000C900D900E9009904FF48060079080104A
:101CE0000A90E048001D029000200F900890069096
:101CF0004FF400300B908002019000200490DA48ED
:101D0000039001A9D94801F0B9F90121D74801F0A0
:101D1000EFF901224021D34802F0F6F80121D14821
:101D200002F045F816B010BD10B540F22441CD4880
:101D300002F02EF908B3CB4802F068F840F22441D3
:101D4000C84802F060F90021C84801F0D1F900222A
:101D50004021C44802F0D8F84C22C349891DC44828
:101D600002F080F900BF00BF01224021BD4802F00F
:101D7000CBF80121BD4801F0BBF910BD10B596B0FC
:101D800004460121042001F0CFFD0121C80401F027
:101D900014FE08220A21B74801F0B3FB08220B21E8
:101DA000B44801F0AEFB0121480501F0BDFD4FF440
:101DB0004060109002208DF8440000208DF846000D
:101DC00003208DF8450001208DF8470010A9A9488F
:101DD00001F00CFB12940020ADF84C00ADF84E0061
:101DE000ADF850000C20ADF852000020ADF85400C2
:101DF00012A9A14801F053FF012240219E4802F0A0
:101E000083F89A48183001F097F8684601F05FF9B6
:101E10004FF0006000909848001D01909748029094
:101E20000020039064200490002005904FF480600F
:101E3000069000200790089009904FF480300A9097
:101E400000200B900C900D900E906946874818303A
:101E500001F014F901218548183001F049F93420C6
:101E60008DF83C0003208DF83D008DF83E000120E8
:101E70008DF83F000FA800F0FCFA012280217E4877
:101E800002F042F800217948483001F031F97748F2
:101E9000483001F051F800BF7448483001F075F93E
:101EA0000028F9D14FF0006000907348001D0190A8
:101EB00073480290402003900020049005904FF456
:101EC0008060069000200790089009904FF48030C1
:101ED0000A9000200B9003200C9000200D900E9093
:101EE00069466248483001F0C9F80F208DF83C007F
:101EF00003208DF83D008DF83E0001208DF83F0055
:101F00000FA800F0B6FA012210215848483001F01D
:101F10007CF9012240F22441574801F0FEFF0121E3
:101F2000554801F044FF16B010BD10B5002440F232
:101F30002441514802F02CF808B34F4800884E481D
:101F4000001D008800214948183001F0D1F84D49A2
:101F50004648183001F045F94448183001F0EBF8D4
:101F6000C0F16400C4B200BF00BF64213F48183014
:101F700001F0DFF801213D48183001F0B9F810BD3B
:101F800070B504460D462946204601F0D2F80121DD
:101F9000204601F0ADF870BD10B53B4933484830DC
:101FA00001F003F948B100213048483001F0A0F8B1
:101FB00035492E48483001F014F910BD70B504467B
:101FC00000252F4D05F8014B012128484830FFF727
:101FD000D7FF70BD2DE9F04105460E4600240027CD
:101FE000274F00BF03E0285D3855601C84B2B4421F
:101FF000F9DB31461D484830FFF7C2FFBDE8F081EC
:1020000010B596B004460121042001F08DFC012199
:10201000082001F089FC0121080501F0CEFC012116
:10202000480501F081FC02208DF8540000208DF855
:1020300056004FF48050149001208DF85700032073
:102040008DF8550014A90B4801F0D0F902208DF845
:10205000540000208DF8560004201490012015E053
:102060000004024000480040501F00202860024049
:10207000B41F002000080240004C00400020002057
:102080006420002000003010200000208DF8570050
:1020900003208DF8550014A9E64801F0A7F908229D
:1020A0000C21E54801F02DFA08220221E14801F057
:1020B00028FA10940020ADF84C000C20ADF84A002E
:1020C0000020ADF84800ADF84600ADF8440010A976
:1020D000DA4801F0E4FD0121D84801F068FE012250
:1020E0004021D64801F010FF684600F0F0FFD448C8
:1020F0000290642004904FF000600090CF48001DD3
:1021000001900020039005904FF48060069000201D
:102110000890079009904FF480300A9000200B90AF
:102120000C900D900E906946C64800F0A7FF012163
:10213000C44800F0DDFF35208DF83C0001208DF80B
:102140003F008DF83D0002208DF83E000FA800F002
:1021500090F9012240F22441B84801F0DEFE01214D
:10216000B64801F024FE01228021B44801F0CCFEE3
:102170000021B448A83000F0BBFFB248A83000F0FE
:10218000DBFE00BFAF48A83000F0FFFF0028F9D108
:102190004FF000600090A948001D0190AA480290ED
:1021A0004020039042200490002005904FF480606E
:1021B000069000200790089009900A900B90032049
:1021C0000C9000200D900E9069469E48A83000F0BB
:1021D00055FF01219B48A83000F08AFF2F208DF881
:1021E0003C0002208DF83D0001208DF83E008DF866
:1021F0003F000FA800F03DF916B010BD70B50446C1
:102200000D460021204600F073FF00BF204600F07D
:10221000BCFF0028FAD12946204600F08AFF0121A0
:10222000204600F065FF70BD10B540F224418348A0
:1022300001F0AEFEE8B18148008880488088002126
:10224000804800F055FF81497E4800F0CAFF7D4874
:1022500000F071FFC0F500707D4908604FF4007117
:10226000784800F066FF0121764800F041FF00BF8A
:1022700000BF10BD10B596B004460121042001F046
:1022800053FB0121880501F04FFB0121202001F0C3
:10229000A5FB08220621684801F033F9082207212E
:1022A000654801F02EF9C020109002208DF84400FE
:1022B00000208DF8460002208DF8450000208DF8A2
:1022C000470010A95C4801F091F8624801F080FCD9
:1022D00012940020ADF84C00ADF84E00ADF850005F
:1022E0000C20ADF852000020ADF8540012A9594856
:1022F00001F0D5FC01224021564801F005FE564868
:1023000000F01AFE4FF0206000905248001D01902E
:102310005248029000200390642004900020059011
:102320004FF48060069000200790089009904FF4C9
:1023300080300A9000200B900C900D900E90694612
:10234000454800F09BFE0121434800F0D1FE4720A4
:102350008DF83C0003208DF83D008DF83E000120F3
:102360008DF83F000FA800F084F8012240F22441CC
:10237000384801F0D2FD0121364801F018FD16B0B1
:1023800010BD10B540F22441324801F001FE002892
:102390004ED0304800882F48001D00882E4800F09D
:1023A000EAFE10BB00212C4800F0A2FE2C492A486E
:1023B00000F017FF284800F0BEFEC0F16400294974
:1023C000086064202449091D0860081F006840F463
:1023D0000020091F086001211F4800F089FE2148E4
:1023E0000068122824D100BF22E000211A4800F022
:1023F0007FFE1B49184800F0F4FE174800F09BFED2
:10240000C0F164001749086064201349091D086081
:10241000081F006820F40020091F086001210E48F1
:1024200000F066FE0F480068122801D100BF00BF0F
:1024300010BD0000000C02400008024000500040A7
:102440006023002010600240BC22002030000010F9
:10245000500000200014014028640240F0240020B5
:10246000000C00105400002032490143324A116030
:10247000704770B5002100230F22C4781CB32E4C86
:10248000246804F4E064C4F5E064C4F30721C1F1F6
:102490000404E3B20A4144789C40E1B284781440D9
:1024A00021430C07210E254C05786155047804F072
:1024B0001F050124AC4005786D11AD0005F1E02544
:1024C000C5F8004109E0047804F01F050124AC4080
:1024D0001B4D0678761145F8264070BD194A0A4012
:1024E0000243154B1B1F1A60704739B1124A121D67
:1024F00012680243104B1B1D1A6006E00E4A121DA3
:10250000126882430C4B1B1D1A607047042808D1C7
:102510004FF0E021096941F004014FF0E022116120
:1025200007E04FF0E021096921F004014FF0E022BB
:10253000116170470000FA050CED00E000E400E0D6
:1025400080E100E080FFFF1F10B50446FE48844292
:1025500009D10121480601F085FA00214FF00070F1
:1025600001F080FA08E00121880601F07BFA0021E1
:102570004FF0806001F076FA10BD30B502460020C1
:102580000023146824F002041460146844F0010469
:10259000146000E05B1C546804F001041CB94FF6A1
:1025A000FF74A342F6D1546804F001040CB9002072
:1025B0006CE08C79012C04D1146844F08004146020
:1025C00003E0146824F080041460CC79012C04D159
:1025D000146844F04004146003E0146824F04004DC
:1025E00014600C7A012C04D1146844F020041460A7
:1025F00003E0146824F0200414604C7A012C04D108
:10260000146844F01004146003E0146824F010040B
:1026100014608C7A012C04D1146844F0080414600E
:1026200003E0146824F008041460CC7A012C04D16F
:10263000146844F00404146003E0146824F00404F3
:1026400014608C78A407CD7844EA05640D7944EAD7
:1026500005444D7944EA05540D886D1E2C43D46120
:10266000146824F001041460002300E05B1C54682B
:1026700004F001041CB14FF6FF74A342F6D1546874
:1026800004F001040CB1002000E0012030BD10B5C1
:102690000021837A012202FA03F1AC4A126842F067
:1026A0000102AA4B1A60A94A1C3212688A43A74B3E
:1026B0001C331A60027BCAB9A44A0C3212688A43DE
:1026C000A24B0C331A604288C38842EA03439F4AF4
:1026D0004032847A42F834300288838842EA0343E5
:1026E0009A4A4032847A02EBC4025360027B012A88
:1026F00019D1964A0C3212680A43944B0C331A6073
:102700004288038842EA0343904A4032847A42F87E
:102710003430C288838842EA03438C4A4032847A48
:1027200002EBC4025360C27A3AB9884A121D126899
:102730008A43864B1B1D1A6006E0844A121D1268EC
:102740000A43824B1B1D1A60028932B97F4A143238
:1027500012688A437D4B14331A600289012A06D11C
:102760007A4A143212680A43784B14331A60427B57
:10277000012A06D1754A1C3212680A43734B1C3376
:102780001A60724A126822F00102704B1A6010BD82
:1027900000218171C171017241728172C1728170B7
:1027A000C170032101710221417101210180704733
:1027B0006649096841F00101644A116011460968DF
:1027C00043F60E729143614A11601146096841EA6D
:1027D000002111601146096821F001011160704764
:1027E00021B1026842F48032026003E0026822F400
:1027F000803202607047E1B1026842F080020260FC
:102800004FF4C272125842F480734FF4C2721350E4
:102810004FF4CA72125842F480734FF4CA721350C4
:102820004FF4D272125842F480734FF4D2721350A4
:102830001BE0026822F0800202604FF4C27212585C
:1028400022F480734FF4C27213504FF4CA721258BC
:1028500022F480734FF4CA7213504FF4D27212589C
:1028600022F480734FF4D2721350704710B50246B1
:102870000020936803F08063B3F1806F00D110E013
:10288000936803F00063B3F1006F01D1012008E009
:10289000936803F08053B3F1805F01D1022000E020
:1028A0000420042879D002F5C07303EB00131B68E1
:1028B00003F0010402F5C07303EB00131C600B7AF4
:1028C0007BB94B7A0C8843EA445302F5C07404EB9D
:1028D00000142468234302F5C07404EB0014236041
:1028E00010E00B7A4C6843EAC4034C7A234302F5A8
:1028F000C07404EB00142468234302F5C07404EB95
:10290000001423608B7A03F00F038B7202F5C073FF
:1029100003EB00135B6823F00F0402F5C07303EBB5
:1029200000135C6002F5C07303EB00135B688C7AE4
:10293000234302F5C07404EB001463608B7B1C0618
:102940004B7B44EA034403E000640040006600401F
:102950000B7B44EA0323CC7A234302F5C07404EBD7
:102960000014A3608B7C1C064B7C44EA03440B7C64
:1029700044EA0323CC7B234302F5C07404EB001428
:10298000E36002F5C07303EB00131B6843F001041E
:1029900002F5C07303EB00131C6010BD10B50246B6
:1029A000002321B1012907D002290FD109E0906845
:1029B000F94C00EA04030BE09068F84C00EA0403C9
:1029C00006E09068F64C00EA040301E0002300BF33
:1029D00000BFF44C181BA34216D007DC83B16FF084
:1029E0008060184470B1022818D111E0B0F5007F62
:1029F00010D0ED4C204448B1B0F5003F0ED10BE0B3
:102A000002230DE000230BE0002309E0002307E090
:102A1000012305E0012303E0012301E0002300BFBF
:102A200000BFD8B210BD21B1012907D002290FD1B2
:102A300009E0826842F0800282600AE0826842F423
:102A40000042826005E0826842F40002826000E099
:102A500000BF00BF704710B500F5D87303EB01133A
:102A60001B6803F004031372137A53B900F5D8738B
:102A700003EB01131B6840F2FF7404EA5353136025
:102A800009E000F5D87303EB01131B686FF0604495
:102A900004EAD303536000F5D87303EB01131B68FA
:102AA00003F00203537200F5D87303EB01135B6864
:102AB00003F00F03937200F5D87303EB01135B6807
:102AC0001B0AD37400F5D87303EB01139B68D37210
:102AD00000F5D87303EB01139B681C0A147300F50F
:102AE000D87303EB01139B681C0C547300F5D87367
:102AF00003EB01139B681B0E937300F5D87303EB74
:102B00000113DB68D37300F5D87303EB0113DB68A3
:102B10001C0A147400F5D87303EB0113DB681C0C5A
:102B2000547400F5D87303EB0113DB681B0E937428
:102B300021B9C36843F02003C36003E0036943F095
:102B40002003036110BD21B9C26842F02002C260B7
:102B500003E0026942F02002026170470246002051
:102B600019B9D36803F0030006E0012903D1136902
:102B700003F0030000E00020704710B502460B464A
:102B800000204FF6FF71BBB9146824F0020444F032
:102B90000104146000E0491E546804F00304012C91
:102BA00001D00029F7D1546804F00304012C01D0AE
:102BB000002032E0012030E0012B13D1146824F012
:102BC0000304146000E0491E546804F003040CB1CF
:102BD0000029F8D1546804F003040CB100201CE073
:102BE00001201AE0022B17D1146824F0010444F0EC
:102BF0000204146000E0491E546804F00304022C2F
:102C000001D00029F7D1546804F00304022C01D04C
:102C1000002002E0012000E0002010BD014600205D
:102C20000A6822F0010242F002020A604A6802F0D9
:102C30000302022A00D10120704701464FF6FF72BD
:102C400000200B6823F002030B6000E0521E4B686B
:102C500003F00203022B01D1002AF7D14B6803F0E5
:102C60000203022B00D001207047014600208A6930
:102C700002F070007047014600208A69100E70470C
:102C8000014600208A69C2F3074070471AB14369C0
:102C90000B43436102E043698B434361704710B5C6
:102CA0000246002001F4700343B19369C1F3130499
:102CB00023400BB101202DE000202BE001F08073B8
:102CC00043B15368C1F3130423400BB1012021E049
:102CD00000201FE001F0006343B19368C1F31304C7
:102CE00023400BB1012015E0002013E001F0007338
:102CF00043B1D368C1F3130423400BB1012009E0B1
:102D0000002007E01369C1F3130423400BB1012035
:102D100000E0002010BD0022244B994202D1002384
:102D2000836111E0C1F3130201F000730BB1C260C3
:102D30000AE001F080630BB1026105E001F000637D
:102D40000BB1826000E0426070470246002002EA58
:102D500001030BB1012000E00020704770B504466C
:102D60000D46002660692840002872D0B5F5807FA6
:102D700069D01DDC082D42D006DC012D2DD0022D9E
:102D800031D0042D7FD134E0102D3ED0202D42D003
:102D9000402D78D145E00000030000040003000846
:102DA00000000310000100080001FFF77000F03080
:102DB000B5F5004F61D009DCB5F5007F4AD0B5F517
:102DC000806F4DD0B5F5006F5DD150E0B5F5803F17
:102DD0002DD0B5F5003F56D12FE0A0685549FFF73B
:102DE000B4FF064651E0E0680321FFF7AEFF064658
:102DF0004BE0E0680821FFF7A8FF064645E0E068E1
:102E00001021FFF7A2FF06463FE020690321FFF7EC
:102E10009CFF064639E020690821FFF796FF064629
:102E200033E020691021FFF790FF06462DE060682F
:102E30000821FFF78AFF064627E060681021FFF7A8
:102E400084FF064621E0A0690121FFF77EFF0646C8
:102E50001BE01BE0A0690221FFF777FF064614E0A4
:102E6000A0690421FFF771FF06460EE00BE0A069A0
:102E70007021FFF76AFF064607E060680421FFF74C
:102E800064FF064601E0002600BF00E00026304651
:102E900070BDB1F5007F3AD00FDC202928D006DCC8
:102EA00001291CD004291DD0082940D11DE040294A
:102EB00021D0B1F5807F3AD126E0B1F5004F31D075
:102EC00006DCB1F5806F25D0B1F5006F2FD124E07D
:102ED000B1F5803F12D0B1F5003F28D111E0154A7D
:102EE000826025E00822C26022E01022C2601FE05A
:102EF000082202611CE01022026119E008224260EF
:102F000016E01022426013E00422426010E0042226
:102F100042600DE0042242600AE000228261042245
:102F2000426005E0002282610422426000E000BFAE
:102F300000BF704701010100016821F0010101603B
:102F40000021016041608160C16001612121416116
:102F5000DB49884204D13D21D94A103A91608CE086
:102F6000D7491831884205D14FF47461D44A103AD8
:102F7000916082E0D2493031884205D14FF474111A
:102F8000CF4A103A916078E0CD494831884205D166
:102F90004FF07461CA4A103A91606EE0C8496031DE
:102FA000884204D1C749C64A103AD16065E0C44995
:102FB0007831884204D1C449C14A103AD1605CE0FA
:102FC000BF499031884204D1C049BD4A103AD1600E
:102FD00053E0BB49A831884205D14FF03D51B84A72
:102FE000103AD16049E0BA49884204D13D21B84A3B
:102FF000083A116041E0B6491831884205D14FF4D2
:103000007461B34A083A116037E0B14930318842FF
:1030100005D14FF47411AE4A083A11602DE0AC4965
:103020004831884205D14FF07461A94A083A1160CD
:1030300023E0A7496031884204D1A249A44A121F63
:1030400011601AE0A2497831884204D19E49A04A11
:10305000121F116011E09E499031884204D19B49B2
:103060009B4A121F116008E09949A831884204D197
:103070004FF03D51964A121F1160704710B5002263
:103080000268944B1A40CC680B6823434C69234375
:103090008C692343CC6923430C6A23434C6A234342
:1030A0008C6A23434C6B23438C6B23431A4302608B
:1030B000426922F00702D1E90B3423431A434261EB
:1030C0000B6943604B6883608B68C36010BD00214F
:1030D000016041608160C160016141618161C161E4
:1030E000016241628162C162016341638163704731
:1030F00021B1026842F00102026003E0026822F09E
:1031000001020260704721B1026842F4004202608D
:1031100003E0026822F400420260704721B10268B5
:1031200042F02002026003E0026822F02002026006
:103130007047416070470146486880B2704722B1CD
:10314000036843F40023036003E0036823F40023CF
:1031500003600161704721B1026842F4802202607D
:1031600003E0026822F48022026070470AB1016124
:1031700000E0C1607047014600200A6802F40022A6
:103180000AB1012000E000207047014600200A68D3
:1031900002F001020AB1012000E000207047014660
:1031A00000204A6902F03800704730B503460A46ED
:1031B00000200024464DAB4202D24149103901E0C3
:1031C0004349103902F000550DB14C6800E00C681D
:1031D000414D2C4004EA02050DB1012000E0002021
:1031E00030BD02463A4B9A4202D23548103801E0CF
:1031F0003748103801F000531BB1374B0B40C36008
:1032000002E0354B0B408360704710B501F080033E
:103210004BB122B1436943F08003436103E043694A
:1032200023F08003436180290BD02AB1036801F0A9
:103230001E042343036004E0036801F01E04A3435B
:10324000036010BD70B50246002000240025204E0A
:10325000B24202D21A4B103B01E01D4B103B1F4EF5
:103260000E4036B11E2606EAD124166806EA040589
:1032700002E0566906F0800501F000560EB15C6868
:1032800000E01C68144E344004EA010616B10DB18A
:10329000012000E0002070BD02460D4B9A4202D290
:1032A0000748103801E00A48103801F000531BB1FC
:1032B000094B0B40C36002E0074B0B408360704733
:1032C000106002403D000020400F002000003D2023
:1032D000106402403F801CF07D0F7D0F3C0F3C0FBF
:1032E00010B504469848844208D10121084600F0F0
:1032F00086FB0021012000F082FB76E093488442A7
:1033000008D10121022000F07AFB0021022000F008
:1033100076FB6AE08E48844208D10121042000F047
:103320006EFB0021042000F06AFB5EE089488442C5
:1033300008D10121082000F062FB0021082000F0E4
:103340005EFB52E08448844208D10121102000F045
:1033500056FB0021102000F052FB46E07F488442DB
:1033600008D10121202000F04AFB0021202000F09C
:1033700046FB3AE07A48844208D10121402000F01F
:103380003EFB0021402000F03AFB2EE075488442CD
:1033900008D10121802000F032FB0021802000F0C4
:1033A0002EFB22E07048844208D10121801500F0F4
:1033B00026FB0021A01500F022FB16E06B4884429A
:1033C00008D10121401500F01AFB0021601500F022
:1033D00016FB0AE06648844207D10121001500F07F
:1033E0000EFB0021201500F00AFB10BDF0B50A46C7
:1033F00000210023002400BF3DE0012505FA01F370
:10340000156805EA03049C4234D105684F00032681
:10341000BE40B543056015794E00B540066835439A
:1034200005601579012D02D01579022D16D1856818
:103430004F000326BE40B543856055794E00B54028
:10344000866835438560456801268E40B5434560F2
:10345000456896798E40B6B235434560C5684F00E1
:103460000326BE40B543C560D5794E00B540C66859
:103470003543C560491C1029BFD3F0BD4FF6FF711D
:1034800001600021017141718171C171704708B5FE
:103490004FF480320092009A0A430092009AC2616F
:1034A000C161009AC261C2690092C269009208BDFE
:1034B0000246002013690B400BB1012000E0002000
:1034C00070470146086980B2704702460020536980
:1034D0000B400BB1012000E0002070470146486915
:1034E00080B2704701837047418370470AB10183FE
:1034F00000E0418370474161704742694A40426140
:103500007047F0B5002300244D07ED0E02FA05F3D5
:10351000CE1000F1200555F826504E07F70E0F2665
:10352000BE40B543CF1000F1200646F82750CE101C
:1035300000F1200555F8265045EA0304CE1000F1AD
:10354000200545F82640F0BD00000240000402407E
:1035500000080240000C024000100240001402402B
:1035600000180240001C02400020024000240240DB
:1035700000280240F948006840F00100F74908605F
:103580000020F64908310860F4480068F449084012
:10359000F2490860F348091D0860F348EF49843197
:1035A0000860F0481038091D0860EC48006820F4F5
:1035B0008020EA4908600020E8490C310860E749AA
:1035C0008C31086070470021E44A921C117011464A
:1035D0000870704710B501460022002300204A11F0
:1035E000012A02D1DD4C236808E0022A03D1DB4C1A
:1035F0007034236802E0D94C7434236801F01F0250
:10360000012494401C400CB1012000E0002010BDBA
:1036100038B5002000900024002500BF3120FFF7BE
:10362000D9FF05460098401C00900098B0F5A06FA7
:1036300001D0002DF2D03120FFF7CCFF08B10124DA
:1036400000E00024204638BD01460020C34A10682F
:1036500020F0F80040EAC10010607047C3490860DC
:1036600070470021BD4A703211701170012802D0DC
:1036700004280AD104E00121B84A7032117005E033
:103680000521B64A7032117000E000BF00BF7047DC
:10369000B7490860704770B5049C41EA821501265D
:1036A000C6EB530645EA0645054345EA0465AB4EBD
:1036B000361D356070BDAD4908667047820142EA2B
:1036C0000172A64B84331A607047A8498866704718
:1036D00010B5830143EA016343EA02739F4C8834C7
:1036E000236010BDA14908677047A049C8647047AE
:1036F00002460020994B0833186820F0EC6042EA3B
:1037000001031843954B08331860704702460020A8
:10371000924B0833186820F0784042EA01031843BE
:103720008E4B083318607047014600208B4A0832E0
:10373000106820F003000843106070478748083085
:10374000006800F00C00704701460020834A0832F0
:10375000106820F0F0000843106070470146002018
:103760007E4A0832106820F4E05008431060704729
:1037700001460020794A0832106820F4604040EA8F
:10378000C10010607047F0B500210022002402251E
:1037900000260223714F08373F6807F00C0121B162
:1037A000042905D0082937D105E0724F076036E0BB
:1037B000714F076033E0694F3F1D3F68C7F3805684
:1037C000664F3F1D3F6807F03F036EB16A4FB7FB7E
:1037D000F3F7DFF888C10CF1040CDCF800C0CCF37F
:1037E000881C07FB0CF40CE0624FB7FBF3F7DFF823
:1037F0006CC10CF1040CDCF800C0CCF3881C07FB96
:103800000CF4564F3F1D3F68C7F301477F1C7D00F6
:10381000B4FBF5F7076002E0564F076000BF00BF3A
:103820004E4F08373F6807F0F0010909534F7A5CA3
:103830000768D7404760494F08373F6807F4E051B1
:10384000890A4E4F7A5C4768D7408760434F0837F4
:103850003F6807F46041490B484F7A5C4768D7409E
:10386000C760F0BD002100F44072B2F5407F0AD17C
:103870003A4A0832116821F4F811414A02401143D2
:10388000364A08321160354A70321268C0F30B03B1
:103890001A43324B70331A60704735494439086017
:1038A00070473349403908607047364908607047AF
:1038B00001460020294A8C32106820F01F004A1E61
:1038C0001043264A8C321060704701460020234A7C
:1038D0008C32106820F4F8504A1E40EA02201F4A39
:1038E0008C3210607047014600201C4A8C321068F0
:1038F00020F4401008431060704701460020174A2A
:103900008C32106820F44000084310607047014674
:103910000020124A8C32106820F4403008431060B6
:10392000704719490860704739B10C4A3032126843
:1039300002430A4B30331A6006E0084A30321268FC
:103940008243064B30331A607047F9B1034A343270
:1039500012680243014B34331A601CE00038024005
:10396000FFFFF6EA1030002400300020000047423C
:10397000800E47420024F40000127A005800002014
:10398000FFFCFF0F5C014742E01147428F4A12687B
:1039900082438E4B1A60704739B18C4A121D1268EF
:1039A00002438A4B1B1D1A6006E0884A121D1268EA
:1039B0008243864B1B1D1A60704739B1834A0C3213
:1039C00012680243814B0C331A6006E07F4A0C32C6
:1039D000126882437D4B0C331A60704739B17B4AC1
:1039E000103212680243794B10331A6006E0774AAE
:1039F000103212688243754B10331A60704739B128
:103A0000724A243A12680243704B243B1A6006E063
:103A10006E4A243A126882436C4B243B1A6070470A
:103A200039B16A4A203A12680243684B203B1A6057
:103A300006E0664A203A12688243644B203B1A60D3
:103A4000704739B1614A1C3A126802435F4B1C3B14
:103A50001A6006E05D4A1C3A126882435B4B1C3BCD
:103A60001A60704739B1594A143A12680243574BE9
:103A7000143B1A6006E0554A143A12688243534BCD
:103A8000143B1A60704739B1504A103A1268024329
:103A90004E4B103B1A6006E04C4A103A12688243C3
:103AA0004A4B103B1A60704739B1484A1C321268C1
:103AB0000243464B1C331A6006E0444A1C3212682B
:103AC0008243424B1C331A60704739B13F4A20325F
:103AD000126802433D4B20331A6006E03B4A203215
:103AE00012688243394B20331A60704739B1374A24
:103AF000243212680243354B24331A6006E0334AFD
:103B0000243212688243314B24331A60704739B132
:103B10002E4A2C32126802432C4B2C331A6006E0DA
:103B20002A4A2C3212688243284B2C331A60704781
:103B300039B1264A303212680243244B30331A60BE
:103B400006E0224A303212688243204B30331A603A
:103B50007047012808D11D493C31096841F008012E
:103B60001A4A3C32116007E018493C31096821F0DB
:103B70000801164A3C321160704739B1134A273A9E
:103B800012780243114B273B1A7006E00F4A273A7E
:103B9000127882430D4B273B1A7070470B48403018
:103BA000006840F080700949403108607047014664
:103BB0000020064A283A12680A400AB1012000E0B3
:103BC0000020704701492639087070473438024098
:103BD00010B50446FA48844208D101211020FFF7AD
:103BE00052FF00211020FFF74EFF57E0F5488442B6
:103BF00009D101214804FFF735FF00214FF40030BF
:103C0000FFF730FF4AE0F048844209D101218804DF
:103C1000FFF728FF00214FF48020FFF723FF3DE04E
:103C2000EA48844209D10121C804FFF71BFF0021A3
:103C30004FF40020FFF716FF30E0E548844209D139
:103C400001210805FFF70EFF00214FF48010FFF758
:103C500009FF23E0DF48844208D101212020FFF73B
:103C600012FF00212020FFF70EFF17E0DA48844200
:103C700009D101218807FFF7F5FE00214FF08040B0
:103C8000FFF7F0FE0AE0D548844207D10121400544
:103C9000FFF7E8FE00216005FFF7E4FE10BD2DE907
:103CA000FF4705460E460024A14600BFA046B08946
:103CB00000B100BF2C8A24F44054F08804432C82C5
:103CC000AC8941F20C608443B08831890843718922
:103CD00008430443AC81AC8A24F44074B0890443A3
:103CE000AC826846FFF74FFDB548854202D0B9481F
:103CF000854202D1DDF80C9001E0DDF80890A8893A
:103D000000F4004040B109EBC90000EB0910316834
:103D10004900B0FBF1F707E009EBC90000EB09101F
:103D200031688900B0FBF1F76420B7FBF0F00401C3
:103D30002009642101FB1078A88900F4004040B1FB
:103D4000322000EBC800B0FBF1F000F007000443A4
:103D500008E0322000EB08106421B0FBF1F000F025
:103D60000F0004432C81BDE8FF874FF4165101601A
:103D700000218180C18001810C214181002181814C
:103D8000704710B502460020108A20F470600B883E
:103D90004C8823438C882343CC88234318431082C8
:103DA00010BD0021018041808180C180704721B118
:103DB000828942F40052828104E082894DF6FF73C9
:103DC0001A4082817047028B02F47F420283028B89
:103DD0000A430283704721B1828942F40042828102
:103DE00003E08289C2F30E028281704721B1828A88
:103DF00042F40062828204E0828A4FF2FF731A402A
:103E000082827047C1F30802828070470146888829
:103E1000C0F308007047028A4FF6F0731A4002821E
:103E2000028A0A430282704721B1828942F002026B
:103E3000828104E082894FF6FD731A4082817047C7
:103E400082894FF2FF731A40828182890A438281FC
:103E50007047028A4FF6DF731A400282028A0A43D1
:103E60000282704721B1028A42F48042028204E059
:103E7000028A4BF6FF731A4002827047818941F033
:103E800001018181704721B1828A42F00802828259
:103E900004E0828A4FF6F7731A4082827047028BE1
:103EA000D2B20283028B42EA01220283704721B11F
:103EB000828A42F02002828204E0828A4FF6DF7317
:103EC0001A408282704721B1828A42F010028282B7
:103ED00004E0828A4FF6EF731A4082827047828A2A
:103EE0004FF6FB731A408282828A0A4382827047AD
:103EF00021B1828A42F00202828204E0828A4FF675
:103F0000FD731A40828270471AB1838A0B43838201
:103F100002E0838A8B4383827047F0B50346002416
:103F200000260025002040F66A17B94200D100BFE4
:103F30001846C1F3421401F01F06012707FA06F5DF
:103F4000012C01D10C3004E0022C01D1103000E032
:103F500014301AB107682F43076002E00768AF43C7
:103F60000760F0BD02460020B1F5007F00D100BF20
:103F700013880B400BB1012000E00020704701F4D2
:103F80000072B2F5007F00D100BFCA4302807047C3
:103F900070B50246002400230025002040F66A1672
:103FA000B14200D100BFC1F3421501F01F03012649
:103FB00006FA03F3012D13D19689334017E0000070
:103FC000001001400044004000480040004C004008
:103FD000005000400014014000780040007C004088
:103FE000022D02D1168A334001E0968A33400C122A
:103FF000012606FA04F41688344013B10CB10120EE
:1040000000E0002070BD10B50022002340F66A14C5
:10401000A14200D100BF0A1201249440A3B2DC43A4
:10402000048010BD0948804709480047FEE7FEE7C5
:10403000FEE7FEE7FEE7FEE7FEE7FEE7FEE7FEE758
:1040400004480549054A064B7047000091030008E3
:1040500089010008B8250020B82B0020B8270020CF
:10406000B8270020032A40F2308010F0030C00F043
:10407000158011F8013BBCF1020F624498BF11F8A2
:1040800001CB00F8013B38BF11F8013BA2F104025B
:1040900098BF00F801CB38BF00F8013B11F00303D3
:1040A00000F02580083AC0F0088051F8043B083A37
:1040B00051F804CBA0E80810F5E7121D5CBF51F8D9
:1040C000043B40F8043BAFF30080D20724BF11F853
:1040D000013B11F801CB48BF11F8012B24BF00F8B8
:1040E000013B00F801CB48BF00F8012B704710B529
:1040F000203AC0F00B80B1E81850203AA0E81850E0
:10410000B1E81850A0E81850BFF4F5AF5FEA027CA0
:1041100024BFB1E81850A0E8185044BF18C918C00F
:10412000BDE810405FEA827C24BF51F8043B40F8B0
:10413000043B08BF7047D20728BF31F8023B48BF95
:1041400011F8012B28BF20F8023B48BF00F8012BD3
:10415000704770477047704701491820ABBEFEE7B3
:10416000260002000048704754250020704775461D
:10417000FFF7F8FFAE4605006946534620F00700FA
:10418000854618B020B5FFF75BFFBDE820404FF033
:1041900000064FF000074FF000084FF0000B21F031
:1041A0000701AC46ACE8C009ACE8C009ACE8C009FE
:1041B000ACE8C0098D46704710B50446AFF30080E7
:1041C0002046BDE81040FCF728B82DED020B019801
:1041D00020F0004001909DED000B02B070474910A7
:1041E00058BFC1F140415B1058BFC3F140438B42FF
:1041F000EFF300807047000051EA030C17D41CF560
:10420000801F58BFBCF5801F00F10680994218BF7F
:10421000704708BF9042704707D711F5801F58BFFD
:1042200013F5801F19D499427047894270471CF5D5
:10423000801F08D5BCF5801FF7D58B4218BF70478B
:1042400008BF824270474FF4001C1CEB410F38BF7F
:104250001CEB430F01D28B42704770B500F008F899
:10426000922449004FF000514FF08053FFF7B7BF41
:104270000EF1020E2EF0030E5EF8046B364205D4EA
:10428000012A43EB030515F5001F12D8012841EB65
:10429000010C1CF5001F0CD80ED14FEAD17C15F58E
:1042A000001F0CEB4C0C0CF1020C08BF4CEBD37C48
:1042B00004E04FF0080C01E04FEAD37C0CEB4C0516
:1042C00026FA05F606F00706B6F1040C06D20EEB48
:1042D000860CBDE870404CF0010C6047DFE80CF044
:1042E000090B02024FF000414FF00000A1F5002140
:1042F00070BD19461046012851EB010418BFD4F5D2
:10430000001484BF002001F0004170BD0808A0F532
:1043100000114FEA3101704753EA010C17D41CF524
:10432000801F58BFBCF5801F00F106808B4218BF6C
:10433000704708BF8242704707D713F5801F58BFE8
:1043400011F5801F19D48B4270479B4270471CF5B2
:10435000801F08D5BCF5801FF7D5994218BF70475C
:1043600008BF904270474FF4001C1CEB430F38BF4E
:104370001CEB410F01D2994270470FB40CBC03BC37
:10438000FFF76BBF43004FEAD30C4FEA3C0C4340AE
:104390001FBF40070CF1605113F0FE4F70471CF037
:1043A000006F03D100200CF0004170470CF0004377
:1043B00043EA507010B540EACC0000F00EF800BFA0
:1043C000000000924FEA0001FFF7A0BF4FF000414C
:1043D0004FF00000A1F5002170470EF1020E2EF003
:1043E000030E5EF8044B244204D44FEA4102B2F1BA
:1043F0007F4F11D84FEA4003B3F17F4F0CD80ED155
:104400004FEAD07CB2F17F4F0CEB4C0C0CF1020C5C
:1044100008BF4CEBD17C04E04FF0080C01E04FEA00
:10442000D17C0CEB4C0324FA03F404F00704B4F140
:10443000040C06D20EEB840CBDE810404CF0010CCD
:104440006047DFE80CF0070802024FF00040A0F5DB
:10445000800010BD0846420018BFD2F1807288BFAC
:1044600000F0004010BD4FF04070E1EE100A7047C0
:10447000904400080000002068000000C40100080B
:10448000F844000868000020502B0000E0010008FC
:10449000007A030A0000000000000000010203048B
:1044A00006070809000000000000000000000000EE
:1044B00000000000000000000000000000000000FC
:1044C00000000000000000000000000000000000EC
:1044D00000000000000000000000000000000000DC
:1044E00000000000000000000000000001020304C2
:0844F00001020304060708099C
:040000050800018965
:00000001FF
